

Microchip Technology PIC18 LITE Macro Assembler V1.42 build -159332390 
                                                                                               Fri May 19 10:13:32 2017

Microchip Technology Omniscient Code Generator v1.42 (Free mode) build 201704130522
     1                           	processor	18F4550
     2                           	fnconf	rparam,??,?,0
     3                           	opt	pw 120
     4                           	opt	lm
     5                           	psect	idataCOMRAM,global,class=CODE,delta=1,noexec
     6                           	psect	cinit,global,reloc=2,class=CODE,delta=1
     7                           	psect	bssCOMRAM,global,class=COMRAM,space=1,delta=1,noexec
     8                           	psect	dataCOMRAM,global,class=COMRAM,space=1,delta=1,noexec
     9                           	psect	cstackCOMRAM,global,class=COMRAM,space=1,delta=1,noexec
    10                           	psect	text0,global,reloc=2,class=CODE,delta=1
    11                           	psect	text1,global,reloc=2,class=CODE,delta=1
    12                           	psect	text2,global,reloc=2,class=CODE,delta=1
    13                           	psect	text3,global,reloc=2,class=CODE,delta=1,group=1
    14                           	psect	text4,global,reloc=2,class=CODE,delta=1,group=1
    15                           	psect	intsave_regs,global,class=BIGRAM,space=1,delta=1,noexec
    16                           	psect	rparam,global,class=COMRAM,space=1,delta=1,noexec
    17  0000                     
    18                           ; Version 1.42
    19                           ; Generated 13/04/2017 GMT
    20                           ; 
    21                           ; Copyright © 2017, Microchip Technology Inc. and its subsidiaries ("Microchip")
    22                           ; All rights reserved.
    23                           ; 
    24                           ; This software is developed by Microchip Technology Inc. and its subsidiaries ("Microch
      +                          ip").
    25                           ; 
    26                           ; Redistribution and use in source and binary forms, with or without modification, are
    27                           ; permitted provided that the following conditions are met:
    28                           ; 
    29                           ;     1. Redistributions of source code must retain the above copyright notice, this lis
      +                          t of
    30                           ;        conditions and the following disclaimer.
    31                           ; 
    32                           ;     2. Redistributions in binary form must reproduce the above copyright notice, this 
      +                          list
    33                           ;        of conditions and the following disclaimer in the documentation and/or other
    34                           ;        materials provided with the distribution.
    35                           ; 
    36                           ;     3. Microchip's name may not be used to endorse or promote products derived from th
      +                          is
    37                           ;        software without specific prior written permission.
    38                           ; 
    39                           ; THIS SOFTWARE IS PROVIDED BY MICROCHIP "AS IS" AND ANY EXPRESS OR IMPLIED WARRANTIES,
    40                           ; INCLUDING, BUT NOT LIMITED TO, THE IMPLIED WARRANTIES OF MERCHANTABILITY AND FITNESS F
      +                          OR
    41                           ; PURPOSE ARE DISCLAIMED.  IN NO EVENT SHALL MICROCHIP BE LIABLE FOR ANY DIRECT, INDIREC
      +                          T,
    42                           ; INCIDENTAL, SPECIAL, EXEMPLARY, OR CONSEQUENTIAL DAMAGES (INCLUDING BUT NOT LIMITED TO
    43                           ; PROCUREMENT OF SUBSTITUTE GOODS OR SERVICES; LOSS OF USE, DATA OR PROFITS; OR BUSINESS
    44                           ; INTERRUPTION) HOWSOEVER CAUSED AND ON ANY THEORY OF LIABILITY, WHETHER IN CONTRACT, ST
      +                          RICT
    45                           ; LIABILITY, OR TORT (INCLUDING NEGLIGENCE OR OTHERWISE) ARISING IN ANY WAY OUT OF THE U
      +                          SE OF
    46                           ; THIS SOFTWARE, EVEN IF ADVISED OF THE POSSIBILITY OF SUCH DAMAGE.
    47                           ; 
    48                           ; 
    49                           ; Code-generator required, PIC18F4550 Definitions
    50                           ; 
    51                           ; SFR Addresses
    52  0000                     
    53                           	psect	idataCOMRAM
    54  007D68                     __pidataCOMRAM:
    55                           	opt stack 0
    56                           
    57                           ;initializer for _Disp7SegCC
    58  007D68  3F                 	db	63
    59  007D69  06                 	db	6
    60  007D6A  5B                 	db	91
    61  007D6B  4F                 	db	79
    62  007D6C  66                 	db	102
    63  007D6D  6D                 	db	109
    64  007D6E  7D                 	db	125
    65  007D6F  07                 	db	7
    66  007D70  7F                 	db	127
    67  007D71  6F                 	db	111
    68  0000                     _PORTD	set	3971
    69  0000                     _PORTEbits	set	3972
    70  0000                     _TRISD	set	3989
    71  0000                     _TRISBbits	set	3987
    72  0000                     _TRISEbits	set	3990
    73  0000                     _ADCON1bits	set	4033
    74  0000                     _OSCCONbits	set	4051
    75  0000                     _PORTBbits	set	3969
    76                           
    77                           ; #config settings
    78  0000                     
    79                           	psect	cinit
    80  007D8E                     __pcinit:
    81                           	opt stack 0
    82  007D8E                     start_initialization:
    83                           	opt stack 0
    84  007D8E                     __initialization:
    85                           	opt stack 0
    86                           
    87                           ; Initialize objects allocated to COMRAM (10 bytes)
    88                           ; load TBLPTR registers with __pidataCOMRAM
    89  007D8E  0E68               	movlw	low __pidataCOMRAM
    90  007D90  6EF6               	movwf	tblptrl,c
    91  007D92  0E7D               	movlw	high __pidataCOMRAM
    92  007D94  6EF7               	movwf	tblptrh,c
    93  007D96  0E00               	movlw	low (__pidataCOMRAM shr (0+16))
    94  007D98  6EF8               	movwf	tblptru,c
    95  007D9A  EE00  F00F         	lfsr	0,__pdataCOMRAM
    96  007D9E  EE10 F00A          	lfsr	1,10
    97  007DA2                     copy_data0:
    98  007DA2  0009               	tblrd		*+
    99  007DA4  CFF5 FFEE          	movff	tablat,postinc0
   100  007DA8  50E5               	movf	postdec1,w,c
   101  007DAA  50E1               	movf	fsr1l,w,c
   102  007DAC  E1FA               	bnz	copy_data0
   103                           
   104                           ; Clear objects allocated to COMRAM (3 bytes)
   105  007DAE  6A1B               	clrf	(__pbssCOMRAM+2)& (0+255),c
   106  007DB0  6A1A               	clrf	(__pbssCOMRAM+1)& (0+255),c
   107  007DB2  6A19               	clrf	__pbssCOMRAM& (0+255),c
   108  007DB4                     end_of_initialization:
   109                           	opt stack 0
   110  007DB4                     __end_of__initialization:
   111                           	opt stack 0
   112  007DB4  0E00               	movlw	low (__Lmediumconst shr (0+16))
   113  007DB6  6EF8               	movwf	tblptru,c
   114  007DB8  0100               	movlb	0
   115  007DBA  EFAC  F03F         	goto	_main	;jump to C main() function
   116                           tblptru	equ	0xFF8
   117                           tblptrh	equ	0xFF7
   118                           tblptrl	equ	0xFF6
   119                           tablat	equ	0xFF5
   120                           postinc0	equ	0xFEE
   121                           postdec1	equ	0xFE5
   122                           fsr1l	equ	0xFE1
   123                           
   124                           	psect	bssCOMRAM
   125  000019                     __pbssCOMRAM:
   126                           	opt stack 0
   127  000019                     _Mod:
   128                           	opt stack 0
   129  000019                     	ds	1
   130  00001A                     _Opcion:
   131                           	opt stack 0
   132  00001A                     	ds	1
   133  00001B                     _Contador:
   134                           	opt stack 0
   135  00001B                     	ds	1
   136                           tblptru	equ	0xFF8
   137                           tblptrh	equ	0xFF7
   138                           tblptrl	equ	0xFF6
   139                           tablat	equ	0xFF5
   140                           postinc0	equ	0xFEE
   141                           postdec1	equ	0xFE5
   142                           fsr1l	equ	0xFE1
   143                           
   144                           	psect	dataCOMRAM
   145  00000F                     __pdataCOMRAM:
   146                           	opt stack 0
   147  00000F                     _Disp7SegCC:
   148                           	opt stack 0
   149  00000F                     	ds	10
   150                           tblptru	equ	0xFF8
   151                           tblptrh	equ	0xFF7
   152                           tblptrl	equ	0xFF6
   153                           tablat	equ	0xFF5
   154                           postinc0	equ	0xFEE
   155                           postdec1	equ	0xFE5
   156                           fsr1l	equ	0xFE1
   157                           
   158                           	psect	cstackCOMRAM
   159  000001                     __pcstackCOMRAM:
   160                           	opt stack 0
   161  000001                     ?___awdiv:
   162                           	opt stack 0
   163  000001                     ?___awmod:
   164                           	opt stack 0
   165  000001                     ___awdiv@dividend:
   166                           	opt stack 0
   167  000001                     ___awmod@dividend:
   168                           	opt stack 0
   169                           
   170                           ; 2 bytes @ 0x0
   171  000001                     	ds	2
   172  000003                     ___awdiv@divisor:
   173                           	opt stack 0
   174  000003                     ___awmod@divisor:
   175                           	opt stack 0
   176                           
   177                           ; 2 bytes @ 0x2
   178  000003                     	ds	2
   179  000005                     ___awdiv@counter:
   180                           	opt stack 0
   181  000005                     ___awmod@counter:
   182                           	opt stack 0
   183                           
   184                           ; 1 bytes @ 0x4
   185  000005                     	ds	1
   186  000006                     ___awdiv@sign:
   187                           	opt stack 0
   188  000006                     ___awmod@sign:
   189                           	opt stack 0
   190                           
   191                           ; 1 bytes @ 0x5
   192  000006                     	ds	1
   193  000007                     ___awdiv@quotient:
   194                           	opt stack 0
   195                           
   196                           ; 2 bytes @ 0x6
   197  000007                     	ds	2
   198  000009                     ??_PrintTwoDisp:
   199                           
   200                           ; 1 bytes @ 0x8
   201  000009                     	ds	1
   202  00000A                     PrintTwoDisp@Unidades:
   203                           	opt stack 0
   204                           
   205                           ; 1 bytes @ 0x9
   206  00000A                     	ds	1
   207  00000B                     PrintTwoDisp@Decenas:
   208                           	opt stack 0
   209                           
   210                           ; 1 bytes @ 0xA
   211  00000B                     	ds	1
   212  00000C                     PrintTwoDisp@n:
   213                           	opt stack 0
   214                           
   215                           ; 1 bytes @ 0xB
   216  00000C                     	ds	1
   217  00000D                     PrintTwoDisp@Valor:
   218                           	opt stack 0
   219                           
   220                           ; 1 bytes @ 0xC
   221  00000D                     	ds	1
   222  00000E                     ??_main:
   223                           
   224                           ; 1 bytes @ 0xD
   225  00000E                     	ds	1
   226                           tblptru	equ	0xFF8
   227                           tblptrh	equ	0xFF7
   228                           tblptrl	equ	0xFF6
   229                           tablat	equ	0xFF5
   230                           postinc0	equ	0xFEE
   231                           postdec1	equ	0xFE5
   232                           fsr1l	equ	0xFE1
   233                           
   234 ;;
   235 ;;Main: autosize = 0, tempsize = 1, incstack = 0, save=0
   236 ;;
   237 ;; *************** function _main *****************
   238 ;; Defined at:
   239 ;;		line 42 in file "main.c"
   240 ;; Parameters:    Size  Location     Type
   241 ;;		None
   242 ;; Auto vars:     Size  Location     Type
   243 ;;		None
   244 ;; Return value:  Size  Location     Type
   245 ;;                  1    wreg      void 
   246 ;; Registers used:
   247 ;;		wreg, fsr2l, fsr2h, status,2, status,0, prodl, prodh, cstack
   248 ;; Tracked objects:
   249 ;;		On entry : 0/0
   250 ;;		On exit  : 0/0
   251 ;;		Unchanged: 0/0
   252 ;; Data sizes:     COMRAM   BANK0   BANK1   BANK2   BANK3   BANK4   BANK5   BANK6   BANK7
   253 ;;      Params:         0       0       0       0       0       0       0       0       0
   254 ;;      Locals:         0       0       0       0       0       0       0       0       0
   255 ;;      Temps:          1       0       0       0       0       0       0       0       0
   256 ;;      Totals:         1       0       0       0       0       0       0       0       0
   257 ;;Total ram usage:        1 bytes
   258 ;; Hardware stack levels required when called:    2
   259 ;; This function calls:
   260 ;;		_PrintTwoDisp
   261 ;;		_SetUp
   262 ;; This function is called by:
   263 ;;		Startup code after reset
   264 ;; This function uses a non-reentrant model
   265 ;;
   266                           
   267                           	psect	text0
   268  007F58                     __ptext0:
   269                           	opt stack 0
   270  007F58                     _main:
   271                           	opt stack 29
   272                           
   273                           ;main.c: 45: SetUp();
   274                           
   275                           ;incstack = 0
   276  007F58  ECB9  F03E         	call	_SetUp	;wreg free
   277                           
   278                           ;main.c: 47: PrintTwoDisp(Contador);
   279  007F5C  501B               	movf	_Contador,w,c
   280  007F5E  EC59  F03F         	call	_PrintTwoDisp
   281  007F62                     l963:
   282                           
   283                           ;main.c: 49: {
   284                           ;main.c: 51: Opcion = (Opcion | PORTBbits.RB1) << 1;
   285  007F62  A281               	btfss	3969,1,c	;volatile
   286  007F64  D002               	goto	u390
   287  007F66  0E01               	movlw	1
   288  007F68  D001               	goto	u396
   289  007F6A                     u390:
   290  007F6A  0E00               	movlw	0
   291  007F6C                     u396:
   292  007F6C  101A               	iorwf	_Opcion,w,c
   293  007F6E  6E0E               	movwf	??_main& (0+255),c
   294  007F70  90D8               	bcf	status,0,c
   295  007F72  340E               	rlcf	??_main,w,c
   296  007F74  6E1A               	movwf	_Opcion,c
   297                           
   298                           ;main.c: 52: Opcion = Opcion | PORTBbits.RB0;
   299  007F76  A081               	btfss	3969,0,c	;volatile
   300  007F78  D002               	goto	u400
   301  007F7A  0E01               	movlw	1
   302  007F7C  D001               	goto	u406
   303  007F7E                     u400:
   304  007F7E  0E00               	movlw	0
   305  007F80                     u406:
   306  007F80  101A               	iorwf	_Opcion,w,c
   307  007F82  6E1A               	movwf	_Opcion,c
   308                           
   309                           ;main.c: 54: switch(Opcion)
   310  007F84  D02A               	goto	l1005
   311  007F86                     l967:
   312                           
   313                           ;main.c: 57: if(Contador == 99)
   314  007F86  0E63               	movlw	99
   315  007F88  181B               	xorwf	_Contador,w,c
   316  007F8A  A4D8               	btfss	status,2,c
   317  007F8C  D016               	goto	l989
   318  007F8E                     l969:
   319                           
   320                           ;main.c: 58: Contador = 0;
   321  007F8E  0E00               	movlw	0
   322  007F90  D022               	goto	L9
   323  007F92                     l973:
   324                           
   325                           ;main.c: 63: if(Contador == 0)
   326  007F92  501B               	movf	_Contador,w,c
   327  007F94  A4D8               	btfss	status,2,c
   328  007F96  D002               	goto	l977
   329  007F98                     l975:
   330                           
   331                           ;main.c: 64: Contador = 99;
   332  007F98  0E63               	movlw	99
   333  007F9A  D01D               	goto	L9
   334  007F9C                     l977:
   335                           
   336                           ;main.c: 65: else
   337                           ;main.c: 66: Contador = Contador - 1;
   338  007F9C  041B               	decf	_Contador,w,c
   339  007F9E  D01B               	goto	L9
   340  007FA0                     l979:
   341                           
   342                           ;main.c: 69: if(Contador >= 98)
   343  007FA0  0E61               	movlw	97
   344  007FA2  641B               	cpfsgt	_Contador,c
   345  007FA4  D001               	goto	l983
   346  007FA6  D7F3               	goto	l969
   347  007FA8                     l983:
   348                           
   349                           ;main.c: 71: else
   350                           ;main.c: 72: {
   351                           ;main.c: 73: Mod = Contador%2;
   352  007FA8  501B               	movf	_Contador,w,c
   353  007FAA  0B01               	andlw	1
   354  007FAC  6E19               	movwf	_Mod,c
   355                           
   356                           ;main.c: 74: if(Mod == 0)
   357  007FAE  5019               	movf	_Mod,w,c
   358  007FB0  A4D8               	btfss	status,2,c
   359  007FB2  D003               	goto	l989
   360                           
   361                           ;main.c: 75: Contador = Contador + 2;
   362  007FB4  501B               	movf	_Contador,w,c
   363  007FB6  0F02               	addlw	2
   364  007FB8  D00E               	goto	L9
   365  007FBA                     l989:
   366                           
   367                           ;main.c: 76: else
   368                           ;main.c: 77: Contador = Contador + 1;
   369  007FBA  281B               	incf	_Contador,w,c
   370  007FBC  D00C               	goto	L9
   371  007FBE                     l991:
   372                           
   373                           ;main.c: 81: if(Contador <= 1)
   374  007FBE  0E02               	movlw	2
   375  007FC0  601B               	cpfslt	_Contador,c
   376  007FC2  D001               	goto	l995
   377  007FC4  D7E9               	goto	l975
   378  007FC6                     l995:
   379                           
   380                           ;main.c: 83: else
   381                           ;main.c: 84: {
   382                           ;main.c: 85: Mod = Contador%2;
   383  007FC6  501B               	movf	_Contador,w,c
   384  007FC8  0B01               	andlw	1
   385  007FCA  6E19               	movwf	_Mod,c
   386                           
   387                           ;main.c: 86: if(Mod == 0)
   388  007FCC  5019               	movf	_Mod,w,c
   389  007FCE  B4D8               	btfsc	status,2,c
   390  007FD0  D7E5               	goto	l977
   391                           
   392                           ;main.c: 88: else
   393                           ;main.c: 89: Contador = Contador - 2;
   394                           
   395                           ;main.c: 87: Contador = Contador - 1;
   396  007FD2  501B               	movf	_Contador,w,c
   397  007FD4  0FFE               	addlw	254
   398  007FD6                     L9:
   399  007FD6  6E1B               	movwf	_Contador,c
   400                           
   401                           ;main.c: 94: }
   402                           
   403                           ;main.c: 93: break;
   404                           
   405                           ;main.c: 92: default:
   406                           
   407                           ;main.c: 90: }
   408                           ;main.c: 91: break;
   409  007FD8  D00D               	goto	l1007
   410  007FDA                     l1005:
   411  007FDA  501A               	movf	_Opcion,w,c
   412                           
   413                           ; Switch size 1, requested type "space"
   414                           ; Number of cases is 4, Range of values is 0 to 3
   415                           ; switch strategies available:
   416                           ; Name         Instructions Cycles
   417                           ; simple_byte           13     7 (average)
   418                           ;	Chosen strategy is simple_byte
   419  007FDC  0A00               	xorlw	0	; case 0
   420  007FDE  B4D8               	btfsc	status,2,c
   421  007FE0  D7D2               	goto	l967
   422  007FE2  0A01               	xorlw	1	; case 1
   423  007FE4  B4D8               	btfsc	status,2,c
   424  007FE6  D7D5               	goto	l973
   425  007FE8  0A03               	xorlw	3	; case 2
   426  007FEA  B4D8               	btfsc	status,2,c
   427  007FEC  D7D9               	goto	l979
   428  007FEE  0A01               	xorlw	1	; case 3
   429  007FF0  B4D8               	btfsc	status,2,c
   430  007FF2  D7E5               	goto	l991
   431  007FF4                     l1007:
   432                           
   433                           ;main.c: 95: Opcion = 0;
   434  007FF4  0E00               	movlw	0
   435  007FF6  6E1A               	movwf	_Opcion,c
   436                           
   437                           ;main.c: 96: PrintTwoDisp(Contador);
   438  007FF8  501B               	movf	_Contador,w,c
   439  007FFA  EC59  F03F         	call	_PrintTwoDisp
   440  007FFE  D7B1               	goto	l963
   441  008000                     __end_of_main:
   442                           	opt stack 0
   443                           tblptru	equ	0xFF8
   444                           tblptrh	equ	0xFF7
   445                           tblptrl	equ	0xFF6
   446                           tablat	equ	0xFF5
   447                           postinc0	equ	0xFEE
   448                           postdec1	equ	0xFE5
   449                           fsr1l	equ	0xFE1
   450                           status	equ	0xFD8
   451                           
   452 ;; *************** function _SetUp *****************
   453 ;; Defined at:
   454 ;;		line 103 in file "main.c"
   455 ;; Parameters:    Size  Location     Type
   456 ;;		None
   457 ;; Auto vars:     Size  Location     Type
   458 ;;		None
   459 ;; Return value:  Size  Location     Type
   460 ;;                  1    wreg      void 
   461 ;; Registers used:
   462 ;;		wreg, status,2
   463 ;; Tracked objects:
   464 ;;		On entry : 0/0
   465 ;;		On exit  : 0/0
   466 ;;		Unchanged: 0/0
   467 ;; Data sizes:     COMRAM   BANK0   BANK1   BANK2   BANK3   BANK4   BANK5   BANK6   BANK7
   468 ;;      Params:         0       0       0       0       0       0       0       0       0
   469 ;;      Locals:         0       0       0       0       0       0       0       0       0
   470 ;;      Temps:          0       0       0       0       0       0       0       0       0
   471 ;;      Totals:         0       0       0       0       0       0       0       0       0
   472 ;;Total ram usage:        0 bytes
   473 ;; Hardware stack levels used:    1
   474 ;; This function calls:
   475 ;;		Nothing
   476 ;; This function is called by:
   477 ;;		_main
   478 ;; This function uses a non-reentrant model
   479 ;;
   480                           
   481                           	psect	text1
   482  007D72                     __ptext1:
   483                           	opt stack 0
   484  007D72                     _SetUp:
   485                           	opt stack 30
   486                           
   487                           ;main.c: 106: OSCCONbits.IRCF = 0b111;
   488                           
   489                           ;incstack = 0
   490  007D72  88D3               	bsf	4051,4,c	;volatile
   491  007D74  8AD3               	bsf	4051,5,c	;volatile
   492  007D76  8CD3               	bsf	4051,6,c	;volatile
   493                           
   494                           ;main.c: 107: ADCON1bits.PCFG = 0b1111;
   495  007D78  80C1               	bsf	4033,0,c	;volatile
   496  007D7A  82C1               	bsf	4033,1,c	;volatile
   497  007D7C  84C1               	bsf	4033,2,c	;volatile
   498  007D7E  86C1               	bsf	4033,3,c	;volatile
   499                           
   500                           ;main.c: 110: TRISEbits.RE0 = 0;
   501  007D80  9096               	bcf	3990,0,c	;volatile
   502                           
   503                           ;main.c: 111: TRISEbits.RE1 = 0;
   504  007D82  9296               	bcf	3990,1,c	;volatile
   505                           
   506                           ;main.c: 112: TRISBbits.RB0 = 1;
   507  007D84  8093               	bsf	3987,0,c	;volatile
   508                           
   509                           ;main.c: 113: TRISBbits.RB1 = 1;
   510  007D86  8293               	bsf	3987,1,c	;volatile
   511                           
   512                           ;main.c: 114: TRISD = 0x00;
   513  007D88  0E00               	movlw	0
   514  007D8A  6E95               	movwf	3989,c	;volatile
   515  007D8C  0012               	return	
   516  007D8E                     __end_of_SetUp:
   517                           	opt stack 0
   518                           tblptru	equ	0xFF8
   519                           tblptrh	equ	0xFF7
   520                           tblptrl	equ	0xFF6
   521                           tablat	equ	0xFF5
   522                           postinc0	equ	0xFEE
   523                           postdec1	equ	0xFE5
   524                           fsr1l	equ	0xFE1
   525                           status	equ	0xFD8
   526                           
   527 ;; *************** function _PrintTwoDisp *****************
   528 ;; Defined at:
   529 ;;		line 123 in file "main.c"
   530 ;; Parameters:    Size  Location     Type
   531 ;;  Valor           1    wreg     unsigned char 
   532 ;; Auto vars:     Size  Location     Type
   533 ;;  Valor           1   12[COMRAM] unsigned char 
   534 ;;  n               1   11[COMRAM] unsigned char 
   535 ;;  Decenas         1   10[COMRAM] unsigned char 
   536 ;;  Unidades        1    9[COMRAM] unsigned char 
   537 ;; Return value:  Size  Location     Type
   538 ;;                  1    wreg      void 
   539 ;; Registers used:
   540 ;;		wreg, fsr2l, fsr2h, status,2, status,0, prodl, prodh, cstack
   541 ;; Tracked objects:
   542 ;;		On entry : 0/0
   543 ;;		On exit  : 0/0
   544 ;;		Unchanged: 0/0
   545 ;; Data sizes:     COMRAM   BANK0   BANK1   BANK2   BANK3   BANK4   BANK5   BANK6   BANK7
   546 ;;      Params:         0       0       0       0       0       0       0       0       0
   547 ;;      Locals:         4       0       0       0       0       0       0       0       0
   548 ;;      Temps:          1       0       0       0       0       0       0       0       0
   549 ;;      Totals:         5       0       0       0       0       0       0       0       0
   550 ;;Total ram usage:        5 bytes
   551 ;; Hardware stack levels used:    1
   552 ;; Hardware stack levels required when called:    1
   553 ;; This function calls:
   554 ;;		___awdiv
   555 ;;		___awmod
   556 ;; This function is called by:
   557 ;;		_main
   558 ;; This function uses a non-reentrant model
   559 ;;
   560                           
   561                           	psect	text2
   562  007EB2                     __ptext2:
   563                           	opt stack 0
   564  007EB2                     _PrintTwoDisp:
   565                           	opt stack 29
   566                           
   567                           ;incstack = 0
   568                           ;PrintTwoDisp@Valor stored from wreg
   569  007EB2  6E0D               	movwf	PrintTwoDisp@Valor,c
   570                           
   571                           ;main.c: 125: unsigned char Unidades = 0;
   572  007EB4  0E00               	movlw	0
   573  007EB6  6E0A               	movwf	PrintTwoDisp@Unidades,c
   574                           
   575                           ;main.c: 126: unsigned char Decenas = 0;
   576  007EB8  0E00               	movlw	0
   577  007EBA  6E0B               	movwf	PrintTwoDisp@Decenas,c
   578                           
   579                           ;main.c: 128: if(Valor > 9)
   580  007EBC  0E09               	movlw	9
   581  007EBE  640D               	cpfsgt	PrintTwoDisp@Valor,c
   582  007EC0  D017               	goto	l939
   583                           
   584                           ;main.c: 129: {
   585                           ;main.c: 130: Unidades = Valor%10;
   586  007EC2  C00D  F001         	movff	PrintTwoDisp@Valor,___awmod@dividend
   587  007EC6  6A02               	clrf	___awmod@dividend+1,c
   588  007EC8  0E00               	movlw	0
   589  007ECA  6E04               	movwf	___awmod@divisor+1,c
   590  007ECC  0E0A               	movlw	10
   591  007ECE  6E03               	movwf	___awmod@divisor,c
   592  007ED0  ECDF  F03E         	call	___awmod	;wreg free
   593  007ED4  5001               	movf	?___awmod,w,c
   594  007ED6  6E0A               	movwf	PrintTwoDisp@Unidades,c
   595                           
   596                           ;main.c: 131: Decenas = Valor/10;
   597  007ED8  C00D  F001         	movff	PrintTwoDisp@Valor,___awdiv@dividend
   598  007EDC  6A02               	clrf	___awdiv@dividend+1,c
   599  007EDE  0E00               	movlw	0
   600  007EE0  6E04               	movwf	___awdiv@divisor+1,c
   601  007EE2  0E0A               	movlw	10
   602  007EE4  6E03               	movwf	___awdiv@divisor,c
   603  007EE6  EC17  F03F         	call	___awdiv	;wreg free
   604  007EEA  5001               	movf	?___awdiv,w,c
   605  007EEC  6E0B               	movwf	PrintTwoDisp@Decenas,c
   606                           
   607                           ;main.c: 132: }
   608  007EEE  D004               	goto	l64
   609  007EF0                     l939:
   610                           
   611                           ;main.c: 133: else
   612                           ;main.c: 134: {
   613                           ;main.c: 135: Decenas = 0;
   614  007EF0  0E00               	movlw	0
   615  007EF2  6E0B               	movwf	PrintTwoDisp@Decenas,c
   616                           
   617                           ;main.c: 136: Unidades = Valor;
   618  007EF4  C00D  F00A         	movff	PrintTwoDisp@Valor,PrintTwoDisp@Unidades
   619  007EF8                     l64:
   620                           
   621                           ;main.c: 137: }
   622                           ;main.c: 139: for(char n = 0; n < 31; n++)
   623  007EF8  0E00               	movlw	0
   624  007EFA  6E0C               	movwf	PrintTwoDisp@n,c
   625  007EFC                     l943:
   626  007EFC  0E1E               	movlw	30
   627  007EFE  640C               	cpfsgt	PrintTwoDisp@n,c
   628  007F00  D001               	goto	l65
   629  007F02  0012               	return	
   630  007F04                     l65:
   631                           
   632                           ;main.c: 140: {
   633                           ;main.c: 141: PORTEbits.RE0 = 1;
   634  007F04  8084               	bsf	3972,0,c	;volatile
   635                           
   636                           ;main.c: 142: PORTEbits.RE1 = 0;
   637  007F06  9284               	bcf	3972,1,c	;volatile
   638                           
   639                           ;main.c: 143: PORTD = Disp7SegCC[Unidades];
   640  007F08  500A               	movf	PrintTwoDisp@Unidades,w,c
   641  007F0A  0D01               	mullw	1
   642  007F0C  0E0F               	movlw	low _Disp7SegCC
   643  007F0E  24F3               	addwf	prodl,w,c
   644  007F10  6ED9               	movwf	fsr2l,c
   645  007F12  0E00               	movlw	high _Disp7SegCC
   646  007F14  20F4               	addwfc	prodh,w,c
   647  007F16  6EDA               	movwf	fsr2h,c
   648  007F18  50DF               	movf	indf2,w,c
   649  007F1A  6E83               	movwf	3971,c	;volatile
   650                           
   651                           ;main.c: 144: _delay((unsigned long)((8)*(8000000/4000.0)));
   652  007F1C  0E15               	movlw	21
   653  007F1E  6E09               	movwf	??_PrintTwoDisp& (0+255),c
   654  007F20  0EC6               	movlw	198
   655  007F22                     u477:
   656  007F22  2EE8               	decfsz	wreg,f,c
   657  007F24  D7FE               	bra	u477
   658  007F26  2E09               	decfsz	??_PrintTwoDisp& (0+255),f,c
   659  007F28  D7FC               	bra	u477
   660  007F2A  D000               	nop2	
   661                           
   662                           ;main.c: 146: PORTEbits.RE0 = 0;
   663  007F2C  9084               	bcf	3972,0,c	;volatile
   664                           
   665                           ;main.c: 147: PORTEbits.RE1 = 1;
   666  007F2E  8284               	bsf	3972,1,c	;volatile
   667                           
   668                           ;main.c: 148: PORTD = Disp7SegCC[Decenas];
   669  007F30  500B               	movf	PrintTwoDisp@Decenas,w,c
   670  007F32  0D01               	mullw	1
   671  007F34  0E0F               	movlw	low _Disp7SegCC
   672  007F36  24F3               	addwf	prodl,w,c
   673  007F38  6ED9               	movwf	fsr2l,c
   674  007F3A  0E00               	movlw	high _Disp7SegCC
   675  007F3C  20F4               	addwfc	prodh,w,c
   676  007F3E  6EDA               	movwf	fsr2h,c
   677  007F40  50DF               	movf	indf2,w,c
   678  007F42  6E83               	movwf	3971,c	;volatile
   679                           
   680                           ;main.c: 149: _delay((unsigned long)((8)*(8000000/4000.0)));
   681  007F44  0E15               	movlw	21
   682  007F46  6E09               	movwf	??_PrintTwoDisp& (0+255),c
   683  007F48  0EC6               	movlw	198
   684  007F4A                     u487:
   685  007F4A  2EE8               	decfsz	wreg,f,c
   686  007F4C  D7FE               	bra	u487
   687  007F4E  2E09               	decfsz	??_PrintTwoDisp& (0+255),f,c
   688  007F50  D7FC               	bra	u487
   689  007F52  D000               	nop2	
   690  007F54  2A0C               	incf	PrintTwoDisp@n,f,c
   691  007F56  D7D2               	goto	l943
   692  007F58                     __end_of_PrintTwoDisp:
   693                           	opt stack 0
   694                           tblptru	equ	0xFF8
   695                           tblptrh	equ	0xFF7
   696                           tblptrl	equ	0xFF6
   697                           tablat	equ	0xFF5
   698                           prodh	equ	0xFF4
   699                           prodl	equ	0xFF3
   700                           postinc0	equ	0xFEE
   701                           wreg	equ	0xFE8
   702                           postdec1	equ	0xFE5
   703                           fsr1l	equ	0xFE1
   704                           indf2	equ	0xFDF
   705                           fsr2h	equ	0xFDA
   706                           fsr2l	equ	0xFD9
   707                           status	equ	0xFD8
   708                           
   709 ;; *************** function ___awmod *****************
   710 ;; Defined at:
   711 ;;		line 8 in file "C:\Program Files (x86)\Microchip\xc8\v1.42\sources\common\awmod.c"
   712 ;; Parameters:    Size  Location     Type
   713 ;;  dividend        2    0[COMRAM] int 
   714 ;;  divisor         2    2[COMRAM] int 
   715 ;; Auto vars:     Size  Location     Type
   716 ;;  sign            1    5[COMRAM] unsigned char 
   717 ;;  counter         1    4[COMRAM] unsigned char 
   718 ;; Return value:  Size  Location     Type
   719 ;;                  2    0[COMRAM] int 
   720 ;; Registers used:
   721 ;;		wreg, status,2, status,0
   722 ;; Tracked objects:
   723 ;;		On entry : 0/0
   724 ;;		On exit  : 0/0
   725 ;;		Unchanged: 0/0
   726 ;; Data sizes:     COMRAM   BANK0   BANK1   BANK2   BANK3   BANK4   BANK5   BANK6   BANK7
   727 ;;      Params:         4       0       0       0       0       0       0       0       0
   728 ;;      Locals:         2       0       0       0       0       0       0       0       0
   729 ;;      Temps:          0       0       0       0       0       0       0       0       0
   730 ;;      Totals:         6       0       0       0       0       0       0       0       0
   731 ;;Total ram usage:        6 bytes
   732 ;; Hardware stack levels used:    1
   733 ;; This function calls:
   734 ;;		Nothing
   735 ;; This function is called by:
   736 ;;		_PrintTwoDisp
   737 ;; This function uses a non-reentrant model
   738 ;;
   739                           
   740                           	psect	text3
   741  007DBE                     __ptext3:
   742                           	opt stack 0
   743  007DBE                     ___awmod:
   744                           	opt stack 29
   745                           
   746                           ;incstack = 0
   747  007DBE  0E00               	movlw	0
   748  007DC0  6E06               	movwf	___awmod@sign,c
   749  007DC2  AE02               	btfss	___awmod@dividend+1,7,c
   750  007DC4  D006               	goto	l905
   751  007DC6  6C01               	negf	___awmod@dividend,c
   752  007DC8  1E02               	comf	___awmod@dividend+1,f,c
   753  007DCA  B0D8               	btfsc	status,0,c
   754  007DCC  2A02               	incf	___awmod@dividend+1,f,c
   755  007DCE  0E01               	movlw	1
   756  007DD0  6E06               	movwf	___awmod@sign,c
   757  007DD2                     l905:
   758  007DD2  AE04               	btfss	___awmod@divisor+1,7,c
   759  007DD4  D004               	goto	l909
   760  007DD6  6C03               	negf	___awmod@divisor,c
   761  007DD8  1E04               	comf	___awmod@divisor+1,f,c
   762  007DDA  B0D8               	btfsc	status,0,c
   763  007DDC  2A04               	incf	___awmod@divisor+1,f,c
   764  007DDE                     l909:
   765  007DDE  5003               	movf	___awmod@divisor,w,c
   766  007DE0  1004               	iorwf	___awmod@divisor+1,w,c
   767  007DE2  B4D8               	btfsc	status,2,c
   768  007DE4  D018               	goto	l925
   769  007DE6  0E01               	movlw	1
   770  007DE8  6E05               	movwf	___awmod@counter,c
   771  007DEA  D004               	goto	l915
   772  007DEC                     l913:
   773  007DEC  90D8               	bcf	status,0,c
   774  007DEE  3603               	rlcf	___awmod@divisor,f,c
   775  007DF0  3604               	rlcf	___awmod@divisor+1,f,c
   776  007DF2  2A05               	incf	___awmod@counter,f,c
   777  007DF4                     l915:
   778  007DF4  AE04               	btfss	___awmod@divisor+1,7,c
   779  007DF6  D7FA               	goto	l913
   780  007DF8                     l917:
   781  007DF8  5003               	movf	___awmod@divisor,w,c
   782  007DFA  5C01               	subwf	___awmod@dividend,w,c
   783  007DFC  5004               	movf	___awmod@divisor+1,w,c
   784  007DFE  5802               	subwfb	___awmod@dividend+1,w,c
   785  007E00  A0D8               	btfss	status,0,c
   786  007E02  D004               	goto	l921
   787  007E04  5003               	movf	___awmod@divisor,w,c
   788  007E06  5E01               	subwf	___awmod@dividend,f,c
   789  007E08  5004               	movf	___awmod@divisor+1,w,c
   790  007E0A  5A02               	subwfb	___awmod@dividend+1,f,c
   791  007E0C                     l921:
   792  007E0C  90D8               	bcf	status,0,c
   793  007E0E  3204               	rrcf	___awmod@divisor+1,f,c
   794  007E10  3203               	rrcf	___awmod@divisor,f,c
   795  007E12  2E05               	decfsz	___awmod@counter,f,c
   796  007E14  D7F1               	goto	l917
   797  007E16                     l925:
   798  007E16  5006               	movf	___awmod@sign,w,c
   799  007E18  B4D8               	btfsc	status,2,c
   800  007E1A  D004               	goto	l929
   801  007E1C  6C01               	negf	___awmod@dividend,c
   802  007E1E  1E02               	comf	___awmod@dividend+1,f,c
   803  007E20  B0D8               	btfsc	status,0,c
   804  007E22  2A02               	incf	___awmod@dividend+1,f,c
   805  007E24                     l929:
   806  007E24  C001  F001         	movff	___awmod@dividend,?___awmod
   807  007E28  C002  F002         	movff	___awmod@dividend+1,?___awmod+1
   808  007E2C  0012               	return	
   809  007E2E                     __end_of___awmod:
   810                           	opt stack 0
   811                           tblptru	equ	0xFF8
   812                           tblptrh	equ	0xFF7
   813                           tblptrl	equ	0xFF6
   814                           tablat	equ	0xFF5
   815                           prodh	equ	0xFF4
   816                           prodl	equ	0xFF3
   817                           postinc0	equ	0xFEE
   818                           wreg	equ	0xFE8
   819                           postdec1	equ	0xFE5
   820                           fsr1l	equ	0xFE1
   821                           indf2	equ	0xFDF
   822                           fsr2h	equ	0xFDA
   823                           fsr2l	equ	0xFD9
   824                           status	equ	0xFD8
   825                           
   826 ;; *************** function ___awdiv *****************
   827 ;; Defined at:
   828 ;;		line 8 in file "C:\Program Files (x86)\Microchip\xc8\v1.42\sources\common\awdiv.c"
   829 ;; Parameters:    Size  Location     Type
   830 ;;  dividend        2    0[COMRAM] int 
   831 ;;  divisor         2    2[COMRAM] int 
   832 ;; Auto vars:     Size  Location     Type
   833 ;;  quotient        2    6[COMRAM] int 
   834 ;;  sign            1    5[COMRAM] unsigned char 
   835 ;;  counter         1    4[COMRAM] unsigned char 
   836 ;; Return value:  Size  Location     Type
   837 ;;                  2    0[COMRAM] int 
   838 ;; Registers used:
   839 ;;		wreg, status,2, status,0
   840 ;; Tracked objects:
   841 ;;		On entry : 0/0
   842 ;;		On exit  : 0/0
   843 ;;		Unchanged: 0/0
   844 ;; Data sizes:     COMRAM   BANK0   BANK1   BANK2   BANK3   BANK4   BANK5   BANK6   BANK7
   845 ;;      Params:         4       0       0       0       0       0       0       0       0
   846 ;;      Locals:         4       0       0       0       0       0       0       0       0
   847 ;;      Temps:          0       0       0       0       0       0       0       0       0
   848 ;;      Totals:         8       0       0       0       0       0       0       0       0
   849 ;;Total ram usage:        8 bytes
   850 ;; Hardware stack levels used:    1
   851 ;; This function calls:
   852 ;;		Nothing
   853 ;; This function is called by:
   854 ;;		_PrintTwoDisp
   855 ;; This function uses a non-reentrant model
   856 ;;
   857                           
   858                           	psect	text4
   859  007E2E                     __ptext4:
   860                           	opt stack 0
   861  007E2E                     ___awdiv:
   862                           	opt stack 29
   863                           
   864                           ;incstack = 0
   865  007E2E  0E00               	movlw	0
   866  007E30  6E06               	movwf	___awdiv@sign,c
   867  007E32  AE04               	btfss	___awdiv@divisor+1,7,c
   868  007E34  D006               	goto	l861
   869  007E36  6C03               	negf	___awdiv@divisor,c
   870  007E38  1E04               	comf	___awdiv@divisor+1,f,c
   871  007E3A  B0D8               	btfsc	status,0,c
   872  007E3C  2A04               	incf	___awdiv@divisor+1,f,c
   873  007E3E  0E01               	movlw	1
   874  007E40  6E06               	movwf	___awdiv@sign,c
   875  007E42                     l861:
   876  007E42  AE02               	btfss	___awdiv@dividend+1,7,c
   877  007E44  D006               	goto	l867
   878  007E46  6C01               	negf	___awdiv@dividend,c
   879  007E48  1E02               	comf	___awdiv@dividend+1,f,c
   880  007E4A  B0D8               	btfsc	status,0,c
   881  007E4C  2A02               	incf	___awdiv@dividend+1,f,c
   882  007E4E  0E01               	movlw	1
   883  007E50  1A06               	xorwf	___awdiv@sign,f,c
   884  007E52                     l867:
   885  007E52  0E00               	movlw	0
   886  007E54  6E08               	movwf	___awdiv@quotient+1,c
   887  007E56  0E00               	movlw	0
   888  007E58  6E07               	movwf	___awdiv@quotient,c
   889  007E5A  5003               	movf	___awdiv@divisor,w,c
   890  007E5C  1004               	iorwf	___awdiv@divisor+1,w,c
   891  007E5E  B4D8               	btfsc	status,2,c
   892  007E60  D01C               	goto	l889
   893  007E62  0E01               	movlw	1
   894  007E64  6E05               	movwf	___awdiv@counter,c
   895  007E66  D004               	goto	l875
   896  007E68                     l873:
   897  007E68  90D8               	bcf	status,0,c
   898  007E6A  3603               	rlcf	___awdiv@divisor,f,c
   899  007E6C  3604               	rlcf	___awdiv@divisor+1,f,c
   900  007E6E  2A05               	incf	___awdiv@counter,f,c
   901  007E70                     l875:
   902  007E70  AE04               	btfss	___awdiv@divisor+1,7,c
   903  007E72  D7FA               	goto	l873
   904  007E74                     l877:
   905  007E74  90D8               	bcf	status,0,c
   906  007E76  3607               	rlcf	___awdiv@quotient,f,c
   907  007E78  3608               	rlcf	___awdiv@quotient+1,f,c
   908  007E7A  5003               	movf	___awdiv@divisor,w,c
   909  007E7C  5C01               	subwf	___awdiv@dividend,w,c
   910  007E7E  5004               	movf	___awdiv@divisor+1,w,c
   911  007E80  5802               	subwfb	___awdiv@dividend+1,w,c
   912  007E82  A0D8               	btfss	status,0,c
   913  007E84  D005               	goto	l885
   914  007E86  5003               	movf	___awdiv@divisor,w,c
   915  007E88  5E01               	subwf	___awdiv@dividend,f,c
   916  007E8A  5004               	movf	___awdiv@divisor+1,w,c
   917  007E8C  5A02               	subwfb	___awdiv@dividend+1,f,c
   918  007E8E  8007               	bsf	___awdiv@quotient,0,c
   919  007E90                     l885:
   920  007E90  90D8               	bcf	status,0,c
   921  007E92  3204               	rrcf	___awdiv@divisor+1,f,c
   922  007E94  3203               	rrcf	___awdiv@divisor,f,c
   923  007E96  2E05               	decfsz	___awdiv@counter,f,c
   924  007E98  D7ED               	goto	l877
   925  007E9A                     l889:
   926  007E9A  5006               	movf	___awdiv@sign,w,c
   927  007E9C  B4D8               	btfsc	status,2,c
   928  007E9E  D004               	goto	l893
   929  007EA0  6C07               	negf	___awdiv@quotient,c
   930  007EA2  1E08               	comf	___awdiv@quotient+1,f,c
   931  007EA4  B0D8               	btfsc	status,0,c
   932  007EA6  2A08               	incf	___awdiv@quotient+1,f,c
   933  007EA8                     l893:
   934  007EA8  C007  F001         	movff	___awdiv@quotient,?___awdiv
   935  007EAC  C008  F002         	movff	___awdiv@quotient+1,?___awdiv+1
   936  007EB0  0012               	return	
   937  007EB2                     __end_of___awdiv:
   938                           	opt stack 0
   939  0000                     tblptru	equ	0xFF8
   940                           tblptrh	equ	0xFF7
   941                           tblptrl	equ	0xFF6
   942                           tablat	equ	0xFF5
   943                           prodh	equ	0xFF4
   944                           prodl	equ	0xFF3
   945                           postinc0	equ	0xFEE
   946                           wreg	equ	0xFE8
   947                           postdec1	equ	0xFE5
   948                           fsr1l	equ	0xFE1
   949                           indf2	equ	0xFDF
   950                           fsr2h	equ	0xFDA
   951                           fsr2l	equ	0xFD9
   952                           status	equ	0xFD8
   953                           tblptru	equ	0xFF8
   954                           tblptrh	equ	0xFF7
   955                           tblptrl	equ	0xFF6
   956                           tablat	equ	0xFF5
   957                           prodh	equ	0xFF4
   958                           prodl	equ	0xFF3
   959                           postinc0	equ	0xFEE
   960                           wreg	equ	0xFE8
   961                           postdec1	equ	0xFE5
   962                           fsr1l	equ	0xFE1
   963                           indf2	equ	0xFDF
   964                           fsr2h	equ	0xFDA
   965                           fsr2l	equ	0xFD9
   966                           status	equ	0xFD8
   967                           
   968                           	psect	rparam
   969  0000                     tblptru	equ	0xFF8
   970                           tblptrh	equ	0xFF7
   971                           tblptrl	equ	0xFF6
   972                           tablat	equ	0xFF5
   973                           prodh	equ	0xFF4
   974                           prodl	equ	0xFF3
   975                           postinc0	equ	0xFEE
   976                           wreg	equ	0xFE8
   977                           postdec1	equ	0xFE5
   978                           fsr1l	equ	0xFE1
   979                           indf2	equ	0xFDF
   980                           fsr2h	equ	0xFDA
   981                           fsr2l	equ	0xFD9
   982                           status	equ	0xFD8


Data Sizes:
    Strings     0
    Constant    0
    Data        10
    BSS         3
    Persistent  0
    Stack       0

Auto Spaces:
    Space          Size  Autos    Used
    COMRAM           95     14      27
    BANK0           160      0       0
    BANK1           256      0       0
    BANK2           256      0       0
    BANK3           256      0       0
    BANK4           256      0       0
    BANK5           256      0       0
    BANK6           256      0       0
    BANK7           256      0       0

Pointer List with Targets:

    None.

Critical Paths under _main in COMRAM

    _main->_PrintTwoDisp
    _PrintTwoDisp->___awdiv

Critical Paths under _main in BANK0

    None.

Critical Paths under _main in BANK1

    None.

Critical Paths under _main in BANK2

    None.

Critical Paths under _main in BANK3

    None.

Critical Paths under _main in BANK4

    None.

Critical Paths under _main in BANK5

    None.

Critical Paths under _main in BANK6

    None.

Critical Paths under _main in BANK7

    None.

Call Graph Tables:

 ---------------------------------------------------------------------------------
 (Depth) Function   	        Calls       Base Space   Used Autos Params    Refs
 ---------------------------------------------------------------------------------
 (0) _main                                                 1     1      0    1084
                                             13 COMRAM     1     1      0
                       _PrintTwoDisp
                              _SetUp
 ---------------------------------------------------------------------------------
 (1) _SetUp                                                0     0      0       0
 ---------------------------------------------------------------------------------
 (1) _PrintTwoDisp                                         5     5      0    1084
                                              8 COMRAM     5     5      0
                            ___awdiv
                            ___awmod
 ---------------------------------------------------------------------------------
 (2) ___awmod                                              6     2      4     448
                                              0 COMRAM     6     2      4
 ---------------------------------------------------------------------------------
 (2) ___awdiv                                              8     4      4     452
                                              0 COMRAM     8     4      4
 ---------------------------------------------------------------------------------
 Estimated maximum stack depth 2
 ---------------------------------------------------------------------------------

 Call Graph Graphs:

 _main (ROOT)
   _PrintTwoDisp
     ___awdiv
     ___awmod
   _SetUp

 Address spaces:
Name               Size   Autos  Total    Cost      Usage
BIGRAM             7FF      0       0      21        0.0%
EEDATA             100      0       0       0        0.0%
BITBANK7           100      0       0      18        0.0%
BANK7              100      0       0      19        0.0%
BITBANK6           100      0       0      16        0.0%
BANK6              100      0       0      17        0.0%
BITBANK5           100      0       0      14        0.0%
BANK5              100      0       0      15        0.0%
BITBANK4           100      0       0      12        0.0%
BANK4              100      0       0      13        0.0%
BITBANK3           100      0       0      10        0.0%
BANK3              100      0       0      11        0.0%
BITBANK2           100      0       0       8        0.0%
BANK2              100      0       0       9        0.0%
BITBANK1           100      0       0       6        0.0%
BANK1              100      0       0       7        0.0%
BITBANK0            A0      0       0       4        0.0%
BANK0               A0      0       0       5        0.0%
BITCOMRAM           5F      0       0       0        0.0%
COMRAM              5F      E      1B       1       28.4%
BITSFR               0      0       0     200        0.0%
SFR                  0      0       0     200        0.0%
STACK                0      0       0       2        0.0%
NULL                 0      0       0       0        0.0%
ABS                  0      0      1B      20        0.0%
DATA                 0      0      1B       3        0.0%
CODE                 0      0       0       0        0.0%


Microchip Technology PIC18 Macro Assembler V1.42 build -159332390 
Symbol Table                                                                                   Fri May 19 10:13:32 2017

                     l64 7EF8                       l65 7F04             ___awdiv@sign 0006  
            __CFG_BOR$ON 000000              __CFG_BORV$3 000000             __CFG_CP0$OFF 000000  
           __CFG_CP1$OFF 000000             __CFG_CP2$OFF 000000             __CFG_CP3$OFF 000000  
            __CFG_LVP$ON 000000                      l921 7E0C                      l913 7DEC  
                    l905 7DD2                      l915 7DF4                      l861 7E42  
                    l917 7DF8                      l925 7E16                      l909 7DDE  
                    l943 7EFC                      l873 7E68                      l929 7E24  
                    l875 7E70                      l867 7E52                      l939 7EF0  
                    l963 7F62                      l893 7EA8                      l885 7E90  
                    l877 7E74                      l973 7F92                      l991 7FBE  
                    l983 7FA8                      l975 7F98                      l967 7F86  
                    l889 7E9A                      l977 7F9C                      l969 7F8E  
                    l995 7FC6                      l979 7FA0                      l989 7FBA  
           __CFG_CPB$OFF 000000                      u400 7F7E                      u406 7F80  
           __CFG_CPD$OFF 000000                      u390 7F6A                      u396 7F6C  
                    u477 7F22                      u487 7F4A                      _Mod 0019  
           ___awmod@sign 0006                      prod 000FF3                      wreg 000FE8  
           __CFG_WDT$OFF 000000                     l1005 7FDA                     l1007 7FF4  
           __CFG_PWRT$ON 000000                     _main 7F58                     indf2 000FDF  
                   fsr1l 000FE1                     fsr2l 000FD9                     prodl 000FF3  
                   start 0000            __CFG_IESO$OFF 000000               _Disp7SegCC 000F  
          __CFG_MCLRE$ON 000000             ___param_bank 000000            __CFG_PLLDIV$1 000000  
         __CFG_CCP2MX$ON 000000                    ?_main 0001          __end_of___awdiv 7EB2  
        __end_of___awmod 7E2E          ___awdiv@divisor 0003          ___awdiv@counter 0005  
                  _PORTD 000F83            __CFG_USBDIV$1 000000                    _TRISD 000F95  
          __CFG_WRT0$OFF 000000            __CFG_WRT1$OFF 000000            __CFG_WRT2$OFF 000000  
          __CFG_WRT3$OFF 000000           __CFG_EBTR0$OFF 000000           __CFG_FCMEN$OFF 000000  
         __CFG_EBTR1$OFF 000000           __CFG_EBTR2$OFF 000000                    _SetUp 7D72  
         __CFG_EBTR3$OFF 000000            __CFG_WRTB$OFF 000000            __CFG_WRTC$OFF 000000  
          __CFG_WRTD$OFF 000000      PrintTwoDisp@Decenas 000B           __CFG_EBTRB$OFF 000000  
                  tablat 000FF5                    status 000FD8           __CFG_ICPRT$OFF 000000  
        __initialization 7D8E             __end_of_main 8000                   ??_main 000E  
          __activetblptr 000002                   ?_SetUp 0001         ___awdiv@dividend 0001  
         __CFG_XINST$OFF 000000                   _Opcion 001A                ??___awdiv 0005  
         __CFG_STVREN$ON 000000                ??___awmod 0005         ___awdiv@quotient 0007  
        ___awmod@divisor 0003          ___awmod@counter 0005             __pdataCOMRAM 000F  
                 tblptrh 000FF7                   tblptrl 000FF6                   tblptru 000FF8  
             __accesstop 0060  __end_of__initialization 7DB4     PrintTwoDisp@Unidades 000A  
        __CFG_PBADEN$OFF 000000            ___rparam_used 000001           __pcstackCOMRAM 0001  
          __end_of_SetUp 7D8E        PrintTwoDisp@Valor 000D                  ??_SetUp 0001  
        __CFG_VREGEN$OFF 000000                  __Hparam 0000                  __Lparam 0000  
          ?_PrintTwoDisp 0001                  ___awdiv 7E2E                  ___awmod 7DBE  
                __pcinit 7D8E                  __ramtop 0800                  __ptext0 7F58  
                __ptext1 7D72                  __ptext2 7EB2                  __ptext3 7DBE  
                __ptext4 7E2E         ___awmod@dividend 0001     end_of_initialization 7DB4  
          __Lmediumconst 0000           ??_PrintTwoDisp 0009                  postdec1 000FE5  
                postinc0 000FEE                _PORTBbits 000F81                _PORTEbits 000F84  
              _TRISBbits 000F93                _TRISEbits 000F96            __pidataCOMRAM 7D68  
    start_initialization 7D8E         __CFG_LPT1OSC$OFF 000000              __pbssCOMRAM 0019  
   __end_of_PrintTwoDisp 7F58                 ?___awdiv 0001                 ?___awmod 0001  
         __size_of_SetUp 001C         __CFG_WDTPS$32768 000000               _ADCON1bits 000FC1  
          PrintTwoDisp@n 000C                copy_data0 7DA2                 _Contador 001B  
               __Hrparam 0000                 __Lrparam 0000         __size_of___awdiv 0084  
       __size_of___awmod 0070    __size_of_PrintTwoDisp 00A6            __size_of_main 00A8  
           _PrintTwoDisp 7EB2    __CFG_CPUDIV$OSC1_PLL2 000000               _OSCCONbits 000FD3  
    __CFG_FOSC$INTOSC_EC 000000  
