

Microchip Technology PIC18 LITE Macro Assembler V1.34 build -361300703 
                                                                                               Fri Mar 20 16:19:18 2015

Microchip Technology Omniscient Code Generator (Lite mode) build 201502162209
     1                           	processor	18F4520
     2                           	fnconf	rparam,??,?,0
     3                           	opt	pw 120
     4                           	opt	lm
     5                           	psect	idataCOMRAM,global,class=CODE,delta=1
     6                           	psect	cinit,global,reloc=2,class=CODE,delta=1
     7                           	psect	bssCOMRAM,global,class=COMRAM,space=1,delta=1
     8                           	psect	dataCOMRAM,global,class=COMRAM,space=1,delta=1
     9                           	psect	cstackCOMRAM,global,class=COMRAM,space=1,delta=1
    10                           	psect	text0,global,reloc=2,class=CODE,delta=1
    11                           	psect	text1,global,reloc=2,class=CODE,delta=1
    12                           	psect	text2,global,reloc=2,class=CODE,delta=1
    13                           	psect	text3,global,reloc=2,class=CODE,delta=1
    14                           	psect	text4,global,reloc=2,class=CODE,delta=1
    15                           	psect	intsave_regs,global,class=BIGRAM,space=1,delta=1
    16                           	psect	rparam,global,class=COMRAM,space=1,delta=1
    17  0000                     
    18                           	psect	idataCOMRAM
    19  007DCC                     __pidataCOMRAM:
    20                           	opt stack 0
    21                           
    22                           ;initializer for _Disp7SegCC
    23  007DCC  3F                 	db	63
    24  007DCD  06                 	db	6
    25  007DCE  5B                 	db	91
    26  007DCF  4F                 	db	79
    27  007DD0  66                 	db	102
    28  007DD1  6D                 	db	109
    29  007DD2  7D                 	db	125
    30  007DD3  07                 	db	7
    31  007DD4  7F                 	db	127
    32  007DD5  6F                 	db	111
    33  0000                     _ADCON1bits	set	4033
    34  0000                     _OSCCONbits	set	4051
    35  0000                     _PORTBbits	set	3969
    36  0000                     _PORTD	set	3971
    37  0000                     _TRISBbits	set	3987
    38  0000                     _TRISD	set	3989
    39                           
    40                           ; #config settings
    41  0000                     
    42                           	psect	cinit
    43  007E18                     __pcinit:
    44                           	opt stack 0
    45  007E18                     start_initialization:
    46                           	opt stack 0
    47  007E18                     __initialization:
    48                           	opt stack 0
    49                           
    50                           ; Clear objects allocated to COMRAM (1 bytes)
    51  007E18  6A19               	clrf	__pbssCOMRAM& (0+255),c
    52                           
    53                           ; Initialize objects allocated to COMRAM (10 bytes)
    54                           ; load TBLPTR registers with __pidataCOMRAM
    55  007E1A  0ECC               	movlw	low __pidataCOMRAM
    56  007E1C  6EF6               	movwf	tblptrl,c
    57  007E1E  0E7D               	movlw	high __pidataCOMRAM
    58  007E20  6EF7               	movwf	tblptrh,c
    59  007E22  0E00               	movlw	low (__pidataCOMRAM shr (0+16))
    60  007E24  6EF8               	movwf	tblptru,c
    61  007E26  EE00  F00F         	lfsr	0,__pdataCOMRAM
    62  007E2A  EE10 F00A          	lfsr	1,10
    63  007E2E                     copy_data0:
    64  007E2E  0009               	tblrd		*+
    65  007E30  CFF5 FFEE          	movff	tablat,postinc0
    66  007E34  50E5               	movf	postdec1,w,c
    67  007E36  50E1               	movf	fsr1l,w,c
    68  007E38  E1FA               	bnz	copy_data0
    69  007E3A                     end_of_initialization:
    70                           	opt stack 0
    71  007E3A                     __end_of__initialization:
    72                           	opt stack 0
    73  007E3A  0100               	movlb	0
    74  007E3C  EFFA  F03E         	goto	_main	;jump to C main() function
    75                           tblptru	equ	0xFF8
    76                           tblptrh	equ	0xFF7
    77                           tblptrl	equ	0xFF6
    78                           tablat	equ	0xFF5
    79                           postinc0	equ	0xFEE
    80                           postdec1	equ	0xFE5
    81                           fsr1l	equ	0xFE1
    82                           
    83                           	psect	bssCOMRAM
    84  000019                     __pbssCOMRAM:
    85                           	opt stack 0
    86  000019                     _Contador:
    87                           	opt stack 0
    88  000019                     	ds	1
    89                           tblptru	equ	0xFF8
    90                           tblptrh	equ	0xFF7
    91                           tblptrl	equ	0xFF6
    92                           tablat	equ	0xFF5
    93                           postinc0	equ	0xFEE
    94                           postdec1	equ	0xFE5
    95                           fsr1l	equ	0xFE1
    96                           
    97                           	psect	dataCOMRAM
    98  00000F                     __pdataCOMRAM:
    99                           	opt stack 0
   100  00000F                     _Disp7SegCC:
   101                           	opt stack 0
   102  00000F                     	ds	10
   103                           tblptru	equ	0xFF8
   104                           tblptrh	equ	0xFF7
   105                           tblptrl	equ	0xFF6
   106                           tablat	equ	0xFF5
   107                           postinc0	equ	0xFEE
   108                           postdec1	equ	0xFE5
   109                           fsr1l	equ	0xFE1
   110                           
   111                           	psect	cstackCOMRAM
   112  000001                     __pcstackCOMRAM:
   113                           	opt stack 0
   114  000001                     ?___awdiv:
   115                           	opt stack 0
   116  000001                     ?___awmod:
   117                           	opt stack 0
   118  000001                     ___awdiv@dividend:
   119                           	opt stack 0
   120  000001                     ___awmod@dividend:
   121                           	opt stack 0
   122                           
   123                           ; 2 bytes @ 0x0
   124  000001                     	ds	2
   125  000003                     ___awdiv@divisor:
   126                           	opt stack 0
   127  000003                     ___awmod@divisor:
   128                           	opt stack 0
   129                           
   130                           ; 2 bytes @ 0x2
   131  000003                     	ds	2
   132  000005                     ___awdiv@counter:
   133                           	opt stack 0
   134  000005                     ___awmod@counter:
   135                           	opt stack 0
   136                           
   137                           ; 1 bytes @ 0x4
   138  000005                     	ds	1
   139  000006                     ___awdiv@sign:
   140                           	opt stack 0
   141  000006                     ___awmod@sign:
   142                           	opt stack 0
   143                           
   144                           ; 1 bytes @ 0x5
   145  000006                     	ds	1
   146  000007                     ___awdiv@quotient:
   147                           	opt stack 0
   148                           
   149                           ; 2 bytes @ 0x6
   150  000007                     	ds	2
   151  000009                     ??_PrintTwoDisp:
   152                           
   153                           ; 0 bytes @ 0x8
   154  000009                     	ds	1
   155  00000A                     PrintTwoDisp@Unidades:
   156                           	opt stack 0
   157                           
   158                           ; 1 bytes @ 0x9
   159  00000A                     	ds	1
   160  00000B                     PrintTwoDisp@Decenas:
   161                           	opt stack 0
   162                           
   163                           ; 1 bytes @ 0xA
   164  00000B                     	ds	1
   165  00000C                     PrintTwoDisp@n:
   166                           	opt stack 0
   167                           
   168                           ; 1 bytes @ 0xB
   169  00000C                     	ds	1
   170  00000D                     PrintTwoDisp@Valor:
   171                           	opt stack 0
   172                           
   173                           ; 1 bytes @ 0xC
   174  00000D                     	ds	1
   175  00000E                     main@i:
   176                           	opt stack 0
   177                           
   178                           ; 1 bytes @ 0xD
   179  00000E                     	ds	1
   180                           tblptru	equ	0xFF8
   181                           tblptrh	equ	0xFF7
   182                           tblptrl	equ	0xFF6
   183                           tablat	equ	0xFF5
   184                           postinc0	equ	0xFEE
   185                           postdec1	equ	0xFE5
   186                           fsr1l	equ	0xFE1
   187                           
   188 ;;
   189 ;;Main: autosize = 0, tempsize = 0, incstack = 0, save=0
   190 ;;
   191 ;; *************** function _main *****************
   192 ;; Defined at:
   193 ;;		line 31 in file "main.c"
   194 ;; Parameters:    Size  Location     Type
   195 ;;		None
   196 ;; Auto vars:     Size  Location     Type
   197 ;;  i               1   13[COMRAM] unsigned char 
   198 ;; Return value:  Size  Location     Type
   199 ;;		None               void
   200 ;; Registers used:
   201 ;;		wreg, fsr2l, fsr2h, status,2, status,0, prodl, prodh, cstack
   202 ;; Tracked objects:
   203 ;;		On entry : 0/0
   204 ;;		On exit  : 0/0
   205 ;;		Unchanged: 0/0
   206 ;; Data sizes:     COMRAM   BANK0   BANK1   BANK2   BANK3   BANK4   BANK5
   207 ;;      Params:         0       0       0       0       0       0       0
   208 ;;      Locals:         1       0       0       0       0       0       0
   209 ;;      Temps:          0       0       0       0       0       0       0
   210 ;;      Totals:         1       0       0       0       0       0       0
   211 ;;Total ram usage:        1 bytes
   212 ;; Hardware stack levels required when called:    2
   213 ;; This function calls:
   214 ;;		_PrintTwoDisp
   215 ;;		_SetUp
   216 ;; This function is called by:
   217 ;;		Startup code after reset
   218 ;; This function uses a non-reentrant model
   219 ;;
   220                           
   221                           	psect	text0
   222  007DF4                     __ptext0:
   223                           	opt stack 0
   224  007DF4                     _main:
   225                           	opt stack 29
   226                           
   227                           ;main.c: 33: SetUp();
   228                           
   229                           ;incstack = 0
   230  007DF4  ECEB  F03E         	call	_SetUp	;wreg free
   231                           
   232                           ;main.c: 35: for(char i = 0; i < 100; i++)
   233  007DF8  0E00               	movlw	0
   234  007DFA  6E0E               	movwf	main@i,c
   235  007DFC                     l858:
   236  007DFC  0E63               	movlw	99
   237  007DFE  640E               	cpfsgt	main@i,c
   238  007E00  D001               	goto	l25
   239  007E02  D007               	goto	l28
   240  007E04                     l25:
   241                           
   242                           ;main.c: 36: {
   243                           ;main.c: 37: Contador = i;
   244  007E04  C00E  F019         	movff	main@i,_Contador
   245                           
   246                           ;main.c: 38: PrintTwoDisp(Contador);
   247  007E08  5019               	movf	_Contador,w,c
   248  007E0A  ECAC  F03F         	call	_PrintTwoDisp
   249  007E0E  2A0E               	incf	main@i,f,c
   250  007E10  D7F5               	goto	l858
   251  007E12                     l28:
   252  007E12  D7FF               	goto	l28
   253                           
   254                           ;main.c: 43: return;
   255  007E14  EF00  F000         	goto	start
   256  007E18                     __end_of_main:
   257                           	opt stack 0
   258                           tblptru	equ	0xFF8
   259                           tblptrh	equ	0xFF7
   260                           tblptrl	equ	0xFF6
   261                           tablat	equ	0xFF5
   262                           postinc0	equ	0xFEE
   263                           postdec1	equ	0xFE5
   264                           fsr1l	equ	0xFE1
   265                           
   266 ;; *************** function _SetUp *****************
   267 ;; Defined at:
   268 ;;		line 47 in file "main.c"
   269 ;; Parameters:    Size  Location     Type
   270 ;;		None
   271 ;; Auto vars:     Size  Location     Type
   272 ;;		None
   273 ;; Return value:  Size  Location     Type
   274 ;;		None               void
   275 ;; Registers used:
   276 ;;		wreg, status,2
   277 ;; Tracked objects:
   278 ;;		On entry : 0/0
   279 ;;		On exit  : 0/0
   280 ;;		Unchanged: 0/0
   281 ;; Data sizes:     COMRAM   BANK0   BANK1   BANK2   BANK3   BANK4   BANK5
   282 ;;      Params:         0       0       0       0       0       0       0
   283 ;;      Locals:         0       0       0       0       0       0       0
   284 ;;      Temps:          0       0       0       0       0       0       0
   285 ;;      Totals:         0       0       0       0       0       0       0
   286 ;;Total ram usage:        0 bytes
   287 ;; Hardware stack levels used:    1
   288 ;; This function calls:
   289 ;;		Nothing
   290 ;; This function is called by:
   291 ;;		_main
   292 ;; This function uses a non-reentrant model
   293 ;;
   294                           
   295                           	psect	text1
   296  007DD6                     __ptext1:
   297                           	opt stack 0
   298  007DD6                     _SetUp:
   299                           	opt stack 30
   300                           
   301                           ;main.c: 50: OSCCONbits.IRCF = 0b111;
   302                           
   303                           ;incstack = 0
   304  007DD6  88D3               	bsf	4051,4,c	;volatile
   305  007DD8  8AD3               	bsf	4051,5,c	;volatile
   306  007DDA  8CD3               	bsf	4051,6,c	;volatile
   307                           
   308                           ;main.c: 51: ADCON1bits.PCFG = 0b1111;
   309  007DDC  80C1               	bsf	4033,0,c	;volatile
   310  007DDE  82C1               	bsf	4033,1,c	;volatile
   311  007DE0  84C1               	bsf	4033,2,c	;volatile
   312  007DE2  86C1               	bsf	4033,3,c	;volatile
   313                           
   314                           ;main.c: 54: TRISBbits.TRISB0 = 1;
   315  007DE4  8093               	bsf	3987,0,c	;volatile
   316                           
   317                           ;main.c: 55: TRISBbits.TRISB1 = 1;
   318  007DE6  8293               	bsf	3987,1,c	;volatile
   319                           
   320                           ;main.c: 56: TRISBbits.TRISB2 = 0;
   321  007DE8  9493               	bcf	3987,2,c	;volatile
   322                           
   323                           ;main.c: 57: TRISBbits.TRISB3 = 0;
   324  007DEA  9693               	bcf	3987,3,c	;volatile
   325                           
   326                           ;main.c: 58: TRISD = 0x00;
   327  007DEC  0E00               	movlw	0
   328  007DEE  6E95               	movwf	3989,c	;volatile
   329  007DF0  D000               	goto	l33
   330  007DF2                     l33:
   331  007DF2  0012               	return		;funcret
   332  007DF4                     __end_of_SetUp:
   333                           	opt stack 0
   334                           tblptru	equ	0xFF8
   335                           tblptrh	equ	0xFF7
   336                           tblptrl	equ	0xFF6
   337                           tablat	equ	0xFF5
   338                           postinc0	equ	0xFEE
   339                           postdec1	equ	0xFE5
   340                           fsr1l	equ	0xFE1
   341                           
   342 ;; *************** function _PrintTwoDisp *****************
   343 ;; Defined at:
   344 ;;		line 66 in file "main.c"
   345 ;; Parameters:    Size  Location     Type
   346 ;;  Valor           1    wreg     unsigned char 
   347 ;; Auto vars:     Size  Location     Type
   348 ;;  Valor           1   12[COMRAM] unsigned char 
   349 ;;  n               1   11[COMRAM] unsigned char 
   350 ;;  Decenas         1   10[COMRAM] unsigned char 
   351 ;;  Unidades        1    9[COMRAM] unsigned char 
   352 ;; Return value:  Size  Location     Type
   353 ;;		None               void
   354 ;; Registers used:
   355 ;;		wreg, fsr2l, fsr2h, status,2, status,0, prodl, prodh, cstack
   356 ;; Tracked objects:
   357 ;;		On entry : 0/0
   358 ;;		On exit  : 0/0
   359 ;;		Unchanged: 0/0
   360 ;; Data sizes:     COMRAM   BANK0   BANK1   BANK2   BANK3   BANK4   BANK5
   361 ;;      Params:         0       0       0       0       0       0       0
   362 ;;      Locals:         4       0       0       0       0       0       0
   363 ;;      Temps:          1       0       0       0       0       0       0
   364 ;;      Totals:         5       0       0       0       0       0       0
   365 ;;Total ram usage:        5 bytes
   366 ;; Hardware stack levels used:    1
   367 ;; Hardware stack levels required when called:    1
   368 ;; This function calls:
   369 ;;		___awdiv
   370 ;;		___awmod
   371 ;; This function is called by:
   372 ;;		_main
   373 ;; This function uses a non-reentrant model
   374 ;;
   375                           
   376                           	psect	text2
   377  007F58                     __ptext2:
   378                           	opt stack 0
   379  007F58                     _PrintTwoDisp:
   380                           	opt stack 29
   381                           
   382                           ;incstack = 0
   383                           ;PrintTwoDisp@Valor stored from wreg
   384  007F58  6E0D               	movwf	PrintTwoDisp@Valor,c
   385                           
   386                           ;main.c: 68: unsigned char Unidades = 0;
   387  007F5A  0E00               	movlw	0
   388  007F5C  6E0A               	movwf	PrintTwoDisp@Unidades,c
   389                           
   390                           ;main.c: 69: unsigned char Decenas = 0;
   391  007F5E  0E00               	movlw	0
   392  007F60  6E0B               	movwf	PrintTwoDisp@Decenas,c
   393                           
   394                           ;main.c: 71: if(Valor > 9)
   395  007F62  0E09               	movlw	9
   396  007F64  640D               	cpfsgt	PrintTwoDisp@Valor,c
   397  007F66  D017               	goto	l834
   398                           
   399                           ;main.c: 72: {
   400                           ;main.c: 73: Unidades = Valor%10;
   401  007F68  C00D  F001         	movff	PrintTwoDisp@Valor,___awmod@dividend
   402  007F6C  6A02               	clrf	___awmod@dividend+1,c
   403  007F6E  0E00               	movlw	0
   404  007F70  6E04               	movwf	___awmod@divisor+1,c
   405  007F72  0E0A               	movlw	10
   406  007F74  6E03               	movwf	___awmod@divisor,c
   407  007F76  EC20  F03F         	call	___awmod	;wreg free
   408  007F7A  5001               	movf	?___awmod,w,c
   409  007F7C  6E0A               	movwf	PrintTwoDisp@Unidades,c
   410                           
   411                           ;main.c: 74: Decenas = Valor/10;
   412  007F7E  C00D  F001         	movff	PrintTwoDisp@Valor,___awdiv@dividend
   413  007F82  6A02               	clrf	___awdiv@dividend+1,c
   414  007F84  0E00               	movlw	0
   415  007F86  6E04               	movwf	___awdiv@divisor+1,c
   416  007F88  0E0A               	movlw	10
   417  007F8A  6E03               	movwf	___awdiv@divisor,c
   418  007F8C  EC61  F03F         	call	___awdiv	;wreg free
   419  007F90  5001               	movf	?___awdiv,w,c
   420  007F92  6E0B               	movwf	PrintTwoDisp@Decenas,c
   421                           
   422                           ;main.c: 75: }
   423  007F94  D004               	goto	l37
   424  007F96                     l834:
   425                           
   426                           ;main.c: 76: else
   427                           ;main.c: 77: {
   428                           ;main.c: 78: Decenas = 0;
   429  007F96  0E00               	movlw	0
   430  007F98  6E0B               	movwf	PrintTwoDisp@Decenas,c
   431                           
   432                           ;main.c: 79: Unidades = Valor;
   433  007F9A  C00D  F00A         	movff	PrintTwoDisp@Valor,PrintTwoDisp@Unidades
   434  007F9E                     l37:
   435                           
   436                           ;main.c: 80: }
   437                           ;main.c: 82: for(char n = 0; n < 31; n++)
   438  007F9E  0E00               	movlw	0
   439  007FA0  6E0C               	movwf	PrintTwoDisp@n,c
   440  007FA2                     l838:
   441  007FA2  0E1E               	movlw	30
   442  007FA4  640C               	cpfsgt	PrintTwoDisp@n,c
   443  007FA6  D001               	goto	l38
   444  007FA8  D02A               	goto	l40
   445  007FAA                     l38:
   446                           
   447                           ;main.c: 83: {
   448                           ;main.c: 84: PORTBbits.RB2 = 1;
   449  007FAA  8481               	bsf	3969,2,c	;volatile
   450                           
   451                           ;main.c: 85: PORTBbits.RB3 = 0;
   452  007FAC  9681               	bcf	3969,3,c	;volatile
   453                           
   454                           ;main.c: 86: PORTD = Disp7SegCC[Unidades];
   455  007FAE  500A               	movf	PrintTwoDisp@Unidades,w,c
   456  007FB0  0D01               	mullw	1
   457  007FB2  0E0F               	movlw	low _Disp7SegCC
   458  007FB4  24F3               	addwf	prodl,w,c
   459  007FB6  6ED9               	movwf	fsr2l,c
   460  007FB8  0E00               	movlw	high _Disp7SegCC
   461  007FBA  20F4               	addwfc	prodh,w,c
   462  007FBC  6EDA               	movwf	fsr2h,c
   463  007FBE  50DF               	movf	indf2,w,c
   464  007FC0  6E83               	movwf	3971,c	;volatile
   465                           
   466                           ;main.c: 87: _delay((unsigned long)((8)*(8000000/4000.0)));
   467  007FC2  0E15               	movlw	21
   468  007FC4  6E09               	movwf	??_PrintTwoDisp& (0+255),c
   469  007FC6  0EC6               	movlw	198
   470  007FC8                     u357:
   471  007FC8  2EE8               	decfsz	wreg,f,c
   472  007FCA  D7FE               	goto	u357
   473  007FCC  2E09               	decfsz	??_PrintTwoDisp& (0+255),f,c
   474  007FCE  D7FC               	goto	u357
   475  007FD0  D000               	nop2	
   476                           
   477                           ;main.c: 89: PORTBbits.RB2 = 0;
   478  007FD2  9481               	bcf	3969,2,c	;volatile
   479                           
   480                           ;main.c: 90: PORTBbits.RB3 = 1;
   481  007FD4  8681               	bsf	3969,3,c	;volatile
   482                           
   483                           ;main.c: 91: PORTD = Disp7SegCC[Decenas];
   484  007FD6  500B               	movf	PrintTwoDisp@Decenas,w,c
   485  007FD8  0D01               	mullw	1
   486  007FDA  0E0F               	movlw	low _Disp7SegCC
   487  007FDC  24F3               	addwf	prodl,w,c
   488  007FDE  6ED9               	movwf	fsr2l,c
   489  007FE0  0E00               	movlw	high _Disp7SegCC
   490  007FE2  20F4               	addwfc	prodh,w,c
   491  007FE4  6EDA               	movwf	fsr2h,c
   492  007FE6  50DF               	movf	indf2,w,c
   493  007FE8  6E83               	movwf	3971,c	;volatile
   494                           
   495                           ;main.c: 92: _delay((unsigned long)((8)*(8000000/4000.0)));
   496  007FEA  0E15               	movlw	21
   497  007FEC  6E09               	movwf	??_PrintTwoDisp& (0+255),c
   498  007FEE  0EC6               	movlw	198
   499  007FF0                     u367:
   500  007FF0  2EE8               	decfsz	wreg,f,c
   501  007FF2  D7FE               	goto	u367
   502  007FF4  2E09               	decfsz	??_PrintTwoDisp& (0+255),f,c
   503  007FF6  D7FC               	goto	u367
   504  007FF8  D000               	nop2	
   505  007FFA  2A0C               	incf	PrintTwoDisp@n,f,c
   506  007FFC  D7D2               	goto	l838
   507  007FFE                     l40:
   508  007FFE  0012               	return		;funcret
   509  008000                     __end_of_PrintTwoDisp:
   510                           	opt stack 0
   511                           tblptru	equ	0xFF8
   512                           tblptrh	equ	0xFF7
   513                           tblptrl	equ	0xFF6
   514                           tablat	equ	0xFF5
   515                           prodh	equ	0xFF4
   516                           prodl	equ	0xFF3
   517                           postinc0	equ	0xFEE
   518                           wreg	equ	0xFE8
   519                           postdec1	equ	0xFE5
   520                           fsr1l	equ	0xFE1
   521                           indf2	equ	0xFDF
   522                           fsr2h	equ	0xFDA
   523                           fsr2l	equ	0xFD9
   524                           
   525 ;; *************** function ___awmod *****************
   526 ;; Defined at:
   527 ;;		line 8 in file "C:\Program Files (x86)\Microchip\xc8\v1.34\sources\common\awmod.c"
   528 ;; Parameters:    Size  Location     Type
   529 ;;  dividend        2    0[COMRAM] int 
   530 ;;  divisor         2    2[COMRAM] int 
   531 ;; Auto vars:     Size  Location     Type
   532 ;;  sign            1    5[COMRAM] unsigned char 
   533 ;;  counter         1    4[COMRAM] unsigned char 
   534 ;; Return value:  Size  Location     Type
   535 ;;                  2    0[COMRAM] int 
   536 ;; Registers used:
   537 ;;		wreg, status,2, status,0
   538 ;; Tracked objects:
   539 ;;		On entry : 0/0
   540 ;;		On exit  : 0/0
   541 ;;		Unchanged: 0/0
   542 ;; Data sizes:     COMRAM   BANK0   BANK1   BANK2   BANK3   BANK4   BANK5
   543 ;;      Params:         4       0       0       0       0       0       0
   544 ;;      Locals:         2       0       0       0       0       0       0
   545 ;;      Temps:          0       0       0       0       0       0       0
   546 ;;      Totals:         6       0       0       0       0       0       0
   547 ;;Total ram usage:        6 bytes
   548 ;; Hardware stack levels used:    1
   549 ;; This function calls:
   550 ;;		Nothing
   551 ;; This function is called by:
   552 ;;		_PrintTwoDisp
   553 ;; This function uses a non-reentrant model
   554 ;;
   555                           
   556                           	psect	text3
   557  007E40                     __ptext3:
   558                           	opt stack 0
   559  007E40                     ___awmod:
   560                           	opt stack 29
   561                           
   562                           ;incstack = 0
   563  007E40  0E00               	movlw	0
   564  007E42  6E06               	movwf	___awmod@sign,c
   565  007E44  AE02               	btfss	___awmod@dividend+1,7,c
   566  007E46  D007               	goto	l800
   567  007E48  6C01               	negf	___awmod@dividend,c
   568  007E4A  1E02               	comf	___awmod@dividend+1,f,c
   569  007E4C  B0D8               	btfsc	status,0,c
   570  007E4E  2A02               	incf	___awmod@dividend+1,f,c
   571  007E50  0E01               	movlw	1
   572  007E52  6E06               	movwf	___awmod@sign,c
   573  007E54  D000               	goto	l800
   574  007E56                     l800:
   575  007E56  AE04               	btfss	___awmod@divisor+1,7,c
   576  007E58  D005               	goto	l804
   577  007E5A  6C03               	negf	___awmod@divisor,c
   578  007E5C  1E04               	comf	___awmod@divisor+1,f,c
   579  007E5E  B0D8               	btfsc	status,0,c
   580  007E60  2A04               	incf	___awmod@divisor+1,f,c
   581  007E62  D000               	goto	l804
   582  007E64                     l804:
   583  007E64  5003               	movf	___awmod@divisor,w,c
   584  007E66  1004               	iorwf	___awmod@divisor+1,w,c
   585  007E68  B4D8               	btfsc	status,2,c
   586  007E6A  D01D               	goto	l820
   587  007E6C  0E01               	movlw	1
   588  007E6E  6E05               	movwf	___awmod@counter,c
   589  007E70  D005               	goto	l810
   590  007E72                     l808:
   591  007E72  90D8               	bcf	status,0,c
   592  007E74  3603               	rlcf	___awmod@divisor,f,c
   593  007E76  3604               	rlcf	___awmod@divisor+1,f,c
   594  007E78  2A05               	incf	___awmod@counter,f,c
   595  007E7A  D000               	goto	l810
   596  007E7C                     l810:
   597  007E7C  BE04               	btfsc	___awmod@divisor+1,7,c
   598  007E7E  D002               	goto	l812
   599  007E80  D7F8               	goto	l808
   600  007E82  D000               	goto	l812
   601  007E84                     l812:
   602  007E84  5003               	movf	___awmod@divisor,w,c
   603  007E86  5C01               	subwf	___awmod@dividend,w,c
   604  007E88  5004               	movf	___awmod@divisor+1,w,c
   605  007E8A  5802               	subwfb	___awmod@dividend+1,w,c
   606  007E8C  A0D8               	btfss	status,0,c
   607  007E8E  D005               	goto	l816
   608  007E90  5003               	movf	___awmod@divisor,w,c
   609  007E92  5E01               	subwf	___awmod@dividend,f,c
   610  007E94  5004               	movf	___awmod@divisor+1,w,c
   611  007E96  5A02               	subwfb	___awmod@dividend+1,f,c
   612  007E98  D000               	goto	l816
   613  007E9A                     l816:
   614  007E9A  90D8               	bcf	status,0,c
   615  007E9C  3204               	rrcf	___awmod@divisor+1,f,c
   616  007E9E  3203               	rrcf	___awmod@divisor,f,c
   617  007EA0  2E05               	decfsz	___awmod@counter,f,c
   618  007EA2  D7F0               	goto	l812
   619  007EA4  D000               	goto	l820
   620  007EA6                     l820:
   621  007EA6  5006               	movf	___awmod@sign,w,c
   622  007EA8  B4D8               	btfsc	status,2,c
   623  007EAA  D005               	goto	l824
   624  007EAC  6C01               	negf	___awmod@dividend,c
   625  007EAE  1E02               	comf	___awmod@dividend+1,f,c
   626  007EB0  B0D8               	btfsc	status,0,c
   627  007EB2  2A02               	incf	___awmod@dividend+1,f,c
   628  007EB4  D000               	goto	l824
   629  007EB6                     l824:
   630  007EB6  C001  F001         	movff	___awmod@dividend,?___awmod
   631  007EBA  C002  F002         	movff	___awmod@dividend+1,?___awmod+1
   632  007EBE  D000               	goto	l249
   633  007EC0                     l249:
   634  007EC0  0012               	return		;funcret
   635  007EC2                     __end_of___awmod:
   636                           	opt stack 0
   637                           tblptru	equ	0xFF8
   638                           tblptrh	equ	0xFF7
   639                           tblptrl	equ	0xFF6
   640                           tablat	equ	0xFF5
   641                           prodh	equ	0xFF4
   642                           prodl	equ	0xFF3
   643                           postinc0	equ	0xFEE
   644                           wreg	equ	0xFE8
   645                           postdec1	equ	0xFE5
   646                           fsr1l	equ	0xFE1
   647                           indf2	equ	0xFDF
   648                           fsr2h	equ	0xFDA
   649                           fsr2l	equ	0xFD9
   650                           status	equ	0xFD8
   651                           
   652 ;; *************** function ___awdiv *****************
   653 ;; Defined at:
   654 ;;		line 8 in file "C:\Program Files (x86)\Microchip\xc8\v1.34\sources\common\awdiv.c"
   655 ;; Parameters:    Size  Location     Type
   656 ;;  dividend        2    0[COMRAM] int 
   657 ;;  divisor         2    2[COMRAM] int 
   658 ;; Auto vars:     Size  Location     Type
   659 ;;  quotient        2    6[COMRAM] int 
   660 ;;  sign            1    5[COMRAM] unsigned char 
   661 ;;  counter         1    4[COMRAM] unsigned char 
   662 ;; Return value:  Size  Location     Type
   663 ;;                  2    0[COMRAM] int 
   664 ;; Registers used:
   665 ;;		wreg, status,2, status,0
   666 ;; Tracked objects:
   667 ;;		On entry : 0/0
   668 ;;		On exit  : 0/0
   669 ;;		Unchanged: 0/0
   670 ;; Data sizes:     COMRAM   BANK0   BANK1   BANK2   BANK3   BANK4   BANK5
   671 ;;      Params:         4       0       0       0       0       0       0
   672 ;;      Locals:         4       0       0       0       0       0       0
   673 ;;      Temps:          0       0       0       0       0       0       0
   674 ;;      Totals:         8       0       0       0       0       0       0
   675 ;;Total ram usage:        8 bytes
   676 ;; Hardware stack levels used:    1
   677 ;; This function calls:
   678 ;;		Nothing
   679 ;; This function is called by:
   680 ;;		_PrintTwoDisp
   681 ;; This function uses a non-reentrant model
   682 ;;
   683                           
   684                           	psect	text4
   685  007EC2                     __ptext4:
   686                           	opt stack 0
   687  007EC2                     ___awdiv:
   688                           	opt stack 29
   689                           
   690                           ;incstack = 0
   691  007EC2  0E00               	movlw	0
   692  007EC4  6E06               	movwf	___awdiv@sign,c
   693  007EC6  AE04               	btfss	___awdiv@divisor+1,7,c
   694  007EC8  D007               	goto	l756
   695  007ECA  6C03               	negf	___awdiv@divisor,c
   696  007ECC  1E04               	comf	___awdiv@divisor+1,f,c
   697  007ECE  B0D8               	btfsc	status,0,c
   698  007ED0  2A04               	incf	___awdiv@divisor+1,f,c
   699  007ED2  0E01               	movlw	1
   700  007ED4  6E06               	movwf	___awdiv@sign,c
   701  007ED6  D000               	goto	l756
   702  007ED8                     l756:
   703  007ED8  AE02               	btfss	___awdiv@dividend+1,7,c
   704  007EDA  D007               	goto	l762
   705  007EDC  6C01               	negf	___awdiv@dividend,c
   706  007EDE  1E02               	comf	___awdiv@dividend+1,f,c
   707  007EE0  B0D8               	btfsc	status,0,c
   708  007EE2  2A02               	incf	___awdiv@dividend+1,f,c
   709  007EE4  0E01               	movlw	1
   710  007EE6  1A06               	xorwf	___awdiv@sign,f,c
   711  007EE8  D000               	goto	l762
   712  007EEA                     l762:
   713  007EEA  0E00               	movlw	0
   714  007EEC  6E08               	movwf	___awdiv@quotient+1,c
   715  007EEE  0E00               	movlw	0
   716  007EF0  6E07               	movwf	___awdiv@quotient,c
   717  007EF2  5003               	movf	___awdiv@divisor,w,c
   718  007EF4  1004               	iorwf	___awdiv@divisor+1,w,c
   719  007EF6  B4D8               	btfsc	status,2,c
   720  007EF8  D021               	goto	l784
   721  007EFA  0E01               	movlw	1
   722  007EFC  6E05               	movwf	___awdiv@counter,c
   723  007EFE  D005               	goto	l770
   724  007F00                     l768:
   725  007F00  90D8               	bcf	status,0,c
   726  007F02  3603               	rlcf	___awdiv@divisor,f,c
   727  007F04  3604               	rlcf	___awdiv@divisor+1,f,c
   728  007F06  2A05               	incf	___awdiv@counter,f,c
   729  007F08  D000               	goto	l770
   730  007F0A                     l770:
   731  007F0A  BE04               	btfsc	___awdiv@divisor+1,7,c
   732  007F0C  D002               	goto	l772
   733  007F0E  D7F8               	goto	l768
   734  007F10  D000               	goto	l772
   735  007F12                     l772:
   736  007F12  90D8               	bcf	status,0,c
   737  007F14  3607               	rlcf	___awdiv@quotient,f,c
   738  007F16  3608               	rlcf	___awdiv@quotient+1,f,c
   739  007F18  5003               	movf	___awdiv@divisor,w,c
   740  007F1A  5C01               	subwf	___awdiv@dividend,w,c
   741  007F1C  5004               	movf	___awdiv@divisor+1,w,c
   742  007F1E  5802               	subwfb	___awdiv@dividend+1,w,c
   743  007F20  A0D8               	btfss	status,0,c
   744  007F22  D006               	goto	l780
   745  007F24  5003               	movf	___awdiv@divisor,w,c
   746  007F26  5E01               	subwf	___awdiv@dividend,f,c
   747  007F28  5004               	movf	___awdiv@divisor+1,w,c
   748  007F2A  5A02               	subwfb	___awdiv@dividend+1,f,c
   749  007F2C  8007               	bsf	___awdiv@quotient,0,c
   750  007F2E  D000               	goto	l780
   751  007F30                     l780:
   752  007F30  90D8               	bcf	status,0,c
   753  007F32  3204               	rrcf	___awdiv@divisor+1,f,c
   754  007F34  3203               	rrcf	___awdiv@divisor,f,c
   755  007F36  2E05               	decfsz	___awdiv@counter,f,c
   756  007F38  D7EC               	goto	l772
   757  007F3A  D000               	goto	l784
   758  007F3C                     l784:
   759  007F3C  5006               	movf	___awdiv@sign,w,c
   760  007F3E  B4D8               	btfsc	status,2,c
   761  007F40  D005               	goto	l788
   762  007F42  6C07               	negf	___awdiv@quotient,c
   763  007F44  1E08               	comf	___awdiv@quotient+1,f,c
   764  007F46  B0D8               	btfsc	status,0,c
   765  007F48  2A08               	incf	___awdiv@quotient+1,f,c
   766  007F4A  D000               	goto	l788
   767  007F4C                     l788:
   768  007F4C  C007  F001         	movff	___awdiv@quotient,?___awdiv
   769  007F50  C008  F002         	movff	___awdiv@quotient+1,?___awdiv+1
   770  007F54  D000               	goto	l236
   771  007F56                     l236:
   772  007F56  0012               	return		;funcret
   773  007F58                     __end_of___awdiv:
   774                           	opt stack 0
   775  0000                     tblptru	equ	0xFF8
   776                           tblptrh	equ	0xFF7
   777                           tblptrl	equ	0xFF6
   778                           tablat	equ	0xFF5
   779                           prodh	equ	0xFF4
   780                           prodl	equ	0xFF3
   781                           postinc0	equ	0xFEE
   782                           wreg	equ	0xFE8
   783                           postdec1	equ	0xFE5
   784                           fsr1l	equ	0xFE1
   785                           indf2	equ	0xFDF
   786                           fsr2h	equ	0xFDA
   787                           fsr2l	equ	0xFD9
   788                           status	equ	0xFD8
   789                           tblptru	equ	0xFF8
   790                           tblptrh	equ	0xFF7
   791                           tblptrl	equ	0xFF6
   792                           tablat	equ	0xFF5
   793                           prodh	equ	0xFF4
   794                           prodl	equ	0xFF3
   795                           postinc0	equ	0xFEE
   796                           wreg	equ	0xFE8
   797                           postdec1	equ	0xFE5
   798                           fsr1l	equ	0xFE1
   799                           indf2	equ	0xFDF
   800                           fsr2h	equ	0xFDA
   801                           fsr2l	equ	0xFD9
   802                           status	equ	0xFD8
   803                           
   804                           	psect	rparam
   805  0000                     tblptru	equ	0xFF8
   806                           tblptrh	equ	0xFF7
   807                           tblptrl	equ	0xFF6
   808                           tablat	equ	0xFF5
   809                           prodh	equ	0xFF4
   810                           prodl	equ	0xFF3
   811                           postinc0	equ	0xFEE
   812                           wreg	equ	0xFE8
   813                           postdec1	equ	0xFE5
   814                           fsr1l	equ	0xFE1
   815                           indf2	equ	0xFDF
   816                           fsr2h	equ	0xFDA
   817                           fsr2l	equ	0xFD9
   818                           status	equ	0xFD8


Data Sizes:
    Strings     0
    Constant    0
    Data        10
    BSS         1
    Persistent  0
    Stack       0

Auto Spaces:
    Space          Size  Autos    Used
    COMRAM          127     14      25
    BANK0           128      0       0
    BANK1           256      0       0
    BANK2           256      0       0
    BANK3           256      0       0
    BANK4           256      0       0
    BANK5           256      0       0

Pointer List with Targets:

    None.

Critical Paths under _main in COMRAM

    _main->_PrintTwoDisp
    _PrintTwoDisp->___awdiv

Critical Paths under _main in BANK0

    None.

Critical Paths under _main in BANK1

    None.

Critical Paths under _main in BANK2

    None.

Critical Paths under _main in BANK3

    None.

Critical Paths under _main in BANK4

    None.

Critical Paths under _main in BANK5

    None.

Call Graph Tables:

 ---------------------------------------------------------------------------------
 (Depth) Function   	        Calls       Base Space   Used Autos Params    Refs
 ---------------------------------------------------------------------------------
 (0) _main                                                 1     1      0    1020
                                             13 COMRAM     1     1      0
                       _PrintTwoDisp
                              _SetUp
 ---------------------------------------------------------------------------------
 (1) _SetUp                                                0     0      0       0
 ---------------------------------------------------------------------------------
 (1) _PrintTwoDisp                                         5     5      0     952
                                              8 COMRAM     5     5      0
                            ___awdiv
                            ___awmod
 ---------------------------------------------------------------------------------
 (2) ___awmod                                              6     2      4     382
                                              0 COMRAM     6     2      4
 ---------------------------------------------------------------------------------
 (2) ___awdiv                                              8     4      4     386
                                              0 COMRAM     8     4      4
 ---------------------------------------------------------------------------------
 Estimated maximum stack depth 2
 ---------------------------------------------------------------------------------

 Call Graph Graphs:

 _main (ROOT)
   _PrintTwoDisp
     ___awdiv
     ___awmod
   _SetUp

 Address spaces:
Name               Size   Autos  Total    Cost      Usage
BIGRAM             5FF      0       0      17        0.0%
EEDATA             100      0       0       0        0.0%
BITBANK5           100      0       0      16        0.0%
BANK5              100      0       0      14        0.0%
BITBANK4           100      0       0      12        0.0%
BANK4              100      0       0      13        0.0%
BITBANK3           100      0       0      10        0.0%
BANK3              100      0       0      11        0.0%
BITBANK2           100      0       0       8        0.0%
BANK2              100      0       0       9        0.0%
BITBANK1           100      0       0       6        0.0%
BANK1              100      0       0       7        0.0%
BITBANK0            80      0       0       4        0.0%
BANK0               80      0       0       5        0.0%
BITCOMRAM           7F      0       0       0        0.0%
COMRAM              7F      E      19       1       19.7%
BITSFR               0      0       0      40        0.0%
SFR                  0      0       0      40        0.0%
STACK                0      0       0       2        0.0%
NULL                 0      0       0       0        0.0%
ABS                  0      0      19      15        0.0%
DATA                 0      0      19       3        0.0%
CODE                 0      0       0       0        0.0%


Microchip Technology PIC18 Macro Assembler V1.34 build -361300703 
Symbol Table                                                                                   Fri Mar 20 16:19:18 2015

                     l40 7FFE                       l33 7DF2                       l25 7E04  
                     l28 7E12                       l37 7F9E                       l38 7FAA  
           ___awdiv@sign 0006              __CFG_BORV$3 000000             __CFG_CP0$OFF 000000  
           __CFG_CP1$OFF 000000             __CFG_CP2$OFF 000000             __CFG_CP3$OFF 000000  
                    l236 7F56                      l249 7EC0                      l800 7E56  
                    l810 7E7C                      l812 7E84                      l820 7EA6  
                    l804 7E64                      l824 7EB6                      l816 7E9A  
                    l808 7E72                      l770 7F0A                      l762 7EEA  
                    l834 7F96                      l780 7F30                      l772 7F12  
                    l756 7ED8                      l838 7FA2                      l768 7F00  
                    l784 7F3C                      l858 7DFC                      l788 7F4C  
           __CFG_CPB$OFF 000000             __CFG_CPD$OFF 000000                      u357 7FC8  
                    u367 7FF0             ___awmod@sign 0006                      prod 000FF3  
                    wreg 000FE8             __CFG_LVP$OFF 000000             __CFG_WDT$OFF 000000  
           __CFG_PWRT$ON 000000                     _main 7DF4                     fsr1l 000FE1  
                   indf2 000FDF                     fsr2l 000FD9                     prodl 000FF3  
                   start 0000            __CFG_IESO$OFF 000000               _Disp7SegCC 000F  
          __CFG_MCLRE$ON 000000             ___param_bank 000010                    ?_main 0001  
        __end_of___awdiv 7F58          __end_of___awmod 7EC2          ___awdiv@divisor 0003  
        ___awdiv@counter 0005                    _PORTD 000F83                    _TRISD 000F95  
          __CFG_WRT0$OFF 000000            __CFG_WRT1$OFF 000000            __CFG_WRT2$OFF 000000  
          __CFG_WRT3$OFF 000000           __CFG_EBTR0$OFF 000000           __CFG_FCMEN$OFF 000000  
         __CFG_EBTR1$OFF 000000           __CFG_EBTR2$OFF 000000                    _SetUp 7DD6  
         __CFG_EBTR3$OFF 000000            __CFG_WRTB$OFF 000000            __CFG_WRTC$OFF 000000  
          __CFG_WRTD$OFF 000000      PrintTwoDisp@Decenas 000B           __CFG_EBTRB$OFF 000000  
                  main@i 000E                    tablat 000FF5                    status 000FD8  
        __initialization 7E18             __end_of_main 7E18                   ??_main 000E  
          __activetblptr 000000                   ?_SetUp 0001         ___awdiv@dividend 0001  
         __CFG_XINST$OFF 000000                ??___awdiv 0005           __CFG_STVREN$ON 000000  
              ??___awmod 0005         ___awdiv@quotient 0007          ___awmod@divisor 0003  
        ___awmod@counter 0005             __pdataCOMRAM 000F                   tblptrh 000FF7  
                 tblptrl 000FF6                   tblptru 000FF8               __accesstop 0080  
__end_of__initialization 7E3A     PrintTwoDisp@Unidades 000A          __CFG_PBADEN$OFF 000000  
          ___rparam_used 000001           __pcstackCOMRAM 0001            __end_of_SetUp 7DF4  
      PrintTwoDisp@Valor 000D                  ??_SetUp 0001                  __Hparam 0000  
                __Lparam 0000            ?_PrintTwoDisp 0001                  ___awdiv 7EC2  
                ___awmod 7E40                  __pcinit 7E18                  __ramtop 0600  
                __ptext0 7DF4                  __ptext1 7DD6                  __ptext2 7F58  
                __ptext3 7E40                  __ptext4 7EC2         ___awmod@dividend 0001  
   end_of_initialization 7E3A           ??_PrintTwoDisp 0009                  postdec1 000FE5  
                postinc0 000FEE                _PORTBbits 000F81                _TRISBbits 000F93  
          __pidataCOMRAM 7DCC      start_initialization 7E18         __CFG_OSC$INTIO67 000000  
       __CFG_LPT1OSC$OFF 000000              __pbssCOMRAM 0019     __end_of_PrintTwoDisp 8000  
      __CFG_CCP2MX$PORTC 000000                 ?___awdiv 0001                 ?___awmod 0001  
         __size_of_SetUp 001E         __CFG_WDTPS$32768 000000               _ADCON1bits 000FC1  
          PrintTwoDisp@n 000C                copy_data0 7E2E                 _Contador 0019  
               __Hrparam 0000                 __Lrparam 0000       __CFG_BOREN$SBORDIS 000000  
       __size_of___awdiv 0096         __size_of___awmod 0082    __size_of_PrintTwoDisp 00A8  
          __size_of_main 0024             _PrintTwoDisp 7F58               _OSCCONbits 000FD3  
