Microchip MPLAB XC8 Compiler V1.34 ()

Linker command line:

--edf=C:\Program Files (x86)\Microchip\xc8\v1.34\dat\en_msgs.txt -cs \
  -h+dist/default/production\TermometroCIDCA.X.production.sym \
  --cmf=dist/default/production\TermometroCIDCA.X.production.cmf -z \
  -Q18F4520 -oC:\Users\SEBAST~1\AppData\Local\Temp\s66g.6 \
  -Mdist/default/production/TermometroCIDCA.X.production.map -E1 -ver=XC8 \
  -ASTACK=083h-05ffh -pstack=STACK -ACODE=00h-07FFFh -ACONST=00h-07FFFh \
  -ASMALLCONST=0600h-06FFhx122 -AMEDIUMCONST=0600h-07FFFh -ACOMRAM=01h-07Fh \
  -AABS1=00h-05FFh -ABIGRAM=01h-05FFh -ARAM=080h-0FFh,0100h-01FFhx5 \
  -ABANK0=080h-0FFh -ABANK1=0100h-01FFh -ABANK2=0200h-02FFh \
  -ABANK3=0300h-03FFh -ABANK4=0400h-04FFh -ABANK5=0500h-05FFh \
  -ASFR=0F80h-0FFFh \
  -preset_vec=00h,intcode=08h,intcodelo,powerup,init,end_init \
  -pramtop=0600h -psmallconst=SMALLCONST -pmediumconst=MEDIUMCONST \
  -pconst=CONST -AFARRAM=00h-00h -ACONFIG=0300000h-030000Dh -pconfig=CONFIG \
  -AIDLOC=0200000h-0200007h -pidloc=IDLOC -AEEDATA=0F00000h-0F000FFh \
  -peeprom_data=EEDATA \
  -prdata=COMRAM,nvrram=COMRAM,nvbit=COMRAM,rbss=COMRAM,rbit=COMRAM \
  -pfarbss=FARRAM,fardata=FARRAM,nvFARRAM=FARRAM \
  -pintsave_regs=BIGRAM,bigbss=BIGRAM,bigdata=BIGRAM -pbss=RAM \
  -pidata=CODE,irdata=CODE,ibigdata=CODE,ifardata=CODE -prparam=COMRAM \
  C:\Users\SEBAST~1\AppData\Local\Temp\s66g.obj \
  dist/default/production\TermometroCIDCA.X.production.obj 

Object code version is 3.11

Machine type is 18F4520

Call graph: (short form)




                Name                               Link     Load   Length Selector   Space Scale
C:\Users\SEBAST~1\AppData\Local\Temp\s66g.obj
                end_init                             18       18        4        4       0
                reset_vec                             0        0        4        0       0
                idloc                            200000   200000        8   200000       0
                config                           300000   300000        E   300000       0
dist/default/production\TermometroCIDCA.X.production.obj
                intcode                               8        8       10        4       0
                text23                              79E      79E       96        4       0
                text22                              9CA      9CA       82        4       0
                text21                              5CE      5CE       A4        4       0
                intcode_body                        484      484       A6        4       0
                text19                              BFA      BFA       2C        4       0
                text18                              3BE      3BE       C6        4       0
                text17                              1E0      1E0       F8        4       0
                text16                              C76      C76       26        4       0
                text15                               1C       1C      1C4        4       0
                text14                              CC0      CC0       24        4       0
                text13                              A4C      A4C       7C        4       0
                text12                              2D8      2D8       E6        4       0
                text11                              AC8      AC8       7A        4       0
                text10                              8C4      8C4       84        4       0
                text9                               834      834       90        4       0
                text8                               B42      B42       62        4       0
                text7                               708      708       96        4       0
                text6                               948      948       82        4       0
                text5                               52A      52A       A4        4       0
                text4                               CE4      CE4       1E        4       0
                text3                               C9C      C9C       24        4       0
                text2                               672      672       96        4       0
                text1                               C50      C50       26        4       0
                text0                               BA4      BA4       56        4       0
                cstackCOMRAM                          1        1       4F        1       1
                cstackBANK0                          80       80        3       80       1
                dataCOMRAM                           50       50        B        1       1
                bssCOMRAM                            60       60        2        1       1
                cinit                               C26      C26       2A        4       0
                nvCOMRAM                             5B       5B        5        1       1
                idataCOMRAM                         D02      D02        B        4       0

TOTAL           Name                               Link     Load   Length     Space
        CLASS   STACK          

        CLASS   CODE           
                end_init                             18       18        4         0
                intcode                               8        8       10         0
                reset_vec                             0        0        4         0
                text23                              79E      79E       96         0
                text22                              9CA      9CA       82         0
                text21                              5CE      5CE       A4         0
                intcode_body                        484      484       A6         0
                text19                              BFA      BFA       2C         0
                text18                              3BE      3BE       C6         0
                text17                              1E0      1E0       F8         0
                text16                              C76      C76       26         0
                text15                               1C       1C      1C4         0
                text14                              CC0      CC0       24         0
                text13                              A4C      A4C       7C         0
                text12                              2D8      2D8       E6         0
                text11                              AC8      AC8       7A         0
                text10                              8C4      8C4       84         0
                text9                               834      834       90         0
                text8                               B42      B42       62         0
                text7                               708      708       96         0
                text6                               948      948       82         0
                text5                               52A      52A       A4         0
                text4                               CE4      CE4       1E         0
                text3                               C9C      C9C       24         0
                text2                               672      672       96         0
                text1                               C50      C50       26         0
                text0                               BA4      BA4       56         0
                cinit                               C26      C26       2A         0
                idataCOMRAM                         D02      D02        B         0

        CLASS   CONST          

        CLASS   SMALLCONST     

        CLASS   MEDIUMCONST    

        CLASS   COMRAM         
                cstackCOMRAM                          1        1       4F         1
                dataCOMRAM                           50       50        B         1
                bssCOMRAM                            60       60        2         1
                nvCOMRAM                             5B       5B        5         1

        CLASS   ABS1           

        CLASS   BIGRAM         

        CLASS   RAM            

        CLASS   BANK0          
                cstackBANK0                          80       80        3         1

        CLASS   BANK1          

        CLASS   BANK2          

        CLASS   BANK3          

        CLASS   BANK4          

        CLASS   BANK5          

        CLASS   SFR            

        CLASS   FARRAM         

        CLASS   CONFIG         
                config                           300000   300000        E         0

        CLASS   IDLOC          
                idloc                            200000   200000        8         0

        CLASS   EEDATA         



SEGMENTS        Name                           Load    Length   Top    Selector   Space  Class

                reset_vec                      000000  000004  000004         0       0  CODE    
                cstackCOMRAM                   000001  000061  000062         1       1  COMRAM  
                intcode                        000008  000D05  000D0D         4       0  CODE    
                cstackBANK0                    000080  000003  000083        80       1  BANK0   
                idloc                          200000  000008  200008    200000       0  IDLOC   
                config                         300000  00000E  30000E    300000       0  CONFIG  


UNUSED ADDRESS RANGES

        Name                Unused          Largest block    Delta
        BANK0            000083-0000FF               7D
        BANK1            000100-0001FF              100
        BANK2            000200-0002FF              100
        BANK3            000300-0003FF              100
        BANK4            000400-0004FF              100
        BANK5            000500-0005FF              100
        BIGRAM           000062-00007F               1E
                         000083-0005FF              57D
        CODE             000004-000007                4
                         000D0D-007FFF             72F3
        COMRAM           000062-00007F               1E
        CONST            000004-000007                4
                         000D0D-007FFF             72F3
        EEDATA           F00000-F000FF              100
        MEDIUMCONST      000D0D-007FFF             72F3
        RAM              000083-0005FF              100
        SFR              000F80-000FFF               80
        SMALLCONST       000D0D-007FFF              100
        STACK            000083-0005FF              57D

                                  Symbol Table

?_GetADC                   cstackCOMRAM 00001D
?___altoft                 cstackCOMRAM 00002C
?___awdiv                  cstackCOMRAM 00001D
?___awmod                  cstackCOMRAM 00001D
?___ftadd                  cstackCOMRAM 000041
?___ftmul                  cstackCOMRAM 000028
?___ftneg                  cstackCOMRAM 00003E
?___ftpack                 cstackCOMRAM 00001D
?___fttol                  cstackCOMRAM 00001D
?___lbtoft                 cstackCOMRAM 000025
?___lwtoft                 cstackCOMRAM 000025
?_round                    cstackCOMRAM 00004D
?_trunc                    cstackCOMRAM 000036
?i2___awdiv                cstackCOMRAM 000001
?i2___awmod                cstackCOMRAM 000001
GetADC@CanalADC            cstackCOMRAM 000021
PrintTwoDisp@Decenas       cstackCOMRAM 000027
PrintTwoDisp@Numero        cstackCOMRAM 000029
PrintTwoDisp@Unidades      cstackCOMRAM 000026
PrintTwoDisp@n             cstackCOMRAM 000028
_ADCON0                    (abs)        000FC2
_ADCON0bits                (abs)        000FC2
_ADCON1bits                (abs)        000FC1
_ADCON2bits                (abs)        000FC0
_ADRESH                    (abs)        000FC4
_ADRESL                    (abs)        000FC3
_ConversionADC             nvCOMRAM     00005E
_Disp7SegCC                dataCOMRAM   000050
_GetADC                    text19       000BFA
_INTCONbits                (abs)        000FF2
_MedirTemperatura          text8        000B42
_OSCCONbits                (abs)        000FD3
_PORTB                     (abs)        000F81
_PORTBbits                 (abs)        000F81
_PORTCbits                 (abs)        000F82
_PORTD                     (abs)        000F83
_PortBInt                  intcode      000008
_PrintTwoDisp              text5        00052A
_RCONbits                  (abs)        000FD0
_SetUp                     text4        000CE4
_SetUp_ADC                 text3        000C9C
_TRISBbits                 (abs)        000F93
_TRISCbits                 (abs)        000F94
_TRISD                     (abs)        000F95
_TempMedida                nvCOMRAM     00005B
_TempRef                   dataCOMRAM   00005A
__CFG_BOREN$SBORDIS        (abs)        000000
__CFG_BORV$3               (abs)        000000
__CFG_CCP2MX$PORTC         (abs)        000000
__CFG_CP0$OFF              (abs)        000000
__CFG_CP1$OFF              (abs)        000000
__CFG_CP2$OFF              (abs)        000000
__CFG_CP3$OFF              (abs)        000000
__CFG_CPB$OFF              (abs)        000000
__CFG_CPD$OFF              (abs)        000000
__CFG_EBTR0$OFF            (abs)        000000
__CFG_EBTR1$OFF            (abs)        000000
__CFG_EBTR2$OFF            (abs)        000000
__CFG_EBTR3$OFF            (abs)        000000
__CFG_EBTRB$OFF            (abs)        000000
__CFG_FCMEN$OFF            (abs)        000000
__CFG_IESO$OFF             (abs)        000000
__CFG_LPT1OSC$OFF          (abs)        000000
__CFG_LVP$OFF              (abs)        000000
__CFG_MCLRE$ON             (abs)        000000
__CFG_OSC$INTIO67          (abs)        000000
__CFG_PBADEN$OFF           (abs)        000000
__CFG_PWRT$ON              (abs)        000000
__CFG_STVREN$ON            (abs)        000000
__CFG_WDT$OFF              (abs)        000000
__CFG_WDTPS$32768          (abs)        000000
__CFG_WRT0$OFF             (abs)        000000
__CFG_WRT1$OFF             (abs)        000000
__CFG_WRT2$OFF             (abs)        000000
__CFG_WRT3$OFF             (abs)        000000
__CFG_WRTB$OFF             (abs)        000000
__CFG_WRTC$OFF             (abs)        000000
__CFG_WRTD$OFF             (abs)        000000
__CFG_XINST$OFF            (abs)        000000
__HRAM                     (abs)        000000
__Habs1                    abs1         000000
__Hbank0                   bank0        000000
__Hbank1                   bank1        000000
__Hbank2                   bank2        000000
__Hbank3                   bank3        000000
__Hbank4                   bank4        000000
__Hbank5                   bank5        000000
__Hbigbss                  bigbss       000000
__Hbigdata                 bigdata      000000
__Hbigram                  bigram       000000
__Hbss                     bss          000000
__HbssCOMRAM               bssCOMRAM    000000
__Hcinit                   cinit        000000
__Hclrtext                 clrtext      000000
__Hcomram                  comram       000000
__Hconfig                  config       30000E
__Hconst                   const        000000
__HcstackBANK0             cstackBANK0  000000
__HcstackCOMRAM            cstackCOMRAM 000000
__Hdata                    data         000000
__HdataCOMRAM              dataCOMRAM   000000
__Heeprom_data             eeprom_data  000000
__Hend_init                end_init     00001C
__Hfarbss                  farbss       000000
__Hfardata                 fardata      000000
__Hibigdata                ibigdata     000000
__Hidata                   idata        000000
__HidataCOMRAM             idataCOMRAM  000000
__Hidloc                   idloc        200008
__Hifardata                ifardata     000000
__Hinit                    init         000018
__Hintcode                 intcode      000018
__Hintcode_body            intcode_body 000000
__Hintcodelo               intcodelo    000018
__Hintentry                intentry     000000
__Hintret                  intret       000000
__Hintsave_regs            intsave_regs 000000
__Hirdata                  irdata       000000
__Hmediumconst             mediumconst  000000
__HnvCOMRAM                nvCOMRAM     000000
__HnvFARRAM                nvFARRAM     000000
__Hnvbit                   nvbit        000000
__Hnvrram                  nvrram       000000
__Hparam                   rparam       000000
__Hpowerup                 powerup      000018
__Hram                     ram          000000
__Hramtop                  ramtop       000600
__Hrbit                    rbit         000000
__Hrbss                    rbss         000000
__Hrdata                   rdata        000000
__Hreset_vec               reset_vec    000004
__Hrparam                  rparam       000000
__Hsfr                     sfr          000000
__Hsmallconst              smallconst   000000
__Hspace_0                 (abs)        30000E
__Hspace_1                 (abs)        000083
__Hspace_2                 (abs)        000000
__Hstack                   stack        000000
__Hstruct                  struct       000000
__Htemp                    temp         000000
__Htext                    text         000000
__Htext0                   text0        000000
__Htext1                   text1        000000
__Htext10                  text10       000000
__Htext11                  text11       000000
__Htext12                  text12       000000
__Htext13                  text13       000000
__Htext14                  text14       000000
__Htext15                  text15       000000
__Htext16                  text16       000000
__Htext17                  text17       000000
__Htext18                  text18       000000
__Htext19                  text19       000000
__Htext2                   text2        000000
__Htext21                  text21       000000
__Htext22                  text22       000000
__Htext23                  text23       000000
__Htext3                   text3        000000
__Htext4                   text4        000000
__Htext5                   text5        000000
__Htext6                   text6        000000
__Htext7                   text7        000000
__Htext8                   text8        000000
__Htext9                   text9        000000
__LRAM                     (abs)        000001
__Labs1                    abs1         000000
__Lbank0                   bank0        000000
__Lbank1                   bank1        000000
__Lbank2                   bank2        000000
__Lbank3                   bank3        000000
__Lbank4                   bank4        000000
__Lbank5                   bank5        000000
__Lbigbss                  bigbss       000000
__Lbigdata                 bigdata      000000
__Lbigram                  bigram       000000
__Lbss                     bss          000000
__LbssCOMRAM               bssCOMRAM    000000
__Lcinit                   cinit        000000
__Lclrtext                 clrtext      000000
__Lcomram                  comram       000000
__Lconfig                  config       300000
__Lconst                   const        000000
__LcstackBANK0             cstackBANK0  000000
__LcstackCOMRAM            cstackCOMRAM 000000
__Ldata                    data         000000
__LdataCOMRAM              dataCOMRAM   000000
__Leeprom_data             eeprom_data  000000
__Lend_init                end_init     000018
__Lfarbss                  farbss       000000
__Lfardata                 fardata      000000
__Libigdata                ibigdata     000000
__Lidata                   idata        000000
__LidataCOMRAM             idataCOMRAM  000000
__Lidloc                   idloc        200000
__Lifardata                ifardata     000000
__Linit                    init         000018
__Lintcode                 intcode      000008
__Lintcode_body            intcode_body 000000
__Lintcodelo               intcodelo    000018
__Lintentry                intentry     000000
__Lintret                  intret       000000
__Lintsave_regs            intsave_regs 000000
__Lirdata                  irdata       000000
__Lmediumconst             mediumconst  000000
__LnvCOMRAM                nvCOMRAM     000000
__LnvFARRAM                nvFARRAM     000000
__Lnvbit                   nvbit        000000
__Lnvrram                  nvrram       000000
__Lparam                   rparam       000000
__Lpowerup                 powerup      000018
__Lram                     ram          000000
__Lramtop                  ramtop       000600
__Lrbit                    rbit         000000
__Lrbss                    rbss         000000
__Lrdata                   rdata        000000
__Lreset_vec               reset_vec    000000
__Lrparam                  rparam       000000
__Lsfr                     sfr          000000
__Lsmallconst              smallconst   000000
__Lspace_0                 (abs)        000000
__Lspace_1                 (abs)        000000
__Lspace_2                 (abs)        000000
__Lstack                   stack        000000
__Lstruct                  struct       000000
__Ltemp                    temp         000000
__Ltext                    text         000000
__Ltext0                   text0        000000
__Ltext1                   text1        000000
__Ltext10                  text10       000000
__Ltext11                  text11       000000
__Ltext12                  text12       000000
__Ltext13                  text13       000000
__Ltext14                  text14       000000
__Ltext15                  text15       000000
__Ltext16                  text16       000000
__Ltext17                  text17       000000
__Ltext18                  text18       000000
__Ltext19                  text19       000000
__Ltext2                   text2        000000
__Ltext21                  text21       000000
__Ltext22                  text22       000000
__Ltext23                  text23       000000
__Ltext3                   text3        000000
__Ltext4                   text4        000000
__Ltext5                   text5        000000
__Ltext6                   text6        000000
__Ltext7                   text7        000000
__Ltext8                   text8        000000
__Ltext9                   text9        000000
__S0                       (abs)        30000E
__S1                       (abs)        000083
__S2                       (abs)        000000
___altoft                  text13       000A4C
___altoft@c                cstackCOMRAM 00002C
___altoft@exp              cstackCOMRAM 000034
___altoft@sign             cstackCOMRAM 000035
___awdiv                   text7        000708
___awdiv@counter           cstackCOMRAM 000021
___awdiv@dividend          cstackCOMRAM 00001D
___awdiv@divisor           cstackCOMRAM 00001F
___awdiv@quotient          cstackCOMRAM 000023
___awdiv@sign              cstackCOMRAM 000022
___awmod                   text6        000948
___awmod@counter           cstackCOMRAM 000021
___awmod@dividend          cstackCOMRAM 00001D
___awmod@divisor           cstackCOMRAM 00001F
___awmod@sign              cstackCOMRAM 000022
___ftadd                   text15       00001C
___ftadd@exp1              cstackCOMRAM 00004C
___ftadd@exp2              cstackCOMRAM 00004B
___ftadd@f1                cstackCOMRAM 000041
___ftadd@f2                cstackCOMRAM 000044
___ftadd@sign              cstackCOMRAM 00004A
___ftge                    text2        000672
___ftge@ff1                cstackCOMRAM 000029
___ftge@ff2                cstackCOMRAM 00002C
___ftmul                   text17       0001E0
___ftmul@cntr              cstackCOMRAM 000035
___ftmul@exp               cstackCOMRAM 000031
___ftmul@f1                cstackCOMRAM 000028
___ftmul@f2                cstackCOMRAM 00002B
___ftmul@f3_as_product     cstackCOMRAM 000032
___ftmul@sign              cstackCOMRAM 000036
___ftneg                   text14       000CC0
___ftneg@f1                cstackCOMRAM 00003E
___ftpack                  text18       0003BE
___ftpack@arg              cstackCOMRAM 00001D
___ftpack@exp              cstackCOMRAM 000020
___ftpack@sign             cstackCOMRAM 000021
___fttol                   text12       0002D8
___fttol@exp1              cstackCOMRAM 00002B
___fttol@f1                cstackCOMRAM 00001D
___fttol@lval              cstackCOMRAM 000027
___fttol@sign1             cstackCOMRAM 000026
___inthi_sp                stack        000000
___intlo_sp                stack        000000
___lbtoft                  text1        000C50
___lbtoft@c                cstackCOMRAM 000028
___lwtoft                  text16       000C76
___lwtoft@c                cstackCOMRAM 000025
___param_bank              (abs)        000010
___rparam_used             (abs)        000001
___sp                      stack        000000
__accesstop                (abs)        000080
__activetblptr             (abs)        000000
__end_of_GetADC            text19       000C26
__end_of_MedirTemperatura  text8        000BA4
__end_of_PortBInt          intcode_body 00052A
__end_of_PrintTwoDisp      text5        0005CE
__end_of_SetUp             text4        000D02
__end_of_SetUp_ADC         text3        000CC0
__end_of___altoft          text13       000AC8
__end_of___awdiv           text7        00079E
__end_of___awmod           text6        0009CA
__end_of___ftadd           text15       0001E0
__end_of___ftge            text2        000708
__end_of___ftmul           text17       0002D8
__end_of___ftneg           text14       000CE4
__end_of___ftpack          text18       000484
__end_of___fttol           text12       0003BE
__end_of___lbtoft          text1        000C76
__end_of___lwtoft          text16       000C9C
__end_of__initialization   cinit        000C4A
__end_of_frexp             text11       000B42
__end_of_main              text0        000BFA
__end_of_round             text9        0008C4
__end_of_trunc             text10       000948
__end_ofi2_PrintTwoDisp    text21       000672
__end_ofi2___awdiv         text23       000834
__end_ofi2___awmod         text22       000A4C
__initialization           cinit        000C26
__mediumconst              mediumconst  000000
__pbssCOMRAM               bssCOMRAM    000060
__pcinit                   cinit        000C26
__pcstackBANK0             cstackBANK0  000080
__pcstackCOMRAM            cstackCOMRAM 000001
__pdataCOMRAM              dataCOMRAM   000050
__pidataCOMRAM             idataCOMRAM  000D02
__pintcode                 intcode      000008
__pintcode_body            intcode_body 000484
__pnvCOMRAM                nvCOMRAM     00005B
__ptext0                   text0        000BA4
__ptext1                   text1        000C50
__ptext10                  text10       0008C4
__ptext11                  text11       000AC8
__ptext12                  text12       0002D8
__ptext13                  text13       000A4C
__ptext14                  text14       000CC0
__ptext15                  text15       00001C
__ptext16                  text16       000C76
__ptext17                  text17       0001E0
__ptext18                  text18       0003BE
__ptext19                  text19       000BFA
__ptext2                   text2        000672
__ptext21                  text21       0005CE
__ptext22                  text22       0009CA
__ptext23                  text23       00079E
__ptext3                   text3        000C9C
__ptext4                   text4        000CE4
__ptext5                   text5        00052A
__ptext6                   text6        000948
__ptext7                   text7        000708
__ptext8                   text8        000B42
__ptext9                   text9        000834
__ramtop                   ramtop       000600
__size_of_GetADC           (abs)        000000
__size_of_MedirTemperatura (abs)        000000
__size_of_PortBInt         (abs)        000000
__size_of_PrintTwoDisp     (abs)        000000
__size_of_SetUp            (abs)        000000
__size_of_SetUp_ADC        (abs)        000000
__size_of___altoft         (abs)        000000
__size_of___awdiv          (abs)        000000
__size_of___awmod          (abs)        000000
__size_of___ftadd          (abs)        000000
__size_of___ftge           (abs)        000000
__size_of___ftmul          (abs)        000000
__size_of___ftneg          (abs)        000000
__size_of___ftpack         (abs)        000000
__size_of___fttol          (abs)        000000
__size_of___lbtoft         (abs)        000000
__size_of___lwtoft         (abs)        000000
__size_of_frexp            (abs)        000000
__size_of_main             (abs)        000000
__size_of_round            (abs)        000000
__size_of_trunc            (abs)        000000
__size_ofi2_PrintTwoDisp   (abs)        000000
__size_ofi2___awdiv        (abs)        000000
__size_ofi2___awmod        (abs)        000000
__smallconst               smallconst   000000
_errno                     bssCOMRAM    000060
_frexp                     text11       000AC8
_main                      text0        000BA4
_round                     text9        000834
_trunc                     text10       0008C4
end_of_initialization      cinit        000C4A
frexp@eptr                 cstackCOMRAM 000020
frexp@value                cstackCOMRAM 00001D
i2PrintTwoDisp@Decenas     cstackCOMRAM 00000C
i2PrintTwoDisp@Numero      cstackCOMRAM 00000A
i2PrintTwoDisp@Unidades    cstackCOMRAM 00000B
i2PrintTwoDisp@n           cstackCOMRAM 00000D
i2_PrintTwoDisp            text21       0005CE
i2___awdiv                 text23       00079E
i2___awdiv@counter         cstackCOMRAM 000005
i2___awdiv@dividend        cstackCOMRAM 000001
i2___awdiv@divisor         cstackCOMRAM 000003
i2___awdiv@quotient        cstackCOMRAM 000007
i2___awdiv@sign            cstackCOMRAM 000006
i2___awmod                 text22       0009CA
i2___awmod@counter         cstackCOMRAM 000005
i2___awmod@dividend        cstackCOMRAM 000001
i2___awmod@divisor         cstackCOMRAM 000003
i2___awmod@sign            cstackCOMRAM 000006
int_func                   intcode_body 000484
intlevel0                  text         000000
intlevel1                  text         000000
intlevel2                  text         000000
intlevel3                  text         000000
round@f                    cstackBANK0  000080
round@x                    cstackCOMRAM 00004D
stackhi                    (abs)        0005FF
stacklo                    (abs)        000083
start                      init         000018
start_initialization       cinit        000C26
trunc@expon                cstackCOMRAM 00003C
trunc@i                    cstackCOMRAM 000039
trunc@x                    cstackCOMRAM 000036


FUNCTION INFORMATION:

 *************** function _main *****************
 Defined at:
		line 76 in file "main.c"
 Parameters:    Size  Location     Type
		None
 Auto vars:     Size  Location     Type
		None
 Return value:  Size  Location     Type
		None               void
 Registers used:
		wreg, fsr2l, fsr2h, status,2, status,0, prodl, prodh, cstack
 Tracked objects:
		On entry : 
		On exit  : 
		Unchanged: 
 Data sizes:     COMRAM   BANK0   BANK1   BANK2   BANK3   BANK4   BANK5
      Params:         0       0       0       0       0       0       0
      Locals:         0       0       0       0       0       0       0
      Temps:          0       0       0       0       0       0       0
      Totals:         0       0       0       0       0       0       0
Total ram usage:        0 bytes
 Hardware stack levels required when called:    8
 This function calls:
		_MedirTemperatura
		_PrintTwoDisp
		_SetUp
		_SetUp_ADC
		___ftge
		___fttol
		___lbtoft
 This function is called by:
		Startup code after reset
 This function uses a non-reentrant model


 *************** function ___lbtoft *****************
 Defined at:
		line 27 in file "C:\Program Files (x86)\Microchip\xc8\v1.34\sources\common\lbtoft.c"
 Parameters:    Size  Location     Type
  c               1    wreg     unsigned char 
 Auto vars:     Size  Location     Type
  c               1   39[COMRAM] unsigned char 
 Return value:  Size  Location     Type
                  3   36[COMRAM] float 
 Registers used:
		wreg, status,2, status,0, cstack
 Tracked objects:
		On entry : 
		On exit  : 
		Unchanged: 
 Data sizes:     COMRAM   BANK0   BANK1   BANK2   BANK3   BANK4   BANK5
      Params:         3       0       0       0       0       0       0
      Locals:         1       0       0       0       0       0       0
      Temps:          0       0       0       0       0       0       0
      Totals:         4       0       0       0       0       0       0
Total ram usage:        4 bytes
 Hardware stack levels used:    1
 Hardware stack levels required when called:    4
 This function calls:
		___ftpack
 This function is called by:
		_main
 This function uses a non-reentrant model


 *************** function ___ftge *****************
 Defined at:
		line 4 in file "C:\Program Files (x86)\Microchip\xc8\v1.34\sources\common\ftge.c"
 Parameters:    Size  Location     Type
  ff1             3   40[COMRAM] float 
  ff2             3   43[COMRAM] float 
 Auto vars:     Size  Location     Type
		None
 Return value:  Size  Location     Type
		None               void
 Registers used:
		wreg, status,2, status,0
 Tracked objects:
		On entry : 
		On exit  : 
		Unchanged: 
 Data sizes:     COMRAM   BANK0   BANK1   BANK2   BANK3   BANK4   BANK5
      Params:         6       0       0       0       0       0       0
      Locals:         0       0       0       0       0       0       0
      Temps:          3       0       0       0       0       0       0
      Totals:         9       0       0       0       0       0       0
Total ram usage:        9 bytes
 Hardware stack levels used:    1
 Hardware stack levels required when called:    3
 This function calls:
		Nothing
 This function is called by:
		_main
 This function uses a non-reentrant model


 *************** function _SetUp_ADC *****************
 Defined at:
		line 131 in file "main.c"
 Parameters:    Size  Location     Type
		None
 Auto vars:     Size  Location     Type
		None
 Return value:  Size  Location     Type
		None               void
 Registers used:
		wreg, status,2
 Tracked objects:
		On entry : 
		On exit  : 
		Unchanged: 
 Data sizes:     COMRAM   BANK0   BANK1   BANK2   BANK3   BANK4   BANK5
      Params:         0       0       0       0       0       0       0
      Locals:         0       0       0       0       0       0       0
      Temps:          0       0       0       0       0       0       0
      Totals:         0       0       0       0       0       0       0
Total ram usage:        0 bytes
 Hardware stack levels used:    1
 Hardware stack levels required when called:    3
 This function calls:
		Nothing
 This function is called by:
		_main
 This function uses a non-reentrant model


 *************** function _SetUp *****************
 Defined at:
		line 94 in file "main.c"
 Parameters:    Size  Location     Type
		None
 Auto vars:     Size  Location     Type
		None
 Return value:  Size  Location     Type
		None               void
 Registers used:
		wreg, status,2
 Tracked objects:
		On entry : 
		On exit  : 
		Unchanged: 
 Data sizes:     COMRAM   BANK0   BANK1   BANK2   BANK3   BANK4   BANK5
      Params:         0       0       0       0       0       0       0
      Locals:         0       0       0       0       0       0       0
      Temps:          0       0       0       0       0       0       0
      Totals:         0       0       0       0       0       0       0
Total ram usage:        0 bytes
 Hardware stack levels used:    1
 Hardware stack levels required when called:    3
 This function calls:
		Nothing
 This function is called by:
		_main
 This function uses a non-reentrant model


 *************** function _PrintTwoDisp *****************
 Defined at:
		line 162 in file "main.c"
 Parameters:    Size  Location     Type
  Numero          1    wreg     unsigned char 
 Auto vars:     Size  Location     Type
  Numero          1   40[COMRAM] unsigned char 
  n               1   39[COMRAM] unsigned char 
  Decenas         1   38[COMRAM] unsigned char 
  Unidades        1   37[COMRAM] unsigned char 
 Return value:  Size  Location     Type
		None               void
 Registers used:
		wreg, fsr2l, fsr2h, status,2, status,0, prodl, prodh, cstack
 Tracked objects:
		On entry : 
		On exit  : 
		Unchanged: 
 Data sizes:     COMRAM   BANK0   BANK1   BANK2   BANK3   BANK4   BANK5
      Params:         0       0       0       0       0       0       0
      Locals:         4       0       0       0       0       0       0
      Temps:          1       0       0       0       0       0       0
      Totals:         5       0       0       0       0       0       0
Total ram usage:        5 bytes
 Hardware stack levels used:    1
 Hardware stack levels required when called:    4
 This function calls:
		___awdiv
		___awmod
 This function is called by:
		_main
 This function uses a non-reentrant model


 *************** function ___awmod *****************
 Defined at:
		line 8 in file "C:\Program Files (x86)\Microchip\xc8\v1.34\sources\common\awmod.c"
 Parameters:    Size  Location     Type
  dividend        2   28[COMRAM] int 
  divisor         2   30[COMRAM] int 
 Auto vars:     Size  Location     Type
  sign            1   33[COMRAM] unsigned char 
  counter         1   32[COMRAM] unsigned char 
 Return value:  Size  Location     Type
                  2   28[COMRAM] int 
 Registers used:
		wreg, status,2, status,0
 Tracked objects:
		On entry : 
		On exit  : 
		Unchanged: 
 Data sizes:     COMRAM   BANK0   BANK1   BANK2   BANK3   BANK4   BANK5
      Params:         4       0       0       0       0       0       0
      Locals:         2       0       0       0       0       0       0
      Temps:          0       0       0       0       0       0       0
      Totals:         6       0       0       0       0       0       0
Total ram usage:        6 bytes
 Hardware stack levels used:    1
 Hardware stack levels required when called:    3
 This function calls:
		Nothing
 This function is called by:
		_PrintTwoDisp
 This function uses a non-reentrant model


 *************** function ___awdiv *****************
 Defined at:
		line 8 in file "C:\Program Files (x86)\Microchip\xc8\v1.34\sources\common\awdiv.c"
 Parameters:    Size  Location     Type
  dividend        2   28[COMRAM] int 
  divisor         2   30[COMRAM] int 
 Auto vars:     Size  Location     Type
  quotient        2   34[COMRAM] int 
  sign            1   33[COMRAM] unsigned char 
  counter         1   32[COMRAM] unsigned char 
 Return value:  Size  Location     Type
                  2   28[COMRAM] int 
 Registers used:
		wreg, status,2, status,0
 Tracked objects:
		On entry : 
		On exit  : 
		Unchanged: 
 Data sizes:     COMRAM   BANK0   BANK1   BANK2   BANK3   BANK4   BANK5
      Params:         4       0       0       0       0       0       0
      Locals:         4       0       0       0       0       0       0
      Temps:          0       0       0       0       0       0       0
      Totals:         8       0       0       0       0       0       0
Total ram usage:        8 bytes
 Hardware stack levels used:    1
 Hardware stack levels required when called:    3
 This function calls:
		Nothing
 This function is called by:
		_PrintTwoDisp
 This function uses a non-reentrant model


 *************** function _MedirTemperatura *****************
 Defined at:
		line 122 in file "main.c"
 Parameters:    Size  Location     Type
		None
 Auto vars:     Size  Location     Type
		None
 Return value:  Size  Location     Type
		None               void
 Registers used:
		wreg, fsr2l, fsr2h, status,2, status,0, cstack
 Tracked objects:
		On entry : 
		On exit  : 
		Unchanged: 
 Data sizes:     COMRAM   BANK0   BANK1   BANK2   BANK3   BANK4   BANK5
      Params:         0       0       0       0       0       0       0
      Locals:         0       0       0       0       0       0       0
      Temps:          0       0       0       0       0       0       0
      Totals:         0       0       0       0       0       0       0
Total ram usage:        0 bytes
 Hardware stack levels used:    1
 Hardware stack levels required when called:    7
 This function calls:
		_GetADC
		___ftmul
		___lwtoft
		_round
 This function is called by:
		_main
 This function uses a non-reentrant model


 *************** function _round *****************
 Defined at:
		line 6 in file "C:\Program Files (x86)\Microchip\xc8\v1.34\sources\common\round.c"
 Parameters:    Size  Location     Type
  x               3   76[COMRAM] int 
 Auto vars:     Size  Location     Type
  f               3    0[BANK0 ] int 
 Return value:  Size  Location     Type
                  3   76[COMRAM] int 
 Registers used:
		wreg, fsr2l, fsr2h, status,2, status,0, cstack
 Tracked objects:
		On entry : 
		On exit  : 
		Unchanged: 
 Data sizes:     COMRAM   BANK0   BANK1   BANK2   BANK3   BANK4   BANK5
      Params:         3       0       0       0       0       0       0
      Locals:         0       3       0       0       0       0       0
      Temps:          0       0       0       0       0       0       0
      Totals:         3       3       0       0       0       0       0
Total ram usage:        6 bytes
 Hardware stack levels used:    1
 Hardware stack levels required when called:    6
 This function calls:
		___ftadd
		___ftneg
		_trunc
 This function is called by:
		_MedirTemperatura
 This function uses a non-reentrant model


 *************** function _trunc *****************
 Defined at:
		line 13 in file "C:\Program Files (x86)\Microchip\xc8\v1.34\sources\common\trunc.c"
 Parameters:    Size  Location     Type
  x               3   53[COMRAM] int 
 Auto vars:     Size  Location     Type
  i               3   56[COMRAM] int 
  expon           2   59[COMRAM] int 
 Return value:  Size  Location     Type
                  3   53[COMRAM] int 
 Registers used:
		wreg, fsr2l, fsr2h, status,2, status,0, cstack
 Tracked objects:
		On entry : 
		On exit  : 
		Unchanged: 
 Data sizes:     COMRAM   BANK0   BANK1   BANK2   BANK3   BANK4   BANK5
      Params:         3       0       0       0       0       0       0
      Locals:         5       0       0       0       0       0       0
      Temps:          0       0       0       0       0       0       0
      Totals:         8       0       0       0       0       0       0
Total ram usage:        8 bytes
 Hardware stack levels used:    1
 Hardware stack levels required when called:    5
 This function calls:
		___altoft
		___fttol
		_frexp
 This function is called by:
		_round
 This function uses a non-reentrant model


 *************** function _frexp *****************
 Defined at:
		line 254 in file "C:\Program Files (x86)\Microchip\xc8\v1.34\sources\common\frexp.c"
 Parameters:    Size  Location     Type
  value           3   28[COMRAM] int 
  eptr            2   31[COMRAM] PTR int 
		 -> trunc@expon(2), 
 Auto vars:     Size  Location     Type
		None
 Return value:  Size  Location     Type
                  3   28[COMRAM] PTR int 
 Registers used:
		wreg, fsr2l, fsr2h, status,2, status,0
 Tracked objects:
		On entry : 
		On exit  : 
		Unchanged: 
 Data sizes:     COMRAM   BANK0   BANK1   BANK2   BANK3   BANK4   BANK5
      Params:         5       0       0       0       0       0       0
      Locals:         0       0       0       0       0       0       0
      Temps:          2       0       0       0       0       0       0
      Totals:         7       0       0       0       0       0       0
Total ram usage:        7 bytes
 Hardware stack levels used:    1
 Hardware stack levels required when called:    3
 This function calls:
		Nothing
 This function is called by:
		_trunc
 This function uses a non-reentrant model


 *************** function ___fttol *****************
 Defined at:
		line 44 in file "C:\Program Files (x86)\Microchip\xc8\v1.34\sources\common\fttol.c"
 Parameters:    Size  Location     Type
  f1              3   28[COMRAM] float 
 Auto vars:     Size  Location     Type
  lval            4   38[COMRAM] unsigned long 
  exp1            1   42[COMRAM] unsigned char 
  sign1           1   37[COMRAM] unsigned char 
 Return value:  Size  Location     Type
                  4   28[COMRAM] long 
 Registers used:
		wreg, status,2, status,0
 Tracked objects:
		On entry : 
		On exit  : 
		Unchanged: 
 Data sizes:     COMRAM   BANK0   BANK1   BANK2   BANK3   BANK4   BANK5
      Params:         4       0       0       0       0       0       0
      Locals:         6       0       0       0       0       0       0
      Temps:          5       0       0       0       0       0       0
      Totals:        15       0       0       0       0       0       0
Total ram usage:       15 bytes
 Hardware stack levels used:    1
 Hardware stack levels required when called:    3
 This function calls:
		Nothing
 This function is called by:
		_main
		_trunc
 This function uses a non-reentrant model


 *************** function ___altoft *****************
 Defined at:
		line 42 in file "C:\Program Files (x86)\Microchip\xc8\v1.34\sources\common\altoft.c"
 Parameters:    Size  Location     Type
  c               4   43[COMRAM] long 
 Auto vars:     Size  Location     Type
  sign            1   52[COMRAM] unsigned char 
  exp             1   51[COMRAM] unsigned char 
 Return value:  Size  Location     Type
                  3   43[COMRAM] float 
 Registers used:
		wreg, status,2, status,0, cstack
 Tracked objects:
		On entry : 
		On exit  : 
		Unchanged: 
 Data sizes:     COMRAM   BANK0   BANK1   BANK2   BANK3   BANK4   BANK5
      Params:         4       0       0       0       0       0       0
      Locals:         2       0       0       0       0       0       0
      Temps:          4       0       0       0       0       0       0
      Totals:        10       0       0       0       0       0       0
Total ram usage:       10 bytes
 Hardware stack levels used:    1
 Hardware stack levels required when called:    4
 This function calls:
		___ftpack
 This function is called by:
		_trunc
 This function uses a non-reentrant model


 *************** function ___ftneg *****************
 Defined at:
		line 15 in file "C:\Program Files (x86)\Microchip\xc8\v1.34\sources\common\ftneg.c"
 Parameters:    Size  Location     Type
  f1              3   61[COMRAM] float 
 Auto vars:     Size  Location     Type
		None
 Return value:  Size  Location     Type
                  3   61[COMRAM] float 
 Registers used:
		wreg, status,2, status,0
 Tracked objects:
		On entry : 
		On exit  : 
		Unchanged: 
 Data sizes:     COMRAM   BANK0   BANK1   BANK2   BANK3   BANK4   BANK5
      Params:         3       0       0       0       0       0       0
      Locals:         0       0       0       0       0       0       0
      Temps:          0       0       0       0       0       0       0
      Totals:         3       0       0       0       0       0       0
Total ram usage:        3 bytes
 Hardware stack levels used:    1
 Hardware stack levels required when called:    3
 This function calls:
		Nothing
 This function is called by:
		_round
 This function uses a non-reentrant model


 *************** function ___ftadd *****************
 Defined at:
		line 86 in file "C:\Program Files (x86)\Microchip\xc8\v1.34\sources\common\ftadd.c"
 Parameters:    Size  Location     Type
  f1              3   64[COMRAM] float 
  f2              3   67[COMRAM] float 
 Auto vars:     Size  Location     Type
  exp1            1   75[COMRAM] unsigned char 
  exp2            1   74[COMRAM] unsigned char 
  sign            1   73[COMRAM] unsigned char 
 Return value:  Size  Location     Type
                  3   64[COMRAM] float 
 Registers used:
		wreg, status,2, status,0, cstack
 Tracked objects:
		On entry : 
		On exit  : 
		Unchanged: 
 Data sizes:     COMRAM   BANK0   BANK1   BANK2   BANK3   BANK4   BANK5
      Params:         6       0       0       0       0       0       0
      Locals:         3       0       0       0       0       0       0
      Temps:          3       0       0       0       0       0       0
      Totals:        12       0       0       0       0       0       0
Total ram usage:       12 bytes
 Hardware stack levels used:    1
 Hardware stack levels required when called:    4
 This function calls:
		___ftpack
 This function is called by:
		_round
 This function uses a non-reentrant model


 *************** function ___lwtoft *****************
 Defined at:
		line 28 in file "C:\Program Files (x86)\Microchip\xc8\v1.34\sources\common\lwtoft.c"
 Parameters:    Size  Location     Type
  c               2   36[COMRAM] unsigned int 
 Auto vars:     Size  Location     Type
		None
 Return value:  Size  Location     Type
                  3   36[COMRAM] float 
 Registers used:
		wreg, status,2, status,0, cstack
 Tracked objects:
		On entry : 
		On exit  : 
		Unchanged: 
 Data sizes:     COMRAM   BANK0   BANK1   BANK2   BANK3   BANK4   BANK5
      Params:         3       0       0       0       0       0       0
      Locals:         0       0       0       0       0       0       0
      Temps:          0       0       0       0       0       0       0
      Totals:         3       0       0       0       0       0       0
Total ram usage:        3 bytes
 Hardware stack levels used:    1
 Hardware stack levels required when called:    4
 This function calls:
		___ftpack
 This function is called by:
		_MedirTemperatura
 This function uses a non-reentrant model


 *************** function ___ftmul *****************
 Defined at:
		line 62 in file "C:\Program Files (x86)\Microchip\xc8\v1.34\sources\common\ftmul.c"
 Parameters:    Size  Location     Type
  f1              3   39[COMRAM] float 
  f2              3   42[COMRAM] float 
 Auto vars:     Size  Location     Type
  f3_as_produc    3   49[COMRAM] unsigned um
  sign            1   53[COMRAM] unsigned char 
  cntr            1   52[COMRAM] unsigned char 
  exp             1   48[COMRAM] unsigned char 
 Return value:  Size  Location     Type
                  3   39[COMRAM] float 
 Registers used:
		wreg, status,2, status,0, cstack
 Tracked objects:
		On entry : 
		On exit  : 
		Unchanged: 
 Data sizes:     COMRAM   BANK0   BANK1   BANK2   BANK3   BANK4   BANK5
      Params:         6       0       0       0       0       0       0
      Locals:         6       0       0       0       0       0       0
      Temps:          3       0       0       0       0       0       0
      Totals:        15       0       0       0       0       0       0
Total ram usage:       15 bytes
 Hardware stack levels used:    1
 Hardware stack levels required when called:    4
 This function calls:
		___ftpack
 This function is called by:
		_MedirTemperatura
 This function uses a non-reentrant model


 *************** function ___ftpack *****************
 Defined at:
		line 62 in file "C:\Program Files (x86)\Microchip\xc8\v1.34\sources\common\float.c"
 Parameters:    Size  Location     Type
  arg             3   28[COMRAM] unsigned um
  exp             1   31[COMRAM] unsigned char 
  sign            1   32[COMRAM] unsigned char 
 Auto vars:     Size  Location     Type
		None
 Return value:  Size  Location     Type
                  3   28[COMRAM] float 
 Registers used:
		wreg, status,2, status,0
 Tracked objects:
		On entry : 
		On exit  : 
		Unchanged: 
 Data sizes:     COMRAM   BANK0   BANK1   BANK2   BANK3   BANK4   BANK5
      Params:         5       0       0       0       0       0       0
      Locals:         0       0       0       0       0       0       0
      Temps:          3       0       0       0       0       0       0
      Totals:         8       0       0       0       0       0       0
Total ram usage:        8 bytes
 Hardware stack levels used:    1
 Hardware stack levels required when called:    3
 This function calls:
		Nothing
 This function is called by:
		___altoft
		___ftadd
		___ftmul
		___lbtoft
		___lwtoft
 This function uses a non-reentrant model


 *************** function _GetADC *****************
 Defined at:
		line 150 in file "main.c"
 Parameters:    Size  Location     Type
  CanalADC        1    wreg     unsigned char 
 Auto vars:     Size  Location     Type
  CanalADC        1   32[COMRAM] unsigned char 
 Return value:  Size  Location     Type
                  2   28[COMRAM] unsigned int 
 Registers used:
		wreg, status,2, status,0
 Tracked objects:
		On entry : 
		On exit  : 
		Unchanged: 
 Data sizes:     COMRAM   BANK0   BANK1   BANK2   BANK3   BANK4   BANK5
      Params:         2       0       0       0       0       0       0
      Locals:         1       0       0       0       0       0       0
      Temps:          2       0       0       0       0       0       0
      Totals:         5       0       0       0       0       0       0
Total ram usage:        5 bytes
 Hardware stack levels used:    1
 Hardware stack levels required when called:    3
 This function calls:
		Nothing
 This function is called by:
		_MedirTemperatura
 This function uses a non-reentrant model


 *************** function _PortBInt *****************
 Defined at:
		line 193 in file "main.c"
 Parameters:    Size  Location     Type
		None
 Auto vars:     Size  Location     Type
		None
 Return value:  Size  Location     Type
		None               void
 Registers used:
		wreg, fsr2l, fsr2h, status,2, status,0, prodl, prodh, cstack
 Tracked objects:
		On entry : 
		On exit  : 
		Unchanged: 
 Data sizes:     COMRAM   BANK0   BANK1   BANK2   BANK3   BANK4   BANK5
      Params:         0       0       0       0       0       0       0
      Locals:         0       0       0       0       0       0       0
      Temps:         15       0       0       0       0       0       0
      Totals:        15       0       0       0       0       0       0
Total ram usage:       15 bytes
 Hardware stack levels used:    1
 Hardware stack levels required when called:    2
 This function calls:
		i2_PrintTwoDisp
 This function is called by:
		Interrupt level 2
 This function uses a non-reentrant model


 *************** function i2_PrintTwoDisp *****************
 Defined at:
		line 162 in file "main.c"
 Parameters:    Size  Location     Type
  Numero          1    wreg     unsigned char 
 Auto vars:     Size  Location     Type
  Numero          1    9[COMRAM] unsigned char 
  PrintTwoDisp    1   12[COMRAM] unsigned char 
  PrintTwoDisp    1   11[COMRAM] unsigned char 
  PrintTwoDisp    1   10[COMRAM] unsigned char 
 Return value:  Size  Location     Type
		None               void
 Registers used:
		wreg, fsr2l, fsr2h, status,2, status,0, prodl, prodh, cstack
 Tracked objects:
		On entry : 
		On exit  : 
		Unchanged: 
 Data sizes:     COMRAM   BANK0   BANK1   BANK2   BANK3   BANK4   BANK5
      Params:         0       0       0       0       0       0       0
      Locals:         4       0       0       0       0       0       0
      Temps:          1       0       0       0       0       0       0
      Totals:         5       0       0       0       0       0       0
Total ram usage:        5 bytes
 Hardware stack levels used:    1
 Hardware stack levels required when called:    1
 This function calls:
		i2___awdiv
		i2___awmod
 This function is called by:
		_PortBInt
 This function uses a non-reentrant model


 *************** function i2___awmod *****************
 Defined at:
		line 8 in file "C:\Program Files (x86)\Microchip\xc8\v1.34\sources\common\awmod.c"
 Parameters:    Size  Location     Type
  dividend        2    0[COMRAM] int 
  divisor         2    2[COMRAM] int 
 Auto vars:     Size  Location     Type
  __awmod         1    5[COMRAM] unsigned char 
  __awmod         1    4[COMRAM] unsigned char 
 Return value:  Size  Location     Type
                  2    0[COMRAM] int 
 Registers used:
		wreg, status,2, status,0
 Tracked objects:
		On entry : 
		On exit  : 
		Unchanged: 
 Data sizes:     COMRAM   BANK0   BANK1   BANK2   BANK3   BANK4   BANK5
      Params:         4       0       0       0       0       0       0
      Locals:         2       0       0       0       0       0       0
      Temps:          0       0       0       0       0       0       0
      Totals:         6       0       0       0       0       0       0
Total ram usage:        6 bytes
 Hardware stack levels used:    1
 This function calls:
		Nothing
 This function is called by:
		i2_PrintTwoDisp
 This function uses a non-reentrant model


 *************** function i2___awdiv *****************
 Defined at:
		line 8 in file "C:\Program Files (x86)\Microchip\xc8\v1.34\sources\common\awdiv.c"
 Parameters:    Size  Location     Type
  dividend        2    0[COMRAM] int 
  divisor         2    2[COMRAM] int 
 Auto vars:     Size  Location     Type
  __awdiv         2    6[COMRAM] int 
  __awdiv         1    5[COMRAM] unsigned char 
  __awdiv         1    4[COMRAM] unsigned char 
 Return value:  Size  Location     Type
                  2    0[COMRAM] int 
 Registers used:
		wreg, status,2, status,0
 Tracked objects:
		On entry : 
		On exit  : 
		Unchanged: 
 Data sizes:     COMRAM   BANK0   BANK1   BANK2   BANK3   BANK4   BANK5
      Params:         4       0       0       0       0       0       0
      Locals:         4       0       0       0       0       0       0
      Temps:          0       0       0       0       0       0       0
      Totals:         8       0       0       0       0       0       0
Total ram usage:        8 bytes
 Hardware stack levels used:    1
 This function calls:
		Nothing
 This function is called by:
		i2_PrintTwoDisp
 This function uses a non-reentrant model



MODULE INFORMATION

Module		Function		Class		Link	Load	Size
C:\Program Files (x86)\Microchip\xc8\v1.34\sources\common\trunc.c
		_trunc         		CODE           	08C4	0000	133

C:\Program Files (x86)\Microchip\xc8\v1.34\sources\common\trunc.c estimated size: 133

C:\Program Files (x86)\Microchip\xc8\v1.34\sources\common\ftge.c
		___ftge        		CODE           	0672	0000	151

C:\Program Files (x86)\Microchip\xc8\v1.34\sources\common\ftge.c estimated size: 151

C:\Program Files (x86)\Microchip\xc8\v1.34\sources\common\round.c
		_round         		CODE           	0834	0000	145

C:\Program Files (x86)\Microchip\xc8\v1.34\sources\common\round.c estimated size: 145

C:\Program Files (x86)\Microchip\xc8\v1.34\sources\common\ftneg.c
		___ftneg       		CODE           	0CC0	0000	37

C:\Program Files (x86)\Microchip\xc8\v1.34\sources\common\ftneg.c estimated size: 37

C:\Program Files (x86)\Microchip\xc8\v1.34\sources\common\float.c
		___ftpack      		CODE           	03BE	0000	199

C:\Program Files (x86)\Microchip\xc8\v1.34\sources\common\float.c estimated size: 199

C:\Program Files (x86)\Microchip\xc8\v1.34\sources\common\awmod.c
		___awmod       		CODE           	0948	0000	131

C:\Program Files (x86)\Microchip\xc8\v1.34\sources\common\awmod.c estimated size: 131

C:\Program Files (x86)\Microchip\xc8\v1.34\sources\common\lbtoft.c
		___lbtoft      		CODE           	0C50	0000	39

C:\Program Files (x86)\Microchip\xc8\v1.34\sources\common\lbtoft.c estimated size: 39

C:\Program Files (x86)\Microchip\xc8\v1.34\sources\common\frexp.c
		_frexp         		CODE           	0AC8	0000	123

C:\Program Files (x86)\Microchip\xc8\v1.34\sources\common\frexp.c estimated size: 123

C:\Program Files (x86)\Microchip\xc8\v1.34\sources\common\ftmul.c
		___ftmul       		CODE           	01E0	0000	249

C:\Program Files (x86)\Microchip\xc8\v1.34\sources\common\ftmul.c estimated size: 249

C:\Program Files (x86)\Microchip\xc8\v1.34\sources\common\lwtoft.c
		___lwtoft      		CODE           	0C76	0000	39

C:\Program Files (x86)\Microchip\xc8\v1.34\sources\common\lwtoft.c estimated size: 39

shared
		i2___awdiv     		CODE           	079E	0000	151
		__initializatio		CODE           	0C26	0000	37
		i2___awmod     		CODE           	09CA	0000	131
		i2_PrintTwoDisp		CODE           	05CE	0000	165

shared estimated size: 484

C:\Program Files (x86)\Microchip\xc8\v1.34\sources\common\altoft.c
		___altoft      		CODE           	0A4C	0000	125

C:\Program Files (x86)\Microchip\xc8\v1.34\sources\common\altoft.c estimated size: 125

C:\Program Files (x86)\Microchip\xc8\v1.34\sources\common\awdiv.c
		___awdiv       		CODE           	0708	0000	151

C:\Program Files (x86)\Microchip\xc8\v1.34\sources\common\awdiv.c estimated size: 151

C:\Program Files (x86)\Microchip\xc8\v1.34\sources\common\fttol.c
		___fttol       		CODE           	02D8	0000	231

C:\Program Files (x86)\Microchip\xc8\v1.34\sources\common\fttol.c estimated size: 231

main.c
		_SetUp_ADC     		CODE           	0C9C	0000	37
		_PrintTwoDisp  		CODE           	052A	0000	165
		_main          		CODE           	0BA4	0000	87
		_GetADC        		CODE           	0BFA	0000	45
		_PortBInt      		CODE           	0008	0000	183
		_MedirTemperatu		CODE           	0B42	0000	99
		_SetUp         		CODE           	0CE4	0000	31

main.c estimated size: 647

C:\Program Files (x86)\Microchip\xc8\v1.34\sources\common\ftadd.c
		___ftadd       		CODE           	001C	0000	453

C:\Program Files (x86)\Microchip\xc8\v1.34\sources\common\ftadd.c estimated size: 453

