

Microchip Technology PIC18 LITE Macro Assembler V1.34 build -361300703 
                                                                                               Fri May 01 11:20:14 2015

Microchip Technology Omniscient Code Generator (Lite mode) build 201502162209
     1                           	processor	18F4520
     2                           	fnconf	rparam,??,?,0
     3                           	opt	pw 120
     4                           	opt	lm
     5                           	psect	idataCOMRAM,global,class=CODE,delta=1
     6                           	psect	nvCOMRAM,global,class=COMRAM,space=1,delta=1
     7                           	psect	cinit,global,reloc=2,class=CODE,delta=1
     8                           	psect	bssCOMRAM,global,class=COMRAM,space=1,delta=1
     9                           	psect	dataCOMRAM,global,class=COMRAM,space=1,delta=1
    10                           	psect	cstackBANK0,global,class=BANK0,space=1,delta=1
    11                           	psect	cstackCOMRAM,global,class=COMRAM,space=1,delta=1
    12                           	psect	text0,global,reloc=2,class=CODE,delta=1
    13                           	psect	text1,global,reloc=2,class=CODE,delta=1
    14                           	psect	text2,global,reloc=2,class=CODE,delta=1
    15                           	psect	text3,global,reloc=2,class=CODE,delta=1
    16                           	psect	text4,global,reloc=2,class=CODE,delta=1
    17                           	psect	text5,global,reloc=2,class=CODE,delta=1
    18                           	psect	text6,global,reloc=2,class=CODE,delta=1
    19                           	psect	text7,global,reloc=2,class=CODE,delta=1
    20                           	psect	text8,global,reloc=2,class=CODE,delta=1
    21                           	psect	text9,global,reloc=2,class=CODE,delta=1
    22                           	psect	text10,global,reloc=2,class=CODE,delta=1
    23                           	psect	text11,global,reloc=2,class=CODE,delta=1
    24                           	psect	text12,global,reloc=2,class=CODE,delta=1
    25                           	psect	text13,global,reloc=2,class=CODE,delta=1
    26                           	psect	text14,global,reloc=2,class=CODE,delta=1
    27                           	psect	text15,global,reloc=2,class=CODE,delta=1
    28                           	psect	text16,global,reloc=2,class=CODE,delta=1
    29                           	psect	text17,global,reloc=2,class=CODE,delta=1
    30                           	psect	text18,global,reloc=2,class=CODE,delta=1
    31                           	psect	text19,global,reloc=2,class=CODE,delta=1
    32                           	psect	intcode,global,reloc=2,class=CODE,delta=1
    33                           	psect	intcode_body,global,reloc=2,class=CODE,delta=1
    34                           	psect	text21,global,reloc=2,class=CODE,delta=1
    35                           	psect	text22,global,reloc=2,class=CODE,delta=1
    36                           	psect	text23,global,reloc=2,class=CODE,delta=1
    37                           	psect	intsave_regs,global,class=BIGRAM,space=1,delta=1
    38                           	psect	rparam,global,class=COMRAM,space=1,delta=1
    39  0000                     
    40                           	psect	idataCOMRAM
    41  000D02                     __pidataCOMRAM:
    42                           	opt stack 0
    43                           
    44                           ;initializer for _Disp7SegCC
    45  000D02  3F                 	db	63
    46  000D03  06                 	db	6
    47  000D04  5B                 	db	91
    48  000D05  4F                 	db	79
    49  000D06  66                 	db	102
    50  000D07  6D                 	db	109
    51  000D08  7D                 	db	125
    52  000D09  07                 	db	7
    53  000D0A  7F                 	db	127
    54  000D0B  6F                 	db	111
    55                           
    56                           ;initializer for _TempRef
    57  000D0C  23                 	db	35
    58                           
    59                           	psect	nvCOMRAM
    60  00005B                     __pnvCOMRAM:
    61                           	opt stack 0
    62  00005B                     _TempMedida:
    63                           	opt stack 0
    64  00005B                     	ds	3
    65  00005E                     _ConversionADC:
    66                           	opt stack 0
    67  00005E                     	ds	2
    68  0000                     _ADCON0	set	4034
    69  0000                     _ADCON0bits	set	4034
    70  0000                     _ADCON1bits	set	4033
    71  0000                     _ADCON2bits	set	4032
    72  0000                     _ADRESH	set	4036
    73  0000                     _ADRESL	set	4035
    74  0000                     _INTCONbits	set	4082
    75  0000                     _OSCCONbits	set	4051
    76  0000                     _PORTB	set	3969
    77  0000                     _PORTBbits	set	3969
    78  0000                     _PORTCbits	set	3970
    79  0000                     _PORTD	set	3971
    80  0000                     _RCONbits	set	4048
    81  0000                     _TRISBbits	set	3987
    82  0000                     _TRISCbits	set	3988
    83  0000                     _TRISD	set	3989
    84                           
    85                           ; #config settings
    86  0000                     
    87                           	psect	cinit
    88  000C26                     __pcinit:
    89                           	opt stack 0
    90  000C26                     start_initialization:
    91                           	opt stack 0
    92  000C26                     __initialization:
    93                           	opt stack 0
    94                           
    95                           ; Clear objects allocated to COMRAM (2 bytes)
    96  000C26  6A61               	clrf	(__pbssCOMRAM+1)& (0+255),c
    97  000C28  6A60               	clrf	__pbssCOMRAM& (0+255),c
    98                           
    99                           ; Initialize objects allocated to COMRAM (11 bytes)
   100                           ; load TBLPTR registers with __pidataCOMRAM
   101  000C2A  0E02               	movlw	low __pidataCOMRAM
   102  000C2C  6EF6               	movwf	tblptrl,c
   103  000C2E  0E0D               	movlw	high __pidataCOMRAM
   104  000C30  6EF7               	movwf	tblptrh,c
   105  000C32  0E00               	movlw	low (__pidataCOMRAM shr (0+16))
   106  000C34  6EF8               	movwf	tblptru,c
   107  000C36  EE00  F050         	lfsr	0,__pdataCOMRAM
   108  000C3A  EE10 F00B          	lfsr	1,11
   109  000C3E                     copy_data0:
   110  000C3E  0009               	tblrd		*+
   111  000C40  CFF5 FFEE          	movff	tablat,postinc0
   112  000C44  50E5               	movf	postdec1,w,c
   113  000C46  50E1               	movf	fsr1l,w,c
   114  000C48  E1FA               	bnz	copy_data0
   115  000C4A                     end_of_initialization:
   116                           	opt stack 0
   117  000C4A                     __end_of__initialization:
   118                           	opt stack 0
   119  000C4A  0100               	movlb	0
   120  000C4C  EFD2  F005         	goto	_main	;jump to C main() function
   121                           tblptru	equ	0xFF8
   122                           tblptrh	equ	0xFF7
   123                           tblptrl	equ	0xFF6
   124                           tablat	equ	0xFF5
   125                           postinc0	equ	0xFEE
   126                           postdec1	equ	0xFE5
   127                           fsr1l	equ	0xFE1
   128                           
   129                           	psect	bssCOMRAM
   130  000060                     __pbssCOMRAM:
   131                           	opt stack 0
   132  000060                     _errno:
   133                           	opt stack 0
   134  000060                     	ds	2
   135                           tblptru	equ	0xFF8
   136                           tblptrh	equ	0xFF7
   137                           tblptrl	equ	0xFF6
   138                           tablat	equ	0xFF5
   139                           postinc0	equ	0xFEE
   140                           postdec1	equ	0xFE5
   141                           fsr1l	equ	0xFE1
   142                           
   143                           	psect	dataCOMRAM
   144  000050                     __pdataCOMRAM:
   145                           	opt stack 0
   146  000050                     _Disp7SegCC:
   147                           	opt stack 0
   148  000050                     	ds	10
   149  00005A                     _TempRef:
   150                           	opt stack 0
   151  00005A                     	ds	1
   152                           tblptru	equ	0xFF8
   153                           tblptrh	equ	0xFF7
   154                           tblptrl	equ	0xFF6
   155                           tablat	equ	0xFF5
   156                           postinc0	equ	0xFEE
   157                           postdec1	equ	0xFE5
   158                           fsr1l	equ	0xFE1
   159                           
   160                           	psect	cstackBANK0
   161  000080                     __pcstackBANK0:
   162                           	opt stack 0
   163  000080                     round@f:
   164                           	opt stack 0
   165                           
   166                           ; 3 bytes @ 0x0
   167  000080                     	ds	3
   168                           tblptru	equ	0xFF8
   169                           tblptrh	equ	0xFF7
   170                           tblptrl	equ	0xFF6
   171                           tablat	equ	0xFF5
   172                           postinc0	equ	0xFEE
   173                           postdec1	equ	0xFE5
   174                           fsr1l	equ	0xFE1
   175                           
   176                           	psect	cstackCOMRAM
   177  000001                     __pcstackCOMRAM:
   178                           	opt stack 0
   179  000001                     ?i2___awdiv:
   180                           	opt stack 0
   181  000001                     ?i2___awmod:
   182                           	opt stack 0
   183  000001                     i2___awdiv@dividend:
   184                           	opt stack 0
   185  000001                     i2___awmod@dividend:
   186                           	opt stack 0
   187                           
   188                           ; 2 bytes @ 0x0
   189  000001                     	ds	2
   190  000003                     i2___awdiv@divisor:
   191                           	opt stack 0
   192  000003                     i2___awmod@divisor:
   193                           	opt stack 0
   194                           
   195                           ; 2 bytes @ 0x2
   196  000003                     	ds	2
   197  000005                     i2___awdiv@counter:
   198                           	opt stack 0
   199  000005                     i2___awmod@counter:
   200                           	opt stack 0
   201                           
   202                           ; 1 bytes @ 0x4
   203  000005                     	ds	1
   204  000006                     i2___awdiv@sign:
   205                           	opt stack 0
   206  000006                     i2___awmod@sign:
   207                           	opt stack 0
   208                           
   209                           ; 1 bytes @ 0x5
   210  000006                     	ds	1
   211  000007                     i2___awdiv@quotient:
   212                           	opt stack 0
   213                           
   214                           ; 2 bytes @ 0x6
   215  000007                     	ds	2
   216  000009                     ??i2_PrintTwoDisp:
   217                           
   218                           ; 0 bytes @ 0x8
   219  000009                     	ds	1
   220  00000A                     i2PrintTwoDisp@Numero:
   221                           	opt stack 0
   222                           
   223                           ; 1 bytes @ 0x9
   224  00000A                     	ds	1
   225  00000B                     i2PrintTwoDisp@Unidades:
   226                           	opt stack 0
   227                           
   228                           ; 1 bytes @ 0xA
   229  00000B                     	ds	1
   230  00000C                     i2PrintTwoDisp@Decenas:
   231                           	opt stack 0
   232                           
   233                           ; 1 bytes @ 0xB
   234  00000C                     	ds	1
   235  00000D                     i2PrintTwoDisp@n:
   236                           	opt stack 0
   237                           
   238                           ; 1 bytes @ 0xC
   239  00000D                     	ds	1
   240  00000E                     ??_PortBInt:
   241                           
   242                           ; 0 bytes @ 0xD
   243  00000E                     	ds	15
   244  00001D                     ?_GetADC:
   245                           	opt stack 0
   246  00001D                     ?___awdiv:
   247                           	opt stack 0
   248  00001D                     ?___awmod:
   249                           	opt stack 0
   250  00001D                     ?___ftpack:
   251                           	opt stack 0
   252  00001D                     ?___fttol:
   253                           	opt stack 0
   254  00001D                     ___awdiv@dividend:
   255                           	opt stack 0
   256  00001D                     ___awmod@dividend:
   257                           	opt stack 0
   258  00001D                     ___ftpack@arg:
   259                           	opt stack 0
   260  00001D                     ___fttol@f1:
   261                           	opt stack 0
   262  00001D                     frexp@value:
   263                           	opt stack 0
   264                           
   265                           ; 3 bytes @ 0x1C
   266  00001D                     	ds	2
   267  00001F                     ??_GetADC:
   268  00001F                     ___awdiv@divisor:
   269                           	opt stack 0
   270  00001F                     ___awmod@divisor:
   271                           	opt stack 0
   272                           
   273                           ; 2 bytes @ 0x1E
   274  00001F                     	ds	1
   275  000020                     ___ftpack@exp:
   276                           	opt stack 0
   277  000020                     frexp@eptr:
   278                           	opt stack 0
   279                           
   280                           ; 2 bytes @ 0x1F
   281  000020                     	ds	1
   282  000021                     ??___fttol:
   283  000021                     GetADC@CanalADC:
   284                           	opt stack 0
   285  000021                     ___awdiv@counter:
   286                           	opt stack 0
   287  000021                     ___awmod@counter:
   288                           	opt stack 0
   289  000021                     ___ftpack@sign:
   290                           	opt stack 0
   291                           
   292                           ; 1 bytes @ 0x20
   293  000021                     	ds	1
   294  000022                     ??___ftpack:
   295  000022                     ??_frexp:
   296  000022                     ___awdiv@sign:
   297                           	opt stack 0
   298  000022                     ___awmod@sign:
   299                           	opt stack 0
   300                           
   301                           ; 1 bytes @ 0x21
   302  000022                     	ds	1
   303  000023                     ___awdiv@quotient:
   304                           	opt stack 0
   305                           
   306                           ; 2 bytes @ 0x22
   307  000023                     	ds	2
   308  000025                     ??_PrintTwoDisp:
   309  000025                     ?___lbtoft:
   310                           	opt stack 0
   311  000025                     ?___lwtoft:
   312                           	opt stack 0
   313  000025                     ___lwtoft@c:
   314                           	opt stack 0
   315                           
   316                           ; 2 bytes @ 0x24
   317  000025                     	ds	1
   318  000026                     PrintTwoDisp@Unidades:
   319                           	opt stack 0
   320  000026                     ___fttol@sign1:
   321                           	opt stack 0
   322                           
   323                           ; 1 bytes @ 0x25
   324  000026                     	ds	1
   325  000027                     PrintTwoDisp@Decenas:
   326                           	opt stack 0
   327  000027                     ___fttol@lval:
   328                           	opt stack 0
   329                           
   330                           ; 4 bytes @ 0x26
   331  000027                     	ds	1
   332  000028                     ?___ftmul:
   333                           	opt stack 0
   334  000028                     PrintTwoDisp@n:
   335                           	opt stack 0
   336  000028                     ___lbtoft@c:
   337                           	opt stack 0
   338  000028                     ___ftmul@f1:
   339                           	opt stack 0
   340                           
   341                           ; 3 bytes @ 0x27
   342  000028                     	ds	1
   343  000029                     PrintTwoDisp@Numero:
   344                           	opt stack 0
   345  000029                     ___ftge@ff1:
   346                           	opt stack 0
   347                           
   348                           ; 3 bytes @ 0x28
   349  000029                     	ds	2
   350  00002B                     ___fttol@exp1:
   351                           	opt stack 0
   352  00002B                     ___ftmul@f2:
   353                           	opt stack 0
   354                           
   355                           ; 3 bytes @ 0x2A
   356  00002B                     	ds	1
   357  00002C                     ?___altoft:
   358                           	opt stack 0
   359  00002C                     ___ftge@ff2:
   360                           	opt stack 0
   361  00002C                     ___altoft@c:
   362                           	opt stack 0
   363                           
   364                           ; 4 bytes @ 0x2B
   365  00002C                     	ds	2
   366  00002E                     ??___ftmul:
   367                           
   368                           ; 0 bytes @ 0x2D
   369  00002E                     	ds	1
   370  00002F                     ??___ftge:
   371                           
   372                           ; 0 bytes @ 0x2E
   373  00002F                     	ds	1
   374  000030                     ??___altoft:
   375                           
   376                           ; 0 bytes @ 0x2F
   377  000030                     	ds	1
   378  000031                     ___ftmul@exp:
   379                           	opt stack 0
   380                           
   381                           ; 1 bytes @ 0x30
   382  000031                     	ds	1
   383  000032                     ___ftmul@f3_as_product:
   384                           	opt stack 0
   385                           
   386                           ; 3 bytes @ 0x31
   387  000032                     	ds	2
   388  000034                     ___altoft@exp:
   389                           	opt stack 0
   390                           
   391                           ; 1 bytes @ 0x33
   392  000034                     	ds	1
   393  000035                     ___altoft@sign:
   394                           	opt stack 0
   395  000035                     ___ftmul@cntr:
   396                           	opt stack 0
   397                           
   398                           ; 1 bytes @ 0x34
   399  000035                     	ds	1
   400  000036                     ?_trunc:
   401                           	opt stack 0
   402  000036                     ___ftmul@sign:
   403                           	opt stack 0
   404  000036                     trunc@x:
   405                           	opt stack 0
   406                           
   407                           ; 3 bytes @ 0x35
   408  000036                     	ds	3
   409  000039                     trunc@i:
   410                           	opt stack 0
   411                           
   412                           ; 3 bytes @ 0x38
   413  000039                     	ds	3
   414  00003C                     trunc@expon:
   415                           	opt stack 0
   416                           
   417                           ; 2 bytes @ 0x3B
   418  00003C                     	ds	2
   419  00003E                     ?___ftneg:
   420                           	opt stack 0
   421  00003E                     ___ftneg@f1:
   422                           	opt stack 0
   423                           
   424                           ; 3 bytes @ 0x3D
   425  00003E                     	ds	3
   426  000041                     ?___ftadd:
   427                           	opt stack 0
   428  000041                     ___ftadd@f1:
   429                           	opt stack 0
   430                           
   431                           ; 3 bytes @ 0x40
   432  000041                     	ds	3
   433  000044                     ___ftadd@f2:
   434                           	opt stack 0
   435                           
   436                           ; 3 bytes @ 0x43
   437  000044                     	ds	3
   438  000047                     ??___ftadd:
   439                           
   440                           ; 0 bytes @ 0x46
   441  000047                     	ds	3
   442  00004A                     ___ftadd@sign:
   443                           	opt stack 0
   444                           
   445                           ; 1 bytes @ 0x49
   446  00004A                     	ds	1
   447  00004B                     ___ftadd@exp2:
   448                           	opt stack 0
   449                           
   450                           ; 1 bytes @ 0x4A
   451  00004B                     	ds	1
   452  00004C                     ___ftadd@exp1:
   453                           	opt stack 0
   454                           
   455                           ; 1 bytes @ 0x4B
   456  00004C                     	ds	1
   457  00004D                     ?_round:
   458                           	opt stack 0
   459  00004D                     round@x:
   460                           	opt stack 0
   461                           
   462                           ; 3 bytes @ 0x4C
   463  00004D                     	ds	3
   464  000050                     tblptru	equ	0xFF8
   465                           tblptrh	equ	0xFF7
   466                           tblptrl	equ	0xFF6
   467                           tablat	equ	0xFF5
   468                           postinc0	equ	0xFEE
   469                           postdec1	equ	0xFE5
   470                           fsr1l	equ	0xFE1
   471                           
   472                           ; 0 bytes @ 0x4F
   473 ;;
   474 ;;Main: autosize = 0, tempsize = 0, incstack = 0, save=0
   475 ;;
   476 ;; *************** function _main *****************
   477 ;; Defined at:
   478 ;;		line 76 in file "main.c"
   479 ;; Parameters:    Size  Location     Type
   480 ;;		None
   481 ;; Auto vars:     Size  Location     Type
   482 ;;		None
   483 ;; Return value:  Size  Location     Type
   484 ;;		None               void
   485 ;; Registers used:
   486 ;;		wreg, fsr2l, fsr2h, status,2, status,0, prodl, prodh, cstack
   487 ;; Tracked objects:
   488 ;;		On entry : 0/0
   489 ;;		On exit  : 0/0
   490 ;;		Unchanged: 0/0
   491 ;; Data sizes:     COMRAM   BANK0   BANK1   BANK2   BANK3   BANK4   BANK5
   492 ;;      Params:         0       0       0       0       0       0       0
   493 ;;      Locals:         0       0       0       0       0       0       0
   494 ;;      Temps:          0       0       0       0       0       0       0
   495 ;;      Totals:         0       0       0       0       0       0       0
   496 ;;Total ram usage:        0 bytes
   497 ;; Hardware stack levels required when called:    8
   498 ;; This function calls:
   499 ;;		_MedirTemperatura
   500 ;;		_PrintTwoDisp
   501 ;;		_SetUp
   502 ;;		_SetUp_ADC
   503 ;;		___ftge
   504 ;;		___fttol
   505 ;;		___lbtoft
   506 ;; This function is called by:
   507 ;;		Startup code after reset
   508 ;; This function uses a non-reentrant model
   509 ;;
   510                           
   511                           	psect	text0
   512  000BA4                     __ptext0:
   513                           	opt stack 0
   514  000BA4                     _main:
   515                           	opt stack 23
   516                           
   517                           ;main.c: 78: SetUp();
   518                           
   519                           ;incstack = 0
   520  000BA4  EC72  F006         	call	_SetUp	;wreg free
   521                           
   522                           ;main.c: 79: SetUp_ADC();
   523  000BA8  EC4E  F006         	call	_SetUp_ADC	;wreg free
   524  000BAC  D000               	goto	l2110
   525  000BAE                     l2110:
   526                           
   527                           ;main.c: 82: {
   528                           ;main.c: 83: MedirTemperatura();
   529  000BAE  ECA1  F005         	call	_MedirTemperatura	;wreg free
   530                           
   531                           ;main.c: 84: PrintTwoDisp((unsigned char)TempMedida);
   532  000BB2  C05B  F01D         	movff	_TempMedida,___fttol@f1
   533  000BB6  C05C  F01E         	movff	_TempMedida+1,___fttol@f1+1
   534  000BBA  C05D  F01F         	movff	_TempMedida+2,___fttol@f1+2
   535  000BBE  EC6C  F001         	call	___fttol	;wreg free
   536  000BC2  501D               	movf	?___fttol,w,c
   537  000BC4  EC95  F002         	call	_PrintTwoDisp
   538                           
   539                           ;main.c: 85: if(TempMedida >= TempRef)
   540  000BC8  C05B  F029         	movff	_TempMedida,___ftge@ff1
   541  000BCC  C05C  F02A         	movff	_TempMedida+1,___ftge@ff1+1
   542  000BD0  C05D  F02B         	movff	_TempMedida+2,___ftge@ff1+2
   543  000BD4  505A               	movf	_TempRef,w,c
   544  000BD6  EC28  F006         	call	___lbtoft
   545  000BDA  C025  F02C         	movff	?___lbtoft,___ftge@ff2
   546  000BDE  C026  F02D         	movff	?___lbtoft+1,___ftge@ff2+1
   547  000BE2  C027  F02E         	movff	?___lbtoft+2,___ftge@ff2+2
   548  000BE6  EC39  F003         	call	___ftge	;wreg free
   549  000BEA  A0D8               	btfss	status,0,c
   550  000BEC  D002               	goto	l60
   551                           
   552                           ;main.c: 86: PORTCbits.RC3 = 1;
   553  000BEE  8682               	bsf	3970,3,c	;volatile
   554  000BF0  D7DE               	goto	l2110
   555  000BF2                     l60:
   556                           
   557                           ;main.c: 87: else
   558                           ;main.c: 88: PORTCbits.RC3 = 0;
   559  000BF2  9682               	bcf	3970,3,c	;volatile
   560  000BF4  D7DC               	goto	l2110
   561                           
   562                           ;main.c: 89: }
   563                           ;main.c: 90: return;
   564  000BF6  EF0C  F000         	goto	start
   565  000BFA                     __end_of_main:
   566                           	opt stack 0
   567                           tblptru	equ	0xFF8
   568                           tblptrh	equ	0xFF7
   569                           tblptrl	equ	0xFF6
   570                           tablat	equ	0xFF5
   571                           postinc0	equ	0xFEE
   572                           postdec1	equ	0xFE5
   573                           fsr1l	equ	0xFE1
   574                           status	equ	0xFD8
   575                           
   576 ;; *************** function ___lbtoft *****************
   577 ;; Defined at:
   578 ;;		line 27 in file "C:\Program Files (x86)\Microchip\xc8\v1.34\sources\common\lbtoft.c"
   579 ;; Parameters:    Size  Location     Type
   580 ;;  c               1    wreg     unsigned char 
   581 ;; Auto vars:     Size  Location     Type
   582 ;;  c               1   39[COMRAM] unsigned char 
   583 ;; Return value:  Size  Location     Type
   584 ;;                  3   36[COMRAM] float 
   585 ;; Registers used:
   586 ;;		wreg, status,2, status,0, cstack
   587 ;; Tracked objects:
   588 ;;		On entry : 0/0
   589 ;;		On exit  : 0/0
   590 ;;		Unchanged: 0/0
   591 ;; Data sizes:     COMRAM   BANK0   BANK1   BANK2   BANK3   BANK4   BANK5
   592 ;;      Params:         3       0       0       0       0       0       0
   593 ;;      Locals:         1       0       0       0       0       0       0
   594 ;;      Temps:          0       0       0       0       0       0       0
   595 ;;      Totals:         4       0       0       0       0       0       0
   596 ;;Total ram usage:        4 bytes
   597 ;; Hardware stack levels used:    1
   598 ;; Hardware stack levels required when called:    4
   599 ;; This function calls:
   600 ;;		___ftpack
   601 ;; This function is called by:
   602 ;;		_main
   603 ;; This function uses a non-reentrant model
   604 ;;
   605                           
   606                           	psect	text1
   607  000C50                     __ptext1:
   608                           	opt stack 0
   609  000C50                     ___lbtoft:
   610                           	opt stack 26
   611                           
   612                           ;incstack = 0
   613                           ;___lbtoft@c stored from wreg
   614  000C50  6E28               	movwf	___lbtoft@c,c
   615  000C52  5028               	movf	___lbtoft@c,w,c
   616  000C54  6E1D               	movwf	___ftpack@arg,c
   617  000C56  6A1E               	clrf	___ftpack@arg+1,c
   618  000C58  6A1F               	clrf	___ftpack@arg+2,c
   619  000C5A  0E8E               	movlw	142
   620  000C5C  6E20               	movwf	___ftpack@exp,c
   621  000C5E  0E00               	movlw	0
   622  000C60  6E21               	movwf	___ftpack@sign,c
   623  000C62  ECDF  F001         	call	___ftpack	;wreg free
   624  000C66  C01D  F025         	movff	?___ftpack,?___lbtoft
   625  000C6A  C01E  F026         	movff	?___ftpack+1,?___lbtoft+1
   626  000C6E  C01F  F027         	movff	?___ftpack+2,?___lbtoft+2
   627  000C72  D000               	goto	l549
   628  000C74                     l549:
   629  000C74  0012               	return		;funcret
   630  000C76                     __end_of___lbtoft:
   631                           	opt stack 0
   632                           tblptru	equ	0xFF8
   633                           tblptrh	equ	0xFF7
   634                           tblptrl	equ	0xFF6
   635                           tablat	equ	0xFF5
   636                           postinc0	equ	0xFEE
   637                           postdec1	equ	0xFE5
   638                           fsr1l	equ	0xFE1
   639                           status	equ	0xFD8
   640                           
   641 ;; *************** function ___ftge *****************
   642 ;; Defined at:
   643 ;;		line 4 in file "C:\Program Files (x86)\Microchip\xc8\v1.34\sources\common\ftge.c"
   644 ;; Parameters:    Size  Location     Type
   645 ;;  ff1             3   40[COMRAM] float 
   646 ;;  ff2             3   43[COMRAM] float 
   647 ;; Auto vars:     Size  Location     Type
   648 ;;		None
   649 ;; Return value:  Size  Location     Type
   650 ;;		None               void
   651 ;; Registers used:
   652 ;;		wreg, status,2, status,0
   653 ;; Tracked objects:
   654 ;;		On entry : 0/0
   655 ;;		On exit  : 0/0
   656 ;;		Unchanged: 0/0
   657 ;; Data sizes:     COMRAM   BANK0   BANK1   BANK2   BANK3   BANK4   BANK5
   658 ;;      Params:         6       0       0       0       0       0       0
   659 ;;      Locals:         0       0       0       0       0       0       0
   660 ;;      Temps:          3       0       0       0       0       0       0
   661 ;;      Totals:         9       0       0       0       0       0       0
   662 ;;Total ram usage:        9 bytes
   663 ;; Hardware stack levels used:    1
   664 ;; Hardware stack levels required when called:    3
   665 ;; This function calls:
   666 ;;		Nothing
   667 ;; This function is called by:
   668 ;;		_main
   669 ;; This function uses a non-reentrant model
   670 ;;
   671                           
   672                           	psect	text2
   673  000672                     __ptext2:
   674                           	opt stack 0
   675  000672                     ___ftge:
   676                           	opt stack 27
   677                           
   678                           ;incstack = 0
   679  000672  AE2B               	btfss	___ftge@ff1+2,7,c
   680  000674  D017               	goto	l1762
   681  000676  C029  F02F         	movff	___ftge@ff1,??___ftge
   682  00067A  C02A  F030         	movff	___ftge@ff1+1,??___ftge+1
   683  00067E  C02B  F031         	movff	___ftge@ff1+2,??___ftge+2
   684  000682  1E2F               	comf	??___ftge,f,c
   685  000684  1E30               	comf	??___ftge+1,f,c
   686  000686  1E31               	comf	??___ftge+2,f,c
   687  000688  2A2F               	incf	??___ftge,f,c
   688  00068A  0E00               	movlw	0
   689  00068C  2230               	addwfc	??___ftge+1,f,c
   690  00068E  2231               	addwfc	??___ftge+2,f,c
   691  000690  0E00               	movlw	0
   692  000692  242F               	addwf	??___ftge,w,c
   693  000694  6E29               	movwf	___ftge@ff1,c
   694  000696  0E00               	movlw	0
   695  000698  2030               	addwfc	??___ftge+1,w,c
   696  00069A  6E2A               	movwf	___ftge@ff1+1,c
   697  00069C  0E80               	movlw	128
   698  00069E  2031               	addwfc	??___ftge+2,w,c
   699  0006A0  6E2B               	movwf	___ftge@ff1+2,c
   700  0006A2  D000               	goto	l1762
   701  0006A4                     l1762:
   702  0006A4  AE2E               	btfss	___ftge@ff2+2,7,c
   703  0006A6  D017               	goto	l1766
   704  0006A8  C02C  F02F         	movff	___ftge@ff2,??___ftge
   705  0006AC  C02D  F030         	movff	___ftge@ff2+1,??___ftge+1
   706  0006B0  C02E  F031         	movff	___ftge@ff2+2,??___ftge+2
   707  0006B4  1E2F               	comf	??___ftge,f,c
   708  0006B6  1E30               	comf	??___ftge+1,f,c
   709  0006B8  1E31               	comf	??___ftge+2,f,c
   710  0006BA  2A2F               	incf	??___ftge,f,c
   711  0006BC  0E00               	movlw	0
   712  0006BE  2230               	addwfc	??___ftge+1,f,c
   713  0006C0  2231               	addwfc	??___ftge+2,f,c
   714  0006C2  0E00               	movlw	0
   715  0006C4  242F               	addwf	??___ftge,w,c
   716  0006C6  6E2C               	movwf	___ftge@ff2,c
   717  0006C8  0E00               	movlw	0
   718  0006CA  2030               	addwfc	??___ftge+1,w,c
   719  0006CC  6E2D               	movwf	___ftge@ff2+1,c
   720  0006CE  0E80               	movlw	128
   721  0006D0  2031               	addwfc	??___ftge+2,w,c
   722  0006D2  6E2E               	movwf	___ftge@ff2+2,c
   723  0006D4  D000               	goto	l1766
   724  0006D6                     l1766:
   725  0006D6  0E00               	movlw	0
   726  0006D8  1A29               	xorwf	___ftge@ff1,f,c
   727  0006DA  0E00               	movlw	0
   728  0006DC  1A2A               	xorwf	___ftge@ff1+1,f,c
   729  0006DE  0E80               	movlw	128
   730  0006E0  1A2B               	xorwf	___ftge@ff1+2,f,c
   731  0006E2  0E00               	movlw	0
   732  0006E4  1A2C               	xorwf	___ftge@ff2,f,c
   733  0006E6  0E00               	movlw	0
   734  0006E8  1A2D               	xorwf	___ftge@ff2+1,f,c
   735  0006EA  0E80               	movlw	128
   736  0006EC  1A2E               	xorwf	___ftge@ff2+2,f,c
   737  0006EE  502C               	movf	___ftge@ff2,w,c
   738  0006F0  5C29               	subwf	___ftge@ff1,w,c
   739  0006F2  502D               	movf	___ftge@ff2+1,w,c
   740  0006F4  582A               	subwfb	___ftge@ff1+1,w,c
   741  0006F6  502E               	movf	___ftge@ff2+2,w,c
   742  0006F8  582B               	subwfb	___ftge@ff1+2,w,c
   743  0006FA  B0D8               	btfsc	status,0,c
   744  0006FC  D002               	goto	l1772
   745  0006FE  90D8               	bcf	status,0,c
   746  000700  D002               	goto	l486
   747  000702                     l1772:
   748  000702  80D8               	bsf	status,0,c
   749  000704  D000               	goto	l486
   750  000706                     l486:
   751  000706  0012               	return		;funcret
   752  000708                     __end_of___ftge:
   753                           	opt stack 0
   754                           tblptru	equ	0xFF8
   755                           tblptrh	equ	0xFF7
   756                           tblptrl	equ	0xFF6
   757                           tablat	equ	0xFF5
   758                           postinc0	equ	0xFEE
   759                           postdec1	equ	0xFE5
   760                           fsr1l	equ	0xFE1
   761                           status	equ	0xFD8
   762                           
   763 ;; *************** function _SetUp_ADC *****************
   764 ;; Defined at:
   765 ;;		line 131 in file "main.c"
   766 ;; Parameters:    Size  Location     Type
   767 ;;		None
   768 ;; Auto vars:     Size  Location     Type
   769 ;;		None
   770 ;; Return value:  Size  Location     Type
   771 ;;		None               void
   772 ;; Registers used:
   773 ;;		wreg, status,2
   774 ;; Tracked objects:
   775 ;;		On entry : 0/0
   776 ;;		On exit  : 0/0
   777 ;;		Unchanged: 0/0
   778 ;; Data sizes:     COMRAM   BANK0   BANK1   BANK2   BANK3   BANK4   BANK5
   779 ;;      Params:         0       0       0       0       0       0       0
   780 ;;      Locals:         0       0       0       0       0       0       0
   781 ;;      Temps:          0       0       0       0       0       0       0
   782 ;;      Totals:         0       0       0       0       0       0       0
   783 ;;Total ram usage:        0 bytes
   784 ;; Hardware stack levels used:    1
   785 ;; Hardware stack levels required when called:    3
   786 ;; This function calls:
   787 ;;		Nothing
   788 ;; This function is called by:
   789 ;;		_main
   790 ;; This function uses a non-reentrant model
   791 ;;
   792                           
   793                           	psect	text3
   794  000C9C                     __ptext3:
   795                           	opt stack 0
   796  000C9C                     _SetUp_ADC:
   797                           	opt stack 27
   798                           
   799                           ;main.c: 134: ADCON1bits.PCFG = 0b1110;
   800                           
   801                           ;incstack = 0
   802  000C9C  50C1               	movf	4033,w,c	;volatile
   803  000C9E  0BF0               	andlw	-16
   804  000CA0  090E               	iorlw	14
   805  000CA2  6EC1               	movwf	4033,c	;volatile
   806                           
   807                           ;main.c: 136: ADCON1bits.VCFG = 0b00;
   808  000CA4  0ECF               	movlw	-49
   809  000CA6  16C1               	andwf	4033,f,c	;volatile
   810                           
   811                           ;main.c: 138: ADCON2bits.ADCS = 0b001;
   812  000CA8  50C0               	movf	4032,w,c	;volatile
   813  000CAA  0BF8               	andlw	-8
   814  000CAC  0901               	iorlw	1
   815  000CAE  6EC0               	movwf	4032,c	;volatile
   816                           
   817                           ;main.c: 140: ADCON2bits.ACQT = 0b001;
   818  000CB0  50C0               	movf	4032,w,c	;volatile
   819  000CB2  0BC7               	andlw	-57
   820  000CB4  0908               	iorlw	8
   821  000CB6  6EC0               	movwf	4032,c	;volatile
   822                           
   823                           ;main.c: 142: ADCON2bits.ADFM = 1;
   824  000CB8  8EC0               	bsf	4032,7,c	;volatile
   825                           
   826                           ;main.c: 144: ADCON0bits.ADON = 1;
   827  000CBA  80C2               	bsf	4034,0,c	;volatile
   828  000CBC  D000               	goto	l73
   829  000CBE                     l73:
   830  000CBE  0012               	return		;funcret
   831  000CC0                     __end_of_SetUp_ADC:
   832                           	opt stack 0
   833                           tblptru	equ	0xFF8
   834                           tblptrh	equ	0xFF7
   835                           tblptrl	equ	0xFF6
   836                           tablat	equ	0xFF5
   837                           postinc0	equ	0xFEE
   838                           postdec1	equ	0xFE5
   839                           fsr1l	equ	0xFE1
   840                           status	equ	0xFD8
   841                           
   842 ;; *************** function _SetUp *****************
   843 ;; Defined at:
   844 ;;		line 94 in file "main.c"
   845 ;; Parameters:    Size  Location     Type
   846 ;;		None
   847 ;; Auto vars:     Size  Location     Type
   848 ;;		None
   849 ;; Return value:  Size  Location     Type
   850 ;;		None               void
   851 ;; Registers used:
   852 ;;		wreg, status,2
   853 ;; Tracked objects:
   854 ;;		On entry : 0/0
   855 ;;		On exit  : 0/0
   856 ;;		Unchanged: 0/0
   857 ;; Data sizes:     COMRAM   BANK0   BANK1   BANK2   BANK3   BANK4   BANK5
   858 ;;      Params:         0       0       0       0       0       0       0
   859 ;;      Locals:         0       0       0       0       0       0       0
   860 ;;      Temps:          0       0       0       0       0       0       0
   861 ;;      Totals:         0       0       0       0       0       0       0
   862 ;;Total ram usage:        0 bytes
   863 ;; Hardware stack levels used:    1
   864 ;; Hardware stack levels required when called:    3
   865 ;; This function calls:
   866 ;;		Nothing
   867 ;; This function is called by:
   868 ;;		_main
   869 ;; This function uses a non-reentrant model
   870 ;;
   871                           
   872                           	psect	text4
   873  000CE4                     __ptext4:
   874                           	opt stack 0
   875  000CE4                     _SetUp:
   876                           	opt stack 27
   877                           
   878                           ;main.c: 97: OSCCONbits.IRCF = 0b111;
   879                           
   880                           ;incstack = 0
   881  000CE4  88D3               	bsf	4051,4,c	;volatile
   882  000CE6  8AD3               	bsf	4051,5,c	;volatile
   883  000CE8  8CD3               	bsf	4051,6,c	;volatile
   884                           
   885                           ;main.c: 100: TRISBbits.TRISB0 = 0;
   886  000CEA  9093               	bcf	3987,0,c	;volatile
   887                           
   888                           ;main.c: 101: TRISBbits.TRISB1 = 0;
   889  000CEC  9293               	bcf	3987,1,c	;volatile
   890                           
   891                           ;main.c: 102: TRISBbits.TRISB4 = 1;
   892  000CEE  8893               	bsf	3987,4,c	;volatile
   893                           
   894                           ;main.c: 103: TRISBbits.TRISB5 = 1;
   895  000CF0  8A93               	bsf	3987,5,c	;volatile
   896                           
   897                           ;main.c: 108: TRISD = 0x00;
   898  000CF2  0E00               	movlw	0
   899  000CF4  6E95               	movwf	3989,c	;volatile
   900                           
   901                           ;main.c: 111: TRISCbits.TRISC3 = 0;
   902  000CF6  9694               	bcf	3988,3,c	;volatile
   903                           
   904                           ;main.c: 114: RCONbits.IPEN = 0;
   905  000CF8  9ED0               	bcf	4048,7,c	;volatile
   906                           
   907                           ;main.c: 115: INTCONbits.GIE = 1;
   908  000CFA  8EF2               	bsf	intcon,7,c	;volatile
   909                           
   910                           ;main.c: 116: INTCONbits.RBIE = 1;
   911  000CFC  86F2               	bsf	intcon,3,c	;volatile
   912  000CFE  D000               	goto	l67
   913  000D00                     l67:
   914  000D00  0012               	return		;funcret
   915  000D02                     __end_of_SetUp:
   916                           	opt stack 0
   917                           tblptru	equ	0xFF8
   918                           tblptrh	equ	0xFF7
   919                           tblptrl	equ	0xFF6
   920                           tablat	equ	0xFF5
   921                           intcon	equ	0xFF2
   922                           postinc0	equ	0xFEE
   923                           postdec1	equ	0xFE5
   924                           fsr1l	equ	0xFE1
   925                           status	equ	0xFD8
   926                           
   927 ;; *************** function _PrintTwoDisp *****************
   928 ;; Defined at:
   929 ;;		line 162 in file "main.c"
   930 ;; Parameters:    Size  Location     Type
   931 ;;  Numero          1    wreg     unsigned char 
   932 ;; Auto vars:     Size  Location     Type
   933 ;;  Numero          1   40[COMRAM] unsigned char 
   934 ;;  n               1   39[COMRAM] unsigned char 
   935 ;;  Decenas         1   38[COMRAM] unsigned char 
   936 ;;  Unidades        1   37[COMRAM] unsigned char 
   937 ;; Return value:  Size  Location     Type
   938 ;;		None               void
   939 ;; Registers used:
   940 ;;		wreg, fsr2l, fsr2h, status,2, status,0, prodl, prodh, cstack
   941 ;; Tracked objects:
   942 ;;		On entry : 0/0
   943 ;;		On exit  : 0/0
   944 ;;		Unchanged: 0/0
   945 ;; Data sizes:     COMRAM   BANK0   BANK1   BANK2   BANK3   BANK4   BANK5
   946 ;;      Params:         0       0       0       0       0       0       0
   947 ;;      Locals:         4       0       0       0       0       0       0
   948 ;;      Temps:          1       0       0       0       0       0       0
   949 ;;      Totals:         5       0       0       0       0       0       0
   950 ;;Total ram usage:        5 bytes
   951 ;; Hardware stack levels used:    1
   952 ;; Hardware stack levels required when called:    4
   953 ;; This function calls:
   954 ;;		___awdiv
   955 ;;		___awmod
   956 ;; This function is called by:
   957 ;;		_main
   958 ;; This function uses a non-reentrant model
   959 ;;
   960                           
   961                           	psect	text5
   962  00052A                     __ptext5:
   963                           	opt stack 0
   964  00052A                     _PrintTwoDisp:
   965                           	opt stack 26
   966                           
   967                           ;incstack = 0
   968                           ;PrintTwoDisp@Numero stored from wreg
   969  00052A  6E29               	movwf	PrintTwoDisp@Numero,c
   970                           
   971                           ;main.c: 164: unsigned char Unidades, Decenas = 0;
   972  00052C  0E00               	movlw	0
   973  00052E  6E27               	movwf	PrintTwoDisp@Decenas,c
   974                           
   975                           ;main.c: 166: if(Numero > 9)
   976  000530  0E09               	movlw	9
   977  000532  6429               	cpfsgt	PrintTwoDisp@Numero,c
   978  000534  D017               	goto	l1738
   979                           
   980                           ;main.c: 167: {
   981                           ;main.c: 168: Unidades = Numero%10;
   982  000536  C029  F01D         	movff	PrintTwoDisp@Numero,___awmod@dividend
   983  00053A  6A1E               	clrf	___awmod@dividend+1,c
   984  00053C  0E00               	movlw	0
   985  00053E  6E20               	movwf	___awmod@divisor+1,c
   986  000540  0E0A               	movlw	10
   987  000542  6E1F               	movwf	___awmod@divisor,c
   988  000544  ECA4  F004         	call	___awmod	;wreg free
   989  000548  501D               	movf	?___awmod,w,c
   990  00054A  6E26               	movwf	PrintTwoDisp@Unidades,c
   991                           
   992                           ;main.c: 169: Decenas = Numero/10;
   993  00054C  C029  F01D         	movff	PrintTwoDisp@Numero,___awdiv@dividend
   994  000550  6A1E               	clrf	___awdiv@dividend+1,c
   995  000552  0E00               	movlw	0
   996  000554  6E20               	movwf	___awdiv@divisor+1,c
   997  000556  0E0A               	movlw	10
   998  000558  6E1F               	movwf	___awdiv@divisor,c
   999  00055A  EC84  F003         	call	___awdiv	;wreg free
  1000  00055E  501D               	movf	?___awdiv,w,c
  1001  000560  6E27               	movwf	PrintTwoDisp@Decenas,c
  1002                           
  1003                           ;main.c: 170: }
  1004  000562  D004               	goto	l83
  1005  000564                     l1738:
  1006                           
  1007                           ;main.c: 171: else
  1008                           ;main.c: 172: {
  1009                           ;main.c: 173: Decenas = 0;
  1010  000564  0E00               	movlw	0
  1011  000566  6E27               	movwf	PrintTwoDisp@Decenas,c
  1012                           
  1013                           ;main.c: 174: Unidades = Numero;
  1014  000568  C029  F026         	movff	PrintTwoDisp@Numero,PrintTwoDisp@Unidades
  1015  00056C                     l83:
  1016                           
  1017                           ;main.c: 175: }
  1018                           ;main.c: 178: for(char n = 0; n < 31; n++)
  1019  00056C  0E00               	movlw	0
  1020  00056E  6E28               	movwf	PrintTwoDisp@n,c
  1021  000570                     l1742:
  1022  000570  0E1E               	movlw	30
  1023  000572  6428               	cpfsgt	PrintTwoDisp@n,c
  1024  000574  D001               	goto	l84
  1025  000576  D02A               	goto	l86
  1026  000578                     l84:
  1027                           
  1028                           ;main.c: 179: {
  1029                           ;main.c: 180: PORTBbits.RB0 = 1;
  1030  000578  8081               	bsf	3969,0,c	;volatile
  1031                           
  1032                           ;main.c: 181: PORTBbits.RB1 = 0;
  1033  00057A  9281               	bcf	3969,1,c	;volatile
  1034                           
  1035                           ;main.c: 182: PORTD = Disp7SegCC[Unidades];
  1036  00057C  5026               	movf	PrintTwoDisp@Unidades,w,c
  1037  00057E  0D01               	mullw	1
  1038  000580  0E50               	movlw	low _Disp7SegCC
  1039  000582  24F3               	addwf	prodl,w,c
  1040  000584  6ED9               	movwf	fsr2l,c
  1041  000586  0E00               	movlw	high _Disp7SegCC
  1042  000588  20F4               	addwfc	prodh,w,c
  1043  00058A  6EDA               	movwf	fsr2h,c
  1044  00058C  50DF               	movf	indf2,w,c
  1045  00058E  6E83               	movwf	3971,c	;volatile
  1046                           
  1047                           ;main.c: 183: _delay((unsigned long)((8)*(8000000/4000.0)));
  1048  000590  0E15               	movlw	21
  1049  000592  6E25               	movwf	??_PrintTwoDisp& (0+255),c
  1050  000594  0EC6               	movlw	198
  1051  000596                     u2287:
  1052  000596  2EE8               	decfsz	wreg,f,c
  1053  000598  D7FE               	goto	u2287
  1054  00059A  2E25               	decfsz	??_PrintTwoDisp& (0+255),f,c
  1055  00059C  D7FC               	goto	u2287
  1056  00059E  D000               	nop2	
  1057                           
  1058                           ;main.c: 184: PORTBbits.RB0 = 0;
  1059  0005A0  9081               	bcf	3969,0,c	;volatile
  1060                           
  1061                           ;main.c: 185: PORTBbits.RB1 = 1;
  1062  0005A2  8281               	bsf	3969,1,c	;volatile
  1063                           
  1064                           ;main.c: 186: PORTD = Disp7SegCC[Decenas];
  1065  0005A4  5027               	movf	PrintTwoDisp@Decenas,w,c
  1066  0005A6  0D01               	mullw	1
  1067  0005A8  0E50               	movlw	low _Disp7SegCC
  1068  0005AA  24F3               	addwf	prodl,w,c
  1069  0005AC  6ED9               	movwf	fsr2l,c
  1070  0005AE  0E00               	movlw	high _Disp7SegCC
  1071  0005B0  20F4               	addwfc	prodh,w,c
  1072  0005B2  6EDA               	movwf	fsr2h,c
  1073  0005B4  50DF               	movf	indf2,w,c
  1074  0005B6  6E83               	movwf	3971,c	;volatile
  1075                           
  1076                           ;main.c: 187: _delay((unsigned long)((8)*(8000000/4000.0)));
  1077  0005B8  0E15               	movlw	21
  1078  0005BA  6E25               	movwf	??_PrintTwoDisp& (0+255),c
  1079  0005BC  0EC6               	movlw	198
  1080  0005BE                     u2297:
  1081  0005BE  2EE8               	decfsz	wreg,f,c
  1082  0005C0  D7FE               	goto	u2297
  1083  0005C2  2E25               	decfsz	??_PrintTwoDisp& (0+255),f,c
  1084  0005C4  D7FC               	goto	u2297
  1085  0005C6  D000               	nop2	
  1086  0005C8  2A28               	incf	PrintTwoDisp@n,f,c
  1087  0005CA  D7D2               	goto	l1742
  1088  0005CC                     l86:
  1089  0005CC  0012               	return		;funcret
  1090  0005CE                     __end_of_PrintTwoDisp:
  1091                           	opt stack 0
  1092                           tblptru	equ	0xFF8
  1093                           tblptrh	equ	0xFF7
  1094                           tblptrl	equ	0xFF6
  1095                           tablat	equ	0xFF5
  1096                           prodh	equ	0xFF4
  1097                           prodl	equ	0xFF3
  1098                           intcon	equ	0xFF2
  1099                           postinc0	equ	0xFEE
  1100                           wreg	equ	0xFE8
  1101                           postdec1	equ	0xFE5
  1102                           fsr1l	equ	0xFE1
  1103                           indf2	equ	0xFDF
  1104                           fsr2h	equ	0xFDA
  1105                           fsr2l	equ	0xFD9
  1106                           status	equ	0xFD8
  1107                           
  1108 ;; *************** function ___awmod *****************
  1109 ;; Defined at:
  1110 ;;		line 8 in file "C:\Program Files (x86)\Microchip\xc8\v1.34\sources\common\awmod.c"
  1111 ;; Parameters:    Size  Location     Type
  1112 ;;  dividend        2   28[COMRAM] int 
  1113 ;;  divisor         2   30[COMRAM] int 
  1114 ;; Auto vars:     Size  Location     Type
  1115 ;;  sign            1   33[COMRAM] unsigned char 
  1116 ;;  counter         1   32[COMRAM] unsigned char 
  1117 ;; Return value:  Size  Location     Type
  1118 ;;                  2   28[COMRAM] int 
  1119 ;; Registers used:
  1120 ;;		wreg, status,2, status,0
  1121 ;; Tracked objects:
  1122 ;;		On entry : 0/0
  1123 ;;		On exit  : 0/0
  1124 ;;		Unchanged: 0/0
  1125 ;; Data sizes:     COMRAM   BANK0   BANK1   BANK2   BANK3   BANK4   BANK5
  1126 ;;      Params:         4       0       0       0       0       0       0
  1127 ;;      Locals:         2       0       0       0       0       0       0
  1128 ;;      Temps:          0       0       0       0       0       0       0
  1129 ;;      Totals:         6       0       0       0       0       0       0
  1130 ;;Total ram usage:        6 bytes
  1131 ;; Hardware stack levels used:    1
  1132 ;; Hardware stack levels required when called:    3
  1133 ;; This function calls:
  1134 ;;		Nothing
  1135 ;; This function is called by:
  1136 ;;		_PrintTwoDisp
  1137 ;; This function uses a non-reentrant model
  1138 ;;
  1139                           
  1140                           	psect	text6
  1141  000948                     __ptext6:
  1142                           	opt stack 0
  1143  000948                     ___awmod:
  1144                           	opt stack 26
  1145                           
  1146                           ;incstack = 0
  1147  000948  0E00               	movlw	0
  1148  00094A  6E22               	movwf	___awmod@sign,c
  1149  00094C  AE1E               	btfss	___awmod@dividend+1,7,c
  1150  00094E  D007               	goto	l1614
  1151  000950  6C1D               	negf	___awmod@dividend,c
  1152  000952  1E1E               	comf	___awmod@dividend+1,f,c
  1153  000954  B0D8               	btfsc	status,0,c
  1154  000956  2A1E               	incf	___awmod@dividend+1,f,c
  1155  000958  0E01               	movlw	1
  1156  00095A  6E22               	movwf	___awmod@sign,c
  1157  00095C  D000               	goto	l1614
  1158  00095E                     l1614:
  1159  00095E  AE20               	btfss	___awmod@divisor+1,7,c
  1160  000960  D005               	goto	l1618
  1161  000962  6C1F               	negf	___awmod@divisor,c
  1162  000964  1E20               	comf	___awmod@divisor+1,f,c
  1163  000966  B0D8               	btfsc	status,0,c
  1164  000968  2A20               	incf	___awmod@divisor+1,f,c
  1165  00096A  D000               	goto	l1618
  1166  00096C                     l1618:
  1167  00096C  501F               	movf	___awmod@divisor,w,c
  1168  00096E  1020               	iorwf	___awmod@divisor+1,w,c
  1169  000970  B4D8               	btfsc	status,2,c
  1170  000972  D01D               	goto	l1634
  1171  000974  0E01               	movlw	1
  1172  000976  6E21               	movwf	___awmod@counter,c
  1173  000978  D005               	goto	l1624
  1174  00097A                     l1622:
  1175  00097A  90D8               	bcf	status,0,c
  1176  00097C  361F               	rlcf	___awmod@divisor,f,c
  1177  00097E  3620               	rlcf	___awmod@divisor+1,f,c
  1178  000980  2A21               	incf	___awmod@counter,f,c
  1179  000982  D000               	goto	l1624
  1180  000984                     l1624:
  1181  000984  BE20               	btfsc	___awmod@divisor+1,7,c
  1182  000986  D002               	goto	l1626
  1183  000988  D7F8               	goto	l1622
  1184  00098A  D000               	goto	l1626
  1185  00098C                     l1626:
  1186  00098C  501F               	movf	___awmod@divisor,w,c
  1187  00098E  5C1D               	subwf	___awmod@dividend,w,c
  1188  000990  5020               	movf	___awmod@divisor+1,w,c
  1189  000992  581E               	subwfb	___awmod@dividend+1,w,c
  1190  000994  A0D8               	btfss	status,0,c
  1191  000996  D005               	goto	l1630
  1192  000998  501F               	movf	___awmod@divisor,w,c
  1193  00099A  5E1D               	subwf	___awmod@dividend,f,c
  1194  00099C  5020               	movf	___awmod@divisor+1,w,c
  1195  00099E  5A1E               	subwfb	___awmod@dividend+1,f,c
  1196  0009A0  D000               	goto	l1630
  1197  0009A2                     l1630:
  1198  0009A2  90D8               	bcf	status,0,c
  1199  0009A4  3220               	rrcf	___awmod@divisor+1,f,c
  1200  0009A6  321F               	rrcf	___awmod@divisor,f,c
  1201  0009A8  2E21               	decfsz	___awmod@counter,f,c
  1202  0009AA  D7F0               	goto	l1626
  1203  0009AC  D000               	goto	l1634
  1204  0009AE                     l1634:
  1205  0009AE  5022               	movf	___awmod@sign,w,c
  1206  0009B0  B4D8               	btfsc	status,2,c
  1207  0009B2  D005               	goto	l1638
  1208  0009B4  6C1D               	negf	___awmod@dividend,c
  1209  0009B6  1E1E               	comf	___awmod@dividend+1,f,c
  1210  0009B8  B0D8               	btfsc	status,0,c
  1211  0009BA  2A1E               	incf	___awmod@dividend+1,f,c
  1212  0009BC  D000               	goto	l1638
  1213  0009BE                     l1638:
  1214  0009BE  C01D  F01D         	movff	___awmod@dividend,?___awmod
  1215  0009C2  C01E  F01E         	movff	___awmod@dividend+1,?___awmod+1
  1216  0009C6  D000               	goto	l303
  1217  0009C8                     l303:
  1218  0009C8  0012               	return		;funcret
  1219  0009CA                     __end_of___awmod:
  1220                           	opt stack 0
  1221                           tblptru	equ	0xFF8
  1222                           tblptrh	equ	0xFF7
  1223                           tblptrl	equ	0xFF6
  1224                           tablat	equ	0xFF5
  1225                           prodh	equ	0xFF4
  1226                           prodl	equ	0xFF3
  1227                           intcon	equ	0xFF2
  1228                           postinc0	equ	0xFEE
  1229                           wreg	equ	0xFE8
  1230                           postdec1	equ	0xFE5
  1231                           fsr1l	equ	0xFE1
  1232                           indf2	equ	0xFDF
  1233                           fsr2h	equ	0xFDA
  1234                           fsr2l	equ	0xFD9
  1235                           status	equ	0xFD8
  1236                           
  1237 ;; *************** function ___awdiv *****************
  1238 ;; Defined at:
  1239 ;;		line 8 in file "C:\Program Files (x86)\Microchip\xc8\v1.34\sources\common\awdiv.c"
  1240 ;; Parameters:    Size  Location     Type
  1241 ;;  dividend        2   28[COMRAM] int 
  1242 ;;  divisor         2   30[COMRAM] int 
  1243 ;; Auto vars:     Size  Location     Type
  1244 ;;  quotient        2   34[COMRAM] int 
  1245 ;;  sign            1   33[COMRAM] unsigned char 
  1246 ;;  counter         1   32[COMRAM] unsigned char 
  1247 ;; Return value:  Size  Location     Type
  1248 ;;                  2   28[COMRAM] int 
  1249 ;; Registers used:
  1250 ;;		wreg, status,2, status,0
  1251 ;; Tracked objects:
  1252 ;;		On entry : 0/0
  1253 ;;		On exit  : 0/0
  1254 ;;		Unchanged: 0/0
  1255 ;; Data sizes:     COMRAM   BANK0   BANK1   BANK2   BANK3   BANK4   BANK5
  1256 ;;      Params:         4       0       0       0       0       0       0
  1257 ;;      Locals:         4       0       0       0       0       0       0
  1258 ;;      Temps:          0       0       0       0       0       0       0
  1259 ;;      Totals:         8       0       0       0       0       0       0
  1260 ;;Total ram usage:        8 bytes
  1261 ;; Hardware stack levels used:    1
  1262 ;; Hardware stack levels required when called:    3
  1263 ;; This function calls:
  1264 ;;		Nothing
  1265 ;; This function is called by:
  1266 ;;		_PrintTwoDisp
  1267 ;; This function uses a non-reentrant model
  1268 ;;
  1269                           
  1270                           	psect	text7
  1271  000708                     __ptext7:
  1272                           	opt stack 0
  1273  000708                     ___awdiv:
  1274                           	opt stack 26
  1275                           
  1276                           ;incstack = 0
  1277  000708  0E00               	movlw	0
  1278  00070A  6E22               	movwf	___awdiv@sign,c
  1279  00070C  AE20               	btfss	___awdiv@divisor+1,7,c
  1280  00070E  D007               	goto	l1570
  1281  000710  6C1F               	negf	___awdiv@divisor,c
  1282  000712  1E20               	comf	___awdiv@divisor+1,f,c
  1283  000714  B0D8               	btfsc	status,0,c
  1284  000716  2A20               	incf	___awdiv@divisor+1,f,c
  1285  000718  0E01               	movlw	1
  1286  00071A  6E22               	movwf	___awdiv@sign,c
  1287  00071C  D000               	goto	l1570
  1288  00071E                     l1570:
  1289  00071E  AE1E               	btfss	___awdiv@dividend+1,7,c
  1290  000720  D007               	goto	l1576
  1291  000722  6C1D               	negf	___awdiv@dividend,c
  1292  000724  1E1E               	comf	___awdiv@dividend+1,f,c
  1293  000726  B0D8               	btfsc	status,0,c
  1294  000728  2A1E               	incf	___awdiv@dividend+1,f,c
  1295  00072A  0E01               	movlw	1
  1296  00072C  1A22               	xorwf	___awdiv@sign,f,c
  1297  00072E  D000               	goto	l1576
  1298  000730                     l1576:
  1299  000730  0E00               	movlw	0
  1300  000732  6E24               	movwf	___awdiv@quotient+1,c
  1301  000734  0E00               	movlw	0
  1302  000736  6E23               	movwf	___awdiv@quotient,c
  1303  000738  501F               	movf	___awdiv@divisor,w,c
  1304  00073A  1020               	iorwf	___awdiv@divisor+1,w,c
  1305  00073C  B4D8               	btfsc	status,2,c
  1306  00073E  D021               	goto	l1598
  1307  000740  0E01               	movlw	1
  1308  000742  6E21               	movwf	___awdiv@counter,c
  1309  000744  D005               	goto	l1584
  1310  000746                     l1582:
  1311  000746  90D8               	bcf	status,0,c
  1312  000748  361F               	rlcf	___awdiv@divisor,f,c
  1313  00074A  3620               	rlcf	___awdiv@divisor+1,f,c
  1314  00074C  2A21               	incf	___awdiv@counter,f,c
  1315  00074E  D000               	goto	l1584
  1316  000750                     l1584:
  1317  000750  BE20               	btfsc	___awdiv@divisor+1,7,c
  1318  000752  D002               	goto	l1586
  1319  000754  D7F8               	goto	l1582
  1320  000756  D000               	goto	l1586
  1321  000758                     l1586:
  1322  000758  90D8               	bcf	status,0,c
  1323  00075A  3623               	rlcf	___awdiv@quotient,f,c
  1324  00075C  3624               	rlcf	___awdiv@quotient+1,f,c
  1325  00075E  501F               	movf	___awdiv@divisor,w,c
  1326  000760  5C1D               	subwf	___awdiv@dividend,w,c
  1327  000762  5020               	movf	___awdiv@divisor+1,w,c
  1328  000764  581E               	subwfb	___awdiv@dividend+1,w,c
  1329  000766  A0D8               	btfss	status,0,c
  1330  000768  D006               	goto	l1594
  1331  00076A  501F               	movf	___awdiv@divisor,w,c
  1332  00076C  5E1D               	subwf	___awdiv@dividend,f,c
  1333  00076E  5020               	movf	___awdiv@divisor+1,w,c
  1334  000770  5A1E               	subwfb	___awdiv@dividend+1,f,c
  1335  000772  8023               	bsf	___awdiv@quotient,0,c
  1336  000774  D000               	goto	l1594
  1337  000776                     l1594:
  1338  000776  90D8               	bcf	status,0,c
  1339  000778  3220               	rrcf	___awdiv@divisor+1,f,c
  1340  00077A  321F               	rrcf	___awdiv@divisor,f,c
  1341  00077C  2E21               	decfsz	___awdiv@counter,f,c
  1342  00077E  D7EC               	goto	l1586
  1343  000780  D000               	goto	l1598
  1344  000782                     l1598:
  1345  000782  5022               	movf	___awdiv@sign,w,c
  1346  000784  B4D8               	btfsc	status,2,c
  1347  000786  D005               	goto	l1602
  1348  000788  6C23               	negf	___awdiv@quotient,c
  1349  00078A  1E24               	comf	___awdiv@quotient+1,f,c
  1350  00078C  B0D8               	btfsc	status,0,c
  1351  00078E  2A24               	incf	___awdiv@quotient+1,f,c
  1352  000790  D000               	goto	l1602
  1353  000792                     l1602:
  1354  000792  C023  F01D         	movff	___awdiv@quotient,?___awdiv
  1355  000796  C024  F01E         	movff	___awdiv@quotient+1,?___awdiv+1
  1356  00079A  D000               	goto	l290
  1357  00079C                     l290:
  1358  00079C  0012               	return		;funcret
  1359  00079E                     __end_of___awdiv:
  1360                           	opt stack 0
  1361                           tblptru	equ	0xFF8
  1362                           tblptrh	equ	0xFF7
  1363                           tblptrl	equ	0xFF6
  1364                           tablat	equ	0xFF5
  1365                           prodh	equ	0xFF4
  1366                           prodl	equ	0xFF3
  1367                           intcon	equ	0xFF2
  1368                           postinc0	equ	0xFEE
  1369                           wreg	equ	0xFE8
  1370                           postdec1	equ	0xFE5
  1371                           fsr1l	equ	0xFE1
  1372                           indf2	equ	0xFDF
  1373                           fsr2h	equ	0xFDA
  1374                           fsr2l	equ	0xFD9
  1375                           status	equ	0xFD8
  1376                           
  1377 ;; *************** function _MedirTemperatura *****************
  1378 ;; Defined at:
  1379 ;;		line 122 in file "main.c"
  1380 ;; Parameters:    Size  Location     Type
  1381 ;;		None
  1382 ;; Auto vars:     Size  Location     Type
  1383 ;;		None
  1384 ;; Return value:  Size  Location     Type
  1385 ;;		None               void
  1386 ;; Registers used:
  1387 ;;		wreg, fsr2l, fsr2h, status,2, status,0, cstack
  1388 ;; Tracked objects:
  1389 ;;		On entry : 0/0
  1390 ;;		On exit  : 0/0
  1391 ;;		Unchanged: 0/0
  1392 ;; Data sizes:     COMRAM   BANK0   BANK1   BANK2   BANK3   BANK4   BANK5
  1393 ;;      Params:         0       0       0       0       0       0       0
  1394 ;;      Locals:         0       0       0       0       0       0       0
  1395 ;;      Temps:          0       0       0       0       0       0       0
  1396 ;;      Totals:         0       0       0       0       0       0       0
  1397 ;;Total ram usage:        0 bytes
  1398 ;; Hardware stack levels used:    1
  1399 ;; Hardware stack levels required when called:    7
  1400 ;; This function calls:
  1401 ;;		_GetADC
  1402 ;;		___ftmul
  1403 ;;		___lwtoft
  1404 ;;		_round
  1405 ;; This function is called by:
  1406 ;;		_main
  1407 ;; This function uses a non-reentrant model
  1408 ;;
  1409                           
  1410                           	psect	text8
  1411  000B42                     __ptext8:
  1412                           	opt stack 0
  1413  000B42                     _MedirTemperatura:
  1414                           	opt stack 23
  1415                           
  1416                           ;main.c: 124: ConversionADC = GetADC(0);
  1417                           
  1418                           ;incstack = 0
  1419  000B42  0E00               	movlw	0
  1420  000B44  ECFD  F005         	call	_GetADC
  1421  000B48  C01D  F05E         	movff	?_GetADC,_ConversionADC
  1422  000B4C  C01E  F05F         	movff	?_GetADC+1,_ConversionADC+1
  1423                           
  1424                           ;main.c: 125: TempMedida = ((float)ConversionADC) * 0.48828;
  1425  000B50  C05E  F025         	movff	_ConversionADC,___lwtoft@c
  1426  000B54  C05F  F026         	movff	_ConversionADC+1,___lwtoft@c+1
  1427  000B58  EC3B  F006         	call	___lwtoft	;wreg free
  1428  000B5C  C025  F028         	movff	?___lwtoft,___ftmul@f1
  1429  000B60  C026  F029         	movff	?___lwtoft+1,___ftmul@f1+1
  1430  000B64  C027  F02A         	movff	?___lwtoft+2,___ftmul@f1+2
  1431  000B68  0E00               	movlw	0
  1432  000B6A  6E2B               	movwf	___ftmul@f2,c
  1433  000B6C  0EFA               	movlw	250
  1434  000B6E  6E2C               	movwf	___ftmul@f2+1,c
  1435  000B70  0E3E               	movlw	62
  1436  000B72  6E2D               	movwf	___ftmul@f2+2,c
  1437  000B74  ECF0  F000         	call	___ftmul	;wreg free
  1438  000B78  C028  F05B         	movff	?___ftmul,_TempMedida
  1439  000B7C  C029  F05C         	movff	?___ftmul+1,_TempMedida+1
  1440  000B80  C02A  F05D         	movff	?___ftmul+2,_TempMedida+2
  1441                           
  1442                           ;main.c: 126: TempMedida = round(TempMedida);
  1443  000B84  C05B  F04D         	movff	_TempMedida,round@x
  1444  000B88  C05C  F04E         	movff	_TempMedida+1,round@x+1
  1445  000B8C  C05D  F04F         	movff	_TempMedida+2,round@x+2
  1446  000B90  EC1A  F004         	call	_round	;wreg free
  1447  000B94  C04D  F05B         	movff	?_round,_TempMedida
  1448  000B98  C04E  F05C         	movff	?_round+1,_TempMedida+1
  1449  000B9C  C04F  F05D         	movff	?_round+2,_TempMedida+2
  1450  000BA0  D000               	goto	l70
  1451  000BA2                     l70:
  1452  000BA2  0012               	return		;funcret
  1453  000BA4                     __end_of_MedirTemperatura:
  1454                           	opt stack 0
  1455                           tblptru	equ	0xFF8
  1456                           tblptrh	equ	0xFF7
  1457                           tblptrl	equ	0xFF6
  1458                           tablat	equ	0xFF5
  1459                           prodh	equ	0xFF4
  1460                           prodl	equ	0xFF3
  1461                           intcon	equ	0xFF2
  1462                           postinc0	equ	0xFEE
  1463                           wreg	equ	0xFE8
  1464                           postdec1	equ	0xFE5
  1465                           fsr1l	equ	0xFE1
  1466                           indf2	equ	0xFDF
  1467                           fsr2h	equ	0xFDA
  1468                           fsr2l	equ	0xFD9
  1469                           status	equ	0xFD8
  1470                           
  1471 ;; *************** function _round *****************
  1472 ;; Defined at:
  1473 ;;		line 6 in file "C:\Program Files (x86)\Microchip\xc8\v1.34\sources\common\round.c"
  1474 ;; Parameters:    Size  Location     Type
  1475 ;;  x               3   76[COMRAM] int 
  1476 ;; Auto vars:     Size  Location     Type
  1477 ;;  f               3    0[BANK0 ] int 
  1478 ;; Return value:  Size  Location     Type
  1479 ;;                  3   76[COMRAM] int 
  1480 ;; Registers used:
  1481 ;;		wreg, fsr2l, fsr2h, status,2, status,0, cstack
  1482 ;; Tracked objects:
  1483 ;;		On entry : 0/0
  1484 ;;		On exit  : 0/0
  1485 ;;		Unchanged: 0/0
  1486 ;; Data sizes:     COMRAM   BANK0   BANK1   BANK2   BANK3   BANK4   BANK5
  1487 ;;      Params:         3       0       0       0       0       0       0
  1488 ;;      Locals:         0       3       0       0       0       0       0
  1489 ;;      Temps:          0       0       0       0       0       0       0
  1490 ;;      Totals:         3       3       0       0       0       0       0
  1491 ;;Total ram usage:        6 bytes
  1492 ;; Hardware stack levels used:    1
  1493 ;; Hardware stack levels required when called:    6
  1494 ;; This function calls:
  1495 ;;		___ftadd
  1496 ;;		___ftneg
  1497 ;;		_trunc
  1498 ;; This function is called by:
  1499 ;;		_MedirTemperatura
  1500 ;; This function uses a non-reentrant model
  1501 ;;
  1502                           
  1503                           	psect	text9
  1504  000834                     __ptext9:
  1505                           	opt stack 0
  1506  000834                     _round:
  1507                           	opt stack 23
  1508                           
  1509                           ;incstack = 0
  1510  000834  C04D  F036         	movff	round@x,trunc@x
  1511  000838  C04E  F037         	movff	round@x+1,trunc@x+1
  1512  00083C  C04F  F038         	movff	round@x+2,trunc@x+2
  1513  000840  EC62  F004         	call	_trunc	;wreg free
  1514  000844  C036  F03E         	movff	?_trunc,___ftneg@f1
  1515  000848  C037  F03F         	movff	?_trunc+1,___ftneg@f1+1
  1516  00084C  C038  F040         	movff	?_trunc+2,___ftneg@f1+2
  1517  000850  EC60  F006         	call	___ftneg	;wreg free
  1518  000854  C03E  F041         	movff	?___ftneg,___ftadd@f1
  1519  000858  C03F  F042         	movff	?___ftneg+1,___ftadd@f1+1
  1520  00085C  C040  F043         	movff	?___ftneg+2,___ftadd@f1+2
  1521  000860  C04D  F044         	movff	round@x,___ftadd@f2
  1522  000864  C04E  F045         	movff	round@x+1,___ftadd@f2+1
  1523  000868  C04F  F046         	movff	round@x+2,___ftadd@f2+2
  1524  00086C  EC0E  F000         	call	___ftadd	;wreg free
  1525  000870  C041  F080         	movff	?___ftadd,round@f
  1526  000874  C042  F081         	movff	?___ftadd+1,round@f+1
  1527  000878  C043  F082         	movff	?___ftadd+2,round@f+2
  1528  00087C  C04D  F041         	movff	round@x,___ftadd@f1
  1529  000880  C04E  F042         	movff	round@x+1,___ftadd@f1+1
  1530  000884  C04F  F043         	movff	round@x+2,___ftadd@f1+2
  1531  000888  C080  F044         	movff	round@f,___ftadd@f2
  1532  00088C  C081  F045         	movff	round@f+1,___ftadd@f2+1
  1533  000890  C082  F046         	movff	round@f+2,___ftadd@f2+2
  1534  000894  EC0E  F000         	call	___ftadd	;wreg free
  1535  000898  C041  F04D         	movff	?___ftadd,round@x
  1536  00089C  C042  F04E         	movff	?___ftadd+1,round@x+1
  1537  0008A0  C043  F04F         	movff	?___ftadd+2,round@x+2
  1538  0008A4  C04D  F036         	movff	round@x,trunc@x
  1539  0008A8  C04E  F037         	movff	round@x+1,trunc@x+1
  1540  0008AC  C04F  F038         	movff	round@x+2,trunc@x+2
  1541  0008B0  EC62  F004         	call	_trunc	;wreg free
  1542  0008B4  C036  F04D         	movff	?_trunc,?_round
  1543  0008B8  C037  F04E         	movff	?_trunc+1,?_round+1
  1544  0008BC  C038  F04F         	movff	?_trunc+2,?_round+2
  1545  0008C0  D000               	goto	l647
  1546  0008C2                     l647:
  1547  0008C2  0012               	return		;funcret
  1548  0008C4                     __end_of_round:
  1549                           	opt stack 0
  1550                           tblptru	equ	0xFF8
  1551                           tblptrh	equ	0xFF7
  1552                           tblptrl	equ	0xFF6
  1553                           tablat	equ	0xFF5
  1554                           prodh	equ	0xFF4
  1555                           prodl	equ	0xFF3
  1556                           intcon	equ	0xFF2
  1557                           postinc0	equ	0xFEE
  1558                           wreg	equ	0xFE8
  1559                           postdec1	equ	0xFE5
  1560                           fsr1l	equ	0xFE1
  1561                           indf2	equ	0xFDF
  1562                           fsr2h	equ	0xFDA
  1563                           fsr2l	equ	0xFD9
  1564                           status	equ	0xFD8
  1565                           
  1566 ;; *************** function _trunc *****************
  1567 ;; Defined at:
  1568 ;;		line 13 in file "C:\Program Files (x86)\Microchip\xc8\v1.34\sources\common\trunc.c"
  1569 ;; Parameters:    Size  Location     Type
  1570 ;;  x               3   53[COMRAM] int 
  1571 ;; Auto vars:     Size  Location     Type
  1572 ;;  i               3   56[COMRAM] int 
  1573 ;;  expon           2   59[COMRAM] int 
  1574 ;; Return value:  Size  Location     Type
  1575 ;;                  3   53[COMRAM] int 
  1576 ;; Registers used:
  1577 ;;		wreg, fsr2l, fsr2h, status,2, status,0, cstack
  1578 ;; Tracked objects:
  1579 ;;		On entry : 0/0
  1580 ;;		On exit  : 0/0
  1581 ;;		Unchanged: 0/0
  1582 ;; Data sizes:     COMRAM   BANK0   BANK1   BANK2   BANK3   BANK4   BANK5
  1583 ;;      Params:         3       0       0       0       0       0       0
  1584 ;;      Locals:         5       0       0       0       0       0       0
  1585 ;;      Temps:          0       0       0       0       0       0       0
  1586 ;;      Totals:         8       0       0       0       0       0       0
  1587 ;;Total ram usage:        8 bytes
  1588 ;; Hardware stack levels used:    1
  1589 ;; Hardware stack levels required when called:    5
  1590 ;; This function calls:
  1591 ;;		___altoft
  1592 ;;		___fttol
  1593 ;;		_frexp
  1594 ;; This function is called by:
  1595 ;;		_round
  1596 ;; This function uses a non-reentrant model
  1597 ;;
  1598                           
  1599                           	psect	text10
  1600  0008C4                     __ptext10:
  1601                           	opt stack 0
  1602  0008C4                     _trunc:
  1603                           	opt stack 23
  1604                           
  1605                           ;incstack = 0
  1606  0008C4  C036  F01D         	movff	trunc@x,frexp@value
  1607  0008C8  C037  F01E         	movff	trunc@x+1,frexp@value+1
  1608  0008CC  C038  F01F         	movff	trunc@x+2,frexp@value+2
  1609  0008D0  0E3C               	movlw	low trunc@expon
  1610  0008D2  6E20               	movwf	frexp@eptr,c
  1611  0008D4  0E00               	movlw	high trunc@expon
  1612  0008D6  6E21               	movwf	frexp@eptr+1,c
  1613  0008D8  EC64  F005         	call	_frexp	;wreg free
  1614  0008DC  AE3D               	btfss	trunc@expon+1,7,c
  1615  0008DE  D007               	goto	l2028
  1616  0008E0  0E00               	movlw	0
  1617  0008E2  6E36               	movwf	?_trunc,c
  1618  0008E4  0E00               	movlw	0
  1619  0008E6  6E37               	movwf	?_trunc+1,c
  1620  0008E8  0E00               	movlw	0
  1621  0008EA  6E38               	movwf	?_trunc+2,c
  1622  0008EC  D02C               	goto	l653
  1623  0008EE                     l2028:
  1624  0008EE  503D               	movf	trunc@expon+1,w,c
  1625  0008F0  E104               	bnz	u2200
  1626  0008F2  0E15               	movlw	21
  1627  0008F4  5C3C               	subwf	trunc@expon,w,c
  1628  0008F6  A0D8               	btfss	status,0,c
  1629  0008F8  D007               	goto	l2032
  1630  0008FA                     u2200:
  1631  0008FA  C036  F036         	movff	trunc@x,?_trunc
  1632  0008FE  C037  F037         	movff	trunc@x+1,?_trunc+1
  1633  000902  C038  F038         	movff	trunc@x+2,?_trunc+2
  1634  000906  D01F               	goto	l653
  1635  000908                     l2032:
  1636  000908  C036  F01D         	movff	trunc@x,___fttol@f1
  1637  00090C  C037  F01E         	movff	trunc@x+1,___fttol@f1+1
  1638  000910  C038  F01F         	movff	trunc@x+2,___fttol@f1+2
  1639  000914  EC6C  F001         	call	___fttol	;wreg free
  1640  000918  C01D  F02C         	movff	?___fttol,___altoft@c
  1641  00091C  C01E  F02D         	movff	?___fttol+1,___altoft@c+1
  1642  000920  C01F  F02E         	movff	?___fttol+2,___altoft@c+2
  1643  000924  C020  F02F         	movff	?___fttol+3,___altoft@c+3
  1644  000928  EC26  F005         	call	___altoft	;wreg free
  1645  00092C  C02C  F039         	movff	?___altoft,trunc@i
  1646  000930  C02D  F03A         	movff	?___altoft+1,trunc@i+1
  1647  000934  C02E  F03B         	movff	?___altoft+2,trunc@i+2
  1648  000938  C039  F036         	movff	trunc@i,?_trunc
  1649  00093C  C03A  F037         	movff	trunc@i+1,?_trunc+1
  1650  000940  C03B  F038         	movff	trunc@i+2,?_trunc+2
  1651  000944  D000               	goto	l653
  1652  000946                     l653:
  1653  000946  0012               	return		;funcret
  1654  000948                     __end_of_trunc:
  1655                           	opt stack 0
  1656                           tblptru	equ	0xFF8
  1657                           tblptrh	equ	0xFF7
  1658                           tblptrl	equ	0xFF6
  1659                           tablat	equ	0xFF5
  1660                           prodh	equ	0xFF4
  1661                           prodl	equ	0xFF3
  1662                           intcon	equ	0xFF2
  1663                           postinc0	equ	0xFEE
  1664                           wreg	equ	0xFE8
  1665                           postdec1	equ	0xFE5
  1666                           fsr1l	equ	0xFE1
  1667                           indf2	equ	0xFDF
  1668                           fsr2h	equ	0xFDA
  1669                           fsr2l	equ	0xFD9
  1670                           status	equ	0xFD8
  1671                           
  1672 ;; *************** function _frexp *****************
  1673 ;; Defined at:
  1674 ;;		line 254 in file "C:\Program Files (x86)\Microchip\xc8\v1.34\sources\common\frexp.c"
  1675 ;; Parameters:    Size  Location     Type
  1676 ;;  value           3   28[COMRAM] int 
  1677 ;;  eptr            2   31[COMRAM] PTR int 
  1678 ;;		 -> trunc@expon(2), 
  1679 ;; Auto vars:     Size  Location     Type
  1680 ;;		None
  1681 ;; Return value:  Size  Location     Type
  1682 ;;                  3   28[COMRAM] PTR int 
  1683 ;; Registers used:
  1684 ;;		wreg, fsr2l, fsr2h, status,2, status,0
  1685 ;; Tracked objects:
  1686 ;;		On entry : 0/0
  1687 ;;		On exit  : 0/0
  1688 ;;		Unchanged: 0/0
  1689 ;; Data sizes:     COMRAM   BANK0   BANK1   BANK2   BANK3   BANK4   BANK5
  1690 ;;      Params:         5       0       0       0       0       0       0
  1691 ;;      Locals:         0       0       0       0       0       0       0
  1692 ;;      Temps:          2       0       0       0       0       0       0
  1693 ;;      Totals:         7       0       0       0       0       0       0
  1694 ;;Total ram usage:        7 bytes
  1695 ;; Hardware stack levels used:    1
  1696 ;; Hardware stack levels required when called:    3
  1697 ;; This function calls:
  1698 ;;		Nothing
  1699 ;; This function is called by:
  1700 ;;		_trunc
  1701 ;; This function uses a non-reentrant model
  1702 ;;
  1703                           
  1704                           	psect	text11
  1705  000AC8                     __ptext11:
  1706                           	opt stack 0
  1707  000AC8                     _frexp:
  1708                           	opt stack 24
  1709                           
  1710                           ;incstack = 0
  1711  000AC8  501D               	movf	frexp@value,w,c
  1712  000ACA  101E               	iorwf	frexp@value+1,w,c
  1713  000ACC  101F               	iorwf	frexp@value+2,w,c
  1714  000ACE  A4D8               	btfss	status,2,c
  1715  000AD0  D009               	goto	l1936
  1716  000AD2  C020  FFD9         	movff	frexp@eptr,fsr2l
  1717  000AD6  C021  FFDA         	movff	frexp@eptr+1,fsr2h
  1718  000ADA  0E00               	movlw	0
  1719  000ADC  6EDE               	movwf	postinc2,c
  1720  000ADE  0E00               	movlw	0
  1721  000AE0  6EDD               	movwf	postdec2,c
  1722                           
  1723                           ;	Return value of _frexp is never used
  1724  000AE2  D02E               	goto	l660
  1725  000AE4                     l1936:
  1726  000AE4  501F               	movf	frexp@value+2,w,c
  1727  000AE6  0B7F               	andlw	127
  1728  000AE8  6E22               	movwf	??_frexp& (0+255),c
  1729  000AEA  6A23               	clrf	(??_frexp+1)& (0+255),c
  1730  000AEC  90D8               	bcf	status,0,c
  1731  000AEE  3622               	rlcf	??_frexp,f,c
  1732  000AF0  3623               	rlcf	??_frexp+1,f,c
  1733  000AF2  C020  FFD9         	movff	frexp@eptr,fsr2l
  1734  000AF6  C021  FFDA         	movff	frexp@eptr+1,fsr2h
  1735  000AFA  C022  FFDE         	movff	??_frexp,postinc2
  1736  000AFE  C023  FFDD         	movff	??_frexp+1,postdec2
  1737  000B02  AE1E               	btfss	frexp@value+1,7,c
  1738  000B04  D003               	goto	u1960
  1739  000B06  6A22               	clrf	??_frexp& (0+255),c
  1740  000B08  2A22               	incf	??_frexp& (0+255),f,c
  1741  000B0A  D001               	goto	u1968
  1742  000B0C                     u1960:
  1743  000B0C  6A22               	clrf	??_frexp& (0+255),c
  1744  000B0E                     u1968:
  1745  000B0E  5022               	movf	??_frexp,w,c
  1746  000B10  C020  FFD9         	movff	frexp@eptr,fsr2l
  1747  000B14  C021  FFDA         	movff	frexp@eptr+1,fsr2h
  1748  000B18  12DE               	iorwf	postinc2,f,c
  1749  000B1A  0E00               	movlw	0
  1750  000B1C  12DD               	iorwf	postdec2,f,c
  1751  000B1E  C020  FFD9         	movff	frexp@eptr,fsr2l
  1752  000B22  C021  FFDA         	movff	frexp@eptr+1,fsr2h
  1753  000B26  0E82               	movlw	130
  1754  000B28  26DE               	addwf	postinc2,f,c
  1755  000B2A  0EFF               	movlw	255
  1756  000B2C  22DD               	addwfc	postdec2,f,c
  1757  000B2E  801F               	bsf	frexp@value+2,0,c
  1758  000B30  821F               	bsf	frexp@value+2,1,c
  1759  000B32  841F               	bsf	frexp@value+2,2,c
  1760  000B34  861F               	bsf	frexp@value+2,3,c
  1761  000B36  881F               	bsf	frexp@value+2,4,c
  1762  000B38  8A1F               	bsf	frexp@value+2,5,c
  1763  000B3A  9C1F               	bcf	frexp@value+2,6,c
  1764  000B3C  9E1E               	bcf	frexp@value+1,7,c
  1765  000B3E  D000               	goto	l660
  1766  000B40                     l660:
  1767  000B40  0012               	return		;funcret
  1768  000B42                     __end_of_frexp:
  1769                           	opt stack 0
  1770                           tblptru	equ	0xFF8
  1771                           tblptrh	equ	0xFF7
  1772                           tblptrl	equ	0xFF6
  1773                           tablat	equ	0xFF5
  1774                           prodh	equ	0xFF4
  1775                           prodl	equ	0xFF3
  1776                           intcon	equ	0xFF2
  1777                           postinc0	equ	0xFEE
  1778                           wreg	equ	0xFE8
  1779                           postdec1	equ	0xFE5
  1780                           fsr1l	equ	0xFE1
  1781                           indf2	equ	0xFDF
  1782                           postinc2	equ	0xFDE
  1783                           postdec2	equ	0xFDD
  1784                           fsr2h	equ	0xFDA
  1785                           fsr2l	equ	0xFD9
  1786                           status	equ	0xFD8
  1787                           
  1788 ;; *************** function ___fttol *****************
  1789 ;; Defined at:
  1790 ;;		line 44 in file "C:\Program Files (x86)\Microchip\xc8\v1.34\sources\common\fttol.c"
  1791 ;; Parameters:    Size  Location     Type
  1792 ;;  f1              3   28[COMRAM] float 
  1793 ;; Auto vars:     Size  Location     Type
  1794 ;;  lval            4   38[COMRAM] unsigned long 
  1795 ;;  exp1            1   42[COMRAM] unsigned char 
  1796 ;;  sign1           1   37[COMRAM] unsigned char 
  1797 ;; Return value:  Size  Location     Type
  1798 ;;                  4   28[COMRAM] long 
  1799 ;; Registers used:
  1800 ;;		wreg, status,2, status,0
  1801 ;; Tracked objects:
  1802 ;;		On entry : 0/0
  1803 ;;		On exit  : 0/0
  1804 ;;		Unchanged: 0/0
  1805 ;; Data sizes:     COMRAM   BANK0   BANK1   BANK2   BANK3   BANK4   BANK5
  1806 ;;      Params:         4       0       0       0       0       0       0
  1807 ;;      Locals:         6       0       0       0       0       0       0
  1808 ;;      Temps:          5       0       0       0       0       0       0
  1809 ;;      Totals:        15       0       0       0       0       0       0
  1810 ;;Total ram usage:       15 bytes
  1811 ;; Hardware stack levels used:    1
  1812 ;; Hardware stack levels required when called:    3
  1813 ;; This function calls:
  1814 ;;		Nothing
  1815 ;; This function is called by:
  1816 ;;		_main
  1817 ;;		_trunc
  1818 ;; This function uses a non-reentrant model
  1819 ;;
  1820                           
  1821                           	psect	text12
  1822  0002D8                     __ptext12:
  1823                           	opt stack 0
  1824  0002D8                     ___fttol:
  1825                           	opt stack 27
  1826                           
  1827                           ;incstack = 0
  1828  0002D8  C01F  F021         	movff	___fttol@f1+2,??___fttol
  1829  0002DC  6A22               	clrf	(??___fttol+1)& (0+255),c
  1830  0002DE  6A23               	clrf	(??___fttol+2)& (0+255),c
  1831  0002E0  341E               	rlcf	___fttol@f1+1,w,c
  1832  0002E2  3621               	rlcf	??___fttol& (0+255),f,c
  1833  0002E4  E301               	bnc	u1871
  1834  0002E6  8022               	bsf	(??___fttol+1)& (0+255),0,c
  1835  0002E8                     u1871:
  1836  0002E8  5021               	movf	??___fttol,w,c
  1837  0002EA  6E2B               	movwf	___fttol@exp1,c
  1838  0002EC  502B               	movf	___fttol@exp1,w,c
  1839  0002EE  A4D8               	btfss	status,2,c
  1840  0002F0  D002               	goto	l1890
  1841  0002F2  D039               	goto	l1914
  1842  0002F4  D063               	goto	l513
  1843  0002F6                     l1890:
  1844  0002F6  0E17               	movlw	23
  1845  0002F8  6E21               	movwf	??___fttol& (0+255),c
  1846  0002FA  C01D  F022         	movff	___fttol@f1,??___fttol+1
  1847  0002FE  C01E  F023         	movff	___fttol@f1+1,??___fttol+2
  1848  000302  C01F  F024         	movff	___fttol@f1+2,??___fttol+3
  1849  000306  2821               	incf	??___fttol,w,c
  1850  000308  6E25               	movwf	(??___fttol+4)& (0+255),c
  1851  00030A  D004               	goto	u1890
  1852  00030C                     u1895:
  1853  00030C  90D8               	bcf	status,0,c
  1854  00030E  3224               	rrcf	??___fttol+3,f,c
  1855  000310  3223               	rrcf	??___fttol+2,f,c
  1856  000312  3222               	rrcf	??___fttol+1,f,c
  1857  000314                     u1890:
  1858  000314  2E25               	decfsz	(??___fttol+4)& (0+255),f,c
  1859  000316  D7FA               	goto	u1895
  1860  000318  5022               	movf	??___fttol+1,w,c
  1861  00031A  6E26               	movwf	___fttol@sign1,c
  1862  00031C  8E1E               	bsf	___fttol@f1+1,7,c
  1863  00031E  0EFF               	movlw	255
  1864  000320  161D               	andwf	___fttol@f1,f,c
  1865  000322  0EFF               	movlw	255
  1866  000324  161E               	andwf	___fttol@f1+1,f,c
  1867  000326  0E00               	movlw	0
  1868  000328  161F               	andwf	___fttol@f1+2,f,c
  1869  00032A  501D               	movf	___fttol@f1,w,c
  1870  00032C  6E27               	movwf	___fttol@lval,c
  1871  00032E  501E               	movf	___fttol@f1+1,w,c
  1872  000330  6E28               	movwf	___fttol@lval+1,c
  1873  000332  501F               	movf	___fttol@f1+2,w,c
  1874  000334  6E29               	movwf	___fttol@lval+2,c
  1875  000336  6A2A               	clrf	___fttol@lval+3,c
  1876  000338  0E8E               	movlw	142
  1877  00033A  5E2B               	subwf	___fttol@exp1,f,c
  1878  00033C  AE2B               	btfss	___fttol@exp1,7,c
  1879  00033E  D010               	goto	l1912
  1880  000340  502B               	movf	___fttol@exp1,w,c
  1881  000342  0A80               	xorlw	128
  1882  000344  0F8F               	addlw	143
  1883  000346  B0D8               	btfsc	status,0,c
  1884  000348  D003               	goto	l1908
  1885  00034A  D00D               	goto	l1914
  1886  00034C  D037               	goto	l513
  1887  00034E  D000               	goto	l1908
  1888  000350                     l1908:
  1889  000350  90D8               	bcf	status,0,c
  1890  000352  322A               	rrcf	___fttol@lval+3,f,c
  1891  000354  3229               	rrcf	___fttol@lval+2,f,c
  1892  000356  3228               	rrcf	___fttol@lval+1,f,c
  1893  000358  3227               	rrcf	___fttol@lval,f,c
  1894  00035A  3E2B               	incfsz	___fttol@exp1,f,c
  1895  00035C  D7F9               	goto	l1908
  1896  00035E  D019               	goto	l1922
  1897  000360                     l1912:
  1898  000360  0E17               	movlw	23
  1899  000362  642B               	cpfsgt	___fttol@exp1,c
  1900  000364  D011               	goto	l1920
  1901  000366                     l1914:
  1902  000366  0E00               	movlw	0
  1903  000368  6E1D               	movwf	?___fttol,c
  1904  00036A  0E00               	movlw	0
  1905  00036C  6E1E               	movwf	?___fttol+1,c
  1906  00036E  0E00               	movlw	0
  1907  000370  6E1F               	movwf	?___fttol+2,c
  1908  000372  0E00               	movlw	0
  1909  000374  6E20               	movwf	?___fttol+3,c
  1910  000376  D022               	goto	l513
  1911  000378  D007               	goto	l1920
  1912  00037A                     l1918:
  1913  00037A  90D8               	bcf	status,0,c
  1914  00037C  3627               	rlcf	___fttol@lval,f,c
  1915  00037E  3628               	rlcf	___fttol@lval+1,f,c
  1916  000380  3629               	rlcf	___fttol@lval+2,f,c
  1917  000382  362A               	rlcf	___fttol@lval+3,f,c
  1918  000384  062B               	decf	___fttol@exp1,f,c
  1919  000386  D000               	goto	l1920
  1920  000388                     l1920:
  1921  000388  502B               	movf	___fttol@exp1,w,c
  1922  00038A  B4D8               	btfsc	status,2,c
  1923  00038C  D002               	goto	l1922
  1924  00038E  D7F5               	goto	l1918
  1925  000390  D000               	goto	l1922
  1926  000392                     l1922:
  1927  000392  5026               	movf	___fttol@sign1,w,c
  1928  000394  B4D8               	btfsc	status,2,c
  1929  000396  D009               	goto	l1926
  1930  000398  1E2A               	comf	___fttol@lval+3,f,c
  1931  00039A  1E29               	comf	___fttol@lval+2,f,c
  1932  00039C  1E28               	comf	___fttol@lval+1,f,c
  1933  00039E  6C27               	negf	___fttol@lval,c
  1934  0003A0  0E00               	movlw	0
  1935  0003A2  2228               	addwfc	___fttol@lval+1,f,c
  1936  0003A4  2229               	addwfc	___fttol@lval+2,f,c
  1937  0003A6  222A               	addwfc	___fttol@lval+3,f,c
  1938  0003A8  D000               	goto	l1926
  1939  0003AA                     l1926:
  1940  0003AA  C027  F01D         	movff	___fttol@lval,?___fttol
  1941  0003AE  C028  F01E         	movff	___fttol@lval+1,?___fttol+1
  1942  0003B2  C029  F01F         	movff	___fttol@lval+2,?___fttol+2
  1943  0003B6  C02A  F020         	movff	___fttol@lval+3,?___fttol+3
  1944  0003BA  D000               	goto	l513
  1945  0003BC                     l513:
  1946  0003BC  0012               	return		;funcret
  1947  0003BE                     __end_of___fttol:
  1948                           	opt stack 0
  1949                           tblptru	equ	0xFF8
  1950                           tblptrh	equ	0xFF7
  1951                           tblptrl	equ	0xFF6
  1952                           tablat	equ	0xFF5
  1953                           prodh	equ	0xFF4
  1954                           prodl	equ	0xFF3
  1955                           intcon	equ	0xFF2
  1956                           postinc0	equ	0xFEE
  1957                           wreg	equ	0xFE8
  1958                           postdec1	equ	0xFE5
  1959                           fsr1l	equ	0xFE1
  1960                           indf2	equ	0xFDF
  1961                           postinc2	equ	0xFDE
  1962                           postdec2	equ	0xFDD
  1963                           fsr2h	equ	0xFDA
  1964                           fsr2l	equ	0xFD9
  1965                           status	equ	0xFD8
  1966                           
  1967 ;; *************** function ___altoft *****************
  1968 ;; Defined at:
  1969 ;;		line 42 in file "C:\Program Files (x86)\Microchip\xc8\v1.34\sources\common\altoft.c"
  1970 ;; Parameters:    Size  Location     Type
  1971 ;;  c               4   43[COMRAM] long 
  1972 ;; Auto vars:     Size  Location     Type
  1973 ;;  sign            1   52[COMRAM] unsigned char 
  1974 ;;  exp             1   51[COMRAM] unsigned char 
  1975 ;; Return value:  Size  Location     Type
  1976 ;;                  3   43[COMRAM] float 
  1977 ;; Registers used:
  1978 ;;		wreg, status,2, status,0, cstack
  1979 ;; Tracked objects:
  1980 ;;		On entry : 0/0
  1981 ;;		On exit  : 0/0
  1982 ;;		Unchanged: 0/0
  1983 ;; Data sizes:     COMRAM   BANK0   BANK1   BANK2   BANK3   BANK4   BANK5
  1984 ;;      Params:         4       0       0       0       0       0       0
  1985 ;;      Locals:         2       0       0       0       0       0       0
  1986 ;;      Temps:          4       0       0       0       0       0       0
  1987 ;;      Totals:        10       0       0       0       0       0       0
  1988 ;;Total ram usage:       10 bytes
  1989 ;; Hardware stack levels used:    1
  1990 ;; Hardware stack levels required when called:    4
  1991 ;; This function calls:
  1992 ;;		___ftpack
  1993 ;; This function is called by:
  1994 ;;		_trunc
  1995 ;; This function uses a non-reentrant model
  1996 ;;
  1997                           
  1998                           	psect	text13
  1999  000A4C                     __ptext13:
  2000                           	opt stack 0
  2001  000A4C                     ___altoft:
  2002                           	opt stack 23
  2003                           
  2004                           ;incstack = 0
  2005  000A4C  0E00               	movlw	0
  2006  000A4E  6E35               	movwf	___altoft@sign,c
  2007  000A50  0E8E               	movlw	142
  2008  000A52  6E34               	movwf	___altoft@exp,c
  2009  000A54  AE2F               	btfss	___altoft@c+3,7,c
  2010  000A56  D012               	goto	l1878
  2011  000A58  1E2F               	comf	___altoft@c+3,f,c
  2012  000A5A  1E2E               	comf	___altoft@c+2,f,c
  2013  000A5C  1E2D               	comf	___altoft@c+1,f,c
  2014  000A5E  6C2C               	negf	___altoft@c,c
  2015  000A60  0E00               	movlw	0
  2016  000A62  222D               	addwfc	___altoft@c+1,f,c
  2017  000A64  222E               	addwfc	___altoft@c+2,f,c
  2018  000A66  222F               	addwfc	___altoft@c+3,f,c
  2019  000A68  0E01               	movlw	1
  2020  000A6A  6E35               	movwf	___altoft@sign,c
  2021  000A6C  D007               	goto	l1878
  2022  000A6E                     l1876:
  2023  000A6E  90D8               	bcf	status,0,c
  2024  000A70  322F               	rrcf	___altoft@c+3,f,c
  2025  000A72  322E               	rrcf	___altoft@c+2,f,c
  2026  000A74  322D               	rrcf	___altoft@c+1,f,c
  2027  000A76  322C               	rrcf	___altoft@c,f,c
  2028  000A78  2A34               	incf	___altoft@exp,f,c
  2029  000A7A  D000               	goto	l1878
  2030  000A7C                     l1878:
  2031  000A7C  0E00               	movlw	0
  2032  000A7E  142C               	andwf	___altoft@c,w,c
  2033  000A80  6E30               	movwf	??___altoft& (0+255),c
  2034  000A82  0E00               	movlw	0
  2035  000A84  142D               	andwf	___altoft@c+1,w,c
  2036  000A86  6E31               	movwf	(??___altoft+1)& (0+255),c
  2037  000A88  0E00               	movlw	0
  2038  000A8A  142E               	andwf	___altoft@c+2,w,c
  2039  000A8C  6E32               	movwf	(??___altoft+2)& (0+255),c
  2040  000A8E  0EFF               	movlw	255
  2041  000A90  142F               	andwf	___altoft@c+3,w,c
  2042  000A92  6E33               	movwf	(??___altoft+3)& (0+255),c
  2043  000A94  5030               	movf	??___altoft,w,c
  2044  000A96  1031               	iorwf	??___altoft+1,w,c
  2045  000A98  1032               	iorwf	??___altoft+2,w,c
  2046  000A9A  1033               	iorwf	??___altoft+3,w,c
  2047  000A9C  A4D8               	btfss	status,2,c
  2048  000A9E  D7E7               	goto	l1876
  2049  000AA0  C02C  F01D         	movff	___altoft@c,___ftpack@arg
  2050  000AA4  C02D  F01E         	movff	___altoft@c+1,___ftpack@arg+1
  2051  000AA8  C02E  F01F         	movff	___altoft@c+2,___ftpack@arg+2
  2052  000AAC  C034  F020         	movff	___altoft@exp,___ftpack@exp
  2053  000AB0  C035  F021         	movff	___altoft@sign,___ftpack@sign
  2054  000AB4  ECDF  F001         	call	___ftpack	;wreg free
  2055  000AB8  C01D  F02C         	movff	?___ftpack,?___altoft
  2056  000ABC  C01E  F02D         	movff	?___ftpack+1,?___altoft+1
  2057  000AC0  C01F  F02E         	movff	?___ftpack+2,?___altoft+2
  2058  000AC4  D000               	goto	l194
  2059  000AC6                     l194:
  2060  000AC6  0012               	return		;funcret
  2061  000AC8                     __end_of___altoft:
  2062                           	opt stack 0
  2063                           tblptru	equ	0xFF8
  2064                           tblptrh	equ	0xFF7
  2065                           tblptrl	equ	0xFF6
  2066                           tablat	equ	0xFF5
  2067                           prodh	equ	0xFF4
  2068                           prodl	equ	0xFF3
  2069                           intcon	equ	0xFF2
  2070                           postinc0	equ	0xFEE
  2071                           wreg	equ	0xFE8
  2072                           postdec1	equ	0xFE5
  2073                           fsr1l	equ	0xFE1
  2074                           indf2	equ	0xFDF
  2075                           postinc2	equ	0xFDE
  2076                           postdec2	equ	0xFDD
  2077                           fsr2h	equ	0xFDA
  2078                           fsr2l	equ	0xFD9
  2079                           status	equ	0xFD8
  2080                           
  2081 ;; *************** function ___ftneg *****************
  2082 ;; Defined at:
  2083 ;;		line 15 in file "C:\Program Files (x86)\Microchip\xc8\v1.34\sources\common\ftneg.c"
  2084 ;; Parameters:    Size  Location     Type
  2085 ;;  f1              3   61[COMRAM] float 
  2086 ;; Auto vars:     Size  Location     Type
  2087 ;;		None
  2088 ;; Return value:  Size  Location     Type
  2089 ;;                  3   61[COMRAM] float 
  2090 ;; Registers used:
  2091 ;;		wreg, status,2, status,0
  2092 ;; Tracked objects:
  2093 ;;		On entry : 0/0
  2094 ;;		On exit  : 0/0
  2095 ;;		Unchanged: 0/0
  2096 ;; Data sizes:     COMRAM   BANK0   BANK1   BANK2   BANK3   BANK4   BANK5
  2097 ;;      Params:         3       0       0       0       0       0       0
  2098 ;;      Locals:         0       0       0       0       0       0       0
  2099 ;;      Temps:          0       0       0       0       0       0       0
  2100 ;;      Totals:         3       0       0       0       0       0       0
  2101 ;;Total ram usage:        3 bytes
  2102 ;; Hardware stack levels used:    1
  2103 ;; Hardware stack levels required when called:    3
  2104 ;; This function calls:
  2105 ;;		Nothing
  2106 ;; This function is called by:
  2107 ;;		_round
  2108 ;; This function uses a non-reentrant model
  2109 ;;
  2110                           
  2111                           	psect	text14
  2112  000CC0                     __ptext14:
  2113                           	opt stack 0
  2114  000CC0                     ___ftneg:
  2115                           	opt stack 25
  2116                           
  2117                           ;incstack = 0
  2118  000CC0  503E               	movf	___ftneg@f1,w,c
  2119  000CC2  103F               	iorwf	___ftneg@f1+1,w,c
  2120  000CC4  1040               	iorwf	___ftneg@f1+2,w,c
  2121  000CC6  B4D8               	btfsc	status,2,c
  2122  000CC8  D006               	goto	l502
  2123  000CCA  0E00               	movlw	0
  2124  000CCC  1A3E               	xorwf	___ftneg@f1,f,c
  2125  000CCE  0E00               	movlw	0
  2126  000CD0  1A3F               	xorwf	___ftneg@f1+1,f,c
  2127  000CD2  0E80               	movlw	128
  2128  000CD4  1A40               	xorwf	___ftneg@f1+2,f,c
  2129  000CD6                     l502:
  2130  000CD6  C03E  F03E         	movff	___ftneg@f1,?___ftneg
  2131  000CDA  C03F  F03F         	movff	___ftneg@f1+1,?___ftneg+1
  2132  000CDE  C040  F040         	movff	___ftneg@f1+2,?___ftneg+2
  2133  000CE2  0012               	return		;funcret
  2134  000CE4                     __end_of___ftneg:
  2135                           	opt stack 0
  2136                           tblptru	equ	0xFF8
  2137                           tblptrh	equ	0xFF7
  2138                           tblptrl	equ	0xFF6
  2139                           tablat	equ	0xFF5
  2140                           prodh	equ	0xFF4
  2141                           prodl	equ	0xFF3
  2142                           intcon	equ	0xFF2
  2143                           postinc0	equ	0xFEE
  2144                           wreg	equ	0xFE8
  2145                           postdec1	equ	0xFE5
  2146                           fsr1l	equ	0xFE1
  2147                           indf2	equ	0xFDF
  2148                           postinc2	equ	0xFDE
  2149                           postdec2	equ	0xFDD
  2150                           fsr2h	equ	0xFDA
  2151                           fsr2l	equ	0xFD9
  2152                           status	equ	0xFD8
  2153                           
  2154 ;; *************** function ___ftadd *****************
  2155 ;; Defined at:
  2156 ;;		line 86 in file "C:\Program Files (x86)\Microchip\xc8\v1.34\sources\common\ftadd.c"
  2157 ;; Parameters:    Size  Location     Type
  2158 ;;  f1              3   64[COMRAM] float 
  2159 ;;  f2              3   67[COMRAM] float 
  2160 ;; Auto vars:     Size  Location     Type
  2161 ;;  exp1            1   75[COMRAM] unsigned char 
  2162 ;;  exp2            1   74[COMRAM] unsigned char 
  2163 ;;  sign            1   73[COMRAM] unsigned char 
  2164 ;; Return value:  Size  Location     Type
  2165 ;;                  3   64[COMRAM] float 
  2166 ;; Registers used:
  2167 ;;		wreg, status,2, status,0, cstack
  2168 ;; Tracked objects:
  2169 ;;		On entry : 0/0
  2170 ;;		On exit  : 0/0
  2171 ;;		Unchanged: 0/0
  2172 ;; Data sizes:     COMRAM   BANK0   BANK1   BANK2   BANK3   BANK4   BANK5
  2173 ;;      Params:         6       0       0       0       0       0       0
  2174 ;;      Locals:         3       0       0       0       0       0       0
  2175 ;;      Temps:          3       0       0       0       0       0       0
  2176 ;;      Totals:        12       0       0       0       0       0       0
  2177 ;;Total ram usage:       12 bytes
  2178 ;; Hardware stack levels used:    1
  2179 ;; Hardware stack levels required when called:    4
  2180 ;; This function calls:
  2181 ;;		___ftpack
  2182 ;; This function is called by:
  2183 ;;		_round
  2184 ;; This function uses a non-reentrant model
  2185 ;;
  2186                           
  2187                           	psect	text15
  2188  00001C                     __ptext15:
  2189                           	opt stack 0
  2190  00001C                     ___ftadd:
  2191                           	opt stack 24
  2192                           
  2193                           ;incstack = 0
  2194  00001C  C043  F047         	movff	___ftadd@f1+2,??___ftadd
  2195  000020  6A48               	clrf	(??___ftadd+1)& (0+255),c
  2196  000022  6A49               	clrf	(??___ftadd+2)& (0+255),c
  2197  000024  3442               	rlcf	___ftadd@f1+1,w,c
  2198  000026  3647               	rlcf	??___ftadd& (0+255),f,c
  2199  000028  E301               	bnc	u1971
  2200  00002A  8048               	bsf	(??___ftadd+1)& (0+255),0,c
  2201  00002C                     u1971:
  2202  00002C  5047               	movf	??___ftadd,w,c
  2203  00002E  6E4C               	movwf	___ftadd@exp1,c
  2204  000030  C046  F047         	movff	___ftadd@f2+2,??___ftadd
  2205  000034  6A48               	clrf	(??___ftadd+1)& (0+255),c
  2206  000036  6A49               	clrf	(??___ftadd+2)& (0+255),c
  2207  000038  3445               	rlcf	___ftadd@f2+1,w,c
  2208  00003A  3647               	rlcf	??___ftadd& (0+255),f,c
  2209  00003C  E301               	bnc	u1981
  2210  00003E  8048               	bsf	(??___ftadd+1)& (0+255),0,c
  2211  000040                     u1981:
  2212  000040  5047               	movf	??___ftadd,w,c
  2213  000042  6E4B               	movwf	___ftadd@exp2,c
  2214  000044  504C               	movf	___ftadd@exp1,w,c
  2215  000046  B4D8               	btfsc	status,2,c
  2216  000048  D00B               	goto	l445
  2217  00004A  504B               	movf	___ftadd@exp2,w,c
  2218  00004C  5C4C               	subwf	___ftadd@exp1,w,c
  2219  00004E  B0D8               	btfsc	status,0,c
  2220  000050  D00E               	goto	l1954
  2221  000052  504C               	movf	___ftadd@exp1,w,c
  2222  000054  0800               	sublw	0
  2223  000056  244B               	addwf	___ftadd@exp2,w,c
  2224  000058  6E47               	movwf	??___ftadd& (0+255),c
  2225  00005A  0E18               	movlw	24
  2226  00005C  6447               	cpfsgt	??___ftadd,c
  2227  00005E  D007               	goto	l1954
  2228  000060                     l445:
  2229  000060  C044  F041         	movff	___ftadd@f2,?___ftadd
  2230  000064  C045  F042         	movff	___ftadd@f2+1,?___ftadd+1
  2231  000068  C046  F043         	movff	___ftadd@f2+2,?___ftadd+2
  2232  00006C  D0B8               	goto	l446
  2233  00006E                     l1954:
  2234  00006E  504B               	movf	___ftadd@exp2,w,c
  2235  000070  B4D8               	btfsc	status,2,c
  2236  000072  D00B               	goto	l449
  2237  000074  504C               	movf	___ftadd@exp1,w,c
  2238  000076  5C4B               	subwf	___ftadd@exp2,w,c
  2239  000078  B0D8               	btfsc	status,0,c
  2240  00007A  D00E               	goto	l1960
  2241  00007C  504B               	movf	___ftadd@exp2,w,c
  2242  00007E  0800               	sublw	0
  2243  000080  244C               	addwf	___ftadd@exp1,w,c
  2244  000082  6E47               	movwf	??___ftadd& (0+255),c
  2245  000084  0E18               	movlw	24
  2246  000086  6447               	cpfsgt	??___ftadd,c
  2247  000088  D007               	goto	l1960
  2248  00008A                     l449:
  2249  00008A  C041  F041         	movff	___ftadd@f1,?___ftadd
  2250  00008E  C042  F042         	movff	___ftadd@f1+1,?___ftadd+1
  2251  000092  C043  F043         	movff	___ftadd@f1+2,?___ftadd+2
  2252  000096  D0A3               	goto	l446
  2253  000098                     l1960:
  2254  000098  0E06               	movlw	6
  2255  00009A  6E4A               	movwf	___ftadd@sign,c
  2256  00009C  AE43               	btfss	___ftadd@f1+2,7,c
  2257  00009E  D002               	goto	l1966
  2258  0000A0  8E4A               	bsf	___ftadd@sign,7,c
  2259  0000A2  D000               	goto	l1966
  2260  0000A4                     l1966:
  2261  0000A4  BE46               	btfsc	___ftadd@f2+2,7,c
  2262  0000A6  8C4A               	bsf	___ftadd@sign,6,c
  2263  0000A8  8E42               	bsf	___ftadd@f1+1,7,c
  2264  0000AA  0EFF               	movlw	255
  2265  0000AC  1641               	andwf	___ftadd@f1,f,c
  2266  0000AE  0EFF               	movlw	255
  2267  0000B0  1642               	andwf	___ftadd@f1+1,f,c
  2268  0000B2  0E00               	movlw	0
  2269  0000B4  1643               	andwf	___ftadd@f1+2,f,c
  2270  0000B6  8E45               	bsf	___ftadd@f2+1,7,c
  2271  0000B8  0EFF               	movlw	255
  2272  0000BA  1644               	andwf	___ftadd@f2,f,c
  2273  0000BC  0EFF               	movlw	255
  2274  0000BE  1645               	andwf	___ftadd@f2+1,f,c
  2275  0000C0  0E00               	movlw	0
  2276  0000C2  1646               	andwf	___ftadd@f2+2,f,c
  2277  0000C4  504B               	movf	___ftadd@exp2,w,c
  2278  0000C6  5C4C               	subwf	___ftadd@exp1,w,c
  2279  0000C8  B0D8               	btfsc	status,0,c
  2280  0000CA  D01E               	goto	l1986
  2281  0000CC                     l1976:
  2282  0000CC  90D8               	bcf	status,0,c
  2283  0000CE  3644               	rlcf	___ftadd@f2,f,c
  2284  0000D0  3645               	rlcf	___ftadd@f2+1,f,c
  2285  0000D2  3646               	rlcf	___ftadd@f2+2,f,c
  2286  0000D4  064B               	decf	___ftadd@exp2,f,c
  2287  0000D6  504C               	movf	___ftadd@exp1,w,c
  2288  0000D8  184B               	xorwf	___ftadd@exp2,w,c
  2289  0000DA  B4D8               	btfsc	status,2,c
  2290  0000DC  D00F               	goto	l1984
  2291  0000DE  064A               	decf	___ftadd@sign,f,c
  2292  0000E0  C04A  F047         	movff	___ftadd@sign,??___ftadd
  2293  0000E4  0E07               	movlw	7
  2294  0000E6  1647               	andwf	??___ftadd,f,c
  2295  0000E8  B4D8               	btfsc	status,2,c
  2296  0000EA  D008               	goto	l1984
  2297  0000EC  D7EF               	goto	l1976
  2298  0000EE  D006               	goto	l1984
  2299  0000F0                     l1982:
  2300  0000F0  90D8               	bcf	status,0,c
  2301  0000F2  3243               	rrcf	___ftadd@f1+2,f,c
  2302  0000F4  3242               	rrcf	___ftadd@f1+1,f,c
  2303  0000F6  3241               	rrcf	___ftadd@f1,f,c
  2304  0000F8  2A4C               	incf	___ftadd@exp1,f,c
  2305  0000FA  D000               	goto	l1984
  2306  0000FC                     l1984:
  2307  0000FC  504B               	movf	___ftadd@exp2,w,c
  2308  0000FE  184C               	xorwf	___ftadd@exp1,w,c
  2309  000100  B4D8               	btfsc	status,2,c
  2310  000102  D024               	goto	l460
  2311  000104  D7F5               	goto	l1982
  2312  000106  D022               	goto	l460
  2313  000108                     l1986:
  2314  000108  504C               	movf	___ftadd@exp1,w,c
  2315  00010A  5C4B               	subwf	___ftadd@exp2,w,c
  2316  00010C  B0D8               	btfsc	status,0,c
  2317  00010E  D01E               	goto	l460
  2318  000110                     l1988:
  2319  000110  90D8               	bcf	status,0,c
  2320  000112  3641               	rlcf	___ftadd@f1,f,c
  2321  000114  3642               	rlcf	___ftadd@f1+1,f,c
  2322  000116  3643               	rlcf	___ftadd@f1+2,f,c
  2323  000118  064C               	decf	___ftadd@exp1,f,c
  2324  00011A  504C               	movf	___ftadd@exp1,w,c
  2325  00011C  184B               	xorwf	___ftadd@exp2,w,c
  2326  00011E  B4D8               	btfsc	status,2,c
  2327  000120  D00F               	goto	l1996
  2328  000122  064A               	decf	___ftadd@sign,f,c
  2329  000124  C04A  F047         	movff	___ftadd@sign,??___ftadd
  2330  000128  0E07               	movlw	7
  2331  00012A  1647               	andwf	??___ftadd,f,c
  2332  00012C  B4D8               	btfsc	status,2,c
  2333  00012E  D008               	goto	l1996
  2334  000130  D7EF               	goto	l1988
  2335  000132  D006               	goto	l1996
  2336  000134                     l1994:
  2337  000134  90D8               	bcf	status,0,c
  2338  000136  3246               	rrcf	___ftadd@f2+2,f,c
  2339  000138  3245               	rrcf	___ftadd@f2+1,f,c
  2340  00013A  3244               	rrcf	___ftadd@f2,f,c
  2341  00013C  2A4B               	incf	___ftadd@exp2,f,c
  2342  00013E  D000               	goto	l1996
  2343  000140                     l1996:
  2344  000140  504B               	movf	___ftadd@exp2,w,c
  2345  000142  184C               	xorwf	___ftadd@exp1,w,c
  2346  000144  B4D8               	btfsc	status,2,c
  2347  000146  D002               	goto	l460
  2348  000148  D7F5               	goto	l1994
  2349  00014A  D000               	goto	l460
  2350  00014C                     l460:
  2351  00014C  AE4A               	btfss	___ftadd@sign,7,c
  2352  00014E  D00C               	goto	l469
  2353  000150  0EFF               	movlw	255
  2354  000152  1A41               	xorwf	___ftadd@f1,f,c
  2355  000154  0EFF               	movlw	255
  2356  000156  1A42               	xorwf	___ftadd@f1+1,f,c
  2357  000158  0EFF               	movlw	255
  2358  00015A  1A43               	xorwf	___ftadd@f1+2,f,c
  2359  00015C  0E01               	movlw	1
  2360  00015E  2641               	addwf	___ftadd@f1,f,c
  2361  000160  0E00               	movlw	0
  2362  000162  2242               	addwfc	___ftadd@f1+1,f,c
  2363  000164  0E00               	movlw	0
  2364  000166  2243               	addwfc	___ftadd@f1+2,f,c
  2365  000168                     l469:
  2366  000168  AC4A               	btfss	___ftadd@sign,6,c
  2367  00016A  D00D               	goto	l2002
  2368  00016C  0EFF               	movlw	255
  2369  00016E  1A44               	xorwf	___ftadd@f2,f,c
  2370  000170  0EFF               	movlw	255
  2371  000172  1A45               	xorwf	___ftadd@f2+1,f,c
  2372  000174  0EFF               	movlw	255
  2373  000176  1A46               	xorwf	___ftadd@f2+2,f,c
  2374  000178  0E01               	movlw	1
  2375  00017A  2644               	addwf	___ftadd@f2,f,c
  2376  00017C  0E00               	movlw	0
  2377  00017E  2245               	addwfc	___ftadd@f2+1,f,c
  2378  000180  0E00               	movlw	0
  2379  000182  2246               	addwfc	___ftadd@f2+2,f,c
  2380  000184  D000               	goto	l2002
  2381  000186                     l2002:
  2382  000186  0E00               	movlw	0
  2383  000188  6E4A               	movwf	___ftadd@sign,c
  2384  00018A  5041               	movf	___ftadd@f1,w,c
  2385  00018C  2644               	addwf	___ftadd@f2,f,c
  2386  00018E  5042               	movf	___ftadd@f1+1,w,c
  2387  000190  2245               	addwfc	___ftadd@f2+1,f,c
  2388  000192  5043               	movf	___ftadd@f1+2,w,c
  2389  000194  2246               	addwfc	___ftadd@f2+2,f,c
  2390  000196  AE46               	btfss	___ftadd@f2+2,7,c
  2391  000198  D00F               	goto	l2012
  2392  00019A  0EFF               	movlw	255
  2393  00019C  1A44               	xorwf	___ftadd@f2,f,c
  2394  00019E  0EFF               	movlw	255
  2395  0001A0  1A45               	xorwf	___ftadd@f2+1,f,c
  2396  0001A2  0EFF               	movlw	255
  2397  0001A4  1A46               	xorwf	___ftadd@f2+2,f,c
  2398  0001A6  0E01               	movlw	1
  2399  0001A8  2644               	addwf	___ftadd@f2,f,c
  2400  0001AA  0E00               	movlw	0
  2401  0001AC  2245               	addwfc	___ftadd@f2+1,f,c
  2402  0001AE  0E00               	movlw	0
  2403  0001B0  2246               	addwfc	___ftadd@f2+2,f,c
  2404  0001B2  0E01               	movlw	1
  2405  0001B4  6E4A               	movwf	___ftadd@sign,c
  2406  0001B6  D000               	goto	l2012
  2407  0001B8                     l2012:
  2408  0001B8  C044  F01D         	movff	___ftadd@f2,___ftpack@arg
  2409  0001BC  C045  F01E         	movff	___ftadd@f2+1,___ftpack@arg+1
  2410  0001C0  C046  F01F         	movff	___ftadd@f2+2,___ftpack@arg+2
  2411  0001C4  C04C  F020         	movff	___ftadd@exp1,___ftpack@exp
  2412  0001C8  C04A  F021         	movff	___ftadd@sign,___ftpack@sign
  2413  0001CC  ECDF  F001         	call	___ftpack	;wreg free
  2414  0001D0  C01D  F041         	movff	?___ftpack,?___ftadd
  2415  0001D4  C01E  F042         	movff	?___ftpack+1,?___ftadd+1
  2416  0001D8  C01F  F043         	movff	?___ftpack+2,?___ftadd+2
  2417  0001DC  D000               	goto	l446
  2418  0001DE                     l446:
  2419  0001DE  0012               	return		;funcret
  2420  0001E0                     __end_of___ftadd:
  2421                           	opt stack 0
  2422                           tblptru	equ	0xFF8
  2423                           tblptrh	equ	0xFF7
  2424                           tblptrl	equ	0xFF6
  2425                           tablat	equ	0xFF5
  2426                           prodh	equ	0xFF4
  2427                           prodl	equ	0xFF3
  2428                           intcon	equ	0xFF2
  2429                           postinc0	equ	0xFEE
  2430                           wreg	equ	0xFE8
  2431                           postdec1	equ	0xFE5
  2432                           fsr1l	equ	0xFE1
  2433                           indf2	equ	0xFDF
  2434                           postinc2	equ	0xFDE
  2435                           postdec2	equ	0xFDD
  2436                           fsr2h	equ	0xFDA
  2437                           fsr2l	equ	0xFD9
  2438                           status	equ	0xFD8
  2439                           
  2440 ;; *************** function ___lwtoft *****************
  2441 ;; Defined at:
  2442 ;;		line 28 in file "C:\Program Files (x86)\Microchip\xc8\v1.34\sources\common\lwtoft.c"
  2443 ;; Parameters:    Size  Location     Type
  2444 ;;  c               2   36[COMRAM] unsigned int 
  2445 ;; Auto vars:     Size  Location     Type
  2446 ;;		None
  2447 ;; Return value:  Size  Location     Type
  2448 ;;                  3   36[COMRAM] float 
  2449 ;; Registers used:
  2450 ;;		wreg, status,2, status,0, cstack
  2451 ;; Tracked objects:
  2452 ;;		On entry : 0/0
  2453 ;;		On exit  : 0/0
  2454 ;;		Unchanged: 0/0
  2455 ;; Data sizes:     COMRAM   BANK0   BANK1   BANK2   BANK3   BANK4   BANK5
  2456 ;;      Params:         3       0       0       0       0       0       0
  2457 ;;      Locals:         0       0       0       0       0       0       0
  2458 ;;      Temps:          0       0       0       0       0       0       0
  2459 ;;      Totals:         3       0       0       0       0       0       0
  2460 ;;Total ram usage:        3 bytes
  2461 ;; Hardware stack levels used:    1
  2462 ;; Hardware stack levels required when called:    4
  2463 ;; This function calls:
  2464 ;;		___ftpack
  2465 ;; This function is called by:
  2466 ;;		_MedirTemperatura
  2467 ;; This function uses a non-reentrant model
  2468 ;;
  2469                           
  2470                           	psect	text16
  2471  000C76                     __ptext16:
  2472                           	opt stack 0
  2473  000C76                     ___lwtoft:
  2474                           	opt stack 25
  2475                           
  2476                           ;incstack = 0
  2477  000C76  C025  F01D         	movff	___lwtoft@c,___ftpack@arg
  2478  000C7A  C026  F01E         	movff	___lwtoft@c+1,___ftpack@arg+1
  2479  000C7E  6A1F               	clrf	___ftpack@arg+2,c
  2480  000C80  0E8E               	movlw	142
  2481  000C82  6E20               	movwf	___ftpack@exp,c
  2482  000C84  0E00               	movlw	0
  2483  000C86  6E21               	movwf	___ftpack@sign,c
  2484  000C88  ECDF  F001         	call	___ftpack	;wreg free
  2485  000C8C  C01D  F025         	movff	?___ftpack,?___lwtoft
  2486  000C90  C01E  F026         	movff	?___ftpack+1,?___lwtoft+1
  2487  000C94  C01F  F027         	movff	?___ftpack+2,?___lwtoft+2
  2488  000C98  D000               	goto	l642
  2489  000C9A                     l642:
  2490  000C9A  0012               	return		;funcret
  2491  000C9C                     __end_of___lwtoft:
  2492                           	opt stack 0
  2493                           tblptru	equ	0xFF8
  2494                           tblptrh	equ	0xFF7
  2495                           tblptrl	equ	0xFF6
  2496                           tablat	equ	0xFF5
  2497                           prodh	equ	0xFF4
  2498                           prodl	equ	0xFF3
  2499                           intcon	equ	0xFF2
  2500                           postinc0	equ	0xFEE
  2501                           wreg	equ	0xFE8
  2502                           postdec1	equ	0xFE5
  2503                           fsr1l	equ	0xFE1
  2504                           indf2	equ	0xFDF
  2505                           postinc2	equ	0xFDE
  2506                           postdec2	equ	0xFDD
  2507                           fsr2h	equ	0xFDA
  2508                           fsr2l	equ	0xFD9
  2509                           status	equ	0xFD8
  2510                           
  2511 ;; *************** function ___ftmul *****************
  2512 ;; Defined at:
  2513 ;;		line 62 in file "C:\Program Files (x86)\Microchip\xc8\v1.34\sources\common\ftmul.c"
  2514 ;; Parameters:    Size  Location     Type
  2515 ;;  f1              3   39[COMRAM] float 
  2516 ;;  f2              3   42[COMRAM] float 
  2517 ;; Auto vars:     Size  Location     Type
  2518 ;;  f3_as_produc    3   49[COMRAM] unsigned um
  2519 ;;  sign            1   53[COMRAM] unsigned char 
  2520 ;;  cntr            1   52[COMRAM] unsigned char 
  2521 ;;  exp             1   48[COMRAM] unsigned char 
  2522 ;; Return value:  Size  Location     Type
  2523 ;;                  3   39[COMRAM] float 
  2524 ;; Registers used:
  2525 ;;		wreg, status,2, status,0, cstack
  2526 ;; Tracked objects:
  2527 ;;		On entry : 0/0
  2528 ;;		On exit  : 0/0
  2529 ;;		Unchanged: 0/0
  2530 ;; Data sizes:     COMRAM   BANK0   BANK1   BANK2   BANK3   BANK4   BANK5
  2531 ;;      Params:         6       0       0       0       0       0       0
  2532 ;;      Locals:         6       0       0       0       0       0       0
  2533 ;;      Temps:          3       0       0       0       0       0       0
  2534 ;;      Totals:        15       0       0       0       0       0       0
  2535 ;;Total ram usage:       15 bytes
  2536 ;; Hardware stack levels used:    1
  2537 ;; Hardware stack levels required when called:    4
  2538 ;; This function calls:
  2539 ;;		___ftpack
  2540 ;; This function is called by:
  2541 ;;		_MedirTemperatura
  2542 ;; This function uses a non-reentrant model
  2543 ;;
  2544                           
  2545                           	psect	text17
  2546  0001E0                     __ptext17:
  2547                           	opt stack 0
  2548  0001E0                     ___ftmul:
  2549                           	opt stack 25
  2550                           
  2551                           ;incstack = 0
  2552  0001E0  C02A  F02E         	movff	___ftmul@f1+2,??___ftmul
  2553  0001E4  6A2F               	clrf	(??___ftmul+1)& (0+255),c
  2554  0001E6  6A30               	clrf	(??___ftmul+2)& (0+255),c
  2555  0001E8  3429               	rlcf	___ftmul@f1+1,w,c
  2556  0001EA  362E               	rlcf	??___ftmul& (0+255),f,c
  2557  0001EC  E301               	bnc	u2211
  2558  0001EE  802F               	bsf	(??___ftmul+1)& (0+255),0,c
  2559  0001F0                     u2211:
  2560  0001F0  502E               	movf	??___ftmul,w,c
  2561  0001F2  6E31               	movwf	___ftmul@exp,c
  2562  0001F4  5031               	movf	___ftmul@exp,w,c
  2563  0001F6  A4D8               	btfss	status,2,c
  2564  0001F8  D002               	goto	l2052
  2565  0001FA  D00E               	goto	l2054
  2566  0001FC  D06C               	goto	l492
  2567  0001FE                     l2052:
  2568  0001FE  C02D  F02E         	movff	___ftmul@f2+2,??___ftmul
  2569  000202  6A2F               	clrf	(??___ftmul+1)& (0+255),c
  2570  000204  6A30               	clrf	(??___ftmul+2)& (0+255),c
  2571  000206  342C               	rlcf	___ftmul@f2+1,w,c
  2572  000208  362E               	rlcf	??___ftmul& (0+255),f,c
  2573  00020A  E301               	bnc	u2231
  2574  00020C  802F               	bsf	(??___ftmul+1)& (0+255),0,c
  2575  00020E                     u2231:
  2576  00020E  502E               	movf	??___ftmul,w,c
  2577  000210  6E36               	movwf	___ftmul@sign,c
  2578  000212  5036               	movf	___ftmul@sign,w,c
  2579  000214  A4D8               	btfss	status,2,c
  2580  000216  D007               	goto	l2058
  2581  000218                     l2054:
  2582  000218  0E00               	movlw	0
  2583  00021A  6E28               	movwf	?___ftmul,c
  2584  00021C  0E00               	movlw	0
  2585  00021E  6E29               	movwf	?___ftmul+1,c
  2586  000220  0E00               	movlw	0
  2587  000222  6E2A               	movwf	?___ftmul+2,c
  2588  000224  D058               	goto	l492
  2589  000226                     l2058:
  2590  000226  5036               	movf	___ftmul@sign,w,c
  2591  000228  0F7B               	addlw	123
  2592  00022A  2631               	addwf	___ftmul@exp,f,c
  2593  00022C  C02A  F036         	movff	___ftmul@f1+2,___ftmul@sign
  2594  000230  502D               	movf	___ftmul@f2+2,w,c
  2595  000232  1A36               	xorwf	___ftmul@sign,f,c
  2596  000234  0E80               	movlw	128
  2597  000236  1636               	andwf	___ftmul@sign,f,c
  2598  000238  8E29               	bsf	___ftmul@f1+1,7,c
  2599  00023A  8E2C               	bsf	___ftmul@f2+1,7,c
  2600  00023C  0EFF               	movlw	255
  2601  00023E  162B               	andwf	___ftmul@f2,f,c
  2602  000240  0EFF               	movlw	255
  2603  000242  162C               	andwf	___ftmul@f2+1,f,c
  2604  000244  0E00               	movlw	0
  2605  000246  162D               	andwf	___ftmul@f2+2,f,c
  2606  000248  0E00               	movlw	0
  2607  00024A  6E32               	movwf	___ftmul@f3_as_product,c
  2608  00024C  0E00               	movlw	0
  2609  00024E  6E33               	movwf	___ftmul@f3_as_product+1,c
  2610  000250  0E00               	movlw	0
  2611  000252  6E34               	movwf	___ftmul@f3_as_product+2,c
  2612  000254  0E07               	movlw	7
  2613  000256  6E35               	movwf	___ftmul@cntr,c
  2614  000258  D000               	goto	l2072
  2615  00025A                     l2072:
  2616  00025A  A028               	btfss	___ftmul@f1,0,c
  2617  00025C  D007               	goto	l2076
  2618  00025E  502B               	movf	___ftmul@f2,w,c
  2619  000260  2632               	addwf	___ftmul@f3_as_product,f,c
  2620  000262  502C               	movf	___ftmul@f2+1,w,c
  2621  000264  2233               	addwfc	___ftmul@f3_as_product+1,f,c
  2622  000266  502D               	movf	___ftmul@f2+2,w,c
  2623  000268  2234               	addwfc	___ftmul@f3_as_product+2,f,c
  2624  00026A  D000               	goto	l2076
  2625  00026C                     l2076:
  2626  00026C  90D8               	bcf	status,0,c
  2627  00026E  322A               	rrcf	___ftmul@f1+2,f,c
  2628  000270  3229               	rrcf	___ftmul@f1+1,f,c
  2629  000272  3228               	rrcf	___ftmul@f1,f,c
  2630  000274  90D8               	bcf	status,0,c
  2631  000276  362B               	rlcf	___ftmul@f2,f,c
  2632  000278  362C               	rlcf	___ftmul@f2+1,f,c
  2633  00027A  362D               	rlcf	___ftmul@f2+2,f,c
  2634  00027C  2E35               	decfsz	___ftmul@cntr,f,c
  2635  00027E  D7ED               	goto	l2072
  2636  000280  D000               	goto	l2080
  2637  000282                     l2080:
  2638  000282  0E09               	movlw	9
  2639  000284  6E35               	movwf	___ftmul@cntr,c
  2640  000286  D000               	goto	l2082
  2641  000288                     l2082:
  2642  000288  A028               	btfss	___ftmul@f1,0,c
  2643  00028A  D007               	goto	l2086
  2644  00028C  502B               	movf	___ftmul@f2,w,c
  2645  00028E  2632               	addwf	___ftmul@f3_as_product,f,c
  2646  000290  502C               	movf	___ftmul@f2+1,w,c
  2647  000292  2233               	addwfc	___ftmul@f3_as_product+1,f,c
  2648  000294  502D               	movf	___ftmul@f2+2,w,c
  2649  000296  2234               	addwfc	___ftmul@f3_as_product+2,f,c
  2650  000298  D000               	goto	l2086
  2651  00029A                     l2086:
  2652  00029A  90D8               	bcf	status,0,c
  2653  00029C  322A               	rrcf	___ftmul@f1+2,f,c
  2654  00029E  3229               	rrcf	___ftmul@f1+1,f,c
  2655  0002A0  3228               	rrcf	___ftmul@f1,f,c
  2656  0002A2  90D8               	bcf	status,0,c
  2657  0002A4  3234               	rrcf	___ftmul@f3_as_product+2,f,c
  2658  0002A6  3233               	rrcf	___ftmul@f3_as_product+1,f,c
  2659  0002A8  3232               	rrcf	___ftmul@f3_as_product,f,c
  2660  0002AA  2E35               	decfsz	___ftmul@cntr,f,c
  2661  0002AC  D7ED               	goto	l2082
  2662  0002AE  D000               	goto	l2090
  2663  0002B0                     l2090:
  2664  0002B0  C032  F01D         	movff	___ftmul@f3_as_product,___ftpack@arg
  2665  0002B4  C033  F01E         	movff	___ftmul@f3_as_product+1,___ftpack@arg+1
  2666  0002B8  C034  F01F         	movff	___ftmul@f3_as_product+2,___ftpack@arg+2
  2667  0002BC  C031  F020         	movff	___ftmul@exp,___ftpack@exp
  2668  0002C0  C036  F021         	movff	___ftmul@sign,___ftpack@sign
  2669  0002C4  ECDF  F001         	call	___ftpack	;wreg free
  2670  0002C8  C01D  F028         	movff	?___ftpack,?___ftmul
  2671  0002CC  C01E  F029         	movff	?___ftpack+1,?___ftmul+1
  2672  0002D0  C01F  F02A         	movff	?___ftpack+2,?___ftmul+2
  2673  0002D4  D000               	goto	l492
  2674  0002D6                     l492:
  2675  0002D6  0012               	return		;funcret
  2676  0002D8                     __end_of___ftmul:
  2677                           	opt stack 0
  2678                           tblptru	equ	0xFF8
  2679                           tblptrh	equ	0xFF7
  2680                           tblptrl	equ	0xFF6
  2681                           tablat	equ	0xFF5
  2682                           prodh	equ	0xFF4
  2683                           prodl	equ	0xFF3
  2684                           intcon	equ	0xFF2
  2685                           postinc0	equ	0xFEE
  2686                           wreg	equ	0xFE8
  2687                           postdec1	equ	0xFE5
  2688                           fsr1l	equ	0xFE1
  2689                           indf2	equ	0xFDF
  2690                           postinc2	equ	0xFDE
  2691                           postdec2	equ	0xFDD
  2692                           fsr2h	equ	0xFDA
  2693                           fsr2l	equ	0xFD9
  2694                           status	equ	0xFD8
  2695                           
  2696 ;; *************** function ___ftpack *****************
  2697 ;; Defined at:
  2698 ;;		line 62 in file "C:\Program Files (x86)\Microchip\xc8\v1.34\sources\common\float.c"
  2699 ;; Parameters:    Size  Location     Type
  2700 ;;  arg             3   28[COMRAM] unsigned um
  2701 ;;  exp             1   31[COMRAM] unsigned char 
  2702 ;;  sign            1   32[COMRAM] unsigned char 
  2703 ;; Auto vars:     Size  Location     Type
  2704 ;;		None
  2705 ;; Return value:  Size  Location     Type
  2706 ;;                  3   28[COMRAM] float 
  2707 ;; Registers used:
  2708 ;;		wreg, status,2, status,0
  2709 ;; Tracked objects:
  2710 ;;		On entry : 0/0
  2711 ;;		On exit  : 0/0
  2712 ;;		Unchanged: 0/0
  2713 ;; Data sizes:     COMRAM   BANK0   BANK1   BANK2   BANK3   BANK4   BANK5
  2714 ;;      Params:         5       0       0       0       0       0       0
  2715 ;;      Locals:         0       0       0       0       0       0       0
  2716 ;;      Temps:          3       0       0       0       0       0       0
  2717 ;;      Totals:         8       0       0       0       0       0       0
  2718 ;;Total ram usage:        8 bytes
  2719 ;; Hardware stack levels used:    1
  2720 ;; Hardware stack levels required when called:    3
  2721 ;; This function calls:
  2722 ;;		Nothing
  2723 ;; This function is called by:
  2724 ;;		___altoft
  2725 ;;		___ftadd
  2726 ;;		___ftmul
  2727 ;;		___lbtoft
  2728 ;;		___lwtoft
  2729 ;; This function uses a non-reentrant model
  2730 ;;
  2731                           
  2732                           	psect	text18
  2733  0003BE                     __ptext18:
  2734                           	opt stack 0
  2735  0003BE                     ___ftpack:
  2736                           	opt stack 26
  2737                           
  2738                           ;incstack = 0
  2739  0003BE  5020               	movf	___ftpack@exp,w,c
  2740  0003C0  B4D8               	btfsc	status,2,c
  2741  0003C2  D005               	goto	l1836
  2742  0003C4  501D               	movf	___ftpack@arg,w,c
  2743  0003C6  101E               	iorwf	___ftpack@arg+1,w,c
  2744  0003C8  101F               	iorwf	___ftpack@arg+2,w,c
  2745  0003CA  A4D8               	btfss	status,2,c
  2746  0003CC  D00E               	goto	l1842
  2747  0003CE                     l1836:
  2748  0003CE  0E00               	movlw	0
  2749  0003D0  6E1D               	movwf	?___ftpack,c
  2750  0003D2  0E00               	movlw	0
  2751  0003D4  6E1E               	movwf	?___ftpack+1,c
  2752  0003D6  0E00               	movlw	0
  2753  0003D8  6E1F               	movwf	?___ftpack+2,c
  2754  0003DA  D053               	goto	l405
  2755  0003DC  D006               	goto	l1842
  2756  0003DE                     l1840:
  2757  0003DE  2A20               	incf	___ftpack@exp,f,c
  2758  0003E0  90D8               	bcf	status,0,c
  2759  0003E2  321F               	rrcf	___ftpack@arg+2,f,c
  2760  0003E4  321E               	rrcf	___ftpack@arg+1,f,c
  2761  0003E6  321D               	rrcf	___ftpack@arg,f,c
  2762  0003E8  D000               	goto	l1842
  2763  0003EA                     l1842:
  2764  0003EA  0E00               	movlw	0
  2765  0003EC  141D               	andwf	___ftpack@arg,w,c
  2766  0003EE  6E22               	movwf	??___ftpack& (0+255),c
  2767  0003F0  0E00               	movlw	0
  2768  0003F2  141E               	andwf	___ftpack@arg+1,w,c
  2769  0003F4  6E23               	movwf	(??___ftpack+1)& (0+255),c
  2770  0003F6  0EFE               	movlw	254
  2771  0003F8  141F               	andwf	___ftpack@arg+2,w,c
  2772  0003FA  6E24               	movwf	(??___ftpack+2)& (0+255),c
  2773  0003FC  5022               	movf	??___ftpack,w,c
  2774  0003FE  1023               	iorwf	??___ftpack+1,w,c
  2775  000400  1024               	iorwf	??___ftpack+2,w,c
  2776  000402  B4D8               	btfsc	status,2,c
  2777  000404  D00E               	goto	l1848
  2778  000406  D7EB               	goto	l1840
  2779  000408  D00C               	goto	l1848
  2780  00040A                     l1844:
  2781  00040A  2A20               	incf	___ftpack@exp,f,c
  2782  00040C  0E01               	movlw	1
  2783  00040E  261D               	addwf	___ftpack@arg,f,c
  2784  000410  0E00               	movlw	0
  2785  000412  221E               	addwfc	___ftpack@arg+1,f,c
  2786  000414  0E00               	movlw	0
  2787  000416  221F               	addwfc	___ftpack@arg+2,f,c
  2788  000418  90D8               	bcf	status,0,c
  2789  00041A  321F               	rrcf	___ftpack@arg+2,f,c
  2790  00041C  321E               	rrcf	___ftpack@arg+1,f,c
  2791  00041E  321D               	rrcf	___ftpack@arg,f,c
  2792  000420  D000               	goto	l1848
  2793  000422                     l1848:
  2794  000422  0E00               	movlw	0
  2795  000424  141D               	andwf	___ftpack@arg,w,c
  2796  000426  6E22               	movwf	??___ftpack& (0+255),c
  2797  000428  0E00               	movlw	0
  2798  00042A  141E               	andwf	___ftpack@arg+1,w,c
  2799  00042C  6E23               	movwf	(??___ftpack+1)& (0+255),c
  2800  00042E  0EFF               	movlw	255
  2801  000430  141F               	andwf	___ftpack@arg+2,w,c
  2802  000432  6E24               	movwf	(??___ftpack+2)& (0+255),c
  2803  000434  5022               	movf	??___ftpack,w,c
  2804  000436  1023               	iorwf	??___ftpack+1,w,c
  2805  000438  1024               	iorwf	??___ftpack+2,w,c
  2806  00043A  B4D8               	btfsc	status,2,c
  2807  00043C  D008               	goto	l1852
  2808  00043E  D7E5               	goto	l1844
  2809  000440  D006               	goto	l1852
  2810  000442                     l1850:
  2811  000442  0620               	decf	___ftpack@exp,f,c
  2812  000444  90D8               	bcf	status,0,c
  2813  000446  361D               	rlcf	___ftpack@arg,f,c
  2814  000448  361E               	rlcf	___ftpack@arg+1,f,c
  2815  00044A  361F               	rlcf	___ftpack@arg+2,f,c
  2816  00044C  D000               	goto	l1852
  2817  00044E                     l1852:
  2818  00044E  BE1E               	btfsc	___ftpack@arg+1,7,c
  2819  000450  D004               	goto	l416
  2820  000452  0E02               	movlw	2
  2821  000454  6020               	cpfslt	___ftpack@exp,c
  2822  000456  D7F5               	goto	l1850
  2823  000458  D000               	goto	l416
  2824  00045A                     l416:
  2825  00045A  B020               	btfsc	___ftpack@exp,0,c
  2826  00045C  D002               	goto	l1858
  2827  00045E  9E1E               	bcf	___ftpack@arg+1,7,c
  2828  000460  D000               	goto	l1858
  2829  000462                     l1858:
  2830  000462  90D8               	bcf	status,0,c
  2831  000464  3220               	rrcf	___ftpack@exp,f,c
  2832  000466  5020               	movf	___ftpack@exp,w,c
  2833  000468  121F               	iorwf	___ftpack@arg+2,f,c
  2834  00046A  5021               	movf	___ftpack@sign,w,c
  2835  00046C  B4D8               	btfsc	status,2,c
  2836  00046E  D002               	goto	l1864
  2837  000470  8E1F               	bsf	___ftpack@arg+2,7,c
  2838  000472  D000               	goto	l1864
  2839  000474                     l1864:
  2840  000474  C01D  F01D         	movff	___ftpack@arg,?___ftpack
  2841  000478  C01E  F01E         	movff	___ftpack@arg+1,?___ftpack+1
  2842  00047C  C01F  F01F         	movff	___ftpack@arg+2,?___ftpack+2
  2843  000480  D000               	goto	l405
  2844  000482                     l405:
  2845  000482  0012               	return		;funcret
  2846  000484                     __end_of___ftpack:
  2847                           	opt stack 0
  2848                           tblptru	equ	0xFF8
  2849                           tblptrh	equ	0xFF7
  2850                           tblptrl	equ	0xFF6
  2851                           tablat	equ	0xFF5
  2852                           prodh	equ	0xFF4
  2853                           prodl	equ	0xFF3
  2854                           intcon	equ	0xFF2
  2855                           postinc0	equ	0xFEE
  2856                           wreg	equ	0xFE8
  2857                           postdec1	equ	0xFE5
  2858                           fsr1l	equ	0xFE1
  2859                           indf2	equ	0xFDF
  2860                           postinc2	equ	0xFDE
  2861                           postdec2	equ	0xFDD
  2862                           fsr2h	equ	0xFDA
  2863                           fsr2l	equ	0xFD9
  2864                           status	equ	0xFD8
  2865                           
  2866 ;; *************** function _GetADC *****************
  2867 ;; Defined at:
  2868 ;;		line 150 in file "main.c"
  2869 ;; Parameters:    Size  Location     Type
  2870 ;;  CanalADC        1    wreg     unsigned char 
  2871 ;; Auto vars:     Size  Location     Type
  2872 ;;  CanalADC        1   32[COMRAM] unsigned char 
  2873 ;; Return value:  Size  Location     Type
  2874 ;;                  2   28[COMRAM] unsigned int 
  2875 ;; Registers used:
  2876 ;;		wreg, status,2, status,0
  2877 ;; Tracked objects:
  2878 ;;		On entry : 0/0
  2879 ;;		On exit  : 0/0
  2880 ;;		Unchanged: 0/0
  2881 ;; Data sizes:     COMRAM   BANK0   BANK1   BANK2   BANK3   BANK4   BANK5
  2882 ;;      Params:         2       0       0       0       0       0       0
  2883 ;;      Locals:         1       0       0       0       0       0       0
  2884 ;;      Temps:          2       0       0       0       0       0       0
  2885 ;;      Totals:         5       0       0       0       0       0       0
  2886 ;;Total ram usage:        5 bytes
  2887 ;; Hardware stack levels used:    1
  2888 ;; Hardware stack levels required when called:    3
  2889 ;; This function calls:
  2890 ;;		Nothing
  2891 ;; This function is called by:
  2892 ;;		_MedirTemperatura
  2893 ;; This function uses a non-reentrant model
  2894 ;;
  2895                           
  2896                           	psect	text19
  2897  000BFA                     __ptext19:
  2898                           	opt stack 0
  2899  000BFA                     _GetADC:
  2900                           	opt stack 26
  2901                           
  2902                           ;incstack = 0
  2903                           ;GetADC@CanalADC stored from wreg
  2904  000BFA  6E21               	movwf	GetADC@CanalADC,c
  2905                           
  2906                           ;main.c: 152: ADCON0 = (CanalADC << 2) | (ADCON0 & 0b11000011);
  2907  000BFC  CFC2 F01F          	movff	4034,??_GetADC	;volatile
  2908  000C00  0EC3               	movlw	195
  2909  000C02  161F               	andwf	??_GetADC,f,c
  2910  000C04  4421               	rlncf	GetADC@CanalADC,w,c
  2911  000C06  46E8               	rlncf	wreg,f,c
  2912  000C08  0BFC               	andlw	252
  2913  000C0A  101F               	iorwf	??_GetADC,w,c
  2914  000C0C  6EC2               	movwf	4034,c	;volatile
  2915                           
  2916                           ;main.c: 153: ADCON0bits.GO = 1;
  2917  000C0E  82C2               	bsf	4034,1,c	;volatile
  2918                           
  2919                           ;main.c: 155: while(ADCON0bits.DONE);
  2920  000C10  D000               	goto	l76
  2921  000C12                     l76:
  2922  000C12  B2C2               	btfsc	4034,1,c	;volatile
  2923  000C14  D7FE               	goto	l76
  2924                           
  2925                           ;main.c: 156: return (((unsigned int)ADRESH)<<8)|(ADRESL);
  2926  000C16  50C4               	movf	4036,w,c	;volatile
  2927  000C18  6E1F               	movwf	??_GetADC& (0+255),c
  2928  000C1A  50C3               	movf	4035,w,c	;volatile
  2929  000C1C  6E1D               	movwf	?_GetADC,c
  2930  000C1E  C01F  F01E         	movff	??_GetADC,?_GetADC+1
  2931  000C22  D000               	goto	l79
  2932  000C24                     l79:
  2933  000C24  0012               	return		;funcret
  2934  000C26                     __end_of_GetADC:
  2935                           	opt stack 0
  2936                           tblptru	equ	0xFF8
  2937                           tblptrh	equ	0xFF7
  2938                           tblptrl	equ	0xFF6
  2939                           tablat	equ	0xFF5
  2940                           prodh	equ	0xFF4
  2941                           prodl	equ	0xFF3
  2942                           intcon	equ	0xFF2
  2943                           postinc0	equ	0xFEE
  2944                           wreg	equ	0xFE8
  2945                           postdec1	equ	0xFE5
  2946                           fsr1l	equ	0xFE1
  2947                           indf2	equ	0xFDF
  2948                           postinc2	equ	0xFDE
  2949                           postdec2	equ	0xFDD
  2950                           fsr2h	equ	0xFDA
  2951                           fsr2l	equ	0xFD9
  2952                           status	equ	0xFD8
  2953                           
  2954 ;; *************** function _PortBInt *****************
  2955 ;; Defined at:
  2956 ;;		line 193 in file "main.c"
  2957 ;; Parameters:    Size  Location     Type
  2958 ;;		None
  2959 ;; Auto vars:     Size  Location     Type
  2960 ;;		None
  2961 ;; Return value:  Size  Location     Type
  2962 ;;		None               void
  2963 ;; Registers used:
  2964 ;;		wreg, fsr2l, fsr2h, status,2, status,0, prodl, prodh, cstack
  2965 ;; Tracked objects:
  2966 ;;		On entry : 0/0
  2967 ;;		On exit  : 0/0
  2968 ;;		Unchanged: 0/0
  2969 ;; Data sizes:     COMRAM   BANK0   BANK1   BANK2   BANK3   BANK4   BANK5
  2970 ;;      Params:         0       0       0       0       0       0       0
  2971 ;;      Locals:         0       0       0       0       0       0       0
  2972 ;;      Temps:         15       0       0       0       0       0       0
  2973 ;;      Totals:        15       0       0       0       0       0       0
  2974 ;;Total ram usage:       15 bytes
  2975 ;; Hardware stack levels used:    1
  2976 ;; Hardware stack levels required when called:    2
  2977 ;; This function calls:
  2978 ;;		i2_PrintTwoDisp
  2979 ;; This function is called by:
  2980 ;;		Interrupt level 2
  2981 ;; This function uses a non-reentrant model
  2982 ;;
  2983                           
  2984                           	psect	intcode
  2985  000008                     __pintcode:
  2986                           	opt stack 0
  2987  000008                     _PortBInt:
  2988                           	opt stack 23
  2989                           
  2990                           ;incstack = 0
  2991  000008  CFFA F00F          	movff	pclath,??_PortBInt+1
  2992  00000C  CFFB F010          	movff	pclatu,??_PortBInt+2
  2993  000010  CFE9 F011          	movff	fsr0l,??_PortBInt+3
  2994  000014  ED42  F002         	call	int_func,f	;refresh shadow registers
  2995                           pclatu	equ	0xFFB
  2996                           pclath	equ	0xFFA
  2997                           tblptru	equ	0xFF8
  2998                           tblptrh	equ	0xFF7
  2999                           tblptrl	equ	0xFF6
  3000                           tablat	equ	0xFF5
  3001                           prodh	equ	0xFF4
  3002                           prodl	equ	0xFF3
  3003                           intcon	equ	0xFF2
  3004                           postinc0	equ	0xFEE
  3005                           fsr0l	equ	0xFE9
  3006                           wreg	equ	0xFE8
  3007                           postdec1	equ	0xFE5
  3008                           fsr1l	equ	0xFE1
  3009                           indf2	equ	0xFDF
  3010                           postinc2	equ	0xFDE
  3011                           postdec2	equ	0xFDD
  3012                           fsr2h	equ	0xFDA
  3013                           fsr2l	equ	0xFD9
  3014                           status	equ	0xFD8
  3015                           
  3016                           	psect	intcode_body
  3017  000484                     __pintcode_body:
  3018                           	opt stack 23
  3019  000484                     int_func:
  3020                           	opt stack 23
  3021  000484  0006               	pop		; remove dummy address from shadow register refresh
  3022  000486  CFEA F012          	movff	fsr0h,??_PortBInt+4
  3023  00048A  CFE1 F013          	movff	fsr1l,??_PortBInt+5
  3024  00048E  CFE2 F014          	movff	fsr1h,??_PortBInt+6
  3025  000492  CFD9 F015          	movff	fsr2l,??_PortBInt+7
  3026  000496  CFDA F016          	movff	fsr2h,??_PortBInt+8
  3027  00049A  CFF3 F017          	movff	prodl,??_PortBInt+9
  3028  00049E  CFF4 F018          	movff	prodh,??_PortBInt+10
  3029  0004A2  CFF6 F019          	movff	tblptrl,??_PortBInt+11
  3030  0004A6  CFF7 F01A          	movff	tblptrh,??_PortBInt+12
  3031  0004AA  CFF8 F01B          	movff	tblptru,??_PortBInt+13
  3032  0004AE  CFF5 F01C          	movff	tablat,??_PortBInt+14
  3033                           
  3034                           ;main.c: 196: if(INTCONbits.RBIF == 1)
  3035  0004B2  A0F2               	btfss	intcon,0,c	;volatile
  3036  0004B4  D01B               	goto	i2l89
  3037                           
  3038                           ;main.c: 197: {
  3039                           ;main.c: 198: PORTB = PORTB;
  3040  0004B6  CF81 FF81          	movff	3969,3969	;volatile
  3041                           
  3042                           ;main.c: 199: INTCONbits.RBIF = 0;
  3043  0004BA  90F2               	bcf	intcon,0,c	;volatile
  3044                           
  3045                           ;main.c: 200: _delay((unsigned long)((10)*(8000000/4000.0)));
  3046  0004BC  0E1A               	movlw	26
  3047  0004BE  6E0E               	movwf	??_PortBInt& (0+255),c
  3048  0004C0  0EF8               	movlw	248
  3049  0004C2                     i2u230_47:
  3050  0004C2  2EE8               	decfsz	wreg,f,c
  3051  0004C4  D7FE               	goto	i2u230_47
  3052  0004C6  2E0E               	decfsz	??_PortBInt& (0+255),f,c
  3053  0004C8  D7FC               	goto	i2u230_47
  3054  0004CA  D000               	nop2	
  3055                           
  3056                           ;main.c: 202: PrintTwoDisp(TempRef);
  3057  0004CC  505A               	movf	_TempRef,w,c
  3058  0004CE  ECE7  F002         	call	i2_PrintTwoDisp
  3059                           
  3060                           ;main.c: 204: if(PORTBbits.RB4 == 1) TempRef = TempRef + 1;
  3061  0004D2  A881               	btfss	3969,4,c	;volatile
  3062  0004D4  D002               	goto	i2l90
  3063  0004D6  285A               	incf	_TempRef,w,c
  3064  0004D8  D003               	goto	L1
  3065  0004DA                     i2l90:
  3066                           
  3067                           ;main.c: 205: else
  3068                           ;main.c: 206: {
  3069                           ;main.c: 207: if(PORTBbits.RB5 == 1) TempRef = TempRef - 1;
  3070  0004DA  AA81               	btfss	3969,5,c	;volatile
  3071  0004DC  D003               	goto	i2l1830
  3072  0004DE  045A               	decf	_TempRef,w,c
  3073  0004E0                     L1:
  3074  0004E0  6E5A               	movwf	_TempRef,c
  3075  0004E2  D000               	goto	i2l1830
  3076  0004E4                     i2l1830:
  3077                           
  3078                           ;main.c: 208: }
  3079                           ;main.c: 209: PrintTwoDisp(0);
  3080  0004E4  0E00               	movlw	0
  3081  0004E6  ECE7  F002         	call	i2_PrintTwoDisp
  3082                           
  3083                           ;main.c: 210: }
  3084  0004EA  D002               	goto	i2l94
  3085  0004EC                     i2l89:
  3086                           
  3087                           ;main.c: 211: else
  3088                           ;main.c: 212: __nop();
  3089  0004EC  F000               	nop	
  3090  0004EE  D000               	goto	i2l94
  3091  0004F0                     i2l94:
  3092  0004F0  C01C  FFF5         	movff	??_PortBInt+14,tablat
  3093  0004F4  C01B  FFF8         	movff	??_PortBInt+13,tblptru
  3094  0004F8  C01A  FFF7         	movff	??_PortBInt+12,tblptrh
  3095  0004FC  C019  FFF6         	movff	??_PortBInt+11,tblptrl
  3096  000500  C018  FFF4         	movff	??_PortBInt+10,prodh
  3097  000504  C017  FFF3         	movff	??_PortBInt+9,prodl
  3098  000508  C016  FFDA         	movff	??_PortBInt+8,fsr2h
  3099  00050C  C015  FFD9         	movff	??_PortBInt+7,fsr2l
  3100  000510  C014  FFE2         	movff	??_PortBInt+6,fsr1h
  3101  000514  C013  FFE1         	movff	??_PortBInt+5,fsr1l
  3102  000518  C012  FFEA         	movff	??_PortBInt+4,fsr0h
  3103  00051C  C011  FFE9         	movff	??_PortBInt+3,fsr0l
  3104  000520  C010  FFFB         	movff	??_PortBInt+2,pclatu
  3105  000524  C00F  FFFA         	movff	??_PortBInt+1,pclath
  3106  000528  0011               	retfie		f
  3107  00052A                     __end_of_PortBInt:
  3108                           	opt stack 0
  3109                           pclatu	equ	0xFFB
  3110                           pclath	equ	0xFFA
  3111                           tblptru	equ	0xFF8
  3112                           tblptrh	equ	0xFF7
  3113                           tblptrl	equ	0xFF6
  3114                           tablat	equ	0xFF5
  3115                           prodh	equ	0xFF4
  3116                           prodl	equ	0xFF3
  3117                           intcon	equ	0xFF2
  3118                           postinc0	equ	0xFEE
  3119                           fsr0h	equ	0xFEA
  3120                           fsr0l	equ	0xFE9
  3121                           wreg	equ	0xFE8
  3122                           postdec1	equ	0xFE5
  3123                           fsr1h	equ	0xFE2
  3124                           fsr1l	equ	0xFE1
  3125                           indf2	equ	0xFDF
  3126                           postinc2	equ	0xFDE
  3127                           postdec2	equ	0xFDD
  3128                           fsr2h	equ	0xFDA
  3129                           fsr2l	equ	0xFD9
  3130                           status	equ	0xFD8
  3131                           
  3132 ;; *************** function i2_PrintTwoDisp *****************
  3133 ;; Defined at:
  3134 ;;		line 162 in file "main.c"
  3135 ;; Parameters:    Size  Location     Type
  3136 ;;  Numero          1    wreg     unsigned char 
  3137 ;; Auto vars:     Size  Location     Type
  3138 ;;  Numero          1    9[COMRAM] unsigned char 
  3139 ;;  PrintTwoDisp    1   12[COMRAM] unsigned char 
  3140 ;;  PrintTwoDisp    1   11[COMRAM] unsigned char 
  3141 ;;  PrintTwoDisp    1   10[COMRAM] unsigned char 
  3142 ;; Return value:  Size  Location     Type
  3143 ;;		None               void
  3144 ;; Registers used:
  3145 ;;		wreg, fsr2l, fsr2h, status,2, status,0, prodl, prodh, cstack
  3146 ;; Tracked objects:
  3147 ;;		On entry : 0/0
  3148 ;;		On exit  : 0/0
  3149 ;;		Unchanged: 0/0
  3150 ;; Data sizes:     COMRAM   BANK0   BANK1   BANK2   BANK3   BANK4   BANK5
  3151 ;;      Params:         0       0       0       0       0       0       0
  3152 ;;      Locals:         4       0       0       0       0       0       0
  3153 ;;      Temps:          1       0       0       0       0       0       0
  3154 ;;      Totals:         5       0       0       0       0       0       0
  3155 ;;Total ram usage:        5 bytes
  3156 ;; Hardware stack levels used:    1
  3157 ;; Hardware stack levels required when called:    1
  3158 ;; This function calls:
  3159 ;;		i2___awdiv
  3160 ;;		i2___awmod
  3161 ;; This function is called by:
  3162 ;;		_PortBInt
  3163 ;; This function uses a non-reentrant model
  3164 ;;
  3165                           
  3166                           	psect	text21
  3167  0005CE                     __ptext21:
  3168                           	opt stack 0
  3169  0005CE                     i2_PrintTwoDisp:
  3170                           	opt stack 23
  3171                           
  3172                           ;incstack = 0
  3173                           ;i2PrintTwoDisp@Numero stored from wreg
  3174  0005CE  6E0A               	movwf	i2PrintTwoDisp@Numero,c
  3175                           
  3176                           ;main.c: 164: unsigned char Unidades, Decenas = 0;
  3177  0005D0  0E00               	movlw	0
  3178  0005D2  6E0C               	movwf	i2PrintTwoDisp@Decenas,c
  3179                           
  3180                           ;main.c: 166: if(Numero > 9)
  3181  0005D4  0E09               	movlw	9
  3182  0005D6  640A               	cpfsgt	i2PrintTwoDisp@Numero,c
  3183  0005D8  D017               	goto	i2l1786
  3184                           
  3185                           ;main.c: 167: {
  3186                           ;main.c: 168: Unidades = Numero%10;
  3187  0005DA  C00A  F001         	movff	i2PrintTwoDisp@Numero,i2___awmod@dividend
  3188  0005DE  6A02               	clrf	i2___awmod@dividend+1,c
  3189  0005E0  0E00               	movlw	0
  3190  0005E2  6E04               	movwf	i2___awmod@divisor+1,c
  3191  0005E4  0E0A               	movlw	10
  3192  0005E6  6E03               	movwf	i2___awmod@divisor,c
  3193  0005E8  ECE5  F004         	call	i2___awmod	;wreg free
  3194  0005EC  5001               	movf	?i2___awmod,w,c
  3195  0005EE  6E0B               	movwf	i2PrintTwoDisp@Unidades,c
  3196                           
  3197                           ;main.c: 169: Decenas = Numero/10;
  3198  0005F0  C00A  F001         	movff	i2PrintTwoDisp@Numero,i2___awdiv@dividend
  3199  0005F4  6A02               	clrf	i2___awdiv@dividend+1,c
  3200  0005F6  0E00               	movlw	0
  3201  0005F8  6E04               	movwf	i2___awdiv@divisor+1,c
  3202  0005FA  0E0A               	movlw	10
  3203  0005FC  6E03               	movwf	i2___awdiv@divisor,c
  3204  0005FE  ECCF  F003         	call	i2___awdiv	;wreg free
  3205  000602  5001               	movf	?i2___awdiv,w,c
  3206  000604  6E0C               	movwf	i2PrintTwoDisp@Decenas,c
  3207                           
  3208                           ;main.c: 170: }
  3209  000606  D004               	goto	i2l83
  3210  000608                     i2l1786:
  3211                           
  3212                           ;main.c: 171: else
  3213                           ;main.c: 172: {
  3214                           ;main.c: 173: Decenas = 0;
  3215  000608  0E00               	movlw	0
  3216  00060A  6E0C               	movwf	i2PrintTwoDisp@Decenas,c
  3217                           
  3218                           ;main.c: 174: Unidades = Numero;
  3219  00060C  C00A  F00B         	movff	i2PrintTwoDisp@Numero,i2PrintTwoDisp@Unidades
  3220  000610                     i2l83:
  3221                           
  3222                           ;main.c: 175: }
  3223                           ;main.c: 178: for(char n = 0; n < 31; n++)
  3224  000610  0E00               	movlw	0
  3225  000612  6E0D               	movwf	i2PrintTwoDisp@n,c
  3226  000614                     i2l1790:
  3227  000614  0E1E               	movlw	30
  3228  000616  640D               	cpfsgt	i2PrintTwoDisp@n,c
  3229  000618  D001               	goto	i2l84
  3230  00061A  D02A               	goto	i2l86
  3231  00061C                     i2l84:
  3232                           
  3233                           ;main.c: 179: {
  3234                           ;main.c: 180: PORTBbits.RB0 = 1;
  3235  00061C  8081               	bsf	3969,0,c	;volatile
  3236                           
  3237                           ;main.c: 181: PORTBbits.RB1 = 0;
  3238  00061E  9281               	bcf	3969,1,c	;volatile
  3239                           
  3240                           ;main.c: 182: PORTD = Disp7SegCC[Unidades];
  3241  000620  500B               	movf	i2PrintTwoDisp@Unidades,w,c
  3242  000622  0D01               	mullw	1
  3243  000624  0E50               	movlw	low _Disp7SegCC
  3244  000626  24F3               	addwf	prodl,w,c
  3245  000628  6ED9               	movwf	fsr2l,c
  3246  00062A  0E00               	movlw	high _Disp7SegCC
  3247  00062C  20F4               	addwfc	prodh,w,c
  3248  00062E  6EDA               	movwf	fsr2h,c
  3249  000630  50DF               	movf	indf2,w,c
  3250  000632  6E83               	movwf	3971,c	;volatile
  3251                           
  3252                           ;main.c: 183: _delay((unsigned long)((8)*(8000000/4000.0)));
  3253  000634  0E15               	movlw	21
  3254  000636  6E09               	movwf	??i2_PrintTwoDisp& (0+255),c
  3255  000638  0EC6               	movlw	198
  3256  00063A                     i2u231_47:
  3257  00063A  2EE8               	decfsz	wreg,f,c
  3258  00063C  D7FE               	goto	i2u231_47
  3259  00063E  2E09               	decfsz	??i2_PrintTwoDisp& (0+255),f,c
  3260  000640  D7FC               	goto	i2u231_47
  3261  000642  D000               	nop2	
  3262                           
  3263                           ;main.c: 184: PORTBbits.RB0 = 0;
  3264  000644  9081               	bcf	3969,0,c	;volatile
  3265                           
  3266                           ;main.c: 185: PORTBbits.RB1 = 1;
  3267  000646  8281               	bsf	3969,1,c	;volatile
  3268                           
  3269                           ;main.c: 186: PORTD = Disp7SegCC[Decenas];
  3270  000648  500C               	movf	i2PrintTwoDisp@Decenas,w,c
  3271  00064A  0D01               	mullw	1
  3272  00064C  0E50               	movlw	low _Disp7SegCC
  3273  00064E  24F3               	addwf	prodl,w,c
  3274  000650  6ED9               	movwf	fsr2l,c
  3275  000652  0E00               	movlw	high _Disp7SegCC
  3276  000654  20F4               	addwfc	prodh,w,c
  3277  000656  6EDA               	movwf	fsr2h,c
  3278  000658  50DF               	movf	indf2,w,c
  3279  00065A  6E83               	movwf	3971,c	;volatile
  3280                           
  3281                           ;main.c: 187: _delay((unsigned long)((8)*(8000000/4000.0)));
  3282  00065C  0E15               	movlw	21
  3283  00065E  6E09               	movwf	??i2_PrintTwoDisp& (0+255),c
  3284  000660  0EC6               	movlw	198
  3285  000662                     i2u232_47:
  3286  000662  2EE8               	decfsz	wreg,f,c
  3287  000664  D7FE               	goto	i2u232_47
  3288  000666  2E09               	decfsz	??i2_PrintTwoDisp& (0+255),f,c
  3289  000668  D7FC               	goto	i2u232_47
  3290  00066A  D000               	nop2	
  3291  00066C  2A0D               	incf	i2PrintTwoDisp@n,f,c
  3292  00066E  D7D2               	goto	i2l1790
  3293  000670                     i2l86:
  3294  000670  0012               	return		;funcret
  3295  000672                     __end_ofi2_PrintTwoDisp:
  3296                           	opt stack 0
  3297                           pclatu	equ	0xFFB
  3298                           pclath	equ	0xFFA
  3299                           tblptru	equ	0xFF8
  3300                           tblptrh	equ	0xFF7
  3301                           tblptrl	equ	0xFF6
  3302                           tablat	equ	0xFF5
  3303                           prodh	equ	0xFF4
  3304                           prodl	equ	0xFF3
  3305                           intcon	equ	0xFF2
  3306                           postinc0	equ	0xFEE
  3307                           fsr0h	equ	0xFEA
  3308                           fsr0l	equ	0xFE9
  3309                           wreg	equ	0xFE8
  3310                           postdec1	equ	0xFE5
  3311                           fsr1h	equ	0xFE2
  3312                           fsr1l	equ	0xFE1
  3313                           indf2	equ	0xFDF
  3314                           postinc2	equ	0xFDE
  3315                           postdec2	equ	0xFDD
  3316                           fsr2h	equ	0xFDA
  3317                           fsr2l	equ	0xFD9
  3318                           status	equ	0xFD8
  3319                           
  3320 ;; *************** function i2___awmod *****************
  3321 ;; Defined at:
  3322 ;;		line 8 in file "C:\Program Files (x86)\Microchip\xc8\v1.34\sources\common\awmod.c"
  3323 ;; Parameters:    Size  Location     Type
  3324 ;;  dividend        2    0[COMRAM] int 
  3325 ;;  divisor         2    2[COMRAM] int 
  3326 ;; Auto vars:     Size  Location     Type
  3327 ;;  __awmod         1    5[COMRAM] unsigned char 
  3328 ;;  __awmod         1    4[COMRAM] unsigned char 
  3329 ;; Return value:  Size  Location     Type
  3330 ;;                  2    0[COMRAM] int 
  3331 ;; Registers used:
  3332 ;;		wreg, status,2, status,0
  3333 ;; Tracked objects:
  3334 ;;		On entry : 0/0
  3335 ;;		On exit  : 0/0
  3336 ;;		Unchanged: 0/0
  3337 ;; Data sizes:     COMRAM   BANK0   BANK1   BANK2   BANK3   BANK4   BANK5
  3338 ;;      Params:         4       0       0       0       0       0       0
  3339 ;;      Locals:         2       0       0       0       0       0       0
  3340 ;;      Temps:          0       0       0       0       0       0       0
  3341 ;;      Totals:         6       0       0       0       0       0       0
  3342 ;;Total ram usage:        6 bytes
  3343 ;; Hardware stack levels used:    1
  3344 ;; This function calls:
  3345 ;;		Nothing
  3346 ;; This function is called by:
  3347 ;;		i2_PrintTwoDisp
  3348 ;; This function uses a non-reentrant model
  3349 ;;
  3350                           
  3351                           	psect	text22
  3352  0009CA                     __ptext22:
  3353                           	opt stack 0
  3354  0009CA                     i2___awmod:
  3355                           	opt stack 23
  3356                           
  3357                           ;incstack = 0
  3358  0009CA  0E00               	movlw	0
  3359  0009CC  6E06               	movwf	i2___awmod@sign,c
  3360  0009CE  AE02               	btfss	i2___awmod@dividend+1,7,c
  3361  0009D0  D007               	goto	i2l1698
  3362  0009D2  6C01               	negf	i2___awmod@dividend,c
  3363  0009D4  1E02               	comf	i2___awmod@dividend+1,f,c
  3364  0009D6  B0D8               	btfsc	status,0,c
  3365  0009D8  2A02               	incf	i2___awmod@dividend+1,f,c
  3366  0009DA  0E01               	movlw	1
  3367  0009DC  6E06               	movwf	i2___awmod@sign,c
  3368  0009DE  D000               	goto	i2l1698
  3369  0009E0                     i2l1698:
  3370  0009E0  AE04               	btfss	i2___awmod@divisor+1,7,c
  3371  0009E2  D005               	goto	i2l1702
  3372  0009E4  6C03               	negf	i2___awmod@divisor,c
  3373  0009E6  1E04               	comf	i2___awmod@divisor+1,f,c
  3374  0009E8  B0D8               	btfsc	status,0,c
  3375  0009EA  2A04               	incf	i2___awmod@divisor+1,f,c
  3376  0009EC  D000               	goto	i2l1702
  3377  0009EE                     i2l1702:
  3378  0009EE  5003               	movf	i2___awmod@divisor,w,c
  3379  0009F0  1004               	iorwf	i2___awmod@divisor+1,w,c
  3380  0009F2  B4D8               	btfsc	status,2,c
  3381  0009F4  D01D               	goto	i2l1718
  3382  0009F6  0E01               	movlw	1
  3383  0009F8  6E05               	movwf	i2___awmod@counter,c
  3384  0009FA  D005               	goto	i2l1708
  3385  0009FC                     i2l1706:
  3386  0009FC  90D8               	bcf	status,0,c
  3387  0009FE  3603               	rlcf	i2___awmod@divisor,f,c
  3388  000A00  3604               	rlcf	i2___awmod@divisor+1,f,c
  3389  000A02  2A05               	incf	i2___awmod@counter,f,c
  3390  000A04  D000               	goto	i2l1708
  3391  000A06                     i2l1708:
  3392  000A06  BE04               	btfsc	i2___awmod@divisor+1,7,c
  3393  000A08  D002               	goto	i2l1710
  3394  000A0A  D7F8               	goto	i2l1706
  3395  000A0C  D000               	goto	i2l1710
  3396  000A0E                     i2l1710:
  3397  000A0E  5003               	movf	i2___awmod@divisor,w,c
  3398  000A10  5C01               	subwf	i2___awmod@dividend,w,c
  3399  000A12  5004               	movf	i2___awmod@divisor+1,w,c
  3400  000A14  5802               	subwfb	i2___awmod@dividend+1,w,c
  3401  000A16  A0D8               	btfss	status,0,c
  3402  000A18  D005               	goto	i2l1714
  3403  000A1A  5003               	movf	i2___awmod@divisor,w,c
  3404  000A1C  5E01               	subwf	i2___awmod@dividend,f,c
  3405  000A1E  5004               	movf	i2___awmod@divisor+1,w,c
  3406  000A20  5A02               	subwfb	i2___awmod@dividend+1,f,c
  3407  000A22  D000               	goto	i2l1714
  3408  000A24                     i2l1714:
  3409  000A24  90D8               	bcf	status,0,c
  3410  000A26  3204               	rrcf	i2___awmod@divisor+1,f,c
  3411  000A28  3203               	rrcf	i2___awmod@divisor,f,c
  3412  000A2A  2E05               	decfsz	i2___awmod@counter,f,c
  3413  000A2C  D7F0               	goto	i2l1710
  3414  000A2E  D000               	goto	i2l1718
  3415  000A30                     i2l1718:
  3416  000A30  5006               	movf	i2___awmod@sign,w,c
  3417  000A32  B4D8               	btfsc	status,2,c
  3418  000A34  D005               	goto	i2l1722
  3419  000A36  6C01               	negf	i2___awmod@dividend,c
  3420  000A38  1E02               	comf	i2___awmod@dividend+1,f,c
  3421  000A3A  B0D8               	btfsc	status,0,c
  3422  000A3C  2A02               	incf	i2___awmod@dividend+1,f,c
  3423  000A3E  D000               	goto	i2l1722
  3424  000A40                     i2l1722:
  3425  000A40  C001  F001         	movff	i2___awmod@dividend,?i2___awmod
  3426  000A44  C002  F002         	movff	i2___awmod@dividend+1,?i2___awmod+1
  3427  000A48  D000               	goto	i2l303
  3428  000A4A                     i2l303:
  3429  000A4A  0012               	return		;funcret
  3430  000A4C                     __end_ofi2___awmod:
  3431                           	opt stack 0
  3432                           pclatu	equ	0xFFB
  3433                           pclath	equ	0xFFA
  3434                           tblptru	equ	0xFF8
  3435                           tblptrh	equ	0xFF7
  3436                           tblptrl	equ	0xFF6
  3437                           tablat	equ	0xFF5
  3438                           prodh	equ	0xFF4
  3439                           prodl	equ	0xFF3
  3440                           intcon	equ	0xFF2
  3441                           postinc0	equ	0xFEE
  3442                           fsr0h	equ	0xFEA
  3443                           fsr0l	equ	0xFE9
  3444                           wreg	equ	0xFE8
  3445                           postdec1	equ	0xFE5
  3446                           fsr1h	equ	0xFE2
  3447                           fsr1l	equ	0xFE1
  3448                           indf2	equ	0xFDF
  3449                           postinc2	equ	0xFDE
  3450                           postdec2	equ	0xFDD
  3451                           fsr2h	equ	0xFDA
  3452                           fsr2l	equ	0xFD9
  3453                           status	equ	0xFD8
  3454                           
  3455 ;; *************** function i2___awdiv *****************
  3456 ;; Defined at:
  3457 ;;		line 8 in file "C:\Program Files (x86)\Microchip\xc8\v1.34\sources\common\awdiv.c"
  3458 ;; Parameters:    Size  Location     Type
  3459 ;;  dividend        2    0[COMRAM] int 
  3460 ;;  divisor         2    2[COMRAM] int 
  3461 ;; Auto vars:     Size  Location     Type
  3462 ;;  __awdiv         2    6[COMRAM] int 
  3463 ;;  __awdiv         1    5[COMRAM] unsigned char 
  3464 ;;  __awdiv         1    4[COMRAM] unsigned char 
  3465 ;; Return value:  Size  Location     Type
  3466 ;;                  2    0[COMRAM] int 
  3467 ;; Registers used:
  3468 ;;		wreg, status,2, status,0
  3469 ;; Tracked objects:
  3470 ;;		On entry : 0/0
  3471 ;;		On exit  : 0/0
  3472 ;;		Unchanged: 0/0
  3473 ;; Data sizes:     COMRAM   BANK0   BANK1   BANK2   BANK3   BANK4   BANK5
  3474 ;;      Params:         4       0       0       0       0       0       0
  3475 ;;      Locals:         4       0       0       0       0       0       0
  3476 ;;      Temps:          0       0       0       0       0       0       0
  3477 ;;      Totals:         8       0       0       0       0       0       0
  3478 ;;Total ram usage:        8 bytes
  3479 ;; Hardware stack levels used:    1
  3480 ;; This function calls:
  3481 ;;		Nothing
  3482 ;; This function is called by:
  3483 ;;		i2_PrintTwoDisp
  3484 ;; This function uses a non-reentrant model
  3485 ;;
  3486                           
  3487                           	psect	text23
  3488  00079E                     __ptext23:
  3489                           	opt stack 0
  3490  00079E                     i2___awdiv:
  3491                           	opt stack 23
  3492                           
  3493                           ;incstack = 0
  3494  00079E  0E00               	movlw	0
  3495  0007A0  6E06               	movwf	i2___awdiv@sign,c
  3496  0007A2  AE04               	btfss	i2___awdiv@divisor+1,7,c
  3497  0007A4  D007               	goto	i2l1654
  3498  0007A6  6C03               	negf	i2___awdiv@divisor,c
  3499  0007A8  1E04               	comf	i2___awdiv@divisor+1,f,c
  3500  0007AA  B0D8               	btfsc	status,0,c
  3501  0007AC  2A04               	incf	i2___awdiv@divisor+1,f,c
  3502  0007AE  0E01               	movlw	1
  3503  0007B0  6E06               	movwf	i2___awdiv@sign,c
  3504  0007B2  D000               	goto	i2l1654
  3505  0007B4                     i2l1654:
  3506  0007B4  AE02               	btfss	i2___awdiv@dividend+1,7,c
  3507  0007B6  D007               	goto	i2l1660
  3508  0007B8  6C01               	negf	i2___awdiv@dividend,c
  3509  0007BA  1E02               	comf	i2___awdiv@dividend+1,f,c
  3510  0007BC  B0D8               	btfsc	status,0,c
  3511  0007BE  2A02               	incf	i2___awdiv@dividend+1,f,c
  3512  0007C0  0E01               	movlw	1
  3513  0007C2  1A06               	xorwf	i2___awdiv@sign,f,c
  3514  0007C4  D000               	goto	i2l1660
  3515  0007C6                     i2l1660:
  3516  0007C6  0E00               	movlw	0
  3517  0007C8  6E08               	movwf	i2___awdiv@quotient+1,c
  3518  0007CA  0E00               	movlw	0
  3519  0007CC  6E07               	movwf	i2___awdiv@quotient,c
  3520  0007CE  5003               	movf	i2___awdiv@divisor,w,c
  3521  0007D0  1004               	iorwf	i2___awdiv@divisor+1,w,c
  3522  0007D2  B4D8               	btfsc	status,2,c
  3523  0007D4  D021               	goto	i2l1682
  3524  0007D6  0E01               	movlw	1
  3525  0007D8  6E05               	movwf	i2___awdiv@counter,c
  3526  0007DA  D005               	goto	i2l1668
  3527  0007DC                     i2l1666:
  3528  0007DC  90D8               	bcf	status,0,c
  3529  0007DE  3603               	rlcf	i2___awdiv@divisor,f,c
  3530  0007E0  3604               	rlcf	i2___awdiv@divisor+1,f,c
  3531  0007E2  2A05               	incf	i2___awdiv@counter,f,c
  3532  0007E4  D000               	goto	i2l1668
  3533  0007E6                     i2l1668:
  3534  0007E6  BE04               	btfsc	i2___awdiv@divisor+1,7,c
  3535  0007E8  D002               	goto	i2l1670
  3536  0007EA  D7F8               	goto	i2l1666
  3537  0007EC  D000               	goto	i2l1670
  3538  0007EE                     i2l1670:
  3539  0007EE  90D8               	bcf	status,0,c
  3540  0007F0  3607               	rlcf	i2___awdiv@quotient,f,c
  3541  0007F2  3608               	rlcf	i2___awdiv@quotient+1,f,c
  3542  0007F4  5003               	movf	i2___awdiv@divisor,w,c
  3543  0007F6  5C01               	subwf	i2___awdiv@dividend,w,c
  3544  0007F8  5004               	movf	i2___awdiv@divisor+1,w,c
  3545  0007FA  5802               	subwfb	i2___awdiv@dividend+1,w,c
  3546  0007FC  A0D8               	btfss	status,0,c
  3547  0007FE  D006               	goto	i2l1678
  3548  000800  5003               	movf	i2___awdiv@divisor,w,c
  3549  000802  5E01               	subwf	i2___awdiv@dividend,f,c
  3550  000804  5004               	movf	i2___awdiv@divisor+1,w,c
  3551  000806  5A02               	subwfb	i2___awdiv@dividend+1,f,c
  3552  000808  8007               	bsf	i2___awdiv@quotient,0,c
  3553  00080A  D000               	goto	i2l1678
  3554  00080C                     i2l1678:
  3555  00080C  90D8               	bcf	status,0,c
  3556  00080E  3204               	rrcf	i2___awdiv@divisor+1,f,c
  3557  000810  3203               	rrcf	i2___awdiv@divisor,f,c
  3558  000812  2E05               	decfsz	i2___awdiv@counter,f,c
  3559  000814  D7EC               	goto	i2l1670
  3560  000816  D000               	goto	i2l1682
  3561  000818                     i2l1682:
  3562  000818  5006               	movf	i2___awdiv@sign,w,c
  3563  00081A  B4D8               	btfsc	status,2,c
  3564  00081C  D005               	goto	i2l1686
  3565  00081E  6C07               	negf	i2___awdiv@quotient,c
  3566  000820  1E08               	comf	i2___awdiv@quotient+1,f,c
  3567  000822  B0D8               	btfsc	status,0,c
  3568  000824  2A08               	incf	i2___awdiv@quotient+1,f,c
  3569  000826  D000               	goto	i2l1686
  3570  000828                     i2l1686:
  3571  000828  C007  F001         	movff	i2___awdiv@quotient,?i2___awdiv
  3572  00082C  C008  F002         	movff	i2___awdiv@quotient+1,?i2___awdiv+1
  3573  000830  D000               	goto	i2l290
  3574  000832                     i2l290:
  3575  000832  0012               	return		;funcret
  3576  000834                     __end_ofi2___awdiv:
  3577                           	opt stack 0
  3578  0000                     pclatu	equ	0xFFB
  3579                           pclath	equ	0xFFA
  3580                           tblptru	equ	0xFF8
  3581                           tblptrh	equ	0xFF7
  3582                           tblptrl	equ	0xFF6
  3583                           tablat	equ	0xFF5
  3584                           prodh	equ	0xFF4
  3585                           prodl	equ	0xFF3
  3586                           intcon	equ	0xFF2
  3587                           postinc0	equ	0xFEE
  3588                           fsr0h	equ	0xFEA
  3589                           fsr0l	equ	0xFE9
  3590                           wreg	equ	0xFE8
  3591                           postdec1	equ	0xFE5
  3592                           fsr1h	equ	0xFE2
  3593                           fsr1l	equ	0xFE1
  3594                           indf2	equ	0xFDF
  3595                           postinc2	equ	0xFDE
  3596                           postdec2	equ	0xFDD
  3597                           fsr2h	equ	0xFDA
  3598                           fsr2l	equ	0xFD9
  3599                           status	equ	0xFD8
  3600                           pclatu	equ	0xFFB
  3601                           pclath	equ	0xFFA
  3602                           tblptru	equ	0xFF8
  3603                           tblptrh	equ	0xFF7
  3604                           tblptrl	equ	0xFF6
  3605                           tablat	equ	0xFF5
  3606                           prodh	equ	0xFF4
  3607                           prodl	equ	0xFF3
  3608                           intcon	equ	0xFF2
  3609                           postinc0	equ	0xFEE
  3610                           fsr0h	equ	0xFEA
  3611                           fsr0l	equ	0xFE9
  3612                           wreg	equ	0xFE8
  3613                           postdec1	equ	0xFE5
  3614                           fsr1h	equ	0xFE2
  3615                           fsr1l	equ	0xFE1
  3616                           indf2	equ	0xFDF
  3617                           postinc2	equ	0xFDE
  3618                           postdec2	equ	0xFDD
  3619                           fsr2h	equ	0xFDA
  3620                           fsr2l	equ	0xFD9
  3621                           status	equ	0xFD8
  3622                           
  3623                           	psect	rparam
  3624  0000                     pclatu	equ	0xFFB
  3625                           pclath	equ	0xFFA
  3626                           tblptru	equ	0xFF8
  3627                           tblptrh	equ	0xFF7
  3628                           tblptrl	equ	0xFF6
  3629                           tablat	equ	0xFF5
  3630                           prodh	equ	0xFF4
  3631                           prodl	equ	0xFF3
  3632                           intcon	equ	0xFF2
  3633                           postinc0	equ	0xFEE
  3634                           fsr0h	equ	0xFEA
  3635                           fsr0l	equ	0xFE9
  3636                           wreg	equ	0xFE8
  3637                           postdec1	equ	0xFE5
  3638                           fsr1h	equ	0xFE2
  3639                           fsr1l	equ	0xFE1
  3640                           indf2	equ	0xFDF
  3641                           postinc2	equ	0xFDE
  3642                           postdec2	equ	0xFDD
  3643                           fsr2h	equ	0xFDA
  3644                           fsr2l	equ	0xFD9
  3645                           status	equ	0xFD8


Data Sizes:
    Strings     0
    Constant    0
    Data        11
    BSS         2
    Persistent  5
    Stack       0

Auto Spaces:
    Space          Size  Autos    Used
    COMRAM          127     79      97
    BANK0           128      3       3
    BANK1           256      0       0
    BANK2           256      0       0
    BANK3           256      0       0
    BANK4           256      0       0
    BANK5           256      0       0

Pointer List with Targets:

    frexp@eptr	PTR int  size(2) Largest target is 2
		 -> trunc@expon(COMRAM[2]), 


Critical Paths under _main in COMRAM

    ___lbtoft->___ftpack
    ___ftge->___lbtoft
    _PrintTwoDisp->___awdiv
    _MedirTemperatura->_round
    _round->___ftadd
    _trunc->___altoft
    ___altoft->___fttol
    ___ftneg->_trunc
    ___ftadd->___ftneg
    ___lwtoft->___ftpack
    ___ftmul->___lwtoft

Critical Paths under _PortBInt in COMRAM

    _PortBInt->i2_PrintTwoDisp
    i2_PrintTwoDisp->i2___awdiv

Critical Paths under _main in BANK0

    _MedirTemperatura->_round

Critical Paths under _PortBInt in BANK0

    None.

Critical Paths under _main in BANK1

    None.

Critical Paths under _PortBInt in BANK1

    None.

Critical Paths under _main in BANK2

    None.

Critical Paths under _PortBInt in BANK2

    None.

Critical Paths under _main in BANK3

    None.

Critical Paths under _PortBInt in BANK3

    None.

Critical Paths under _main in BANK4

    None.

Critical Paths under _PortBInt in BANK4

    None.

Critical Paths under _main in BANK5

    None.

Critical Paths under _PortBInt in BANK5

    None.

Call Graph Tables:

 ---------------------------------------------------------------------------------
 (Depth) Function   	        Calls       Base Space   Used Autos Params    Refs
 ---------------------------------------------------------------------------------
 (0) _main                                                 0     0      0   16824
                   _MedirTemperatura
                       _PrintTwoDisp
                              _SetUp
                          _SetUp_ADC
                             ___ftge
                            ___fttol
                           ___lbtoft
 ---------------------------------------------------------------------------------
 (1) ___lbtoft                                             4     1      3    2159
                                             36 COMRAM     4     1      3
                           ___ftpack
 ---------------------------------------------------------------------------------
 (1) ___ftge                                               9     3      6     242
                                             40 COMRAM     9     3      6
                           ___lbtoft (ARG)
 ---------------------------------------------------------------------------------
 (1) _SetUp_ADC                                            0     0      0       0
 ---------------------------------------------------------------------------------
 (1) _SetUp                                                0     0      0       0
 ---------------------------------------------------------------------------------
 (1) _PrintTwoDisp                                         5     5      0     991
                                             36 COMRAM     5     5      0
                            ___awdiv
                            ___awmod
 ---------------------------------------------------------------------------------
 (2) ___awmod                                              6     2      4     402
                                             28 COMRAM     6     2      4
 ---------------------------------------------------------------------------------
 (2) ___awdiv                                              8     4      4     406
                                             28 COMRAM     8     4      4
 ---------------------------------------------------------------------------------
 (1) _MedirTemperatura                                     0     0      0   12931
                             _GetADC
                            ___ftmul
                           ___lwtoft
                              _round
 ---------------------------------------------------------------------------------
 (2) _round                                                6     3      3    7849
                                             76 COMRAM     3     0      3
                                              0 BANK0      3     3      0
                            ___ftadd
                            ___ftneg
                              _trunc
 ---------------------------------------------------------------------------------
 (3) _trunc                                                8     5      3    3700
                                             53 COMRAM     8     5      3
                           ___altoft
                            ___fttol
                              _frexp
 ---------------------------------------------------------------------------------
 (4) _frexp                                                7     2      5     428
                                             28 COMRAM     7     2      5
 ---------------------------------------------------------------------------------
 (1) ___fttol                                             15    11      4     501
                                             28 COMRAM    15    11      4
 ---------------------------------------------------------------------------------
 (4) ___altoft                                            10     6      4    2397
                                             43 COMRAM    10     6      4
                           ___ftpack
                            ___fttol (ARG)
 ---------------------------------------------------------------------------------
 (3) ___ftneg                                              3     0      3     130
                                             61 COMRAM     3     0      3
                              _trunc (ARG)
 ---------------------------------------------------------------------------------
 (3) ___ftadd                                             12     6      6    3793
                                             64 COMRAM    12     6      6
                            ___ftneg (ARG)
                           ___ftpack
                              _trunc (ARG)
 ---------------------------------------------------------------------------------
 (2) ___lwtoft                                             3     0      3    2224
                                             36 COMRAM     3     0      3
                           ___ftpack
 ---------------------------------------------------------------------------------
 (2) ___ftmul                                             15     9      6    2836
                                             39 COMRAM    15     9      6
                           ___ftpack
                           ___lwtoft (ARG)
 ---------------------------------------------------------------------------------
 (2) ___ftpack                                             8     3      5    2128
                                             28 COMRAM     8     3      5
 ---------------------------------------------------------------------------------
 (2) _GetADC                                               5     3      2      22
                                             28 COMRAM     5     3      2
 ---------------------------------------------------------------------------------
 Estimated maximum stack depth 4
 ---------------------------------------------------------------------------------
 (Depth) Function   	        Calls       Base Space   Used Autos Params    Refs
 ---------------------------------------------------------------------------------
 (6) _PortBInt                                            15    15      0     883
                                             13 COMRAM    15    15      0
                     i2_PrintTwoDisp
 ---------------------------------------------------------------------------------
 (7) i2_PrintTwoDisp                                       5     5      0     883
                                              8 COMRAM     5     5      0
                          i2___awdiv
                          i2___awmod
 ---------------------------------------------------------------------------------
 (8) i2___awmod                                            6     2      4     348
                                              0 COMRAM     6     2      4
 ---------------------------------------------------------------------------------
 (8) i2___awdiv                                            8     4      4     352
                                              0 COMRAM     8     4      4
 ---------------------------------------------------------------------------------
 Estimated maximum stack depth 8
 ---------------------------------------------------------------------------------

 Call Graph Graphs:

 _main (ROOT)
   _MedirTemperatura
     _GetADC
     ___ftmul
       ___ftpack
       ___lwtoft (ARG)
         ___ftpack
     ___lwtoft
       ___ftpack
     _round
       ___ftadd
         ___ftneg (ARG)
           _trunc (ARG)
             ___altoft
               ___ftpack
               ___fttol (ARG)
             ___fttol
             _frexp
         ___ftpack (ARG)
         _trunc (ARG)
           ___altoft
             ___ftpack
             ___fttol (ARG)
           ___fttol
           _frexp
       ___ftneg
         _trunc (ARG)
           ___altoft
             ___ftpack
             ___fttol (ARG)
           ___fttol
           _frexp
       _trunc
         ___altoft
           ___ftpack
           ___fttol (ARG)
         ___fttol
         _frexp
   _PrintTwoDisp
     ___awdiv
     ___awmod
   _SetUp
   _SetUp_ADC
   ___ftge
     ___lbtoft (ARG)
       ___ftpack
   ___fttol
   ___lbtoft
     ___ftpack

 _PortBInt (ROOT)
   i2_PrintTwoDisp
     i2___awdiv
     i2___awmod

 Address spaces:
Name               Size   Autos  Total    Cost      Usage
BIGRAM             5FF      0       0      17        0.0%
EEDATA             100      0       0       0        0.0%
BITBANK5           100      0       0      16        0.0%
BANK5              100      0       0      14        0.0%
BITBANK4           100      0       0      12        0.0%
BANK4              100      0       0      13        0.0%
BITBANK3           100      0       0      10        0.0%
BANK3              100      0       0      11        0.0%
BITBANK2           100      0       0       8        0.0%
BANK2              100      0       0       9        0.0%
BITBANK1           100      0       0       6        0.0%
BANK1              100      0       0       7        0.0%
BITBANK0            80      0       0       4        0.0%
BANK0               80      3       3       5        2.3%
BITCOMRAM           7F      0       0       0        0.0%
COMRAM              7F     4F      61       1       76.4%
BITSFR               0      0       0      40        0.0%
SFR                  0      0       0      40        0.0%
STACK                0      0       0       2        0.0%
NULL                 0      0       0       0        0.0%
ABS                  0      0      64      15        0.0%
DATA                 0      0      64       3        0.0%
CODE                 0      0       0       0        0.0%


Microchip Technology PIC18 Macro Assembler V1.34 build -361300703 
Symbol Table                                                                                   Fri May 01 11:20:14 2015

             ___altoft@exp 0034              ___altoft@sign 0035                         l60 0BF2  
                       l70 0BA2                         l73 0CBE                         l83 056C  
                       l67 0D00                         l76 0C12                         l84 0578  
                       l86 05CC                         l79 0C24               ___awdiv@sign 0022  
              __CFG_BORV$3 000000               __CFG_CP0$OFF 000000               __CFG_CP1$OFF 000000  
             __CFG_CP2$OFF 000000               __CFG_CP3$OFF 000000               ___ftadd@exp1 004C  
             ___ftadd@exp2 004B               ___ftadd@sign 004A                        l303 09C8  
                      l405 0482                        l502 0CD6                        l416 045A  
                      l513 03BC                        l194 0AC6                        l290 079C  
                      l460 014C                        l445 0060                        l446 01DE  
                      l449 008A                        l642 0C9A                        l492 02D6  
                      l660 0B40                        l469 0168                        l653 0946  
                      l549 0C74                        l486 0706                        l647 08C2  
             __CFG_CPB$OFF 000000               __CFG_CPD$OFF 000000               ___awmod@sign 0022  
                      prod 000FF3                        wreg 000FE8               __CFG_LVP$OFF 000000  
             __CFG_WDT$OFF 000000                       l2002 0186                       l2012 01B8  
                     l2110 0BAE                       l2032 0908                       l2052 01FE  
                     l2028 08EE                       l2054 0218                       l2080 0282  
                     l2072 025A                       l2090 02B0                       l2082 0288  
                     l2058 0226                       l1602 0792                       l2076 026C  
                     l2086 029A                       l1630 09A2                       l1622 097A  
                     l1614 095E                       l1624 0984                       l1570 071E  
                     l1626 098C                       l1634 09AE                       l1618 096C  
                     l1582 0746                       l1638 09BE                       l1742 0570  
                     l1840 03DE                       l1920 0388                       l1912 0360  
                     l1584 0750                       l1576 0730                       l1850 0442  
