Microchip MPLAB XC8 Compiler V1.31 ()

Linker command line:

--edf=C:\Program Files (x86)\Microchip\xc8\v1.31\dat\en_msgs.txt -cs \
  -h+dist/default/production\Interrupciones_01_PIC16F84A.X.production.sym \
  --cmf=dist/default/production\Interrupciones_01_PIC16F84A.X.production.cmf \
  -z -Q16F84A -oC:\Users\SEBAST~1\AppData\Local\Temp\s7o8.6 \
  -Mdist/default/production/Interrupciones_01_PIC16F84A.X.production.map \
  -E1 -ver=XC8 -ASTACK=015h-04dh -pstack=STACK -ACONST=00h-0FFhx4 \
  -ACODE=00h-03FFh -ASTRCODE=00h-03FFh -AENTRY=00h-0FFhx4 \
  -ASTRING=00h-0FFhx4 -ABANK0=0Ch-04Dh -ARAM=0Ch-04Dh -AABS1=0Ch-04Fh \
  -ACOMMON=04Eh-04Fh -ASFR0=00h-0Bh -ASFR1=080h-0CDh \
  -preset_vec=00h,intentry=04h,init,end_init -ppowerup=CODE -pcinit=CODE \
  -pfunctab=CODE -ACONFIG=02007h-02007h -pconfig=CONFIG -DCONFIG=2 \
  -AIDLOC=02000h-02003h -pidloc=IDLOC -DIDLOC=2 -AEEDATA=00h-03Fh/02100h \
  -peeprom_data=EEDATA -DEEDATA=2 -DCODE=2 -DSTRCODE=2 -DSTRING=2 -DCONST=2 \
  -DENTRY=2 -k C:\Users\SEBAST~1\AppData\Local\Temp\s7o8.obj \
  dist/default/production\Interrupciones_01_PIC16F84A.X.production.obj 

Object code version is 3.11

Machine type is 16F84A



                Name                               Link     Load   Length Selector   Space Scale
C:\Users\SEBAST~1\AppData\Local\Temp\s7o8.obj
                end_init                              F        F        1        8       0
                reset_vec                             0        0        1        0       0
                config                             2007     2007        1     400E       0
dist/default/production\Interrupciones_01_PIC16F84A.X.production.obj
                cinit                                10       10        3        8       0
                intentry                              4        4        B        8       0
                text1                                2E       2E       1B        8       0
                maintext                             13       13       1B        8       0
                cstackBANK0                           C        C        8        C       1
                bssBANK0                             14       14        1        C       1

TOTAL           Name                               Link     Load   Length     Space
        CLASS   STACK          

        CLASS   CONST          

        CLASS   CODE           
                end_init                              F        F        1         0
                cinit                                10       10        3         0
                intentry                              4        4        B         0
                reset_vec                             0        0        1         0
                text1                                2E       2E       1B         0
                maintext                             13       13       1B         0

        CLASS   STRCODE        

        CLASS   ENTRY          

        CLASS   STRING         

        CLASS   BANK0          
                cstackBANK0                           C        C        8         1
                bssBANK0                             14       14        1         1

        CLASS   RAM            

        CLASS   ABS1           
                abs_s1                               4E       4E        2         1

        CLASS   COMMON         

        CLASS   SFR0           

        CLASS   SFR1           

        CLASS   CONFIG         
                config                             2007     2007        1         0

        CLASS   IDLOC          

        CLASS   EEDATA         

        CLASS   BANK1          



SEGMENTS        Name                           Load    Length   Top    Selector   Space  Class     Delta

                reset_vec                      000000  000001  000001         0       0  CODE        2
                intentry                       000004  000045  000049         8       0  CODE        2
                cstackBANK0                    00000C  000009  000015         C       1  BANK0       1
                config                         002007  000001  002008      400E       0  CONFIG      2


UNUSED ADDRESS RANGES

        Name                Unused          Largest block    Delta
        BANK0            0015-004D             39           1
        CODE             0001-0003              3           2
                         0049-03FF            3B7
        CONST            0001-0003              3           2
                         0049-03FF            100
        EEDATA           2100-213F             40           2
        ENTRY            0001-0003              3           2
                         0049-03FF            100
        IDLOC            2000-2003              4           2
        RAM              0015-004D             39           1
        SFR0             0000-000B              C           1
        SFR1             0080-00CD             4E           1
        STACK            0015-004D             39           1
        STRCODE          0001-0003              3           2
                         0049-03FF            3B7
        STRING           0001-0003              3           2
                         0049-03FF            100

                                  Symbol Table

_AtencionInterrupciones          text1       002E
_INTCONbits                      (abs)       000B
_OPTION_REGbits                  (abs)       0081
_PORTA                           (abs)       0005
_PORTB                           (abs)       0006
_TRISA                           (abs)       0085
__CFG_CP$OFF                     (abs)       0000
__CFG_FOSC$HS                    (abs)       0000
__CFG_PWRTE$ON                   (abs)       0000
__CFG_WDTE$OFF                   (abs)       0000
__Habs1                          abs1        0000
__Hbank0                         bank0       0000
__Hbank1                         bank1       0000
__HbssBANK0                      bssBANK0    0000
__Hcinit                         cinit       0013
__Hclrtext                       clrtext     0000
__Hcode                          code        0000
__Hcommon                        common      0000
__Hconfig                        config      2008
__HcstackBANK0                   cstackBANK0 0000
__Heeprom_data                   eeprom_data 0000
__Hend_init                      end_init    0010
__Hfunctab                       functab     0000
__Hidloc                         idloc       0000
__Hinit                          init        000F
__Hintentry                      intentry    000F
__Hmaintext                      maintext    0000
__Hpowerup                       powerup     0000
__Hram                           ram         0000
__Hreset_vec                     reset_vec   0001
__Hsfr0                          sfr0        0000
__Hsfr1                          sfr1        0000
__Hstack                         stack       0000
__Hstrings                       strings     0000
__Htext                          text        0000
__Labs1                          abs1        0000
__Lbank0                         bank0       0000
__Lbank1                         bank1       0000
__LbssBANK0                      bssBANK0    0000
__Lcinit                         cinit       0010
__Lclrtext                       clrtext     0000
__Lcode                          code        0000
__Lcommon                        common      0000
__Lconfig                        config      2007
__LcstackBANK0                   cstackBANK0 0000
__Leeprom_data                   eeprom_data 0000
__Lend_init                      end_init    000F
__Lfunctab                       functab     0000
__Lidloc                         idloc       0000
__Linit                          init        000F
__Lintentry                      intentry    0004
__Lmaintext                      maintext    0000
__Lpowerup                       powerup     0000
__Lram                           ram         0000
__Lreset_vec                     reset_vec   0000
__Lsfr0                          sfr0        0000
__Lsfr1                          sfr1        0000
__Lstack                         stack       0000
__Lstrings                       strings     0000
__Ltext                          text        0000
__S0                             (abs)       2008
__S1                             (abs)       0015
__S2                             (abs)       0000
__S3                             (abs)       0000
___int_sp                        stack       0000
___latbits                       (abs)       0000
___sp                            stack       0000
__end_of_AtencionInterrupciones  text1       0049
__end_of__initialization         cinit       0011
__end_of_main                    maintext    002E
__initialization                 cinit       0010
__pbssBANK0                      bssBANK0    0014
__pcstackBANK0                   cstackBANK0 000C
__pintentry                      intentry    0004
__pmaintext                      maintext    0013
__ptext0                         text0       0000
__ptext1                         text1       002E
__size_of_AtencionInterrupciones (abs)       0000
__size_of_main                   (abs)       0000
_cuenta                          bssBANK0    0014
_main                            maintext    0013
btemp                            (abs)       004E
end_of_initialization            cinit       0011
interrupt_function               intentry    0004
intlevel0                        functab     0000
intlevel1                        functab     0000
intlevel2                        functab     0000
intlevel3                        functab     0000
intlevel4                        functab     0000
intlevel5                        functab     0000
ltemp                            (abs)       004E
ltemp0                           (abs)       004E
ltemp1                           (abs)       0052
ltemp2                           (abs)       0056
ltemp3                           (abs)       0050
reset_vec                        reset_vec   0000
saved_w                          (abs)       004E
stackhi                          (abs)       0000
stacklo                          (abs)       0000
start                            init        000F
start_initialization             cinit       0010
ttemp                            (abs)       004E
ttemp0                           (abs)       004E
ttemp1                           (abs)       0051
ttemp2                           (abs)       0054
ttemp3                           (abs)       0057
ttemp4                           (abs)       004F
wtemp                            (abs)       004E
wtemp0                           (abs)       004E
wtemp1                           (abs)       0050
wtemp2                           (abs)       0052
wtemp3                           (abs)       0054
wtemp4                           (abs)       0056
wtemp5                           (abs)       0058
wtemp6                           (abs)       004F


FUNCTION INFORMATION:

 *************** function _main *****************
 Defined at:
		line 19 in file "main.c"
 Parameters:    Size  Location     Type
		None
 Auto vars:     Size  Location     Type
		None
 Return value:  Size  Location     Type
		None               void
 Registers used:
		wreg, status,2, status,0
 Tracked objects:
		On entry : 
		On exit  : 
		Unchanged: 
 Data sizes:     COMMON   BANK0
      Params:         0       0
      Locals:         0       0
      Temps:          0       3
      Totals:         0       3
Total ram usage:        3 bytes
 Hardware stack levels required when called:    1
 This function calls:
		Nothing
 This function is called by:
		Startup code after reset
 This function uses a non-reentrant model


 *************** function _AtencionInterrupciones *****************
 Defined at:
		line 41 in file "main.c"
 Parameters:    Size  Location     Type
		None
 Auto vars:     Size  Location     Type
		None
 Return value:  Size  Location     Type
		None               void
 Registers used:
		wreg, status,2
 Tracked objects:
		On entry : 
		On exit  : 
		Unchanged: 
 Data sizes:     COMMON   BANK0
      Params:         0       0
      Locals:         0       0
      Temps:          0       5
      Totals:         0       5
Total ram usage:        5 bytes
 Hardware stack levels used:    1
 This function calls:
		Nothing
 This function is called by:
		Interrupt level 1
 This function uses a non-reentrant model



MODULE INFORMATION

Module		Function		Class		Link	Load	Size
shared
		__initializatio		CODE           	0010	0000	1

shared estimated size: 1

main.c
		_AtencionInterr		CODE           	002E	0000	27
		_main          		CODE           	0013	0000	27

main.c estimated size: 54

