

Microchip Technology PIC18 LITE Macro Assembler V1.34 build -361300703 
                                                                                               Fri Jun 26 13:17:59 2015

Microchip Technology Omniscient Code Generator (Lite mode) build 201502162209
     1                           	processor	18F87J11
     2                           	fnconf	rparam,??,?,0
     3                           	opt	pw 120
     4                           	opt	lm
     5                           	psect	mediumconst,global,reloc=2,class=MEDIUMCONST,delta=1
     6                           	psect	nvCOMRAM,global,class=COMRAM,space=1,delta=1
     7                           	psect	cinit,global,reloc=2,class=CODE,delta=1
     8                           	psect	bssCOMRAM,global,class=COMRAM,space=1,delta=1
     9                           	psect	bssBANK0,global,class=BANK0,space=1,delta=1
    10                           	psect	cstackBANK0,global,class=BANK0,space=1,delta=1
    11                           	psect	cstackCOMRAM,global,class=COMRAM,space=1,delta=1
    12                           	psect	text0,global,reloc=2,class=CODE,delta=1
    13                           	psect	text1,global,reloc=2,class=CODE,delta=1
    14                           	psect	text2,global,reloc=2,class=CODE,delta=1
    15                           	psect	text3,global,reloc=2,class=CODE,delta=1
    16                           	psect	text4,global,reloc=2,class=CODE,delta=1
    17                           	psect	text5,global,reloc=2,class=CODE,delta=1
    18                           	psect	text6,global,reloc=2,class=CODE,delta=1
    19                           	psect	text7,global,reloc=2,class=CODE,delta=1
    20                           	psect	text8,global,reloc=2,class=CODE,delta=1
    21                           	psect	text9,global,reloc=2,class=CODE,delta=1
    22                           	psect	text10,global,reloc=2,class=CODE,delta=1
    23                           	psect	text11,global,reloc=2,class=CODE,delta=1
    24                           	psect	text12,global,reloc=2,class=CODE,delta=1
    25                           	psect	text13,global,reloc=2,class=CODE,delta=1
    26                           	psect	text14,global,reloc=2,class=CODE,delta=1
    27                           	psect	text15,global,reloc=2,class=CODE,delta=1
    28                           	psect	text16,global,reloc=2,class=CODE,delta=1
    29                           	psect	text17,global,reloc=2,class=CODE,delta=1
    30                           	psect	text18,global,reloc=2,class=CODE,delta=1
    31                           	psect	text19,global,reloc=2,class=CODE,delta=1
    32                           	psect	text20,global,reloc=2,class=CODE,delta=1
    33                           	psect	text21,global,reloc=2,class=CODE,delta=1
    34                           	psect	text22,global,reloc=2,class=CODE,delta=1
    35                           	psect	text23,global,reloc=2,class=CODE,delta=1
    36                           	psect	text24,global,reloc=2,class=CODE,delta=1
    37                           	psect	text25,global,reloc=2,class=CODE,delta=1
    38                           	psect	text26,global,reloc=2,class=CODE,delta=1
    39                           	psect	text27,global,reloc=2,class=CODE,delta=1
    40                           	psect	text28,global,reloc=2,class=CODE,delta=1
    41                           	psect	text29,global,reloc=2,class=CODE,delta=1
    42                           	psect	text30,global,reloc=2,class=CODE,delta=1
    43                           	psect	text31,global,reloc=2,class=CODE,delta=1
    44                           	psect	text32,global,reloc=2,class=CODE,delta=1
    45                           	psect	text33,global,reloc=2,class=CODE,delta=1
    46                           	psect	text34,global,reloc=2,class=CODE,delta=1
    47                           	psect	text35,global,reloc=2,class=CODE,delta=1
    48                           	psect	text36,global,reloc=2,class=CODE,delta=1
    49                           	psect	text37,global,reloc=2,class=CODE,delta=1
    50                           	psect	text38,global,reloc=2,class=CODE,delta=1
    51                           	psect	text39,global,reloc=2,class=CODE,delta=1
    52                           	psect	text40,global,reloc=2,class=CODE,delta=1
    53                           	psect	text41,global,reloc=2,class=CODE,delta=1
    54                           	psect	text42,global,reloc=2,class=CODE,delta=1
    55                           	psect	text43,global,reloc=2,class=CODE,delta=1
    56                           	psect	text44,global,reloc=2,class=CODE,delta=1
    57                           	psect	text45,global,reloc=2,class=CODE,delta=1
    58                           	psect	text46,global,reloc=2,class=CODE,delta=1
    59                           	psect	text47,global,reloc=2,class=CODE,delta=1
    60                           	psect	text48,global,reloc=2,class=CODE,delta=1
    61                           	psect	text49,global,reloc=2,class=CODE,delta=1
    62                           	psect	text50,global,reloc=2,class=CODE,delta=1
    63                           	psect	text51,global,reloc=2,class=CODE,delta=1
    64                           	psect	text52,global,reloc=2,class=CODE,delta=1
    65                           	psect	text53,global,reloc=2,class=CODE,delta=1
    66                           	psect	text54,global,reloc=2,class=CODE,delta=1
    67                           	psect	text55,global,reloc=2,class=CODE,delta=1
    68                           	psect	text56,global,reloc=2,class=CODE,delta=1
    69                           	psect	text57,global,reloc=2,class=CODE,delta=1
    70                           	psect	intcode,global,reloc=2,class=CODE,delta=1
    71                           	psect	text59,global,reloc=2,class=CODE,delta=1
    72                           	psect	intsave_regs,global,class=BIGRAM,space=1,delta=1
    73                           	psect	rparam,global,class=COMRAM,space=1,delta=1
    74  0000                     
    75                           	psect	mediumconst
    76  00FDEC                     __pmediumconst:
    77                           	opt stack 0
    78  00FDEC  00                 	db	0
    79  00FDED                     _dpowers:
    80                           	opt stack 0
    81  00FDED  0001               	dw	1
    82  00FDEF  0000               	dw	0
    83  00FDF1  000A               	dw	10
    84  00FDF3  0000               	dw	0
    85  00FDF5  0064               	dw	100
    86  00FDF7  0000               	dw	0
    87  00FDF9  03E8               	dw	1000
    88  00FDFB  0000               	dw	0
    89  00FDFD  2710               	dw	10000
    90  00FDFF  0000               	dw	0
    91  00FE01  86A0               	dw	34464
    92  00FE03  0001               	dw	1
    93  00FE05  4240               	dw	16960
    94  00FE07  000F               	dw	15
    95  00FE09  9680               	dw	38528
    96  00FE0B  0098               	dw	152
    97  00FE0D  E100               	dw	57600
    98  00FE0F  05F5               	dw	1525
    99  00FE11  CA00               	dw	51712
   100  00FE13  3B9A               	dw	15258
   101  00FE15                     __end_of_dpowers:
   102                           	opt stack 0
   103  00FE15                     __npowers_:
   104                           	opt stack 0
   105  00FE15  00                 	db	0
   106  00FE16  80                 	db	128
   107  00FE17  3F                 	db	63
   108  00FE18  CD                 	db	205
   109  00FE19  CC                 	db	204
   110  00FE1A  3D                 	db	61
   111  00FE1B  D7                 	db	215
   112  00FE1C  23                 	db	35
   113  00FE1D  3C                 	db	60
   114  00FE1E  12                 	db	18
   115  00FE1F  83                 	db	131
   116  00FE20  3A                 	db	58
   117  00FE21  B7                 	db	183
   118  00FE22  D1                 	db	209
   119  00FE23  38                 	db	56
   120  00FE24  C6                 	db	198
   121  00FE25  27                 	db	39
   122  00FE26  37                 	db	55
   123  00FE27  38                 	db	56
   124  00FE28  86                 	db	134
   125  00FE29  35                 	db	53
   126  00FE2A  C0                 	db	192
   127  00FE2B  D6                 	db	214
   128  00FE2C  33                 	db	51
   129  00FE2D  CC                 	db	204
   130  00FE2E  2B                 	db	43
   131  00FE2F  32                 	db	50
   132  00FE30  70                 	db	112
   133  00FE31  89                 	db	137
   134  00FE32  30                 	db	48
   135  00FE33  E7                 	db	231
   136  00FE34  DB                 	db	219
   137  00FE35  2E                 	db	46
   138  00FE36  E5                 	db	229
   139  00FE37  3C                 	db	60
   140  00FE38  1E                 	db	30
   141  00FE39  42                 	db	66
   142  00FE3A  A2                 	db	162
   143  00FE3B  0D                 	db	13
   144  00FE3C                     __end_of__npowers_:
   145                           	opt stack 0
   146  00FE3C                     __powers_:
   147                           	opt stack 0
   148  00FE3C  00                 	db	0
   149  00FE3D  80                 	db	128
   150  00FE3E  3F                 	db	63
   151  00FE3F  00                 	db	0
   152  00FE40  20                 	db	32
   153  00FE41  41                 	db	65
   154  00FE42  00                 	db	0
   155  00FE43  C8                 	db	200
   156  00FE44  42                 	db	66
   157  00FE45  00                 	db	0
   158  00FE46  7A                 	db	122
   159  00FE47  44                 	db	68
   160  00FE48  40                 	db	64
   161  00FE49  1C                 	db	28
   162  00FE4A  46                 	db	70
   163  00FE4B  50                 	db	80
   164  00FE4C  C3                 	db	195
   165  00FE4D  47                 	db	71
   166  00FE4E  24                 	db	36
   167  00FE4F  74                 	db	116
   168  00FE50  49                 	db	73
   169  00FE51  97                 	db	151
   170  00FE52  18                 	db	24
   171  00FE53  4B                 	db	75
   172  00FE54  BC                 	db	188
   173  00FE55  BE                 	db	190
   174  00FE56  4C                 	db	76
   175  00FE57  6B                 	db	107
   176  00FE58  6E                 	db	110
   177  00FE59  4E                 	db	78
   178  00FE5A  03                 	db	3
   179  00FE5B  15                 	db	21
   180  00FE5C  50                 	db	80
   181  00FE5D  79                 	db	121
   182  00FE5E  AD                 	db	173
   183  00FE5F  60                 	db	96
   184  00FE60  F3                 	db	243
   185  00FE61  49                 	db	73
   186  00FE62  71                 	db	113
   187  00FE63                     __end_of__powers_:
   188                           	opt stack 0
   189  00FE63                     STR_32:
   190                           
   191                           ; BSR set to: 0
   192  00FE63  20                 	db	32
   193  00FE64  50                 	db	80	;'P'
   194  00FE65  49                 	db	73	;'I'
   195  00FE66  43                 	db	67	;'C'
   196  00FE67  31                 	db	49	;'1'
   197  00FE68  38                 	db	56	;'8'
   198  00FE69  20                 	db	32
   199  00FE6A  45                 	db	69	;'E'
   200  00FE6B  78                 	db	120	;'x'
   201  00FE6C  70                 	db	112	;'p'
   202  00FE6D  6C                 	db	108	;'l'
   203  00FE6E  6F                 	db	111	;'o'
   204  00FE6F  72                 	db	114	;'r'
   205  00FE70  65                 	db	101	;'e'
   206  00FE71  72                 	db	114	;'r'
   207  00FE72  20                 	db	32
   208  00FE73  0A                 	db	10
   209  00FE74  0D                 	db	13
   210  00FE75  00                 	db	0
   211  00FE76                     STR_31:
   212                           
   213                           ; BSR set to: 0
   214  00FE76  4D                 	db	77	;'M'
   215  00FE77  69                 	db	105	;'i'
   216  00FE78  63                 	db	99	;'c'
   217  00FE79  72                 	db	114	;'r'
   218  00FE7A  6F                 	db	111	;'o'
   219  00FE7B  63                 	db	99	;'c'
   220  00FE7C  68                 	db	104	;'h'
   221  00FE7D  69                 	db	105	;'i'
   222  00FE7E  70                 	db	112	;'p'
   223  00FE7F  20                 	db	32
   224  00FE80  50                 	db	80	;'P'
   225  00FE81  49                 	db	73	;'I'
   226  00FE82  43                 	db	67	;'C'
   227  00FE83  44                 	db	68	;'D'
   228  00FE84  45                 	db	69	;'E'
   229  00FE85  4D                 	db	77	;'M'
   230  00FE86  0A                 	db	10
   231  00FE87  0D                 	db	13
   232  00FE88  00                 	db	0
   233  00FE89                     STR_19:
   234                           
   235                           ; BSR set to: 0
   236  00FE89  20                 	db	32
   237  00FE8A  20                 	db	32
   238  00FE8B  20                 	db	32
   239  00FE8C  20                 	db	32
   240  00FE8D  20                 	db	32
   241  00FE8E  43                 	db	67	;'C'
   242  00FE8F  6C                 	db	108	;'l'
   243  00FE90  6F                 	db	111	;'o'
   244  00FE91  63                 	db	99	;'c'
   245  00FE92  6B                 	db	107	;'k'
   246  00FE93  20                 	db	32
   247  00FE94  20                 	db	32
   248  00FE95  20                 	db	32
   249  00FE96  20                 	db	32
   250  00FE97  20                 	db	32
   251  00FE98  20                 	db	32
   252  00FE99  0A                 	db	10
   253  00FE9A  0D                 	db	13
   254  00FE9B  00                 	db	0
   255  00FE9C                     STR_28:
   256                           
   257                           ; BSR set to: 0
   258  00FE9C  52                 	db	82	;'R'
   259  00FE9D  42                 	db	66	;'B'
   260  00FE9E  30                 	db	48	;'0'
   261  00FE9F  3D                 	db	61	;'='
   262  00FEA0  20                 	db	32
   263  00FEA1  2B                 	db	43
   264  00FEA2  2B                 	db	43
   265  00FEA3  20                 	db	32
   266  00FEA4  52                 	db	82	;'R'
   267  00FEA5  41                 	db	65	;'A'
   268  00FEA6  35                 	db	53	;'5'
   269  00FEA7  3D                 	db	61	;'='
   270  00FEA8  20                 	db	32
   271  00FEA9  2D                 	db	45
   272  00FEAA  2D                 	db	45
   273  00FEAB  3E                 	db	62	;'>'
   274  00FEAC  0A                 	db	10
   275  00FEAD  0D                 	db	13
   276  00FEAE  00                 	db	0
   277  00FEAF                     STR_26:
   278                           
   279                           ; BSR set to: 0
   280  00FEAF  52                 	db	82	;'R'
   281  00FEB0  42                 	db	66	;'B'
   282  00FEB1  30                 	db	48	;'0'
   283  00FEB2  3D                 	db	61	;'='
   284  00FEB3  4D                 	db	77	;'M'
   285  00FEB4  65                 	db	101	;'e'
   286  00FEB5  6E                 	db	110	;'n'
   287  00FEB6  75                 	db	117	;'u'
   288  00FEB7  20                 	db	32
   289  00FEB8  52                 	db	82	;'R'
   290  00FEB9  41                 	db	65	;'A'
   291  00FEBA  35                 	db	53	;'5'
   292  00FEBB  3D                 	db	61	;'='
   293  00FEBC  53                 	db	83	;'S'
   294  00FEBD  65                 	db	101	;'e'
   295  00FEBE  74                 	db	116	;'t'
   296  00FEBF  0A                 	db	10
   297  00FEC0  0D                 	db	13
   298  00FEC1  00                 	db	0
   299  00FEC2                     STR_12:
   300                           
   301                           ; BSR set to: 0
   302  00FEC2  20                 	db	32
   303  00FEC3  20                 	db	32
   304  00FEC4  20                 	db	32
   305  00FEC5  56                 	db	86	;'V'
   306  00FEC6  6F                 	db	111	;'o'
   307  00FEC7  6C                 	db	108	;'l'
   308  00FEC8  74                 	db	116	;'t'
   309  00FEC9  6D                 	db	109	;'m'
   310  00FECA  65                 	db	101	;'e'
   311  00FECB  74                 	db	116	;'t'
   312  00FECC  65                 	db	101	;'e'
   313  00FECD  72                 	db	114	;'r'
   314  00FECE  20                 	db	32
   315  00FECF  20                 	db	32
   316  00FED0  20                 	db	32
   317  00FED1  20                 	db	32
   318  00FED2  0A                 	db	10
   319  00FED3  0D                 	db	13
   320  00FED4  00                 	db	0
   321  00FED5                     STR_16:
   322                           
   323                           ; BSR set to: 0
   324  00FED5  25                 	db	37
   325  00FED6  2E                 	db	46
   326  00FED7  32                 	db	50	;'2'
   327  00FED8  66                 	db	102	;'f'
   328  00FED9  56                 	db	86	;'V'
   329  00FEDA  20                 	db	32
   330  00FEDB  20                 	db	32
   331  00FEDC  20                 	db	32
   332  00FEDD  52                 	db	82	;'R'
   333  00FEDE  42                 	db	66	;'B'
   334  00FEDF  30                 	db	48	;'0'
   335  00FEE0  3D                 	db	61	;'='
   336  00FEE1  45                 	db	69	;'E'
   337  00FEE2  78                 	db	120	;'x'
   338  00FEE3  69                 	db	105	;'i'
   339  00FEE4  74                 	db	116	;'t'
   340  00FEE5  0A                 	db	10
   341  00FEE6  0D                 	db	13
   342  00FEE7  00                 	db	0
   343  00FEE8                     STR_3:
   344                           
   345                           ; BSR set to: 0
   346  00FEE8  20                 	db	32
   347  00FEE9  20                 	db	32
   348  00FEEA  54                 	db	84	;'T'
   349  00FEEB  65                 	db	101	;'e'
   350  00FEEC  6D                 	db	109	;'m'
   351  00FEED  70                 	db	112	;'p'
   352  00FEEE  65                 	db	101	;'e'
   353  00FEEF  72                 	db	114	;'r'
   354  00FEF0  61                 	db	97	;'a'
   355  00FEF1  74                 	db	116	;'t'
   356  00FEF2  75                 	db	117	;'u'
   357  00FEF3  72                 	db	114	;'r'
   358  00FEF4  65                 	db	101	;'e'
   359  00FEF5  20                 	db	32
   360  00FEF6  20                 	db	32
   361  00FEF7  20                 	db	32
   362  00FEF8  0A                 	db	10
   363  00FEF9  0D                 	db	13
   364  00FEFA  00                 	db	0
   365  00FEFB                     STR_4:
   366                           
   367                           ; BSR set to: 0
   368  00FEFB  52                 	db	82	;'R'
   369  00FEFC  42                 	db	66	;'B'
   370  00FEFD  30                 	db	48	;'0'
   371  00FEFE  3D                 	db	61	;'='
   372  00FEFF  4E                 	db	78	;'N'
   373  00FF00  6F                 	db	111	;'o'
   374  00FF01  77                 	db	119	;'w'
   375  00FF02  20                 	db	32
   376  00FF03  52                 	db	82	;'R'
   377  00FF04  41                 	db	65	;'A'
   378  00FF05  35                 	db	53	;'5'
   379  00FF06  3D                 	db	61	;'='
   380  00FF07  4E                 	db	78	;'N'
   381  00FF08  65                 	db	101	;'e'
   382  00FF09  78                 	db	120	;'x'
   383  00FF0A  74                 	db	116	;'t'
   384  00FF0B  0A                 	db	10
   385  00FF0C  0D                 	db	13
   386  00FF0D  00                 	db	0
   387  00FF0E                     STR_30:
   388                           
   389                           ; BSR set to: 0
   390  00FF0E  20                 	db	32
   391  00FF0F  50                 	db	80	;'P'
   392  00FF10  49                 	db	73	;'I'
   393  00FF11  43                 	db	67	;'C'
   394  00FF12  31                 	db	49	;'1'
   395  00FF13  38                 	db	56	;'8'
   396  00FF14  20                 	db	32
   397  00FF15  45                 	db	69	;'E'
   398  00FF16  78                 	db	120	;'x'
   399  00FF17  70                 	db	112	;'p'
   400  00FF18  6C                 	db	108	;'l'
   401  00FF19  6F                 	db	111	;'o'
   402  00FF1A  72                 	db	114	;'r'
   403  00FF1B  65                 	db	101	;'e'
   404  00FF1C  72                 	db	114	;'r'
   405  00FF1D  20                 	db	32
   406  00FF1E  00                 	db	0
   407  00FF1F                     STR_29:
   408                           
   409                           ; BSR set to: 0
   410  00FF1F  4D                 	db	77	;'M'
   411  00FF20  69                 	db	105	;'i'
   412  00FF21  63                 	db	99	;'c'
   413  00FF22  72                 	db	114	;'r'
   414  00FF23  6F                 	db	111	;'o'
   415  00FF24  63                 	db	99	;'c'
   416  00FF25  68                 	db	104	;'h'
   417  00FF26  69                 	db	105	;'i'
   418  00FF27  70                 	db	112	;'p'
   419  00FF28  20                 	db	32
   420  00FF29  50                 	db	80	;'P'
   421  00FF2A  49                 	db	73	;'I'
   422  00FF2B  43                 	db	67	;'C'
   423  00FF2C  44                 	db	68	;'D'
   424  00FF2D  45                 	db	69	;'E'
   425  00FF2E  4D                 	db	77	;'M'
   426  00FF2F  00                 	db	0
   427  00FF30                     STR_17:
   428                           
   429                           ; BSR set to: 0
   430  00FF30  20                 	db	32
   431  00FF31  20                 	db	32
   432  00FF32  20                 	db	32
   433  00FF33  20                 	db	32
   434  00FF34  20                 	db	32
   435  00FF35  43                 	db	67	;'C'
   436  00FF36  6C                 	db	108	;'l'
   437  00FF37  6F                 	db	111	;'o'
   438  00FF38  63                 	db	99	;'c'
   439  00FF39  6B                 	db	107	;'k'
   440  00FF3A  20                 	db	32
   441  00FF3B  20                 	db	32
   442  00FF3C  20                 	db	32
   443  00FF3D  20                 	db	32
   444  00FF3E  20                 	db	32
   445  00FF3F  20                 	db	32
   446  00FF40  00                 	db	0
   447  00FF41                     STR_27:
   448                           
   449                           ; BSR set to: 0
   450  00FF41  52                 	db	82	;'R'
   451  00FF42  42                 	db	66	;'B'
   452  00FF43  30                 	db	48	;'0'
   453  00FF44  3D                 	db	61	;'='
   454  00FF45  20                 	db	32
   455  00FF46  2B                 	db	43
   456  00FF47  2B                 	db	43
   457  00FF48  20                 	db	32
   458  00FF49  52                 	db	82	;'R'
   459  00FF4A  41                 	db	65	;'A'
   460  00FF4B  35                 	db	53	;'5'
   461  00FF4C  3D                 	db	61	;'='
   462  00FF4D  20                 	db	32
   463  00FF4E  2D                 	db	45
   464  00FF4F  2D                 	db	45
   465  00FF50  3E                 	db	62	;'>'
   466  00FF51  00                 	db	0
   467  00FF52                     STR_25:
   468                           
   469                           ; BSR set to: 0
   470  00FF52  52                 	db	82	;'R'
   471  00FF53  42                 	db	66	;'B'
   472  00FF54  30                 	db	48	;'0'
   473  00FF55  3D                 	db	61	;'='
   474  00FF56  4D                 	db	77	;'M'
   475  00FF57  65                 	db	101	;'e'
   476  00FF58  6E                 	db	110	;'n'
   477  00FF59  75                 	db	117	;'u'
   478  00FF5A  20                 	db	32
   479  00FF5B  52                 	db	82	;'R'
   480  00FF5C  41                 	db	65	;'A'
   481  00FF5D  35                 	db	53	;'5'
   482  00FF5E  3D                 	db	61	;'='
   483  00FF5F  53                 	db	83	;'S'
   484  00FF60  65                 	db	101	;'e'
   485  00FF61  74                 	db	116	;'t'
   486  00FF62  00                 	db	0
   487  00FF63                     STR_14:
   488                           
   489                           ; BSR set to: 0
   490  00FF63  56                 	db	86	;'V'
   491  00FF64  6F                 	db	111	;'o'
   492  00FF65  6C                 	db	108	;'l'
   493  00FF66  74                 	db	116	;'t'
   494  00FF67  73                 	db	115	;'s'
   495  00FF68  20                 	db	32
   496  00FF69  3D                 	db	61	;'='
   497  00FF6A  20                 	db	32
   498  00FF6B  20                 	db	32
   499  00FF6C  20                 	db	32
   500  00FF6D  20                 	db	32
   501  00FF6E  20                 	db	32
   502  00FF6F  20                 	db	32
   503  00FF70  20                 	db	32
   504  00FF71  20                 	db	32
   505  00FF72  20                 	db	32
   506  00FF73  00                 	db	0
   507  00FF74                     STR_10:
   508                           
   509                           ; BSR set to: 0
   510  00FF74  20                 	db	32
   511  00FF75  20                 	db	32
   512  00FF76  20                 	db	32
   513  00FF77  56                 	db	86	;'V'
   514  00FF78  6F                 	db	111	;'o'
   515  00FF79  6C                 	db	108	;'l'
   516  00FF7A  74                 	db	116	;'t'
   517  00FF7B  6D                 	db	109	;'m'
   518  00FF7C  65                 	db	101	;'e'
   519  00FF7D  74                 	db	116	;'t'
   520  00FF7E  65                 	db	101	;'e'
   521  00FF7F  72                 	db	114	;'r'
   522  00FF80  20                 	db	32
   523  00FF81  20                 	db	32
   524  00FF82  20                 	db	32
   525  00FF83  20                 	db	32
   526  00FF84  00                 	db	0
   527  00FF85                     STR_1:
   528                           
   529                           ; BSR set to: 0
   530  00FF85  20                 	db	32
   531  00FF86  20                 	db	32
   532  00FF87  54                 	db	84	;'T'
   533  00FF88  65                 	db	101	;'e'
   534  00FF89  6D                 	db	109	;'m'
   535  00FF8A  70                 	db	112	;'p'
   536  00FF8B  65                 	db	101	;'e'
   537  00FF8C  72                 	db	114	;'r'
   538  00FF8D  61                 	db	97	;'a'
   539  00FF8E  74                 	db	116	;'t'
   540  00FF8F  75                 	db	117	;'u'
   541  00FF90  72                 	db	114	;'r'
   542  00FF91  65                 	db	101	;'e'
   543  00FF92  20                 	db	32
   544  00FF93  20                 	db	32
   545  00FF94  20                 	db	32
   546  00FF95  00                 	db	0
   547  00FF96                     STR_7:
   548                           
   549                           ; BSR set to: 0
   550  00FF96  20                 	db	32
   551  00FF97  20                 	db	32
   552  00FF98  20                 	db	32
   553  00FF99  52                 	db	82	;'R'
   554  00FF9A  42                 	db	66	;'B'
   555  00FF9B  30                 	db	48	;'0'
   556  00FF9C  20                 	db	32
   557  00FF9D  3D                 	db	61	;'='
   558  00FF9E  20                 	db	32
   559  00FF9F  45                 	db	69	;'E'
   560  00FFA0  78                 	db	120	;'x'
   561  00FFA1  69                 	db	105	;'i'
   562  00FFA2  74                 	db	116	;'t'
   563  00FFA3  20                 	db	32
   564  00FFA4  20                 	db	32
   565  00FFA5  20                 	db	32
   566  00FFA6  00                 	db	0
   567  00FFA7                     STR_2:
   568                           
   569                           ; BSR set to: 0
   570  00FFA7  52                 	db	82	;'R'
   571  00FFA8  42                 	db	66	;'B'
   572  00FFA9  30                 	db	48	;'0'
   573  00FFAA  3D                 	db	61	;'='
   574  00FFAB  4E                 	db	78	;'N'
   575  00FFAC  6F                 	db	111	;'o'
   576  00FFAD  77                 	db	119	;'w'
   577  00FFAE  20                 	db	32
   578  00FFAF  52                 	db	82	;'R'
   579  00FFB0  41                 	db	65	;'A'
   580  00FFB1  35                 	db	53	;'5'
   581  00FFB2  3D                 	db	61	;'='
   582  00FFB3  4E                 	db	78	;'N'
   583  00FFB4  65                 	db	101	;'e'
   584  00FFB5  78                 	db	120	;'x'
   585  00FFB6  74                 	db	116	;'t'
   586  00FFB7  00                 	db	0
   587  00FFB8                     STR_8:
   588                           
   589                           ; BSR set to: 0
   590  00FFB8  54                 	db	84	;'T'
   591  00FFB9  65                 	db	101	;'e'
   592  00FFBA  6D                 	db	109	;'m'
   593  00FFBB  70                 	db	112	;'p'
   594  00FFBC  20                 	db	32
   595  00FFBD  3D                 	db	61	;'='
   596  00FFBE  20                 	db	32
   597  00FFBF  3D                 	db	61	;'='
   598  00FFC0  20                 	db	32
   599  00FFC1  25                 	db	37
   600  00FFC2  30                 	db	48	;'0'
   601  00FFC3  33                 	db	51	;'3'
   602  00FFC4  64                 	db	100	;'d'
   603  00FFC5  43                 	db	67	;'C'
   604  00FFC6  09                 	db	9
   605  00FFC7  00                 	db	0
   606  00FFC8                     STR_15:
   607                           
   608                           ; BSR set to: 0
   609  00FFC8  56                 	db	86	;'V'
   610  00FFC9  20                 	db	32
   611  00FFCA  20                 	db	32
   612  00FFCB  20                 	db	32
   613  00FFCC  52                 	db	82	;'R'
   614  00FFCD  42                 	db	66	;'B'
   615  00FFCE  30                 	db	48	;'0'
   616  00FFCF  3D                 	db	61	;'='
   617  00FFD0  45                 	db	69	;'E'
   618  00FFD1  78                 	db	120	;'x'
   619  00FFD2  69                 	db	105	;'i'
   620  00FFD3  74                 	db	116	;'t'
   621  00FFD4  00                 	db	0
   622  00FFD5                     STR_9:
   623                           
   624                           ; BSR set to: 0
   625  00FFD5  52                 	db	82	;'R'
   626  00FFD6  42                 	db	66	;'B'
   627  00FFD7  30                 	db	48	;'0'
   628  00FFD8  20                 	db	32
   629  00FFD9  3D                 	db	61	;'='
   630  00FFDA  20                 	db	32
   631  00FFDB  45                 	db	69	;'E'
   632  00FFDC  78                 	db	120	;'x'
   633  00FFDD  69                 	db	105	;'i'
   634  00FFDE  74                 	db	116	;'t'
   635  00FFDF  0A                 	db	10
   636  00FFE0  0D                 	db	13
   637  00FFE1  00                 	db	0
   638  00FFE2                     STR_5:
   639                           
   640                           ; BSR set to: 0
   641  00FFE2  54                 	db	84	;'T'
   642  00FFE3  65                 	db	101	;'e'
   643  00FFE4  6D                 	db	109	;'m'
   644  00FFE5  70                 	db	112	;'p'
   645  00FFE6  20                 	db	32
   646  00FFE7  3D                 	db	61	;'='
   647  00FFE8  20                 	db	32
   648  00FFE9  3D                 	db	61	;'='
   649  00FFEA  20                 	db	32
   650  00FFEB  00                 	db	0
   651  00FFEC                     STR_24:
   652                           
   653                           ; BSR set to: 0
   654  00FFEC  25                 	db	37
   655  00FFED  30                 	db	48	;'0'
   656  00FFEE  32                 	db	50	;'2'
   657  00FFEF  64                 	db	100	;'d'
   658  00FFF0  20                 	db	32
   659  00FFF1  09                 	db	9
   660  00FFF2  00                 	db	0
   661  00FFF3                     STR_22:
   662                           
   663                           ; BSR set to: 0
   664  00FFF3  25                 	db	37
   665  00FFF4  30                 	db	48	;'0'
   666  00FFF5  32                 	db	50	;'2'
   667  00FFF6  64                 	db	100	;'d'
   668  00FFF7  3A                 	db	58	;':'
   669  00FFF8  00                 	db	0
   670  00FFF9                     STR_6:
   671                           
   672                           ; BSR set to: 0
   673  00FFF9  43                 	db	67	;'C'
   674  00FFFA  20                 	db	32
   675  00FFFB  20                 	db	32
   676  00FFFC  20                 	db	32
   677  00FFFD  00                 	db	0
   678  0000                     
   679                           ; #config settings
   680  00FFFE  00                 	db	0	; dummy byte at the end
   681  0000                     
   682                           	psect	nvCOMRAM
   683  00004E                     __pnvCOMRAM:
   684                           	opt stack 0
   685  00004E                     _timer1ReloadVal:
   686                           	opt stack 0
   687  00004E                     	ds	2
   688  0000                     _TMR1	set	4046
   689  0000                     _ADCON0bits	set	4034
   690  0000                     _ADCON1	set	4033
   691  0000                     _ADRESH	set	4036
   692  0000                     _ADRESL	set	4035
   693  0000                     _ANCON0	set	4033
   694  0000                     _ANCON1	set	4034
   695  0000                     _DDRFbits	set	3991
   696  0000                     _INTCON2bits	set	4081
   697  0000                     _INTCONbits	set	4082
   698  0000                     _IPR1bits	set	3999
   699  0000                     _LATA	set	3977
   700  0000                     _LATAbits	set	3977
   701  0000                     _LATB	set	3978
   702  0000                     _LATC	set	3979
   703  0000                     _LATCbits	set	3979
   704  0000                     _LATD	set	3980
   705  0000                     _LATE	set	3981
   706  0000                     _LATFbits	set	3982
   707  0000                     _OSCCON	set	4051
   708  0000                     _OSCTUNE	set	3995
   709  0000                     _PIE1bits	set	3997
   710  0000                     _PIR1bits	set	3998
   711  0000                     _PORTAbits	set	3968
   712  0000                     _PORTBbits	set	3969
   713  0000                     _RCONbits	set	4048
   714  0000                     _RCREG	set	4015
   715  0000                     _RCSTA	set	4012
   716  0000                     _RCSTAbits	set	4012
   717  0000                     _SPBRG	set	4016
   718  0000                     _T1CON	set	4045
   719  0000                     _T1CONbits	set	4045
   720  0000                     _TMR1H	set	4047
   721  0000                     _TMR1L	set	4046
   722  0000                     _TRISA	set	3986
   723  0000                     _TRISAbits	set	3986
   724  0000                     _TRISB	set	3987
   725  0000                     _TRISC	set	3988
   726  0000                     _TRISCbits	set	3988
   727  0000                     _TRISD	set	3989
   728  0000                     _TRISE	set	3990
   729  0000                     _TXREG	set	4014
   730  0000                     _TXSTA	set	4013
   731  0000                     _WDTCONbits	set	4032
   732                           
   733                           	psect	cinit
   734  012998                     __pcinit:
   735                           	opt stack 0
   736  012998                     start_initialization:
   737                           	opt stack 0
   738  012998                     __initialization:
   739                           	opt stack 0
   740                           
   741                           ; Clear objects allocated to BANK0 (6 bytes)
   742  012998  0100               	movlb	0
   743  01299A  6B8B               	clrf	(__pbssBANK0+5)& (0+255),b
   744  01299C  6B8A               	clrf	(__pbssBANK0+4)& (0+255),b
   745  01299E  6B89               	clrf	(__pbssBANK0+3)& (0+255),b
   746  0129A0  6B88               	clrf	(__pbssBANK0+2)& (0+255),b
   747  0129A2  6B87               	clrf	(__pbssBANK0+1)& (0+255),b
   748  0129A4  6B86               	clrf	__pbssBANK0& (0+255),b
   749                           
   750                           ; Clear objects allocated to COMRAM (2 bytes)
   751  0129A6  6A51               	clrf	(__pbssCOMRAM+1)& (0+255),c
   752  0129A8  6A50               	clrf	__pbssCOMRAM& (0+255),c
   753  0129AA                     end_of_initialization:
   754                           	opt stack 0
   755  0129AA                     __end_of__initialization:
   756                           	opt stack 0
   757  0129AA  0100               	movlb	0
   758  0129AC  EF99  F093         	goto	_main	;jump to C main() function
   759                           
   760                           	psect	bssCOMRAM
   761  000050                     __pbssCOMRAM:
   762                           	opt stack 0
   763  000050                     _State:
   764                           	opt stack 0
   765  000050                     	ds	1
   766  000051                     _State_Machine:
   767                           	opt stack 0
   768  000051                     	ds	1
   769                           
   770                           	psect	bssBANK0
   771  000086                     __pbssBANK0:
   772                           	opt stack 0
   773  000086                     _Time:
   774                           	opt stack 0
   775  000086                     	ds	1
   776  000087                     _hr:
   777                           	opt stack 0
   778  000087                     	ds	1
   779  000088                     _min:
   780                           	opt stack 0
   781  000088                     	ds	1
   782  000089                     _sec:
   783                           	opt stack 0
   784  000089                     	ds	1
   785  00008A                     _timerflag:
   786                           	opt stack 0
   787  00008A                     	ds	1
   788  00008B                     _timeset:
   789                           	opt stack 0
   790  00008B                     	ds	1
   791                           
   792                           	psect	cstackBANK0
   793  000060                     __pcstackBANK0:
   794                           	opt stack 0
   795  000060                     ?_printf:
   796                           	opt stack 0
   797  000060                     printf@f:
   798                           	opt stack 0
   799                           
   800                           ; 2 bytes @ 0x0
   801  000060                     	ds	5
   802  000065                     ??_printf:
   803                           
   804                           ; 0 bytes @ 0x5
   805  000065                     	ds	6
   806  00006B                     _printf$2563:
   807                           	opt stack 0
   808                           
   809                           ; 3 bytes @ 0xB
   810  00006B                     	ds	3
   811  00006E                     printf@ap:
   812                           	opt stack 0
   813                           
   814                           ; 2 bytes @ 0xE
   815  00006E                     	ds	2
   816  000070                     printf@tmpval:
   817                           	opt stack 0
   818                           
   819                           ; 4 bytes @ 0x10
   820  000070                     	ds	4
   821  000074                     printf@val:
   822                           	opt stack 0
   823                           
   824                           ; 4 bytes @ 0x14
   825  000074                     	ds	4
   826  000078                     printf@exp:
   827                           	opt stack 0
   828                           
   829                           ; 2 bytes @ 0x18
   830  000078                     	ds	2
   831  00007A                     printf@flag:
   832                           	opt stack 0
   833                           
   834                           ; 2 bytes @ 0x1A
   835  00007A                     	ds	2
   836  00007C                     printf@width:
   837                           	opt stack 0
   838                           
   839                           ; 2 bytes @ 0x1C
   840  00007C                     	ds	2
   841  00007E                     printf@fval:
   842                           	opt stack 0
   843                           
   844                           ; 3 bytes @ 0x1E
   845  00007E                     	ds	3
   846  000081                     printf@prec:
   847                           	opt stack 0
   848                           
   849                           ; 2 bytes @ 0x21
   850  000081                     	ds	2
   851  000083                     printf@c:
   852                           	opt stack 0
   853                           
   854                           ; 1 bytes @ 0x23
   855  000083                     	ds	1
   856  000084                     disp_Temperature@a:
   857                           	opt stack 0
   858  000084                     disp_Volts@a:
   859                           	opt stack 0
   860                           
   861                           ; 2 bytes @ 0x24
   862  000084                     	ds	2
   863                           
   864                           	psect	cstackCOMRAM
   865  000001                     __pcstackCOMRAM:
   866                           	opt stack 0
   867  000001                     ??_INTERRUPT_InterruptManager:
   868  000001                     
   869                           ; 0 bytes @ 0x0
   870  000001                     	ds	14
   871  00000F                     ??_SWdelay:
   872  00000F                     ??_Intro_delay:
   873  00000F                     ??_isdigit:
   874  00000F                     ?_ADC_GetConversion:
   875                           	opt stack 0
   876  00000F                     ?___awmod:
   877                           	opt stack 0
   878  00000F                     ?___ftpack:
   879                           	opt stack 0
   880  00000F                     ?___ftneg:
   881                           	opt stack 0
   882  00000F                     ?__tdiv_to_l_:
   883                           	opt stack 0
   884  00000F                     ?__div_to_l_:
   885                           	opt stack 0
   886  00000F                     ?___lldiv:
   887                           	opt stack 0
   888  00000F                     EUSART1_Write@txData:
   889                           	opt stack 0
   890  00000F                     SendByteBBSPI@output:
   891                           	opt stack 0
   892  00000F                     ___awmod@dividend:
   893                           	opt stack 0
   894  00000F                     __div_to_l_@f1:
   895                           	opt stack 0
   896  00000F                     ___ftpack@arg:
   897                           	opt stack 0
   898  00000F                     __tdiv_to_l_@f1:
   899                           	opt stack 0
   900  00000F                     ___ftge@ff1:
   901                           	opt stack 0
   902  00000F                     ___ftneg@f1:
   903                           	opt stack 0
   904  00000F                     ___lldiv@dividend:
   905                           	opt stack 0
   906                           
   907                           ; 4 bytes @ 0xE
   908  00000F                     	ds	1
   909  000010                     putch@txData:
   910                           	opt stack 0
   911  000010                     Intro_delay@i:
   912                           	opt stack 0
   913  000010                     SendByteBBSPI@bitcount:
   914                           	opt stack 0
   915  000010                     _isdigit$2293:
   916                           	opt stack 0
   917                           
   918                           ; 1 bytes @ 0xF
   919  000010                     	ds	1
   920  000011                     ??_ADC_GetConversion:
   921  000011                     SendByteBBSPI@input:
   922                           	opt stack 0
   923  000011                     isdigit@c:
   924                           	opt stack 0
   925  000011                     ___awmod@divisor:
   926                           	opt stack 0
   927                           
   928                           ; 2 bytes @ 0x10
   929  000011                     	ds	1
   930  000012                     WriteEEPROM@adr_lo:
   931                           	opt stack 0
   932  000012                     Port_BBSPIInit@port_dir:
   933                           	opt stack 0
   934  000012                     WritePort_BBSPI@a:
   935                           	opt stack 0
   936  000012                     ___ftpack@exp:
   937                           	opt stack 0
   938  000012                     __div_to_l_@f2:
   939                           	opt stack 0
   940  000012                     __tdiv_to_l_@f2:
   941                           	opt stack 0
   942  000012                     ___ftge@ff2:
   943                           	opt stack 0
   944                           
   945                           ; 3 bytes @ 0x11
   946  000012                     	ds	1
   947  000013                     ADC_GetConversion@channel:
   948                           	opt stack 0
   949  000013                     WriteEEPROM@temp:
   950                           	opt stack 0
   951  000013                     WritePort_BBSPI@port_add:
   952                           	opt stack 0
   953  000013                     ___awmod@counter:
   954                           	opt stack 0
   955  000013                     ___ftpack@sign:
   956                           	opt stack 0
   957  000013                     ___lldiv@divisor:
   958                           	opt stack 0
   959                           
   960                           ; 4 bytes @ 0x12
   961  000013                     	ds	1
   962  000014                     ??_LCDPutInst:
   963  000014                     ??_LCDPutChar:
   964  000014                     ??_WriteEEPROM:
   965  000014                     ??___ftpack:
   966  000014                     ___awmod@sign:
   967                           	opt stack 0
   968                           
   969                           ; 1 bytes @ 0x13
   970  000014                     	ds	1
   971  000015                     ??__tdiv_to_l_:
   972  000015                     ??___ftge:
   973  000015                     ?___awdiv:
   974                           	opt stack 0
   975  000015                     WriteEEPROM@adr_hi:
   976                           	opt stack 0
   977  000015                     LCDPutChar@ch:
   978                           	opt stack 0
   979  000015                     LCDPutInst@ch:
   980                           	opt stack 0
   981  000015                     ___awdiv@dividend:
   982                           	opt stack 0
   983  000015                     __div_to_l_@quot:
   984                           	opt stack 0
   985                           
   986                           ; 4 bytes @ 0x14
   987  000015                     	ds	1
   988  000016                     ??_LCDInit:
   989  000016                     LCDPutStr@ptr:
   990                           	opt stack 0
   991                           
   992                           ; 2 bytes @ 0x15
   993  000016                     	ds	1
   994  000017                     ?___lltoft:
   995                           	opt stack 0
   996  000017                     ?___lwtoft:
   997                           	opt stack 0
   998  000017                     ___awdiv@divisor:
   999                           	opt stack 0
  1000  000017                     ___lwtoft@c:
  1001                           	opt stack 0
  1002  000017                     ___lldiv@quotient:
  1003                           	opt stack 0
  1004  000017                     ___lltoft@c:
  1005                           	opt stack 0
  1006                           
  1007                           ; 4 bytes @ 0x16
  1008  000017                     	ds	1
  1009  000018                     __tdiv_to_l_@quot:
  1010                           	opt stack 0
  1011                           
  1012                           ; 4 bytes @ 0x17
  1013  000018                     	ds	1
  1014  000019                     ___awdiv@counter:
  1015                           	opt stack 0
  1016  000019                     __div_to_l_@cntr:
  1017                           	opt stack 0
  1018                           
  1019                           ; 1 bytes @ 0x18
  1020  000019                     	ds	1
  1021  00001A                     ?___ftdiv:
  1022                           	opt stack 0
  1023  00001A                     ___awdiv@sign:
  1024                           	opt stack 0
  1025  00001A                     __div_to_l_@exp1:
  1026                           	opt stack 0
  1027  00001A                     ___ftdiv@f1:
  1028                           	opt stack 0
  1029                           
  1030                           ; 3 bytes @ 0x19
  1031  00001A                     	ds	1
  1032  00001B                     ??___lltoft:
  1033  00001B                     ___lldiv@counter:
  1034                           	opt stack 0
  1035  00001B                     ___awdiv@quotient:
  1036                           	opt stack 0
  1037                           
  1038                           ; 2 bytes @ 0x1A
  1039  00001B                     	ds	1
  1040  00001C                     ?___llmod:
  1041                           	opt stack 0
  1042  00001C                     __tdiv_to_l_@cntr:
  1043                           	opt stack 0
  1044  00001C                     ___llmod@dividend:
  1045                           	opt stack 0
  1046                           
  1047                           ; 4 bytes @ 0x1B
  1048  00001C                     	ds	1
  1049  00001D                     ?___wmul:
  1050                           	opt stack 0
  1051  00001D                     __tdiv_to_l_@exp1:
  1052                           	opt stack 0
  1053  00001D                     ___wmul@multiplier:
  1054                           	opt stack 0
  1055  00001D                     ___ftdiv@f2:
  1056                           	opt stack 0
  1057                           
  1058                           ; 3 bytes @ 0x1C
  1059  00001D                     	ds	2
  1060  00001F                     ___lltoft@exp:
  1061                           	opt stack 0
  1062  00001F                     ___wmul@multiplicand:
  1063                           	opt stack 0
  1064                           
  1065                           ; 2 bytes @ 0x1E
  1066  00001F                     	ds	1
  1067  000020                     ??___ftdiv:
  1068  000020                     ___llmod@divisor:
  1069                           	opt stack 0
  1070                           
  1071                           ; 4 bytes @ 0x1F
  1072  000020                     	ds	1
  1073  000021                     ___wmul@product:
  1074                           	opt stack 0
  1075                           
  1076                           ; 2 bytes @ 0x20
  1077  000021                     	ds	2
  1078  000023                     ?___lwdiv:
  1079                           	opt stack 0
  1080  000023                     ?___ftmul:
  1081                           	opt stack 0
  1082  000023                     ___ftdiv@cntr:
  1083                           	opt stack 0
  1084  000023                     ___lwdiv@dividend:
  1085                           	opt stack 0
  1086  000023                     ___ftmul@f1:
  1087                           	opt stack 0
  1088                           
  1089                           ; 3 bytes @ 0x22
  1090  000023                     	ds	1
  1091  000024                     ___llmod@counter:
  1092                           	opt stack 0
  1093  000024                     ___ftdiv@f3:
  1094                           	opt stack 0
  1095                           
  1096                           ; 3 bytes @ 0x23
  1097  000024                     	ds	1
  1098  000025                     ___lwdiv@divisor:
  1099                           	opt stack 0
  1100                           
  1101                           ; 2 bytes @ 0x24
  1102  000025                     	ds	1
  1103  000026                     ___ftmul@f2:
  1104                           	opt stack 0
  1105                           
  1106                           ; 3 bytes @ 0x25
  1107  000026                     	ds	1
  1108  000027                     ___ftdiv@exp:
  1109                           	opt stack 0
  1110  000027                     ___lwdiv@counter:
  1111                           	opt stack 0
  1112                           
  1113                           ; 1 bytes @ 0x26
  1114  000027                     	ds	1
  1115  000028                     ___ftdiv@sign:
  1116                           	opt stack 0
  1117  000028                     ___lwdiv@quotient:
  1118                           	opt stack 0
  1119                           
  1120                           ; 2 bytes @ 0x27
  1121  000028                     	ds	1
  1122  000029                     ??___ftmul:
  1123                           
  1124                           ; 0 bytes @ 0x28
  1125  000029                     	ds	1
  1126  00002A                     ?_Temp_Result:
  1127                           	opt stack 0
  1128  00002A                     ?_Volt_Result:
  1129                           	opt stack 0
  1130  00002A                     ?___lwmod:
  1131                           	opt stack 0
  1132  00002A                     ___lwmod@dividend:
  1133                           	opt stack 0
  1134                           
  1135                           ; 2 bytes @ 0x29
  1136  00002A                     	ds	2
  1137  00002C                     ___ftmul@exp:
  1138                           	opt stack 0
  1139  00002C                     Temp_Result@b:
  1140                           	opt stack 0
  1141  00002C                     Volt_Result@b:
  1142                           	opt stack 0
  1143  00002C                     ___lwmod@divisor:
  1144                           	opt stack 0
  1145                           
  1146                           ; 2 bytes @ 0x2B
  1147  00002C                     	ds	1
  1148  00002D                     ___ftmul@f3_as_product:
  1149                           	opt stack 0
  1150                           
  1151                           ; 3 bytes @ 0x2C
  1152  00002D                     	ds	1
  1153  00002E                     ___lwmod@counter:
  1154                           	opt stack 0
  1155                           
  1156                           ; 1 bytes @ 0x2D
  1157  00002E                     	ds	2
  1158  000030                     ___ftmul@cntr:
  1159                           	opt stack 0
  1160                           
  1161                           ; 1 bytes @ 0x2F
  1162  000030                     	ds	1
  1163  000031                     ___ftmul@sign:
  1164                           	opt stack 0
  1165                           
  1166                           ; 1 bytes @ 0x30
  1167  000031                     	ds	1
  1168  000032                     ?_fround:
  1169                           	opt stack 0
  1170  000032                     ?_scale:
  1171                           	opt stack 0
  1172                           
  1173                           ; 3 bytes @ 0x31
  1174  000032                     	ds	3
  1175  000035                     _fround$2561:
  1176                           	opt stack 0
  1177  000035                     _scale$2562:
  1178                           	opt stack 0
  1179                           
  1180                           ; 3 bytes @ 0x34
  1181  000035                     	ds	3
  1182  000038                     scale@scl:
  1183                           	opt stack 0
  1184  000038                     _fround$2560:
  1185                           	opt stack 0
  1186                           
  1187                           ; 3 bytes @ 0x37
  1188  000038                     	ds	1
  1189  000039                     ?___fttol:
  1190                           	opt stack 0
  1191  000039                     ___fttol@f1:
  1192                           	opt stack 0
  1193                           
  1194                           ; 3 bytes @ 0x38
  1195  000039                     	ds	2
  1196  00003B                     fround@prec:
  1197                           	opt stack 0
  1198                           
  1199                           ; 1 bytes @ 0x3A
  1200  00003B                     	ds	1
  1201  00003C                     ?___ftadd:
  1202                           	opt stack 0
  1203  00003C                     ___ftadd@f1:
  1204                           	opt stack 0
  1205                           
  1206                           ; 3 bytes @ 0x3B
  1207  00003C                     	ds	1
  1208  00003D                     ??___fttol:
  1209                           
  1210                           ; 0 bytes @ 0x3C
  1211  00003D                     	ds	2
  1212  00003F                     ___ftadd@f2:
  1213                           	opt stack 0
  1214                           
  1215                           ; 3 bytes @ 0x3E
  1216  00003F                     	ds	3
  1217  000042                     ??___ftadd:
  1218  000042                     ___fttol@sign1:
  1219                           	opt stack 0
  1220                           
  1221                           ; 1 bytes @ 0x41
  1222  000042                     	ds	1
  1223  000043                     ___fttol@lval:
  1224                           	opt stack 0
  1225                           
  1226                           ; 4 bytes @ 0x42
  1227  000043                     	ds	2
  1228  000045                     ___ftadd@sign:
  1229                           	opt stack 0
  1230                           
  1231                           ; 1 bytes @ 0x44
  1232  000045                     	ds	1
  1233  000046                     ___ftadd@exp2:
  1234                           	opt stack 0
  1235                           
  1236                           ; 1 bytes @ 0x45
  1237  000046                     	ds	1
  1238  000047                     ___ftadd@exp1:
  1239                           	opt stack 0
  1240  000047                     ___fttol@exp1:
  1241                           	opt stack 0
  1242                           
  1243                           ; 1 bytes @ 0x46
  1244  000047                     	ds	1
  1245  000048                     ?___ftsub:
  1246                           	opt stack 0
  1247  000048                     ___ftsub@f1:
  1248                           	opt stack 0
  1249                           
  1250                           ; 3 bytes @ 0x47
  1251  000048                     	ds	3
  1252  00004B                     ___ftsub@f2:
  1253                           	opt stack 0
  1254                           
  1255                           ; 3 bytes @ 0x4A
  1256  00004B                     	ds	3
  1257  00004E                     
  1258                           ; 0 bytes @ 0x4D
  1259 ;;
  1260 ;;Main: autosize = 0, tempsize = 0, incstack = 0, save=0
  1261 ;;
  1262 ;; *************** function _main *****************
  1263 ;; Defined at:
  1264 ;;		line 53 in file "main.c"
  1265 ;; Parameters:    Size  Location     Type
  1266 ;;		None
  1267 ;; Auto vars:     Size  Location     Type
  1268 ;;		None
  1269 ;; Return value:  Size  Location     Type
  1270 ;;		None               void
  1271 ;; Registers used:
  1272 ;;		wreg, fsr2l, fsr2h, status,2, status,0, tblptrl, tblptrh, tblptru, prodl, prodh, cstack
  1273 ;; Tracked objects:
  1274 ;;		On entry : 0/0
  1275 ;;		On exit  : 0/0
  1276 ;;		Unchanged: 0/0
  1277 ;; Data sizes:     COMRAM   BANK0   BANK1   BANK2   BANK3   BANK4   BANK5   BANK6   BANK7   BANK8   BANK9  BANK10  BANK1
      +1  BANK12  BANK13  BANK14  BANK15
  1278 ;;      Params:         0       0       0       0       0       0       0       0       0       0       0       0       
      +0       0       0       0       0
  1279 ;;      Locals:         0       0       0       0       0       0       0       0       0       0       0       0       
      +0       0       0       0       0
  1280 ;;      Temps:          0       0       0       0       0       0       0       0       0       0       0       0       
      +0       0       0       0       0
  1281 ;;      Totals:         0       0       0       0       0       0       0       0       0       0       0       0       
      +0       0       0       0       0
  1282 ;;Total ram usage:        0 bytes
  1283 ;; Hardware stack levels required when called:   10
  1284 ;; This function calls:
  1285 ;;		_Clock
  1286 ;;		_Intro
  1287 ;;		_SYSTEM_Initialize
  1288 ;;		_Temperature
  1289 ;;		_Voltmeter
  1290 ;; This function is called by:
  1291 ;;		Startup code after reset
  1292 ;; This function uses a non-reentrant model
  1293 ;;
  1294                           
  1295                           	psect	text0
  1296  012732                     __ptext0:
  1297                           	opt stack 0
  1298  012732                     _main:
  1299                           	opt stack 21
  1300                           
  1301                           ;main.c: 56: SYSTEM_Initialize();
  1302                           
  1303                           ; BSR set to: 0
  1304                           ;incstack = 0
  1305  012732  ECA5  F094         	call	_SYSTEM_Initialize	;wreg free
  1306                           
  1307                           ;main.c: 62: (INTCONbits.GIE = 1);
  1308  012736  8EF2               	bsf	intcon,7,c	;volatile
  1309                           
  1310                           ;main.c: 65: (INTCONbits.PEIE = 1);
  1311  012738  8CF2               	bsf	intcon,6,c	;volatile
  1312                           
  1313                           ;main.c: 75: {
  1314                           ;main.c: 77: switch (State)
  1315                           
  1316                           ;main.c: 74: while (1)
  1317  01273A  D00C               	goto	l5625
  1318  01273C                     l5615:
  1319  01273C  ECE1  F092         	call	_Intro	;wreg free
  1320                           
  1321                           ;main.c: 80: break;
  1322  012740  D009               	goto	l5625
  1323  012742                     l5617:
  1324  012742  EC8B  F091         	call	_Voltmeter	;wreg free
  1325                           
  1326                           ;main.c: 82: break;
  1327  012746  D006               	goto	l5625
  1328  012748                     l5619:
  1329  012748  EC56  F091         	call	_Temperature	;wreg free
  1330                           
  1331                           ;main.c: 84: break;
  1332  01274C  D003               	goto	l5625
  1333  01274E                     l5621:
  1334  01274E  EC20  F091         	call	_Clock	;wreg free
  1335                           
  1336                           ;main.c: 87: }
  1337                           
  1338                           ;main.c: 86: break;
  1339  012752  D000               	goto	l5625
  1340  012754                     l5625:
  1341  012754  5050               	movf	_State,w,c
  1342                           
  1343                           ; Switch size 1, requested type "space"
  1344                           ; Number of cases is 4, Range of values is 0 to 3
  1345                           ; switch strategies available:
  1346                           ; Name         Instructions Cycles
  1347                           ; simple_byte           13     7 (average)
  1348                           ;	Chosen strategy is simple_byte
  1349  012756  0A00               	xorlw	0	; case 0
  1350  012758  B4D8               	btfsc	status,2,c
  1351  01275A  D7F0               	goto	l5615
  1352  01275C  0A01               	xorlw	1	; case 1
  1353  01275E  B4D8               	btfsc	status,2,c
  1354  012760  D7F0               	goto	l5617
  1355  012762  0A03               	xorlw	3	; case 2
  1356  012764  B4D8               	btfsc	status,2,c
  1357  012766  D7F0               	goto	l5619
  1358  012768  0A01               	xorlw	1	; case 3
  1359  01276A  B4D8               	btfsc	status,2,c
  1360  01276C  D7F0               	goto	l5621
  1361  01276E  D7F2               	goto	l5625
  1362  012770  EF43  F000         	goto	start
  1363  012774                     __end_of_main:
  1364                           	opt stack 0
  1365                           intcon	equ	0xFF2
  1366                           status	equ	0xFD8
  1367                           
  1368 ;; *************** function _Voltmeter *****************
  1369 ;; Defined at:
  1370 ;;		line 30 in file "State_Voltmeter.c"
  1371 ;; Parameters:    Size  Location     Type
  1372 ;;		None
  1373 ;; Auto vars:     Size  Location     Type
  1374 ;;		None
  1375 ;; Return value:  Size  Location     Type
  1376 ;;		None               void
  1377 ;; Registers used:
  1378 ;;		wreg, fsr2l, fsr2h, status,2, status,0, tblptrl, tblptrh, tblptru, prodl, prodh, cstack
  1379 ;; Tracked objects:
  1380 ;;		On entry : 0/0
  1381 ;;		On exit  : 0/0
  1382 ;;		Unchanged: 0/0
  1383 ;; Data sizes:     COMRAM   BANK0   BANK1   BANK2   BANK3   BANK4   BANK5   BANK6   BANK7   BANK8   BANK9  BANK10  BANK1
      +1  BANK12  BANK13  BANK14  BANK15
  1384 ;;      Params:         0       0       0       0       0       0       0       0       0       0       0       0       
      +0       0       0       0       0
  1385 ;;      Locals:         0       0       0       0       0       0       0       0       0       0       0       0       
      +0       0       0       0       0
  1386 ;;      Temps:          0       0       0       0       0       0       0       0       0       0       0       0       
      +0       0       0       0       0
  1387 ;;      Totals:         0       0       0       0       0       0       0       0       0       0       0       0       
      +0       0       0       0       0
  1388 ;;Total ram usage:        0 bytes
  1389 ;; Hardware stack levels used:    1
  1390 ;; Hardware stack levels required when called:    7
  1391 ;; This function calls:
  1392 ;;		_LCDPutInst
  1393 ;;		_LCDPutStr
  1394 ;;		_SWdelay
  1395 ;;		_disp_Volts
  1396 ;;		_printf
  1397 ;; This function is called by:
  1398 ;;		_main
  1399 ;; This function uses a non-reentrant model
  1400 ;;
  1401                           
  1402                           	psect	text1
  1403  012316                     __ptext1:
  1404                           	opt stack 0
  1405  012316                     _Voltmeter:
  1406                           	opt stack 23
  1407                           
  1408                           ;State_Voltmeter.c: 33: LCDPutInst(0x80);
  1409                           
  1410                           ;incstack = 0
  1411  012316  0E80               	movlw	128
  1412  012318  ECF2  F091         	call	_LCDPutInst
  1413                           
  1414                           ;State_Voltmeter.c: 34: LCDPutStr("   Voltmeter    ");
  1415  01231C  0E74               	movlw	low STR_10
  1416  01231E  6E16               	movwf	LCDPutStr@ptr,c
  1417  012320  0EFF               	movlw	high STR_10
  1418  012322  6E17               	movwf	LCDPutStr@ptr+1,c
  1419  012324  ECF1  F093         	call	_LCDPutStr	;wreg free
  1420                           
  1421                           ;State_Voltmeter.c: 35: LCDPutInst(0xC0);
  1422  012328  0EC0               	movlw	192
  1423  01232A  ECF2  F091         	call	_LCDPutInst
  1424                           
  1425                           ;State_Voltmeter.c: 36: LCDPutStr("RB0=Now RA5=Next");
  1426  01232E  0EA7               	movlw	low STR_2
  1427  012330  6E16               	movwf	LCDPutStr@ptr,c
  1428  012332  0EFF               	movlw	high STR_2
  1429  012334  6E17               	movwf	LCDPutStr@ptr+1,c
  1430  012336  ECF1  F093         	call	_LCDPutStr	;wreg free
  1431                           
  1432                           ;State_Voltmeter.c: 39: printf("   Voltmeter    \n\r");
  1433  01233A  0EC2               	movlw	low STR_12
  1434  01233C  0100               	movlb	0	; () banked
  1435  01233E  6F60               	movwf	printf@f& (0+255),b
  1436  012340  0EFE               	movlw	high STR_12
  1437  012342  0100               	movlb	0	; () banked
  1438  012344  6F61               	movwf	(printf@f+1)& (0+255),b
  1439  012346  EC00  F080         	call	_printf	;wreg free
  1440                           
  1441                           ;State_Voltmeter.c: 40: printf("RB0=Now RA5=Next\n\r");
  1442  01234A  0EFB               	movlw	low STR_4
  1443  01234C  0100               	movlb	0	; () banked
  1444  01234E  6F60               	movwf	printf@f& (0+255),b
  1445  012350  0EFE               	movlw	high STR_4
  1446  012352  0100               	movlb	0	; () banked
  1447  012354  6F61               	movwf	(printf@f+1)& (0+255),b
  1448  012356  EC00  F080         	call	_printf	;wreg free
  1449                           
  1450                           ;State_Voltmeter.c: 43: while (State == 1)
  1451  01235A  D00D               	goto	l5563
  1452  01235C                     l288:
  1453                           
  1454                           ;State_Voltmeter.c: 44: {
  1455                           ;State_Voltmeter.c: 45: if (PORTBbits.RB0 == 0)
  1456  01235C  B081               	btfsc	3969,0,c	;volatile
  1457  01235E  D005               	goto	l5557
  1458                           
  1459                           ;State_Voltmeter.c: 46: {
  1460                           ;State_Voltmeter.c: 47: SWdelay();
  1461  012360  EC0B  F094         	call	_SWdelay	;wreg free
  1462                           
  1463                           ;State_Voltmeter.c: 48: disp_Volts ();
  1464  012364  EC48  F08D         	call	_disp_Volts	;wreg free
  1465  012368  D000               	goto	l5557
  1466  01236A                     l5557:
  1467                           
  1468                           ;State_Voltmeter.c: 49: }
  1469                           ;State_Voltmeter.c: 50: if (PORTAbits.RA5 == 0)
  1470  01236A  BA80               	btfsc	3968,5,c	;volatile
  1471  01236C  D004               	goto	l5563
  1472                           
  1473                           ;State_Voltmeter.c: 51: {
  1474                           ;State_Voltmeter.c: 52: SWdelay();
  1475  01236E  EC0B  F094         	call	_SWdelay	;wreg free
  1476                           
  1477                           ;State_Voltmeter.c: 53: State++;
  1478  012372  2A50               	incf	_State,f,c
  1479  012374  D000               	goto	l5563
  1480  012376                     l5563:
  1481  012376  0450               	decf	_State,w,c
  1482  012378  B4D8               	btfsc	status,2,c
  1483  01237A  D7F0               	goto	l288
  1484  01237C  0012               	return		;funcret
  1485  01237E                     __end_of_Voltmeter:
  1486                           	opt stack 0
  1487                           intcon	equ	0xFF2
  1488                           status	equ	0xFD8
  1489                           
  1490 ;; *************** function _disp_Volts *****************
  1491 ;; Defined at:
  1492 ;;		line 66 in file "State_Voltmeter.c"
  1493 ;; Parameters:    Size  Location     Type
  1494 ;;		None
  1495 ;; Auto vars:     Size  Location     Type
  1496 ;;  a               2   36[BANK0 ] unsigned int 
  1497 ;; Return value:  Size  Location     Type
  1498 ;;		None               void
  1499 ;; Registers used:
  1500 ;;		wreg, fsr2l, fsr2h, status,2, status,0, tblptrl, tblptrh, tblptru, prodl, prodh, cstack
  1501 ;; Tracked objects:
  1502 ;;		On entry : 0/0
  1503 ;;		On exit  : 0/0
  1504 ;;		Unchanged: 0/0
  1505 ;; Data sizes:     COMRAM   BANK0   BANK1   BANK2   BANK3   BANK4   BANK5   BANK6   BANK7   BANK8   BANK9  BANK10  BANK1
      +1  BANK12  BANK13  BANK14  BANK15
  1506 ;;      Params:         0       0       0       0       0       0       0       0       0       0       0       0       
      +0       0       0       0       0
  1507 ;;      Locals:         0       2       0       0       0       0       0       0       0       0       0       0       
      +0       0       0       0       0
  1508 ;;      Temps:          0       0       0       0       0       0       0       0       0       0       0       0       
      +0       0       0       0       0
  1509 ;;      Totals:         0       2       0       0       0       0       0       0       0       0       0       0       
      +0       0       0       0       0
  1510 ;;Total ram usage:        2 bytes
  1511 ;; Hardware stack levels used:    1
  1512 ;; Hardware stack levels required when called:    6
  1513 ;; This function calls:
  1514 ;;		_LCDPutChar
  1515 ;;		_LCDPutInst
  1516 ;;		_LCDPutStr
  1517 ;;		_SWdelay
  1518 ;;		_Volt_Result
  1519 ;;		___ftdiv
  1520 ;;		___lwdiv
  1521 ;;		___lwmod
  1522 ;;		___lwtoft
  1523 ;;		_printf
  1524 ;; This function is called by:
  1525 ;;		_Voltmeter
  1526 ;; This function uses a non-reentrant model
  1527 ;;
  1528                           
  1529                           	psect	text2
  1530  011A90                     __ptext2:
  1531                           	opt stack 0
  1532  011A90                     _disp_Volts:
  1533                           	opt stack 23
  1534                           
  1535                           ;State_Voltmeter.c: 68: unsigned int a;
  1536                           ;State_Voltmeter.c: 70: while (State == 1)
  1537                           
  1538                           ;incstack = 0
  1539  011A90  D077               	goto	l5441
  1540  011A92                     l5419:
  1541                           
  1542                           ;State_Voltmeter.c: 71: {
  1543                           ;State_Voltmeter.c: 72: a = Volt_Result ();
  1544  011A92  ECBA  F093         	call	_Volt_Result	;wreg free
  1545  011A96  C02A  F084         	movff	?_Volt_Result,disp_Volts@a
  1546  011A9A  C02B  F085         	movff	?_Volt_Result+1,disp_Volts@a+1
  1547                           
  1548                           ;State_Voltmeter.c: 75: LCDPutInst(0x80);
  1549  011A9E  0E80               	movlw	128
  1550  011AA0  ECF2  F091         	call	_LCDPutInst
  1551                           
  1552                           ;State_Voltmeter.c: 76: LCDPutStr("Volts =         ");
  1553  011AA4  0E63               	movlw	low STR_14
  1554  011AA6  6E16               	movwf	LCDPutStr@ptr,c
  1555  011AA8  0EFF               	movlw	high STR_14
  1556  011AAA  6E17               	movwf	LCDPutStr@ptr+1,c
  1557  011AAC  ECF1  F093         	call	_LCDPutStr	;wreg free
  1558                           
  1559                           ;State_Voltmeter.c: 77: LCDPutInst(0xC0);
  1560  011AB0  0EC0               	movlw	192
  1561  011AB2  ECF2  F091         	call	_LCDPutInst
  1562                           
  1563                           ;State_Voltmeter.c: 78: LCDPutChar(a/100+'0');
  1564  011AB6  C084  F023         	movff	disp_Volts@a,___lwdiv@dividend
  1565  011ABA  C085  F024         	movff	disp_Volts@a+1,___lwdiv@dividend+1
  1566  011ABE  0E00               	movlw	0
  1567  011AC0  6E26               	movwf	___lwdiv@divisor+1,c
  1568  011AC2  0E64               	movlw	100
  1569  011AC4  6E25               	movwf	___lwdiv@divisor,c
  1570  011AC6  EC85  F092         	call	___lwdiv	;wreg free
  1571  011ACA  5023               	movf	?___lwdiv,w,c
  1572  011ACC  0F30               	addlw	48
  1573  011ACE  ECBF  F091         	call	_LCDPutChar
  1574                           
  1575                           ;State_Voltmeter.c: 79: LCDPutChar('.');
  1576  011AD2  0E2E               	movlw	46
  1577  011AD4  ECBF  F091         	call	_LCDPutChar
  1578                           
  1579                           ;State_Voltmeter.c: 80: LCDPutChar((a/10)%10+'0');
  1580  011AD8  0E00               	movlw	0
  1581  011ADA  6E26               	movwf	___lwdiv@divisor+1,c
  1582  011ADC  0E0A               	movlw	10
  1583  011ADE  6E25               	movwf	___lwdiv@divisor,c
  1584  011AE0  C084  F023         	movff	disp_Volts@a,___lwdiv@dividend
  1585  011AE4  C085  F024         	movff	disp_Volts@a+1,___lwdiv@dividend+1
  1586  011AE8  EC85  F092         	call	___lwdiv	;wreg free
  1587  011AEC  C023  F02A         	movff	?___lwdiv,___lwmod@dividend
  1588  011AF0  C024  F02B         	movff	?___lwdiv+1,___lwmod@dividend+1
  1589  011AF4  0E00               	movlw	0
  1590  011AF6  6E2D               	movwf	___lwmod@divisor+1,c
  1591  011AF8  0E0A               	movlw	10
  1592  011AFA  6E2C               	movwf	___lwmod@divisor,c
  1593  011AFC  EC09  F093         	call	___lwmod	;wreg free
  1594  011B00  502A               	movf	?___lwmod,w,c
  1595  011B02  0F30               	addlw	48
  1596  011B04  ECBF  F091         	call	_LCDPutChar
  1597                           
  1598                           ;State_Voltmeter.c: 81: LCDPutChar((a /1)% 10+'0');
  1599  011B08  C084  F02A         	movff	disp_Volts@a,___lwmod@dividend
  1600  011B0C  C085  F02B         	movff	disp_Volts@a+1,___lwmod@dividend+1
  1601  011B10  0E00               	movlw	0
  1602  011B12  6E2D               	movwf	___lwmod@divisor+1,c
  1603  011B14  0E0A               	movlw	10
  1604  011B16  6E2C               	movwf	___lwmod@divisor,c
  1605  011B18  EC09  F093         	call	___lwmod	;wreg free
  1606  011B1C  502A               	movf	?___lwmod,w,c
  1607  011B1E  0F30               	addlw	48
  1608  011B20  ECBF  F091         	call	_LCDPutChar
  1609                           
  1610                           ;State_Voltmeter.c: 82: LCDPutStr("V   RB0=Exit");
  1611  011B24  0EC8               	movlw	low STR_15
  1612  011B26  6E16               	movwf	LCDPutStr@ptr,c
  1613  011B28  0EFF               	movlw	high STR_15
  1614  011B2A  6E17               	movwf	LCDPutStr@ptr+1,c
  1615  011B2C  ECF1  F093         	call	_LCDPutStr	;wreg free
  1616                           
  1617                           ;State_Voltmeter.c: 85: printf("%.2fV   RB0=Exit\n\r", (float) a/100);
  1618  011B30  0ED5               	movlw	low STR_16
  1619  011B32  0100               	movlb	0	; () banked
  1620  011B34  6F60               	movwf	printf@f& (0+255),b
  1621  011B36  0EFE               	movlw	high STR_16
  1622  011B38  0100               	movlb	0	; () banked
  1623  011B3A  6F61               	movwf	(printf@f+1)& (0+255),b
  1624  011B3C  C084  F017         	movff	disp_Volts@a,___lwtoft@c
  1625  011B40  C085  F018         	movff	disp_Volts@a+1,___lwtoft@c+1
  1626  011B44  EC60  F094         	call	___lwtoft	;wreg free
  1627  011B48  C017  F01A         	movff	?___lwtoft,___ftdiv@f1
  1628  011B4C  C018  F01B         	movff	?___lwtoft+1,___ftdiv@f1+1
  1629  011B50  C019  F01C         	movff	?___lwtoft+2,___ftdiv@f1+2
  1630  011B54  0E00               	movlw	0
  1631  011B56  6E1D               	movwf	___ftdiv@f2,c
  1632  011B58  0EC8               	movlw	200
  1633  011B5A  6E1E               	movwf	___ftdiv@f2+1,c
  1634  011B5C  0E42               	movlw	66
  1635  011B5E  6E1F               	movwf	___ftdiv@f2+2,c
  1636  011B60  EC3F  F08E         	call	___ftdiv	;wreg free
  1637  011B64  C01A  F062         	movff	?___ftdiv,?_printf+2
  1638  011B68  C01B  F063         	movff	?___ftdiv+1,?_printf+3
  1639  011B6C  C01C  F064         	movff	?___ftdiv+2,?_printf+4
  1640  011B70  EC00  F080         	call	_printf	;wreg free
  1641                           
  1642                           ;State_Voltmeter.c: 88: if (PORTBbits.RB0 == 0)
  1643  011B74  B081               	btfsc	3969,0,c	;volatile
  1644  011B76  D004               	goto	l5441
  1645                           
  1646                           ;State_Voltmeter.c: 89: {
  1647                           ;State_Voltmeter.c: 90: SWdelay();
  1648  011B78  EC0B  F094         	call	_SWdelay	;wreg free
  1649                           
  1650                           ;State_Voltmeter.c: 91: State++;
  1651  011B7C  2A50               	incf	_State,f,c
  1652  011B7E  D000               	goto	l5441
  1653  011B80                     l5441:
  1654  011B80  0450               	decf	_State,w,c
  1655  011B82  B4D8               	btfsc	status,2,c
  1656  011B84  D786               	goto	l5419
  1657  011B86  0012               	return		;funcret
  1658  011B88                     __end_of_disp_Volts:
  1659                           	opt stack 0
  1660                           intcon	equ	0xFF2
  1661                           status	equ	0xFD8
  1662                           
  1663 ;; *************** function ___lwtoft *****************
  1664 ;; Defined at:
  1665 ;;		line 28 in file "C:\Program Files (x86)\Microchip\xc8\v1.34\sources\common\lwtoft.c"
  1666 ;; Parameters:    Size  Location     Type
  1667 ;;  c               2   22[COMRAM] unsigned int 
  1668 ;; Auto vars:     Size  Location     Type
  1669 ;;		None
  1670 ;; Return value:  Size  Location     Type
  1671 ;;                  3   22[COMRAM] float 
  1672 ;; Registers used:
  1673 ;;		wreg, status,2, status,0, cstack
  1674 ;; Tracked objects:
  1675 ;;		On entry : 0/0
  1676 ;;		On exit  : 0/0
  1677 ;;		Unchanged: 0/0
  1678 ;; Data sizes:     COMRAM   BANK0   BANK1   BANK2   BANK3   BANK4   BANK5   BANK6   BANK7   BANK8   BANK9  BANK10  BANK1
      +1  BANK12  BANK13  BANK14  BANK15
  1679 ;;      Params:         3       0       0       0       0       0       0       0       0       0       0       0       
      +0       0       0       0       0
  1680 ;;      Locals:         0       0       0       0       0       0       0       0       0       0       0       0       
      +0       0       0       0       0
  1681 ;;      Temps:          0       0       0       0       0       0       0       0       0       0       0       0       
      +0       0       0       0       0
  1682 ;;      Totals:         3       0       0       0       0       0       0       0       0       0       0       0       
      +0       0       0       0       0
  1683 ;;Total ram usage:        3 bytes
  1684 ;; Hardware stack levels used:    1
  1685 ;; Hardware stack levels required when called:    3
  1686 ;; This function calls:
  1687 ;;		___ftpack
  1688 ;; This function is called by:
  1689 ;;		_disp_Volts
  1690 ;; This function uses a non-reentrant model
  1691 ;;
  1692                           
  1693                           	psect	text3
  1694  0128C0                     __ptext3:
  1695                           	opt stack 0
  1696  0128C0                     ___lwtoft:
  1697                           	opt stack 25
  1698                           
  1699                           ;incstack = 0
  1700  0128C0  C017  F00F         	movff	___lwtoft@c,___ftpack@arg
  1701  0128C4  C018  F010         	movff	___lwtoft@c+1,___ftpack@arg+1
  1702  0128C8  6A11               	clrf	___ftpack@arg+2,c
  1703  0128CA  0E8E               	movlw	142
  1704  0128CC  6E12               	movwf	___ftpack@exp,c
  1705  0128CE  0E00               	movlw	0
  1706  0128D0  6E13               	movwf	___ftpack@sign,c
  1707  0128D2  ECB5  F08E         	call	___ftpack	;wreg free
  1708  0128D6  C00F  F017         	movff	?___ftpack,?___lwtoft
  1709  0128DA  C010  F018         	movff	?___ftpack+1,?___lwtoft+1
  1710  0128DE  C011  F019         	movff	?___ftpack+2,?___lwtoft+2
  1711  0128E2  0012               	return	
  1712  0128E4  0012               	return		;funcret
  1713  0128E6                     __end_of___lwtoft:
  1714                           	opt stack 0
  1715                           intcon	equ	0xFF2
  1716                           status	equ	0xFD8
  1717                           
  1718 ;; *************** function ___ftdiv *****************
  1719 ;; Defined at:
  1720 ;;		line 54 in file "C:\Program Files (x86)\Microchip\xc8\v1.34\sources\common\ftdiv.c"
  1721 ;; Parameters:    Size  Location     Type
  1722 ;;  f1              3   25[COMRAM] float 
  1723 ;;  f2              3   28[COMRAM] float 
  1724 ;; Auto vars:     Size  Location     Type
  1725 ;;  f3              3   35[COMRAM] float 
  1726 ;;  sign            1   39[COMRAM] unsigned char 
  1727 ;;  exp             1   38[COMRAM] unsigned char 
  1728 ;;  cntr            1   34[COMRAM] unsigned char 
  1729 ;; Return value:  Size  Location     Type
  1730 ;;                  3   25[COMRAM] float 
  1731 ;; Registers used:
  1732 ;;		wreg, status,2, status,0, cstack
  1733 ;; Tracked objects:
  1734 ;;		On entry : 0/0
  1735 ;;		On exit  : 0/0
  1736 ;;		Unchanged: 0/0
  1737 ;; Data sizes:     COMRAM   BANK0   BANK1   BANK2   BANK3   BANK4   BANK5   BANK6   BANK7   BANK8   BANK9  BANK10  BANK1
      +1  BANK12  BANK13  BANK14  BANK15
  1738 ;;      Params:         6       0       0       0       0       0       0       0       0       0       0       0       
      +0       0       0       0       0
  1739 ;;      Locals:         6       0       0       0       0       0       0       0       0       0       0       0       
      +0       0       0       0       0
  1740 ;;      Temps:          3       0       0       0       0       0       0       0       0       0       0       0       
      +0       0       0       0       0
  1741 ;;      Totals:        15       0       0       0       0       0       0       0       0       0       0       0       
      +0       0       0       0       0
  1742 ;;Total ram usage:       15 bytes
  1743 ;; Hardware stack levels used:    1
  1744 ;; Hardware stack levels required when called:    3
  1745 ;; This function calls:
  1746 ;;		___ftpack
  1747 ;; This function is called by:
  1748 ;;		_disp_Volts
  1749 ;; This function uses a non-reentrant model
  1750 ;;
  1751                           
  1752                           	psect	text4
  1753  011C7E                     __ptext4:
  1754                           	opt stack 0
  1755  011C7E                     ___ftdiv:
  1756                           	opt stack 25
  1757                           
  1758                           ;incstack = 0
  1759  011C7E  C01C  F020         	movff	___ftdiv@f1+2,??___ftdiv
  1760  011C82  6A21               	clrf	(??___ftdiv+1)& (0+255),c
  1761  011C84  6A22               	clrf	(??___ftdiv+2)& (0+255),c
  1762  011C86  341B               	rlcf	___ftdiv@f1+1,w,c
  1763  011C88  3620               	rlcf	??___ftdiv& (0+255),f,c
  1764  011C8A  E301               	bnc	u5771
  1765  011C8C  8021               	bsf	(??___ftdiv+1)& (0+255),0,c
  1766  011C8E                     u5771:
  1767  011C8E  5020               	movf	??___ftdiv,w,c
  1768  011C90  6E27               	movwf	___ftdiv@exp,c
  1769  011C92  5027               	movf	___ftdiv@exp,w,c
  1770  011C94  A4D8               	btfss	status,2,c
  1771  011C96  D007               	goto	l5321
  1772  011C98  0E00               	movlw	0
  1773  011C9A  6E1A               	movwf	?___ftdiv,c
  1774  011C9C  0E00               	movlw	0
  1775  011C9E  6E1B               	movwf	?___ftdiv+1,c
  1776  011CA0  0E00               	movlw	0
  1777  011CA2  6E1C               	movwf	?___ftdiv+2,c
  1778  011CA4  0012               	return	
  1779  011CA6                     l5321:
  1780  011CA6  C01F  F020         	movff	___ftdiv@f2+2,??___ftdiv
  1781  011CAA  6A21               	clrf	(??___ftdiv+1)& (0+255),c
  1782  011CAC  6A22               	clrf	(??___ftdiv+2)& (0+255),c
  1783  011CAE  341E               	rlcf	___ftdiv@f2+1,w,c
  1784  011CB0  3620               	rlcf	??___ftdiv& (0+255),f,c
  1785  011CB2  E301               	bnc	u5791
  1786  011CB4  8021               	bsf	(??___ftdiv+1)& (0+255),0,c
  1787  011CB6                     u5791:
  1788  011CB6  5020               	movf	??___ftdiv,w,c
  1789  011CB8  6E28               	movwf	___ftdiv@sign,c
  1790  011CBA  5028               	movf	___ftdiv@sign,w,c
  1791  011CBC  A4D8               	btfss	status,2,c
  1792  011CBE  D007               	goto	l5327
  1793  011CC0  0E00               	movlw	0
  1794  011CC2  6E1A               	movwf	?___ftdiv,c
  1795  011CC4  0E00               	movlw	0
  1796  011CC6  6E1B               	movwf	?___ftdiv+1,c
  1797  011CC8  0E00               	movlw	0
  1798  011CCA  6E1C               	movwf	?___ftdiv+2,c
  1799  011CCC  0012               	return	
  1800  011CCE                     l5327:
  1801  011CCE  0E00               	movlw	0
  1802  011CD0  6E24               	movwf	___ftdiv@f3,c
  1803  011CD2  0E00               	movlw	0
  1804  011CD4  6E25               	movwf	___ftdiv@f3+1,c
  1805  011CD6  0E00               	movlw	0
  1806  011CD8  6E26               	movwf	___ftdiv@f3+2,c
  1807  011CDA  5028               	movf	___ftdiv@sign,w,c
  1808  011CDC  0F89               	addlw	137
  1809  011CDE  5E27               	subwf	___ftdiv@exp,f,c
  1810  011CE0  C01C  F028         	movff	___ftdiv@f1+2,___ftdiv@sign
  1811  011CE4  501F               	movf	___ftdiv@f2+2,w,c
  1812  011CE6  1A28               	xorwf	___ftdiv@sign,f,c
  1813  011CE8  0E80               	movlw	128
  1814  011CEA  1628               	andwf	___ftdiv@sign,f,c
  1815  011CEC  8E1B               	bsf	___ftdiv@f1+1,7,c
  1816  011CEE  0EFF               	movlw	255
  1817  011CF0  161A               	andwf	___ftdiv@f1,f,c
  1818  011CF2  0EFF               	movlw	255
  1819  011CF4  161B               	andwf	___ftdiv@f1+1,f,c
  1820  011CF6  0E00               	movlw	0
  1821  011CF8  161C               	andwf	___ftdiv@f1+2,f,c
  1822  011CFA  8E1E               	bsf	___ftdiv@f2+1,7,c
  1823  011CFC  0EFF               	movlw	255
  1824  011CFE  161D               	andwf	___ftdiv@f2,f,c
  1825  011D00  0EFF               	movlw	255
  1826  011D02  161E               	andwf	___ftdiv@f2+1,f,c
  1827  011D04  0E00               	movlw	0
  1828  011D06  161F               	andwf	___ftdiv@f2+2,f,c
  1829  011D08  0E18               	movlw	24
  1830  011D0A  6E23               	movwf	___ftdiv@cntr,c
  1831  011D0C  D000               	goto	l5347
  1832  011D0E                     l5347:
  1833  011D0E  90D8               	bcf	status,0,c
  1834  011D10  3624               	rlcf	___ftdiv@f3,f,c
  1835  011D12  3625               	rlcf	___ftdiv@f3+1,f,c
  1836  011D14  3626               	rlcf	___ftdiv@f3+2,f,c
  1837  011D16  501D               	movf	___ftdiv@f2,w,c
  1838  011D18  5C1A               	subwf	___ftdiv@f1,w,c
  1839  011D1A  501E               	movf	___ftdiv@f2+1,w,c
  1840  011D1C  581B               	subwfb	___ftdiv@f1+1,w,c
  1841  011D1E  501F               	movf	___ftdiv@f2+2,w,c
  1842  011D20  581C               	subwfb	___ftdiv@f1+2,w,c
  1843  011D22  A0D8               	btfss	status,0,c
  1844  011D24  D007               	goto	l1041
  1845  011D26  501D               	movf	___ftdiv@f2,w,c
  1846  011D28  5E1A               	subwf	___ftdiv@f1,f,c
  1847  011D2A  501E               	movf	___ftdiv@f2+1,w,c
  1848  011D2C  5A1B               	subwfb	___ftdiv@f1+1,f,c
  1849  011D2E  501F               	movf	___ftdiv@f2+2,w,c
  1850  011D30  5A1C               	subwfb	___ftdiv@f1+2,f,c
  1851  011D32  8024               	bsf	___ftdiv@f3,0,c
  1852  011D34                     l1041:
  1853  011D34  90D8               	bcf	status,0,c
  1854  011D36  361A               	rlcf	___ftdiv@f1,f,c
  1855  011D38  361B               	rlcf	___ftdiv@f1+1,f,c
  1856  011D3A  361C               	rlcf	___ftdiv@f1+2,f,c
  1857  011D3C  2E23               	decfsz	___ftdiv@cntr,f,c
  1858  011D3E  D7E7               	goto	l5347
  1859  011D40  D000               	goto	l5357
  1860  011D42                     l5357:
  1861  011D42  C024  F00F         	movff	___ftdiv@f3,___ftpack@arg
  1862  011D46  C025  F010         	movff	___ftdiv@f3+1,___ftpack@arg+1
  1863  011D4A  C026  F011         	movff	___ftdiv@f3+2,___ftpack@arg+2
  1864  011D4E  C027  F012         	movff	___ftdiv@exp,___ftpack@exp
  1865  011D52  C028  F013         	movff	___ftdiv@sign,___ftpack@sign
  1866  011D56  ECB5  F08E         	call	___ftpack	;wreg free
  1867  011D5A  C00F  F01A         	movff	?___ftpack,?___ftdiv
  1868  011D5E  C010  F01B         	movff	?___ftpack+1,?___ftdiv+1
  1869  011D62  C011  F01C         	movff	?___ftpack+2,?___ftdiv+2
  1870  011D66  0012               	return	
  1871  011D68  0012               	return		;funcret
  1872  011D6A                     __end_of___ftdiv:
  1873                           	opt stack 0
  1874                           intcon	equ	0xFF2
  1875                           status	equ	0xFD8
  1876                           
  1877 ;; *************** function _Volt_Result *****************
  1878 ;; Defined at:
  1879 ;;		line 103 in file "State_Voltmeter.c"
  1880 ;; Parameters:    Size  Location     Type
  1881 ;;		None
  1882 ;; Auto vars:     Size  Location     Type
  1883 ;;  b               2   43[COMRAM] unsigned int 
  1884 ;; Return value:  Size  Location     Type
  1885 ;;                  2   41[COMRAM] int 
  1886 ;; Registers used:
  1887 ;;		wreg, status,2, status,0, cstack
  1888 ;; Tracked objects:
  1889 ;;		On entry : 0/0
  1890 ;;		On exit  : 0/0
  1891 ;;		Unchanged: 0/0
  1892 ;; Data sizes:     COMRAM   BANK0   BANK1   BANK2   BANK3   BANK4   BANK5   BANK6   BANK7   BANK8   BANK9  BANK10  BANK1
      +1  BANK12  BANK13  BANK14  BANK15
  1893 ;;      Params:         2       0       0       0       0       0       0       0       0       0       0       0       
      +0       0       0       0       0
  1894 ;;      Locals:         2       0       0       0       0       0       0       0       0       0       0       0       
      +0       0       0       0       0
  1895 ;;      Temps:          0       0       0       0       0       0       0       0       0       0       0       0       
      +0       0       0       0       0
  1896 ;;      Totals:         4       0       0       0       0       0       0       0       0       0       0       0       
      +0       0       0       0       0
  1897 ;;Total ram usage:        4 bytes
  1898 ;; Hardware stack levels used:    1
  1899 ;; Hardware stack levels required when called:    3
  1900 ;; This function calls:
  1901 ;;		_ADC_GetConversion
  1902 ;;		___lwdiv
  1903 ;; This function is called by:
  1904 ;;		_disp_Volts
  1905 ;; This function uses a non-reentrant model
  1906 ;;
  1907                           
  1908                           	psect	text5
  1909  012774                     __ptext5:
  1910                           	opt stack 0
  1911  012774                     _Volt_Result:
  1912                           	opt stack 25
  1913                           
  1914                           ;State_Voltmeter.c: 105: unsigned int b;
  1915                           ;State_Voltmeter.c: 111: b = (ADC_GetConversion(Pot)*32)/100;
  1916                           
  1917                           ;incstack = 0
  1918  012774  0E00               	movlw	0
  1919  012776  ECD7  F093         	call	_ADC_GetConversion
  1920  01277A  0E05               	movlw	5
  1921  01277C                     u5695:
  1922  01277C  90D8               	bcf	status,0,c
  1923  01277E  360F               	rlcf	?_ADC_GetConversion,f,c
  1924  012780  3610               	rlcf	?_ADC_GetConversion+1,f,c
  1925  012782  2EE8               	decfsz	wreg,f,c
  1926  012784  D7FB               	goto	u5695
  1927  012786  C00F  F023         	movff	?_ADC_GetConversion,___lwdiv@dividend
  1928  01278A  C010  F024         	movff	?_ADC_GetConversion+1,___lwdiv@dividend+1
  1929  01278E  0E00               	movlw	0
  1930  012790  6E26               	movwf	___lwdiv@divisor+1,c
  1931  012792  0E64               	movlw	100
  1932  012794  6E25               	movwf	___lwdiv@divisor,c
  1933  012796  EC85  F092         	call	___lwdiv	;wreg free
  1934  01279A  C023  F02C         	movff	?___lwdiv,Volt_Result@b
  1935  01279E  C024  F02D         	movff	?___lwdiv+1,Volt_Result@b+1
  1936                           
  1937                           ;State_Voltmeter.c: 114: return b;
  1938  0127A2  C02C  F02A         	movff	Volt_Result@b,?_Volt_Result
  1939  0127A6  C02D  F02B         	movff	Volt_Result@b+1,?_Volt_Result+1
  1940  0127AA  0012               	return	
  1941  0127AC  0012               	return		;funcret
  1942  0127AE                     __end_of_Volt_Result:
  1943                           	opt stack 0
  1944                           intcon	equ	0xFF2
  1945                           wreg	equ	0xFE8
  1946                           status	equ	0xFD8
  1947                           
  1948 ;; *************** function _Temperature *****************
  1949 ;; Defined at:
  1950 ;;		line 32 in file "State_Temperature.c"
  1951 ;; Parameters:    Size  Location     Type
  1952 ;;		None
  1953 ;; Auto vars:     Size  Location     Type
  1954 ;;		None
  1955 ;; Return value:  Size  Location     Type
  1956 ;;		None               void
  1957 ;; Registers used:
  1958 ;;		wreg, fsr2l, fsr2h, status,2, status,0, tblptrl, tblptrh, tblptru, prodl, prodh, cstack
  1959 ;; Tracked objects:
  1960 ;;		On entry : 0/0
  1961 ;;		On exit  : 0/0
  1962 ;;		Unchanged: 0/0
  1963 ;; Data sizes:     COMRAM   BANK0   BANK1   BANK2   BANK3   BANK4   BANK5   BANK6   BANK7   BANK8   BANK9  BANK10  BANK1
      +1  BANK12  BANK13  BANK14  BANK15
  1964 ;;      Params:         0       0       0       0       0       0       0       0       0       0       0       0       
      +0       0       0       0       0
  1965 ;;      Locals:         0       0       0       0       0       0       0       0       0       0       0       0       
      +0       0       0       0       0
  1966 ;;      Temps:          0       0       0       0       0       0       0       0       0       0       0       0       
      +0       0       0       0       0
  1967 ;;      Totals:         0       0       0       0       0       0       0       0       0       0       0       0       
      +0       0       0       0       0
  1968 ;;Total ram usage:        0 bytes
  1969 ;; Hardware stack levels used:    1
  1970 ;; Hardware stack levels required when called:    7
  1971 ;; This function calls:
  1972 ;;		_LCDPutInst
  1973 ;;		_LCDPutStr
  1974 ;;		_SWdelay
  1975 ;;		_disp_Temperature
  1976 ;;		_printf
  1977 ;; This function is called by:
  1978 ;;		_main
  1979 ;; This function uses a non-reentrant model
  1980 ;;
  1981                           
  1982                           	psect	text6
  1983  0122AC                     __ptext6:
  1984                           	opt stack 0
  1985  0122AC                     _Temperature:
  1986                           	opt stack 23
  1987                           
  1988                           ;State_Temperature.c: 35: LCDPutInst(0x80);
  1989                           
  1990                           ;incstack = 0
  1991  0122AC  0E80               	movlw	128
  1992  0122AE  ECF2  F091         	call	_LCDPutInst
  1993                           
  1994                           ;State_Temperature.c: 36: LCDPutStr("  Temperature   ");
  1995  0122B2  0E85               	movlw	low STR_1
  1996  0122B4  6E16               	movwf	LCDPutStr@ptr,c
  1997  0122B6  0EFF               	movlw	high STR_1
  1998  0122B8  6E17               	movwf	LCDPutStr@ptr+1,c
  1999  0122BA  ECF1  F093         	call	_LCDPutStr	;wreg free
  2000                           
  2001                           ;State_Temperature.c: 37: LCDPutInst(0xC0);
  2002  0122BE  0EC0               	movlw	192
  2003  0122C0  ECF2  F091         	call	_LCDPutInst
  2004                           
  2005                           ;State_Temperature.c: 38: LCDPutStr("RB0=Now RA5=Next");
  2006  0122C4  0EA7               	movlw	low STR_2
  2007  0122C6  6E16               	movwf	LCDPutStr@ptr,c
  2008  0122C8  0EFF               	movlw	high STR_2
  2009  0122CA  6E17               	movwf	LCDPutStr@ptr+1,c
  2010  0122CC  ECF1  F093         	call	_LCDPutStr	;wreg free
  2011                           
  2012                           ;State_Temperature.c: 41: printf("  Temperature   \n\r");
  2013  0122D0  0EE8               	movlw	low STR_3
  2014  0122D2  0100               	movlb	0	; () banked
  2015  0122D4  6F60               	movwf	printf@f& (0+255),b
  2016  0122D6  0EFE               	movlw	high STR_3
  2017  0122D8  0100               	movlb	0	; () banked
  2018  0122DA  6F61               	movwf	(printf@f+1)& (0+255),b
  2019  0122DC  EC00  F080         	call	_printf	;wreg free
  2020                           
  2021                           ;State_Temperature.c: 42: printf("RB0=Now RA5=Next\n\r");
  2022  0122E0  0EFB               	movlw	low STR_4
  2023  0122E2  0100               	movlb	0	; () banked
  2024  0122E4  6F60               	movwf	printf@f& (0+255),b
  2025  0122E6  0EFE               	movlw	high STR_4
  2026  0122E8  0100               	movlb	0	; () banked
  2027  0122EA  6F61               	movwf	(printf@f+1)& (0+255),b
  2028  0122EC  EC00  F080         	call	_printf	;wreg free
  2029                           
  2030                           ;State_Temperature.c: 45: while (State == 2)
  2031  0122F0  D00D               	goto	l5585
  2032  0122F2                     l244:
  2033                           
  2034                           ;State_Temperature.c: 46: {
  2035                           ;State_Temperature.c: 47: if (PORTBbits.RB0 == 0)
  2036  0122F2  B081               	btfsc	3969,0,c	;volatile
  2037  0122F4  D005               	goto	l5579
  2038                           
  2039                           ;State_Temperature.c: 48: {
  2040                           ;State_Temperature.c: 49: SWdelay();
  2041  0122F6  EC0B  F094         	call	_SWdelay	;wreg free
  2042                           
  2043                           ;State_Temperature.c: 50: disp_Temperature ();
  2044  0122FA  ECC4  F08D         	call	_disp_Temperature	;wreg free
  2045  0122FE  D000               	goto	l5579
  2046  012300                     l5579:
  2047                           
  2048                           ;State_Temperature.c: 51: }
  2049                           ;State_Temperature.c: 52: if (PORTAbits.RA5 == 0)
  2050  012300  BA80               	btfsc	3968,5,c	;volatile
  2051  012302  D004               	goto	l5585
  2052                           
  2053                           ;State_Temperature.c: 53: {
  2054                           ;State_Temperature.c: 54: SWdelay();
  2055  012304  EC0B  F094         	call	_SWdelay	;wreg free
  2056                           
  2057                           ;State_Temperature.c: 55: State++;
  2058  012308  2A50               	incf	_State,f,c
  2059  01230A  D000               	goto	l5585
  2060  01230C                     l5585:
  2061  01230C  0E02               	movlw	2
  2062  01230E  1850               	xorwf	_State,w,c
  2063  012310  B4D8               	btfsc	status,2,c
  2064  012312  D7EF               	goto	l244
  2065  012314  0012               	return		;funcret
  2066  012316                     __end_of_Temperature:
  2067                           	opt stack 0
  2068                           intcon	equ	0xFF2
  2069                           wreg	equ	0xFE8
  2070                           status	equ	0xFD8
  2071                           
  2072 ;; *************** function _disp_Temperature *****************
  2073 ;; Defined at:
  2074 ;;		line 69 in file "State_Temperature.c"
  2075 ;; Parameters:    Size  Location     Type
  2076 ;;		None
  2077 ;; Auto vars:     Size  Location     Type
  2078 ;;  a               2   36[BANK0 ] unsigned int 
  2079 ;; Return value:  Size  Location     Type
  2080 ;;		None               void
  2081 ;; Registers used:
  2082 ;;		wreg, fsr2l, fsr2h, status,2, status,0, tblptrl, tblptrh, tblptru, prodl, prodh, cstack
  2083 ;; Tracked objects:
  2084 ;;		On entry : 0/0
  2085 ;;		On exit  : 0/0
  2086 ;;		Unchanged: 0/0
  2087 ;; Data sizes:     COMRAM   BANK0   BANK1   BANK2   BANK3   BANK4   BANK5   BANK6   BANK7   BANK8   BANK9  BANK10  BANK1
      +1  BANK12  BANK13  BANK14  BANK15
  2088 ;;      Params:         0       0       0       0       0       0       0       0       0       0       0       0       
      +0       0       0       0       0
  2089 ;;      Locals:         0       2       0       0       0       0       0       0       0       0       0       0       
      +0       0       0       0       0
  2090 ;;      Temps:          0       0       0       0       0       0       0       0       0       0       0       0       
      +0       0       0       0       0
  2091 ;;      Totals:         0       2       0       0       0       0       0       0       0       0       0       0       
      +0       0       0       0       0
  2092 ;;Total ram usage:        2 bytes
  2093 ;; Hardware stack levels used:    1
  2094 ;; Hardware stack levels required when called:    6
  2095 ;; This function calls:
  2096 ;;		_InitEEPROM
  2097 ;;		_LCDPutChar
  2098 ;;		_LCDPutInst
  2099 ;;		_LCDPutStr
  2100 ;;		_SWdelay
  2101 ;;		_Temp_Result
  2102 ;;		_WriteEEPROM
  2103 ;;		___lwdiv
  2104 ;;		___lwmod
  2105 ;;		_printf
  2106 ;; This function is called by:
  2107 ;;		_Temperature
  2108 ;; This function uses a non-reentrant model
  2109 ;;
  2110                           
  2111                           	psect	text7
  2112  011B88                     __ptext7:
  2113                           	opt stack 0
  2114  011B88                     _disp_Temperature:
  2115                           	opt stack 23
  2116                           
  2117                           ;State_Temperature.c: 71: unsigned int a;
  2118                           ;State_Temperature.c: 72: while (State == 2)
  2119                           
  2120                           ;incstack = 0
  2121  011B88  D075               	goto	l5415
  2122  011B8A                     l5383:
  2123                           
  2124                           ;State_Temperature.c: 73: {
  2125                           ;State_Temperature.c: 74: a = Temp_Result ();
  2126  011B8A  EC54  F093         	call	_Temp_Result	;wreg free
  2127  011B8E  C02A  F084         	movff	?_Temp_Result,disp_Temperature@a
  2128  011B92  C02B  F085         	movff	?_Temp_Result+1,disp_Temperature@a+1
  2129                           
  2130                           ;State_Temperature.c: 77: LCDPutInst(0x80);
  2131  011B96  0E80               	movlw	128
  2132  011B98  ECF2  F091         	call	_LCDPutInst
  2133                           
  2134                           ;State_Temperature.c: 78: LCDPutStr("Temp = = ");
  2135  011B9C  0EE2               	movlw	low STR_5
  2136  011B9E  6E16               	movwf	LCDPutStr@ptr,c
  2137  011BA0  0EFF               	movlw	high STR_5
  2138  011BA2  6E17               	movwf	LCDPutStr@ptr+1,c
  2139  011BA4  ECF1  F093         	call	_LCDPutStr	;wreg free
  2140                           
  2141                           ;State_Temperature.c: 79: LCDPutChar(a/100+'0');
  2142  011BA8  C084  F023         	movff	disp_Temperature@a,___lwdiv@dividend
  2143  011BAC  C085  F024         	movff	disp_Temperature@a+1,___lwdiv@dividend+1
  2144  011BB0  0E00               	movlw	0
  2145  011BB2  6E26               	movwf	___lwdiv@divisor+1,c
  2146  011BB4  0E64               	movlw	100
  2147  011BB6  6E25               	movwf	___lwdiv@divisor,c
  2148  011BB8  EC85  F092         	call	___lwdiv	;wreg free
  2149  011BBC  5023               	movf	?___lwdiv,w,c
  2150  011BBE  0F30               	addlw	48
  2151  011BC0  ECBF  F091         	call	_LCDPutChar
  2152                           
  2153                           ;State_Temperature.c: 80: LCDPutChar((a/10)%10+'0');
  2154  011BC4  0E00               	movlw	0
  2155  011BC6  6E26               	movwf	___lwdiv@divisor+1,c
  2156  011BC8  0E0A               	movlw	10
  2157  011BCA  6E25               	movwf	___lwdiv@divisor,c
  2158  011BCC  C084  F023         	movff	disp_Temperature@a,___lwdiv@dividend
  2159  011BD0  C085  F024         	movff	disp_Temperature@a+1,___lwdiv@dividend+1
  2160  011BD4  EC85  F092         	call	___lwdiv	;wreg free
  2161  011BD8  C023  F02A         	movff	?___lwdiv,___lwmod@dividend
  2162  011BDC  C024  F02B         	movff	?___lwdiv+1,___lwmod@dividend+1
  2163  011BE0  0E00               	movlw	0
  2164  011BE2  6E2D               	movwf	___lwmod@divisor+1,c
  2165  011BE4  0E0A               	movlw	10
  2166  011BE6  6E2C               	movwf	___lwmod@divisor,c
  2167  011BE8  EC09  F093         	call	___lwmod	;wreg free
  2168  011BEC  502A               	movf	?___lwmod,w,c
  2169  011BEE  0F30               	addlw	48
  2170  011BF0  ECBF  F091         	call	_LCDPutChar
  2171                           
  2172                           ;State_Temperature.c: 81: LCDPutChar((a /1)% 10+'0');
  2173  011BF4  C084  F02A         	movff	disp_Temperature@a,___lwmod@dividend
  2174  011BF8  C085  F02B         	movff	disp_Temperature@a+1,___lwmod@dividend+1
  2175  011BFC  0E00               	movlw	0
  2176  011BFE  6E2D               	movwf	___lwmod@divisor+1,c
  2177  011C00  0E0A               	movlw	10
  2178  011C02  6E2C               	movwf	___lwmod@divisor,c
  2179  011C04  EC09  F093         	call	___lwmod	;wreg free
  2180  011C08  502A               	movf	?___lwmod,w,c
  2181  011C0A  0F30               	addlw	48
  2182  011C0C  ECBF  F091         	call	_LCDPutChar
  2183                           
  2184                           ;State_Temperature.c: 82: LCDPutStr("C   ");
  2185  011C10  0EF9               	movlw	low STR_6
  2186  011C12  6E16               	movwf	LCDPutStr@ptr,c
  2187  011C14  0EFF               	movlw	high STR_6
  2188  011C16  6E17               	movwf	LCDPutStr@ptr+1,c
  2189  011C18  ECF1  F093         	call	_LCDPutStr	;wreg free
  2190                           
  2191                           ;State_Temperature.c: 83: LCDPutInst(0xC0);
  2192  011C1C  0EC0               	movlw	192
  2193  011C1E  ECF2  F091         	call	_LCDPutInst
  2194                           
  2195                           ;State_Temperature.c: 84: LCDPutStr("   RB0 = Exit   ");
  2196  011C22  0E96               	movlw	low STR_7
  2197  011C24  6E16               	movwf	LCDPutStr@ptr,c
  2198  011C26  0EFF               	movlw	high STR_7
  2199  011C28  6E17               	movwf	LCDPutStr@ptr+1,c
  2200  011C2A  ECF1  F093         	call	_LCDPutStr	;wreg free
  2201                           
  2202                           ;State_Temperature.c: 87: printf("Temp = = %03dC\t",a);
  2203  011C2E  0EB8               	movlw	low STR_8
  2204  011C30  0100               	movlb	0	; () banked
  2205  011C32  6F60               	movwf	printf@f& (0+255),b
  2206  011C34  0EFF               	movlw	high STR_8
  2207  011C36  0100               	movlb	0	; () banked
  2208  011C38  6F61               	movwf	(printf@f+1)& (0+255),b
  2209  011C3A  C084  F062         	movff	disp_Temperature@a,?_printf+2
  2210  011C3E  C085  F063         	movff	disp_Temperature@a+1,?_printf+3
  2211  011C42  EC00  F080         	call	_printf	;wreg free
  2212                           
  2213                           ;State_Temperature.c: 88: printf("RB0 = Exit\n\r");
  2214  011C46  0ED5               	movlw	low STR_9
  2215  011C48  0100               	movlb	0	; () banked
  2216  011C4A  6F60               	movwf	printf@f& (0+255),b
  2217  011C4C  0EFF               	movlw	high STR_9
  2218  011C4E  0100               	movlb	0	; () banked
  2219  011C50  6F61               	movwf	(printf@f+1)& (0+255),b
  2220  011C52  EC00  F080         	call	_printf	;wreg free
  2221                           
  2222                           ;State_Temperature.c: 91: InitEEPROM ();
  2223  011C56  EC11  F095         	call	_InitEEPROM	;wreg free
  2224                           
  2225                           ;State_Temperature.c: 92: WriteEEPROM (0x00,0x00,a);
  2226  011C5A  0E00               	movlw	0
  2227  011C5C  6E12               	movwf	WriteEEPROM@adr_lo,c
  2228  011C5E  C084  F013         	movff	disp_Temperature@a,WriteEEPROM@temp
  2229  011C62  0E00               	movlw	0
  2230  011C64  EC2F  F093         	call	_WriteEEPROM
  2231                           
  2232                           ;State_Temperature.c: 94: if (PORTBbits.RB0 == 0)
  2233  011C68  B081               	btfsc	3969,0,c	;volatile
  2234  011C6A  D004               	goto	l5415
  2235                           
  2236                           ;State_Temperature.c: 95: {
  2237                           ;State_Temperature.c: 96: SWdelay();
  2238  011C6C  EC0B  F094         	call	_SWdelay	;wreg free
  2239                           
  2240                           ;State_Temperature.c: 97: State++;
  2241  011C70  2A50               	incf	_State,f,c
  2242  011C72  D000               	goto	l5415
  2243  011C74                     l5415:
  2244  011C74  0E02               	movlw	2
  2245  011C76  1850               	xorwf	_State,w,c
  2246  011C78  B4D8               	btfsc	status,2,c
  2247  011C7A  D787               	goto	l5383
  2248  011C7C  0012               	return		;funcret
  2249  011C7E                     __end_of_disp_Temperature:
  2250                           	opt stack 0
  2251                           intcon	equ	0xFF2
  2252                           wreg	equ	0xFE8
  2253                           status	equ	0xFD8
  2254                           
  2255 ;; *************** function ___lwmod *****************
  2256 ;; Defined at:
  2257 ;;		line 8 in file "C:\Program Files (x86)\Microchip\xc8\v1.34\sources\common\lwmod.c"
  2258 ;; Parameters:    Size  Location     Type
  2259 ;;  dividend        2   41[COMRAM] unsigned int 
  2260 ;;  divisor         2   43[COMRAM] unsigned int 
  2261 ;; Auto vars:     Size  Location     Type
  2262 ;;  counter         1   45[COMRAM] unsigned char 
  2263 ;; Return value:  Size  Location     Type
  2264 ;;                  2   41[COMRAM] unsigned int 
  2265 ;; Registers used:
  2266 ;;		wreg, status,2, status,0
  2267 ;; Tracked objects:
  2268 ;;		On entry : 0/0
  2269 ;;		On exit  : 0/0
  2270 ;;		Unchanged: 0/0
  2271 ;; Data sizes:     COMRAM   BANK0   BANK1   BANK2   BANK3   BANK4   BANK5   BANK6   BANK7   BANK8   BANK9  BANK10  BANK1
      +1  BANK12  BANK13  BANK14  BANK15
  2272 ;;      Params:         4       0       0       0       0       0       0       0       0       0       0       0       
      +0       0       0       0       0
  2273 ;;      Locals:         1       0       0       0       0       0       0       0       0       0       0       0       
      +0       0       0       0       0
  2274 ;;      Temps:          0       0       0       0       0       0       0       0       0       0       0       0       
      +0       0       0       0       0
  2275 ;;      Totals:         5       0       0       0       0       0       0       0       0       0       0       0       
      +0       0       0       0       0
  2276 ;;Total ram usage:        5 bytes
  2277 ;; Hardware stack levels used:    1
  2278 ;; Hardware stack levels required when called:    2
  2279 ;; This function calls:
  2280 ;;		Nothing
  2281 ;; This function is called by:
  2282 ;;		_disp_Temperature
  2283 ;;		_disp_Volts
  2284 ;; This function uses a non-reentrant model
  2285 ;;
  2286                           
  2287                           	psect	text8
  2288  012612                     __ptext8:
  2289                           	opt stack 0
  2290  012612                     ___lwmod:
  2291                           	opt stack 26
  2292                           
  2293                           ;incstack = 0
  2294  012612  502C               	movf	___lwmod@divisor,w,c
  2295  012614  102D               	iorwf	___lwmod@divisor+1,w,c
  2296  012616  B4D8               	btfsc	status,2,c
  2297  012618  D01D               	goto	l1208
  2298  01261A  0E01               	movlw	1
  2299  01261C  6E2E               	movwf	___lwmod@counter,c
  2300  01261E  D005               	goto	l5367
  2301  012620                     l5365:
  2302  012620  90D8               	bcf	status,0,c
  2303  012622  362C               	rlcf	___lwmod@divisor,f,c
  2304  012624  362D               	rlcf	___lwmod@divisor+1,f,c
  2305  012626  2A2E               	incf	___lwmod@counter,f,c
  2306  012628  D000               	goto	l5367
  2307  01262A                     l5367:
  2308  01262A  BE2D               	btfsc	___lwmod@divisor+1,7,c
  2309  01262C  D002               	goto	l5369
  2310  01262E  D7F8               	goto	l5365
  2311  012630  D000               	goto	l5369
  2312  012632                     l5369:
  2313  012632  502C               	movf	___lwmod@divisor,w,c
  2314  012634  5C2A               	subwf	___lwmod@dividend,w,c
  2315  012636  502D               	movf	___lwmod@divisor+1,w,c
  2316  012638  582B               	subwfb	___lwmod@dividend+1,w,c
  2317  01263A  A0D8               	btfss	status,0,c
  2318  01263C  D005               	goto	l5373
  2319  01263E  502C               	movf	___lwmod@divisor,w,c
  2320  012640  5E2A               	subwf	___lwmod@dividend,f,c
  2321  012642  502D               	movf	___lwmod@divisor+1,w,c
  2322  012644  5A2B               	subwfb	___lwmod@dividend+1,f,c
  2323  012646  D000               	goto	l5373
  2324  012648                     l5373:
  2325  012648  90D8               	bcf	status,0,c
  2326  01264A  322D               	rrcf	___lwmod@divisor+1,f,c
  2327  01264C  322C               	rrcf	___lwmod@divisor,f,c
  2328  01264E  2E2E               	decfsz	___lwmod@counter,f,c
  2329  012650  D7F0               	goto	l5369
  2330  012652  D000               	goto	l1208
  2331  012654                     l1208:
  2332  012654  C02A  F02A         	movff	___lwmod@dividend,?___lwmod
  2333  012658  C02B  F02B         	movff	___lwmod@dividend+1,?___lwmod+1
  2334  01265C  0012               	return		;funcret
  2335  01265E                     __end_of___lwmod:
  2336                           	opt stack 0
  2337                           intcon	equ	0xFF2
  2338                           wreg	equ	0xFE8
  2339                           status	equ	0xFD8
  2340                           
  2341 ;; *************** function _WriteEEPROM *****************
  2342 ;; Defined at:
  2343 ;;		line 46 in file "BBSPI_EEPROM.c"
  2344 ;; Parameters:    Size  Location     Type
  2345 ;;  adr_hi          1    wreg     unsigned char 
  2346 ;;  adr_lo          1   17[COMRAM] unsigned char 
  2347 ;;  temp            1   18[COMRAM] unsigned char 
  2348 ;; Auto vars:     Size  Location     Type
  2349 ;;  adr_hi          1   20[COMRAM] unsigned char 
  2350 ;; Return value:  Size  Location     Type
  2351 ;;		None               void
  2352 ;; Registers used:
  2353 ;;		wreg, status,2, status,0, cstack
  2354 ;; Tracked objects:
  2355 ;;		On entry : 0/0
  2356 ;;		On exit  : 0/0
  2357 ;;		Unchanged: 0/0
  2358 ;; Data sizes:     COMRAM   BANK0   BANK1   BANK2   BANK3   BANK4   BANK5   BANK6   BANK7   BANK8   BANK9  BANK10  BANK1
      +1  BANK12  BANK13  BANK14  BANK15
  2359 ;;      Params:         2       0       0       0       0       0       0       0       0       0       0       0       
      +0       0       0       0       0
  2360 ;;      Locals:         1       0       0       0       0       0       0       0       0       0       0       0       
      +0       0       0       0       0
  2361 ;;      Temps:          1       0       0       0       0       0       0       0       0       0       0       0       
      +0       0       0       0       0
  2362 ;;      Totals:         4       0       0       0       0       0       0       0       0       0       0       0       
      +0       0       0       0       0
  2363 ;;Total ram usage:        4 bytes
  2364 ;; Hardware stack levels used:    1
  2365 ;; Hardware stack levels required when called:    3
  2366 ;; This function calls:
  2367 ;;		_SendByteBBSPI
  2368 ;; This function is called by:
  2369 ;;		_disp_Temperature
  2370 ;; This function uses a non-reentrant model
  2371 ;;
  2372                           
  2373                           	psect	text9
  2374  01265E                     __ptext9:
  2375                           	opt stack 0
  2376  01265E                     _WriteEEPROM:
  2377                           	opt stack 25
  2378                           
  2379                           ;incstack = 0
  2380                           ;WriteEEPROM@adr_hi stored from wreg
  2381  01265E  6E15               	movwf	WriteEEPROM@adr_hi,c
  2382                           
  2383                           ;BBSPI_EEPROM.c: 48: LATAbits.LATA3 = 0;
  2384  012660  9689               	bcf	3977,3,c	;volatile
  2385                           
  2386                           ;BBSPI_EEPROM.c: 49: SendByteBBSPI(0x06);
  2387  012662  0E06               	movlw	6
  2388  012664  ECB3  F092         	call	_SendByteBBSPI
  2389                           
  2390                           ;BBSPI_EEPROM.c: 50: LATAbits.LATA3 = 1;
  2391  012668  8689               	bsf	3977,3,c	;volatile
  2392                           
  2393                           ;BBSPI_EEPROM.c: 51: _delay((unsigned long)((5)*(10000000/4000.0)));
  2394  01266A  0E11               	movlw	17
  2395  01266C  6E14               	movwf	??_WriteEEPROM& (0+255),c
  2396  01266E  0E3A               	movlw	58
  2397  012670                     u6077:
  2398  012670  2EE8               	decfsz	wreg,f,c
  2399  012672  D7FE               	goto	u6077
  2400  012674  2E14               	decfsz	??_WriteEEPROM& (0+255),f,c
  2401  012676  D7FC               	goto	u6077
  2402  012678  D000               	nop2	
  2403                           
  2404                           ;BBSPI_EEPROM.c: 52: LATAbits.LATA3 = 0;
  2405  01267A  9689               	bcf	3977,3,c	;volatile
  2406                           
  2407                           ;BBSPI_EEPROM.c: 53: SendByteBBSPI(0x02);
  2408  01267C  0E02               	movlw	2
  2409  01267E  ECB3  F092         	call	_SendByteBBSPI
  2410                           
  2411                           ;BBSPI_EEPROM.c: 54: SendByteBBSPI(adr_hi);
  2412  012682  5015               	movf	WriteEEPROM@adr_hi,w,c
  2413  012684  ECB3  F092         	call	_SendByteBBSPI
  2414                           
  2415                           ;BBSPI_EEPROM.c: 55: SendByteBBSPI(adr_lo);
  2416  012688  5012               	movf	WriteEEPROM@adr_lo,w,c
  2417  01268A  ECB3  F092         	call	_SendByteBBSPI
  2418                           
  2419                           ;BBSPI_EEPROM.c: 56: SendByteBBSPI(temp);
  2420  01268E  5013               	movf	WriteEEPROM@temp,w,c
  2421  012690  ECB3  F092         	call	_SendByteBBSPI
  2422                           
  2423                           ;BBSPI_EEPROM.c: 57: LATAbits.LATA3 = 1;
  2424  012694  8689               	bsf	3977,3,c	;volatile
  2425                           
  2426                           ;BBSPI_EEPROM.c: 58: _delay((unsigned long)((5)*(10000000/4000.0)));
  2427  012696  0E11               	movlw	17
  2428  012698  6E14               	movwf	??_WriteEEPROM& (0+255),c
  2429  01269A  0E3A               	movlw	58
  2430  01269C                     u6087:
  2431  01269C  2EE8               	decfsz	wreg,f,c
  2432  01269E  D7FE               	goto	u6087
  2433  0126A0  2E14               	decfsz	??_WriteEEPROM& (0+255),f,c
  2434  0126A2  D7FC               	goto	u6087
  2435  0126A4  D000               	nop2	
  2436  0126A6  0012               	return		;funcret
  2437  0126A8                     __end_of_WriteEEPROM:
  2438                           	opt stack 0
  2439                           intcon	equ	0xFF2
  2440                           wreg	equ	0xFE8
  2441                           status	equ	0xFD8
  2442                           
  2443 ;; *************** function _Temp_Result *****************
  2444 ;; Defined at:
  2445 ;;		line 110 in file "State_Temperature.c"
  2446 ;; Parameters:    Size  Location     Type
  2447 ;;		None
  2448 ;; Auto vars:     Size  Location     Type
  2449 ;;  b               2   43[COMRAM] unsigned int 
  2450 ;; Return value:  Size  Location     Type
  2451 ;;                  2   41[COMRAM] int 
  2452 ;; Registers used:
  2453 ;;		wreg, status,2, status,0, prodl, prodh, cstack
  2454 ;; Tracked objects:
  2455 ;;		On entry : 0/0
  2456 ;;		On exit  : 0/0
  2457 ;;		Unchanged: 0/0
  2458 ;; Data sizes:     COMRAM   BANK0   BANK1   BANK2   BANK3   BANK4   BANK5   BANK6   BANK7   BANK8   BANK9  BANK10  BANK1
      +1  BANK12  BANK13  BANK14  BANK15
  2459 ;;      Params:         2       0       0       0       0       0       0       0       0       0       0       0       
      +0       0       0       0       0
  2460 ;;      Locals:         2       0       0       0       0       0       0       0       0       0       0       0       
      +0       0       0       0       0
  2461 ;;      Temps:          0       0       0       0       0       0       0       0       0       0       0       0       
      +0       0       0       0       0
  2462 ;;      Totals:         4       0       0       0       0       0       0       0       0       0       0       0       
      +0       0       0       0       0
  2463 ;;Total ram usage:        4 bytes
  2464 ;; Hardware stack levels used:    1
  2465 ;; Hardware stack levels required when called:    3
  2466 ;; This function calls:
  2467 ;;		_ADC_GetConversion
  2468 ;;		___lwdiv
  2469 ;;		___wmul
  2470 ;; This function is called by:
  2471 ;;		_disp_Temperature
  2472 ;; This function uses a non-reentrant model
  2473 ;;
  2474                           
  2475                           	psect	text10
  2476  0126A8                     __ptext10:
  2477                           	opt stack 0
  2478  0126A8                     _Temp_Result:
  2479                           	opt stack 25
  2480                           
  2481                           ;State_Temperature.c: 112: unsigned int b;
  2482                           ;State_Temperature.c: 118: b = ((ADC_GetConversion(Temp_sensor)*33)-4000)/195;
  2483                           
  2484                           ;incstack = 0
  2485  0126A8  0E01               	movlw	1
  2486  0126AA  ECD7  F093         	call	_ADC_GetConversion
  2487  0126AE  C00F  F01D         	movff	?_ADC_GetConversion,___wmul@multiplier
  2488  0126B2  C010  F01E         	movff	?_ADC_GetConversion+1,___wmul@multiplier+1
  2489  0126B6  0E00               	movlw	0
  2490  0126B8  6E20               	movwf	___wmul@multiplicand+1,c
  2491  0126BA  0E21               	movlw	33
  2492  0126BC  6E1F               	movwf	___wmul@multiplicand,c
  2493  0126BE  EC4C  F094         	call	___wmul	;wreg free
  2494  0126C2  0E60               	movlw	96
  2495  0126C4  241D               	addwf	?___wmul,w,c
  2496  0126C6  6E23               	movwf	___lwdiv@dividend,c
  2497  0126C8  0EF0               	movlw	240
  2498  0126CA  201E               	addwfc	?___wmul+1,w,c
  2499  0126CC  6E24               	movwf	___lwdiv@dividend+1,c
  2500  0126CE  0E00               	movlw	0
  2501  0126D0  6E26               	movwf	___lwdiv@divisor+1,c
  2502  0126D2  0EC3               	movlw	195
  2503  0126D4  6E25               	movwf	___lwdiv@divisor,c
  2504  0126D6  EC85  F092         	call	___lwdiv	;wreg free
  2505  0126DA  C023  F02C         	movff	?___lwdiv,Temp_Result@b
  2506  0126DE  C024  F02D         	movff	?___lwdiv+1,Temp_Result@b+1
  2507                           
  2508                           ;State_Temperature.c: 121: return b;
  2509  0126E2  C02C  F02A         	movff	Temp_Result@b,?_Temp_Result
  2510  0126E6  C02D  F02B         	movff	Temp_Result@b+1,?_Temp_Result+1
  2511  0126EA  0012               	return	
  2512  0126EC  0012               	return		;funcret
  2513  0126EE                     __end_of_Temp_Result:
  2514                           	opt stack 0
  2515                           intcon	equ	0xFF2
  2516                           wreg	equ	0xFE8
  2517                           status	equ	0xFD8
  2518                           
  2519 ;; *************** function ___lwdiv *****************
  2520 ;; Defined at:
  2521 ;;		line 8 in file "C:\Program Files (x86)\Microchip\xc8\v1.34\sources\common\lwdiv.c"
  2522 ;; Parameters:    Size  Location     Type
  2523 ;;  dividend        2   34[COMRAM] unsigned int 
  2524 ;;  divisor         2   36[COMRAM] unsigned int 
  2525 ;; Auto vars:     Size  Location     Type
  2526 ;;  quotient        2   39[COMRAM] unsigned int 
  2527 ;;  counter         1   38[COMRAM] unsigned char 
  2528 ;; Return value:  Size  Location     Type
  2529 ;;                  2   34[COMRAM] unsigned int 
  2530 ;; Registers used:
  2531 ;;		wreg, status,2, status,0
  2532 ;; Tracked objects:
  2533 ;;		On entry : 0/0
  2534 ;;		On exit  : 0/0
  2535 ;;		Unchanged: 0/0
  2536 ;; Data sizes:     COMRAM   BANK0   BANK1   BANK2   BANK3   BANK4   BANK5   BANK6   BANK7   BANK8   BANK9  BANK10  BANK1
      +1  BANK12  BANK13  BANK14  BANK15
  2537 ;;      Params:         4       0       0       0       0       0       0       0       0       0       0       0       
      +0       0       0       0       0
  2538 ;;      Locals:         3       0       0       0       0       0       0       0       0       0       0       0       
      +0       0       0       0       0
  2539 ;;      Temps:          0       0       0       0       0       0       0       0       0       0       0       0       
      +0       0       0       0       0
  2540 ;;      Totals:         7       0       0       0       0       0       0       0       0       0       0       0       
      +0       0       0       0       0
  2541 ;;Total ram usage:        7 bytes
  2542 ;; Hardware stack levels used:    1
  2543 ;; Hardware stack levels required when called:    2
  2544 ;; This function calls:
  2545 ;;		Nothing
  2546 ;; This function is called by:
  2547 ;;		_disp_Temperature
  2548 ;;		_Temp_Result
  2549 ;;		_disp_Volts
  2550 ;;		_Volt_Result
  2551 ;; This function uses a non-reentrant model
  2552 ;;
  2553                           
  2554                           	psect	text11
  2555  01250A                     __ptext11:
  2556                           	opt stack 0
  2557  01250A                     ___lwdiv:
  2558                           	opt stack 26
  2559                           
  2560                           ;incstack = 0
  2561  01250A  0E00               	movlw	0
  2562  01250C  6E29               	movwf	___lwdiv@quotient+1,c
  2563  01250E  0E00               	movlw	0
  2564  012510  6E28               	movwf	___lwdiv@quotient,c
  2565  012512  5025               	movf	___lwdiv@divisor,w,c
  2566  012514  1026               	iorwf	___lwdiv@divisor+1,w,c
  2567  012516  B4D8               	btfsc	status,2,c
  2568  012518  D021               	goto	l1198
  2569  01251A  0E01               	movlw	1
  2570  01251C  6E27               	movwf	___lwdiv@counter,c
  2571  01251E  D005               	goto	l5213
  2572  012520                     l5211:
  2573  012520  90D8               	bcf	status,0,c
  2574  012522  3625               	rlcf	___lwdiv@divisor,f,c
  2575  012524  3626               	rlcf	___lwdiv@divisor+1,f,c
  2576  012526  2A27               	incf	___lwdiv@counter,f,c
  2577  012528  D000               	goto	l5213
  2578  01252A                     l5213:
  2579  01252A  BE26               	btfsc	___lwdiv@divisor+1,7,c
  2580  01252C  D002               	goto	l5215
  2581  01252E  D7F8               	goto	l5211
  2582  012530  D000               	goto	l5215
  2583  012532                     l5215:
  2584  012532  90D8               	bcf	status,0,c
  2585  012534  3628               	rlcf	___lwdiv@quotient,f,c
  2586  012536  3629               	rlcf	___lwdiv@quotient+1,f,c
  2587  012538  5025               	movf	___lwdiv@divisor,w,c
  2588  01253A  5C23               	subwf	___lwdiv@dividend,w,c
  2589  01253C  5026               	movf	___lwdiv@divisor+1,w,c
  2590  01253E  5824               	subwfb	___lwdiv@dividend+1,w,c
  2591  012540  A0D8               	btfss	status,0,c
  2592  012542  D006               	goto	l5223
  2593  012544  5025               	movf	___lwdiv@divisor,w,c
  2594  012546  5E23               	subwf	___lwdiv@dividend,f,c
  2595  012548  5026               	movf	___lwdiv@divisor+1,w,c
  2596  01254A  5A24               	subwfb	___lwdiv@dividend+1,f,c
  2597  01254C  8028               	bsf	___lwdiv@quotient,0,c
  2598  01254E  D000               	goto	l5223
  2599  012550                     l5223:
  2600  012550  90D8               	bcf	status,0,c
  2601  012552  3226               	rrcf	___lwdiv@divisor+1,f,c
  2602  012554  3225               	rrcf	___lwdiv@divisor,f,c
  2603  012556  2E27               	decfsz	___lwdiv@counter,f,c
  2604  012558  D7EC               	goto	l5215
  2605  01255A  D000               	goto	l1198
  2606  01255C                     l1198:
  2607  01255C  C028  F023         	movff	___lwdiv@quotient,?___lwdiv
  2608  012560  C029  F024         	movff	___lwdiv@quotient+1,?___lwdiv+1
  2609  012564  0012               	return		;funcret
  2610  012566                     __end_of___lwdiv:
  2611                           	opt stack 0
  2612                           intcon	equ	0xFF2
  2613                           wreg	equ	0xFE8
  2614                           status	equ	0xFD8
  2615                           
  2616 ;; *************** function _ADC_GetConversion *****************
  2617 ;; Defined at:
  2618 ;;		line 119 in file "mcc_generated_files/adc.c"
  2619 ;; Parameters:    Size  Location     Type
  2620 ;;  channel         1    wreg     enum E7765
  2621 ;; Auto vars:     Size  Location     Type
  2622 ;;  channel         1   18[COMRAM] enum E7765
  2623 ;; Return value:  Size  Location     Type
  2624 ;;                  2   14[COMRAM] unsigned int 
  2625 ;; Registers used:
  2626 ;;		wreg, status,2, status,0
  2627 ;; Tracked objects:
  2628 ;;		On entry : 0/0
  2629 ;;		On exit  : 0/0
  2630 ;;		Unchanged: 0/0
  2631 ;; Data sizes:     COMRAM   BANK0   BANK1   BANK2   BANK3   BANK4   BANK5   BANK6   BANK7   BANK8   BANK9  BANK10  BANK1
      +1  BANK12  BANK13  BANK14  BANK15
  2632 ;;      Params:         2       0       0       0       0       0       0       0       0       0       0       0       
      +0       0       0       0       0
  2633 ;;      Locals:         1       0       0       0       0       0       0       0       0       0       0       0       
      +0       0       0       0       0
  2634 ;;      Temps:          2       0       0       0       0       0       0       0       0       0       0       0       
      +0       0       0       0       0
  2635 ;;      Totals:         5       0       0       0       0       0       0       0       0       0       0       0       
      +0       0       0       0       0
  2636 ;;Total ram usage:        5 bytes
  2637 ;; Hardware stack levels used:    1
  2638 ;; Hardware stack levels required when called:    2
  2639 ;; This function calls:
  2640 ;;		Nothing
  2641 ;; This function is called by:
  2642 ;;		_Temp_Result
  2643 ;;		_Volt_Result
  2644 ;; This function uses a non-reentrant model
  2645 ;;
  2646                           
  2647                           	psect	text12
  2648  0127AE                     __ptext12:
  2649                           	opt stack 0
  2650  0127AE                     _ADC_GetConversion:
  2651                           	opt stack 25
  2652                           
  2653                           ;incstack = 0
  2654                           ;ADC_GetConversion@channel stored from wreg
  2655  0127AE  6E13               	movwf	ADC_GetConversion@channel,c
  2656                           
  2657                           ;adc.c: 122: ADCON0bits.CHS = channel;
  2658  0127B0  C013  F011         	movff	ADC_GetConversion@channel,??_ADC_GetConversion
  2659  0127B4  4611               	rlncf	??_ADC_GetConversion,f,c
  2660  0127B6  4611               	rlncf	??_ADC_GetConversion,f,c
  2661  0127B8  50C2               	movf	4034,w,c	;volatile
  2662  0127BA  1811               	xorwf	??_ADC_GetConversion,w,c
  2663  0127BC  0BC3               	andlw	-61
  2664  0127BE  1811               	xorwf	??_ADC_GetConversion,w,c
  2665  0127C0  6EC2               	movwf	4034,c	;volatile
  2666                           
  2667                           ;adc.c: 125: ADCON0bits.ADON = 1;
  2668  0127C2  80C2               	bsf	4034,0,c	;volatile
  2669                           
  2670                           ;adc.c: 129: ADCON0bits.GO_nDONE = 1;
  2671  0127C4  82C2               	bsf	4034,1,c	;volatile
  2672                           
  2673                           ;adc.c: 132: while (ADCON0bits.GO_nDONE)
  2674  0127C6  D000               	goto	l114
  2675  0127C8                     l114:
  2676  0127C8  B2C2               	btfsc	4034,1,c	;volatile
  2677  0127CA  D7FE               	goto	l114
  2678                           
  2679                           ;adc.c: 134: }
  2680                           ;adc.c: 137: return ((ADRESH << 8) + ADRESL);
  2681  0127CC  50C4               	movf	4036,w,c	;volatile
  2682  0127CE  6E12               	movwf	(??_ADC_GetConversion+1)& (0+255),c
  2683  0127D0  6A11               	clrf	??_ADC_GetConversion& (0+255),c
  2684  0127D2  50C3               	movf	4035,w,c	;volatile
  2685  0127D4  2411               	addwf	??_ADC_GetConversion,w,c
  2686  0127D6  6E0F               	movwf	?_ADC_GetConversion,c
  2687  0127D8  0E00               	movlw	0
  2688  0127DA  2012               	addwfc	??_ADC_GetConversion+1,w,c
  2689  0127DC  6E10               	movwf	?_ADC_GetConversion+1,c
  2690  0127DE  0012               	return	
  2691  0127E0  0012               	return		;funcret
  2692  0127E2                     __end_of_ADC_GetConversion:
  2693                           	opt stack 0
  2694                           intcon	equ	0xFF2
  2695                           wreg	equ	0xFE8
  2696                           status	equ	0xFD8
  2697                           
  2698 ;; *************** function _InitEEPROM *****************
  2699 ;; Defined at:
  2700 ;;		line 32 in file "BBSPI_EEPROM.c"
  2701 ;; Parameters:    Size  Location     Type
  2702 ;;		None
  2703 ;; Auto vars:     Size  Location     Type
  2704 ;;		None
  2705 ;; Return value:  Size  Location     Type
  2706 ;;		None               void
  2707 ;; Registers used:
  2708 ;;		cstack
  2709 ;; Tracked objects:
  2710 ;;		On entry : 0/0
  2711 ;;		On exit  : 0/0
  2712 ;;		Unchanged: 0/0
  2713 ;; Data sizes:     COMRAM   BANK0   BANK1   BANK2   BANK3   BANK4   BANK5   BANK6   BANK7   BANK8   BANK9  BANK10  BANK1
      +1  BANK12  BANK13  BANK14  BANK15
  2714 ;;      Params:         0       0       0       0       0       0       0       0       0       0       0       0       
      +0       0       0       0       0
  2715 ;;      Locals:         0       0       0       0       0       0       0       0       0       0       0       0       
      +0       0       0       0       0
  2716 ;;      Temps:          0       0       0       0       0       0       0       0       0       0       0       0       
      +0       0       0       0       0
  2717 ;;      Totals:         0       0       0       0       0       0       0       0       0       0       0       0       
      +0       0       0       0       0
  2718 ;;Total ram usage:        0 bytes
  2719 ;; Hardware stack levels used:    1
  2720 ;; Hardware stack levels required when called:    3
  2721 ;; This function calls:
  2722 ;;		_InitBBSPI
  2723 ;; This function is called by:
  2724 ;;		_disp_Temperature
  2725 ;; This function uses a non-reentrant model
  2726 ;;
  2727                           
  2728                           	psect	text13
  2729  012A22                     __ptext13:
  2730                           	opt stack 0
  2731  012A22                     _InitEEPROM:
  2732                           	opt stack 25
  2733                           
  2734                           ;BBSPI_EEPROM.c: 34: InitBBSPI();
  2735                           
  2736                           ;incstack = 0
  2737  012A22  ECEE  F094         	call	_InitBBSPI	;wreg free
  2738  012A26  0012               	return		;funcret
  2739  012A28                     __end_of_InitEEPROM:
  2740                           	opt stack 0
  2741                           intcon	equ	0xFF2
  2742                           wreg	equ	0xFE8
  2743                           status	equ	0xFD8
  2744                           
  2745 ;; *************** function _SYSTEM_Initialize *****************
  2746 ;; Defined at:
  2747 ;;		line 113 in file "mcc_generated_files/mcc.c"
  2748 ;; Parameters:    Size  Location     Type
  2749 ;;		None
  2750 ;; Auto vars:     Size  Location     Type
  2751 ;;		None
  2752 ;; Return value:  Size  Location     Type
  2753 ;;		None               void
  2754 ;; Registers used:
  2755 ;;		wreg, status,2, cstack
  2756 ;; Tracked objects:
  2757 ;;		On entry : 0/0
  2758 ;;		On exit  : 0/0
  2759 ;;		Unchanged: 0/0
  2760 ;; Data sizes:     COMRAM   BANK0   BANK1   BANK2   BANK3   BANK4   BANK5   BANK6   BANK7   BANK8   BANK9  BANK10  BANK1
      +1  BANK12  BANK13  BANK14  BANK15
  2761 ;;      Params:         0       0       0       0       0       0       0       0       0       0       0       0       
      +0       0       0       0       0
  2762 ;;      Locals:         0       0       0       0       0       0       0       0       0       0       0       0       
      +0       0       0       0       0
  2763 ;;      Temps:          0       0       0       0       0       0       0       0       0       0       0       0       
      +0       0       0       0       0
  2764 ;;      Totals:         0       0       0       0       0       0       0       0       0       0       0       0       
      +0       0       0       0       0
  2765 ;;Total ram usage:        0 bytes
  2766 ;; Hardware stack levels used:    1
  2767 ;; Hardware stack levels required when called:    4
  2768 ;; This function calls:
  2769 ;;		_ADC_Initialize
  2770 ;;		_EUSART1_Initialize
  2771 ;;		_INTERRUPT_Initialize
  2772 ;;		_OSCILLATOR_Initialize
  2773 ;;		_PIN_MANAGER_Initialize
  2774 ;;		_TMR1_Initialize
  2775 ;; This function is called by:
  2776 ;;		_main
  2777 ;; This function uses a non-reentrant model
  2778 ;;
  2779                           
  2780                           	psect	text14
  2781  01294A                     __ptext14:
  2782                           	opt stack 0
  2783  01294A                     _SYSTEM_Initialize:
  2784                           	opt stack 26
  2785                           
  2786                           ;mcc.c: 115: OSCILLATOR_Initialize();
  2787                           
  2788                           ;incstack = 0
  2789  01294A  EC07  F095         	call	_OSCILLATOR_Initialize	;wreg free
  2790                           
  2791                           ;mcc.c: 116: PIN_MANAGER_Initialize();
  2792  01294E  EC38  F094         	call	_PIN_MANAGER_Initialize	;wreg free
  2793                           
  2794                           ;mcc.c: 117: INTERRUPT_Initialize();
  2795  012952  EC14  F095         	call	_INTERRUPT_Initialize	;wreg free
  2796                           
  2797                           ;mcc.c: 118: EUSART1_Initialize();
  2798  012956  ECE4  F094         	call	_EUSART1_Initialize	;wreg free
  2799                           
  2800                           ;mcc.c: 119: ADC_Initialize();
  2801  01295A  ECD8  F094         	call	_ADC_Initialize	;wreg free
  2802                           
  2803                           ;mcc.c: 120: TMR1_Initialize();
  2804  01295E  EC96  F094         	call	_TMR1_Initialize	;wreg free
  2805  012962  0012               	return		;funcret
  2806  012964                     __end_of_SYSTEM_Initialize:
  2807                           	opt stack 0
  2808                           intcon	equ	0xFF2
  2809                           wreg	equ	0xFE8
  2810                           status	equ	0xFD8
  2811                           
  2812 ;; *************** function _TMR1_Initialize *****************
  2813 ;; Defined at:
  2814 ;;		line 63 in file "mcc_generated_files/tmr1.c"
  2815 ;; Parameters:    Size  Location     Type
  2816 ;;		None
  2817 ;; Auto vars:     Size  Location     Type
  2818 ;;		None
  2819 ;; Return value:  Size  Location     Type
  2820 ;;		None               void
  2821 ;; Registers used:
  2822 ;;		wreg, status,2, cstack
  2823 ;; Tracked objects:
  2824 ;;		On entry : 0/0
  2825 ;;		On exit  : 0/0
  2826 ;;		Unchanged: 0/0
  2827 ;; Data sizes:     COMRAM   BANK0   BANK1   BANK2   BANK3   BANK4   BANK5   BANK6   BANK7   BANK8   BANK9  BANK10  BANK1
      +1  BANK12  BANK13  BANK14  BANK15
  2828 ;;      Params:         0       0       0       0       0       0       0       0       0       0       0       0       
      +0       0       0       0       0
  2829 ;;      Locals:         0       0       0       0       0       0       0       0       0       0       0       0       
      +0       0       0       0       0
  2830 ;;      Temps:          0       0       0       0       0       0       0       0       0       0       0       0       
      +0       0       0       0       0
  2831 ;;      Totals:         0       0       0       0       0       0       0       0       0       0       0       0       
      +0       0       0       0       0
  2832 ;;Total ram usage:        0 bytes
  2833 ;; Hardware stack levels used:    1
  2834 ;; Hardware stack levels required when called:    3
  2835 ;; This function calls:
  2836 ;;		_TMR1_StartTimer
  2837 ;; This function is called by:
  2838 ;;		_SYSTEM_Initialize
  2839 ;; This function uses a non-reentrant model
  2840 ;;
  2841                           
  2842                           	psect	text15
  2843  01292C                     __ptext15:
  2844                           	opt stack 0
  2845  01292C                     _TMR1_Initialize:
  2846                           	opt stack 26
  2847                           
  2848                           ;tmr1.c: 68: T1CON = 0x0F;
  2849                           
  2850                           ;incstack = 0
  2851  01292C  0E0F               	movlw	15
  2852  01292E  6ECD               	movwf	4045,c	;volatile
  2853                           
  2854                           ;tmr1.c: 74: TMR1H = 0x80;
  2855  012930  0E80               	movlw	128
  2856  012932  6ECF               	movwf	4047,c	;volatile
  2857                           
  2858                           ;tmr1.c: 77: TMR1L = 0x00;
  2859  012934  0E00               	movlw	0
  2860  012936  6ECE               	movwf	4046,c	;volatile
  2861                           
  2862                           ;tmr1.c: 80: timer1ReloadVal=TMR1;
  2863  012938  CFCE F04E          	movff	4046,_timer1ReloadVal	;volatile
  2864  01293C  CFCF F04F          	movff	4047,_timer1ReloadVal+1	;volatile
  2865                           
  2866                           ;tmr1.c: 83: PIR1bits.TMR1IF = 0;
  2867  012940  909E               	bcf	3998,0,c	;volatile
  2868                           
  2869                           ;tmr1.c: 86: PIE1bits.TMR1IE = 1;
  2870  012942  809D               	bsf	3997,0,c	;volatile
  2871                           
  2872                           ;tmr1.c: 89: TMR1_StartTimer();
  2873  012944  EC17  F095         	call	_TMR1_StartTimer	;wreg free
  2874  012948  0012               	return		;funcret
  2875  01294A                     __end_of_TMR1_Initialize:
  2876                           	opt stack 0
  2877                           intcon	equ	0xFF2
  2878                           wreg	equ	0xFE8
  2879                           status	equ	0xFD8
  2880                           
  2881 ;; *************** function _TMR1_StartTimer *****************
  2882 ;; Defined at:
  2883 ;;		line 92 in file "mcc_generated_files/tmr1.c"
  2884 ;; Parameters:    Size  Location     Type
  2885 ;;		None
  2886 ;; Auto vars:     Size  Location     Type
  2887 ;;		None
  2888 ;; Return value:  Size  Location     Type
  2889 ;;		None               void
  2890 ;; Registers used:
  2891 ;;		None
  2892 ;; Tracked objects:
  2893 ;;		On entry : 0/0
  2894 ;;		On exit  : 0/0
  2895 ;;		Unchanged: 0/0
  2896 ;; Data sizes:     COMRAM   BANK0   BANK1   BANK2   BANK3   BANK4   BANK5   BANK6   BANK7   BANK8   BANK9  BANK10  BANK1
      +1  BANK12  BANK13  BANK14  BANK15
  2897 ;;      Params:         0       0       0       0       0       0       0       0       0       0       0       0       
      +0       0       0       0       0
  2898 ;;      Locals:         0       0       0       0       0       0       0       0       0       0       0       0       
      +0       0       0       0       0
  2899 ;;      Temps:          0       0       0       0       0       0       0       0       0       0       0       0       
      +0       0       0       0       0
  2900 ;;      Totals:         0       0       0       0       0       0       0       0       0       0       0       0       
      +0       0       0       0       0
  2901 ;;Total ram usage:        0 bytes
  2902 ;; Hardware stack levels used:    1
  2903 ;; Hardware stack levels required when called:    2
  2904 ;; This function calls:
  2905 ;;		Nothing
  2906 ;; This function is called by:
  2907 ;;		_TMR1_Initialize
  2908 ;; This function uses a non-reentrant model
  2909 ;;
  2910                           
  2911                           	psect	text16
  2912  012A2E                     __ptext16:
  2913                           	opt stack 0
  2914  012A2E                     _TMR1_StartTimer:
  2915                           	opt stack 26
  2916                           
  2917                           ;tmr1.c: 95: T1CONbits.TMR1ON = 1;
  2918                           
  2919                           ;incstack = 0
  2920  012A2E  80CD               	bsf	4045,0,c	;volatile
  2921  012A30  0012               	return		;funcret
  2922  012A32                     __end_of_TMR1_StartTimer:
  2923                           	opt stack 0
  2924                           intcon	equ	0xFF2
  2925                           wreg	equ	0xFE8
  2926                           status	equ	0xFD8
  2927                           
  2928 ;; *************** function _PIN_MANAGER_Initialize *****************
  2929 ;; Defined at:
  2930 ;;		line 50 in file "mcc_generated_files/pin_manager.c"
  2931 ;; Parameters:    Size  Location     Type
  2932 ;;		None
  2933 ;; Auto vars:     Size  Location     Type
  2934 ;;		None
  2935 ;; Return value:  Size  Location     Type
  2936 ;;		None               void
  2937 ;; Registers used:
  2938 ;;		wreg, status,2
  2939 ;; Tracked objects:
  2940 ;;		On entry : 0/0
  2941 ;;		On exit  : 0/0
  2942 ;;		Unchanged: 0/0
  2943 ;; Data sizes:     COMRAM   BANK0   BANK1   BANK2   BANK3   BANK4   BANK5   BANK6   BANK7   BANK8   BANK9  BANK10  BANK1
      +1  BANK12  BANK13  BANK14  BANK15
  2944 ;;      Params:         0       0       0       0       0       0       0       0       0       0       0       0       
      +0       0       0       0       0
  2945 ;;      Locals:         0       0       0       0       0       0       0       0       0       0       0       0       
      +0       0       0       0       0
  2946 ;;      Temps:          0       0       0       0       0       0       0       0       0       0       0       0       
      +0       0       0       0       0
  2947 ;;      Totals:         0       0       0       0       0       0       0       0       0       0       0       0       
      +0       0       0       0       0
  2948 ;;Total ram usage:        0 bytes
  2949 ;; Hardware stack levels used:    1
  2950 ;; Hardware stack levels required when called:    2
  2951 ;; This function calls:
  2952 ;;		Nothing
  2953 ;; This function is called by:
  2954 ;;		_SYSTEM_Initialize
  2955 ;; This function uses a non-reentrant model
  2956 ;;
  2957                           
  2958                           	psect	text17
  2959  012870                     __ptext17:
  2960                           	opt stack 0
  2961  012870                     _PIN_MANAGER_Initialize:
  2962                           	opt stack 27
  2963                           
  2964                           ;pin_manager.c: 52: LATA = 0x00;
  2965                           
  2966                           ;incstack = 0
  2967  012870  0E00               	movlw	0
  2968  012872  6E89               	movwf	3977,c	;volatile
  2969                           
  2970                           ;pin_manager.c: 53: TRISA = 0xF3;
  2971  012874  0EF3               	movlw	243
  2972  012876  6E92               	movwf	3986,c	;volatile
  2973                           
  2974                           ;pin_manager.c: 56: LATB = 0x00;
  2975  012878  0E00               	movlw	0
  2976  01287A  6E8A               	movwf	3978,c	;volatile
  2977                           
  2978                           ;pin_manager.c: 57: TRISB = 0xFF;
  2979  01287C  6893               	setf	3987,c	;volatile
  2980                           
  2981                           ;pin_manager.c: 61: LATC = 0x00;
  2982  01287E  0E00               	movlw	0
  2983  012880  6E8B               	movwf	3979,c	;volatile
  2984                           
  2985                           ;pin_manager.c: 62: TRISC = 0xD7;
  2986  012882  0ED7               	movlw	215
  2987  012884  6E94               	movwf	3988,c	;volatile
  2988                           
  2989                           ;pin_manager.c: 65: LATD = 0x00;
  2990  012886  0E00               	movlw	0
  2991  012888  6E8C               	movwf	3980,c	;volatile
  2992                           
  2993                           ;pin_manager.c: 66: TRISD = 0xFF;
  2994  01288A  6895               	setf	3989,c	;volatile
  2995                           
  2996                           ;pin_manager.c: 69: LATE = 0x00;
  2997  01288C  0E00               	movlw	0
  2998  01288E  6E8D               	movwf	3981,c	;volatile
  2999                           
  3000                           ;pin_manager.c: 70: TRISE = 0x07;
  3001  012890  0E07               	movlw	7
  3002  012892  6E96               	movwf	3990,c	;volatile
  3003                           
  3004                           ;pin_manager.c: 73: INTCON2bits.nRBPU = 0x01;
  3005  012894  8EF1               	bsf	intcon2,7,c	;volatile
  3006  012896  0012               	return		;funcret
  3007  012898                     __end_of_PIN_MANAGER_Initialize:
  3008                           	opt stack 0
  3009                           intcon	equ	0xFF2
  3010                           intcon2	equ	0xFF1
  3011                           wreg	equ	0xFE8
  3012                           status	equ	0xFD8
  3013                           
  3014 ;; *************** function _OSCILLATOR_Initialize *****************
  3015 ;; Defined at:
  3016 ;;		line 123 in file "mcc_generated_files/mcc.c"
  3017 ;; Parameters:    Size  Location     Type
  3018 ;;		None
  3019 ;; Auto vars:     Size  Location     Type
  3020 ;;		None
  3021 ;; Return value:  Size  Location     Type
  3022 ;;		None               void
  3023 ;; Registers used:
  3024 ;;		wreg, status,2
  3025 ;; Tracked objects:
  3026 ;;		On entry : 0/0
  3027 ;;		On exit  : 0/0
  3028 ;;		Unchanged: 0/0
  3029 ;; Data sizes:     COMRAM   BANK0   BANK1   BANK2   BANK3   BANK4   BANK5   BANK6   BANK7   BANK8   BANK9  BANK10  BANK1
      +1  BANK12  BANK13  BANK14  BANK15
  3030 ;;      Params:         0       0       0       0       0       0       0       0       0       0       0       0       
      +0       0       0       0       0
  3031 ;;      Locals:         0       0       0       0       0       0       0       0       0       0       0       0       
      +0       0       0       0       0
  3032 ;;      Temps:          0       0       0       0       0       0       0       0       0       0       0       0       
      +0       0       0       0       0
  3033 ;;      Totals:         0       0       0       0       0       0       0       0       0       0       0       0       
      +0       0       0       0       0
  3034 ;;Total ram usage:        0 bytes
  3035 ;; Hardware stack levels used:    1
  3036 ;; Hardware stack levels required when called:    2
  3037 ;; This function calls:
  3038 ;;		Nothing
  3039 ;; This function is called by:
  3040 ;;		_SYSTEM_Initialize
  3041 ;; This function uses a non-reentrant model
  3042 ;;
  3043                           
  3044                           	psect	text18
  3045  012A0E                     __ptext18:
  3046                           	opt stack 0
  3047  012A0E                     _OSCILLATOR_Initialize:
  3048                           	opt stack 27
  3049                           
  3050                           ;mcc.c: 126: OSCCON = 0x30;
  3051                           
  3052                           ;incstack = 0
  3053  012A0E  0E30               	movlw	48
  3054  012A10  6ED3               	movwf	4051,c	;volatile
  3055                           
  3056                           ;mcc.c: 132: OSCTUNE = 0x40;
  3057  012A12  0E40               	movlw	64
  3058  012A14  6E9B               	movwf	3995,c	;volatile
  3059  012A16  0012               	return		;funcret
  3060  012A18                     __end_of_OSCILLATOR_Initialize:
  3061                           	opt stack 0
  3062                           intcon	equ	0xFF2
  3063                           intcon2	equ	0xFF1
  3064                           wreg	equ	0xFE8
  3065                           status	equ	0xFD8
  3066                           
  3067 ;; *************** function _INTERRUPT_Initialize *****************
  3068 ;; Defined at:
  3069 ;;		line 52 in file "mcc_generated_files/interrupt_manager.c"
  3070 ;; Parameters:    Size  Location     Type
  3071 ;;		None
  3072 ;; Auto vars:     Size  Location     Type
  3073 ;;		None
  3074 ;; Return value:  Size  Location     Type
  3075 ;;		None               void
  3076 ;; Registers used:
  3077 ;;		None
  3078 ;; Tracked objects:
  3079 ;;		On entry : 0/0
  3080 ;;		On exit  : 0/0
  3081 ;;		Unchanged: 0/0
  3082 ;; Data sizes:     COMRAM   BANK0   BANK1   BANK2   BANK3   BANK4   BANK5   BANK6   BANK7   BANK8   BANK9  BANK10  BANK1
      +1  BANK12  BANK13  BANK14  BANK15
  3083 ;;      Params:         0       0       0       0       0       0       0       0       0       0       0       0       
      +0       0       0       0       0
  3084 ;;      Locals:         0       0       0       0       0       0       0       0       0       0       0       0       
      +0       0       0       0       0
  3085 ;;      Temps:          0       0       0       0       0       0       0       0       0       0       0       0       
      +0       0       0       0       0
  3086 ;;      Totals:         0       0       0       0       0       0       0       0       0       0       0       0       
      +0       0       0       0       0
  3087 ;;Total ram usage:        0 bytes
  3088 ;; Hardware stack levels used:    1
  3089 ;; Hardware stack levels required when called:    2
  3090 ;; This function calls:
  3091 ;;		Nothing
  3092 ;; This function is called by:
  3093 ;;		_SYSTEM_Initialize
  3094 ;; This function uses a non-reentrant model
  3095 ;;
  3096                           
  3097                           	psect	text19
  3098  012A28                     __ptext19:
  3099                           	opt stack 0
  3100  012A28                     _INTERRUPT_Initialize:
  3101                           	opt stack 27
  3102                           
  3103                           ;interrupt_manager.c: 55: RCONbits.IPEN = 0;
  3104                           
  3105                           ;incstack = 0
  3106  012A28  9ED0               	bcf	4048,7,c	;volatile
  3107                           
  3108                           ;interrupt_manager.c: 60: IPR1bits.TMR1IP = 0;
  3109  012A2A  909F               	bcf	3999,0,c	;volatile
  3110  012A2C  0012               	return		;funcret
  3111  012A2E                     __end_of_INTERRUPT_Initialize:
  3112                           	opt stack 0
  3113                           intcon	equ	0xFF2
  3114                           intcon2	equ	0xFF1
  3115                           wreg	equ	0xFE8
  3116                           status	equ	0xFD8
  3117                           
  3118 ;; *************** function _EUSART1_Initialize *****************
  3119 ;; Defined at:
  3120 ;;		line 56 in file "mcc_generated_files/eusart1.c"
  3121 ;; Parameters:    Size  Location     Type
  3122 ;;		None
  3123 ;; Auto vars:     Size  Location     Type
  3124 ;;		None
  3125 ;; Return value:  Size  Location     Type
  3126 ;;		None               void
  3127 ;; Registers used:
  3128 ;;		wreg, status,2
  3129 ;; Tracked objects:
  3130 ;;		On entry : 0/0
  3131 ;;		On exit  : 0/0
  3132 ;;		Unchanged: 0/0
  3133 ;; Data sizes:     COMRAM   BANK0   BANK1   BANK2   BANK3   BANK4   BANK5   BANK6   BANK7   BANK8   BANK9  BANK10  BANK1
      +1  BANK12  BANK13  BANK14  BANK15
  3134 ;;      Params:         0       0       0       0       0       0       0       0       0       0       0       0       
      +0       0       0       0       0
  3135 ;;      Locals:         0       0       0       0       0       0       0       0       0       0       0       0       
      +0       0       0       0       0
  3136 ;;      Temps:          0       0       0       0       0       0       0       0       0       0       0       0       
      +0       0       0       0       0
  3137 ;;      Totals:         0       0       0       0       0       0       0       0       0       0       0       0       
      +0       0       0       0       0
  3138 ;;Total ram usage:        0 bytes
  3139 ;; Hardware stack levels used:    1
  3140 ;; Hardware stack levels required when called:    2
  3141 ;; This function calls:
  3142 ;;		Nothing
  3143 ;; This function is called by:
  3144 ;;		_SYSTEM_Initialize
  3145 ;; This function uses a non-reentrant model
  3146 ;;
  3147                           
  3148                           	psect	text20
  3149  0129C8                     __ptext20:
  3150                           	opt stack 0
  3151  0129C8                     _EUSART1_Initialize:
  3152                           	opt stack 27
  3153                           
  3154                           ;eusart1.c: 64: RCSTA = 0x80;
  3155                           
  3156                           ;incstack = 0
  3157  0129C8  0E80               	movlw	128
  3158  0129CA  6EAC               	movwf	4012,c	;volatile
  3159                           
  3160                           ;eusart1.c: 67: TXSTA = 0x26;
  3161  0129CC  0E26               	movlw	38
  3162  0129CE  6EAD               	movwf	4013,c	;volatile
  3163                           
  3164                           ;eusart1.c: 70: SPBRG = 0xFF;
  3165  0129D0  68B0               	setf	4016,c	;volatile
  3166                           
  3167                           ;eusart1.c: 76: TXREG = 0x00;
  3168  0129D2  0E00               	movlw	0
  3169  0129D4  6EAE               	movwf	4014,c	;volatile
  3170                           
  3171                           ;eusart1.c: 79: RCREG = 0x00;
  3172  0129D6  0E00               	movlw	0
  3173  0129D8  6EAF               	movwf	4015,c	;volatile
  3174  0129DA  0012               	return		;funcret
  3175  0129DC                     __end_of_EUSART1_Initialize:
  3176                           	opt stack 0
  3177                           intcon	equ	0xFF2
  3178                           intcon2	equ	0xFF1
  3179                           wreg	equ	0xFE8
  3180                           status	equ	0xFD8
  3181                           
  3182 ;; *************** function _ADC_Initialize *****************
  3183 ;; Defined at:
  3184 ;;		line 59 in file "mcc_generated_files/adc.c"
  3185 ;; Parameters:    Size  Location     Type
  3186 ;;		None
  3187 ;; Auto vars:     Size  Location     Type
  3188 ;;		None
  3189 ;; Return value:  Size  Location     Type
  3190 ;;		None               void
  3191 ;; Registers used:
  3192 ;;		wreg, status,2
  3193 ;; Tracked objects:
  3194 ;;		On entry : 0/0
  3195 ;;		On exit  : 0/0
  3196 ;;		Unchanged: 0/0
  3197 ;; Data sizes:     COMRAM   BANK0   BANK1   BANK2   BANK3   BANK4   BANK5   BANK6   BANK7   BANK8   BANK9  BANK10  BANK1
      +1  BANK12  BANK13  BANK14  BANK15
  3198 ;;      Params:         0       0       0       0       0       0       0       0       0       0       0       0       
      +0       0       0       0       0
  3199 ;;      Locals:         0       0       0       0       0       0       0       0       0       0       0       0       
      +0       0       0       0       0
  3200 ;;      Temps:          0       0       0       0       0       0       0       0       0       0       0       0       
      +0       0       0       0       0
  3201 ;;      Totals:         0       0       0       0       0       0       0       0       0       0       0       0       
      +0       0       0       0       0
  3202 ;;Total ram usage:        0 bytes
  3203 ;; Hardware stack levels used:    1
  3204 ;; Hardware stack levels required when called:    2
  3205 ;; This function calls:
  3206 ;;		Nothing
  3207 ;; This function is called by:
  3208 ;;		_SYSTEM_Initialize
  3209 ;; This function uses a non-reentrant model
  3210 ;;
  3211                           
  3212                           	psect	text21
  3213  0129B0                     __ptext21:
  3214                           	opt stack 0
  3215  0129B0                     _ADC_Initialize:
  3216                           	opt stack 27
  3217                           
  3218                           ;adc.c: 75: ADCON1 = 0xBA;
  3219                           
  3220                           ;incstack = 0
  3221  0129B0  0EBA               	movlw	186
  3222  0129B2  6EC1               	movwf	4033,c	;volatile
  3223                           
  3224                           ;adc.c: 76: WDTCONbits.ADSHR = 1;
  3225  0129B4  88C0               	bsf	4032,4,c	;volatile
  3226                           
  3227                           ;adc.c: 77: ANCON1 = 0xFF;
  3228  0129B6  68C2               	setf	4034,c	;volatile
  3229                           
  3230                           ;adc.c: 78: ANCON0 = 0XFB;
  3231  0129B8  0EFB               	movlw	251
  3232  0129BA  6EC1               	movwf	4033,c	;volatile
  3233                           
  3234                           ;adc.c: 79: WDTCONbits.ADSHR = 0;
  3235  0129BC  98C0               	bcf	4032,4,c	;volatile
  3236                           
  3237                           ;adc.c: 87: ADRESL = 0x00;
  3238  0129BE  0E00               	movlw	0
  3239  0129C0  6EC3               	movwf	4035,c	;volatile
  3240                           
  3241                           ;adc.c: 90: ADRESH = 0x00;
  3242  0129C2  0E00               	movlw	0
  3243  0129C4  6EC4               	movwf	4036,c	;volatile
  3244  0129C6  0012               	return		;funcret
  3245  0129C8                     __end_of_ADC_Initialize:
  3246                           	opt stack 0
  3247                           intcon	equ	0xFF2
  3248                           intcon2	equ	0xFF1
  3249                           wreg	equ	0xFE8
  3250                           status	equ	0xFD8
  3251                           
  3252 ;; *************** function _Intro *****************
  3253 ;; Defined at:
  3254 ;;		line 10 in file "State_Intro.c"
  3255 ;; Parameters:    Size  Location     Type
  3256 ;;		None
  3257 ;; Auto vars:     Size  Location     Type
  3258 ;;		None
  3259 ;; Return value:  Size  Location     Type
  3260 ;;		None               void
  3261 ;; Registers used:
  3262 ;;		wreg, fsr2l, fsr2h, status,2, status,0, tblptrl, tblptrh, tblptru, prodl, prodh, cstack
  3263 ;; Tracked objects:
  3264 ;;		On entry : 0/0
  3265 ;;		On exit  : 0/0
  3266 ;;		Unchanged: 0/0
  3267 ;; Data sizes:     COMRAM   BANK0   BANK1   BANK2   BANK3   BANK4   BANK5   BANK6   BANK7   BANK8   BANK9  BANK10  BANK1
      +1  BANK12  BANK13  BANK14  BANK15
  3268 ;;      Params:         0       0       0       0       0       0       0       0       0       0       0       0       
      +0       0       0       0       0
  3269 ;;      Locals:         0       0       0       0       0       0       0       0       0       0       0       0       
      +0       0       0       0       0
  3270 ;;      Temps:          0       0       0       0       0       0       0       0       0       0       0       0       
      +0       0       0       0       0
  3271 ;;      Totals:         0       0       0       0       0       0       0       0       0       0       0       0       
      +0       0       0       0       0
  3272 ;;Total ram usage:        0 bytes
  3273 ;; Hardware stack levels used:    1
  3274 ;; Hardware stack levels required when called:    6
  3275 ;; This function calls:
  3276 ;;		_Intro_delay
  3277 ;;		_LCDInit
  3278 ;;		_LCDPutInst
  3279 ;;		_LCDPutStr
  3280 ;;		_printf
  3281 ;; This function is called by:
  3282 ;;		_main
  3283 ;; This function uses a non-reentrant model
  3284 ;;
  3285                           
  3286                           	psect	text22
  3287  0125C2                     __ptext22:
  3288                           	opt stack 0
  3289  0125C2                     _Intro:
  3290                           	opt stack 24
  3291                           
  3292                           ;State_Intro.c: 13: LCDInit();
  3293                           
  3294                           ;incstack = 0
  3295  0125C2  EC25  F092         	call	_LCDInit	;wreg free
  3296                           
  3297                           ;State_Intro.c: 16: LCDPutInst(0x80);
  3298  0125C6  0E80               	movlw	128
  3299  0125C8  ECF2  F091         	call	_LCDPutInst
  3300                           
  3301                           ;State_Intro.c: 17: LCDPutStr("Microchip PICDEM");
  3302  0125CC  0E1F               	movlw	low STR_29
  3303  0125CE  6E16               	movwf	LCDPutStr@ptr,c
  3304  0125D0  0EFF               	movlw	high STR_29
  3305  0125D2  6E17               	movwf	LCDPutStr@ptr+1,c
  3306  0125D4  ECF1  F093         	call	_LCDPutStr	;wreg free
  3307                           
  3308                           ;State_Intro.c: 18: LCDPutInst(0xC0);
  3309  0125D8  0EC0               	movlw	192
  3310  0125DA  ECF2  F091         	call	_LCDPutInst
  3311                           
  3312                           ;State_Intro.c: 19: LCDPutStr(" PIC18 Explorer ");
  3313  0125DE  0E0E               	movlw	low STR_30
  3314  0125E0  6E16               	movwf	LCDPutStr@ptr,c
  3315  0125E2  0EFF               	movlw	high STR_30
  3316  0125E4  6E17               	movwf	LCDPutStr@ptr+1,c
  3317  0125E6  ECF1  F093         	call	_LCDPutStr	;wreg free
  3318                           
  3319                           ;State_Intro.c: 22: printf("Microchip PICDEM\n\r");
  3320  0125EA  0E76               	movlw	low STR_31
  3321  0125EC  0100               	movlb	0	; () banked
  3322  0125EE  6F60               	movwf	printf@f& (0+255),b
  3323  0125F0  0EFE               	movlw	high STR_31
  3324  0125F2  0100               	movlb	0	; () banked
  3325  0125F4  6F61               	movwf	(printf@f+1)& (0+255),b
  3326  0125F6  EC00  F080         	call	_printf	;wreg free
  3327                           
  3328                           ;State_Intro.c: 23: printf(" PIC18 Explorer \n\r");
  3329  0125FA  0E63               	movlw	low STR_32
  3330  0125FC  0100               	movlb	0	; () banked
  3331  0125FE  6F60               	movwf	printf@f& (0+255),b
  3332  012600  0EFE               	movlw	high STR_32
  3333  012602  0100               	movlb	0	; () banked
  3334  012604  6F61               	movwf	(printf@f+1)& (0+255),b
  3335  012606  EC00  F080         	call	_printf	;wreg free
  3336                           
  3337                           ;State_Intro.c: 26: Intro_delay();
  3338  01260A  EC23  F094         	call	_Intro_delay	;wreg free
  3339                           
  3340                           ;State_Intro.c: 29: State++;
  3341  01260E  2A50               	incf	_State,f,c
  3342  012610  0012               	return		;funcret
  3343  012612                     __end_of_Intro:
  3344                           	opt stack 0
  3345                           intcon	equ	0xFF2
  3346                           intcon2	equ	0xFF1
  3347                           wreg	equ	0xFE8
  3348                           status	equ	0xFD8
  3349                           
  3350 ;; *************** function _LCDInit *****************
  3351 ;; Defined at:
  3352 ;;		line 45 in file "BBSPI_LCD.c"
  3353 ;; Parameters:    Size  Location     Type
  3354 ;;		None
  3355 ;; Auto vars:     Size  Location     Type
  3356 ;;		None
  3357 ;; Return value:  Size  Location     Type
  3358 ;;		None               void
  3359 ;; Registers used:
  3360 ;;		wreg, status,2, status,0, cstack
  3361 ;; Tracked objects:
  3362 ;;		On entry : 0/0
  3363 ;;		On exit  : 0/0
  3364 ;;		Unchanged: 0/0
  3365 ;; Data sizes:     COMRAM   BANK0   BANK1   BANK2   BANK3   BANK4   BANK5   BANK6   BANK7   BANK8   BANK9  BANK10  BANK1
      +1  BANK12  BANK13  BANK14  BANK15
  3366 ;;      Params:         0       0       0       0       0       0       0       0       0       0       0       0       
      +0       0       0       0       0
  3367 ;;      Locals:         0       0       0       0       0       0       0       0       0       0       0       0       
      +0       0       0       0       0
  3368 ;;      Temps:          1       0       0       0       0       0       0       0       0       0       0       0       
      +0       0       0       0       0
  3369 ;;      Totals:         1       0       0       0       0       0       0       0       0       0       0       0       
      +0       0       0       0       0
  3370 ;;Total ram usage:        1 bytes
  3371 ;; Hardware stack levels used:    1
  3372 ;; Hardware stack levels required when called:    5
  3373 ;; This function calls:
  3374 ;;		_InitBBSPI
  3375 ;;		_LCDPutInst
  3376 ;;		_Port_BBSPIInit
  3377 ;;		_WritePort_BBSPI
  3378 ;; This function is called by:
  3379 ;;		_Intro
  3380 ;; This function uses a non-reentrant model
  3381 ;;
  3382                           
  3383                           	psect	text23
  3384  01244A                     __ptext23:
  3385                           	opt stack 0
  3386  01244A                     _LCDInit:
  3387                           	opt stack 24
  3388                           
  3389                           ;BBSPI_LCD.c: 47: InitBBSPI();
  3390                           
  3391                           ;incstack = 0
  3392  01244A  ECEE  F094         	call	_InitBBSPI	;wreg free
  3393                           
  3394                           ;BBSPI_LCD.c: 48: DDRFbits.RF6 = 0;
  3395  01244E  9C97               	bcf	3991,6,c	;volatile
  3396                           
  3397                           ;BBSPI_LCD.c: 49: LATFbits.LATF6 = 0;
  3398  012450  9C8E               	bcf	3982,6,c	;volatile
  3399                           
  3400                           ;BBSPI_LCD.c: 50: _delay((unsigned long)((5)*(10000000/4000.0)));
  3401  012452  0E11               	movlw	17
  3402  012454  6E16               	movwf	??_LCDInit& (0+255),c
  3403  012456  0E3A               	movlw	58
  3404  012458                     u6097:
  3405  012458  2EE8               	decfsz	wreg,f,c
  3406  01245A  D7FE               	goto	u6097
  3407  01245C  2E16               	decfsz	??_LCDInit& (0+255),f,c
  3408  01245E  D7FC               	goto	u6097
  3409  012460  D000               	nop2	
  3410                           
  3411                           ;BBSPI_LCD.c: 51: LATFbits.LATF6 = 1;
  3412  012462  8C8E               	bsf	3982,6,c	;volatile
  3413                           
  3414                           ;BBSPI_LCD.c: 52: Port_BBSPIInit (0x00);
  3415  012464  0E00               	movlw	0
  3416  012466  ECB2  F094         	call	_Port_BBSPIInit
  3417                           
  3418                           ;BBSPI_LCD.c: 53: Port_BBSPIInit (0x01);
  3419  01246A  0E01               	movlw	1
  3420  01246C  ECB2  F094         	call	_Port_BBSPIInit
  3421                           
  3422                           ;BBSPI_LCD.c: 54: WritePort_BBSPI (0x12, 0);
  3423  012470  0E00               	movlw	0
  3424  012472  6E12               	movwf	WritePort_BBSPI@a,c
  3425  012474  0E12               	movlw	18
  3426  012476  ECBF  F094         	call	_WritePort_BBSPI
  3427                           
  3428                           ;BBSPI_LCD.c: 55: _delay((unsigned long)((15)*(10000000/4000.0)));
  3429  01247A  0E31               	movlw	49
  3430  01247C  6E16               	movwf	??_LCDInit& (0+255),c
  3431  01247E  0EB2               	movlw	178
  3432  012480                     u6107:
  3433  012480  2EE8               	decfsz	wreg,f,c
  3434  012482  D7FE               	goto	u6107
  3435  012484  2E16               	decfsz	??_LCDInit& (0+255),f,c
  3436  012486  D7FC               	goto	u6107
  3437  012488  D000               	nop2	
  3438                           
  3439                           ;BBSPI_LCD.c: 56: LCDPutInst(0x32);
  3440  01248A  0E32               	movlw	50
  3441  01248C  ECF2  F091         	call	_LCDPutInst
  3442                           
  3443                           ;BBSPI_LCD.c: 57: LCDPutInst(0x3C);
  3444  012490  0E3C               	movlw	60
  3445  012492  ECF2  F091         	call	_LCDPutInst
  3446                           
  3447                           ;BBSPI_LCD.c: 58: LCDPutInst(0x0C);
  3448  012496  0E0C               	movlw	12
  3449  012498  ECF2  F091         	call	_LCDPutInst
  3450                           
  3451                           ;BBSPI_LCD.c: 59: LCDPutInst(0x01);
  3452  01249C  0E01               	movlw	1
  3453  01249E  ECF2  F091         	call	_LCDPutInst
  3454                           
  3455                           ;BBSPI_LCD.c: 60: LCDPutInst(0x06);
  3456  0124A2  0E06               	movlw	6
  3457  0124A4  ECF2  F091         	call	_LCDPutInst
  3458  0124A8  0012               	return		;funcret
  3459  0124AA                     __end_of_LCDInit:
  3460                           	opt stack 0
  3461                           intcon	equ	0xFF2
  3462                           intcon2	equ	0xFF1
  3463                           wreg	equ	0xFE8
  3464                           status	equ	0xFD8
  3465                           
  3466 ;; *************** function _Port_BBSPIInit *****************
  3467 ;; Defined at:
  3468 ;;		line 123 in file "BBSPI_LCD.c"
  3469 ;; Parameters:    Size  Location     Type
  3470 ;;  port_dir        1    wreg     unsigned char 
  3471 ;; Auto vars:     Size  Location     Type
  3472 ;;  port_dir        1   17[COMRAM] unsigned char 
  3473 ;; Return value:  Size  Location     Type
  3474 ;;		None               void
  3475 ;; Registers used:
  3476 ;;		wreg, status,2, status,0, cstack
  3477 ;; Tracked objects:
  3478 ;;		On entry : 0/0
  3479 ;;		On exit  : 0/0
  3480 ;;		Unchanged: 0/0
  3481 ;; Data sizes:     COMRAM   BANK0   BANK1   BANK2   BANK3   BANK4   BANK5   BANK6   BANK7   BANK8   BANK9  BANK10  BANK1
      +1  BANK12  BANK13  BANK14  BANK15
  3482 ;;      Params:         0       0       0       0       0       0       0       0       0       0       0       0       
      +0       0       0       0       0
  3483 ;;      Locals:         1       0       0       0       0       0       0       0       0       0       0       0       
      +0       0       0       0       0
  3484 ;;      Temps:          0       0       0       0       0       0       0       0       0       0       0       0       
      +0       0       0       0       0
  3485 ;;      Totals:         1       0       0       0       0       0       0       0       0       0       0       0       
      +0       0       0       0       0
  3486 ;;Total ram usage:        1 bytes
  3487 ;; Hardware stack levels used:    1
  3488 ;; Hardware stack levels required when called:    3
  3489 ;; This function calls:
  3490 ;;		_SendByteBBSPI
  3491 ;; This function is called by:
  3492 ;;		_LCDInit
  3493 ;; This function uses a non-reentrant model
  3494 ;;
  3495                           
  3496                           	psect	text24
  3497  012964                     __ptext24:
  3498                           	opt stack 0
  3499  012964                     _Port_BBSPIInit:
  3500                           	opt stack 25
  3501                           
  3502                           ;incstack = 0
  3503                           ;Port_BBSPIInit@port_dir stored from wreg
  3504  012964  6E12               	movwf	Port_BBSPIInit@port_dir,c
  3505                           
  3506                           ;BBSPI_LCD.c: 128: LATAbits.LATA2 = 0;
  3507  012966  9489               	bcf	3977,2,c	;volatile
  3508                           
  3509                           ;BBSPI_LCD.c: 129: SendByteBBSPI(0x40);
  3510  012968  0E40               	movlw	64
  3511  01296A  ECB3  F092         	call	_SendByteBBSPI
  3512                           
  3513                           ;BBSPI_LCD.c: 130: SendByteBBSPI(port_dir);
  3514  01296E  5012               	movf	Port_BBSPIInit@port_dir,w,c
  3515  012970  ECB3  F092         	call	_SendByteBBSPI
  3516                           
  3517                           ;BBSPI_LCD.c: 131: SendByteBBSPI(0x00);
  3518  012974  0E00               	movlw	0
  3519  012976  ECB3  F092         	call	_SendByteBBSPI
  3520                           
  3521                           ;BBSPI_LCD.c: 132: LATAbits.LATA2 = 1;
  3522  01297A  8489               	bsf	3977,2,c	;volatile
  3523  01297C  0012               	return		;funcret
  3524  01297E                     __end_of_Port_BBSPIInit:
  3525                           	opt stack 0
  3526                           intcon	equ	0xFF2
  3527                           intcon2	equ	0xFF1
  3528                           wreg	equ	0xFE8
  3529                           status	equ	0xFD8
  3530                           
  3531 ;; *************** function _InitBBSPI *****************
  3532 ;; Defined at:
  3533 ;;		line 70 in file "BBSPI_LCD.c"
  3534 ;; Parameters:    Size  Location     Type
  3535 ;;		None
  3536 ;; Auto vars:     Size  Location     Type
  3537 ;;		None
  3538 ;; Return value:  Size  Location     Type
  3539 ;;		None               void
  3540 ;; Registers used:
  3541 ;;		None
  3542 ;; Tracked objects:
  3543 ;;		On entry : 0/0
  3544 ;;		On exit  : 0/0
  3545 ;;		Unchanged: 0/0
  3546 ;; Data sizes:     COMRAM   BANK0   BANK1   BANK2   BANK3   BANK4   BANK5   BANK6   BANK7   BANK8   BANK9  BANK10  BANK1
      +1  BANK12  BANK13  BANK14  BANK15
  3547 ;;      Params:         0       0       0       0       0       0       0       0       0       0       0       0       
      +0       0       0       0       0
  3548 ;;      Locals:         0       0       0       0       0       0       0       0       0       0       0       0       
      +0       0       0       0       0
  3549 ;;      Temps:          0       0       0       0       0       0       0       0       0       0       0       0       
      +0       0       0       0       0
  3550 ;;      Totals:         0       0       0       0       0       0       0       0       0       0       0       0       
      +0       0       0       0       0
  3551 ;;Total ram usage:        0 bytes
  3552 ;; Hardware stack levels used:    1
  3553 ;; Hardware stack levels required when called:    2
  3554 ;; This function calls:
  3555 ;;		Nothing
  3556 ;; This function is called by:
  3557 ;;		_InitEEPROM
  3558 ;;		_LCDInit
  3559 ;; This function uses a non-reentrant model
  3560 ;;
  3561                           
  3562                           	psect	text25
  3563  0129DC                     __ptext25:
  3564                           	opt stack 0
  3565  0129DC                     _InitBBSPI:
  3566                           	opt stack 25
  3567                           
  3568                           ;BBSPI_LCD.c: 72: TRISAbits.TRISA2 = 0;
  3569                           
  3570                           ;incstack = 0
  3571  0129DC  9492               	bcf	3986,2,c	;volatile
  3572                           
  3573                           ;BBSPI_LCD.c: 73: TRISCbits.TRISC4 = 1;
  3574  0129DE  8894               	bsf	3988,4,c	;volatile
  3575                           
  3576                           ;BBSPI_LCD.c: 74: TRISCbits.TRISC5 = 0;
  3577  0129E0  9A94               	bcf	3988,5,c	;volatile
  3578                           
  3579                           ;BBSPI_LCD.c: 75: TRISCbits.TRISC3 = 0;
  3580  0129E2  9694               	bcf	3988,3,c	;volatile
  3581                           
  3582                           ;BBSPI_LCD.c: 77: LATAbits.LATA2 = 1;
  3583  0129E4  8489               	bsf	3977,2,c	;volatile
  3584                           
  3585                           ;BBSPI_LCD.c: 78: LATCbits.LATC4 = 1;
  3586  0129E6  888B               	bsf	3979,4,c	;volatile
  3587                           
  3588                           ;BBSPI_LCD.c: 79: LATCbits.LATC5 = 0;
  3589  0129E8  9A8B               	bcf	3979,5,c	;volatile
  3590                           
  3591                           ;BBSPI_LCD.c: 80: LATCbits.LATC3 = 0;
  3592  0129EA  968B               	bcf	3979,3,c	;volatile
  3593  0129EC  0012               	return		;funcret
  3594  0129EE                     __end_of_InitBBSPI:
  3595                           	opt stack 0
  3596                           intcon	equ	0xFF2
  3597                           intcon2	equ	0xFF1
  3598                           wreg	equ	0xFE8
  3599                           status	equ	0xFD8
  3600                           
  3601 ;; *************** function _Intro_delay *****************
  3602 ;; Defined at:
  3603 ;;		line 39 in file "State_Intro.c"
  3604 ;; Parameters:    Size  Location     Type
  3605 ;;		None
  3606 ;; Auto vars:     Size  Location     Type
  3607 ;;  i               1   15[COMRAM] unsigned char 
  3608 ;; Return value:  Size  Location     Type
  3609 ;;		None               void
  3610 ;; Registers used:
  3611 ;;		wreg, status,2, status,0
  3612 ;; Tracked objects:
  3613 ;;		On entry : 0/0
  3614 ;;		On exit  : 0/0
  3615 ;;		Unchanged: 0/0
  3616 ;; Data sizes:     COMRAM   BANK0   BANK1   BANK2   BANK3   BANK4   BANK5   BANK6   BANK7   BANK8   BANK9  BANK10  BANK1
      +1  BANK12  BANK13  BANK14  BANK15
  3617 ;;      Params:         0       0       0       0       0       0       0       0       0       0       0       0       
      +0       0       0       0       0
  3618 ;;      Locals:         1       0       0       0       0       0       0       0       0       0       0       0       
      +0       0       0       0       0
  3619 ;;      Temps:          1       0       0       0       0       0       0       0       0       0       0       0       
      +0       0       0       0       0
  3620 ;;      Totals:         2       0       0       0       0       0       0       0       0       0       0       0       
      +0       0       0       0       0
  3621 ;;Total ram usage:        2 bytes
  3622 ;; Hardware stack levels used:    1
  3623 ;; Hardware stack levels required when called:    2
  3624 ;; This function calls:
  3625 ;;		Nothing
  3626 ;; This function is called by:
  3627 ;;		_Intro
  3628 ;; This function uses a non-reentrant model
  3629 ;;
  3630                           
  3631                           	psect	text26
  3632  012846                     __ptext26:
  3633                           	opt stack 0
  3634  012846                     _Intro_delay:
  3635                           	opt stack 27
  3636                           
  3637                           ;State_Intro.c: 41: unsigned char i;
  3638                           ;State_Intro.c: 42: for (i=0;i<100;i++)
  3639                           
  3640                           ;incstack = 0
  3641  012846  0E00               	movlw	0
  3642  012848  6E10               	movwf	Intro_delay@i,c
  3643  01284A  0E63               	movlw	99
  3644  01284C  6410               	cpfsgt	Intro_delay@i,c
  3645  01284E  D002               	goto	l2635
  3646  012850  0012               	return	
  3647  012852  0012               	return	
  3648  012854                     l2635:
  3649                           
  3650                           ;State_Intro.c: 43: {_delay((unsigned long)((50)*(10000000/4000.0)));}
  3651  012854  0EA3               	movlw	163
  3652  012856  6E0F               	movwf	??_Intro_delay& (0+255),c
  3653  012858  0E55               	movlw	85
  3654  01285A                     u6117:
  3655  01285A  2EE8               	decfsz	wreg,f,c
  3656  01285C  D7FE               	goto	u6117
  3657  01285E  2E0F               	decfsz	??_Intro_delay& (0+255),f,c
  3658  012860  D7FC               	goto	u6117
  3659  012862  F000               	nop	
  3660  012864  2A10               	incf	Intro_delay@i,f,c
  3661  012866  0E63               	movlw	99
  3662  012868  6410               	cpfsgt	Intro_delay@i,c
  3663  01286A  D7F4               	goto	l2635
  3664  01286C  0012               	return	
  3665  01286E  0012               	return		;funcret
  3666  012870                     __end_of_Intro_delay:
  3667                           	opt stack 0
  3668                           intcon	equ	0xFF2
  3669                           intcon2	equ	0xFF1
  3670                           wreg	equ	0xFE8
  3671                           status	equ	0xFD8
  3672                           
  3673 ;; *************** function _Clock *****************
  3674 ;; Defined at:
  3675 ;;		line 28 in file "State_Clock.c"
  3676 ;; Parameters:    Size  Location     Type
  3677 ;;		None
  3678 ;; Auto vars:     Size  Location     Type
  3679 ;;		None
  3680 ;; Return value:  Size  Location     Type
  3681 ;;		None               void
  3682 ;; Registers used:
  3683 ;;		wreg, fsr2l, fsr2h, status,2, status,0, tblptrl, tblptrh, tblptru, prodl, prodh, cstack
  3684 ;; Tracked objects:
  3685 ;;		On entry : 0/0
  3686 ;;		On exit  : 0/0
  3687 ;;		Unchanged: 0/0
  3688 ;; Data sizes:     COMRAM   BANK0   BANK1   BANK2   BANK3   BANK4   BANK5   BANK6   BANK7   BANK8   BANK9  BANK10  BANK1
      +1  BANK12  BANK13  BANK14  BANK15
  3689 ;;      Params:         0       0       0       0       0       0       0       0       0       0       0       0       
      +0       0       0       0       0
  3690 ;;      Locals:         0       0       0       0       0       0       0       0       0       0       0       0       
      +0       0       0       0       0
  3691 ;;      Temps:          0       0       0       0       0       0       0       0       0       0       0       0       
      +0       0       0       0       0
  3692 ;;      Totals:         0       0       0       0       0       0       0       0       0       0       0       0       
      +0       0       0       0       0
  3693 ;;Total ram usage:        0 bytes
  3694 ;; Hardware stack levels used:    1
  3695 ;; Hardware stack levels required when called:    9
  3696 ;; This function calls:
  3697 ;;		_LCDPutInst
  3698 ;;		_LCDPutStr
  3699 ;;		_SWdelay
  3700 ;;		_count_Clock
  3701 ;;		_printf
  3702 ;; This function is called by:
  3703 ;;		_main
  3704 ;; This function uses a non-reentrant model
  3705 ;;
  3706                           
  3707                           	psect	text27
  3708  012240                     __ptext27:
  3709                           	opt stack 0
  3710  012240                     _Clock:
  3711                           	opt stack 21
  3712                           
  3713                           ;State_Clock.c: 31: LCDPutInst(0x80);
  3714                           
  3715                           ;incstack = 0
  3716  012240  0E80               	movlw	128
  3717  012242  ECF2  F091         	call	_LCDPutInst
  3718                           
  3719                           ;State_Clock.c: 32: LCDPutStr("     Clock      ");
  3720  012246  0E30               	movlw	low STR_17
  3721  012248  6E16               	movwf	LCDPutStr@ptr,c
  3722  01224A  0EFF               	movlw	high STR_17
  3723  01224C  6E17               	movwf	LCDPutStr@ptr+1,c
  3724  01224E  ECF1  F093         	call	_LCDPutStr	;wreg free
  3725                           
  3726                           ;State_Clock.c: 33: LCDPutInst(0xC0);
  3727  012252  0EC0               	movlw	192
  3728  012254  ECF2  F091         	call	_LCDPutInst
  3729                           
  3730                           ;State_Clock.c: 34: LCDPutStr("RB0=Now RA5=Next");
  3731  012258  0EA7               	movlw	low STR_2
  3732  01225A  6E16               	movwf	LCDPutStr@ptr,c
  3733  01225C  0EFF               	movlw	high STR_2
  3734  01225E  6E17               	movwf	LCDPutStr@ptr+1,c
  3735  012260  ECF1  F093         	call	_LCDPutStr	;wreg free
  3736                           
  3737                           ;State_Clock.c: 37: printf("     Clock      \n\r");
  3738  012264  0E89               	movlw	low STR_19
  3739  012266  0100               	movlb	0	; () banked
  3740  012268  6F60               	movwf	printf@f& (0+255),b
  3741  01226A  0EFE               	movlw	high STR_19
  3742  01226C  0100               	movlb	0	; () banked
  3743  01226E  6F61               	movwf	(printf@f+1)& (0+255),b
  3744  012270  EC00  F080         	call	_printf	;wreg free
  3745                           
  3746                           ;State_Clock.c: 38: printf("RB0=Now RA5=Next\n\r");
  3747  012274  0EFB               	movlw	low STR_4
  3748  012276  0100               	movlb	0	; () banked
  3749  012278  6F60               	movwf	printf@f& (0+255),b
  3750  01227A  0EFE               	movlw	high STR_4
  3751  01227C  0100               	movlb	0	; () banked
  3752  01227E  6F61               	movwf	(printf@f+1)& (0+255),b
  3753  012280  EC00  F080         	call	_printf	;wreg free
  3754                           
  3755                           ;State_Clock.c: 40: while (State == 3)
  3756  012284  D00E               	goto	l5607
  3757  012286                     l340:
  3758                           
  3759                           ;State_Clock.c: 41: {
  3760                           ;State_Clock.c: 42: if (PORTBbits.RB0 == 0)
  3761  012286  B081               	btfsc	3969,0,c	;volatile
  3762  012288  D005               	goto	l5601
  3763                           
  3764                           ;State_Clock.c: 43: {
  3765                           ;State_Clock.c: 44: SWdelay();
  3766  01228A  EC0B  F094         	call	_SWdelay	;wreg free
  3767                           
  3768                           ;State_Clock.c: 45: count_Clock ();
  3769  01228E  EC18  F08F         	call	_count_Clock	;wreg free
  3770  012292  D000               	goto	l5601
  3771  012294                     l5601:
  3772                           
  3773                           ;State_Clock.c: 46: }
  3774                           ;State_Clock.c: 47: if (PORTAbits.RA5 == 0)
  3775  012294  BA80               	btfsc	3968,5,c	;volatile
  3776  012296  D005               	goto	l5607
  3777                           
  3778                           ;State_Clock.c: 48: {
  3779                           ;State_Clock.c: 49: SWdelay();
  3780  012298  EC0B  F094         	call	_SWdelay	;wreg free
  3781                           
  3782                           ;State_Clock.c: 50: State = 1;
  3783  01229C  0E01               	movlw	1
  3784  01229E  6E50               	movwf	_State,c
  3785  0122A0  D000               	goto	l5607
  3786  0122A2                     l5607:
  3787  0122A2  0E03               	movlw	3
  3788  0122A4  1850               	xorwf	_State,w,c
  3789  0122A6  B4D8               	btfsc	status,2,c
  3790  0122A8  D7EE               	goto	l340
  3791  0122AA  0012               	return		;funcret
  3792  0122AC                     __end_of_Clock:
  3793                           	opt stack 0
  3794                           intcon	equ	0xFF2
  3795                           intcon2	equ	0xFF1
  3796                           wreg	equ	0xFE8
  3797                           status	equ	0xFD8
  3798                           
  3799 ;; *************** function _count_Clock *****************
  3800 ;; Defined at:
  3801 ;;		line 89 in file "State_Clock.c"
  3802 ;; Parameters:    Size  Location     Type
  3803 ;;		None
  3804 ;; Auto vars:     Size  Location     Type
  3805 ;;		None
  3806 ;; Return value:  Size  Location     Type
  3807 ;;		None               void
  3808 ;; Registers used:
  3809 ;;		wreg, fsr2l, fsr2h, status,2, status,0, tblptrl, tblptrh, tblptru, prodl, prodh, cstack
  3810 ;; Tracked objects:
  3811 ;;		On entry : 0/0
  3812 ;;		On exit  : 0/0
  3813 ;;		Unchanged: 0/0
  3814 ;; Data sizes:     COMRAM   BANK0   BANK1   BANK2   BANK3   BANK4   BANK5   BANK6   BANK7   BANK8   BANK9  BANK10  BANK1
      +1  BANK12  BANK13  BANK14  BANK15
  3815 ;;      Params:         0       0       0       0       0       0       0       0       0       0       0       0       
      +0       0       0       0       0
  3816 ;;      Locals:         0       0       0       0       0       0       0       0       0       0       0       0       
      +0       0       0       0       0
  3817 ;;      Temps:          0       0       0       0       0       0       0       0       0       0       0       0       
      +0       0       0       0       0
  3818 ;;      Totals:         0       0       0       0       0       0       0       0       0       0       0       0       
      +0       0       0       0       0
  3819 ;;Total ram usage:        0 bytes
  3820 ;; Hardware stack levels used:    1
  3821 ;; Hardware stack levels required when called:    8
  3822 ;; This function calls:
  3823 ;;		_LCDPutInst
  3824 ;;		_LCDPutStr
  3825 ;;		_SWdelay
