

Microchip Technology PIC18 LITE Macro Assembler V1.43 build -156212558 
                                                                                               Thu Sep 21 12:09:19 2017

Microchip Technology Omniscient Code Generator v1.43 (Free mode) build 201707250354
     1                           	processor	18F8722
     2                           	fnconf	rparam,??,?,0
     3                           	opt	pw 120
     4                           	opt	lm
     5                           	psect	smallconst,global,reloc=2,class=SMALLCONST,delta=1,noexec
     6                           	psect	cinit,global,reloc=2,class=CODE,delta=1
     7                           	psect	bssCOMRAM,global,class=COMRAM,space=1,delta=1,noexec
     8                           	psect	cstackCOMRAM,global,class=COMRAM,space=1,delta=1,noexec
     9                           	psect	text0,global,reloc=2,class=CODE,delta=1
    10                           	psect	text1,global,reloc=2,class=CODE,delta=1
    11                           	psect	text2,global,reloc=2,class=CODE,delta=1
    12                           	psect	text3,global,reloc=2,class=CODE,delta=1
    13                           	psect	text4,global,reloc=2,class=CODE,delta=1
    14                           	psect	text5,global,reloc=2,class=CODE,delta=1
    15                           	psect	text6,global,reloc=2,class=CODE,delta=1
    16                           	psect	text7,global,reloc=2,class=CODE,delta=1
    17                           	psect	text8,global,reloc=2,class=CODE,delta=1
    18                           	psect	text9,global,reloc=2,class=CODE,delta=1
    19                           	psect	text10,global,reloc=2,class=CODE,delta=1
    20                           	psect	text11,global,reloc=2,class=CODE,delta=1
    21                           	psect	text12,global,reloc=2,class=CODE,delta=1
    22                           	psect	text13,global,reloc=2,class=CODE,delta=1
    23                           	psect	text14,global,reloc=2,class=CODE,delta=1,group=1
    24                           	psect	text15,global,reloc=2,class=CODE,delta=1,group=1
    25                           	psect	text16,global,reloc=2,class=CODE,delta=1
    26                           	psect	text17,global,reloc=2,class=CODE,delta=1
    27                           	psect	text18,global,reloc=2,class=CODE,delta=1
    28                           	psect	text19,global,reloc=2,class=CODE,delta=1
    29                           	psect	text20,global,reloc=2,class=CODE,delta=1
    30                           	psect	intcode,global,reloc=2,class=CODE,delta=1
    31                           	psect	intcode_body,global,reloc=2,class=CODE,delta=1
    32                           	psect	text22,global,reloc=2,class=CODE,delta=1
    33                           	psect	intsave_regs,global,class=BIGRAM,space=1,delta=1,noexec
    34                           	psect	rparam,global,class=COMRAM,space=1,delta=1,noexec
    35                           	psect	temp,global,ovrld,common,class=COMRAM,space=1,delta=1
    36  0000                     
    37                           ; Version 1.43
    38                           ; Generated 25/07/2017 GMT
    39                           ; 
    40                           ; Copyright © 2017, Microchip Technology Inc. and its subsidiaries ("Microchip")
    41                           ; All rights reserved.
    42                           ; 
    43                           ; This software is developed by Microchip Technology Inc. and its subsidiaries ("Microch
      +                          ip").
    44                           ; 
    45                           ; Redistribution and use in source and binary forms, with or without modification, are
    46                           ; permitted provided that the following conditions are met:
    47                           ; 
    48                           ;     1. Redistributions of source code must retain the above copyright notice, this lis
      +                          t of
    49                           ;        conditions and the following disclaimer.
    50                           ; 
    51                           ;     2. Redistributions in binary form must reproduce the above copyright notice, this 
      +                          list
    52                           ;        of conditions and the following disclaimer in the documentation and/or other
    53                           ;        materials provided with the distribution.
    54                           ; 
    55                           ;     3. Microchip's name may not be used to endorse or promote products derived from th
      +                          is
    56                           ;        software without specific prior written permission.
    57                           ; 
    58                           ; THIS SOFTWARE IS PROVIDED BY MICROCHIP "AS IS" AND ANY EXPRESS OR IMPLIED WARRANTIES,
    59                           ; INCLUDING, BUT NOT LIMITED TO, THE IMPLIED WARRANTIES OF MERCHANTABILITY AND FITNESS F
      +                          OR
    60                           ; PURPOSE ARE DISCLAIMED.  IN NO EVENT SHALL MICROCHIP BE LIABLE FOR ANY DIRECT, INDIREC
      +                          T,
    61                           ; INCIDENTAL, SPECIAL, EXEMPLARY, OR CONSEQUENTIAL DAMAGES (INCLUDING BUT NOT LIMITED TO
    62                           ; PROCUREMENT OF SUBSTITUTE GOODS OR SERVICES; LOSS OF USE, DATA OR PROFITS; OR BUSINESS
    63                           ; INTERRUPTION) HOWSOEVER CAUSED AND ON ANY THEORY OF LIABILITY, WHETHER IN CONTRACT, ST
      +                          RICT
    64                           ; LIABILITY, OR TORT (INCLUDING NEGLIGENCE OR OTHERWISE) ARISING IN ANY WAY OUT OF THE U
      +                          SE OF
    65                           ; THIS SOFTWARE, EVEN IF ADVISED OF THE POSSIBILITY OF SUCH DAMAGE.
    66                           ; 
    67                           ; 
    68                           ; Code-generator required, PIC18F8722 Definitions
    69                           ; 
    70                           ; SFR Addresses
    71  0000                     
    72                           	psect	smallconst
    73  001000                     __psmallconst:
    74                           	opt stack 0
    75  001000  00                 	db	0
    76  001001                     _dpowers:
    77                           	opt stack 0
    78  001001  0001               	dw	1
    79  001003  000A               	dw	10
    80  001005  0064               	dw	100
    81  001007  03E8               	dw	1000
    82  001009  2710               	dw	10000
    83  00100B                     __end_of_dpowers:
    84                           	opt stack 0
    85  0000                     _INTCONbits	set	4082
    86  0000                     _RCONbits	set	4048
    87  0000                     _TMR1L	set	4046
    88  0000                     _TMR1H	set	4047
    89  0000                     _PIE1bits	set	3997
    90  0000                     _PIR1bits	set	3998
    91  0000                     _T1CONbits	set	4045
    92  0000                     _PORTBbits	set	3969
    93  0000                     _PORTAbits	set	3968
    94  0000                     _TRISDbits	set	3989
    95  0000                     _LATD	set	3980
    96  0000                     _TRISBbits	set	3987
    97  0000                     _ADCON1bits	set	4033
    98  0000                     _TRISGbits	set	3992
    99  0000                     _LATGbits	set	3983
   100  0000                     _PIE3bits	set	4003
   101  0000                     _PIR3bits	set	4004
   102  0000                     _CCP4CONbits	set	3955
   103  0000                     _T3CONbits	set	4017
   104  0000                     _LATCbits	set	3979
   105  0000                     _LATAbits	set	3977
   106  0000                     _TRISCbits	set	3988
   107  0000                     _TRISAbits	set	3986
   108  0000                     _LATFbits	set	3982
   109  0000                     _TRISFbits	set	3991
   110  0000                     _CCPR4L	set	3956
   111  0000                     _CCPR4H	set	3957
   112  0000                     _PORTDbits	set	3971
   113  00100B                     STR_2:
   114  00100B  4D                 	db	77	;'M'
   115  00100C  6F                 	db	111	;'o'
   116  00100D  64                 	db	100	;'d'
   117  00100E  6F                 	db	111	;'o'
   118  00100F  20                 	db	32
   119  001010  43                 	db	67	;'C'
   120  001011  61                 	db	97	;'a'
   121  001012  70                 	db	112	;'p'
   122  001013  74                 	db	116	;'t'
   123  001014  75                 	db	117	;'u'
   124  001015  72                 	db	114	;'r'
   125  001016  61                 	db	97	;'a'
   126  001017  00                 	db	0
   127  001018                     STR_1:
   128  001018  4D                 	db	77	;'M'
   129  001019  6F                 	db	111	;'o'
   130  00101A  64                 	db	100	;'d'
   131  00101B  75                 	db	117	;'u'
   132  00101C  6C                 	db	108	;'l'
   133  00101D  6F                 	db	111	;'o'
   134  00101E  20                 	db	32
   135  00101F  43                 	db	67	;'C'
   136  001020  43                 	db	67	;'C'
   137  001021  50                 	db	80	;'P'
   138  001022  00                 	db	0
   139  001023                     STR_3:
   140  001023  43                 	db	67	;'C'
   141  001024  43                 	db	67	;'C'
   142  001025  50                 	db	80	;'P'
   143  001026  34                 	db	52	;'4'
   144  001027  20                 	db	32
   145  001028  3D                 	db	61	;'='
   146  001029  20                 	db	32
   147  00102A  25                 	db	37
   148  00102B  64                 	db	100	;'d'
   149  00102C  00                 	db	0
   150                           
   151                           ; #config settings
   152  00102D  00                 	db	0	; dummy byte at the end
   153  0000                     
   154                           	psect	cinit
   155  00164E                     __pcinit:
   156                           	opt stack 0
   157  00164E                     start_initialization:
   158                           	opt stack 0
   159  00164E                     __initialization:
   160                           	opt stack 0
   161                           
   162                           ; Clear objects allocated to COMRAM (25 bytes)
   163  00164E  EE00  F02F         	lfsr	0,__pbssCOMRAM
   164  001652  0E19               	movlw	25
   165  001654                     clear_0:
   166  001654  6AEE               	clrf	postinc0,c
   167  001656  06E8               	decf	wreg,f,c
   168  001658  E1FD               	bnz	clear_0
   169  00165A                     end_of_initialization:
   170                           	opt stack 0
   171  00165A                     __end_of__initialization:
   172                           	opt stack 0
   173  00165A  9048               	bcf	int$flags,0,c	;clear compiler interrupt flag (level 1)
   174  00165C  9248               	bcf	int$flags,1,c	;clear compiler interrupt flag (level 2)
   175  00165E  0100               	movlb	0
   176  001660  EF13  F009         	goto	_main	;jump to C main() function
   177                           postinc0	equ	0xFEE
   178                           wreg	equ	0xFE8
   179                           
   180                           	psect	bssCOMRAM
   181  00002F                     __pbssCOMRAM:
   182                           	opt stack 0
   183  00002F                     _t:
   184                           	opt stack 0
   185  00002F                     	ds	2
   186  000031                     _t2:
   187                           	opt stack 0
   188  000031                     	ds	2
   189  000033                     _t1:
   190                           	opt stack 0
   191  000033                     	ds	2
   192  000035                     _aux:
   193                           	opt stack 0
   194  000035                     	ds	1
   195  000036                     _CCP4Flag:
   196                           	opt stack 0
   197  000036                     	ds	1
   198  000037                     _Timer1Flag:
   199                           	opt stack 0
   200  000037                     	ds	1
   201  000038                     _TextoLCD:
   202                           	opt stack 0
   203  000038                     	ds	16
   204                           postinc0	equ	0xFEE
   205                           wreg	equ	0xFE8
   206                           
   207                           	psect	cstackCOMRAM
   208  000001                     __pcstackCOMRAM:
   209                           	opt stack 0
   210  000001                     ??_InterruptsManager:
   211                           
   212                           ; 1 bytes @ 0x0
   213  000001                     	ds	18
   214  000013                     ??_IntroDelay:
   215  000013                     ?___lwdiv:
   216                           	opt stack 0
   217  000013                     SendByteBBSPI@output:
   218                           	opt stack 0
   219  000013                     TMR1Write@ValTMR1:
   220                           	opt stack 0
   221  000013                     ___lwdiv@dividend:
   222                           	opt stack 0
   223                           
   224                           ; 2 bytes @ 0x12
   225  000013                     	ds	1
   226  000014                     SendByteBBSPI@bitcount:
   227                           	opt stack 0
   228                           
   229                           ; 1 bytes @ 0x13
   230  000014                     	ds	1
   231  000015                     IntroDelay@i:
   232                           	opt stack 0
   233  000015                     SendByteBBSPI@input:
   234                           	opt stack 0
   235  000015                     ___lwdiv@divisor:
   236                           	opt stack 0
   237                           
   238                           ; 2 bytes @ 0x14
   239  000015                     	ds	1
   240  000016                     Port_BBSPIInit@port_dir:
   241                           	opt stack 0
   242  000016                     WritePort_BBSPI@a:
   243                           	opt stack 0
   244                           
   245                           ; 1 bytes @ 0x15
   246  000016                     	ds	1
   247  000017                     WritePort_BBSPI@port_add:
   248                           	opt stack 0
   249  000017                     ___lwdiv@quotient:
   250                           	opt stack 0
   251                           
   252                           ; 2 bytes @ 0x16
   253  000017                     	ds	1
   254  000018                     ??_LCDPutInst:
   255  000018                     ??_LCDPutChar:
   256                           
   257                           ; 1 bytes @ 0x17
   258  000018                     	ds	1
   259  000019                     LCDPutChar@ch:
   260                           	opt stack 0
   261  000019                     LCDPutInst@ch:
   262                           	opt stack 0
   263  000019                     ___lwdiv@counter:
   264                           	opt stack 0
   265                           
   266                           ; 1 bytes @ 0x18
   267  000019                     	ds	1
   268  00001A                     ??_LCDInit:
   269  00001A                     ?___lwmod:
   270                           	opt stack 0
   271  00001A                     LCDPutStr@ptr:
   272                           	opt stack 0
   273  00001A                     ___lwmod@dividend:
   274                           	opt stack 0
   275                           
   276                           ; 2 bytes @ 0x19
   277  00001A                     	ds	2
   278  00001C                     ___lwmod@divisor:
   279                           	opt stack 0
   280                           
   281                           ; 2 bytes @ 0x1B
   282  00001C                     	ds	2
   283  00001E                     ___lwmod@counter:
   284                           	opt stack 0
   285                           
   286                           ; 1 bytes @ 0x1D
   287  00001E                     	ds	1
   288  00001F                     ?_sprintf:
   289                           	opt stack 0
   290  00001F                     sprintf@sp:
   291                           	opt stack 0
   292                           
   293                           ; 2 bytes @ 0x1E
   294  00001F                     	ds	2
   295  000021                     sprintf@f:
   296                           	opt stack 0
   297                           
   298                           ; 2 bytes @ 0x20
   299  000021                     	ds	4
   300  000025                     ??_sprintf:
   301                           
   302                           ; 1 bytes @ 0x24
   303  000025                     	ds	1
   304  000026                     sprintf@ap:
   305                           	opt stack 0
   306                           
   307                           ; 2 bytes @ 0x25
   308  000026                     	ds	2
   309  000028                     sprintf@flag:
   310                           	opt stack 0
   311                           
   312                           ; 1 bytes @ 0x27
   313  000028                     	ds	1
   314  000029                     sprintf@prec:
   315                           	opt stack 0
   316                           
   317                           ; 1 bytes @ 0x28
   318  000029                     	ds	1
   319  00002A                     sprintf@val:
   320                           	opt stack 0
   321                           
   322                           ; 2 bytes @ 0x29
   323  00002A                     	ds	2
   324  00002C                     sprintf@c:
   325                           	opt stack 0
   326                           
   327                           ; 1 bytes @ 0x2B
   328  00002C                     	ds	1
   329  00002D                     ??_main:
   330                           
   331                           ; 1 bytes @ 0x2C
   332  00002D                     	ds	2
   333                           postinc0	equ	0xFEE
   334                           wreg	equ	0xFE8
   335                           
   336 ;;
   337 ;;Main: autosize = 0, tempsize = 2, incstack = 0, save=0
   338 ;;
   339 ;; *************** function _main *****************
   340 ;; Defined at:
   341 ;;		line 29 in file "main.c"
   342 ;; Parameters:    Size  Location     Type
   343 ;;		None
   344 ;; Auto vars:     Size  Location     Type
   345 ;;		None
   346 ;; Return value:  Size  Location     Type
   347 ;;                  1    wreg      void 
   348 ;; Registers used:
   349 ;;		wreg, fsr0l, fsr0h, fsr2l, fsr2h, status,2, status,0, tblptrl, tblptrh, tblptru, prodl, prodh, cstack
   350 ;; Tracked objects:
   351 ;;		On entry : 0/0
   352 ;;		On exit  : 0/0
   353 ;;		Unchanged: 0/0
   354 ;; Data sizes:     COMRAM   BANK0   BANK1   BANK2   BANK3   BANK4   BANK5   BANK6   BANK7   BANK8   BANK9  BANK10  BANK1
      +1  BANK12  BANK13  BANK14  BANK15
   355 ;;      Params:         0       0       0       0       0       0       0       0       0       0       0       0       
      +0       0       0       0       0
   356 ;;      Locals:         0       0       0       0       0       0       0       0       0       0       0       0       
      +0       0       0       0       0
   357 ;;      Temps:          2       0       0       0       0       0       0       0       0       0       0       0       
      +0       0       0       0       0
   358 ;;      Totals:         2       0       0       0       0       0       0       0       0       0       0       0       
      +0       0       0       0       0
   359 ;;Total ram usage:        2 bytes
   360 ;; Hardware stack levels required when called:    7
   361 ;; This function calls:
   362 ;;		_Imprimir
   363 ;;		_InterruptInitialize
   364 ;;		_Intro
   365 ;;		_LCDPutInst
   366 ;;		_SysInitialize
   367 ;;		_TMR1Write
   368 ;; This function is called by:
   369 ;;		Startup code after reset
   370 ;; This function uses a non-reentrant model
   371 ;;
   372                           
   373                           	psect	text0
   374  001226                     __ptext0:
   375                           	opt stack 0
   376  001226                     _main:
   377                           	opt stack 24
   378                           
   379                           ;main.c: 31: SysInitialize();
   380                           
   381                           ;incstack = 0
   382  001226  ECD3  F00A         	call	_SysInitialize	;wreg free
   383                           
   384                           ;main.c: 32: InterruptInitialize();
   385  00122A  EC3B  F00B         	call	_InterruptInitialize	;wreg free
   386                           
   387                           ;main.c: 33: Intro();
   388  00122E  ECA8  F00A         	call	_Intro	;wreg free
   389                           
   390                           ;main.c: 34: LCDPutInst(0x01);
   391  001232  0E01               	movlw	1
   392  001234  EC90  F009         	call	_LCDPutInst
   393  001238                     
   394                           ;main.c: 37: {
   395                           ;main.c: 38: if(CCP4Flag)
   396  001238  5036               	movf	_CCP4Flag,w,c
   397  00123A  B4D8               	btfsc	status,2,c
   398  00123C  D7FD               	goto	l47
   399                           
   400                           ;main.c: 39: {
   401                           ;main.c: 40: CCP4Flag = 0;
   402  00123E  0E00               	movlw	0
   403  001240  6E36               	movwf	_CCP4Flag,c
   404                           
   405                           ;main.c: 41: PORTDbits.RD0 = !PORTDbits.RD0;
   406  001242  B083               	btfsc	3971,0,c	;volatile
   407  001244  D003               	goto	u510
   408  001246  6A2D               	clrf	??_main& (0+255),c
   409  001248  2A2D               	incf	??_main& (0+255),f,c
   410  00124A  D001               	goto	u528
   411  00124C                     u510:
   412  00124C  6A2D               	clrf	??_main& (0+255),c
   413  00124E                     u528:
   414  00124E  5083               	movf	3971,w,c	;volatile
   415  001250  182D               	xorwf	??_main,w,c
   416  001252  0BFE               	andlw	-2
   417  001254  182D               	xorwf	??_main,w,c
   418  001256  6E83               	movwf	3971,c	;volatile
   419                           
   420                           ;main.c: 43: t = CCPR4H;
   421  001258  CF75 F02F          	movff	3957,_t	;volatile
   422  00125C  6A30               	clrf	_t+1,c
   423                           
   424                           ;main.c: 44: t<<=8;
   425  00125E  502F               	movf	_t,w,c
   426  001260  6E30               	movwf	_t+1,c
   427  001262  6A2F               	clrf	_t,c
   428                           
   429                           ;main.c: 45: t+=CCPR4L;
   430  001264  5074               	movf	3956,w,c	;volatile
   431  001266  262F               	addwf	_t,f,c
   432  001268  0E00               	movlw	0
   433  00126A  2230               	addwfc	_t+1,f,c
   434                           
   435                           ;main.c: 47: if(aux == 0)
   436  00126C  5035               	movf	_aux,w,c
   437  00126E  A4D8               	btfss	status,2,c
   438  001270  D007               	goto	l49
   439                           
   440                           ;main.c: 48: {
   441                           ;main.c: 49: t1 = t;
   442  001272  C02F  F033         	movff	_t,_t1
   443  001276  C030  F034         	movff	_t+1,_t1+1
   444                           
   445                           ;main.c: 50: aux = 1;
   446  00127A  0E01               	movlw	1
   447  00127C  6E35               	movwf	_aux,c
   448                           
   449                           ;main.c: 51: }
   450  00127E  D7DC               	goto	l47
   451  001280                     l49:
   452                           
   453                           ;main.c: 52: else
   454                           ;main.c: 53: {
   455                           ;main.c: 54: t2 = t;
   456  001280  C02F  F031         	movff	_t,_t2
   457  001284  C030  F032         	movff	_t+1,_t2+1
   458                           
   459                           ;main.c: 55: t = t2 - t1;
   460  001288  C033  F02D         	movff	_t1,??_main
   461  00128C  C034  F02E         	movff	_t1+1,??_main+1
   462  001290  1E2D               	comf	??_main,f,c
   463  001292  1E2E               	comf	??_main+1,f,c
   464  001294  4A2D               	infsnz	??_main,f,c
   465  001296  2A2E               	incf	??_main+1,f,c
   466  001298  5031               	movf	_t2,w,c
   467  00129A  242D               	addwf	??_main,w,c
   468  00129C  6E2F               	movwf	_t,c
   469  00129E  5032               	movf	_t2+1,w,c
   470  0012A0  202E               	addwfc	??_main+1,w,c
   471  0012A2  6E30               	movwf	_t+1,c
   472                           
   473                           ;main.c: 56: Imprimir();
   474  0012A4  EC90  F00A         	call	_Imprimir	;wreg free
   475                           
   476                           ;main.c: 57: aux = 0;
   477  0012A8  0E00               	movlw	0
   478  0012AA  6E35               	movwf	_aux,c
   479                           
   480                           ;main.c: 58: TMR1Write(0);
   481  0012AC  0E00               	movlw	0
   482  0012AE  6E14               	movwf	TMR1Write@ValTMR1+1,c
   483  0012B0  0E00               	movlw	0
   484  0012B2  6E13               	movwf	TMR1Write@ValTMR1,c
   485  0012B4  ECF1  F00A         	call	_TMR1Write	;wreg free
   486  0012B8  D7BF               	goto	l47
   487  0012BA                     __end_of_main:
   488                           	opt stack 0
   489                           postinc0	equ	0xFEE
   490                           wreg	equ	0xFE8
   491                           status	equ	0xFD8
   492                           
   493 ;; *************** function _TMR1Write *****************
   494 ;; Defined at:
   495 ;;		line 95 in file "tmr1.c"
   496 ;; Parameters:    Size  Location     Type
   497 ;;  ValTMR1         2   18[COMRAM] unsigned int 
   498 ;; Auto vars:     Size  Location     Type
   499 ;;		None
   500 ;; Return value:  Size  Location     Type
   501 ;;                  1    wreg      void 
   502 ;; Registers used:
   503 ;;		wreg, status,2
   504 ;; Tracked objects:
   505 ;;		On entry : 0/0
   506 ;;		On exit  : 0/0
   507 ;;		Unchanged: 0/0
   508 ;; Data sizes:     COMRAM   BANK0   BANK1   BANK2   BANK3   BANK4   BANK5   BANK6   BANK7   BANK8   BANK9  BANK10  BANK1
      +1  BANK12  BANK13  BANK14  BANK15
   509 ;;      Params:         2       0       0       0       0       0       0       0       0       0       0       0       
      +0       0       0       0       0
   510 ;;      Locals:         0       0       0       0       0       0       0       0       0       0       0       0       
      +0       0       0       0       0
   511 ;;      Temps:          0       0       0       0       0       0       0       0       0       0       0       0       
      +0       0       0       0       0
   512 ;;      Totals:         2       0       0       0       0       0       0       0       0       0       0       0       
      +0       0       0       0       0
   513 ;;Total ram usage:        2 bytes
   514 ;; Hardware stack levels used:    1
   515 ;; Hardware stack levels required when called:    2
   516 ;; This function calls:
   517 ;;		Nothing
   518 ;; This function is called by:
   519 ;;		_main
   520 ;; This function uses a non-reentrant model
   521 ;;
   522                           
   523                           	psect	text1
   524  0015E2                     __ptext1:
   525                           	opt stack 0
   526  0015E2                     _TMR1Write:
   527                           	opt stack 28
   528                           
   529                           ;tmr1.c: 97: if (T1CONbits.T1SYNC == 1)
   530                           
   531                           ;incstack = 0
   532  0015E2  A4CD               	btfss	4045,2,c	;volatile
   533  0015E4  D007               	goto	l208
   534                           
   535                           ;tmr1.c: 98: {
   536                           ;tmr1.c: 100: T1CONbits.TMR1ON = 0;
   537  0015E6  90CD               	bcf	4045,0,c	;volatile
   538                           
   539                           ;tmr1.c: 103: TMR1H = (ValTMR1 >> 8);
   540  0015E8  5014               	movf	TMR1Write@ValTMR1+1,w,c
   541  0015EA  6ECF               	movwf	4047,c	;volatile
   542                           
   543                           ;tmr1.c: 104: TMR1L = (uint8_t) ValTMR1;
   544  0015EC  C013  FFCE         	movff	TMR1Write@ValTMR1,4046	;volatile
   545                           
   546                           ;tmr1.c: 107: T1CONbits.TMR1ON =1;
   547  0015F0  80CD               	bsf	4045,0,c	;volatile
   548                           
   549                           ;tmr1.c: 108: }
   550  0015F2  0012               	return	
   551  0015F4                     l208:
   552                           
   553                           ;tmr1.c: 109: else
   554                           ;tmr1.c: 110: {
   555                           ;tmr1.c: 112: TMR1H = (ValTMR1 >> 8);
   556  0015F4  5014               	movf	TMR1Write@ValTMR1+1,w,c
   557  0015F6  6ECF               	movwf	4047,c	;volatile
   558                           
   559                           ;tmr1.c: 113: TMR1L = (uint8_t) ValTMR1;
   560  0015F8  C013  FFCE         	movff	TMR1Write@ValTMR1,4046	;volatile
   561  0015FC  0012               	return	
   562  0015FE                     __end_of_TMR1Write:
   563                           	opt stack 0
   564                           postinc0	equ	0xFEE
   565                           wreg	equ	0xFE8
   566                           status	equ	0xFD8
   567                           
   568 ;; *************** function _SysInitialize *****************
   569 ;; Defined at:
   570 ;;		line 4 in file "SystemInitialize.c"
   571 ;; Parameters:    Size  Location     Type
   572 ;;		None
   573 ;; Auto vars:     Size  Location     Type
   574 ;;		None
   575 ;; Return value:  Size  Location     Type
   576 ;;                  1    wreg      void 
   577 ;; Registers used:
   578 ;;		wreg, status,2, cstack
   579 ;; Tracked objects:
   580 ;;		On entry : 0/0
   581 ;;		On exit  : 0/0
   582 ;;		Unchanged: 0/0
   583 ;; Data sizes:     COMRAM   BANK0   BANK1   BANK2   BANK3   BANK4   BANK5   BANK6   BANK7   BANK8   BANK9  BANK10  BANK1
      +1  BANK12  BANK13  BANK14  BANK15
   584 ;;      Params:         0       0       0       0       0       0       0       0       0       0       0       0       
      +0       0       0       0       0
   585 ;;      Locals:         0       0       0       0       0       0       0       0       0       0       0       0       
      +0       0       0       0       0
   586 ;;      Temps:          0       0       0       0       0       0       0       0       0       0       0       0       
      +0       0       0       0       0
   587 ;;      Totals:         0       0       0       0       0       0       0       0       0       0       0       0       
      +0       0       0       0       0
   588 ;;Total ram usage:        0 bytes
   589 ;; Hardware stack levels used:    1
   590 ;; Hardware stack levels required when called:    4
   591 ;; This function calls:
   592 ;;		_CCP4Initialize
   593 ;;		_TMR1Initialize
   594 ;; This function is called by:
   595 ;;		_main
   596 ;; This function uses a non-reentrant model
   597 ;;
   598                           
   599                           	psect	text2
   600  0015A6                     __ptext2:
   601                           	opt stack 0
   602  0015A6                     _SysInitialize:
   603                           	opt stack 26
   604                           
   605                           ;SystemInitialize.c: 7: ADCON1bits.PCFG = 0b1110;
   606                           
   607                           ;incstack = 0
   608  0015A6  50C1               	movf	4033,w,c	;volatile
   609  0015A8  0BF0               	andlw	-16
   610  0015AA  090E               	iorlw	14
   611  0015AC  6EC1               	movwf	4033,c	;volatile
   612                           
   613                           ;SystemInitialize.c: 8: TRISAbits.TRISA5 = 1;
   614  0015AE  8A92               	bsf	3986,5,c	;volatile
   615                           
   616                           ;SystemInitialize.c: 9: TRISBbits.TRISB0 = 1;
   617  0015B0  8093               	bsf	3987,0,c	;volatile
   618                           
   619                           ;SystemInitialize.c: 11: LATD = 0;
   620  0015B2  0E00               	movlw	0
   621  0015B4  6E8C               	movwf	3980,c	;volatile
   622                           
   623                           ;SystemInitialize.c: 12: TRISDbits.RD0 = 0;
   624  0015B6  9095               	bcf	3989,0,c	;volatile
   625                           
   626                           ;SystemInitialize.c: 13: PORTDbits.RD0 = 1;
   627  0015B8  8083               	bsf	3971,0,c	;volatile
   628                           
   629                           ;SystemInitialize.c: 15: TMR1Initialize();
   630  0015BA  ECFF  F00A         	call	_TMR1Initialize	;wreg free
   631                           
   632                           ;SystemInitialize.c: 16: CCP4Initialize();
   633  0015BE  ECE2  F00A         	call	_CCP4Initialize	;wreg free
   634  0015C2  0012               	return	
   635  0015C4                     __end_of_SysInitialize:
   636                           	opt stack 0
   637                           postinc0	equ	0xFEE
   638                           wreg	equ	0xFE8
   639                           status	equ	0xFD8
   640                           
   641 ;; *************** function _TMR1Initialize *****************
   642 ;; Defined at:
   643 ;;		line 8 in file "tmr1.c"
   644 ;; Parameters:    Size  Location     Type
   645 ;;		None
   646 ;; Auto vars:     Size  Location     Type
   647 ;;		None
   648 ;; Return value:  Size  Location     Type
   649 ;;                  1    wreg      void 
   650 ;; Registers used:
   651 ;;		wreg, status,2, cstack
   652 ;; Tracked objects:
   653 ;;		On entry : 0/0
   654 ;;		On exit  : 0/0
   655 ;;		Unchanged: 0/0
   656 ;; Data sizes:     COMRAM   BANK0   BANK1   BANK2   BANK3   BANK4   BANK5   BANK6   BANK7   BANK8   BANK9  BANK10  BANK1
      +1  BANK12  BANK13  BANK14  BANK15
   657 ;;      Params:         0       0       0       0       0       0       0       0       0       0       0       0       
      +0       0       0       0       0
   658 ;;      Locals:         0       0       0       0       0       0       0       0       0       0       0       0       
      +0       0       0       0       0
   659 ;;      Temps:          0       0       0       0       0       0       0       0       0       0       0       0       
      +0       0       0       0       0
   660 ;;      Totals:         0       0       0       0       0       0       0       0       0       0       0       0       
      +0       0       0       0       0
   661 ;;Total ram usage:        0 bytes
   662 ;; Hardware stack levels used:    1
   663 ;; Hardware stack levels required when called:    3
   664 ;; This function calls:
   665 ;;		_TMR1Start
   666 ;; This function is called by:
   667 ;;		_SysInitialize
   668 ;; This function uses a non-reentrant model
   669 ;;
   670                           
   671                           	psect	text3
   672  0015FE                     __ptext3:
   673                           	opt stack 0
   674  0015FE                     _TMR1Initialize:
   675                           	opt stack 26
   676                           
   677                           ;tmr1.c: 14: T1CONbits.TMR1ON = 0;
   678                           
   679                           ;incstack = 0
   680  0015FE  90CD               	bcf	4045,0,c	;volatile
   681                           
   682                           ;tmr1.c: 20: T1CONbits.TMR1CS = 0;
   683  001600  92CD               	bcf	4045,1,c	;volatile
   684                           
   685                           ;tmr1.c: 26: T1CONbits.T1OSCEN = 0;
   686  001602  96CD               	bcf	4045,3,c	;volatile
   687                           
   688                           ;tmr1.c: 34: T1CONbits.T1CKPS = 0b00;
   689  001604  0ECF               	movlw	-49
   690  001606  16CD               	andwf	4045,f,c	;volatile
   691                           
   692                           ;tmr1.c: 40: PIR1bits.TMR1IF = 0;
   693  001608  909E               	bcf	3998,0,c	;volatile
   694                           
   695                           ;tmr1.c: 46: PIE1bits.TMR1IE = 0;
   696  00160A  909D               	bcf	3997,0,c	;volatile
   697                           
   698                           ;tmr1.c: 49: TMR1H = 0x00;
   699  00160C  0E00               	movlw	0
   700  00160E  6ECF               	movwf	4047,c	;volatile
   701                           
   702                           ;tmr1.c: 50: TMR1L = 0x00;
   703  001610  0E00               	movlw	0
   704  001612  6ECE               	movwf	4046,c	;volatile
   705                           
   706                           ;tmr1.c: 52: TMR1Start();
   707  001614  EC43  F00B         	call	_TMR1Start	;wreg free
   708  001618  0012               	return		;funcret
   709  00161A                     __end_of_TMR1Initialize:
   710                           	opt stack 0
   711                           postinc0	equ	0xFEE
   712                           wreg	equ	0xFE8
   713                           status	equ	0xFD8
   714                           
   715 ;; *************** function _TMR1Start *****************
   716 ;; Defined at:
   717 ;;		line 59 in file "tmr1.c"
   718 ;; Parameters:    Size  Location     Type
   719 ;;		None
   720 ;; Auto vars:     Size  Location     Type
   721 ;;		None
   722 ;; Return value:  Size  Location     Type
   723 ;;                  1    wreg      void 
   724 ;; Registers used:
   725 ;;		None
   726 ;; Tracked objects:
   727 ;;		On entry : 0/0
   728 ;;		On exit  : 0/0
   729 ;;		Unchanged: 0/0
   730 ;; Data sizes:     COMRAM   BANK0   BANK1   BANK2   BANK3   BANK4   BANK5   BANK6   BANK7   BANK8   BANK9  BANK10  BANK1
      +1  BANK12  BANK13  BANK14  BANK15
   731 ;;      Params:         0       0       0       0       0       0       0       0       0       0       0       0       
      +0       0       0       0       0
   732 ;;      Locals:         0       0       0       0       0       0       0       0       0       0       0       0       
      +0       0       0       0       0
   733 ;;      Temps:          0       0       0       0       0       0       0       0       0       0       0       0       
      +0       0       0       0       0
   734 ;;      Totals:         0       0       0       0       0       0       0       0       0       0       0       0       
      +0       0       0       0       0
   735 ;;Total ram usage:        0 bytes
   736 ;; Hardware stack levels used:    1
   737 ;; Hardware stack levels required when called:    2
   738 ;; This function calls:
   739 ;;		Nothing
   740 ;; This function is called by:
   741 ;;		_TMR1Initialize
   742 ;; This function uses a non-reentrant model
   743 ;;
   744                           
   745                           	psect	text4
   746  001686                     __ptext4:
   747                           	opt stack 0
   748  001686                     _TMR1Start:
   749                           	opt stack 26
   750                           
   751                           ;tmr1.c: 61: T1CONbits.TMR1ON = 1;
   752                           
   753                           ;incstack = 0
   754  001686  80CD               	bsf	4045,0,c	;volatile
   755  001688  0012               	return		;funcret
   756  00168A                     __end_of_TMR1Start:
   757                           	opt stack 0
   758                           postinc0	equ	0xFEE
   759                           wreg	equ	0xFE8
   760                           status	equ	0xFD8
   761                           
   762 ;; *************** function _CCP4Initialize *****************
   763 ;; Defined at:
   764 ;;		line 5 in file "CCP4.c"
   765 ;; Parameters:    Size  Location     Type
   766 ;;		None
   767 ;; Auto vars:     Size  Location     Type
   768 ;;		None
   769 ;; Return value:  Size  Location     Type
   770 ;;                  1    wreg      void 
   771 ;; Registers used:
   772 ;;		wreg, status,2
   773 ;; Tracked objects:
   774 ;;		On entry : 0/0
   775 ;;		On exit  : 0/0
   776 ;;		Unchanged: 0/0
   777 ;; Data sizes:     COMRAM   BANK0   BANK1   BANK2   BANK3   BANK4   BANK5   BANK6   BANK7   BANK8   BANK9  BANK10  BANK1
      +1  BANK12  BANK13  BANK14  BANK15
   778 ;;      Params:         0       0       0       0       0       0       0       0       0       0       0       0       
      +0       0       0       0       0
   779 ;;      Locals:         0       0       0       0       0       0       0       0       0       0       0       0       
      +0       0       0       0       0
   780 ;;      Temps:          0       0       0       0       0       0       0       0       0       0       0       0       
      +0       0       0       0       0
   781 ;;      Totals:         0       0       0       0       0       0       0       0       0       0       0       0       
      +0       0       0       0       0
   782 ;;Total ram usage:        0 bytes
   783 ;; Hardware stack levels used:    1
   784 ;; Hardware stack levels required when called:    2
   785 ;; This function calls:
   786 ;;		Nothing
   787 ;; This function is called by:
   788 ;;		_SysInitialize
   789 ;; This function uses a non-reentrant model
   790 ;;
   791                           
   792                           	psect	text5
   793  0015C4                     __ptext5:
   794                           	opt stack 0
   795  0015C4                     _CCP4Initialize:
   796                           	opt stack 27
   797                           
   798                           ;CCP4.c: 13: T3CONbits.T3CCP1 = 0;
   799                           
   800                           ;incstack = 0
   801  0015C4  96B1               	bcf	4017,3,c	;volatile
   802                           
   803                           ;CCP4.c: 14: T3CONbits.T3CCP2 = 0;
   804  0015C6  9CB1               	bcf	4017,6,c	;volatile
   805                           
   806                           ;CCP4.c: 17: CCP4CONbits.CCP4M = 0b0000;
   807  0015C8  9073               	bcf	3955,0,c	;volatile
   808  0015CA  9273               	bcf	3955,1,c	;volatile
   809  0015CC  9473               	bcf	3955,2,c	;volatile
   810  0015CE  9673               	bcf	3955,3,c	;volatile
   811                           
   812                           ;CCP4.c: 34: CCP4CONbits.CCP4M = 0b0101;
   813  0015D0  5073               	movf	3955,w,c	;volatile
   814  0015D2  0BF0               	andlw	-16
   815  0015D4  0905               	iorlw	5
   816  0015D6  6E73               	movwf	3955,c	;volatile
   817                           
   818                           ;CCP4.c: 37: PIR3bits.CCP4IF = 0;
   819  0015D8  92A4               	bcf	4004,1,c	;volatile
   820                           
   821                           ;CCP4.c: 43: PIE3bits.CCP4IE = 1;
   822  0015DA  82A3               	bsf	4003,1,c	;volatile
   823                           
   824                           ;CCP4.c: 46: LATGbits.LATG3 = 0;
   825  0015DC  968F               	bcf	3983,3,c	;volatile
   826                           
   827                           ;CCP4.c: 47: TRISGbits.RG3 = 1;
   828  0015DE  8698               	bsf	3992,3,c	;volatile
   829  0015E0  0012               	return	
   830  0015E2                     __end_of_CCP4Initialize:
   831                           	opt stack 0
   832                           postinc0	equ	0xFEE
   833                           wreg	equ	0xFE8
   834                           status	equ	0xFD8
   835                           
   836 ;; *************** function _Intro *****************
   837 ;; Defined at:
   838 ;;		line 64 in file "main.c"
   839 ;; Parameters:    Size  Location     Type
   840 ;;		None
   841 ;; Auto vars:     Size  Location     Type
   842 ;;		None
   843 ;; Return value:  Size  Location     Type
   844 ;;                  1    wreg      void 
   845 ;; Registers used:
   846 ;;		wreg, fsr0l, fsr0h, status,2, status,0, tblptrl, tblptrh, tblptru, cstack
   847 ;; Tracked objects:
   848 ;;		On entry : 0/0
   849 ;;		On exit  : 0/0
   850 ;;		Unchanged: 0/0
   851 ;; Data sizes:     COMRAM   BANK0   BANK1   BANK2   BANK3   BANK4   BANK5   BANK6   BANK7   BANK8   BANK9  BANK10  BANK1
      +1  BANK12  BANK13  BANK14  BANK15
   852 ;;      Params:         0       0       0       0       0       0       0       0       0       0       0       0       
      +0       0       0       0       0
   853 ;;      Locals:         0       0       0       0       0       0       0       0       0       0       0       0       
      +0       0       0       0       0
   854 ;;      Temps:          0       0       0       0       0       0       0       0       0       0       0       0       
      +0       0       0       0       0
   855 ;;      Totals:         0       0       0       0       0       0       0       0       0       0       0       0       
      +0       0       0       0       0
   856 ;;Total ram usage:        0 bytes
   857 ;; Hardware stack levels used:    1
   858 ;; Hardware stack levels required when called:    6
   859 ;; This function calls:
   860 ;;		_IntroDelay
   861 ;;		_LCDInit
   862 ;;		_LCDPutInst
   863 ;;		_LCDPutStr
   864 ;; This function is called by:
   865 ;;		_main
   866 ;; This function uses a non-reentrant model
   867 ;;
   868                           
   869                           	psect	text6
   870  001550                     __ptext6:
   871                           	opt stack 0
   872  001550                     _Intro:
   873                           	opt stack 24
   874                           
   875                           ;main.c: 67: LCDInit();
   876                           
   877                           ;incstack = 0
   878  001550  ECC3  F009         	call	_LCDInit	;wreg free
   879                           
   880                           ;main.c: 69: LCDPutInst(0x80);
   881  001554  0E80               	movlw	128
   882  001556  EC90  F009         	call	_LCDPutInst
   883                           
   884                           ;main.c: 70: LCDPutStr("Modulo CCP");
   885  00155A  0E18               	movlw	low STR_1
   886  00155C  6E1A               	movwf	LCDPutStr@ptr,c
   887  00155E  0E10               	movlw	high STR_1
   888  001560  6E1B               	movwf	LCDPutStr@ptr+1,c
   889  001562  ECF3  F009         	call	_LCDPutStr	;wreg free
   890                           
   891                           ;main.c: 71: LCDPutInst(0xC0);
   892  001566  0EC0               	movlw	192
   893  001568  EC90  F009         	call	_LCDPutInst
   894                           
   895                           ;main.c: 72: LCDPutStr("Modo Captura");
   896  00156C  0E0B               	movlw	low STR_2
   897  00156E  6E1A               	movwf	LCDPutStr@ptr,c
   898  001570  0E10               	movlw	high STR_2
   899  001572  6E1B               	movwf	LCDPutStr@ptr+1,c
   900  001574  ECF3  F009         	call	_LCDPutStr	;wreg free
   901                           
   902                           ;main.c: 74: IntroDelay();
   903  001578  ECBF  F00A         	call	_IntroDelay	;wreg free
   904  00157C  0012               	return	
   905  00157E                     __end_of_Intro:
   906                           	opt stack 0
   907                           postinc0	equ	0xFEE
   908                           wreg	equ	0xFE8
   909                           status	equ	0xFD8
   910                           
   911 ;; *************** function _LCDInit *****************
   912 ;; Defined at:
   913 ;;		line 45 in file "BBSPI_LCD.c"
   914 ;; Parameters:    Size  Location     Type
   915 ;;		None
   916 ;; Auto vars:     Size  Location     Type
   917 ;;		None
   918 ;; Return value:  Size  Location     Type
   919 ;;                  1    wreg      void 
   920 ;; Registers used:
   921 ;;		wreg, status,2, status,0, cstack
   922 ;; Tracked objects:
   923 ;;		On entry : 0/0
   924 ;;		On exit  : 0/0
   925 ;;		Unchanged: 0/0
   926 ;; Data sizes:     COMRAM   BANK0   BANK1   BANK2   BANK3   BANK4   BANK5   BANK6   BANK7   BANK8   BANK9  BANK10  BANK1
      +1  BANK12  BANK13  BANK14  BANK15
   927 ;;      Params:         0       0       0       0       0       0       0       0       0       0       0       0       
      +0       0       0       0       0
   928 ;;      Locals:         0       0       0       0       0       0       0       0       0       0       0       0       
      +0       0       0       0       0
   929 ;;      Temps:          1       0       0       0       0       0       0       0       0       0       0       0       
      +0       0       0       0       0
   930 ;;      Totals:         1       0       0       0       0       0       0       0       0       0       0       0       
      +0       0       0       0       0
   931 ;;Total ram usage:        1 bytes
   932 ;; Hardware stack levels used:    1
   933 ;; Hardware stack levels required when called:    5
   934 ;; This function calls:
   935 ;;		_InitBBSPI
   936 ;;		_LCDPutInst
   937 ;;		_Port_BBSPIInit
   938 ;;		_WritePort_BBSPI
   939 ;; This function is called by:
   940 ;;		_Intro
   941 ;; This function uses a non-reentrant model
   942 ;;
   943                           
   944                           	psect	text7
   945  001386                     __ptext7:
   946                           	opt stack 0
   947  001386                     _LCDInit:
   948                           	opt stack 24
   949                           
   950                           ;BBSPI_LCD.c: 47: InitBBSPI();
   951                           
   952                           ;incstack = 0
   953  001386  EC32  F00B         	call	_InitBBSPI	;wreg free
   954                           
   955                           ;BBSPI_LCD.c: 48: TRISFbits.TRISF6 = 0;
   956  00138A  9C97               	bcf	3991,6,c	;volatile
   957                           
   958                           ;BBSPI_LCD.c: 49: LATFbits.LATF6 = 0;
   959  00138C  9C8E               	bcf	3982,6,c	;volatile
   960                           
   961                           ;BBSPI_LCD.c: 50: _delay((unsigned long)((5)*(40000000/4000.0)));
   962  00138E  0E41               	movlw	65
   963  001390  6E1A               	movwf	??_LCDInit& (0+255),c
   964  001392  0EEE               	movlw	238
   965  001394                     u547:
   966  001394  2EE8               	decfsz	wreg,f,c
   967  001396  D7FE               	bra	u547
   968  001398  2E1A               	decfsz	??_LCDInit& (0+255),f,c
   969  00139A  D7FC               	bra	u547
   970  00139C  D000               	nop2	
   971                           
   972                           ;BBSPI_LCD.c: 51: LATFbits.LATF6 = 1;
   973  00139E  8C8E               	bsf	3982,6,c	;volatile
   974                           
   975                           ;BBSPI_LCD.c: 52: Port_BBSPIInit (0x00);
   976  0013A0  0E00               	movlw	0
   977  0013A2  EC0D  F00B         	call	_Port_BBSPIInit
   978                           
   979                           ;BBSPI_LCD.c: 53: Port_BBSPIInit (0x01);
   980  0013A6  0E01               	movlw	1
   981  0013A8  EC0D  F00B         	call	_Port_BBSPIInit
   982                           
   983                           ;BBSPI_LCD.c: 54: WritePort_BBSPI (0x12, 0);
   984  0013AC  0E00               	movlw	0
   985  0013AE  6E16               	movwf	WritePort_BBSPI@a,c
   986  0013B0  0E12               	movlw	18
   987  0013B2  EC1A  F00B         	call	_WritePort_BBSPI
   988                           
   989                           ;BBSPI_LCD.c: 55: _delay((unsigned long)((15)*(40000000/4000.0)));
   990  0013B6  0EC3               	movlw	195
   991  0013B8  6E1A               	movwf	??_LCDInit& (0+255),c
   992  0013BA  0ECD               	movlw	205
   993  0013BC                     u557:
   994  0013BC  2EE8               	decfsz	wreg,f,c
   995  0013BE  D7FE               	bra	u557
   996  0013C0  2E1A               	decfsz	??_LCDInit& (0+255),f,c
   997  0013C2  D7FC               	bra	u557
   998  0013C4  F000               	nop	
   999                           
  1000                           ;BBSPI_LCD.c: 56: LCDPutInst(0x32);
  1001  0013C6  0E32               	movlw	50
  1002  0013C8  EC90  F009         	call	_LCDPutInst
  1003                           
  1004                           ;BBSPI_LCD.c: 57: LCDPutInst(0x3C);
  1005  0013CC  0E3C               	movlw	60
  1006  0013CE  EC90  F009         	call	_LCDPutInst
  1007                           
  1008                           ;BBSPI_LCD.c: 58: LCDPutInst(0x0C);
  1009  0013D2  0E0C               	movlw	12
  1010  0013D4  EC90  F009         	call	_LCDPutInst
  1011                           
  1012                           ;BBSPI_LCD.c: 59: LCDPutInst(0x01);
  1013  0013D8  0E01               	movlw	1
  1014  0013DA  EC90  F009         	call	_LCDPutInst
  1015                           
  1016                           ;BBSPI_LCD.c: 60: LCDPutInst(0x06);
  1017  0013DE  0E06               	movlw	6
  1018  0013E0  EC90  F009         	call	_LCDPutInst
  1019  0013E4  0012               	return		;funcret
  1020  0013E6                     __end_of_LCDInit:
  1021                           	opt stack 0
  1022                           postinc0	equ	0xFEE
  1023                           wreg	equ	0xFE8
  1024                           status	equ	0xFD8
  1025                           
  1026 ;; *************** function _Port_BBSPIInit *****************
  1027 ;; Defined at:
  1028 ;;		line 123 in file "BBSPI_LCD.c"
  1029 ;; Parameters:    Size  Location     Type
  1030 ;;  port_dir        1    wreg     unsigned char 
  1031 ;; Auto vars:     Size  Location     Type
  1032 ;;  port_dir        1   21[COMRAM] unsigned char 
  1033 ;; Return value:  Size  Location     Type
  1034 ;;                  1    wreg      void 
  1035 ;; Registers used:
  1036 ;;		wreg, status,2, status,0, cstack
  1037 ;; Tracked objects:
  1038 ;;		On entry : 0/0
  1039 ;;		On exit  : 0/0
  1040 ;;		Unchanged: 0/0
  1041 ;; Data sizes:     COMRAM   BANK0   BANK1   BANK2   BANK3   BANK4   BANK5   BANK6   BANK7   BANK8   BANK9  BANK10  BANK1
      +1  BANK12  BANK13  BANK14  BANK15
  1042 ;;      Params:         0       0       0       0       0       0       0       0       0       0       0       0       
      +0       0       0       0       0
  1043 ;;      Locals:         1       0       0       0       0       0       0       0       0       0       0       0       
      +0       0       0       0       0
  1044 ;;      Temps:          0       0       0       0       0       0       0       0       0       0       0       0       
      +0       0       0       0       0
  1045 ;;      Totals:         1       0       0       0       0       0       0       0       0       0       0       0       
      +0       0       0       0       0
  1046 ;;Total ram usage:        1 bytes
  1047 ;; Hardware stack levels used:    1
  1048 ;; Hardware stack levels required when called:    3
  1049 ;; This function calls:
  1050 ;;		_SendByteBBSPI
  1051 ;; This function is called by:
  1052 ;;		_LCDInit
  1053 ;; This function uses a non-reentrant model
  1054 ;;
  1055                           
  1056                           	psect	text8
  1057  00161A                     __ptext8:
  1058                           	opt stack 0
  1059  00161A                     _Port_BBSPIInit:
  1060                           	opt stack 25
  1061                           
  1062                           ;incstack = 0
  1063                           ;Port_BBSPIInit@port_dir stored from wreg
  1064  00161A  6E16               	movwf	Port_BBSPIInit@port_dir,c
  1065                           
  1066                           ;BBSPI_LCD.c: 128: LATAbits.LATA2 = 0;
  1067  00161C  9489               	bcf	3977,2,c	;volatile
  1068                           
  1069                           ;BBSPI_LCD.c: 129: SendByteBBSPI(0x40);
  1070  00161E  0E40               	movlw	64
  1071  001620  EC47  F00A         	call	_SendByteBBSPI
  1072                           
  1073                           ;BBSPI_LCD.c: 130: SendByteBBSPI(port_dir);
  1074  001624  5016               	movf	Port_BBSPIInit@port_dir,w,c
  1075  001626  EC47  F00A         	call	_SendByteBBSPI
  1076                           
  1077                           ;BBSPI_LCD.c: 131: SendByteBBSPI(0x00);
  1078  00162A  0E00               	movlw	0
  1079  00162C  EC47  F00A         	call	_SendByteBBSPI
  1080                           
  1081                           ;BBSPI_LCD.c: 132: LATAbits.LATA2 = 1;
  1082  001630  8489               	bsf	3977,2,c	;volatile
  1083  001632  0012               	return		;funcret
  1084  001634                     __end_of_Port_BBSPIInit:
  1085                           	opt stack 0
  1086                           postinc0	equ	0xFEE
  1087                           wreg	equ	0xFE8
  1088                           status	equ	0xFD8
  1089                           
  1090 ;; *************** function _InitBBSPI *****************
  1091 ;; Defined at:
  1092 ;;		line 70 in file "BBSPI_LCD.c"
  1093 ;; Parameters:    Size  Location     Type
  1094 ;;		None
  1095 ;; Auto vars:     Size  Location     Type
  1096 ;;		None
  1097 ;; Return value:  Size  Location     Type
  1098 ;;                  1    wreg      void 
  1099 ;; Registers used:
  1100 ;;		None
  1101 ;; Tracked objects:
  1102 ;;		On entry : 0/0
  1103 ;;		On exit  : 0/0
  1104 ;;		Unchanged: 0/0
  1105 ;; Data sizes:     COMRAM   BANK0   BANK1   BANK2   BANK3   BANK4   BANK5   BANK6   BANK7   BANK8   BANK9  BANK10  BANK1
      +1  BANK12  BANK13  BANK14  BANK15
  1106 ;;      Params:         0       0       0       0       0       0       0       0       0       0       0       0       
      +0       0       0       0       0
  1107 ;;      Locals:         0       0       0       0       0       0       0       0       0       0       0       0       
      +0       0       0       0       0
  1108 ;;      Temps:          0       0       0       0       0       0       0       0       0       0       0       0       
      +0       0       0       0       0
  1109 ;;      Totals:         0       0       0       0       0       0       0       0       0       0       0       0       
      +0       0       0       0       0
  1110 ;;Total ram usage:        0 bytes
  1111 ;; Hardware stack levels used:    1
  1112 ;; Hardware stack levels required when called:    2
  1113 ;; This function calls:
  1114 ;;		Nothing
  1115 ;; This function is called by:
  1116 ;;		_LCDInit
  1117 ;; This function uses a non-reentrant model
  1118 ;;
  1119                           
  1120                           	psect	text9
  1121  001664                     __ptext9:
  1122                           	opt stack 0
  1123  001664                     _InitBBSPI:
  1124                           	opt stack 26
  1125                           
  1126                           ;BBSPI_LCD.c: 72: TRISAbits.TRISA2 = 0;
  1127                           
  1128                           ;incstack = 0
  1129  001664  9492               	bcf	3986,2,c	;volatile
  1130                           
  1131                           ;BBSPI_LCD.c: 73: TRISCbits.TRISC4 = 1;
  1132  001666  8894               	bsf	3988,4,c	;volatile
  1133                           
  1134                           ;BBSPI_LCD.c: 74: TRISCbits.TRISC5 = 0;
  1135  001668  9A94               	bcf	3988,5,c	;volatile
  1136                           
  1137                           ;BBSPI_LCD.c: 75: TRISCbits.TRISC3 = 0;
  1138  00166A  9694               	bcf	3988,3,c	;volatile
  1139                           
  1140                           ;BBSPI_LCD.c: 77: LATAbits.LATA2 = 1;
  1141  00166C  8489               	bsf	3977,2,c	;volatile
  1142                           
  1143                           ;BBSPI_LCD.c: 78: LATCbits.LATC4 = 1;
  1144  00166E  888B               	bsf	3979,4,c	;volatile
  1145                           
  1146                           ;BBSPI_LCD.c: 79: LATCbits.LATC5 = 0;
  1147  001670  9A8B               	bcf	3979,5,c	;volatile
  1148                           
  1149                           ;BBSPI_LCD.c: 80: LATCbits.LATC3 = 0;
  1150  001672  968B               	bcf	3979,3,c	;volatile
  1151  001674  0012               	return		;funcret
  1152  001676                     __end_of_InitBBSPI:
  1153                           	opt stack 0
  1154                           postinc0	equ	0xFEE
  1155                           wreg	equ	0xFE8
  1156                           status	equ	0xFD8
  1157                           
  1158 ;; *************** function _IntroDelay *****************
  1159 ;; Defined at:
  1160 ;;		line 89 in file "main.c"
  1161 ;; Parameters:    Size  Location     Type
  1162 ;;		None
  1163 ;; Auto vars:     Size  Location     Type
  1164 ;;  i               1   20[COMRAM] unsigned char 
  1165 ;; Return value:  Size  Location     Type
  1166 ;;                  1    wreg      void 
  1167 ;; Registers used:
  1168 ;;		wreg, status,2, status,0
  1169 ;; Tracked objects:
  1170 ;;		On entry : 0/0
  1171 ;;		On exit  : 0/0
  1172 ;;		Unchanged: 0/0
  1173 ;; Data sizes:     COMRAM   BANK0   BANK1   BANK2   BANK3   BANK4   BANK5   BANK6   BANK7   BANK8   BANK9  BANK10  BANK1
      +1  BANK12  BANK13  BANK14  BANK15
  1174 ;;      Params:         0       0       0       0       0       0       0       0       0       0       0       0       
      +0       0       0       0       0
  1175 ;;      Locals:         1       0       0       0       0       0       0       0       0       0       0       0       
      +0       0       0       0       0
  1176 ;;      Temps:          2       0       0       0       0       0       0       0       0       0       0       0       
      +0       0       0       0       0
  1177 ;;      Totals:         3       0       0       0       0       0       0       0       0       0       0       0       
      +0       0       0       0       0
  1178 ;;Total ram usage:        3 bytes
  1179 ;; Hardware stack levels used:    1
  1180 ;; Hardware stack levels required when called:    2
  1181 ;; This function calls:
  1182 ;;		Nothing
  1183 ;; This function is called by:
  1184 ;;		_Intro
  1185 ;; This function uses a non-reentrant model
  1186 ;;
  1187                           
  1188                           	psect	text10
  1189  00157E                     __ptext10:
  1190                           	opt stack 0
  1191  00157E                     _IntroDelay:
  1192                           	opt stack 27
  1193                           
  1194                           ;main.c: 91: unsigned char i;
  1195                           ;main.c: 92: for (i=0;i<100;i++)
  1196                           
  1197                           ;incstack = 0
  1198  00157E  0E00               	movlw	0
  1199  001580  6E15               	movwf	IntroDelay@i,c
  1200  001582                     l1054:
  1201  001582  0E63               	movlw	99
  1202  001584  6415               	cpfsgt	IntroDelay@i,c
  1203  001586  D001               	goto	l62
  1204  001588  0012               	return	
  1205  00158A                     l62:
  1206                           
  1207                           ;main.c: 93: {_delay((unsigned long)((20)*(40000000/4000.0)));}
  1208  00158A  0E02               	movlw	2
  1209  00158C  6E14               	movwf	(??_IntroDelay+1)& (0+255),c
  1210  00158E  0E04               	movlw	4
  1211  001590  6E13               	movwf	??_IntroDelay& (0+255),c
  1212  001592  0EBA               	movlw	186
  1213  001594                     u567:
  1214  001594  2EE8               	decfsz	wreg,f,c
  1215  001596  D7FE               	bra	u567
  1216  001598  2E13               	decfsz	??_IntroDelay& (0+255),f,c
  1217  00159A  D7FC               	bra	u567
  1218  00159C  2E14               	decfsz	(??_IntroDelay+1)& (0+255),f,c
  1219  00159E  D7FA               	bra	u567
  1220  0015A0  D000               	nop2	
  1221  0015A2  2A15               	incf	IntroDelay@i,f,c
  1222  0015A4  D7EE               	goto	l1054
  1223  0015A6                     __end_of_IntroDelay:
  1224                           	opt stack 0
  1225                           postinc0	equ	0xFEE
  1226                           wreg	equ	0xFE8
  1227                           status	equ	0xFD8
  1228                           
  1229 ;; *************** function _InterruptInitialize *****************
  1230 ;; Defined at:
  1231 ;;		line 4 in file "InterruptManager.c"
  1232 ;; Parameters:    Size  Location     Type
  1233 ;;		None
  1234 ;; Auto vars:     Size  Location     Type
  1235 ;;		None
  1236 ;; Return value:  Size  Location     Type
  1237 ;;                  1    wreg      void 
  1238 ;; Registers used:
  1239 ;;		None
  1240 ;; Tracked objects:
  1241 ;;		On entry : 0/0
  1242 ;;		On exit  : 0/0
  1243 ;;		Unchanged: 0/0
  1244 ;; Data sizes:     COMRAM   BANK0   BANK1   BANK2   BANK3   BANK4   BANK5   BANK6   BANK7   BANK8   BANK9  BANK10  BANK1
      +1  BANK12  BANK13  BANK14  BANK15
  1245 ;;      Params:         0       0       0       0       0       0       0       0       0       0       0       0       
      +0       0       0       0       0
  1246 ;;      Locals:         0       0       0       0       0       0       0       0       0       0       0       0       
      +0       0       0       0       0
  1247 ;;      Temps:          0       0       0       0       0       0       0       0       0       0       0       0       
      +0       0       0       0       0
  1248 ;;      Totals:         0       0       0       0       0       0       0       0       0       0       0       0       
      +0       0       0       0       0
  1249 ;;Total ram usage:        0 bytes
  1250 ;; Hardware stack levels used:    1
  1251 ;; Hardware stack levels required when called:    2
  1252 ;; This function calls:
  1253 ;;		Nothing
  1254 ;; This function is called by:
  1255 ;;		_main
  1256 ;; This function uses a non-reentrant model
  1257 ;;
  1258                           
  1259                           	psect	text11
  1260  001676                     __ptext11:
  1261                           	opt stack 0
  1262  001676                     _InterruptInitialize:
  1263                           	opt stack 28
  1264                           
  1265                           ;InterruptManager.c: 10: RCONbits.IPEN = 0;
  1266                           
  1267                           ;incstack = 0
  1268  001676  9ED0               	bcf	4048,7,c	;volatile
  1269                           
  1270                           ;InterruptManager.c: 12: (INTCONbits.GIE = 1);
  1271  001678  8EF2               	bsf	intcon,7,c	;volatile
  1272                           
  1273                           ;InterruptManager.c: 13: (INTCONbits.PEIE = 1);
  1274  00167A  8CF2               	bsf	intcon,6,c	;volatile
  1275  00167C  0012               	return		;funcret
  1276  00167E                     __end_of_InterruptInitialize:
  1277                           	opt stack 0
  1278                           intcon	equ	0xFF2
  1279                           postinc0	equ	0xFEE
  1280                           wreg	equ	0xFE8
  1281                           status	equ	0xFD8
  1282                           
  1283 ;; *************** function _Imprimir *****************
  1284 ;; Defined at:
  1285 ;;		line 79 in file "main.c"
  1286 ;; Parameters:    Size  Location     Type
  1287 ;;		None
  1288 ;; Auto vars:     Size  Location     Type
  1289 ;;		None
  1290 ;; Return value:  Size  Location     Type
  1291 ;;                  1    wreg      void 
  1292 ;; Registers used:
  1293 ;;		wreg, fsr0l, fsr0h, fsr2l, fsr2h, status,2, status,0, tblptrl, tblptrh, tblptru, prodl, prodh, cstack
  1294 ;; Tracked objects:
  1295 ;;		On entry : 0/0
  1296 ;;		On exit  : 0/0
  1297 ;;		Unchanged: 0/0
  1298 ;; Data sizes:     COMRAM   BANK0   BANK1   BANK2   BANK3   BANK4   BANK5   BANK6   BANK7   BANK8   BANK9  BANK10  BANK1
      +1  BANK12  BANK13  BANK14  BANK15
  1299 ;;      Params:         0       0       0       0       0       0       0       0       0       0       0       0       
      +0       0       0       0       0
  1300 ;;      Locals:         0       0       0       0       0       0       0       0       0       0       0       0       
      +0       0       0       0       0
  1301 ;;      Temps:          0       0       0       0       0       0       0       0       0       0       0       0       
      +0       0       0       0       0
  1302 ;;      Totals:         0       0       0       0       0       0       0       0       0       0       0       0       
      +0       0       0       0       0
  1303 ;;Total ram usage:        0 bytes
  1304 ;; Hardware stack levels used:    1
  1305 ;; Hardware stack levels required when called:    6
  1306 ;; This function calls:
  1307 ;;		_LCDPutInst
  1308 ;;		_LCDPutStr
  1309 ;;		_sprintf
  1310 ;; This function is called by:
  1311 ;;		_main
  1312 ;; This function uses a non-reentrant model
  1313 ;;
  1314                           
  1315                           	psect	text12
  1316  001520                     __ptext12:
  1317                           	opt stack 0
  1318  001520                     _Imprimir:
  1319                           	opt stack 24
  1320                           
  1321                           ;main.c: 81: LCDPutInst(0x80);
  1322                           
  1323                           ;incstack = 0
  1324  001520  0E80               	movlw	128
  1325  001522  EC90  F009         	call	_LCDPutInst
  1326                           
  1327                           ;main.c: 82: sprintf(TextoLCD, "CCP4 = %d", t);
  1328  001526  0E38               	movlw	low _TextoLCD
  1329  001528  6E1F               	movwf	sprintf@sp,c
  1330  00152A  0E00               	movlw	high _TextoLCD
  1331  00152C  6E20               	movwf	sprintf@sp+1,c
  1332  00152E  0E23               	movlw	low STR_3
  1333  001530  6E21               	movwf	sprintf@f,c
  1334  001532  0E10               	movlw	high STR_3
  1335  001534  6E22               	movwf	sprintf@f+1,c
  1336  001536  C02F  F023         	movff	_t,?_sprintf+4
  1337  00153A  C030  F024         	movff	_t+1,?_sprintf+5
  1338  00153E  EC17  F008         	call	_sprintf	;wreg free
  1339                           
  1340                           ;main.c: 83: LCDPutStr(TextoLCD);
  1341  001542  0E38               	movlw	low _TextoLCD
  1342  001544  6E1A               	movwf	LCDPutStr@ptr,c
  1343  001546  0E00               	movlw	high _TextoLCD
  1344  001548  6E1B               	movwf	LCDPutStr@ptr+1,c
  1345  00154A  ECF3  F009         	call	_LCDPutStr	;wreg free
  1346  00154E  0012               	return	
  1347  001550                     __end_of_Imprimir:
  1348                           	opt stack 0
  1349                           intcon	equ	0xFF2
  1350                           postinc0	equ	0xFEE
  1351                           wreg	equ	0xFE8
  1352                           status	equ	0xFD8
  1353                           
  1354 ;; *************** function _sprintf *****************
  1355 ;; Defined at:
  1356 ;;		line 492 in file "C:\Program Files (x86)\Microchip\xc8\v1.43\sources\common\doprnt.c"
  1357 ;; Parameters:    Size  Location     Type
  1358 ;;  sp              2   30[COMRAM] PTR unsigned char 
  1359 ;;		 -> TextoLCD(16), 
  1360 ;;  f               2   32[COMRAM] PTR const unsigned char 
  1361 ;;		 -> STR_3(10), 
  1362 ;; Auto vars:     Size  Location     Type
  1363 ;;  tmpval          4    0        struct .
  1364 ;;  cp              3    0        PTR const unsigned char 
  1365 ;;  val             2   41[COMRAM] unsigned int 
  1366 ;;  ap              2   37[COMRAM] PTR void [1]
  1367 ;;		 -> ?_sprintf(2), 
  1368 ;;  len             2    0        unsigned int 
  1369 ;;  c               1   43[COMRAM] char 
  1370 ;;  prec            1   40[COMRAM] char 
  1371 ;;  flag            1   39[COMRAM] unsigned char 
  1372 ;; Return value:  Size  Location     Type
  1373 ;;                  2   30[COMRAM] int 
  1374 ;; Registers used:
  1375 ;;		wreg, fsr2l, fsr2h, status,2, status,0, tblptrl, tblptrh, tblptru, prodl, prodh, cstack
  1376 ;; Tracked objects:
  1377 ;;		On entry : 0/0
  1378 ;;		On exit  : 0/0
  1379 ;;		Unchanged: 0/0
  1380 ;; Data sizes:     COMRAM   BANK0   BANK1   BANK2   BANK3   BANK4   BANK5   BANK6   BANK7   BANK8   BANK9  BANK10  BANK1
      +1  BANK12  BANK13  BANK14  BANK15
  1381 ;;      Params:         6       0       0       0       0       0       0       0       0       0       0       0       
      +0       0       0       0       0
  1382 ;;      Locals:         7       0       0       0       0       0       0       0       0       0       0       0       
      +0       0       0       0       0
  1383 ;;      Temps:          1       0       0       0       0       0       0       0       0       0       0       0       
      +0       0       0       0       0
  1384 ;;      Totals:        14       0       0       0       0       0       0       0       0       0       0       0       
      +0       0       0       0       0
  1385 ;;Total ram usage:       14 bytes
  1386 ;; Hardware stack levels used:    1
  1387 ;; Hardware stack levels required when called:    3
  1388 ;; This function calls:
  1389 ;;		___lwdiv
  1390 ;;		___lwmod
  1391 ;; This function is called by:
  1392 ;;		_Imprimir
  1393 ;; This function uses a non-reentrant model
  1394 ;;
  1395                           
  1396                           	psect	text13
  1397  00102E                     __ptext13:
  1398                           	opt stack 0
  1399  00102E                     _sprintf:
  1400                           	opt stack 26
  1401                           
  1402                           ;doprnt.c: 494: va_list ap;
  1403                           ;doprnt.c: 499: signed char c;
  1404                           ;doprnt.c: 506: signed char prec;
  1405                           ;doprnt.c: 508: unsigned char flag;
  1406                           ;doprnt.c: 523: union {
  1407                           ;doprnt.c: 524: unsigned long vd;
  1408                           ;doprnt.c: 525: double integ;
  1409                           ;doprnt.c: 526: } tmpval;
  1410                           ;doprnt.c: 528: unsigned int val;
  1411                           ;doprnt.c: 529: unsigned len;
  1412                           ;doprnt.c: 530: const char * cp;
  1413                           ;doprnt.c: 533: *ap = __va_start();
  1414                           
  1415                           ;incstack = 0
  1416  00102E  0E23               	movlw	low (?_sprintf+4)
  1417  001030  6E26               	movwf	sprintf@ap,c
  1418  001032  0E00               	movlw	high (?_sprintf+4)
  1419  001034  6E27               	movwf	sprintf@ap+1,c
  1420                           
  1421                           ;doprnt.c: 536: while(c = *f++) {
  1422  001036  D094               	goto	u470
  1423  001038                     
  1424                           ;doprnt.c: 538: if(c != '%')
  1425  001038  0E25               	movlw	37
  1426  00103A  182C               	xorwf	sprintf@c,w,c
  1427  00103C  B4D8               	btfsc	status,2,c
  1428  00103E  D009               	goto	l245
  1429                           
  1430                           ;doprnt.c: 540: {
  1431                           ;doprnt.c: 541: ((*sp++ = (c)));
  1432  001040  C01F  FFD9         	movff	sprintf@sp,fsr2l
  1433  001044  C020  FFDA         	movff	sprintf@sp+1,fsr2h
  1434  001048  C02C  FFDF         	movff	sprintf@c,indf2
  1435  00104C  4A1F               	infsnz	sprintf@sp,f,c
  1436  00104E  2A20               	incf	sprintf@sp+1,f,c
  1437                           
  1438                           ;doprnt.c: 542: continue;
  1439  001050  D087               	goto	u470
  1440  001052                     l245:
  1441                           
  1442                           ;doprnt.c: 543: }
  1443                           ;doprnt.c: 548: flag = 0;
  1444  001052  0E00               	movlw	0
  1445  001054  6E28               	movwf	sprintf@flag,c
  1446                           
  1447                           ;doprnt.c: 822: }
  1448                           
  1449                           ;doprnt.c: 813: continue;
  1450                           
  1451                           ;doprnt.c: 802: default:
  1452                           
  1453                           ;doprnt.c: 698: case 'i':
  1454                           ;doprnt.c: 699: break;
  1455                           
  1456                           ;doprnt.c: 697: case 'd':
  1457                           
  1458                           ;doprnt.c: 638: goto alldone;
  1459                           
  1460                           ;doprnt.c: 637: case 0:
  1461                           
  1462                           ;doprnt.c: 635: switch(c = *f++) {
  1463  001056  C021  FFF6         	movff	sprintf@f,tblptrl
  1464  00105A  C022  FFF7         	movff	sprintf@f+1,tblptrh
  1465  00105E  4A21               	infsnz	sprintf@f,f,c
  1466  001060  2A22               	incf	sprintf@f+1,f,c
  1467  001062                     	if	0	;tblptru may be non-zero
  1468  001062                     	endif
  1469  001062                     	if	1	;Program memory is > 0xFFFF, there are 3 active tblptr bytes
  1470  001062  0E00               	movlw	low (__mediumconst shr (0+16))
  1471  001064  6EF8               	movwf	tblptru,c
  1472  001066                     	endif
  1473  001066  0008               	tblrd		*
  1474  001068  CFF5 F02C          	movff	tablat,sprintf@c
  1475  00106C  502C               	movf	sprintf@c,w,c
  1476                           
  1477                           ; Switch size 1, requested type "space"
  1478                           ; Number of cases is 3, Range of values is 0 to 105
  1479                           ; switch strategies available:
  1480                           ; Name         Instructions Cycles
  1481                           ; simple_byte           10     6 (average)
  1482                           ;	Chosen strategy is simple_byte
  1483  00106E  0A00               	xorlw	0	; case 0
  1484  001070  B4D8               	btfsc	status,2,c
  1485  001072  D084               	goto	u480
  1486  001074  0A64               	xorlw	100	; case 100
  1487  001076  B4D8               	btfsc	status,2,c
  1488  001078  D003               	goto	l251
  1489  00107A  0A0D               	xorlw	13	; case 105
  1490  00107C  A4D8               	btfss	status,2,c
  1491  00107E  D070               	goto	u470
  1492  001080                     l251:
  1493                           
  1494                           ;doprnt.c: 1253: {
  1495                           ;doprnt.c: 1259: val = (int)(*(int *)__va_arg((*(int **)ap), (int)0));
  1496  001080  C026  FFD9         	movff	sprintf@ap,fsr2l
  1497  001084  C027  FFDA         	movff	sprintf@ap+1,fsr2h
  1498  001088  CFDE F02A          	movff	postinc2,sprintf@val
  1499  00108C  CFDD F02B          	movff	postdec2,sprintf@val+1
  1500  001090  0E02               	movlw	2
  1501  001092  2626               	addwf	sprintf@ap,f,c
  1502  001094  0E00               	movlw	0
  1503  001096  2227               	addwfc	sprintf@ap+1,f,c
  1504                           
  1505                           ;doprnt.c: 1261: if((int)val < 0) {
  1506  001098  AE2B               	btfss	sprintf@val+1,7,c
  1507  00109A  D006               	goto	l253
  1508                           
  1509                           ;doprnt.c: 1262: flag |= 0x03;
  1510  00109C  0E03               	movlw	3
  1511  00109E  1228               	iorwf	sprintf@flag,f,c
  1512                           
  1513                           ;doprnt.c: 1263: val = -val;
  1514  0010A0  6C2A               	negf	sprintf@val,c
  1515  0010A2  1E2B               	comf	sprintf@val+1,f,c
  1516  0010A4  B0D8               	btfsc	status,0,c
  1517  0010A6  2A2B               	incf	sprintf@val+1,f,c
  1518  0010A8                     l253:
  1519                           
  1520                           ;doprnt.c: 1264: }
  1521                           ;doprnt.c: 1266: }
  1522                           ;doprnt.c: 1305: for(c = 1 ; c != sizeof dpowers/sizeof dpowers[0] ; c++)
  1523  0010A8  0E01               	movlw	1
  1524  0010AA  6E2C               	movwf	sprintf@c,c
  1525  0010AC                     l1398:
  1526  0010AC  0E05               	movlw	5
  1527  0010AE  182C               	xorwf	sprintf@c,w,c
  1528  0010B0  B4D8               	btfsc	status,2,c
  1529  0010B2  D015               	goto	u450
  1530                           
  1531                           ;doprnt.c: 1306: if(val < dpowers[c])
  1532  0010B4  502C               	movf	sprintf@c,w,c
  1533  0010B6  0D02               	mullw	2
  1534  0010B8  0E01               	movlw	low _dpowers
  1535  0010BA  24F3               	addwf	prodl,w,c
  1536  0010BC  6EF6               	movwf	tblptrl,c
  1537  0010BE  0E10               	movlw	high _dpowers
  1538  0010C0  20F4               	addwfc	prodh,w,c
  1539  0010C2  6EF7               	movwf	tblptrh,c
  1540  0010C4                     	if	1	;There are 3 active tblptr bytes
  1541  0010C4  6AF8               	clrf	tblptru,c
  1542  0010C6  0E00               	movlw	low (__mediumconst shr (0+16))
  1543  0010C8  22F8               	addwfc	tblptru,f,c
  1544  0010CA                     	endif
  1545  0010CA  0009               	tblrd		*+
  1546  0010CC  50F5               	movf	tablat,w,c
  1547  0010CE  5C2A               	subwf	sprintf@val,w,c
  1548  0010D0  0009               	tblrd		*+
  1549  0010D2  50F5               	movf	tablat,w,c
  1550  0010D4  582B               	subwfb	sprintf@val+1,w,c
  1551  0010D6  A0D8               	btfss	status,0,c
  1552  0010D8  D002               	goto	u450
  1553                           
  1554                           ;doprnt.c: 1307: break;
  1555  0010DA  2A2C               	incf	sprintf@c,f,c
  1556  0010DC  D7E7               	goto	l1398
  1557  0010DE                     u450:
  1558                           
  1559                           ;doprnt.c: 1422: {
  1560                           ;doprnt.c: 1438: if(flag & 0x03)
  1561  0010DE  C028  F025         	movff	sprintf@flag,??_sprintf
  1562  0010E2  0E03               	movlw	3
  1563  0010E4  1625               	andwf	??_sprintf,f,c
  1564  0010E6  B4D8               	btfsc	status,2,c
  1565  0010E8  D008               	goto	l257
  1566                           
  1567                           ;doprnt.c: 1439: ((*sp++ = ('-')));
  1568  0010EA  C01F  FFD9         	movff	sprintf@sp,fsr2l
  1569  0010EE  C020  FFDA         	movff	sprintf@sp+1,fsr2h
  1570  0010F2  0E2D               	movlw	45
  1571  0010F4  6EDF               	movwf	indf2,c
  1572  0010F6  4A1F               	infsnz	sprintf@sp,f,c
  1573  0010F8  2A20               	incf	sprintf@sp+1,f,c
  1574  0010FA                     l257:
  1575                           
  1576                           ;doprnt.c: 1469: }
  1577                           ;doprnt.c: 1472: prec = c;
  1578  0010FA  C02C  F029         	movff	sprintf@c,sprintf@prec
  1579                           
  1580                           ;doprnt.c: 1474: while(prec--) {
  1581  0010FE  D02C               	goto	l258
  1582  001100                     
  1583                           ;doprnt.c: 1478: {
  1584                           ;doprnt.c: 1489: c = (val / dpowers[prec]) % 10 + '0';
  1585  001100  5029               	movf	sprintf@prec,w,c
  1586  001102  0D02               	mullw	2
  1587  001104  0E01               	movlw	low _dpowers
  1588  001106  24F3               	addwf	prodl,w,c
  1589  001108  6EF6               	movwf	tblptrl,c
  1590  00110A  0E10               	movlw	high _dpowers
  1591  00110C  20F4               	addwfc	prodh,w,c
  1592  00110E  6EF7               	movwf	tblptrh,c
  1593  001110                     	if	1	;There are 3 active tblptr bytes
  1594  001110  6AF8               	clrf	tblptru,c
  1595  001112  0E00               	movlw	low (__mediumconst shr (0+16))
  1596  001114  22F8               	addwfc	tblptru,f,c
  1597  001116                     	endif
  1598  001116  0009               	tblrd		*+
  1599  001118  CFF5 F015          	movff	tablat,___lwdiv@divisor
  1600  00111C  000A               	tblrd		*-
  1601  00111E  CFF5 F016          	movff	tablat,___lwdiv@divisor+1
  1602  001122  C02A  F013         	movff	sprintf@val,___lwdiv@dividend
  1603  001126  C02B  F014         	movff	sprintf@val+1,___lwdiv@dividend+1
  1604  00112A  EC1E  F00A         	call	___lwdiv	;wreg free
  1605  00112E  C013  F01A         	movff	?___lwdiv,___lwmod@dividend
  1606  001132  C014  F01B         	movff	?___lwdiv+1,___lwmod@dividend+1
  1607  001136  0E00               	movlw	0
  1608  001138  6E1D               	movwf	___lwmod@divisor+1,c
  1609  00113A  0E0A               	movlw	10
  1610  00113C  6E1C               	movwf	___lwmod@divisor,c
  1611  00113E  EC6F  F00A         	call	___lwmod	;wreg free
  1612  001142  501A               	movf	?___lwmod,w,c
  1613  001144  0F30               	addlw	48
  1614  001146  6E2C               	movwf	sprintf@c,c
  1615                           
  1616                           ;doprnt.c: 1523: }
  1617                           ;doprnt.c: 1524: ((*sp++ = (c)));
  1618  001148  C01F  FFD9         	movff	sprintf@sp,fsr2l
  1619  00114C  C020  FFDA         	movff	sprintf@sp+1,fsr2h
  1620  001150  C02C  FFDF         	movff	sprintf@c,indf2
  1621  001154  4A1F               	infsnz	sprintf@sp,f,c
  1622  001156  2A20               	incf	sprintf@sp+1,f,c
  1623  001158                     l258:
  1624  001158  0629               	decf	sprintf@prec,f,c
  1625  00115A  2829               	incf	sprintf@prec,w,c
  1626  00115C  A4D8               	btfss	status,2,c
  1627  00115E  D7D0               	goto	l259
  1628  001160                     u470:
  1629  001160  C021  FFF6         	movff	sprintf@f,tblptrl
  1630  001164  C022  FFF7         	movff	sprintf@f+1,tblptrh
  1631  001168  4A21               	infsnz	sprintf@f,f,c
  1632  00116A  2A22               	incf	sprintf@f+1,f,c
  1633  00116C                     	if	0	;tblptru may be non-zero
  1634  00116C                     	endif
  1635  00116C                     	if	1	;Program memory is > 0xFFFF, there are 3 active tblptr bytes
  1636  00116C  0E00               	movlw	low (__mediumconst shr (0+16))
  1637  00116E  6EF8               	movwf	tblptru,c
  1638  001170                     	endif
  1639  001170  0008               	tblrd		*
  1640  001172  CFF5 F02C          	movff	tablat,sprintf@c
  1641  001176  502C               	movf	sprintf@c,w,c
  1642  001178  A4D8               	btfss	status,2,c
  1643  00117A  D75E               	goto	l244
  1644  00117C                     u480:
  1645                           
  1646                           ;doprnt.c: 1538: *sp = 0;
  1647                           
  1648                           ;doprnt.c: 1525: }
  1649                           ;doprnt.c: 1533: }
  1650                           ;doprnt.c: 1535: alldone:
  1651  00117C  C01F  FFD9         	movff	sprintf@sp,fsr2l
  1652  001180  C020  FFDA         	movff	sprintf@sp+1,fsr2h
  1653  001184  0E00               	movlw	0
  1654  001186  6EDF               	movwf	indf2,c
  1655  001188  0012               	return	
  1656  00118A                     __end_of_sprintf:
  1657                           	opt stack 0
  1658                           tblptru	equ	0xFF8
  1659                           tblptrh	equ	0xFF7
  1660                           tblptrl	equ	0xFF6
  1661                           tablat	equ	0xFF5
  1662                           prodh	equ	0xFF4
  1663                           prodl	equ	0xFF3
  1664                           intcon	equ	0xFF2
  1665                           postinc0	equ	0xFEE
  1666                           wreg	equ	0xFE8
  1667                           indf2	equ	0xFDF
  1668                           postinc2	equ	0xFDE
  1669                           postdec2	equ	0xFDD
  1670                           fsr2h	equ	0xFDA
  1671                           fsr2l	equ	0xFD9
  1672                           status	equ	0xFD8
  1673                           
  1674 ;; *************** function ___lwmod *****************
  1675 ;; Defined at:
  1676 ;;		line 8 in file "C:\Program Files (x86)\Microchip\xc8\v1.43\sources\common\lwmod.c"
  1677 ;; Parameters:    Size  Location     Type
  1678 ;;  dividend        2   25[COMRAM] unsigned int 
  1679 ;;  divisor         2   27[COMRAM] unsigned int 
  1680 ;; Auto vars:     Size  Location     Type
  1681 ;;  counter         1   29[COMRAM] unsigned char 
  1682 ;; Return value:  Size  Location     Type
  1683 ;;                  2   25[COMRAM] unsigned int 
  1684 ;; Registers used:
  1685 ;;		wreg, status,2, status,0
  1686 ;; Tracked objects:
  1687 ;;		On entry : 0/0
  1688 ;;		On exit  : 0/0
  1689 ;;		Unchanged: 0/0
  1690 ;; Data sizes:     COMRAM   BANK0   BANK1   BANK2   BANK3   BANK4   BANK5   BANK6   BANK7   BANK8   BANK9  BANK10  BANK1
      +1  BANK12  BANK13  BANK14  BANK15
  1691 ;;      Params:         4       0       0       0       0       0       0       0       0       0       0       0       
      +0       0       0       0       0
  1692 ;;      Locals:         1       0       0       0       0       0       0       0       0       0       0       0       
      +0       0       0       0       0
  1693 ;;      Temps:          0       0       0       0       0       0       0       0       0       0       0       0       
      +0       0       0       0       0
  1694 ;;      Totals:         5       0       0       0       0       0       0       0       0       0       0       0       
      +0       0       0       0       0
  1695 ;;Total ram usage:        5 bytes
  1696 ;; Hardware stack levels used:    1
  1697 ;; Hardware stack levels required when called:    2
  1698 ;; This function calls:
  1699 ;;		Nothing
  1700 ;; This function is called by:
  1701 ;;		_sprintf
  1702 ;; This function uses a non-reentrant model
  1703 ;;
  1704                           
  1705                           	psect	text14
  1706  0014DE                     __ptext14:
  1707                           	opt stack 0
  1708  0014DE                     ___lwmod:
  1709                           	opt stack 26
  1710                           
  1711                           ;incstack = 0
  1712  0014DE  501C               	movf	___lwmod@divisor,w,c
  1713  0014E0  101D               	iorwf	___lwmod@divisor+1,w,c
  1714  0014E2  B4D8               	btfsc	status,2,c
  1715  0014E4  D018               	goto	l681
  1716  0014E6  0E01               	movlw	1
  1717  0014E8  6E1E               	movwf	___lwmod@counter,c
  1718  0014EA  D004               	goto	l676
  1719  0014EC  90D8               	bcf	status,0,c
  1720  0014EE  361C               	rlcf	___lwmod@divisor,f,c
  1721  0014F0  361D               	rlcf	___lwmod@divisor+1,f,c
  1722  0014F2  2A1E               	incf	___lwmod@counter,f,c
  1723  0014F4                     l676:
  1724  0014F4  AE1D               	btfss	___lwmod@divisor+1,7,c
  1725  0014F6  D7FA               	goto	l677
  1726  0014F8                     u360:
  1727  0014F8  501C               	movf	___lwmod@divisor,w,c
  1728  0014FA  5C1A               	subwf	___lwmod@dividend,w,c
  1729  0014FC  501D               	movf	___lwmod@divisor+1,w,c
  1730  0014FE  581B               	subwfb	___lwmod@dividend+1,w,c
  1731  001500  A0D8               	btfss	status,0,c
  1732  001502  D004               	goto	l680
  1733  001504  501C               	movf	___lwmod@divisor,w,c
  1734  001506  5E1A               	subwf	___lwmod@dividend,f,c
  1735  001508  501D               	movf	___lwmod@divisor+1,w,c
  1736  00150A  5A1B               	subwfb	___lwmod@dividend+1,f,c
  1737  00150C                     l680:
  1738  00150C  90D8               	bcf	status,0,c
  1739  00150E  321D               	rrcf	___lwmod@divisor+1,f,c
  1740  001510  321C               	rrcf	___lwmod@divisor,f,c
  1741  001512  2E1E               	decfsz	___lwmod@counter,f,c
  1742  001514  D7F1               	goto	u360
  1743  001516                     l681:
  1744  001516  C01A  F01A         	movff	___lwmod@dividend,?___lwmod
  1745  00151A  C01B  F01B         	movff	___lwmod@dividend+1,?___lwmod+1
  1746  00151E  0012               	return		;funcret
  1747  001520                     __end_of___lwmod:
  1748                           	opt stack 0
  1749                           tblptru	equ	0xFF8
  1750                           tblptrh	equ	0xFF7
  1751                           tblptrl	equ	0xFF6
  1752                           tablat	equ	0xFF5
  1753                           prodh	equ	0xFF4
  1754                           prodl	equ	0xFF3
  1755                           intcon	equ	0xFF2
  1756                           postinc0	equ	0xFEE
  1757                           wreg	equ	0xFE8
  1758                           indf2	equ	0xFDF
  1759                           postinc2	equ	0xFDE
  1760                           postdec2	equ	0xFDD
  1761                           fsr2h	equ	0xFDA
  1762                           fsr2l	equ	0xFD9
  1763                           status	equ	0xFD8
  1764                           
  1765 ;; *************** function ___lwdiv *****************
  1766 ;; Defined at:
  1767 ;;		line 8 in file "C:\Program Files (x86)\Microchip\xc8\v1.43\sources\common\lwdiv.c"
  1768 ;; Parameters:    Size  Location     Type
  1769 ;;  dividend        2   18[COMRAM] unsigned int 
  1770 ;;  divisor         2   20[COMRAM] unsigned int 
  1771 ;; Auto vars:     Size  Location     Type
  1772 ;;  quotient        2   22[COMRAM] unsigned int 
  1773 ;;  counter         1   24[COMRAM] unsigned char 
  1774 ;; Return value:  Size  Location     Type
  1775 ;;                  2   18[COMRAM] unsigned int 
  1776 ;; Registers used:
  1777 ;;		wreg, status,2, status,0
  1778 ;; Tracked objects:
  1779 ;;		On entry : 0/0
  1780 ;;		On exit  : 0/0
  1781 ;;		Unchanged: 0/0
  1782 ;; Data sizes:     COMRAM   BANK0   BANK1   BANK2   BANK3   BANK4   BANK5   BANK6   BANK7   BANK8   BANK9  BANK10  BANK1
      +1  BANK12  BANK13  BANK14  BANK15
  1783 ;;      Params:         4       0       0       0       0       0       0       0       0       0       0       0       
      +0       0       0       0       0
  1784 ;;      Locals:         3       0       0       0       0       0       0       0       0       0       0       0       
      +0       0       0       0       0
  1785 ;;      Temps:          0       0       0       0       0       0       0       0       0       0       0       0       
      +0       0       0       0       0
  1786 ;;      Totals:         7       0       0       0       0       0       0       0       0       0       0       0       
      +0       0       0       0       0
  1787 ;;Total ram usage:        7 bytes
  1788 ;; Hardware stack levels used:    1
  1789 ;; Hardware stack levels required when called:    2
  1790 ;; This function calls:
  1791 ;;		Nothing
  1792 ;; This function is called by:
  1793 ;;		_sprintf
  1794 ;; This function uses a non-reentrant model
  1795 ;;
  1796                           
  1797                           	psect	text15
  1798  00143C                     __ptext15:
  1799                           	opt stack 0
  1800  00143C                     ___lwdiv:
  1801                           	opt stack 26
  1802                           
  1803                           ;incstack = 0
  1804  00143C  0E00               	movlw	0
  1805  00143E  6E18               	movwf	___lwdiv@quotient+1,c
  1806  001440  0E00               	movlw	0
  1807  001442  6E17               	movwf	___lwdiv@quotient,c
  1808  001444  5015               	movf	___lwdiv@divisor,w,c
  1809  001446  1016               	iorwf	___lwdiv@divisor+1,w,c
  1810  001448  B4D8               	btfsc	status,2,c
  1811  00144A  D01C               	goto	l671
  1812  00144C  0E01               	movlw	1
  1813  00144E  6E19               	movwf	___lwdiv@counter,c
  1814  001450  D004               	goto	l666
  1815  001452  90D8               	bcf	status,0,c
  1816  001454  3615               	rlcf	___lwdiv@divisor,f,c
  1817  001456  3616               	rlcf	___lwdiv@divisor+1,f,c
  1818  001458  2A19               	incf	___lwdiv@counter,f,c
  1819  00145A                     l666:
  1820  00145A  AE16               	btfss	___lwdiv@divisor+1,7,c
  1821  00145C  D7FA               	goto	l667
  1822  00145E                     u330:
  1823  00145E  90D8               	bcf	status,0,c
  1824  001460  3617               	rlcf	___lwdiv@quotient,f,c
  1825  001462  3618               	rlcf	___lwdiv@quotient+1,f,c
  1826  001464  5015               	movf	___lwdiv@divisor,w,c
  1827  001466  5C13               	subwf	___lwdiv@dividend,w,c
  1828  001468  5016               	movf	___lwdiv@divisor+1,w,c
  1829  00146A  5814               	subwfb	___lwdiv@dividend+1,w,c
  1830  00146C  A0D8               	btfss	status,0,c
  1831  00146E  D005               	goto	l670
  1832  001470  5015               	movf	___lwdiv@divisor,w,c
  1833  001472  5E13               	subwf	___lwdiv@dividend,f,c
  1834  001474  5016               	movf	___lwdiv@divisor+1,w,c
  1835  001476  5A14               	subwfb	___lwdiv@dividend+1,f,c
  1836  001478  8017               	bsf	___lwdiv@quotient,0,c
  1837  00147A                     l670:
  1838  00147A  90D8               	bcf	status,0,c
  1839  00147C  3216               	rrcf	___lwdiv@divisor+1,f,c
  1840  00147E  3215               	rrcf	___lwdiv@divisor,f,c
  1841  001480  2E19               	decfsz	___lwdiv@counter,f,c
  1842  001482  D7ED               	goto	u330
  1843  001484                     l671:
  1844  001484  C017  F013         	movff	___lwdiv@quotient,?___lwdiv
  1845  001488  C018  F014         	movff	___lwdiv@quotient+1,?___lwdiv+1
  1846  00148C  0012               	return		;funcret
  1847  00148E                     __end_of___lwdiv:
  1848                           	opt stack 0
  1849                           tblptru	equ	0xFF8
  1850                           tblptrh	equ	0xFF7
  1851                           tblptrl	equ	0xFF6
  1852                           tablat	equ	0xFF5
  1853                           prodh	equ	0xFF4
  1854                           prodl	equ	0xFF3
  1855                           intcon	equ	0xFF2
  1856                           postinc0	equ	0xFEE
  1857                           wreg	equ	0xFE8
  1858                           indf2	equ	0xFDF
  1859                           postinc2	equ	0xFDE
  1860                           postdec2	equ	0xFDD
  1861                           fsr2h	equ	0xFDA
  1862                           fsr2l	equ	0xFD9
  1863                           status	equ	0xFD8
  1864                           
  1865 ;; *************** function _LCDPutStr *****************
  1866 ;; Defined at:
  1867 ;;		line 198 in file "BBSPI_LCD.c"
  1868 ;; Parameters:    Size  Location     Type
  1869 ;;  ptr             2   25[COMRAM] PTR const unsigned char 
  1870 ;;		 -> TextoLCD(16), STR_2(13), STR_1(11), 
  1871 ;; Auto vars:     Size  Location     Type
  1872 ;;		None
  1873 ;; Return value:  Size  Location     Type
  1874 ;;                  1    wreg      void 
  1875 ;; Registers used:
  1876 ;;		wreg, fsr0l, fsr0h, status,2, status,0, tblptrl, tblptrh, tblptru, cstack
  1877 ;; Tracked objects:
  1878 ;;		On entry : 0/0
  1879 ;;		On exit  : 0/0
  1880 ;;		Unchanged: 0/0
  1881 ;; Data sizes:     COMRAM   BANK0   BANK1   BANK2   BANK3   BANK4   BANK5   BANK6   BANK7   BANK8   BANK9  BANK10  BANK1
      +1  BANK12  BANK13  BANK14  BANK15
  1882 ;;      Params:         2       0       0       0       0       0       0       0       0       0       0       0       
      +0       0       0       0       0
  1883 ;;      Locals:         0       0       0       0       0       0       0       0       0       0       0       0       
      +0       0       0       0       0
  1884 ;;      Temps:          0       0       0       0       0       0       0       0       0       0       0       0       
      +0       0       0       0       0
  1885 ;;      Totals:         2       0       0       0       0       0       0       0       0       0       0       0       
      +0       0       0       0       0
  1886 ;;Total ram usage:        2 bytes
  1887 ;; Hardware stack levels used:    1
  1888 ;; Hardware stack levels required when called:    5
  1889 ;; This function calls:
  1890 ;;		_LCDPutChar
  1891 ;; This function is called by:
  1892 ;;		_Intro
  1893 ;;		_Imprimir
  1894 ;; This function uses a non-reentrant model
  1895 ;;
  1896                           
  1897                           	psect	text16
  1898  0013E6                     __ptext16:
  1899                           	opt stack 0
  1900  0013E6                     _LCDPutStr:
  1901                           	opt stack 24
  1902                           
  1903                           ;BBSPI_LCD.c: 200: while(*ptr) LCDPutChar(*(ptr++));
  1904                           
  1905                           ;incstack = 0
  1906  0013E6  D015               	goto	l118
  1907  0013E8  C01A  FFF6         	movff	LCDPutStr@ptr,tblptrl
  1908  0013EC  C01B  FFF7         	movff	LCDPutStr@ptr+1,tblptrh
  1909  0013F0  0E00               	movlw	low (__smallconst shr (0+16))
  1910  0013F2  6EF8               	movwf	tblptru,c
  1911  0013F4  0E0F               	movlw	(high __ramtop+-1)
  1912  0013F6  64F7               	cpfsgt	tblptrh,c
  1913  0013F8  D003               	bra	u387
  1914  0013FA  0008               	tblrd		*
  1915  0013FC  50F5               	movf	tablat,w,c
  1916  0013FE  D005               	bra	u380
  1917  001400                     u387:
  1918  001400  CFF6 FFE9          	movff	tblptrl,fsr0l
  1919  001404  CFF7 FFEA          	movff	tblptrh,fsr0h
  1920  001408  50EF               	movf	indf0,w,c
  1921  00140A                     u380:
  1922  00140A  EC5D  F009         	call	_LCDPutChar
  1923  00140E  4A1A               	infsnz	LCDPutStr@ptr,f,c
  1924  001410  2A1B               	incf	LCDPutStr@ptr+1,f,c
  1925  001412                     l118:
  1926  001412  C01A  FFF6         	movff	LCDPutStr@ptr,tblptrl
  1927  001416  C01B  FFF7         	movff	LCDPutStr@ptr+1,tblptrh
  1928  00141A  0E00               	movlw	low (__smallconst shr (0+16))
  1929  00141C  6EF8               	movwf	tblptru,c
  1930  00141E  0E0F               	movlw	(high __ramtop+-1)
  1931  001420  64F7               	cpfsgt	tblptrh,c
  1932  001422  D003               	bra	u397
  1933  001424  0008               	tblrd		*
  1934  001426  50F5               	movf	tablat,w,c
  1935  001428  D005               	bra	u390
  1936  00142A                     u397:
  1937  00142A  CFF6 FFE9          	movff	tblptrl,fsr0l
  1938  00142E  CFF7 FFEA          	movff	tblptrh,fsr0h
  1939  001432  50EF               	movf	indf0,w,c
  1940  001434                     u390:
  1941  001434  0900               	iorlw	0
  1942  001436  B4D8               	btfsc	status,2,c
  1943  001438  0012               	return	
  1944  00143A  D7D6               	goto	l119
  1945  00143C                     __end_of_LCDPutStr:
  1946                           	opt stack 0
  1947                           tblptru	equ	0xFF8
  1948                           tblptrh	equ	0xFF7
  1949                           tblptrl	equ	0xFF6
  1950                           tablat	equ	0xFF5
  1951                           prodh	equ	0xFF4
  1952                           prodl	equ	0xFF3
  1953                           intcon	equ	0xFF2
  1954                           indf0	equ	0xFEF
  1955                           postinc0	equ	0xFEE
  1956                           fsr0h	equ	0xFEA
  1957                           fsr0l	equ	0xFE9
  1958                           wreg	equ	0xFE8
  1959                           indf2	equ	0xFDF
  1960                           postinc2	equ	0xFDE
  1961                           postdec2	equ	0xFDD
  1962                           fsr2h	equ	0xFDA
  1963                           fsr2l	equ	0xFD9
  1964                           status	equ	0xFD8
  1965                           
  1966 ;; *************** function _LCDPutChar *****************
  1967 ;; Defined at:
  1968 ;;		line 160 in file "BBSPI_LCD.c"
  1969 ;; Parameters:    Size  Location     Type
  1970 ;;  ch              1    wreg     unsigned char 
  1971 ;; Auto vars:     Size  Location     Type
  1972 ;;  ch              1   24[COMRAM] unsigned char 
  1973 ;; Return value:  Size  Location     Type
  1974 ;;                  1    wreg      void 
  1975 ;; Registers used:
  1976 ;;		wreg, status,2, status,0, cstack
  1977 ;; Tracked objects:
  1978 ;;		On entry : 0/0
  1979 ;;		On exit  : 0/0
  1980 ;;		Unchanged: 0/0
  1981 ;; Data sizes:     COMRAM   BANK0   BANK1   BANK2   BANK3   BANK4   BANK5   BANK6   BANK7   BANK8   BANK9  BANK10  BANK1
      +1  BANK12  BANK13  BANK14  BANK15
  1982 ;;      Params:         0       0       0       0       0       0       0       0       0       0       0       0       
      +0       0       0       0       0
  1983 ;;      Locals:         1       0       0       0       0       0       0       0       0       0       0       0       
      +0       0       0       0       0
  1984 ;;      Temps:          1       0       0       0       0       0       0       0       0       0       0       0       
      +0       0       0       0       0
  1985 ;;      Totals:         2       0       0       0       0       0       0       0       0       0       0       0       
      +0       0       0       0       0
  1986 ;;Total ram usage:        2 bytes
  1987 ;; Hardware stack levels used:    1
  1988 ;; Hardware stack levels required when called:    4
  1989 ;; This function calls:
  1990 ;;		_WritePort_BBSPI
  1991 ;; This function is called by:
  1992 ;;		_LCDPutStr
  1993 ;; This function uses a non-reentrant model
  1994 ;;
  1995                           
  1996                           	psect	text17
  1997  0012BA                     __ptext17:
  1998                           	opt stack 0
  1999  0012BA                     _LCDPutChar:
  2000                           	opt stack 24
  2001                           
  2002                           ;incstack = 0
  2003                           ;LCDPutChar@ch stored from wreg
  2004  0012BA  6E19               	movwf	LCDPutChar@ch,c
  2005                           
  2006                           ;BBSPI_LCD.c: 162: _delay((unsigned long)((5)*(40000000/4000.0)));
  2007  0012BC  0E41               	movlw	65
  2008  0012BE  6E18               	movwf	??_LCDPutChar& (0+255),c
  2009  0012C0  0EEE               	movlw	238
  2010  0012C2                     u577:
  2011  0012C2  2EE8               	decfsz	wreg,f,c
  2012  0012C4  D7FE               	bra	u577
  2013  0012C6  2E18               	decfsz	??_LCDPutChar& (0+255),f,c
  2014  0012C8  D7FC               	bra	u577
  2015  0012CA  D000               	nop2	
  2016                           
  2017                           ;BBSPI_LCD.c: 163: WritePort_BBSPI (0x12, 0x80);
  2018  0012CC  0E80               	movlw	128
  2019  0012CE  6E16               	movwf	WritePort_BBSPI@a,c
  2020  0012D0  0E12               	movlw	18
  2021  0012D2  EC1A  F00B         	call	_WritePort_BBSPI
  2022                           
  2023                           ;BBSPI_LCD.c: 164: _delay((unsigned long)((1)*(40000000/4000.0)));
  2024  0012D6  0E0D               	movlw	13
  2025  0012D8  6E18               	movwf	??_LCDPutChar& (0+255),c
  2026  0012DA  0EFC               	movlw	252
  2027  0012DC                     u587:
  2028  0012DC  2EE8               	decfsz	wreg,f,c
  2029  0012DE  D7FE               	bra	u587
  2030  0012E0  2E18               	decfsz	??_LCDPutChar& (0+255),f,c
  2031  0012E2  D7FC               	bra	u587
  2032                           
  2033                           ;BBSPI_LCD.c: 165: WritePort_BBSPI (0x13, ch);
  2034  0012E4  C019  F016         	movff	LCDPutChar@ch,WritePort_BBSPI@a
  2035  0012E8  0E13               	movlw	19
  2036  0012EA  EC1A  F00B         	call	_WritePort_BBSPI
  2037                           
  2038                           ;BBSPI_LCD.c: 166: _delay((unsigned long)((1)*(40000000/4000.0)));
  2039  0012EE  0E0D               	movlw	13
  2040  0012F0  6E18               	movwf	??_LCDPutChar& (0+255),c
  2041  0012F2  0EFC               	movlw	252
  2042  0012F4                     u597:
  2043  0012F4  2EE8               	decfsz	wreg,f,c
  2044  0012F6  D7FE               	bra	u597
  2045  0012F8  2E18               	decfsz	??_LCDPutChar& (0+255),f,c
  2046  0012FA  D7FC               	bra	u597
  2047                           
  2048                           ;BBSPI_LCD.c: 167: WritePort_BBSPI (0x12, 0xC0);
  2049  0012FC  0EC0               	movlw	192
  2050  0012FE  6E16               	movwf	WritePort_BBSPI@a,c
  2051  001300  0E12               	movlw	18
  2052  001302  EC1A  F00B         	call	_WritePort_BBSPI
  2053                           
  2054                           ;BBSPI_LCD.c: 168: _delay((unsigned long)((1)*(40000000/4000.0)));
  2055  001306  0E0D               	movlw	13
  2056  001308  6E18               	movwf	??_LCDPutChar& (0+255),c
  2057  00130A  0EFC               	movlw	252
  2058  00130C                     u607:
  2059  00130C  2EE8               	decfsz	wreg,f,c
  2060  00130E  D7FE               	bra	u607
  2061  001310  2E18               	decfsz	??_LCDPutChar& (0+255),f,c
  2062  001312  D7FC               	bra	u607
  2063                           
  2064                           ;BBSPI_LCD.c: 169: WritePort_BBSPI (0x12, 0x00);
  2065  001314  0E00               	movlw	0
  2066  001316  6E16               	movwf	WritePort_BBSPI@a,c
  2067  001318  0E12               	movlw	18
  2068  00131A  EC1A  F00B         	call	_WritePort_BBSPI
  2069  00131E  0012               	return		;funcret
  2070  001320                     __end_of_LCDPutChar:
  2071                           	opt stack 0
  2072                           tblptru	equ	0xFF8
  2073                           tblptrh	equ	0xFF7
  2074                           tblptrl	equ	0xFF6
  2075                           tablat	equ	0xFF5
  2076                           prodh	equ	0xFF4
  2077                           prodl	equ	0xFF3
  2078                           intcon	equ	0xFF2
  2079                           indf0	equ	0xFEF
  2080                           postinc0	equ	0xFEE
  2081                           fsr0h	equ	0xFEA
  2082                           fsr0l	equ	0xFE9
  2083                           wreg	equ	0xFE8
  2084                           indf2	equ	0xFDF
  2085                           postinc2	equ	0xFDE
  2086                           postdec2	equ	0xFDD
  2087                           fsr2h	equ	0xFDA
  2088                           fsr2l	equ	0xFD9
  2089                           status	equ	0xFD8
  2090                           
  2091 ;; *************** function _LCDPutInst *****************
  2092 ;; Defined at:
  2093 ;;		line 179 in file "BBSPI_LCD.c"
  2094 ;; Parameters:    Size  Location     Type
  2095 ;;  ch              1    wreg     unsigned char 
  2096 ;; Auto vars:     Size  Location     Type
  2097 ;;  ch              1   24[COMRAM] unsigned char 
  2098 ;; Return value:  Size  Location     Type
  2099 ;;                  1    wreg      void 
  2100 ;; Registers used:
  2101 ;;		wreg, status,2, status,0, cstack
  2102 ;; Tracked objects:
  2103 ;;		On entry : 0/0
  2104 ;;		On exit  : 0/0
  2105 ;;		Unchanged: 0/0
  2106 ;; Data sizes:     COMRAM   BANK0   BANK1   BANK2   BANK3   BANK4   BANK5   BANK6   BANK7   BANK8   BANK9  BANK10  BANK1
      +1  BANK12  BANK13  BANK14  BANK15
  2107 ;;      Params:         0       0       0       0       0       0       0       0       0       0       0       0       
      +0       0       0       0       0
  2108 ;;      Locals:         1       0       0       0       0       0       0       0       0       0       0       0       
      +0       0       0       0       0
  2109 ;;      Temps:          1       0       0       0       0       0       0       0       0       0       0       0       
      +0       0       0       0       0
  2110 ;;      Totals:         2       0       0       0       0       0       0       0       0       0       0       0       
      +0       0       0       0       0
  2111 ;;Total ram usage:        2 bytes
  2112 ;; Hardware stack levels used:    1
  2113 ;; Hardware stack levels required when called:    4
  2114 ;; This function calls:
  2115 ;;		_WritePort_BBSPI
  2116 ;; This function is called by:
  2117 ;;		_main
  2118 ;;		_Intro
  2119 ;;		_Imprimir
  2120 ;;		_LCDInit
  2121 ;; This function uses a non-reentrant model
  2122 ;;
  2123                           
  2124                           	psect	text18
  2125  001320                     __ptext18:
  2126                           	opt stack 0
  2127  001320                     _LCDPutInst:
  2128                           	opt stack 26
  2129                           
  2130                           ;incstack = 0
  2131                           ;LCDPutInst@ch stored from wreg
  2132  001320  6E19               	movwf	LCDPutInst@ch,c
  2133                           
  2134                           ;BBSPI_LCD.c: 181: _delay((unsigned long)((5)*(40000000/4000.0)));
  2135  001322  0E41               	movlw	65
  2136  001324  6E18               	movwf	??_LCDPutInst& (0+255),c
  2137  001326  0EEE               	movlw	238
  2138  001328                     u617:
  2139  001328  2EE8               	decfsz	wreg,f,c
  2140  00132A  D7FE               	bra	u617
  2141  00132C  2E18               	decfsz	??_LCDPutInst& (0+255),f,c
  2142  00132E  D7FC               	bra	u617
  2143  001330  D000               	nop2	
  2144                           
  2145                           ;BBSPI_LCD.c: 182: WritePort_BBSPI (0x12, 0x00);
  2146  001332  0E00               	movlw	0
  2147  001334  6E16               	movwf	WritePort_BBSPI@a,c
  2148  001336  0E12               	movlw	18
  2149  001338  EC1A  F00B         	call	_WritePort_BBSPI
  2150                           
  2151                           ;BBSPI_LCD.c: 183: _delay((unsigned long)((1)*(40000000/4000.0)));
  2152  00133C  0E0D               	movlw	13
  2153  00133E  6E18               	movwf	??_LCDPutInst& (0+255),c
  2154  001340  0EFC               	movlw	252
  2155  001342                     u627:
  2156  001342  2EE8               	decfsz	wreg,f,c
  2157  001344  D7FE               	bra	u627
  2158  001346  2E18               	decfsz	??_LCDPutInst& (0+255),f,c
  2159  001348  D7FC               	bra	u627
  2160                           
  2161                           ;BBSPI_LCD.c: 184: WritePort_BBSPI (0x13, ch);
  2162  00134A  C019  F016         	movff	LCDPutInst@ch,WritePort_BBSPI@a
  2163  00134E  0E13               	movlw	19
  2164  001350  EC1A  F00B         	call	_WritePort_BBSPI
  2165                           
  2166                           ;BBSPI_LCD.c: 185: _delay((unsigned long)((1)*(40000000/4000.0)));
  2167  001354  0E0D               	movlw	13
  2168  001356  6E18               	movwf	??_LCDPutInst& (0+255),c
  2169  001358  0EFC               	movlw	252
  2170  00135A                     u637:
  2171  00135A  2EE8               	decfsz	wreg,f,c
  2172  00135C  D7FE               	bra	u637
  2173  00135E  2E18               	decfsz	??_LCDPutInst& (0+255),f,c
  2174  001360  D7FC               	bra	u637
  2175                           
  2176                           ;BBSPI_LCD.c: 186: WritePort_BBSPI (0x12,0x40);
  2177  001362  0E40               	movlw	64
  2178  001364  6E16               	movwf	WritePort_BBSPI@a,c
  2179  001366  0E12               	movlw	18
  2180  001368  EC1A  F00B         	call	_WritePort_BBSPI
  2181                           
  2182                           ;BBSPI_LCD.c: 187: _delay((unsigned long)((1)*(40000000/4000.0)));
  2183  00136C  0E0D               	movlw	13
  2184  00136E  6E18               	movwf	??_LCDPutInst& (0+255),c
  2185  001370  0EFC               	movlw	252
  2186  001372                     u647:
  2187  001372  2EE8               	decfsz	wreg,f,c
  2188  001374  D7FE               	bra	u647
  2189  001376  2E18               	decfsz	??_LCDPutInst& (0+255),f,c
  2190  001378  D7FC               	bra	u647
  2191                           
  2192                           ;BBSPI_LCD.c: 188: WritePort_BBSPI (0x12, 0x00);
  2193  00137A  0E00               	movlw	0
  2194  00137C  6E16               	movwf	WritePort_BBSPI@a,c
  2195  00137E  0E12               	movlw	18
  2196  001380  EC1A  F00B         	call	_WritePort_BBSPI
  2197  001384  0012               	return		;funcret
  2198  001386                     __end_of_LCDPutInst:
  2199                           	opt stack 0
  2200                           tblptru	equ	0xFF8
  2201                           tblptrh	equ	0xFF7
  2202                           tblptrl	equ	0xFF6
  2203                           tablat	equ	0xFF5
  2204                           prodh	equ	0xFF4
  2205                           prodl	equ	0xFF3
  2206                           intcon	equ	0xFF2
  2207                           indf0	equ	0xFEF
  2208                           postinc0	equ	0xFEE
  2209                           fsr0h	equ	0xFEA
  2210                           fsr0l	equ	0xFE9
  2211                           wreg	equ	0xFE8
  2212                           indf2	equ	0xFDF
  2213                           postinc2	equ	0xFDE
  2214                           postdec2	equ	0xFDD
  2215                           fsr2h	equ	0xFDA
  2216                           fsr2l	equ	0xFD9
  2217                           status	equ	0xFD8
  2218                           
  2219 ;; *************** function _WritePort_BBSPI *****************
  2220 ;; Defined at:
  2221 ;;		line 144 in file "BBSPI_LCD.c"
  2222 ;; Parameters:    Size  Location     Type
  2223 ;;  port_add        1    wreg     unsigned char 
  2224 ;;  a               1   21[COMRAM] unsigned char 
  2225 ;; Auto vars:     Size  Location     Type
  2226 ;;  port_add        1   22[COMRAM] unsigned char 
  2227 ;; Return value:  Size  Location     Type
  2228 ;;                  1    wreg      void 
  2229 ;; Registers used:
  2230 ;;		wreg, status,2, status,0, cstack
  2231 ;; Tracked objects:
  2232 ;;		On entry : 0/0
  2233 ;;		On exit  : 0/0
  2234 ;;		Unchanged: 0/0
  2235 ;; Data sizes:     COMRAM   BANK0   BANK1   BANK2   BANK3   BANK4   BANK5   BANK6   BANK7   BANK8   BANK9  BANK10  BANK1
      +1  BANK12  BANK13  BANK14  BANK15
  2236 ;;      Params:         1       0       0       0       0       0       0       0       0       0       0       0       
      +0       0       0       0       0
  2237 ;;      Locals:         1       0       0       0       0       0       0       0       0       0       0       0       
      +0       0       0       0       0
  2238 ;;      Temps:          0       0       0       0       0       0       0       0       0       0       0       0       
      +0       0       0       0       0
  2239 ;;      Totals:         2       0       0       0       0       0       0       0       0       0       0       0       
      +0       0       0       0       0
  2240 ;;Total ram usage:        2 bytes
  2241 ;; Hardware stack levels used:    1
  2242 ;; Hardware stack levels required when called:    3
  2243 ;; This function calls:
  2244 ;;		_SendByteBBSPI
  2245 ;; This function is called by:
  2246 ;;		_LCDInit
  2247 ;;		_LCDPutChar
  2248 ;;		_LCDPutInst
  2249 ;; This function uses a non-reentrant model
  2250 ;;
  2251                           
  2252                           	psect	text19
  2253  001634                     __ptext19:
  2254                           	opt stack 0
  2255  001634                     _WritePort_BBSPI:
  2256                           	opt stack 26
  2257                           
  2258                           ;incstack = 0
  2259                           ;WritePort_BBSPI@port_add stored from wreg
  2260  001634  6E17               	movwf	WritePort_BBSPI@port_add,c
  2261                           
  2262                           ;BBSPI_LCD.c: 146: LATAbits.LATA2 = 0;
  2263  001636  9489               	bcf	3977,2,c	;volatile
  2264                           
  2265                           ;BBSPI_LCD.c: 147: SendByteBBSPI(0x40);
  2266  001638  0E40               	movlw	64
  2267  00163A  EC47  F00A         	call	_SendByteBBSPI
  2268                           
  2269                           ;BBSPI_LCD.c: 148: SendByteBBSPI(port_add);
  2270  00163E  5017               	movf	WritePort_BBSPI@port_add,w,c
  2271  001640  EC47  F00A         	call	_SendByteBBSPI
  2272                           
  2273                           ;BBSPI_LCD.c: 149: SendByteBBSPI(a);
  2274  001644  5016               	movf	WritePort_BBSPI@a,w,c
  2275  001646  EC47  F00A         	call	_SendByteBBSPI
  2276                           
  2277                           ;BBSPI_LCD.c: 150: LATAbits.LATA2 = 1;
  2278  00164A  8489               	bsf	3977,2,c	;volatile
  2279  00164C  0012               	return		;funcret
  2280  00164E                     __end_of_WritePort_BBSPI:
  2281                           	opt stack 0
  2282                           tblptru	equ	0xFF8
  2283                           tblptrh	equ	0xFF7
  2284                           tblptrl	equ	0xFF6
  2285                           tablat	equ	0xFF5
  2286                           prodh	equ	0xFF4
  2287                           prodl	equ	0xFF3
  2288                           intcon	equ	0xFF2
  2289                           indf0	equ	0xFEF
  2290                           postinc0	equ	0xFEE
  2291                           fsr0h	equ	0xFEA
  2292                           fsr0l	equ	0xFE9
  2293                           wreg	equ	0xFE8
  2294                           indf2	equ	0xFDF
  2295                           postinc2	equ	0xFDE
  2296                           postdec2	equ	0xFDD
  2297                           fsr2h	equ	0xFDA
  2298                           fsr2l	equ	0xFD9
  2299                           status	equ	0xFD8
  2300                           
  2301 ;; *************** function _SendByteBBSPI *****************
  2302 ;; Defined at:
  2303 ;;		line 91 in file "BBSPI_LCD.c"
  2304 ;; Parameters:    Size  Location     Type
  2305 ;;  output          1    wreg     unsigned char 
  2306 ;; Auto vars:     Size  Location     Type
  2307 ;;  output          1   18[COMRAM] unsigned char 
  2308 ;;  input           1   20[COMRAM] unsigned char 
  2309 ;;  bitcount        1   19[COMRAM] unsigned char 
  2310 ;; Return value:  Size  Location     Type
  2311 ;;                  1    wreg      void 
  2312 ;; Registers used:
  2313 ;;		wreg, status,2, status,0
  2314 ;; Tracked objects:
  2315 ;;		On entry : 0/0
  2316 ;;		On exit  : 0/0
  2317 ;;		Unchanged: 0/0
  2318 ;; Data sizes:     COMRAM   BANK0   BANK1   BANK2   BANK3   BANK4   BANK5   BANK6   BANK7   BANK8   BANK9  BANK10  BANK1
      +1  BANK12  BANK13  BANK14  BANK15
  2319 ;;      Params:         0       0       0       0       0       0       0       0       0       0       0       0       
      +0       0       0       0       0
  2320 ;;      Locals:         3       0       0       0       0       0       0       0       0       0       0       0       
      +0       0       0       0       0
  2321 ;;      Temps:          0       0       0       0       0       0       0       0       0       0       0       0       
      +0       0       0       0       0
  2322 ;;      Totals:         3       0       0       0       0       0       0       0       0       0       0       0       
      +0       0       0       0       0
  2323 ;;Total ram usage:        3 bytes
  2324 ;; Hardware stack levels used:    1
  2325 ;; Hardware stack levels required when called:    2
  2326 ;; This function calls:
  2327 ;;		Nothing
  2328 ;; This function is called by:
  2329 ;;		_Port_BBSPIInit
  2330 ;;		_WritePort_BBSPI
  2331 ;; This function uses a non-reentrant model
  2332 ;;
  2333                           
  2334                           	psect	text20
  2335  00148E                     __ptext20:
  2336                           	opt stack 0
  2337  00148E                     _SendByteBBSPI:
  2338                           	opt stack 26
  2339                           
  2340                           ;incstack = 0
  2341                           ;SendByteBBSPI@output stored from wreg
  2342  00148E  6E13               	movwf	SendByteBBSPI@output,c
  2343                           
  2344                           ;BBSPI_LCD.c: 93: unsigned char bitcount;
  2345                           ;BBSPI_LCD.c: 94: unsigned char input = output;
  2346  001490  C013  F015         	movff	SendByteBBSPI@output,SendByteBBSPI@input
  2347                           
  2348                           ;BBSPI_LCD.c: 96: for(bitcount=0;bitcount<8;bitcount++)
  2349  001494  0E00               	movlw	0
  2350  001496  6E14               	movwf	SendByteBBSPI@bitcount,c
  2351  001498                     l888:
  2352  001498  0E07               	movlw	7
  2353  00149A  6414               	cpfsgt	SendByteBBSPI@bitcount,c
  2354  00149C  D001               	goto	l97
  2355  00149E  0012               	return	
  2356  0014A0                     l97:
  2357                           
  2358                           ;BBSPI_LCD.c: 97: {
  2359                           ;BBSPI_LCD.c: 99: if(output & 0x80)
  2360  0014A0  AE13               	btfss	SendByteBBSPI@output,7,c
  2361  0014A2  D002               	goto	l99
  2362                           
  2363                           ;BBSPI_LCD.c: 100: LATCbits.LATC5 = 1;
  2364  0014A4  8A8B               	bsf	3979,5,c	;volatile
  2365  0014A6  D001               	goto	l100
  2366  0014A8                     l99:
  2367                           
  2368                           ;BBSPI_LCD.c: 101: else
  2369                           ;BBSPI_LCD.c: 102: LATCbits.LATC5 = 0;
  2370  0014A8  9A8B               	bcf	3979,5,c	;volatile
  2371  0014AA                     l100:
  2372                           
  2373                           ;BBSPI_LCD.c: 104: if (LATCbits.LATC4)
  2374  0014AA  A88B               	btfss	3979,4,c	;volatile
  2375  0014AC  D003               	goto	l101
  2376                           
  2377                           ;BBSPI_LCD.c: 105: input = (input << 1) | 0x1;
  2378  0014AE  80D8               	bsf	status,0,c
  2379  0014B0  3615               	rlcf	SendByteBBSPI@input,f,c
  2380  0014B2  D003               	goto	l102
  2381  0014B4                     l101:
  2382                           
  2383                           ;BBSPI_LCD.c: 106: else
  2384                           ;BBSPI_LCD.c: 107: input = input << 1;
  2385  0014B4  5015               	movf	SendByteBBSPI@input,w,c
  2386  0014B6  2415               	addwf	SendByteBBSPI@input,w,c
  2387  0014B8  6E15               	movwf	SendByteBBSPI@input,c
  2388  0014BA                     l102:
  2389                           
  2390                           ;BBSPI_LCD.c: 108: LATCbits.LATC3 = 1;
  2391  0014BA  868B               	bsf	3979,3,c	;volatile
  2392                           
  2393                           ;BBSPI_LCD.c: 109: __nop();__nop();__nop();__nop();__nop();__nop();
  2394  0014BC  F000               	nop	
  2395  0014BE  F000               	nop	
  2396  0014C0  F000               	nop	
  2397  0014C2  F000               	nop	
  2398  0014C4  F000               	nop	
  2399  0014C6  F000               	nop	
  2400                           
  2401                           ;BBSPI_LCD.c: 110: __nop();__nop();__nop();__nop();__nop();__nop();
  2402  0014C8  F000               	nop	
  2403  0014CA  F000               	nop	
  2404  0014CC  F000               	nop	
  2405  0014CE  F000               	nop	
  2406  0014D0  F000               	nop	
  2407  0014D2  F000               	nop	
  2408                           
  2409                           ;BBSPI_LCD.c: 111: LATCbits.LATC3 = 0;
  2410  0014D4  968B               	bcf	3979,3,c	;volatile
  2411                           
  2412                           ;BBSPI_LCD.c: 112: output <<= 1;
  2413  0014D6  90D8               	bcf	status,0,c
  2414  0014D8  3613               	rlcf	SendByteBBSPI@output,f,c
  2415  0014DA  2A14               	incf	SendByteBBSPI@bitcount,f,c
  2416  0014DC  D7DD               	goto	l888
  2417  0014DE                     __end_of_SendByteBBSPI:
  2418                           	opt stack 0
  2419                           tblptru	equ	0xFF8
  2420                           tblptrh	equ	0xFF7
  2421                           tblptrl	equ	0xFF6
  2422                           tablat	equ	0xFF5
  2423                           prodh	equ	0xFF4
  2424                           prodl	equ	0xFF3
  2425                           intcon	equ	0xFF2
  2426                           indf0	equ	0xFEF
  2427                           postinc0	equ	0xFEE
  2428                           fsr0h	equ	0xFEA
  2429                           fsr0l	equ	0xFE9
  2430                           wreg	equ	0xFE8
  2431                           indf2	equ	0xFDF
  2432                           postinc2	equ	0xFDE
  2433                           postdec2	equ	0xFDD
  2434                           fsr2h	equ	0xFDA
  2435                           fsr2l	equ	0xFD9
  2436                           status	equ	0xFD8
  2437                           
  2438 ;; *************** function _InterruptsManager *****************
  2439 ;; Defined at:
  2440 ;;		line 16 in file "InterruptManager.c"
  2441 ;; Parameters:    Size  Location     Type
  2442 ;;		None
  2443 ;; Auto vars:     Size  Location     Type
  2444 ;;		None
  2445 ;; Return value:  Size  Location     Type
  2446 ;;                  1    wreg      void 
  2447 ;; Registers used:
  2448 ;;		wreg, status,2, cstack
  2449 ;; Tracked objects:
  2450 ;;		On entry : 0/0
  2451 ;;		On exit  : 0/0
  2452 ;;		Unchanged: 0/0
  2453 ;; Data sizes:     COMRAM   BANK0   BANK1   BANK2   BANK3   BANK4   BANK5   BANK6   BANK7   BANK8   BANK9  BANK10  BANK1
      +1  BANK12  BANK13  BANK14  BANK15
  2454 ;;      Params:         0       0       0       0       0       0       0       0       0       0       0       0       
      +0       0       0       0       0
  2455 ;;      Locals:         0       0       0       0       0       0       0       0       0       0       0       0       
      +0       0       0       0       0
  2456 ;;      Temps:         18       0       0       0       0       0       0       0       0       0       0       0       
      +0       0       0       0       0
  2457 ;;      Totals:        18       0       0       0       0       0       0       0       0       0       0       0       
      +0       0       0       0       0
  2458 ;;Total ram usage:       18 bytes
  2459 ;; Hardware stack levels used:    1
  2460 ;; Hardware stack levels required when called:    1
  2461 ;; This function calls:
  2462 ;;		_CCP4InterruptRoutine
  2463 ;; This function is called by:
  2464 ;;		Interrupt level 2
  2465 ;; This function uses a non-reentrant model
  2466 ;;
  2467                           
  2468                           	psect	intcode
  2469  000008                     __pintcode:
  2470                           	opt stack 0
  2471  000008                     _InterruptsManager:
  2472                           	opt stack 24
  2473                           
  2474                           ;incstack = 0
  2475  000008  8248               	bsf	btemp,1,c	;set compiler interrupt flag (level 2)
  2476  00000A  EDC5  F008         	call	int_func,f	;refresh shadow registers
  2477                           tblptru	equ	0xFF8
  2478                           tblptrh	equ	0xFF7
  2479                           tblptrl	equ	0xFF6
  2480                           tablat	equ	0xFF5
  2481                           prodh	equ	0xFF4
  2482                           prodl	equ	0xFF3
  2483                           intcon	equ	0xFF2
  2484                           indf0	equ	0xFEF
  2485                           postinc0	equ	0xFEE
  2486                           fsr0h	equ	0xFEA
  2487                           fsr0l	equ	0xFE9
  2488                           wreg	equ	0xFE8
  2489                           indf2	equ	0xFDF
  2490                           postinc2	equ	0xFDE
  2491                           postdec2	equ	0xFDD
  2492                           fsr2h	equ	0xFDA
  2493                           fsr2l	equ	0xFD9
  2494                           status	equ	0xFD8
  2495                           
  2496                           	psect	intcode_body
  2497  00118A                     __pintcode_body:
  2498                           	opt stack 24
  2499  00118A                     int_func:
  2500                           	opt stack 24
  2501  00118A  0006               	pop		; remove dummy address from shadow register refresh
  2502  00118C  CFFA F001          	movff	pclath,??_InterruptsManager
  2503  001190  CFFB F002          	movff	pclatu,??_InterruptsManager+1
  2504  001194  CFE9 F003          	movff	fsr0l,??_InterruptsManager+2
  2505  001198  CFEA F004          	movff	fsr0h,??_InterruptsManager+3
  2506  00119C  CFE1 F005          	movff	fsr1l,??_InterruptsManager+4
  2507  0011A0  CFE2 F006          	movff	fsr1h,??_InterruptsManager+5
  2508  0011A4  CFD9 F007          	movff	fsr2l,??_InterruptsManager+6
  2509  0011A8  CFDA F008          	movff	fsr2h,??_InterruptsManager+7
  2510  0011AC  CFF3 F009          	movff	prodl,??_InterruptsManager+8
  2511  0011B0  CFF4 F00A          	movff	prodh,??_InterruptsManager+9
  2512  0011B4  CFF6 F00B          	movff	tblptrl,??_InterruptsManager+10
  2513  0011B8  CFF7 F00C          	movff	tblptrh,??_InterruptsManager+11
  2514  0011BC  CFF8 F00D          	movff	tblptru,??_InterruptsManager+12
  2515  0011C0  CFF5 F00E          	movff	tablat,??_InterruptsManager+13
  2516  0011C4  C048  F00F         	movff	btemp,??_InterruptsManager+14
  2517  0011C8  C049  F010         	movff	btemp+1,??_InterruptsManager+15
  2518  0011CC  C04A  F011         	movff	btemp+2,??_InterruptsManager+16
  2519  0011D0  C04B  F012         	movff	btemp+3,??_InterruptsManager+17
  2520                           
  2521                           ;InterruptManager.c: 18: if(PIR3bits.CCP4IF == 1)
  2522  0011D4  B2A4               	btfsc	4004,1,c	;volatile
  2523                           
  2524                           ;InterruptManager.c: 19: {
  2525                           ;InterruptManager.c: 20: CCP4InterruptRoutine();
  2526  0011D6  EC3F  F00B         	call	_CCP4InterruptRoutine	;wreg free
  2527  0011DA  C012  F04B         	movff	??_InterruptsManager+17,btemp+3
  2528  0011DE  C011  F04A         	movff	??_InterruptsManager+16,btemp+2
  2529  0011E2  C010  F049         	movff	??_InterruptsManager+15,btemp+1
  2530  0011E6  C00F  F048         	movff	??_InterruptsManager+14,btemp
  2531  0011EA  C00E  FFF5         	movff	??_InterruptsManager+13,tablat
  2532  0011EE  C00D  FFF8         	movff	??_InterruptsManager+12,tblptru
  2533  0011F2  C00C  FFF7         	movff	??_InterruptsManager+11,tblptrh
  2534  0011F6  C00B  FFF6         	movff	??_InterruptsManager+10,tblptrl
  2535  0011FA  C00A  FFF4         	movff	??_InterruptsManager+9,prodh
  2536  0011FE  C009  FFF3         	movff	??_InterruptsManager+8,prodl
  2537  001202  C008  FFDA         	movff	??_InterruptsManager+7,fsr2h
  2538  001206  C007  FFD9         	movff	??_InterruptsManager+6,fsr2l
  2539  00120A  C006  FFE2         	movff	??_InterruptsManager+5,fsr1h
  2540  00120E  C005  FFE1         	movff	??_InterruptsManager+4,fsr1l
  2541  001212  C004  FFEA         	movff	??_InterruptsManager+3,fsr0h
  2542  001216  C003  FFE9         	movff	??_InterruptsManager+2,fsr0l
  2543  00121A  C002  FFFB         	movff	??_InterruptsManager+1,pclatu
  2544  00121E  C001  FFFA         	movff	??_InterruptsManager,pclath
  2545  001222  9248               	bcf	btemp,1,c	;clear compiler interrupt flag (level 2)
  2546  001224  0011               	retfie		f
  2547  001226                     __end_of_InterruptsManager:
  2548                           	opt stack 0
  2549                           pclatu	equ	0xFFB
  2550                           pclath	equ	0xFFA
  2551                           tblptru	equ	0xFF8
  2552                           tblptrh	equ	0xFF7
  2553                           tblptrl	equ	0xFF6
  2554                           tablat	equ	0xFF5
  2555                           prodh	equ	0xFF4
  2556                           prodl	equ	0xFF3
  2557                           intcon	equ	0xFF2
  2558                           indf0	equ	0xFEF
  2559                           postinc0	equ	0xFEE
  2560                           fsr0h	equ	0xFEA
  2561                           fsr0l	equ	0xFE9
  2562                           wreg	equ	0xFE8
  2563                           fsr1h	equ	0xFE2
  2564                           fsr1l	equ	0xFE1
  2565                           indf2	equ	0xFDF
  2566                           postinc2	equ	0xFDE
  2567                           postdec2	equ	0xFDD
  2568                           fsr2h	equ	0xFDA
  2569                           fsr2l	equ	0xFD9
  2570                           status	equ	0xFD8
  2571                           
  2572 ;; *************** function _CCP4InterruptRoutine *****************
  2573 ;; Defined at:
  2574 ;;		line 52 in file "CCP4.c"
  2575 ;; Parameters:    Size  Location     Type
  2576 ;;		None
  2577 ;; Auto vars:     Size  Location     Type
  2578 ;;		None
  2579 ;; Return value:  Size  Location     Type
  2580 ;;                  1    wreg      void 
  2581 ;; Registers used:
  2582 ;;		wreg, status,2
  2583 ;; Tracked objects:
  2584 ;;		On entry : 0/0
  2585 ;;		On exit  : 0/0
  2586 ;;		Unchanged: 0/0
  2587 ;; Data sizes:     COMRAM   BANK0   BANK1   BANK2   BANK3   BANK4   BANK5   BANK6   BANK7   BANK8   BANK9  BANK10  BANK1
      +1  BANK12  BANK13  BANK14  BANK15
  2588 ;;      Params:         0       0       0       0       0       0       0       0       0       0       0       0       
      +0       0       0       0       0
  2589 ;;      Locals:         0       0       0       0       0       0       0       0       0       0       0       0       
      +0       0       0       0       0
  2590 ;;      Temps:          0       0       0       0       0       0       0       0       0       0       0       0       
      +0       0       0       0       0
  2591 ;;      Totals:         0       0       0       0       0       0       0       0       0       0       0       0       
      +0       0       0       0       0
  2592 ;;Total ram usage:        0 bytes
  2593 ;; Hardware stack levels used:    1
  2594 ;; This function calls:
  2595 ;;		Nothing
  2596 ;; This function is called by:
  2597 ;;		_InterruptsManager
  2598 ;; This function uses a non-reentrant model
  2599 ;;
  2600                           
  2601                           	psect	text22
  2602  00167E                     __ptext22:
  2603                           	opt stack 0
  2604  00167E                     _CCP4InterruptRoutine:
  2605                           	opt stack 24
  2606                           
  2607                           ;CCP4.c: 55: PIR3bits.CCP4IF = 0;
  2608                           
  2609                           ;incstack = 0
  2610  00167E  92A4               	bcf	4004,1,c	;volatile
  2611                           
  2612                           ;CCP4.c: 61: CCP4Flag = 1;
  2613  001680  0E01               	movlw	1
  2614  001682  6E36               	movwf	_CCP4Flag,c
  2615  001684  0012               	return	
  2616  001686                     __end_of_CCP4InterruptRoutine:
  2617                           	opt stack 0
  2618                           pclatu	equ	0xFFB
  2619                           pclath	equ	0xFFA
  2620                           tblptru	equ	0xFF8
  2621                           tblptrh	equ	0xFF7
  2622                           tblptrl	equ	0xFF6
  2623                           tablat	equ	0xFF5
  2624                           prodh	equ	0xFF4
  2625                           prodl	equ	0xFF3
  2626                           intcon	equ	0xFF2
  2627                           indf0	equ	0xFEF
  2628                           postinc0	equ	0xFEE
  2629                           fsr0h	equ	0xFEA
  2630                           fsr0l	equ	0xFE9
  2631                           wreg	equ	0xFE8
  2632                           fsr1h	equ	0xFE2
  2633                           fsr1l	equ	0xFE1
  2634                           indf2	equ	0xFDF
  2635                           postinc2	equ	0xFDE
  2636                           postdec2	equ	0xFDD
  2637                           fsr2h	equ	0xFDA
  2638                           fsr2l	equ	0xFD9
  2639                           status	equ	0xFD8
  2640                           pclatu	equ	0xFFB
  2641                           pclath	equ	0xFFA
  2642                           tblptru	equ	0xFF8
  2643                           tblptrh	equ	0xFF7
  2644                           tblptrl	equ	0xFF6
  2645                           tablat	equ	0xFF5
  2646                           prodh	equ	0xFF4
  2647                           prodl	equ	0xFF3
  2648                           intcon	equ	0xFF2
  2649                           indf0	equ	0xFEF
  2650                           postinc0	equ	0xFEE
  2651                           fsr0h	equ	0xFEA
  2652                           fsr0l	equ	0xFE9
  2653                           wreg	equ	0xFE8
  2654                           fsr1h	equ	0xFE2
  2655                           fsr1l	equ	0xFE1
  2656                           indf2	equ	0xFDF
  2657                           postinc2	equ	0xFDE
  2658                           postdec2	equ	0xFDD
  2659                           fsr2h	equ	0xFDA
  2660                           fsr2l	equ	0xFD9
  2661                           status	equ	0xFD8
  2662                           
  2663                           	psect	rparam
  2664  0000                     pclatu	equ	0xFFB
  2665                           pclath	equ	0xFFA
  2666                           tblptru	equ	0xFF8
  2667                           tblptrh	equ	0xFF7
  2668                           tblptrl	equ	0xFF6
  2669                           tablat	equ	0xFF5
  2670                           prodh	equ	0xFF4
  2671                           prodl	equ	0xFF3
  2672                           intcon	equ	0xFF2
  2673                           indf0	equ	0xFEF
  2674                           postinc0	equ	0xFEE
  2675                           fsr0h	equ	0xFEA
  2676                           fsr0l	equ	0xFE9
  2677                           wreg	equ	0xFE8
  2678                           fsr1h	equ	0xFE2
  2679                           fsr1l	equ	0xFE1
  2680                           indf2	equ	0xFDF
  2681                           postinc2	equ	0xFDE
  2682                           postdec2	equ	0xFDD
  2683                           fsr2h	equ	0xFDA
  2684                           fsr2l	equ	0xFD9
  2685                           status	equ	0xFD8
  2686                           
  2687                           	psect	temp
  2688  000048                     btemp:
  2689                           	opt stack 0
  2690  000048                     	ds	1
  2691  0000                     int$flags	set	btemp
  2692  0000                     wtemp6	set	btemp+1
  2693                           pclatu	equ	0xFFB
  2694                           pclath	equ	0xFFA
  2695                           tblptru	equ	0xFF8
  2696                           tblptrh	equ	0xFF7
  2697                           tblptrl	equ	0xFF6
  2698                           tablat	equ	0xFF5
  2699                           prodh	equ	0xFF4
  2700                           prodl	equ	0xFF3
  2701                           intcon	equ	0xFF2
  2702                           indf0	equ	0xFEF
  2703                           postinc0	equ	0xFEE
  2704                           fsr0h	equ	0xFEA
  2705                           fsr0l	equ	0xFE9
  2706                           wreg	equ	0xFE8
  2707                           fsr1h	equ	0xFE2
  2708                           fsr1l	equ	0xFE1
  2709                           indf2	equ	0xFDF
  2710                           postinc2	equ	0xFDE
  2711                           postdec2	equ	0xFDD
  2712                           fsr2h	equ	0xFDA
  2713                           fsr2l	equ	0xFD9
  2714                           status	equ	0xFD8


Data Sizes:
    Strings     34
    Constant    10
    Data        0
    BSS         25
    Persistent  0
    Stack       0

Auto Spaces:
    Space          Size  Autos    Used
    COMRAM           94     46      71
    BANK0           160      0       0
    BANK1           256      0       0
    BANK2           256      0       0
    BANK3           256      0       0
    BANK4           256      0       0
    BANK5           256      0       0
    BANK6           256      0       0
    BANK7           256      0       0
    BANK8           256      0       0
    BANK9           256      0       0
    BANK10          256      0       0
    BANK11          256      0       0
    BANK12          256      0       0
    BANK13          256      0       0
    BANK14          256      0       0
    BANK15           96      0       0

Pointer List with Targets:

    sprintf@f	PTR const unsigned char  size(2) Largest target is 10
		 -> STR_3(CODE[10]), 

    sprintf@sp	PTR unsigned char  size(2) Largest target is 16
		 -> TextoLCD(COMRAM[16]), 

    sprintf@ap	PTR void [1] size(2) Largest target is 2
		 -> ?_sprintf(COMRAM[2]), 

    LCDPutStr@ptr	PTR const unsigned char  size(2) Largest target is 16
		 -> TextoLCD(COMRAM[16]), STR_2(CODE[13]), STR_1(CODE[11]), 


Critical Paths under _main in COMRAM

    _Intro->_LCDPutStr
    _LCDInit->_LCDPutInst
    _Port_BBSPIInit->_SendByteBBSPI
    _Imprimir->_sprintf
    _sprintf->___lwmod
    ___lwmod->___lwdiv
    _LCDPutStr->_LCDPutChar
    _LCDPutChar->_WritePort_BBSPI
    _LCDPutInst->_WritePort_BBSPI
    _WritePort_BBSPI->_SendByteBBSPI

Critical Paths under _InterruptsManager in COMRAM

    None.

Critical Paths under _main in BANK0

    None.

Critical Paths under _InterruptsManager in BANK0

    None.

Critical Paths under _main in BANK1

    None.

Critical Paths under _InterruptsManager in BANK1

    None.

Critical Paths under _main in BANK2

    None.

Critical Paths under _InterruptsManager in BANK2

    None.

Critical Paths under _main in BANK3

    None.

Critical Paths under _InterruptsManager in BANK3

    None.

Critical Paths under _main in BANK4

    None.

Critical Paths under _InterruptsManager in BANK4

    None.

Critical Paths under _main in BANK5

    None.

Critical Paths under _InterruptsManager in BANK5

    None.

Critical Paths under _main in BANK6

    None.

Critical Paths under _InterruptsManager in BANK6

    None.

Critical Paths under _main in BANK7

    None.

Critical Paths under _InterruptsManager in BANK7

    None.

Critical Paths under _main in BANK8

    None.

Critical Paths under _InterruptsManager in BANK8

    None.

Critical Paths under _main in BANK9

    None.

Critical Paths under _InterruptsManager in BANK9

    None.

Critical Paths under _main in BANK10

    None.

Critical Paths under _InterruptsManager in BANK10

    None.

Critical Paths under _main in BANK11

    None.

Critical Paths under _InterruptsManager in BANK11

    None.

Critical Paths under _main in BANK12

    None.

Critical Paths under _InterruptsManager in BANK12

    None.

Critical Paths under _main in BANK13

    None.

Critical Paths under _InterruptsManager in BANK13

    None.

Critical Paths under _main in BANK14

    None.

Critical Paths under _InterruptsManager in BANK14

    None.

Critical Paths under _main in BANK15

    None.

Critical Paths under _InterruptsManager in BANK15

    None.

Call Graph Tables:

 ---------------------------------------------------------------------------------
 (Depth) Function   	        Calls       Base Space   Used Autos Params    Refs
 ---------------------------------------------------------------------------------
 (0) _main                                                 2     2      0    7957
                                             44 COMRAM     2     2      0
                           _Imprimir
                _InterruptInitialize
                              _Intro
                         _LCDPutInst
                      _SysInitialize
                          _TMR1Write
 ---------------------------------------------------------------------------------
 (1) _TMR1Write                                            2     0      2     164
                                             18 COMRAM     2     0      2
 ---------------------------------------------------------------------------------
 (1) _SysInitialize                                        0     0      0       0
                     _CCP4Initialize
                     _TMR1Initialize
 ---------------------------------------------------------------------------------
 (2) _TMR1Initialize                                       0     0      0       0
                          _TMR1Start
 ---------------------------------------------------------------------------------
 (3) _TMR1Start                                            0     0      0       0
 ---------------------------------------------------------------------------------
 (2) _CCP4Initialize                                       0     0      0       0
 ---------------------------------------------------------------------------------
 (1) _Intro                                                0     0      0    3746
                         _IntroDelay
                            _LCDInit
                         _LCDPutInst
                          _LCDPutStr
 ---------------------------------------------------------------------------------
 (2) _LCDInit                                              1     1      0    1763
                                             25 COMRAM     1     1      0
                          _InitBBSPI
                         _LCDPutInst
                     _Port_BBSPIInit
                    _WritePort_BBSPI
 ---------------------------------------------------------------------------------
 (3) _Port_BBSPIInit                                       1     1      0     105
                                             21 COMRAM     1     1      0
                      _SendByteBBSPI
 ---------------------------------------------------------------------------------
 (3) _InitBBSPI                                            0     0      0       0
 ---------------------------------------------------------------------------------
 (2) _IntroDelay                                           3     3      0      30
                                             18 COMRAM     3     3      0
 ---------------------------------------------------------------------------------
 (1) _InterruptInitialize                                  0     0      0       0
 ---------------------------------------------------------------------------------
 (1) _Imprimir                                             0     0      0    3207
                         _LCDPutInst
                          _LCDPutStr
                            _sprintf
 ---------------------------------------------------------------------------------
 (2) _sprintf                                             23    17      6    1254
                                             30 COMRAM    14     8      6
                            ___lwdiv
                            ___lwmod
 ---------------------------------------------------------------------------------
 (3) ___lwmod                                              5     1      4     311
                                             25 COMRAM     5     1      4
                            ___lwdiv (ARG)
 ---------------------------------------------------------------------------------
 (3) ___lwdiv                                              7     3      4     314
                                             18 COMRAM     7     3      4
 ---------------------------------------------------------------------------------
 (2) _LCDPutStr                                            2     0      2    1113
                                             25 COMRAM     2     0      2
                         _LCDPutChar
 ---------------------------------------------------------------------------------
 (3) _LCDPutChar                                           2     2      0     840
                                             23 COMRAM     2     2      0
                    _WritePort_BBSPI
 ---------------------------------------------------------------------------------
 (1) _LCDPutInst                                           2     2      0     840
                                             23 COMRAM     2     2      0
                    _WritePort_BBSPI
 ---------------------------------------------------------------------------------
 (2) _WritePort_BBSPI                                      2     1      1     818
                                             21 COMRAM     2     1      1
                      _SendByteBBSPI
 ---------------------------------------------------------------------------------
 (3) _SendByteBBSPI                                        3     3      0      90
                                             18 COMRAM     3     3      0
 ---------------------------------------------------------------------------------
 Estimated maximum stack depth 3
 ---------------------------------------------------------------------------------
 (Depth) Function   	        Calls       Base Space   Used Autos Params    Refs
 ---------------------------------------------------------------------------------
 (6) _InterruptsManager                                   18    18      0       0
                                              0 COMRAM    18    18      0
               _CCP4InterruptRoutine
 ---------------------------------------------------------------------------------
 (7) _CCP4InterruptRoutine                                 0     0      0       0
 ---------------------------------------------------------------------------------
 Estimated maximum stack depth 7
 ---------------------------------------------------------------------------------

 Call Graph Graphs:

 _main (ROOT)
   _Imprimir
     _LCDPutInst
       _WritePort_BBSPI
         _SendByteBBSPI
     _LCDPutStr
       _LCDPutChar
         _WritePort_BBSPI
           _SendByteBBSPI
     _sprintf
       ___lwdiv
       ___lwmod
         ___lwdiv (ARG)
   _InterruptInitialize
   _Intro
     _IntroDelay
     _LCDInit
       _InitBBSPI
       _LCDPutInst
         _WritePort_BBSPI
           _SendByteBBSPI
       _Port_BBSPIInit
         _SendByteBBSPI
       _WritePort_BBSPI
         _SendByteBBSPI
     _LCDPutInst
       _WritePort_BBSPI
         _SendByteBBSPI
     _LCDPutStr
       _LCDPutChar
         _WritePort_BBSPI
           _SendByteBBSPI
   _LCDPutInst
     _WritePort_BBSPI
       _SendByteBBSPI
   _SysInitialize
     _CCP4Initialize
     _TMR1Initialize
       _TMR1Start
   _TMR1Write

 _InterruptsManager (ROOT)
   _CCP4InterruptRoutine

 Address spaces:
Name               Size   Autos  Total    Cost      Usage
BIGRAM             F5F      0       0      37        0.0%
EEDATA             400      0       0       0        0.0%
BITBANK14          100      0       0      33        0.0%
BANK14             100      0       0      34        0.0%
BITBANK13          100      0       0      30        0.0%
BANK13             100      0       0      31        0.0%
BITBANK12          100      0       0      28        0.0%
BANK12             100      0       0      29        0.0%
BITBANK11          100      0       0      26        0.0%
BANK11             100      0       0      27        0.0%
BITBANK10          100      0       0      24        0.0%
BANK10             100      0       0      25        0.0%
BITBANK9           100      0       0      22        0.0%
BANK9              100      0       0      23        0.0%
BITBANK8           100      0       0      20        0.0%
BANK8              100      0       0      21        0.0%
BITBANK7           100      0       0      18        0.0%
BANK7              100      0       0      19        0.0%
BITBANK6           100      0       0      16        0.0%
BANK6              100      0       0      17        0.0%
BITBANK5           100      0       0      14        0.0%
BANK5              100      0       0      15        0.0%
BITBANK4           100      0       0      12        0.0%
BANK4              100      0       0      13        0.0%
BITBANK3           100      0       0      10        0.0%
BANK3              100      0       0      11        0.0%
BITBANK2           100      0       0       8        0.0%
BANK2              100      0       0       9        0.0%
BITBANK1           100      0       0       6        0.0%
BANK1              100      0       0       7        0.0%
BITBANK0            A0      0       0       4        0.0%
BANK0               A0      0       0       5        0.0%
BITBANK15           60      0       0      35        0.0%
BANK15              60      0       0      36        0.0%
BITCOMRAM           5E      0       0       0        0.0%
COMRAM              5E     2E      47       1       75.5%
BITSFR               0      0       0     200        0.0%
SFR                  0      0       0     200        0.0%
STACK                0      0       0       2        0.0%
NULL                 0      0       0       0        0.0%
ABS                  0      0      47      32        0.0%
DATA                 0      0      47       3        0.0%
CODE                 0      0       0       0        0.0%


Microchip Technology PIC18 Macro Assembler V1.43 build -156212558 
Symbol Table                                                                                   Thu Sep 21 12:09:19 2017

                            _t 002F                    ?_LCDPutChar 0001                             l62 158A  
                           l47 1238                             l49 1280                             l97 14A0  
                           l99 14A8                             _t1 0033                             _t2 0031  
                  ?_LCDPutInst 0001                    __CFG_BORV$3 000000                   __CFG_CP0$OFF 000000  
                 __CFG_CP1$OFF 000000                   __CFG_CP2$OFF 000000                   __CFG_CP3$OFF 000000  
                 __CFG_CP4$OFF 000000                   __CFG_CP5$OFF 000000          SendByteBBSPI@bitcount 0014  
                 __CFG_CP6$OFF 000000                   __CFG_CP7$OFF 000000                            l100 14AA  
                          l101 14B4                            l102 14BA                            l118 1412  
                          l119 13E8                            l208 15F4                            l251 1080  
                          l244 1038                            l253 10A8                            l245 1052  
                          l257 10FA                            l258 1158                            l259 1100  
                          l670 147A                            l671 1484                            l680 150C  
                          l681 1516                            l666 145A                            l667 1452  
                          l676 14F4                            l677 14EC                            l888 1498  
                 __CFG_CPB$OFF 000000                            u330 145E                            u510 124C  
                          u360 14F8                            u450 10DE                   __CFG_CPD$OFF 000000  
                          u380 140A                            u390 1434                            u470 1160  
                          u607 130C                            u480 117C                            u528 124E  
                          u617 1328                            u627 1342                            u387 1400  
                          u547 1394                            u637 135A                            u397 142A  
                          u557 13BC                            u647 1372                            u567 1594  
                          u577 12C2                            u587 12DC                            u597 12F4  
                          _aux 0035                            wreg 000FE8              _InterruptsManager 0008  
                 __CFG_MODE$MC 000000                __end_of_LCDInit 13E6                   __CFG_LVP$OFF 000000  
                 __CFG_WDT$OFF 000000                           l1054 1582             ?_InterruptsManager 0001  
                         l1398 10AC                           STR_1 1018                           STR_2 100B  
                         STR_3 1023                           _LATD 000F8C          ??_InterruptInitialize 0013  
                 __CFG_PWRT$ON 000000                           _main 1226                           fsr0h 000FEA  
                         fsr1h 000FE2                           indf0 000FEF                           fsr2h 000FDA  
                         fsr0l 000FE9                           indf2 000FDF                           fsr1l 000FE1  
                         fsr2l 000FD9                           btemp 0048               ?_WritePort_BBSPI 0016  
          ??_InterruptsManager 0001                           prodh 000FF4                           prodl 000FF3  
                         start 000E             __size_of_LCDPutStr 0056                  __CFG_IESO$OFF 000000  
        ?_CCP4InterruptRoutine 0001                  _SysInitialize 15A6                  __CFG_MCLRE$ON 000000  
                 ___param_bank 000000                  __CFG_WAIT$OFF 000000                          ?_main 0001  
              __end_of___lwdiv 148E                __end_of___lwmod 1520                          _TMR1H 000FCF  
                        _TMR1L 000FCE      __end_of_InterruptsManager 1226                  __CFG_WRT0$OFF 000000  
                __CFG_WRT1$OFF 000000                  __CFG_WRT2$OFF 000000                  __CFG_WRT3$OFF 000000  
                __CFG_WRT4$OFF 000000                  __CFG_WRT5$OFF 000000                  __CFG_WRT6$OFF 000000  
                __CFG_WRT7$OFF 000000                 __CFG_EBTR0$OFF 000000                 __CFG_FCMEN$OFF 000000  
                        _Intro 1550                 __CFG_EBTR1$OFF 000000                 __CFG_EBTR2$OFF 000000  
               __CFG_EBTR3$OFF 000000                 __CFG_EBTR4$OFF 000000                 __CFG_EBTR5$OFF 000000  
               __CFG_EBTR6$OFF 000000                 __CFG_EBTR7$OFF 000000                  __CFG_WRTB$OFF 000000  
      __size_of_Port_BBSPIInit 001A                  __CFG_WRTC$OFF 000000                  __CFG_WRTD$OFF 000000  
               __CFG_EBTRB$OFF 000000             __size_of_TMR1Start 0004                __end_of_dpowers 100B  
           __size_of_TMR1Write 001C                          pclath 000FFA                          tablat 000FF5  
          __size_of_LCDPutChar 0066            __size_of_LCDPutInst 0066                          status 000FD8  
                        wtemp6 0049                __end_of_sprintf 118A                 ?_SysInitialize 0001  
              __initialization 164E                   __end_of_main 12BA                 __CFG_OSC$HSPLL 000000  
             __end_of_Imprimir 1550                         ??_main 002D                  __activetblptr 000003  
                    ??_LCDInit 001A                   LCDPutChar@ch 0019              __end_of_LCDPutStr 143C  
                   _IntroDelay 157E                         ?_Intro 0001             __size_of_InitBBSPI 0012  
                       _CCPR4H 000F75                         _CCPR4L 000F74                   LCDPutInst@ch 0019  
              __CFG_BBSIZ$BB2K 000000                   LCDPutStr@ptr 001A         ??_CCP4InterruptRoutine 0001  
                   _Timer1Flag 0037                 __CFG_XINST$OFF 000000              __end_of_TMR1Start 168A  
               __CFG_STVREN$ON 000000              __end_of_TMR1Write 15FE                      ??___lwdiv 0017  
                    ??___lwmod 001E                    IntroDelay@i 0015                         clear_0 1654  
   __size_of_InterruptsManager 121E         Port_BBSPIInit@port_dir 0016                   __mediumconst 0000  
                       tblptrh 000FF7                         tblptrl 000FF6                         tblptru 000FF8  
                    ??_sprintf 0025                     __accesstop 0060        __end_of__initialization 165A  
              ??_SysInitialize 0013                  ___rparam_used 000001         __size_of_SendByteBBSPI 0050  
      __size_of_TMR1Initialize 001C                 __pcstackCOMRAM 0001        __size_of_CCP4Initialize 001E  
                __end_of_Intro 157E              __end_of_InitBBSPI 1676                   ??_LCDPutChar 0018  
                 ??_LCDPutInst 0018                    ?_IntroDelay 0001                 _Port_BBSPIInit 161A  
                      ??_Intro 001C             __end_of_LCDPutChar 1320             __end_of_LCDPutInst 1386  
                    ?_Imprimir 0001         __end_of_Port_BBSPIInit 1634                        _LCDInit 1386  
                _SendByteBBSPI 148E    __end_of_InterruptInitialize 167E               WritePort_BBSPI@a 0016  
                   ??_Imprimir 002D                        __Hparam 0000                        __Lparam 0000  
          __size_of_IntroDelay 0028                        ___lwdiv 143C                        ___lwmod 14DE  
     __size_of_WritePort_BBSPI 001A                   __psmallconst 1000                        __pcinit 164E  
                      __ramtop 1000                        __ptext0 1226                        __ptext1 15E2  
                      __ptext2 15A6                        __ptext3 15FE                        __ptext4 1686  
                      __ptext5 15C4                        __ptext6 1550                        __ptext7 1386  
                      __ptext8 161A                        __ptext9 1664                      _T1CONbits 000FCD  
               ?_SendByteBBSPI 0001                ?_Port_BBSPIInit 0001                        _dpowers 1001  
                    _T3CONbits 000FB1                        _sprintf 102E                      _LCDPutStr 13E6  
               __pintcode_body 118A           end_of_initialization 165A                        int_func 118A  
               _TMR1Initialize 15FE                 _CCP4Initialize 15C4                        postdec2 000FDD  
                      postinc0 000FEE                        postinc2 000FDE                      _PORTAbits 000F80  
                    _PORTBbits 000F81                      _TMR1Start 1686                      _PORTDbits 000F83  
                    _TMR1Write 15E2                      _TRISAbits 000F92                      _TRISBbits 000F93  
                    _TRISCbits 000F94                      _TRISDbits 000F95                      _TRISFbits 000F97  
                    _TRISGbits 000F98                     ?_LCDPutStr 001A            SendByteBBSPI@output 0013  
       __end_of_TMR1Initialize 161A         __end_of_CCP4Initialize 15E2                    _CCP4CONbits 000F73  
__size_of_CCP4InterruptRoutine 0008                ??_SendByteBBSPI 0013                     ?_TMR1Start 0001  
                   ?_TMR1Write 0013                      _InitBBSPI 1664                   ??_IntroDelay 0013  
            ??_WritePort_BBSPI 0017            start_initialization 164E                ?_TMR1Initialize 0001  
              ?_CCP4Initialize 0001          __end_of_SysInitialize 15C4              __size_of_Imprimir 0030  
           __end_of_IntroDelay 15A6               __CFG_LPT1OSC$OFF 000000                     ?_InitBBSPI 0001  
                     ?_LCDInit 0001                    __pbssCOMRAM 002F                    ??_LCDPutStr 001C  
                  sprintf@flag 0028                    sprintf@prec 0029               ___lwdiv@dividend 0013  
            __CFG_CCP2MX$PORTC 000000                      __pintcode 0008                       ?___lwdiv 0013  
                     ?___lwmod 001A               ??_Port_BBSPIInit 0016                    ??_TMR1Start 0013  
                  ??_TMR1Write 0015                    __smallconst 1000                       _CCP4Flag 0036  
               __size_of_Intro 002E               ___lwdiv@quotient 0017                       ?_sprintf 001F  
 __size_of_InterruptInitialize 0008                       _LATAbits 000F89                       _LATCbits 000F8B  
                     _LATFbits 000F8E                       _LATGbits 000F8F                       _PIE1bits 000F9D  
                     _PIE3bits 000FA3                       _PIR1bits 000F9E                       _PIR3bits 000FA4  
        __CFG_DATABW$DATA16BIT 000000                       _RCONbits 000FD0               __CFG_WDTPS$32768 000000  
            __CFG_ECCPMX$PORTE 000000                     _ADCON1bits 000FC1                    ??_InitBBSPI 0013  
           SendByteBBSPI@input 0015               __size_of_LCDInit 0060                       _Imprimir 1520  
                     __Hrparam 0000                       __Lrparam 0000             __CFG_BOREN$SBORDIS 000000  
                     _TextoLCD 0038                _WritePort_BBSPI 1634               __size_of___lwdiv 0052  
             __size_of___lwmod 0042               TMR1Write@ValTMR1 0013                     sprintf@val 002A  
 __end_of_CCP4InterruptRoutine 1686                ___lwdiv@divisor 0015                ___lwdiv@counter 0019  
                     __ptext10 157E                       __ptext11 1676                       __ptext20 148E  
                     __ptext12 1520                       __ptext13 102E                       __ptext22 167E  
                     __ptext14 14DE                       __ptext15 143C                       __ptext16 13E6  
                     __ptext17 12BA                       __ptext18 1320                       __ptext19 1634  
             ??_TMR1Initialize 0013               ??_CCP4Initialize 0013               __size_of_sprintf 015C  
                __size_of_main 0094                       int$flags 0048                     _LCDPutChar 12BA  
                   _LCDPutInst 1320          __end_of_SendByteBBSPI 14DE          __CFG_ADDRBW$ADDR20BIT 000000  
                   _INTCONbits 000FF2                       intlevel2 0000                      sprintf@ap 0026  
                    sprintf@sp 001F               ___lwmod@dividend 001A        __end_of_WritePort_BBSPI 164E  
          _InterruptInitialize 1676                       sprintf@c 002C                       sprintf@f 0021  
      WritePort_BBSPI@port_add 0017                ___lwmod@divisor 001C                ___lwmod@counter 001E  
       __size_of_SysInitialize 001E           ?_InterruptInitialize 0001           _CCP4InterruptRoutine 167E  
