:0400000007EF00F016
:0A0008004882C5ED08F027EF0BF069
:101000000001000A006400E80310274D6F646F20A0
:1010100043617074757261004D6F64756C6F20432D
:1010200043500043435034203D2025640000230EEC
:10103000266E000E276E94D0250E2C18D8B409D039
:101040001FC0D9FF20C0DAFF2CC0DFFF1F4A202AB3
:1010500087D0000E286E21C0F6FF22C0F7FF214A7C
:10106000222A000EF86E0800F5CF2CF02C50000A52
:10107000D8B484D0640AD8B403D00D0AD8A470D0F0
:1010800026C0D9FF27C0DAFFDECF2AF0DDCF2BF054
:10109000020E2626000E27222BAE06D0030E2812A3
:1010A0002A6C2B1ED8B02B2A010E2C6E050E2C1884
:1010B000D8B415D02C50020D010EF324F66E100E8C
:1010C000F420F76EF86A000EF8220900F5502A5C49
:1010D0000900F5502B58D8A002D02C2AE7D728C0F9
:1010E00025F0030E2516D8B408D01FC0D9FF20C0A4
:1010F000DAFF2D0EDF6E1F4A202A2CC029F02CD0DB
:101100002950020D010EF324F66E100EF420F76E36
:10111000F86A000EF8220900F5CF15F00A00F5CFA5
:1011200016F02AC013F02BC014F01EEC0AF013C006
:101130001AF014C01BF0000E1D6E0A0E1C6E6FEC30
:101140000AF01A50300F2C6E1FC0D9FF20C0DAFFF2
:101150002CC0DFFF1F4A202A29062928D8A4D0D76F
:1011600021C0F6FF22C0F7FF214A222A000EF86EA6
:101170000800F5CF2CF02C50D8A45ED71FC0D9FFA3
:1011800020C0DAFF000EDF6E12000600FACF01F079
:10119000FBCF02F0E9CF03F0EACF04F0E1CF05F096
:1011A000E2CF06F0D9CF07F0DACF08F0F3CF09F09D
:1011B000F4CF0AF0F6CF0BF0F7CF0CF0F8CF0DF02C
:1011C000F5CF0EF048C00FF049C010F04AC011F042
:1011D0004BC012F0A4B23FEC0BF012C04BF011C0A8
:1011E0004AF010C049F00FC048F00EC0F5FF0DC026
:1011F000F8FF0CC0F7FF0BC0F6FF0AC0F4FF09C0F0
:10120000F3FF08C0DAFF07C0D9FF06C0E2FF05C040
:10121000E1FF04C0EAFF03C0E9FF02C0FBFF01C019
:10122000FAFF48921100D3EC0AF03BEC0BF0A8EC6B
:101230000AF0010E90EC09F03650D8B4FDD7000E3C
:10124000366E83B003D02D6A2D2A01D02D6A8350CB
:101250002D18FE0B2D18836E75CF2FF0306A2F508E
:10126000306E2F6A74502F26000E30223550D8A4CD
:1012700007D02FC033F030C034F0010E356EDCD70C
:101280002FC031F030C032F033C02DF034C02EF01A
:101290002D1E2E1E2D4A2E2A31502D242F6E3250F7
:1012A0002E20306E90EC0AF0000E356E000E146E9B
:1012B000000E136EF1EC0AF0BFD7196E410E186ED6
:1012C000EE0EE82EFED7182EFCD700D0800E166E3C
:1012D000120E1AEC0BF00D0E186EFC0EE82EFED757
:1012E000182EFCD719C016F0130E1AEC0BF00D0EC9
:1012F000186EFC0EE82EFED7182EFCD7C00E166E08
:10130000120E1AEC0BF00D0E186EFC0EE82EFED726
:10131000182EFCD7000E166E120E1AEC0BF01200EF
:10132000196E410E186EEE0EE82EFED7182EFCD761
:1013300000D0000E166E120E1AEC0BF00D0E186E89
:10134000FC0EE82EFED7182EFCD719C016F0130E8F
:101350001AEC0BF00D0E186EFC0EE82EFED7182EB0
:10136000FCD7400E166E120E1AEC0BF00D0E186E16
:10137000FC0EE82EFED7182EFCD7000E166E120EAD
:101380001AEC0BF0120032EC0BF0979C8E9C410E85
:101390001A6EEE0EE82EFED71A2EFCD700D08E8CD9
:1013A000000E0DEC0BF0010E0DEC0BF0000E166EA6
:1013B000120E1AEC0BF0C30E1A6ECD0EE82EFED7ED
:1013C0001A2EFCD700F0320E90EC09F03C0E90EC97
:1013D00009F00C0E90EC09F0010E90EC09F0060EED
:1013E00090EC09F0120015D01AC0F6FF1BC0F7FFF1
:1013F000000EF86E0F0EF76403D00800F55005D00C
:10140000F6CFE9FFF7CFEAFFEF505DEC09F01A4A9B
:101410001B2A1AC0F6FF1BC0F7FF000EF86E0F0E56
:10142000F76403D00800F55005D0F6CFE9FFF7CFF9
:10143000EAFFEF500009D8B41200D6D7000E186E9C
:10144000000E176E15501610D8B41CD0010E196E70
:1014500004D0D89015361636192A16AEFAD7D89079
:10146000173618361550135C16501458D8A005D0EE
:101470001550135E1650145A1780D8901632153234
:10148000192EEDD717C013F018C014F01200136E08
:1014900013C015F0000E146E070E146401D0120074
:1014A00013AE02D08B8A01D08B9A8BA803D0D88040
:1014B000153603D015501524156E8B8600F000F0FC
:1014C00000F000F000F000F000F000F000F000F09C
:1014D00000F000F08B96D8901336142ADDD71C50FC
:1014E0001D10D8B418D0010E1E6E04D0D8901C3632
:1014F0001D361E2A1DAEFAD71C501A5C1D501B58F3
:10150000D8A004D01C501A5E1D501B5AD8901D3212
:101510001C321E2EF1D71AC01AF01BC01BF012008D
:10152000800E90EC09F0380E1F6E000E206E230E18
:10153000216E100E226E2FC023F030C024F017EC65
:1015400008F0380E1A6E000E1B6EF3EC09F0120054
:10155000C3EC09F0800E90EC09F0180E1A6E100E14
:101560001B6EF3EC09F0C00E90EC09F00B0E1A6E36
:10157000100E1B6EF3EC09F0BFEC0AF01200000E27
:10158000156E630E156401D01200020E146E040E67
:10159000136EBA0EE82EFED7132EFCD7142EFAD7F0
:1015A00000D0152AEED7C150F00B0E09C16E928AF9
:1015B0009380000E8C6E95908380FFEC0AF0E2EC35
:1015C0000AF01200B196B19C739073927394739663
:1015D0007350F00B0509736EA492A3828F969886C0
:1015E0001200CDA407D0CD901450CF6E13C0CEFF03
:1015F000CD8012001450CF6E13C0CEFF1200CD90DC
:10160000CD92CD96CF0ECD169E909D90000ECF6EB2
:10161000000ECE6E43EC0BF01200166E8994400E55
:1016200047EC0AF0165047EC0AF0000E47EC0AF0BF
:1016300089841200176E8994400E47EC0AF0175007
:1016400047EC0AF0165047EC0AF08984120000EECD
:101650002FF0190EEE6AE806FDE14890489200016D
:1016600013EF09F092949488949A949689848B88C5
:101670008B9A8B961200D09EF28EF28C1200A4925E
:0A168000010E366E1200CD8012003C
:020000040020DA
:08000000FFFFFFFFFFFFFFFF00
:020000040030CA
:0E000000FF061E1EF38381FFFFC0FFE0FF40DE
:00000001FF
