

Microchip Technology PIC18 LITE Macro Assembler V1.31 build 56723 
                                                                                               Fri May 09 18:47:32 2014

Microchip Technology Omniscient Code Generator (Lite mode) build 56723
     1                           	processor	18F4550
     2                           	fnconf	rparam,??,?,0
     3                           	opt	pw 120
     4                           	opt	lm
     5                           	psect	idataCOMRAM,global,class=CODE,delta=1
     6                           	psect	smallconst,global,reloc=2,class=SMALLCONST,delta=1
     7                           	psect	cinit,global,reloc=2,class=CODE,delta=1
     8                           	psect	dataCOMRAM,global,class=COMRAM,space=1,delta=1
     9                           	psect	cstackCOMRAM,global,class=COMRAM,space=1,delta=1
    10                           	psect	text0,global,reloc=2,class=CODE,delta=1
    11                           	psect	text1,global,reloc=2,class=CODE,delta=1
    12                           	psect	text2,global,reloc=2,class=CODE,delta=1
    13                           	psect	text3,global,reloc=2,class=CODE,delta=1
    14                           	psect	text4,global,reloc=2,class=CODE,delta=1
    15                           	psect	text5,global,reloc=2,class=CODE,delta=1
    16                           	psect	text6,global,reloc=2,class=CODE,delta=1
    17                           	psect	text7,global,reloc=2,class=CODE,delta=1
    18                           	psect	text8,global,reloc=2,class=CODE,delta=1
    19                           	psect	text9,global,reloc=2,class=CODE,delta=1
    20                           	psect	text10,global,reloc=2,class=CODE,delta=1
    21                           	psect	text11,global,reloc=2,class=CODE,delta=1
    22                           	psect	text12,global,reloc=2,class=CODE,delta=1
    23                           	psect	text13,global,reloc=2,class=CODE,delta=1
    24                           	psect	intsave_regs,global,class=BIGRAM,space=1,delta=1
    25                           	psect	rparam,global,class=COMRAM,space=1,delta=1
    26  0000                     
    27                           	psect	idataCOMRAM
    28  000B2C                     __pidataCOMRAM:
    29                           	opt stack 0
    30                           
    31                           ;initializer for main@F5306
    32  000B2C  44                 	db	68
    33  000B2D  49                 	db	73
    34  000B2E  47                 	db	71
    35  000B2F  49                 	db	73
    36  000B30  54                 	db	84
    37  000B31  45                 	db	69
    38  000B32  20                 	db	32
    39  000B33  4C                 	db	76
    40  000B34  41                 	db	65
    41  000B35  20                 	db	32
    42  000B36  43                 	db	67
    43  000B37  4C                 	db	76
    44  000B38  41                 	db	65
    45  000B39  56                 	db	86
    46  000B3A  45                 	db	69
    47  000B3B  3A                 	db	58
    48  000B3C  00                 	db	0
    49                           
    50                           ;initializer for _KeyCodes
    51  000B3D  31                 	db	49
    52  000B3E  32                 	db	50
    53  000B3F  33                 	db	51
    54  000B40  41                 	db	65
    55  000B41  34                 	db	52
    56  000B42  35                 	db	53
    57  000B43  36                 	db	54
    58  000B44  42                 	db	66
    59  000B45  37                 	db	55
    60  000B46  38                 	db	56
    61  000B47  39                 	db	57
    62  000B48  43                 	db	67
    63  000B49  2A                 	db	42
    64  000B4A  30                 	db	48
    65  000B4B  23                 	db	35
    66  000B4C  44                 	db	68
    67                           
    68                           ;initializer for main@F5308
    69  000B4D  30                 	db	48
    70  000B4E  30                 	db	48
    71  000B4F  30                 	db	48
    72  000B50  30                 	db	48
    73  0000                     _ADCON1	set	4033
    74  0000                     _LATEbits	set	3981
    75  0000                     _PORTB	set	3969
    76  0000                     _PORTD	set	3971
    77  0000                     _TRISB	set	3987
    78  0000                     _TRISD	set	3989
    79  0000                     _TRISEbits	set	3990
    80                           
    81                           	psect	smallconst
    82  000800                     __psmallconst:
    83                           	opt stack 0
    84  000800  00                 	db	0
    85  000801                     __stringdata:
    86                           	opt stack 0
    87  000801                     STR_1:
    88  000801  43                 	db	67	;'C'
    89  000802  6C                 	db	108	;'l'
    90  000803  61                 	db	97	;'a'
    91  000804  76                 	db	118	;'v'
    92  000805  65                 	db	101	;'e'
    93  000806  3A                 	db	58	;':'
    94  000807  20                 	db	32
    95  000808  00                 	db	0
    96  000809                     __end_of__stringdata:
    97                           	opt stack 0
    98                           
    99                           ; #config settings
   100  000809  00                 	db	0	; dummy byte at the end
   101  0000                     
   102                           	psect	cinit
   103  000ADC                     __pcinit:
   104                           	opt stack 0
   105  000ADC                     start_initialization:
   106                           	opt stack 0
   107  000ADC                     __initialization:
   108                           	opt stack 0
   109                           
   110                           ; Initialize objects allocated to COMRAM (37 bytes)
   111                           ; load TBLPTR registers with __pidataCOMRAM
   112  000ADC  0E2C               	movlw	low __pidataCOMRAM
   113  000ADE  6EF6               	movwf	tblptrl,c
   114  000AE0  0E0B               	movlw	high __pidataCOMRAM
   115  000AE2  6EF7               	movwf	tblptrh,c
   116  000AE4  0E00               	movlw	low (__pidataCOMRAM shr (0+16))
   117  000AE6  6EF8               	movwf	tblptru,c
   118  000AE8  EE00  F001         	lfsr	0,__pdataCOMRAM
   119  000AEC  EE10 F025          	lfsr	1,37
   120  000AF0                     copy_data0:
   121  000AF0  0009               	tblrd		*+
   122  000AF2  CFF5 FFEE          	movff	tablat,postinc0
   123  000AF6  50E5               	movf	postdec1,w,c
   124  000AF8  50E1               	movf	fsr1l,w,c
   125  000AFA  E1FA               	bnz	copy_data0
   126  000AFC                     end_of_initialization:
   127                           	opt stack 0
   128  000AFC                     __end_of__initialization:
   129                           	opt stack 0
   130  000AFC  0E00               	movlw	low (__Lmediumconst shr (0+16))
   131  000AFE  6EF8               	movwf	tblptru,c
   132  000B00  0100               	movlb	0
   133  000B02  EF6F  F004         	goto	_main	;jump to C main() function
   134                           tblptru	equ	0xFF8
   135                           tblptrh	equ	0xFF7
   136                           tblptrl	equ	0xFF6
   137                           tablat	equ	0xFF5
   138                           postinc0	equ	0xFEE
   139                           postdec1	equ	0xFE5
   140                           fsr1l	equ	0xFE1
   141                           
   142                           	psect	dataCOMRAM
   143  000001                     __pdataCOMRAM:
   144                           	opt stack 0
   145  000001                     main@F5306:
   146                           	opt stack 0
   147  000001                     	ds	17
   148  000012                     _KeyCodes:
   149                           	opt stack 0
   150  000012                     	ds	16
   151  000022                     main@F5308:
   152                           	opt stack 0
   153  000022                     	ds	4
   154                           tblptru	equ	0xFF8
   155                           tblptrh	equ	0xFF7
   156                           tblptrl	equ	0xFF6
   157                           tablat	equ	0xFF5
   158                           postinc0	equ	0xFEE
   159                           postdec1	equ	0xFE5
   160                           fsr1l	equ	0xFE1
   161                           
   162                           	psect	cstackCOMRAM
   163  000026                     __pcstackCOMRAM:
   164                           	opt stack 0
   165  000026                     ??_DelayPORXLCD:
   166  000026                     ??_Delay10KTCYx:
   167  000026                     ??_ScanKEYPAD:
   168  000026                     SetDDRamAddr@DDaddr:
   169                           	opt stack 0
   170  000026                     WriteCmdXLCD@cmd:
   171                           	opt stack 0
   172  000026                     WriteDataXLCD@data:
   173                           	opt stack 0
   174                           
   175                           ; 1 bytes @ 0x0
   176  000026                     	ds	1
   177  000027                     Delay10KTCYx@unit:
   178                           	opt stack 0
   179  000027                     putsXLCD@buffer:
   180                           	opt stack 0
   181                           
   182                           ; 2 bytes @ 0x1
   183  000027                     	ds	1
   184  000028                     OpenXLCD@lcdtype:
   185                           	opt stack 0
   186                           
   187                           ; 1 bytes @ 0x2
   188  000028                     	ds	1
   189  000029                     
   190                           ; 0 bytes @ 0x3
   191  000029                     	ds	2
   192  00002B                     ScanKEYPAD@tmp:
   193                           	opt stack 0
   194                           
   195                           ; 1 bytes @ 0x5
   196  00002B                     	ds	1
   197  00002C                     ScanKEYPAD@idx:
   198                           	opt stack 0
   199                           
   200                           ; 1 bytes @ 0x6
   201  00002C                     	ds	1
   202  00002D                     ScanKEYPAD@key:
   203                           	opt stack 0
   204                           
   205                           ; 1 bytes @ 0x7
   206  00002D                     	ds	1
   207  00002E                     ScanKEYPAD@wait:
   208                           	opt stack 0
   209                           
   210                           ; 2 bytes @ 0x8
   211  00002E                     	ds	2
   212  000030                     ScanKEYPAD@row:
   213                           	opt stack 0
   214                           
   215                           ; 1 bytes @ 0xA
   216  000030                     	ds	1
   217  000031                     ScanKEYPAD@col:
   218                           	opt stack 0
   219                           
   220                           ; 1 bytes @ 0xB
   221  000031                     	ds	1
   222  000032                     KEYPADRead@key:
   223                           	opt stack 0
   224                           
   225                           ; 1 bytes @ 0xC
   226  000032                     	ds	1
   227  000033                     GetkeyKEYPAD@mykey:
   228                           	opt stack 0
   229                           
   230                           ; 1 bytes @ 0xD
   231  000033                     	ds	1
   232  000034                     ??_main:
   233                           
   234                           ; 0 bytes @ 0xE
   235  000034                     	ds	1
   236  000035                     main@Mensaje1:
   237                           	opt stack 0
   238                           
   239                           ; 17 bytes @ 0xF
   240  000035                     	ds	17
   241  000046                     main@Clave:
   242                           	opt stack 0
   243                           
   244                           ; 4 bytes @ 0x20
   245  000046                     	ds	4
   246  00004A                     main@i:
   247                           	opt stack 0
   248                           
   249                           ; 1 bytes @ 0x24
   250  00004A                     	ds	1
   251                           tblptru	equ	0xFF8
   252                           tblptrh	equ	0xFF7
   253                           tblptrl	equ	0xFF6
   254                           tablat	equ	0xFF5
   255                           postinc0	equ	0xFEE
   256                           postdec1	equ	0xFE5
   257                           fsr1l	equ	0xFE1
   258                           
   259 ;;
   260 ;;Main: autosize = 0, tempsize = 1, incstack = 0, save=0
   261 ;;
   262 ;; *************** function _main *****************
   263 ;; Defined at:
   264 ;;		line 20 in file "main.c"
   265 ;; Parameters:    Size  Location     Type
   266 ;;		None
   267 ;; Auto vars:     Size  Location     Type
   268 ;;  Mensaje1       17   15[COMRAM] unsigned char [17]
   269 ;;  Clave           4   32[COMRAM] unsigned char [4]
   270 ;;  i               1   36[COMRAM] unsigned char 
   271 ;; Return value:  Size  Location     Type
   272 ;;		None               void
   273 ;; Registers used:
   274 ;;		wreg, fsr1l, fsr1h, fsr2l, fsr2h, status,2, status,0, tblptrl, tblptrh, tblptru, prodl, prodh, cstack
   275 ;; Tracked objects:
   276 ;;		On entry : 0/0
   277 ;;		On exit  : 0/0
   278 ;;		Unchanged: 0/0
   279 ;; Data sizes:     COMRAM   BANK0   BANK1   BANK2   BANK3   BANK4   BANK5   BANK6   BANK7
   280 ;;      Params:         0       0       0       0       0       0       0       0       0
   281 ;;      Locals:        22       0       0       0       0       0       0       0       0
   282 ;;      Temps:          1       0       0       0       0       0       0       0       0
   283 ;;      Totals:        23       0       0       0       0       0       0       0       0
   284 ;;Total ram usage:       23 bytes
   285 ;; Hardware stack levels required when called:    4
   286 ;; This function calls:
   287 ;;		_BusyXLCD
   288 ;;		_GetkeyKEYPAD
   289 ;;		_IniciaLCD
   290 ;;		_SetDDRamAddr
   291 ;;		_WriteDataXLCD
   292 ;;		_putsXLCD
   293 ;; This function is called by:
   294 ;;		Startup code after reset
   295 ;; This function uses a non-reentrant model
   296 ;;
   297                           
   298                           	psect	text0
   299  0008DE                     __ptext0:
   300                           	opt stack 0
   301  0008DE                     _main:
   302                           	opt stack 27
   303                           
   304                           ;main.c: 22: ADCON1 = 0x0F;
   305                           
   306                           ;incstack = 0
   307  0008DE  0E0F               	movlw	15
   308  0008E0  6EC1               	movwf	4033,c	;volatile
   309                           
   310                           ;main.c: 24: char Mensaje1[] = "DIGITE LA CLAVE:";
   311  0008E2  EE20  F001         	lfsr	2,main@F5306
   312  0008E6  EE10  F035         	lfsr	1,main@Mensaje1
   313  0008EA  0E11               	movlw	17
   314  0008EC                     u301:
   315  0008EC  CFDE FFE6          	movff	postinc2,postinc1
   316  0008F0  2EE8               	decfsz	wreg,f,c
   317  0008F2  D7FC               	goto	u301
   318                           
   319                           ;main.c: 25: char Clave[4] = {'0','0','0','0'};
   320  0008F4  C022  F046         	movff	main@F5308,main@Clave
   321  0008F8  C023  F047         	movff	main@F5308+1,main@Clave+1
   322  0008FC  C024  F048         	movff	main@F5308+2,main@Clave+2
   323  000900  C025  F049         	movff	main@F5308+3,main@Clave+3
   324                           
   325                           ;main.c: 26: char i;
   326                           ;main.c: 28: IniciaLCD();
   327  000904  EC55  F005         	call	_IniciaLCD	;wreg free
   328                           
   329                           ;main.c: 29: putsXLCD(Mensaje1); while(BusyXLCD());
   330  000908  0E00               	movlw	high main@Mensaje1
   331  00090A  6E28               	movwf	putsXLCD@buffer+1,c
   332  00090C  0E35               	movlw	low main@Mensaje1
   333  00090E  6E27               	movwf	putsXLCD@buffer,c
   334  000910  EC27  F005         	call	_putsXLCD	;wreg free
   335  000914                     l1077:
   336  000914  ECCC  F005         	call	_BusyXLCD	;wreg free
   337  000918  0900               	iorlw	0
   338  00091A  A4D8               	btfss	status,2,c
   339  00091C  D7FB               	goto	l1077
   340                           
   341                           ;main.c: 30: SetDDRamAddr(64); while(BusyXLCD());
   342  00091E  0E40               	movlw	64
   343  000920  EC83  F005         	call	_SetDDRamAddr
   344  000924                     l1081:
   345  000924  ECCC  F005         	call	_BusyXLCD	;wreg free
   346  000928  0900               	iorlw	0
   347  00092A  A4D8               	btfss	status,2,c
   348  00092C  D7FB               	goto	l1081
   349                           
   350                           ;main.c: 32: for(i = 0; i <= 3; i++)
   351  00092E  6E34               	movwf	??_main& (0+255),c
   352  000930  0E00               	movlw	0
   353  000932  6E4A               	movwf	main@i,c
   354  000934  5034               	movf	??_main& (0+255),w,c
   355  000936  D016               	goto	L1
   356  000938                     l1089:
   357                           
   358                           ;main.c: 33: {
   359                           ;main.c: 34: Clave[i] = GetkeyKEYPAD();
   360  000938  ECFE  F005         	call	_GetkeyKEYPAD	;wreg free
   361  00093C  6E34               	movwf	??_main& (0+255),c
   362  00093E  504A               	movf	main@i,w,c
   363  000940  0D01               	mullw	1
   364  000942  0E46               	movlw	low main@Clave
   365  000944  24F3               	addwf	prodl,w,c
   366  000946  6ED9               	movwf	fsr2l,c
   367  000948  0E00               	movlw	high main@Clave
   368  00094A  20F4               	addwfc	prodh,w,c
   369  00094C  6EDA               	movwf	fsr2h,c
   370  00094E  C034  FFDF         	movff	??_main,indf2
   371                           
   372                           ;main.c: 35: WriteDataXLCD('*'); while(BusyXLCD());
   373  000952  0E2A               	movlw	42
   374  000954  ECBB  F005         	call	_WriteDataXLCD
   375  000958                     l1093:
   376  000958  ECCC  F005         	call	_BusyXLCD	;wreg free
   377  00095C  0900               	iorlw	0
   378  00095E  A4D8               	btfss	status,2,c
   379  000960  D7FB               	goto	l1093
   380  000962  2A4A               	incf	main@i,f,c
   381  000964                     L1:
   382  000964  0E03               	movlw	3
   383  000966  644A               	cpfsgt	main@i,c
   384  000968  D7E7               	goto	l1089
   385                           
   386                           ;main.c: 37: }
   387                           ;main.c: 39: SetDDRamAddr(64); while(BusyXLCD());
   388  00096A  0E40               	movlw	64
   389  00096C  EC83  F005         	call	_SetDDRamAddr
   390  000970                     l1101:
   391  000970  ECCC  F005         	call	_BusyXLCD	;wreg free
   392  000974  0900               	iorlw	0
   393  000976  A4D8               	btfss	status,2,c
   394  000978  D7FB               	goto	l1101
   395                           
   396                           ;main.c: 40: putsXLCD("Clave: "); while(BusyXLCD());
   397  00097A  0E08               	movlw	high STR_1
   398  00097C  6E28               	movwf	putsXLCD@buffer+1,c
   399  00097E  0E01               	movlw	low STR_1
   400  000980  6E27               	movwf	putsXLCD@buffer,c
   401  000982  EC27  F005         	call	_putsXLCD	;wreg free
   402  000986                     l1105:
   403  000986  ECCC  F005         	call	_BusyXLCD	;wreg free
   404  00098A  0900               	iorlw	0
   405  00098C  A4D8               	btfss	status,2,c
   406  00098E  D7FB               	goto	l1105
   407                           
   408                           ;main.c: 41: putsXLCD(Clave); while(BusyXLCD());
   409  000990  0E00               	movlw	high main@Clave
   410  000992  6E28               	movwf	putsXLCD@buffer+1,c
   411  000994  0E46               	movlw	low main@Clave
   412  000996  6E27               	movwf	putsXLCD@buffer,c
   413  000998  EC27  F005         	call	_putsXLCD	;wreg free
   414  00099C                     l1109:
   415  00099C  ECCC  F005         	call	_BusyXLCD	;wreg free
   416  0009A0  0900               	iorlw	0
   417  0009A2  A4D8               	btfss	status,2,c
   418  0009A4  D7FB               	goto	l1109
   419  0009A6                     l150:
   420  0009A6  D7FF               	goto	l150
   421  0009A8                     __end_of_main:
   422                           	opt stack 0
   423                           tblptru	equ	0xFF8
   424                           tblptrh	equ	0xFF7
   425                           tblptrl	equ	0xFF6
   426                           tablat	equ	0xFF5
   427                           prodh	equ	0xFF4
   428                           prodl	equ	0xFF3
   429                           postinc0	equ	0xFEE
   430                           wreg	equ	0xFE8
   431                           postinc1	equ	0xFE6
   432                           postdec1	equ	0xFE5
   433                           fsr1l	equ	0xFE1
   434                           indf2	equ	0xFDF
   435                           postinc2	equ	0xFDE
   436                           fsr2h	equ	0xFDA
   437                           fsr2l	equ	0xFD9
   438                           status	equ	0xFD8
   439                           
   440 ;; *************** function _putsXLCD *****************
   441 ;; Defined at:
   442 ;;		line 323 in file "lib/DriveLCD.h"
   443 ;; Parameters:    Size  Location     Type
   444 ;;  buffer          2    1[COMRAM] PTR unsigned char 
   445 ;;		 -> STR_1(8), main@Clave(4), main@Mensaje1(17), 
   446 ;; Auto vars:     Size  Location     Type
   447 ;;		None
   448 ;; Return value:  Size  Location     Type
   449 ;;		None               void
   450 ;; Registers used:
   451 ;;		wreg, fsr2l, fsr2h, status,2, status,0, tblptrl, tblptrh, tblptru, cstack
   452 ;; Tracked objects:
   453 ;;		On entry : 0/0
   454 ;;		On exit  : 0/0
   455 ;;		Unchanged: 0/0
   456 ;; Data sizes:     COMRAM   BANK0   BANK1   BANK2   BANK3   BANK4   BANK5   BANK6   BANK7
   457 ;;      Params:         2       0       0       0       0       0       0       0       0
   458 ;;      Locals:         0       0       0       0       0       0       0       0       0
   459 ;;      Temps:          0       0       0       0       0       0       0       0       0
   460 ;;      Totals:         2       0       0       0       0       0       0       0       0
   461 ;;Total ram usage:        2 bytes
   462 ;; Hardware stack levels used:    1
   463 ;; Hardware stack levels required when called:    2
   464 ;; This function calls:
   465 ;;		_BusyXLCD
   466 ;;		_WriteDataXLCD
   467 ;; This function is called by:
   468 ;;		_main
   469 ;; This function uses a non-reentrant model
   470 ;;
   471                           
   472                           	psect	text1
   473  000A4E                     __ptext1:
   474                           	opt stack 0
   475  000A4E                     _putsXLCD:
   476                           	opt stack 28
   477                           
   478                           ;DriveLCD.h: 325: while(*buffer)
   479                           
   480                           ;incstack = 0
   481  000A4E  D019               	goto	l983
   482  000A50                     l977:
   483  000A50  ECCC  F005         	call	_BusyXLCD	;wreg free
   484  000A54  0900               	iorlw	0
   485  000A56  A4D8               	btfss	status,2,c
   486  000A58  D7FB               	goto	l977
   487                           
   488                           ;DriveLCD.h: 328: WriteDataXLCD(*buffer);
   489  000A5A  C027  FFF6         	movff	putsXLCD@buffer,tblptrl
   490  000A5E  C028  FFF7         	movff	putsXLCD@buffer+1,tblptrh
   491  000A62  6AF8               	clrf	tblptru,c
   492  000A64  0E07               	movlw	(high __ramtop+-1)
   493  000A66  64F7               	cpfsgt	tblptrh,c
   494  000A68  D003               	bra	u217
   495  000A6A  0008               	tblrd		*
   496  000A6C  50F5               	movf	tablat,w,c
   497  000A6E  D005               	bra	u210
   498  000A70                     u217:
   499  000A70  CFF6 FFD9          	movff	tblptrl,fsr2l
   500  000A74  CFF7 FFDA          	movff	tblptrh,fsr2h
   501  000A78  50DF               	movf	indf2,w,c
   502  000A7A                     u210:
   503  000A7A  ECBB  F005         	call	_WriteDataXLCD
   504                           
   505                           ;DriveLCD.h: 329: buffer++;
   506  000A7E  4A27               	infsnz	putsXLCD@buffer,f,c
   507  000A80  2A28               	incf	putsXLCD@buffer+1,f,c
   508  000A82                     l983:
   509  000A82  C027  FFF6         	movff	putsXLCD@buffer,tblptrl
   510  000A86  C028  FFF7         	movff	putsXLCD@buffer+1,tblptrh
   511  000A8A  6AF8               	clrf	tblptru,c
   512  000A8C  0E07               	movlw	(high __ramtop+-1)
   513  000A8E  64F7               	cpfsgt	tblptrh,c
   514  000A90  D003               	bra	u227
   515  000A92  0008               	tblrd		*
   516  000A94  50F5               	movf	tablat,w,c
   517  000A96  D005               	bra	u220
   518  000A98                     u227:
   519  000A98  CFF6 FFD9          	movff	tblptrl,fsr2l
   520  000A9C  CFF7 FFDA          	movff	tblptrh,fsr2h
   521  000AA0  50DF               	movf	indf2,w,c
   522  000AA2                     u220:
   523  000AA2  0900               	iorlw	0
   524  000AA4  B4D8               	btfsc	status,2,c
   525                           
   526                           ;DriveLCD.h: 330: }
   527                           ;DriveLCD.h: 331: return;
   528  000AA6  0012               	return	
   529  000AA8  D7D3               	goto	l977
   530  000AAA                     __end_of_putsXLCD:
   531                           	opt stack 0
   532                           tblptru	equ	0xFF8
   533                           tblptrh	equ	0xFF7
   534                           tblptrl	equ	0xFF6
   535                           tablat	equ	0xFF5
   536                           prodh	equ	0xFF4
   537                           prodl	equ	0xFF3
   538                           postinc0	equ	0xFEE
   539                           wreg	equ	0xFE8
   540                           postinc1	equ	0xFE6
   541                           postdec1	equ	0xFE5
   542                           fsr1l	equ	0xFE1
   543                           indf2	equ	0xFDF
   544                           postinc2	equ	0xFDE
   545                           fsr2h	equ	0xFDA
   546                           fsr2l	equ	0xFD9
   547                           status	equ	0xFD8
   548                           
   549 ;; *************** function _WriteDataXLCD *****************
   550 ;; Defined at:
   551 ;;		line 625 in file "lib/DriveLCD.h"
   552 ;; Parameters:    Size  Location     Type
   553 ;;  data            1    wreg     unsigned char 
   554 ;; Auto vars:     Size  Location     Type
   555 ;;  data            1    0[COMRAM] unsigned char 
   556 ;; Return value:  Size  Location     Type
   557 ;;		None               void
   558 ;; Registers used:
   559 ;;		wreg, status,2, cstack
   560 ;; Tracked objects:
   561 ;;		On entry : 0/0
   562 ;;		On exit  : 0/0
   563 ;;		Unchanged: 0/0
   564 ;; Data sizes:     COMRAM   BANK0   BANK1   BANK2   BANK3   BANK4   BANK5   BANK6   BANK7
   565 ;;      Params:         0       0       0       0       0       0       0       0       0
   566 ;;      Locals:         1       0       0       0       0       0       0       0       0
   567 ;;      Temps:          0       0       0       0       0       0       0       0       0
   568 ;;      Totals:         1       0       0       0       0       0       0       0       0
   569 ;;Total ram usage:        1 bytes
   570 ;; Hardware stack levels used:    1
   571 ;; Hardware stack levels required when called:    1
   572 ;; This function calls:
   573 ;;		_DelayFor18TCY
   574 ;; This function is called by:
   575 ;;		_putsXLCD
   576 ;;		_main
   577 ;;		_putrsXLCD
   578 ;; This function uses a non-reentrant model
   579 ;;
   580                           
   581                           	psect	text2
   582  000B76                     __ptext2:
   583                           	opt stack 0
   584  000B76                     _WriteDataXLCD:
   585                           	opt stack 28
   586                           
   587                           ;incstack = 0
   588                           ;WriteDataXLCD@data stored from wreg
   589  000B76  CFE8 F026          	movff	wreg,WriteDataXLCD@data
   590                           
   591                           ;DriveLCD.h: 628: TRISB = 0;
   592  000B7A  0E00               	movlw	0
   593  000B7C  6E93               	movwf	3987,c	;volatile
   594                           
   595                           ;DriveLCD.h: 629: PORTB = data;
   596  000B7E  C026  FF81         	movff	WriteDataXLCD@data,3969	;volatile
   597                           
   598                           ;DriveLCD.h: 630: LATEbits.LATE0 = 1;
   599  000B82  808D               	bsf	3981,0,c	;volatile
   600                           
   601                           ;DriveLCD.h: 631: LATEbits.LATE1 = 0;
   602  000B84  928D               	bcf	3981,1,c	;volatile
   603                           
   604                           ;DriveLCD.h: 632: DelayFor18TCY();
   605  000B86  EC06  F006         	call	_DelayFor18TCY	;wreg free
   606                           
   607                           ;DriveLCD.h: 633: LATEbits.LATE2 = 1;
   608  000B8A  848D               	bsf	3981,2,c	;volatile
   609                           
   610                           ;DriveLCD.h: 634: DelayFor18TCY();
   611  000B8C  EC06  F006         	call	_DelayFor18TCY	;wreg free
   612                           
   613                           ;DriveLCD.h: 635: LATEbits.LATE2 = 0;
   614  000B90  948D               	bcf	3981,2,c	;volatile
   615                           
   616                           ;DriveLCD.h: 636: LATEbits.LATE0 = 0;
   617  000B92  908D               	bcf	3981,0,c	;volatile
   618                           
   619                           ;DriveLCD.h: 637: TRISB = 0xff;
   620  000B94  6893               	setf	3987,c	;volatile
   621                           
   622                           ;DriveLCD.h: 671: return;
   623  000B96  0012               	return	
   624  000B98                     __end_of_WriteDataXLCD:
   625                           	opt stack 0
   626                           tblptru	equ	0xFF8
   627                           tblptrh	equ	0xFF7
   628                           tblptrl	equ	0xFF6
   629                           tablat	equ	0xFF5
   630                           prodh	equ	0xFF4
   631                           prodl	equ	0xFF3
   632                           postinc0	equ	0xFEE
   633                           wreg	equ	0xFE8
   634                           postinc1	equ	0xFE6
   635                           postdec1	equ	0xFE5
   636                           fsr1l	equ	0xFE1
   637                           indf2	equ	0xFDF
   638                           postinc2	equ	0xFDE
   639                           fsr2h	equ	0xFDA
   640                           fsr2l	equ	0xFD9
   641                           status	equ	0xFD8
   642                           
   643 ;; *************** function _IniciaLCD *****************
   644 ;; Defined at:
   645 ;;		line 47 in file "main.c"
   646 ;; Parameters:    Size  Location     Type
   647 ;;		None
   648 ;; Auto vars:     Size  Location     Type
   649 ;;		None
   650 ;; Return value:  Size  Location     Type
   651 ;;		None               void
   652 ;; Registers used:
   653 ;;		wreg, status,2, status,0, cstack
   654 ;; Tracked objects:
   655 ;;		On entry : 0/0
   656 ;;		On exit  : 0/0
   657 ;;		Unchanged: 0/0
   658 ;; Data sizes:     COMRAM   BANK0   BANK1   BANK2   BANK3   BANK4   BANK5   BANK6   BANK7
   659 ;;      Params:         0       0       0       0       0       0       0       0       0
   660 ;;      Locals:         0       0       0       0       0       0       0       0       0
   661 ;;      Temps:          0       0       0       0       0       0       0       0       0
   662 ;;      Totals:         0       0       0       0       0       0       0       0       0
   663 ;;Total ram usage:        0 bytes
   664 ;; Hardware stack levels used:    1
   665 ;; Hardware stack levels required when called:    3
   666 ;; This function calls:
   667 ;;		_BusyXLCD
   668 ;;		_OpenXLCD
   669 ;;		_WriteCmdXLCD
   670 ;; This function is called by:
   671 ;;		_main
   672 ;; This function uses a non-reentrant model
   673 ;;
   674                           
   675                           	psect	text3
   676  000AAA                     __ptext3:
   677                           	opt stack 0
   678  000AAA                     _IniciaLCD:
   679                           	opt stack 27
   680                           
   681                           ;main.c: 49: OpenXLCD(0b00111100 & 0b00111000);
   682                           
   683                           ;incstack = 0
   684  000AAA  0E38               	movlw	56
   685  000AAC  ECD4  F004         	call	_OpenXLCD
   686  000AB0                     l995:
   687  000AB0  ECCC  F005         	call	_BusyXLCD	;wreg free
   688  000AB4  0900               	iorlw	0
   689  000AB6  A4D8               	btfss	status,2,c
   690  000AB8  D7FB               	goto	l995
   691                           
   692                           ;main.c: 51: WriteCmdXLCD(0b00001110 & 0b00001101);
   693  000ABA  0E0C               	movlw	12
   694  000ABC  ECA9  F005         	call	_WriteCmdXLCD
   695  000AC0                     l999:
   696  000AC0  ECCC  F005         	call	_BusyXLCD	;wreg free
   697  000AC4  0900               	iorlw	0
   698  000AC6  A4D8               	btfss	status,2,c
   699  000AC8  D7FB               	goto	l999
   700                           
   701                           ;main.c: 53: WriteCmdXLCD(0b00000110);
   702  000ACA  0E06               	movlw	6
   703  000ACC  ECA9  F005         	call	_WriteCmdXLCD
   704  000AD0                     l1003:
   705  000AD0  ECCC  F005         	call	_BusyXLCD	;wreg free
   706  000AD4  0900               	iorlw	0
   707  000AD6  B4D8               	btfsc	status,2,c
   708  000AD8  0012               	return	
   709  000ADA  D7FA               	goto	l1003
   710  000ADC                     __end_of_IniciaLCD:
   711                           	opt stack 0
   712                           tblptru	equ	0xFF8
   713                           tblptrh	equ	0xFF7
   714                           tblptrl	equ	0xFF6
   715                           tablat	equ	0xFF5
   716                           prodh	equ	0xFF4
   717                           prodl	equ	0xFF3
   718                           postinc0	equ	0xFEE
   719                           wreg	equ	0xFE8
   720                           postinc1	equ	0xFE6
   721                           postdec1	equ	0xFE5
   722                           fsr1l	equ	0xFE1
   723                           indf2	equ	0xFDF
   724                           postinc2	equ	0xFDE
   725                           fsr2h	equ	0xFDA
   726                           fsr2l	equ	0xFD9
   727                           status	equ	0xFD8
   728                           
   729 ;; *************** function _OpenXLCD *****************
   730 ;; Defined at:
   731 ;;		line 225 in file "lib/DriveLCD.h"
   732 ;; Parameters:    Size  Location     Type
   733 ;;  lcdtype         1    wreg     unsigned char 
   734 ;; Auto vars:     Size  Location     Type
   735 ;;  lcdtype         1    2[COMRAM] unsigned char 
   736 ;; Return value:  Size  Location     Type
   737 ;;		None               void
   738 ;; Registers used:
   739 ;;		wreg, status,2, status,0, cstack
   740 ;; Tracked objects:
   741 ;;		On entry : 0/0
   742 ;;		On exit  : 0/0
   743 ;;		Unchanged: 0/0
   744 ;; Data sizes:     COMRAM   BANK0   BANK1   BANK2   BANK3   BANK4   BANK5   BANK6   BANK7
   745 ;;      Params:         0       0       0       0       0       0       0       0       0
   746 ;;      Locals:         1       0       0       0       0       0       0       0       0
   747 ;;      Temps:          0       0       0       0       0       0       0       0       0
   748 ;;      Totals:         1       0       0       0       0       0       0       0       0
   749 ;;Total ram usage:        1 bytes
   750 ;; Hardware stack levels used:    1
   751 ;; Hardware stack levels required when called:    2
   752 ;; This function calls:
   753 ;;		_BusyXLCD
   754 ;;		_Delay10KTCYx
   755 ;;		_DelayPORXLCD
   756 ;;		_SetDDRamAddr
   757 ;;		_WriteCmdXLCD
   758 ;; This function is called by:
   759 ;;		_IniciaLCD
   760 ;; This function uses a non-reentrant model
   761 ;;
   762                           
   763                           	psect	text4
   764  0009A8                     __ptext4:
   765                           	opt stack 0
   766  0009A8                     _OpenXLCD:
   767                           	opt stack 27
   768                           
   769                           ;incstack = 0
   770                           ;OpenXLCD@lcdtype stored from wreg
   771  0009A8  CFE8 F028          	movff	wreg,OpenXLCD@lcdtype
   772                           
   773                           ;DriveLCD.h: 230: PORTB = 0;
   774  0009AC  0E00               	movlw	0
   775  0009AE  6E81               	movwf	3969,c	;volatile
   776                           
   777                           ;DriveLCD.h: 231: TRISB = 0x00;
   778  0009B0  0E00               	movlw	0
   779  0009B2  6E93               	movwf	3987,c	;volatile
   780                           
   781                           ;DriveLCD.h: 241: TRISEbits.TRISE1 = 0;
   782  0009B4  9296               	bcf	3990,1,c	;volatile
   783                           
   784                           ;DriveLCD.h: 242: TRISEbits.TRISE0 = 0;
   785  0009B6  9096               	bcf	3990,0,c	;volatile
   786                           
   787                           ;DriveLCD.h: 243: TRISEbits.TRISE2 = 0;
   788  0009B8  9496               	bcf	3990,2,c	;volatile
   789                           
   790                           ;DriveLCD.h: 244: LATEbits.LATE1 = 0;
   791  0009BA  928D               	bcf	3981,1,c	;volatile
   792                           
   793                           ;DriveLCD.h: 245: LATEbits.LATE0 = 0;
   794  0009BC  908D               	bcf	3981,0,c	;volatile
   795                           
   796                           ;DriveLCD.h: 246: LATEbits.LATE2 = 0;
   797  0009BE  948D               	bcf	3981,2,c	;volatile
   798                           
   799                           ;DriveLCD.h: 249: DelayPORXLCD();
   800  0009C0  ECF6  F005         	call	_DelayPORXLCD	;wreg free
   801                           
   802                           ;DriveLCD.h: 251: WriteCmdXLCD(0x30);
   803  0009C4  0E30               	movlw	48
   804  0009C6  ECA9  F005         	call	_WriteCmdXLCD
   805                           
   806                           ;DriveLCD.h: 252: Delay10KTCYx(0x05);
   807  0009CA  0E05               	movlw	5
   808  0009CC  ECEA  F005         	call	_Delay10KTCYx
   809                           
   810                           ;DriveLCD.h: 254: WriteCmdXLCD(0x30);
   811  0009D0  0E30               	movlw	48
   812  0009D2  ECA9  F005         	call	_WriteCmdXLCD
   813                           
   814                           ;DriveLCD.h: 255: Delay10KTCYx(0x01);
   815  0009D6  0E01               	movlw	1
   816  0009D8  ECEA  F005         	call	_Delay10KTCYx
   817                           
   818                           ;DriveLCD.h: 258: WriteCmdXLCD(0x32);
   819  0009DC  0E32               	movlw	50
   820  0009DE  ECA9  F005         	call	_WriteCmdXLCD
   821  0009E2                     l913:
   822  0009E2  ECCC  F005         	call	_BusyXLCD	;wreg free
   823  0009E6  0900               	iorlw	0
   824  0009E8  A4D8               	btfss	status,2,c
   825  0009EA  D7FB               	goto	l913
   826  0009EC                     l915:
   827  0009EC  ECCC  F005         	call	_BusyXLCD	;wreg free
   828  0009F0  0900               	iorlw	0
   829  0009F2  A4D8               	btfss	status,2,c
   830  0009F4  D7FB               	goto	l915
   831                           
   832                           ;DriveLCD.h: 265: WriteCmdXLCD(lcdtype);
   833  0009F6  5028               	movf	OpenXLCD@lcdtype,w,c
   834  0009F8  ECA9  F005         	call	_WriteCmdXLCD
   835  0009FC                     l919:
   836  0009FC  ECCC  F005         	call	_BusyXLCD	;wreg free
   837  000A00  0900               	iorlw	0
   838  000A02  A4D8               	btfss	status,2,c
   839  000A04  D7FB               	goto	l919
   840                           
   841                           ;DriveLCD.h: 269: WriteCmdXLCD(0b00001011&0b00001101&0b00001110);
   842  000A06  0E08               	movlw	8
   843  000A08  ECA9  F005         	call	_WriteCmdXLCD
   844  000A0C                     l923:
   845  000A0C  ECCC  F005         	call	_BusyXLCD	;wreg free
   846  000A10  0900               	iorlw	0
   847  000A12  A4D8               	btfss	status,2,c
   848  000A14  D7FB               	goto	l923
   849                           
   850                           ;DriveLCD.h: 271: WriteCmdXLCD(0b00001111&0b00001111&0b00001111);
   851  000A16  0E0F               	movlw	15
   852  000A18  ECA9  F005         	call	_WriteCmdXLCD
   853  000A1C                     l927:
   854  000A1C  ECCC  F005         	call	_BusyXLCD	;wreg free
   855  000A20  0900               	iorlw	0
   856  000A22  A4D8               	btfss	status,2,c
   857  000A24  D7FB               	goto	l927
   858                           
   859                           ;DriveLCD.h: 275: WriteCmdXLCD(0x01);
   860  000A26  0E01               	movlw	1
   861  000A28  ECA9  F005         	call	_WriteCmdXLCD
   862  000A2C                     l931:
   863  000A2C  ECCC  F005         	call	_BusyXLCD	;wreg free
   864  000A30  0900               	iorlw	0
   865  000A32  A4D8               	btfss	status,2,c
   866  000A34  D7FB               	goto	l931
   867                           
   868                           ;DriveLCD.h: 279: WriteCmdXLCD(0b00000100);
   869  000A36  0E04               	movlw	4
   870  000A38  ECA9  F005         	call	_WriteCmdXLCD
   871  000A3C                     l935:
   872  000A3C  ECCC  F005         	call	_BusyXLCD	;wreg free
   873  000A40  0900               	iorlw	0
   874  000A42  A4D8               	btfss	status,2,c
   875  000A44  D7FB               	goto	l935
   876                           
   877                           ;DriveLCD.h: 283: SetDDRamAddr(0x80);
   878  000A46  0E80               	movlw	128
   879  000A48  EC83  F005         	call	_SetDDRamAddr
   880                           
   881                           ;DriveLCD.h: 285: return;
   882  000A4C  0012               	return	
   883  000A4E                     __end_of_OpenXLCD:
   884                           	opt stack 0
   885                           tblptru	equ	0xFF8
   886                           tblptrh	equ	0xFF7
   887                           tblptrl	equ	0xFF6
   888                           tablat	equ	0xFF5
   889                           prodh	equ	0xFF4
   890                           prodl	equ	0xFF3
   891                           postinc0	equ	0xFEE
   892                           wreg	equ	0xFE8
   893                           postinc1	equ	0xFE6
   894                           postdec1	equ	0xFE5
   895                           fsr1l	equ	0xFE1
   896                           indf2	equ	0xFDF
   897                           postinc2	equ	0xFDE
   898                           fsr2h	equ	0xFDA
   899                           fsr2l	equ	0xFD9
   900                           status	equ	0xFD8
   901                           
   902 ;; *************** function _WriteCmdXLCD *****************
   903 ;; Defined at:
   904 ;;		line 564 in file "lib/DriveLCD.h"
   905 ;; Parameters:    Size  Location     Type
   906 ;;  cmd             1    wreg     unsigned char 
   907 ;; Auto vars:     Size  Location     Type
   908 ;;  cmd             1    0[COMRAM] unsigned char 
   909 ;; Return value:  Size  Location     Type
   910 ;;		None               void
   911 ;; Registers used:
   912 ;;		wreg, status,2, cstack
   913 ;; Tracked objects:
   914 ;;		On entry : 0/0
   915 ;;		On exit  : 0/0
   916 ;;		Unchanged: 0/0
   917 ;; Data sizes:     COMRAM   BANK0   BANK1   BANK2   BANK3   BANK4   BANK5   BANK6   BANK7
   918 ;;      Params:         0       0       0       0       0       0       0       0       0
   919 ;;      Locals:         1       0       0       0       0       0       0       0       0
   920 ;;      Temps:          0       0       0       0       0       0       0       0       0
   921 ;;      Totals:         1       0       0       0       0       0       0       0       0
   922 ;;Total ram usage:        1 bytes
   923 ;; Hardware stack levels used:    1
   924 ;; Hardware stack levels required when called:    1
   925 ;; This function calls:
   926 ;;		_DelayFor18TCY
   927 ;; This function is called by:
   928 ;;		_OpenXLCD
   929 ;;		_IniciaLCD
   930 ;; This function uses a non-reentrant model
   931 ;;
   932                           
   933                           	psect	text5
   934  000B52                     __ptext5:
   935                           	opt stack 0
   936  000B52                     _WriteCmdXLCD:
   937                           	opt stack 28
   938                           
   939                           ;incstack = 0
   940                           ;WriteCmdXLCD@cmd stored from wreg
   941  000B52  CFE8 F026          	movff	wreg,WriteCmdXLCD@cmd
   942                           
   943                           ;DriveLCD.h: 567: TRISB = 0;
   944  000B56  0E00               	movlw	0
   945  000B58  6E93               	movwf	3987,c	;volatile
   946                           
   947                           ;DriveLCD.h: 568: PORTB = cmd;
   948  000B5A  C026  FF81         	movff	WriteCmdXLCD@cmd,3969	;volatile
   949                           
   950                           ;DriveLCD.h: 569: LATEbits.LATE1 = 0;
   951  000B5E  928D               	bcf	3981,1,c	;volatile
   952                           
   953                           ;DriveLCD.h: 570: LATEbits.LATE0 = 0;
   954  000B60  908D               	bcf	3981,0,c	;volatile
   955                           
   956                           ;DriveLCD.h: 571: DelayFor18TCY();
   957  000B62  EC06  F006         	call	_DelayFor18TCY	;wreg free
   958                           
   959                           ;DriveLCD.h: 572: LATEbits.LATE2 = 1;
   960  000B66  848D               	bsf	3981,2,c	;volatile
   961                           
   962                           ;DriveLCD.h: 573: DelayFor18TCY();
   963  000B68  EC06  F006         	call	_DelayFor18TCY	;wreg free
   964                           
   965                           ;DriveLCD.h: 574: LATEbits.LATE2 = 0;
   966  000B6C  948D               	bcf	3981,2,c	;volatile
   967                           
   968                           ;DriveLCD.h: 575: DelayFor18TCY();
   969  000B6E  EC06  F006         	call	_DelayFor18TCY	;wreg free
   970                           
   971                           ;DriveLCD.h: 576: TRISB = 0xff;
   972  000B72  6893               	setf	3987,c	;volatile
   973                           
   974                           ;DriveLCD.h: 610: return;
   975  000B74  0012               	return	
   976  000B76                     __end_of_WriteCmdXLCD:
   977                           	opt stack 0
   978                           tblptru	equ	0xFF8
   979                           tblptrh	equ	0xFF7
   980                           tblptrl	equ	0xFF6
   981                           tablat	equ	0xFF5
   982                           prodh	equ	0xFF4
   983                           prodl	equ	0xFF3
   984                           postinc0	equ	0xFEE
   985                           wreg	equ	0xFE8
   986                           postinc1	equ	0xFE6
   987                           postdec1	equ	0xFE5
   988                           fsr1l	equ	0xFE1
   989                           indf2	equ	0xFDF
   990                           postinc2	equ	0xFDE
   991                           fsr2h	equ	0xFDA
   992                           fsr2l	equ	0xFD9
   993                           status	equ	0xFD8
   994                           
   995 ;; *************** function _SetDDRamAddr *****************
   996 ;; Defined at:
   997 ;;		line 506 in file "lib/DriveLCD.h"
   998 ;; Parameters:    Size  Location     Type
   999 ;;  DDaddr          1    wreg     unsigned char 
  1000 ;; Auto vars:     Size  Location     Type
  1001 ;;  DDaddr          1    0[COMRAM] unsigned char 
  1002 ;; Return value:  Size  Location     Type
  1003 ;;		None               void
  1004 ;; Registers used:
  1005 ;;		wreg, status,2, status,0, cstack
  1006 ;; Tracked objects:
  1007 ;;		On entry : 0/0
  1008 ;;		On exit  : 0/0
  1009 ;;		Unchanged: 0/0
  1010 ;; Data sizes:     COMRAM   BANK0   BANK1   BANK2   BANK3   BANK4   BANK5   BANK6   BANK7
  1011 ;;      Params:         0       0       0       0       0       0       0       0       0
  1012 ;;      Locals:         1       0       0       0       0       0       0       0       0
  1013 ;;      Temps:          0       0       0       0       0       0       0       0       0
  1014 ;;      Totals:         1       0       0       0       0       0       0       0       0
  1015 ;;Total ram usage:        1 bytes
  1016 ;; Hardware stack levels used:    1
  1017 ;; Hardware stack levels required when called:    1
  1018 ;; This function calls:
  1019 ;;		_DelayFor18TCY
  1020 ;; This function is called by:
  1021 ;;		_OpenXLCD
  1022 ;;		_main
  1023 ;; This function uses a non-reentrant model
  1024 ;;
  1025                           
  1026                           	psect	text6
  1027  000B06                     __ptext6:
  1028                           	opt stack 0
  1029  000B06                     _SetDDRamAddr:
  1030                           	opt stack 29
  1031                           
  1032                           ;incstack = 0
  1033                           ;SetDDRamAddr@DDaddr stored from wreg
  1034  000B06  CFE8 F026          	movff	wreg,SetDDRamAddr@DDaddr
  1035                           
  1036                           ;DriveLCD.h: 509: TRISB = 0;
  1037  000B0A  0E00               	movlw	0
  1038  000B0C  6E93               	movwf	3987,c	;volatile
  1039                           
  1040                           ;DriveLCD.h: 510: PORTB = DDaddr | 0b10000000;
  1041  000B0E  5026               	movf	SetDDRamAddr@DDaddr,w,c
  1042  000B10  0980               	iorlw	128
  1043  000B12  6E81               	movwf	3969,c	;volatile
  1044                           
  1045                           ;DriveLCD.h: 511: LATEbits.LATE1 = 0;
  1046  000B14  928D               	bcf	3981,1,c	;volatile
  1047                           
  1048                           ;DriveLCD.h: 512: LATEbits.LATE0 = 0;
  1049  000B16  908D               	bcf	3981,0,c	;volatile
  1050                           
  1051                           ;DriveLCD.h: 513: DelayFor18TCY();
  1052  000B18  EC06  F006         	call	_DelayFor18TCY	;wreg free
  1053                           
  1054                           ;DriveLCD.h: 514: LATEbits.LATE2 = 1;
  1055  000B1C  848D               	bsf	3981,2,c	;volatile
  1056                           
  1057                           ;DriveLCD.h: 515: DelayFor18TCY();
  1058  000B1E  EC06  F006         	call	_DelayFor18TCY	;wreg free
  1059                           
  1060                           ;DriveLCD.h: 516: LATEbits.LATE2 = 0;
  1061  000B22  948D               	bcf	3981,2,c	;volatile
  1062                           
  1063                           ;DriveLCD.h: 517: DelayFor18TCY();
  1064  000B24  EC06  F006         	call	_DelayFor18TCY	;wreg free
  1065                           
  1066                           ;DriveLCD.h: 518: TRISB = 0xff;
  1067  000B28  6893               	setf	3987,c	;volatile
  1068                           
  1069                           ;DriveLCD.h: 552: return;
  1070  000B2A  0012               	return	
  1071  000B2C                     __end_of_SetDDRamAddr:
  1072                           	opt stack 0
  1073                           tblptru	equ	0xFF8
  1074                           tblptrh	equ	0xFF7
  1075                           tblptrl	equ	0xFF6
  1076                           tablat	equ	0xFF5
  1077                           prodh	equ	0xFF4
  1078                           prodl	equ	0xFF3
  1079                           postinc0	equ	0xFEE
  1080                           wreg	equ	0xFE8
  1081                           postinc1	equ	0xFE6
  1082                           postdec1	equ	0xFE5
  1083                           fsr1l	equ	0xFE1
  1084                           indf2	equ	0xFDF
  1085                           postinc2	equ	0xFDE
  1086                           fsr2h	equ	0xFDA
  1087                           fsr2l	equ	0xFD9
  1088                           status	equ	0xFD8
  1089                           
  1090 ;; *************** function _DelayPORXLCD *****************
  1091 ;; Defined at:
  1092 ;;		line 66 in file "main.c"
  1093 ;; Parameters:    Size  Location     Type
  1094 ;;		None
  1095 ;; Auto vars:     Size  Location     Type
  1096 ;;		None
  1097 ;; Return value:  Size  Location     Type
  1098 ;;		None               void
  1099 ;; Registers used:
  1100 ;;		wreg
  1101 ;; Tracked objects:
  1102 ;;		On entry : 0/0
  1103 ;;		On exit  : 0/0
  1104 ;;		Unchanged: 0/0
  1105 ;; Data sizes:     COMRAM   BANK0   BANK1   BANK2   BANK3   BANK4   BANK5   BANK6   BANK7
  1106 ;;      Params:         0       0       0       0       0       0       0       0       0
  1107 ;;      Locals:         0       0       0       0       0       0       0       0       0
  1108 ;;      Temps:          1       0       0       0       0       0       0       0       0
  1109 ;;      Totals:         1       0       0       0       0       0       0       0       0
  1110 ;;Total ram usage:        1 bytes
  1111 ;; Hardware stack levels used:    1
  1112 ;; This function calls:
  1113 ;;		Nothing
  1114 ;; This function is called by:
  1115 ;;		_OpenXLCD
  1116 ;; This function uses a non-reentrant model
  1117 ;;
  1118                           
  1119                           	psect	text7
  1120  000BEC                     __ptext7:
  1121                           	opt stack 0
  1122  000BEC                     _DelayPORXLCD:
  1123                           	opt stack 28
  1124                           
  1125                           ;main.c: 68: _delay((unsigned long)((15)*(4000000/4000.0)));
  1126                           
  1127                           ;incstack = 0
  1128  000BEC  0E14               	movlw	20
  1129  000BEE  6E26               	movwf	??_DelayPORXLCD& (0+255),c
  1130  000BF0  0E7A               	movlw	122
  1131  000BF2                     u397:
  1132  000BF2  2EE8               	decfsz	wreg,f,c
  1133  000BF4  D7FE               	goto	u397
  1134  000BF6  2E26               	decfsz	??_DelayPORXLCD& (0+255),f,c
  1135  000BF8  D7FC               	goto	u397
  1136                           
  1137                           ;main.c: 69: return;
  1138  000BFA  0012               	return	
  1139  000BFC                     __end_of_DelayPORXLCD:
  1140                           	opt stack 0
  1141                           tblptru	equ	0xFF8
  1142                           tblptrh	equ	0xFF7
  1143                           tblptrl	equ	0xFF6
  1144                           tablat	equ	0xFF5
  1145                           prodh	equ	0xFF4
  1146                           prodl	equ	0xFF3
  1147                           postinc0	equ	0xFEE
  1148                           wreg	equ	0xFE8
  1149                           postinc1	equ	0xFE6
  1150                           postdec1	equ	0xFE5
  1151                           fsr1l	equ	0xFE1
  1152                           indf2	equ	0xFDF
  1153                           postinc2	equ	0xFDE
  1154                           fsr2h	equ	0xFDA
  1155                           fsr2l	equ	0xFD9
  1156                           status	equ	0xFD8
  1157                           
  1158 ;; *************** function _Delay10KTCYx *****************
  1159 ;; Defined at:
  1160 ;;		line 8 in file "C:\Program Files (x86)\Microchip\xc8\v1.31\sources\pic18\d10ktcyx.c"
  1161 ;; Parameters:    Size  Location     Type
  1162 ;;  unit            1    wreg     unsigned char 
  1163 ;; Auto vars:     Size  Location     Type
  1164 ;;  unit            1    1[COMRAM] unsigned char 
  1165 ;; Return value:  Size  Location     Type
  1166 ;;		None               void
  1167 ;; Registers used:
  1168 ;;		wreg
  1169 ;; Tracked objects:
  1170 ;;		On entry : 0/0
  1171 ;;		On exit  : 0/0
  1172 ;;		Unchanged: 0/0
  1173 ;; Data sizes:     COMRAM   BANK0   BANK1   BANK2   BANK3   BANK4   BANK5   BANK6   BANK7
  1174 ;;      Params:         0       0       0       0       0       0       0       0       0
  1175 ;;      Locals:         1       0       0       0       0       0       0       0       0
  1176 ;;      Temps:          1       0       0       0       0       0       0       0       0
  1177 ;;      Totals:         2       0       0       0       0       0       0       0       0
  1178 ;;Total ram usage:        2 bytes
  1179 ;; Hardware stack levels used:    1
  1180 ;; This function calls:
  1181 ;;		Nothing
  1182 ;; This function is called by:
  1183 ;;		_OpenXLCD
  1184 ;; This function uses a non-reentrant model
  1185 ;;
  1186                           
  1187                           	psect	text8
  1188  000BD4                     __ptext8:
  1189                           	opt stack 0
  1190  000BD4                     _Delay10KTCYx:
  1191                           	opt stack 28
  1192                           
  1193                           ;incstack = 0
  1194                           ;Delay10KTCYx@unit stored from wreg
  1195  000BD4  CFE8 F027          	movff	wreg,Delay10KTCYx@unit
  1196  000BD8                     l385:
  1197  000BD8  0E0D               	movlw	13
  1198  000BDA  6E26               	movwf	??_Delay10KTCYx& (0+255),c
  1199  000BDC  0EFC               	movlw	252
  1200  000BDE                     u407:
  1201  000BDE  2EE8               	decfsz	wreg,f,c
  1202  000BE0  D7FE               	goto	u407
  1203  000BE2  2E26               	decfsz	??_Delay10KTCYx& (0+255),f,c
  1204  000BE4  D7FC               	goto	u407
  1205  000BE6  2E27               	decfsz	Delay10KTCYx@unit,f,c
  1206  000BE8  D7F7               	goto	l385
  1207  000BEA  0012               	return	
  1208  000BEC                     __end_of_Delay10KTCYx:
  1209                           	opt stack 0
  1210                           tblptru	equ	0xFF8
  1211                           tblptrh	equ	0xFF7
  1212                           tblptrl	equ	0xFF6
  1213                           tablat	equ	0xFF5
  1214                           prodh	equ	0xFF4
  1215                           prodl	equ	0xFF3
  1216                           postinc0	equ	0xFEE
  1217                           wreg	equ	0xFE8
  1218                           postinc1	equ	0xFE6
  1219                           postdec1	equ	0xFE5
  1220                           fsr1l	equ	0xFE1
  1221                           indf2	equ	0xFDF
  1222                           postinc2	equ	0xFDE
  1223                           fsr2h	equ	0xFDA
  1224                           fsr2l	equ	0xFD9
  1225                           status	equ	0xFD8
  1226                           
  1227 ;; *************** function _BusyXLCD *****************
  1228 ;; Defined at:
  1229 ;;		line 163 in file "lib/DriveLCD.h"
  1230 ;; Parameters:    Size  Location     Type
  1231 ;;		None
  1232 ;; Auto vars:     Size  Location     Type
  1233 ;;		None
  1234 ;; Return value:  Size  Location     Type
  1235 ;;                  1    wreg      unsigned char 
  1236 ;; Registers used:
  1237 ;;		wreg, cstack
  1238 ;; Tracked objects:
  1239 ;;		On entry : 0/0
  1240 ;;		On exit  : 0/0
  1241 ;;		Unchanged: 0/0
  1242 ;; Data sizes:     COMRAM   BANK0   BANK1   BANK2   BANK3   BANK4   BANK5   BANK6   BANK7
  1243 ;;      Params:         0       0       0       0       0       0       0       0       0
  1244 ;;      Locals:         0       0       0       0       0       0       0       0       0
  1245 ;;      Temps:          0       0       0       0       0       0       0       0       0
  1246 ;;      Totals:         0       0       0       0       0       0       0       0       0
  1247 ;;Total ram usage:        0 bytes
  1248 ;; Hardware stack levels used:    1
  1249 ;; Hardware stack levels required when called:    1
  1250 ;; This function calls:
  1251 ;;		_DelayFor18TCY
  1252 ;; This function is called by:
  1253 ;;		_OpenXLCD
  1254 ;;		_putsXLCD
  1255 ;;		_main
  1256 ;;		_IniciaLCD
  1257 ;;		_putrsXLCD
  1258 ;; This function uses a non-reentrant model
  1259 ;;
  1260                           
  1261                           	psect	text9
  1262  000B98                     __ptext9:
  1263                           	opt stack 0
  1264  000B98                     _BusyXLCD:
  1265                           	opt stack 28
  1266                           
  1267                           ;DriveLCD.h: 165: LATEbits.LATE1 = 1;
  1268                           
  1269                           ;incstack = 0
  1270  000B98  828D               	bsf	3981,1,c	;volatile
  1271                           
  1272                           ;DriveLCD.h: 166: LATEbits.LATE0 = 0;
  1273  000B9A  908D               	bcf	3981,0,c	;volatile
  1274                           
  1275                           ;DriveLCD.h: 167: DelayFor18TCY();
  1276  000B9C  EC06  F006         	call	_DelayFor18TCY	;wreg free
  1277                           
  1278                           ;DriveLCD.h: 168: LATEbits.LATE2 = 1;
  1279  000BA0  848D               	bsf	3981,2,c	;volatile
  1280                           
  1281                           ;DriveLCD.h: 169: DelayFor18TCY();
  1282  000BA2  EC06  F006         	call	_DelayFor18TCY	;wreg free
  1283                           
  1284                           ;DriveLCD.h: 171: if(PORTB&0x80)
  1285  000BA6  AE81               	btfss	3969,7,c	;volatile
  1286  000BA8  D004               	goto	l35
  1287                           
  1288                           ;DriveLCD.h: 172: {
  1289                           ;DriveLCD.h: 173: LATEbits.LATE2 = 0;
  1290  000BAA  948D               	bcf	3981,2,c	;volatile
  1291                           
  1292                           ;DriveLCD.h: 174: LATEbits.LATE1 = 0;
  1293  000BAC  928D               	bcf	3981,1,c	;volatile
  1294                           
  1295                           ;DriveLCD.h: 175: return 1;
  1296  000BAE  0E01               	movlw	1
  1297  000BB0  D003               	goto	l36
  1298  000BB2                     l35:
  1299                           
  1300                           ;DriveLCD.h: 177: else
  1301                           ;DriveLCD.h: 178: {
  1302                           ;DriveLCD.h: 179: LATEbits.LATE2 = 0;
  1303  000BB2  948D               	bcf	3981,2,c	;volatile
  1304                           
  1305                           ;DriveLCD.h: 180: LATEbits.LATE1 = 0;
  1306  000BB4  928D               	bcf	3981,1,c	;volatile
  1307                           
  1308                           ;DriveLCD.h: 181: return 0;
  1309  000BB6  0E00               	movlw	0
  1310  000BB8                     l36:
  1311  000BB8  0012               	return	
  1312  000BBA                     __end_of_BusyXLCD:
  1313                           	opt stack 0
  1314                           tblptru	equ	0xFF8
  1315                           tblptrh	equ	0xFF7
  1316                           tblptrl	equ	0xFF6
  1317                           tablat	equ	0xFF5
  1318                           prodh	equ	0xFF4
  1319                           prodl	equ	0xFF3
  1320                           postinc0	equ	0xFEE
  1321                           wreg	equ	0xFE8
  1322                           postinc1	equ	0xFE6
  1323                           postdec1	equ	0xFE5
  1324                           fsr1l	equ	0xFE1
  1325                           indf2	equ	0xFDF
  1326                           postinc2	equ	0xFDE
  1327                           fsr2h	equ	0xFDA
  1328                           fsr2l	equ	0xFD9
  1329                           status	equ	0xFD8
  1330                           
  1331 ;; *************** function _DelayFor18TCY *****************
  1332 ;; Defined at:
  1333 ;;		line 60 in file "main.c"
  1334 ;; Parameters:    Size  Location     Type
  1335 ;;		None
  1336 ;; Auto vars:     Size  Location     Type
  1337 ;;		None
  1338 ;; Return value:  Size  Location     Type
  1339 ;;		None               void
  1340 ;; Registers used:
  1341 ;;		wreg
  1342 ;; Tracked objects:
  1343 ;;		On entry : 0/0
  1344 ;;		On exit  : 0/0
  1345 ;;		Unchanged: 0/0
  1346 ;; Data sizes:     COMRAM   BANK0   BANK1   BANK2   BANK3   BANK4   BANK5   BANK6   BANK7
  1347 ;;      Params:         0       0       0       0       0       0       0       0       0
  1348 ;;      Locals:         0       0       0       0       0       0       0       0       0
  1349 ;;      Temps:          0       0       0       0       0       0       0       0       0
  1350 ;;      Totals:         0       0       0       0       0       0       0       0       0
  1351 ;;Total ram usage:        0 bytes
  1352 ;; Hardware stack levels used:    1
  1353 ;; This function calls:
  1354 ;;		Nothing
  1355 ;; This function is called by:
  1356 ;;		_BusyXLCD
  1357 ;;		_SetDDRamAddr
  1358 ;;		_WriteCmdXLCD
  1359 ;;		_WriteDataXLCD
  1360 ;;		_ReadAddrXLCD
  1361 ;;		_ReadDataXLCD
  1362 ;;		_SetCGRamAddr
  1363 ;; This function uses a non-reentrant model
  1364 ;;
  1365                           
  1366                           	psect	text10
  1367  000C0C                     __ptext10:
  1368                           	opt stack 0
  1369  000C0C                     _DelayFor18TCY:
  1370                           	opt stack 28
  1371                           
  1372                           ;main.c: 62: _delay(18);
  1373                           
  1374                           ;incstack = 0
  1375  000C0C  0E06               	movlw	6
  1376  000C0E                     u417:
  1377  000C0E  2EE8               	decfsz	wreg,f,c
  1378  000C10  D7FE               	goto	u417
  1379                           
  1380                           ;main.c: 63: return;
  1381  000C12  0012               	return	
  1382  000C14                     __end_of_DelayFor18TCY:
  1383                           	opt stack 0
  1384                           tblptru	equ	0xFF8
  1385                           tblptrh	equ	0xFF7
  1386                           tblptrl	equ	0xFF6
  1387                           tablat	equ	0xFF5
  1388                           prodh	equ	0xFF4
  1389                           prodl	equ	0xFF3
  1390                           postinc0	equ	0xFEE
  1391                           wreg	equ	0xFE8
  1392                           postinc1	equ	0xFE6
  1393                           postdec1	equ	0xFE5
  1394                           fsr1l	equ	0xFE1
  1395                           indf2	equ	0xFDF
  1396                           postinc2	equ	0xFDE
  1397                           fsr2h	equ	0xFDA
  1398                           fsr2l	equ	0xFD9
  1399                           status	equ	0xFD8
  1400                           
  1401 ;; *************** function _GetkeyKEYPAD *****************
  1402 ;; Defined at:
  1403 ;;		line 76 in file "lib/keypad.h"
  1404 ;; Parameters:    Size  Location     Type
  1405 ;;		None
  1406 ;; Auto vars:     Size  Location     Type
  1407 ;;  mykey           1   13[COMRAM] unsigned char 
  1408 ;; Return value:  Size  Location     Type
  1409 ;;                  1    wreg      unsigned char 
  1410 ;; Registers used:
  1411 ;;		wreg, fsr2l, fsr2h, status,2, status,0, prodl, prodh, cstack
  1412 ;; Tracked objects:
  1413 ;;		On entry : 0/0
  1414 ;;		On exit  : 0/0
  1415 ;;		Unchanged: 0/0
  1416 ;; Data sizes:     COMRAM   BANK0   BANK1   BANK2   BANK3   BANK4   BANK5   BANK6   BANK7
  1417 ;;      Params:         0       0       0       0       0       0       0       0       0
  1418 ;;      Locals:         1       0       0       0       0       0       0       0       0
  1419 ;;      Temps:          0       0       0       0       0       0       0       0       0
  1420 ;;      Totals:         1       0       0       0       0       0       0       0       0
  1421 ;;Total ram usage:        1 bytes
  1422 ;; Hardware stack levels used:    1
  1423 ;; Hardware stack levels required when called:    2
  1424 ;; This function calls:
  1425 ;;		_KEYPADRead
  1426 ;; This function is called by:
  1427 ;;		_main
  1428 ;; This function uses a non-reentrant model
  1429 ;;
  1430                           
  1431                           	psect	text11
  1432  000BFC                     __ptext11:
  1433                           	opt stack 0
  1434  000BFC                     _GetkeyKEYPAD:
  1435                           	opt stack 28
  1436  000BFC                     l987:
  1437  000BFC  ECDD  F005         	call	_KEYPADRead	;wreg free
  1438  000C00  6E33               	movwf	GetkeyKEYPAD@mykey,c
  1439  000C02  5033               	movf	GetkeyKEYPAD@mykey& (0+255),w,c
  1440  000C04  B4D8               	btfsc	status,2,c
  1441  000C06  D7FA               	goto	l987
  1442                           
  1443                           ;keypad.h: 83: return mykey;
  1444  000C08  5033               	movf	GetkeyKEYPAD@mykey,w,c
  1445  000C0A  0012               	return	
  1446  000C0C                     __end_of_GetkeyKEYPAD:
  1447                           	opt stack 0
  1448                           tblptru	equ	0xFF8
  1449                           tblptrh	equ	0xFF7
  1450                           tblptrl	equ	0xFF6
  1451                           tablat	equ	0xFF5
  1452                           prodh	equ	0xFF4
  1453                           prodl	equ	0xFF3
  1454                           postinc0	equ	0xFEE
  1455                           wreg	equ	0xFE8
  1456                           postinc1	equ	0xFE6
  1457                           postdec1	equ	0xFE5
  1458                           fsr1l	equ	0xFE1
  1459                           indf2	equ	0xFDF
  1460                           postinc2	equ	0xFDE
  1461                           fsr2h	equ	0xFDA
  1462                           fsr2l	equ	0xFD9
  1463                           status	equ	0xFD8
  1464                           
  1465 ;; *************** function _KEYPADRead *****************
  1466 ;; Defined at:
  1467 ;;		line 26 in file "lib/keypad.h"
  1468 ;; Parameters:    Size  Location     Type
  1469 ;;		None
  1470 ;; Auto vars:     Size  Location     Type
  1471 ;;  key             1   12[COMRAM] unsigned char 
  1472 ;; Return value:  Size  Location     Type
  1473 ;;                  1    wreg      unsigned char 
  1474 ;; Registers used:
  1475 ;;		wreg, fsr2l, fsr2h, status,2, status,0, prodl, prodh, cstack
  1476 ;; Tracked objects:
  1477 ;;		On entry : 0/0
  1478 ;;		On exit  : 0/0
  1479 ;;		Unchanged: 0/0
  1480 ;; Data sizes:     COMRAM   BANK0   BANK1   BANK2   BANK3   BANK4   BANK5   BANK6   BANK7
  1481 ;;      Params:         0       0       0       0       0       0       0       0       0
  1482 ;;      Locals:         1       0       0       0       0       0       0       0       0
  1483 ;;      Temps:          0       0       0       0       0       0       0       0       0
  1484 ;;      Totals:         1       0       0       0       0       0       0       0       0
  1485 ;;Total ram usage:        1 bytes
  1486 ;; Hardware stack levels used:    1
  1487 ;; Hardware stack levels required when called:    1
  1488 ;; This function calls:
  1489 ;;		_ScanKEYPAD
  1490 ;; This function is called by:
  1491 ;;		_GetkeyKEYPAD
  1492 ;; This function uses a non-reentrant model
  1493 ;;
  1494                           
  1495                           	psect	text12
  1496  000BBA                     __ptext12:
  1497                           	opt stack 0
  1498  000BBA                     _KEYPADRead:
  1499                           	opt stack 28
  1500                           
  1501                           ;incstack = 0
  1502  000BBA  EC05  F004         	call	_ScanKEYPAD	;wreg free
  1503  000BBE  6E32               	movwf	KEYPADRead@key,c
  1504                           
  1505                           ;keypad.h: 29: if (key)
  1506  000BC0  5032               	movf	KEYPADRead@key,w,c
  1507  000BC2  B4D8               	btfsc	status,2,c
  1508  000BC4  D005               	goto	l971
  1509  000BC6                     l969:
  1510  000BC6  EC05  F004         	call	_ScanKEYPAD	;wreg free
  1511  000BCA  0900               	iorlw	0
  1512  000BCC  A4D8               	btfss	status,2,c
  1513  000BCE  D7FB               	goto	l969
  1514  000BD0                     l971:
  1515                           
  1516                           ;keypad.h: 32: return key;
  1517  000BD0  5032               	movf	KEYPADRead@key,w,c
  1518  000BD2  0012               	return	
  1519  000BD4                     __end_of_KEYPADRead:
  1520                           	opt stack 0
  1521                           tblptru	equ	0xFF8
  1522                           tblptrh	equ	0xFF7
  1523                           tblptrl	equ	0xFF6
  1524                           tablat	equ	0xFF5
  1525                           prodh	equ	0xFF4
  1526                           prodl	equ	0xFF3
  1527                           postinc0	equ	0xFEE
  1528                           wreg	equ	0xFE8
  1529                           postinc1	equ	0xFE6
  1530                           postdec1	equ	0xFE5
  1531                           fsr1l	equ	0xFE1
  1532                           indf2	equ	0xFDF
  1533                           postinc2	equ	0xFDE
  1534                           fsr2h	equ	0xFDA
  1535                           fsr2l	equ	0xFD9
  1536                           status	equ	0xFD8
  1537                           
  1538 ;; *************** function _ScanKEYPAD *****************
  1539 ;; Defined at:
  1540 ;;		line 37 in file "lib/keypad.h"
  1541 ;; Parameters:    Size  Location     Type
  1542 ;;		None
  1543 ;; Auto vars:     Size  Location     Type
  1544 ;;  idx             1    6[COMRAM] char 
  1545 ;;  wait            2    8[COMRAM] int 
  1546 ;;  col             1   11[COMRAM] char 
  1547 ;;  row             1   10[COMRAM] char 
  1548 ;;  key             1    7[COMRAM] unsigned char 
  1549 ;;  tmp             1    5[COMRAM] char 
  1550 ;; Return value:  Size  Location     Type
  1551 ;;                  1    wreg      unsigned char 
  1552 ;; Registers used:
  1553 ;;		wreg, fsr2l, fsr2h, status,2, status,0, prodl, prodh
  1554 ;; Tracked objects:
  1555 ;;		On entry : 0/0
  1556 ;;		On exit  : 0/0
  1557 ;;		Unchanged: 0/0
  1558 ;; Data sizes:     COMRAM   BANK0   BANK1   BANK2   BANK3   BANK4   BANK5   BANK6   BANK7
  1559 ;;      Params:         0       0       0       0       0       0       0       0       0
  1560 ;;      Locals:         7       0       0       0       0       0       0       0       0
  1561 ;;      Temps:          5       0       0       0       0       0       0       0       0
  1562 ;;      Totals:        12       0       0       0       0       0       0       0       0
  1563 ;;Total ram usage:       12 bytes
  1564 ;; Hardware stack levels used:    1
  1565 ;; This function calls:
  1566 ;;		Nothing
  1567 ;; This function is called by:
  1568 ;;		_KEYPADRead
  1569 ;; This function uses a non-reentrant model
  1570 ;;
  1571                           
  1572                           	psect	text13
  1573  00080A                     __ptext13:
  1574                           	opt stack 0
  1575  00080A                     _ScanKEYPAD:
  1576                           	opt stack 28
  1577                           
  1578                           ;keypad.h: 41: char key=0;
  1579                           
  1580                           ;incstack = 0
  1581  00080A  6E26               	movwf	??_ScanKEYPAD& (0+255),c
  1582  00080C  0E00               	movlw	0
  1583  00080E  6E2D               	movwf	ScanKEYPAD@key,c
  1584  000810  5026               	movf	??_ScanKEYPAD& (0+255),w,c
  1585                           
  1586                           ;keypad.h: 42: int wait;
  1587                           ;keypad.h: 46: ADCON1 = 0x0F;
  1588  000812  0E0F               	movlw	15
  1589  000814  6EC1               	movwf	4033,c	;volatile
  1590                           
  1591                           ;keypad.h: 49: TRISD = 0xFF;
  1592  000816  6895               	setf	3989,c	;volatile
  1593                           
  1594                           ;keypad.h: 50: PORTB = 0xFF;
  1595  000818  6881               	setf	3969,c	;volatile
  1596                           
  1597                           ;keypad.h: 51: TRISB = 0;
  1598  00081A  0E00               	movlw	0
  1599  00081C  6E93               	movwf	3987,c	;volatile
  1600                           
  1601                           ;keypad.h: 53: for (row=0; row < 4; row++)
  1602  00081E  6E26               	movwf	??_ScanKEYPAD& (0+255),c
  1603  000820  0E00               	movlw	0
  1604  000822  6E30               	movwf	ScanKEYPAD@row,c
  1605  000824  5026               	movf	??_ScanKEYPAD& (0+255),w,c
  1606  000826  5030               	movf	ScanKEYPAD@row,w,c
  1607  000828  0A80               	xorlw	128
  1608  00082A  0F7C               	addlw	-132
  1609  00082C  B0D8               	btfsc	status,0,c
  1610  00082E  D054               	goto	l116
  1611                           
  1612                           ;keypad.h: 54: {
  1613                           ;keypad.h: 55: PORTB = ~(1 << row);
  1614  000830  C030  F026         	movff	ScanKEYPAD@row,??_ScanKEYPAD
  1615  000834  0E01               	movlw	1
  1616  000836  6E27               	movwf	(??_ScanKEYPAD+1)& (0+255),c
  1617  000838  2A26               	incf	??_ScanKEYPAD,f,c
  1618  00083A  D002               	goto	u34
  1619  00083C                     u35:
  1620  00083C  90D8               	bcf	status,0,c
  1621  00083E  3627               	rlcf	??_ScanKEYPAD+1,f,c
  1622  000840                     u34:
  1623  000840  2E26               	decfsz	??_ScanKEYPAD,f,c
  1624  000842  D7FC               	goto	u35
  1625  000844  5027               	movf	??_ScanKEYPAD+1,w,c
  1626  000846  0AFF               	xorlw	255
  1627  000848  6E81               	movwf	3969,c	;volatile
  1628                           
  1629                           ;keypad.h: 56: for (wait=0; wait<100; ++wait)
  1630  00084A  0E00               	movlw	0
  1631  00084C  6E2F               	movwf	ScanKEYPAD@wait+1,c
  1632  00084E  0E00               	movlw	0
  1633  000850  6E2E               	movwf	ScanKEYPAD@wait,c
  1634  000852  502F               	movf	ScanKEYPAD@wait+1,w,c
  1635  000854  0A80               	xorlw	128
  1636  000856  0F80               	addlw	-128
  1637  000858  0E64               	movlw	100
  1638  00085A  B4D8               	btfsc	status,2,c
  1639  00085C  5C2E               	subwf	ScanKEYPAD@wait,w,c
  1640  00085E  B0D8               	btfsc	status,0,c
  1641  000860  D003               	goto	l112
  1642                           
  1643                           ;keypad.h: 57: ;
  1644  000862  4A2E               	infsnz	ScanKEYPAD@wait,f,c
  1645  000864  2A2F               	incf	ScanKEYPAD@wait+1,f,c
  1646  000866  D7F5               	goto	L2
  1647  000868                     l112:
  1648                           
  1649                           ;keypad.h: 58: tmp = PORTD;
  1650  000868  CF83 F02B          	movff	3971,ScanKEYPAD@tmp	;volatile
  1651                           
  1652                           ;keypad.h: 61: for (col=0; col<4; ++col)
  1653  00086C  6E26               	movwf	??_ScanKEYPAD& (0+255),c
  1654  00086E  0E00               	movlw	0
  1655  000870  6E31               	movwf	ScanKEYPAD@col,c
  1656  000872  5026               	movf	??_ScanKEYPAD& (0+255),w,c
  1657  000874  5031               	movf	ScanKEYPAD@col,w,c
  1658  000876  0A80               	xorlw	128
  1659  000878  0F7C               	addlw	-132
  1660  00087A  B0D8               	btfsc	status,0,c
  1661  00087C  D02B               	goto	l883
  1662                           
  1663                           ;keypad.h: 62: if ((tmp & (1<<col)) == 0)
  1664  00087E  C031  F026         	movff	ScanKEYPAD@col,??_ScanKEYPAD
  1665  000882  0E01               	movlw	1
  1666  000884  6E27               	movwf	(??_ScanKEYPAD+1)& (0+255),c
  1667  000886  6A28               	clrf	(??_ScanKEYPAD+2)& (0+255),c
  1668  000888  2A26               	incf	??_ScanKEYPAD,f,c
  1669  00088A  D003               	goto	u74
  1670  00088C                     u75:
  1671  00088C  90D8               	bcf	status,0,c
  1672  00088E  3627               	rlcf	??_ScanKEYPAD+1,f,c
  1673  000890  3628               	rlcf	??_ScanKEYPAD+2,f,c
  1674  000892                     u74:
  1675  000892  2E26               	decfsz	??_ScanKEYPAD,f,c
  1676  000894  D7FB               	goto	u75
  1677  000896  C02B  F029         	movff	ScanKEYPAD@tmp,??_ScanKEYPAD+3
  1678  00089A  6A2A               	clrf	(??_ScanKEYPAD+4)& (0+255),c
  1679  00089C  BE29               	btfsc	(??_ScanKEYPAD+3)& (0+255),7,c
  1680  00089E  062A               	decf	(??_ScanKEYPAD+4)& (0+255),f,c
  1681  0008A0  5027               	movf	??_ScanKEYPAD+1,w,c
  1682  0008A2  1629               	andwf	??_ScanKEYPAD+3,f,c
  1683  0008A4  5028               	movf	??_ScanKEYPAD+2,w,c
  1684  0008A6  162A               	andwf	??_ScanKEYPAD+4,f,c
  1685  0008A8  502A               	movf	??_ScanKEYPAD+4,w,c
  1686  0008AA  1029               	iorwf	??_ScanKEYPAD+3,w,c
  1687  0008AC  A4D8               	btfss	status,2,c
  1688  0008AE  D010               	goto	l879
  1689                           
  1690                           ;keypad.h: 63: { signed char idx = (row*4) + col;
  1691  0008B0  5030               	movf	ScanKEYPAD@row,w,c
  1692  0008B2  0D04               	mullw	4
  1693  0008B4  50F3               	movf	prodl,w,c
  1694  0008B6  2431               	addwf	ScanKEYPAD@col,w,c
  1695  0008B8  6E2C               	movwf	ScanKEYPAD@idx,c
  1696                           
  1697                           ;keypad.h: 64: key = KeyCodes[idx];
  1698  0008BA  502C               	movf	ScanKEYPAD@idx,w,c
  1699  0008BC  0D01               	mullw	1
  1700  0008BE  0E12               	movlw	low _KeyCodes
  1701  0008C0  24F3               	addwf	prodl,w,c
  1702  0008C2  6ED9               	movwf	fsr2l,c
  1703  0008C4  0E00               	movlw	high _KeyCodes
  1704  0008C6  20F4               	addwfc	prodh,w,c
  1705  0008C8  6EDA               	movwf	fsr2h,c
  1706  0008CA  50DF               	movf	indf2,w,c
  1707  0008CC  6E2D               	movwf	ScanKEYPAD@key,c
  1708                           
  1709                           ;keypad.h: 65: goto DONE;
  1710  0008CE  D004               	goto	l116
  1711  0008D0                     l879:
  1712  0008D0  2A31               	incf	ScanKEYPAD@col,f,c
  1713  0008D2  D7D0               	goto	L3
  1714  0008D4                     l883:
  1715  0008D4  2A30               	incf	ScanKEYPAD@row,f,c
  1716  0008D6  D7A7               	goto	L4
  1717  0008D8                     l116:
  1718                           
  1719                           ;keypad.h: 71: TRISB = 0xFF;
  1720  0008D8  6893               	setf	3987,c	;volatile
  1721                           
  1722                           ;keypad.h: 72: return key;
  1723  0008DA  502D               	movf	ScanKEYPAD@key,w,c
  1724  0008DC  0012               	return	
  1725  0008DE                     __end_of_ScanKEYPAD:
  1726                           	opt stack 0
  1727                           tblptru	equ	0xFF8
  1728                           tblptrh	equ	0xFF7
  1729                           tblptrl	equ	0xFF6
  1730                           tablat	equ	0xFF5
  1731                           prodh	equ	0xFF4
  1732                           prodl	equ	0xFF3
  1733                           postinc0	equ	0xFEE
  1734                           wreg	equ	0xFE8
  1735                           postinc1	equ	0xFE6
  1736                           postdec1	equ	0xFE5
  1737                           fsr1l	equ	0xFE1
  1738                           indf2	equ	0xFDF
  1739                           postinc2	equ	0xFDE
  1740                           fsr2h	equ	0xFDA
  1741                           fsr2l	equ	0xFD9
  1742                           status	equ	0xFD8
  1743                           tblptru	equ	0xFF8
  1744                           tblptrh	equ	0xFF7
  1745                           tblptrl	equ	0xFF6
  1746                           tablat	equ	0xFF5
  1747                           prodh	equ	0xFF4
  1748                           prodl	equ	0xFF3
  1749                           postinc0	equ	0xFEE
  1750                           wreg	equ	0xFE8
  1751                           postinc1	equ	0xFE6
  1752                           postdec1	equ	0xFE5
  1753                           fsr1l	equ	0xFE1
  1754                           indf2	equ	0xFDF
  1755                           postinc2	equ	0xFDE
  1756                           fsr2h	equ	0xFDA
  1757                           fsr2l	equ	0xFD9
  1758                           status	equ	0xFD8
  1759                           
  1760                           	psect	rparam
  1761  0000                     tblptru	equ	0xFF8
  1762                           tblptrh	equ	0xFF7
  1763                           tblptrl	equ	0xFF6
  1764                           tablat	equ	0xFF5
  1765                           prodh	equ	0xFF4
  1766                           prodl	equ	0xFF3
  1767                           postinc0	equ	0xFEE
  1768                           wreg	equ	0xFE8
  1769                           postinc1	equ	0xFE6
  1770                           postdec1	equ	0xFE5
  1771                           fsr1l	equ	0xFE1
  1772                           indf2	equ	0xFDF
  1773                           postinc2	equ	0xFDE
  1774                           fsr2h	equ	0xFDA
  1775                           fsr2l	equ	0xFD9
  1776                           status	equ	0xFD8


Data Sizes:
    Strings     8
    Constant    0
    Data        37
    BSS         0
    Persistent  0
    Stack       0

Auto Spaces:
    Space          Size  Autos    Used
    COMRAM           95     37      74
    BANK0           160      0       0
    BANK1           256      0       0
    BANK2           256      0       0
    BANK3           256      0       0
    BANK4           256      0       0
    BANK5           256      0       0
    BANK6           256      0       0
    BANK7           256      0       0

Pointer List with Targets:

    putsXLCD@buffer	PTR unsigned char  size(2) Largest target is 17
		 -> STR_1(CODE[8]), main@Clave(COMRAM[4]), main@Mensaje1(COMRAM[17]), 


Critical Paths under _main in COMRAM

    _main->_GetkeyKEYPAD
    _putsXLCD->_WriteDataXLCD
    _IniciaLCD->_OpenXLCD
    _OpenXLCD->_Delay10KTCYx
    _GetkeyKEYPAD->_KEYPADRead
    _KEYPADRead->_ScanKEYPAD

Critical Paths under _main in BANK0

    None.

Critical Paths under _main in BANK1

    None.

Critical Paths under _main in BANK2

    None.

Critical Paths under _main in BANK3

    None.

Critical Paths under _main in BANK4

    None.

Critical Paths under _main in BANK5

    None.

Critical Paths under _main in BANK6

    None.

Critical Paths under _main in BANK7

    None.

Call Graph Tables:

 ---------------------------------------------------------------------------------
 (Depth) Function   	        Calls       Base Space   Used Autos Params    Refs
 ---------------------------------------------------------------------------------
 (0) _main                                                23    23      0     609
                                             14 COMRAM    23    23      0
                           _BusyXLCD
                       _GetkeyKEYPAD
                          _IniciaLCD
                       _SetDDRamAddr
                      _WriteDataXLCD
                           _putsXLCD
 ---------------------------------------------------------------------------------
 (1) _putsXLCD                                             2     0      2     174
                                              1 COMRAM     2     0      2
                           _BusyXLCD
                      _WriteDataXLCD
 ---------------------------------------------------------------------------------
 (2) _WriteDataXLCD                                        1     1      0      15
                                              0 COMRAM     1     1      0
                      _DelayFor18TCY
 ---------------------------------------------------------------------------------
 (1) _IniciaLCD                                            0     0      0      75
                           _BusyXLCD
                           _OpenXLCD
                       _WriteCmdXLCD
 ---------------------------------------------------------------------------------
 (2) _OpenXLCD                                             1     1      0      60
                                              2 COMRAM     1     1      0
                           _BusyXLCD
                       _Delay10KTCYx
                       _DelayPORXLCD
                       _SetDDRamAddr
                       _WriteCmdXLCD
 ---------------------------------------------------------------------------------
 (2) _WriteCmdXLCD                                         1     1      0      15
                                              0 COMRAM     1     1      0
                      _DelayFor18TCY
 ---------------------------------------------------------------------------------
 (1) _SetDDRamAddr                                         1     1      0      15
                                              0 COMRAM     1     1      0
                      _DelayFor18TCY
 ---------------------------------------------------------------------------------
 (3) _DelayPORXLCD                                         1     1      0       0
                                              0 COMRAM     1     1      0
 ---------------------------------------------------------------------------------
 (3) _Delay10KTCYx                                         2     2      0      15
                                              0 COMRAM     2     2      0
 ---------------------------------------------------------------------------------
 (2) _BusyXLCD                                             0     0      0       0
                      _DelayFor18TCY
 ---------------------------------------------------------------------------------
 (3) _DelayFor18TCY                                        0     0      0       0
 ---------------------------------------------------------------------------------
 (1) _GetkeyKEYPAD                                         1     1      0     240
                                             13 COMRAM     1     1      0
                         _KEYPADRead
 ---------------------------------------------------------------------------------
 (2) _KEYPADRead                                           1     1      0     225
                                             12 COMRAM     1     1      0
                         _ScanKEYPAD
 ---------------------------------------------------------------------------------
 (3) _ScanKEYPAD                                          12    12      0     195
                                              0 COMRAM    12    12      0
 ---------------------------------------------------------------------------------
 Estimated maximum stack depth 3
 ---------------------------------------------------------------------------------

 Call Graph Graphs:

 _main (ROOT)
   _BusyXLCD
     _DelayFor18TCY
   _GetkeyKEYPAD
     _KEYPADRead
       _ScanKEYPAD
   _IniciaLCD
     _BusyXLCD
       _DelayFor18TCY
     _OpenXLCD
       _BusyXLCD
         _DelayFor18TCY
       _Delay10KTCYx
       _DelayPORXLCD
       _SetDDRamAddr
         _DelayFor18TCY
       _WriteCmdXLCD
         _DelayFor18TCY
     _WriteCmdXLCD
       _DelayFor18TCY
   _SetDDRamAddr
     _DelayFor18TCY
   _WriteDataXLCD
     _DelayFor18TCY
   _putsXLCD
     _BusyXLCD
       _DelayFor18TCY
     _WriteDataXLCD
       _DelayFor18TCY

 Address spaces:
Name               Size   Autos  Total    Cost      Usage
BIGRAM             7FF      0       0      21        0.0%
EEDATA             100      0       0       0        0.0%
BITBANK7           100      0       0      18        0.0%
BANK7              100      0       0      19        0.0%
BITBANK6           100      0       0      16        0.0%
BANK6              100      0       0      17        0.0%
BITBANK5           100      0       0      14        0.0%
BANK5              100      0       0      15        0.0%
BITBANK4           100      0       0      12        0.0%
BANK4              100      0       0      13        0.0%
BITBANK3           100      0       0      10        0.0%
BANK3              100      0       0      11        0.0%
BITBANK2           100      0       0       8        0.0%
BANK2              100      0       0       9        0.0%
BITBANK1           100      0       0       6        0.0%
BANK1              100      0       0       7        0.0%
BITBANK0            A0      0       0       4        0.0%
BANK0               A0      0       0       5        0.0%
BITCOMRAM           5F      0       0       0        0.0%
COMRAM              5F     25      4A       1       77.9%
BITSFR               0      0       0      40        0.0%
SFR                  0      0       0      40        0.0%
STACK                0      0       0       2        0.0%
NULL                 0      0       0       0        0.0%
ABS                  0      0      4A      20        0.0%
DATA                 0      0      4A       3        0.0%
CODE                 0      0       0       0        0.0%


Microchip Technology PIC18 Macro Assembler V1.31 build 56723 
Symbol Table                                                                                   Fri May 09 18:47:32 2014

                     l35 0BB2                       l36 0BB8                       u34 0840  
                     u35 083C                       u74 0892                       u75 088C  
            __CFG_BORV$3 000000              ?_KEYPADRead 0026             __CFG_CP0$OFF 000000  
           __CFG_CP1$OFF 000000             __CFG_CP2$OFF 000000             __CFG_CP3$OFF 000000  
                    l112 0868                      l116 08D8                      l150 09A6  
                    l385 0BD8                      l913 09E2                      l931 0A2C  
                    l923 0A0C                      l915 09EC                      l935 0A3C  
                    l927 0A1C                      l919 09FC                      l883 08D4  
                    l971 0BD0                      l879 08D0                      l983 0A82  
                    l969 0BC6                      l977 0A50                      l987 0BFC  
                    l995 0AB0                      l999 0AC0             __CFG_CPB$OFF 000000  
                    u210 0A7A                      u220 0AA2                      u301 08EC  
                    u217 0A70                      u227 0A98                      u407 0BDE  
                    u417 0C0E             __CFG_CPD$OFF 000000                      u397 0BF2  
           __CFG_BOR$OFF 000000             main@Mensaje1 0035    __size_of_WriteCmdXLCD 0024  
                    prod 000FF3                      wreg 000FE8             __CFG_FOSC$HS 000000  
           __CFG_LVP$OFF 000000             __CFG_WDT$OFF 000000                     l1003 0AD0  
                   l1101 0970                     l1105 0986                     l1109 099C  
                   l1081 0924                     l1093 0958                     l1077 0914  
                   l1089 0938                     STR_1 0801        GetkeyKEYPAD@mykey 0033  
           __CFG_PWRT$ON 000000                     _main 08DE                     fsr2h 000FDA  
                   fsr1l 000FE1                     indf2 000FDF                     fsr2l 000FD9  
 __size_of_WriteDataXLCD 0022                     prodl 000FF3                     start 0000  
          __CFG_IESO$OFF 000000            __CFG_MCLRE$ON 000000             _WriteCmdXLCD 0B52  
          __CFG_PLLDIV$1 000000            ?_SetDDRamAddr 0026                    ?_main 0026  
                  _PORTB 000F81                    _PORTD 000F83            __CFG_USBDIV$1 000000  
                  _TRISB 000F93                    _TRISD 000F95    __size_of_Delay10KTCYx 0018  
          __CFG_WRT0$OFF 000000            __CFG_WRT1$OFF 000000            __CFG_WRT2$OFF 000000  
          __CFG_WRT3$OFF 000000           __CFG_EBTR0$OFF 000000           __CFG_FCMEN$OFF 000000  
         __CFG_EBTR1$OFF 000000           __CFG_EBTR2$OFF 000000           __CFG_EBTR3$OFF 000000  
          __CFG_WRTB$OFF 000000            __CFG_WRTC$OFF 000000            __CFG_WRTD$OFF 000000  
         __CFG_EBTRB$OFF 000000                    main@i 004A                    tablat 000FF5  
                  status 000FD8      __size_of_KEYPADRead 001A           __CFG_ICPRT$OFF 000000  
             _ScanKEYPAD 080A          __initialization 0ADC             __end_of_main 09A8  
       __end_of_BusyXLCD 0BBA             _Delay10KTCYx 0BD4    __size_of_DelayPORXLCD 0010  
         ??_SetDDRamAddr 0026         __end_of_OpenXLCD 0A4E                   ??_main 0034  
          __activetblptr 000002            _WriteDataXLCD 0B76          __CFG_CCP2MX$OFF 000000  
   __end_of_GetkeyKEYPAD 0C0C                   _ADCON1 000FC1       __size_of_IniciaLCD 0032  
           _DelayPORXLCD 0BEC           __CFG_XINST$OFF 000000           ?_WriteDataXLCD 0026  
           __pdataCOMRAM 0001             __mediumconst 0000                   tblptrh 000FF7  
                 tblptrl 000FF6                   tblptru 000FF8         __end_of_putsXLCD 0AAA  
             __accesstop 0060  __end_of__initialization 0AFC          __CFG_PBADEN$OFF 000000  
            ?_ScanKEYPAD 0026           __pcstackCOMRAM 0026        __end_of_IniciaLCD 0ADC  
           ??_KEYPADRead 0032   __size_of_DelayFor18TCY 0008                ?_BusyXLCD 0026  
        WriteCmdXLCD@cmd 0026     __end_of_SetDDRamAddr 0B2C                ?_OpenXLCD 0026  
     __end_of_KEYPADRead 0BD4        WriteDataXLCD@data 0026          ??_WriteDataXLCD 0026  
  __size_of_GetkeyKEYPAD 0010            ScanKEYPAD@col 0031            ScanKEYPAD@idx 002C  
          ScanKEYPAD@key 002D            ScanKEYPAD@tmp 002B            ScanKEYPAD@row 0030  
    __size_of_ScanKEYPAD 00D4               ??_BusyXLCD 0026          __CFG_VREGEN$OFF 000000  
             ??_OpenXLCD 0028                  __Hparam 0000                  __Lparam 0000  
           _GetkeyKEYPAD 0BFC            _DelayFor18TCY 0C0C                ?_putsXLCD 0027  
           __psmallconst 0800          __CFG_STVREN$OFF 000000            KEYPADRead@key 0032  
                __pcinit 0ADC                  __ramtop 0800                  __ptext0 08DE  
                __ptext1 0A4E                  __ptext2 0B76                  __ptext3 0AAA  
                __ptext4 09A8                  __ptext5 0B52                  __ptext6 0B06  
                __ptext7 0BEC                  __ptext8 0BD4                  __ptext9 0B98  
   end_of_initialization 0AFC            __Lmediumconst 0000           ?_DelayFor18TCY 0026  
                postdec1 000FE5                  postinc0 000FEE                  postinc1 000FE6  
                postinc2 000FDE               ??_putsXLCD 0029                _TRISEbits 000F96  
  __size_of_SetDDRamAddr 0026             ??_ScanKEYPAD 0026            __pidataCOMRAM 0B2C  
           _SetDDRamAddr 0B06                _IniciaLCD 0AAA       SetDDRamAddr@DDaddr 0026  
    start_initialization 0ADC       __end_of_ScanKEYPAD 08DE        __size_of_BusyXLCD 0022  
        ??_DelayFor18TCY 0026        __size_of_OpenXLCD 00A6            ?_WriteCmdXLCD 0026  
       __CFG_LPT1OSC$OFF 000000               ?_IniciaLCD 0026      __end_of__stringdata 0809  
         putsXLCD@buffer 0027           ??_WriteCmdXLCD 0026            ?_Delay10KTCYx 0026  
      __size_of_putsXLCD 005C    __end_of_WriteDataXLCD 0B98              __smallconst 0800  
               _LATEbits 000F8D            ?_DelayPORXLCD 0026           ScanKEYPAD@wait 002E  
        OpenXLCD@lcdtype 0028         __CFG_WDTPS$32768 000000                main@F5306 0001  
              main@F5308 0022           ??_Delay10KTCYx 0026                main@Clave 0046  
            __stringdata 0801              ??_IniciaLCD 0029         Delay10KTCYx@unit 0027  
              copy_data0 0AF0                 _KeyCodes 0012                 _BusyXLCD 0B98  
         ??_DelayPORXLCD 0026                 _OpenXLCD 09A8                 __Hrparam 0000  
               __Lrparam 0000                 __ptext10 0C0C                 __ptext11 0BFC  
               __ptext12 0BBA                 __ptext13 080A     __end_of_WriteCmdXLCD 0B76  
          __size_of_main 00CA                 _putsXLCD 0A4E               _KEYPADRead 0BBA  
  __CFG_CPUDIV$OSC1_PLL2 000000     __end_of_Delay10KTCYx 0BEC            ?_GetkeyKEYPAD 0026  
  __end_of_DelayFor18TCY 0C14     __end_of_DelayPORXLCD 0BFC           ??_GetkeyKEYPAD 0033  
