:040000006EEF05F0AA
:1008000000436C6176653A200000266E000E2D6E66
:1008100026500F0EC16E95688168000E936E266E8D
:10082000000E306E26503050800A7C0FD8B054D065
:1008300030C026F0010E276E262A02D0D890273627
:10084000262EFCD72750FF0A816E000E2F6E000E59
:100850002E6E2F50800A800F640ED8B42E5CD8B054
:1008600003D02E4A2F2AF5D783CF2BF0266E000E09
:10087000316E26503150800A7C0FD8B02BD031C059
:1008800026F0010E276E286A262A03D0D890273634
:100890002836262EFBD72BC029F02A6A29BE2A0625
:1008A0002750291628502A162A502910D8A410D0CB
:1008B0003050040DF35031242C6E2C50010D120ECB
:1008C000F324D96E000EF420DA6EDF502D6E04D0C2
:1008D000312AD0D7302AA7D793682D5012000F0E97
:1008E000C16E20EE01F010EE35F0110EDECFE6FF06
:1008F000E82EFCD722C046F023C047F024C048F0C1
:1009000025C049F055EC05F0000E286E350E276E17
:1009100027EC05F0CCEC05F00009D8A4FBD7400E7D
:1009200083EC05F0CCEC05F00009D8A4FBD7346EBD
:10093000000E4A6E345016D0FEEC05F0346E4A506C
:10094000010D460EF324D96E000EF420DA6E34C089
:10095000DFFF2A0EBBEC05F0CCEC05F00009D8A4B3
:10096000FBD74A2A030E4A64E7D7400E83EC05F012
:10097000CCEC05F00009D8A4FBD7080E286E010EB8
:10098000276E27EC05F0CCEC05F00009D8A4FBD7C6
:10099000000E286E460E276E27EC05F0CCEC05F015
:1009A0000009D8A4FBD7FFD7E8CF28F0000E816E4E
:1009B000000E936E9692969096948D928D908D9453
:1009C000F6EC05F0300EA9EC05F0050EEAEC05F0AA
:1009D000300EA9EC05F0010EEAEC05F0320EA9ECA0
:1009E00005F0CCEC05F00009D8A4FBD7CCEC05F061
:1009F0000009D8A4FBD72850A9EC05F0CCEC05F0F1
:100A00000009D8A4FBD7080EA9EC05F0CCEC05F042
:100A10000009D8A4FBD70F0EA9EC05F0CCEC05F02B
:100A20000009D8A4FBD7010EA9EC05F0CCEC05F029
:100A30000009D8A4FBD7040EA9EC05F0CCEC05F016
:100A40000009D8A4FBD7800E83EC05F0120019D062
:100A5000CCEC05F00009D8A4FBD727C0F6FF28C0CE
:100A6000F7FFF86A070EF76403D00800F55005D0C9
:100A7000F6CFD9FFF7CFDAFFDF50BBEC05F0274AFE
:100A8000282A27C0F6FF28C0F7FFF86A070EF76488
:100A900003D00800F55005D0F6CFD9FFF7CFDAFF25
:100AA000DF500009D8B41200D3D7380ED4EC04F0CC
:100AB000CCEC05F00009D8A4FBD70C0EA9EC05F08E
:100AC000CCEC05F00009D8A4FBD7060EA9EC05F084
:100AD000CCEC05F00009D8B41200FAD72C0EF66E53
:100AE0000B0EF76E000EF86E00EE01F010EE25F022
:100AF0000900F5CFEEFFE550E150FAE1000EF86E87
:100B000000016FEF04F0E8CF26F0000E936E265040
:100B10008009816E8D928D9006EC06F08D8406EC36
:100B200006F08D9406EC06F093681200444947499C
:100B30005445204C4120434C4156453A0031323314
:100B40004134353642373839432A30234430303047
:100B50003000E8CF26F0000E936E26C081FF8D9204
:100B60008D9006EC06F08D8406EC06F08D9406EC74
:100B700006F093681200E8CF26F0000E936E26C0B0
:100B800081FF8D808D9206EC06F08D8406EC06F0D8
:100B90008D948D90936812008D828D9006EC06F0F6
:100BA0008D8406EC06F081AE04D08D948D92010EFA
:100BB00003D08D948D92000E120005EC04F0326E7D
:100BC0003250D8B405D005EC04F00009D8A4FBD706
:100BD00032501200E8CF27F00D0E266EFC0EE82EE4
:100BE000FED7262EFCD7272EF7D71200140E266E1E
:100BF0007A0EE82EFED7262EFCD71200DDEC05F08B
:100C0000336E3350D8B4FAD733501200060EE82EA4
:040C1000FED71200F9
:020000040020DA
:08000000FFFFFFFFFFFFFFFF00
:020000040030CA
:0E000000000C181EFF8080FF0FC00FE00F40A5
:00000001FF
