

Microchip Technology PIC18 LITE Macro Assembler V1.42 build -159332390 
                                                                                               Tue May 30 17:38:05 2017

Microchip Technology Omniscient Code Generator v1.42 (Free mode) build 201704130522
     1                           	processor	18F4550
     2                           	fnconf	rparam,??,?,0
     3                           	opt	pw 120
     4                           	opt	lm
     5                           	psect	idataCOMRAM,global,class=CODE,delta=1,noexec
     6                           	psect	idataBANK0,global,class=CODE,delta=1,noexec
     7                           	psect	smallconst,global,reloc=2,class=SMALLCONST,delta=1,noexec
     8                           	psect	cinit,global,reloc=2,class=CODE,delta=1
     9                           	psect	dataCOMRAM,global,class=COMRAM,space=1,delta=1,noexec
    10                           	psect	bssBANK0,global,class=BANK0,space=1,delta=1,lowdata,noexec
    11                           	psect	dataBANK0,global,class=BANK0,space=1,delta=1,lowdata,noexec
    12                           	psect	cstackBANK0,global,class=BANK0,space=1,delta=1,noexec
    13                           	psect	cstackCOMRAM,global,class=COMRAM,space=1,delta=1,noexec
    14                           	psect	text0,global,reloc=2,class=CODE,delta=1
    15                           	psect	text1,global,reloc=2,class=CODE,delta=1
    16                           	psect	text2,global,reloc=2,class=CODE,delta=1
    17                           	psect	text3,global,reloc=2,class=CODE,delta=1,group=1
    18                           	psect	text4,global,reloc=2,class=CODE,delta=1
    19                           	psect	text5,global,reloc=2,class=CODE,delta=1,group=1
    20                           	psect	text6,global,reloc=2,class=CODE,delta=1,group=1
    21                           	psect	text7,global,reloc=2,class=CODE,delta=1,group=1
    22                           	psect	text8,global,reloc=2,class=CODE,delta=1,group=1
    23                           	psect	text9,global,reloc=2,class=CODE,delta=1,group=1
    24                           	psect	text10,global,reloc=2,class=CODE,delta=1,group=1
    25                           	psect	text11,global,reloc=2,class=CODE,delta=1,group=1
    26                           	psect	text12,global,reloc=2,class=CODE,delta=1,group=1
    27                           	psect	text13,global,reloc=2,class=CODE,delta=1,group=1
    28                           	psect	text14,global,reloc=2,class=CODE,delta=1,group=1
    29                           	psect	text15,global,reloc=2,class=CODE,delta=1,group=1
    30                           	psect	text16,global,reloc=2,class=CODE,delta=1,group=1
    31                           	psect	text17,global,reloc=2,class=CODE,delta=1,group=1
    32                           	psect	text18,global,reloc=2,class=CODE,delta=1,group=1
    33                           	psect	text19,global,reloc=2,class=CODE,delta=1,group=1
    34                           	psect	text20,global,reloc=2,class=CODE,delta=1
    35                           	psect	text21,global,reloc=2,class=CODE,delta=1
    36                           	psect	text22,global,reloc=2,class=CODE,delta=1
    37                           	psect	text23,global,reloc=2,class=CODE,delta=1
    38                           	psect	text24,global,reloc=2,class=CODE,delta=1
    39                           	psect	intsave_regs,global,class=BIGRAM,space=1,delta=1,noexec
    40                           	psect	rparam,global,class=COMRAM,space=1,delta=1,noexec
    41  0000                     
    42                           ; Version 1.42
    43                           ; Generated 13/04/2017 GMT
    44                           ; 
    45                           ; Copyright © 2017, Microchip Technology Inc. and its subsidiaries ("Microchip")
    46                           ; All rights reserved.
    47                           ; 
    48                           ; This software is developed by Microchip Technology Inc. and its subsidiaries ("Microch
      +                          ip").
    49                           ; 
    50                           ; Redistribution and use in source and binary forms, with or without modification, are
    51                           ; permitted provided that the following conditions are met:
    52                           ; 
    53                           ;     1. Redistributions of source code must retain the above copyright notice, this lis
      +                          t of
    54                           ;        conditions and the following disclaimer.
    55                           ; 
    56                           ;     2. Redistributions in binary form must reproduce the above copyright notice, this 
      +                          list
    57                           ;        of conditions and the following disclaimer in the documentation and/or other
    58                           ;        materials provided with the distribution.
    59                           ; 
    60                           ;     3. Microchip's name may not be used to endorse or promote products derived from th
      +                          is
    61                           ;        software without specific prior written permission.
    62                           ; 
    63                           ; THIS SOFTWARE IS PROVIDED BY MICROCHIP "AS IS" AND ANY EXPRESS OR IMPLIED WARRANTIES,
    64                           ; INCLUDING, BUT NOT LIMITED TO, THE IMPLIED WARRANTIES OF MERCHANTABILITY AND FITNESS F
      +                          OR
    65                           ; PURPOSE ARE DISCLAIMED.  IN NO EVENT SHALL MICROCHIP BE LIABLE FOR ANY DIRECT, INDIREC
      +                          T,
    66                           ; INCIDENTAL, SPECIAL, EXEMPLARY, OR CONSEQUENTIAL DAMAGES (INCLUDING BUT NOT LIMITED TO
    67                           ; PROCUREMENT OF SUBSTITUTE GOODS OR SERVICES; LOSS OF USE, DATA OR PROFITS; OR BUSINESS
    68                           ; INTERRUPTION) HOWSOEVER CAUSED AND ON ANY THEORY OF LIABILITY, WHETHER IN CONTRACT, ST
      +                          RICT
    69                           ; LIABILITY, OR TORT (INCLUDING NEGLIGENCE OR OTHERWISE) ARISING IN ANY WAY OUT OF THE U
      +                          SE OF
    70                           ; THIS SOFTWARE, EVEN IF ADVISED OF THE POSSIBILITY OF SUCH DAMAGE.
    71                           ; 
    72                           ; 
    73                           ; Code-generator required, PIC18F4550 Definitions
    74                           ; 
    75                           ; SFR Addresses
    76  0000                     
    77                           	psect	idataCOMRAM
    78  002673                     __pidataCOMRAM:
    79                           	opt stack 0
    80                           
    81                           ;initializer for _b
    82  002673  10                 	db	16
    83  002674  49                 	db	73
    84  002675  40                 	db	64
    85                           
    86                           ;initializer for _a
    87  002676  001F               	dw	31
    88                           
    89                           ;initializer for _Caracter
    90  002678  41                 	db	65
    91                           
    92                           	psect	idataBANK0
    93  002666                     __pidataBANK0:
    94                           	opt stack 0
    95                           
    96                           ;initializer for _Mensaje
    97  002666  44                 	db	68
    98  002667  69                 	db	105
    99  002668  67                 	db	103
   100  002669  69                 	db	105
   101  00266A  74                 	db	116
   102  00266B  61                 	db	97
   103  00266C  6C                 	db	108
   104  00266D  65                 	db	101
   105  00266E  73                 	db	115
   106  00266F  20                 	db	32
   107  002670  49                 	db	73
   108  002671  49                 	db	73
   109  002672  00                 	db	0
   110                           
   111                           	psect	smallconst
   112  000800                     __psmallconst:
   113                           	opt stack 0
   114  000800  00                 	db	0
   115  000801                     _dpowers:
   116                           	opt stack 0
   117  000801  0001               	dw	1
   118  000803  0000               	dw	0
   119  000805  000A               	dw	10
   120  000807  0000               	dw	0
   121  000809  0064               	dw	100
   122  00080B  0000               	dw	0
   123  00080D  03E8               	dw	1000
   124  00080F  0000               	dw	0
   125  000811  2710               	dw	10000
   126  000813  0000               	dw	0
   127  000815  86A0               	dw	34464
   128  000817  0001               	dw	1
   129  000819  4240               	dw	16960
   130  00081B  000F               	dw	15
   131  00081D  9680               	dw	38528
   132  00081F  0098               	dw	152
   133  000821  E100               	dw	57600
   134  000823  05F5               	dw	1525
   135  000825  CA00               	dw	51712
   136  000827  3B9A               	dw	15258
   137  000829                     __end_of_dpowers:
   138                           	opt stack 0
   139  000829                     __powers_:
   140                           	opt stack 0
   141  000829  00                 	db	0
   142  00082A  80                 	db	128
   143  00082B  3F                 	db	63
   144  00082C  00                 	db	0
   145  00082D  20                 	db	32
   146  00082E  41                 	db	65
   147  00082F  00                 	db	0
   148  000830  C8                 	db	200
   149  000831  42                 	db	66
   150  000832  00                 	db	0
   151  000833  7A                 	db	122
   152  000834  44                 	db	68
   153  000835  40                 	db	64
   154  000836  1C                 	db	28
   155  000837  46                 	db	70
   156  000838  50                 	db	80
   157  000839  C3                 	db	195
   158  00083A  47                 	db	71
   159  00083B  24                 	db	36
   160  00083C  74                 	db	116
   161  00083D  49                 	db	73
   162  00083E  97                 	db	151
   163  00083F  18                 	db	24
   164  000840  4B                 	db	75
   165  000841  BC                 	db	188
   166  000842  BE                 	db	190
   167  000843  4C                 	db	76
   168  000844  6B                 	db	107
   169  000845  6E                 	db	110
   170  000846  4E                 	db	78
   171  000847  03                 	db	3
   172  000848  15                 	db	21
   173  000849  50                 	db	80
   174  00084A  79                 	db	121
   175  00084B  AD                 	db	173
   176  00084C  60                 	db	96
   177  00084D  F3                 	db	243
   178  00084E  49                 	db	73
   179  00084F  71                 	db	113
   180  000850                     __end_of__powers_:
   181                           	opt stack 0
   182  000850                     __npowers_:
   183                           	opt stack 0
   184  000850  00                 	db	0
   185  000851  80                 	db	128
   186  000852  3F                 	db	63
   187  000853  CD                 	db	205
   188  000854  CC                 	db	204
   189  000855  3D                 	db	61
   190  000856  D7                 	db	215
   191  000857  23                 	db	35
   192  000858  3C                 	db	60
   193  000859  12                 	db	18
   194  00085A  83                 	db	131
   195  00085B  3A                 	db	58
   196  00085C  B7                 	db	183
   197  00085D  D1                 	db	209
   198  00085E  38                 	db	56
   199  00085F  C6                 	db	198
   200  000860  27                 	db	39
   201  000861  37                 	db	55
   202  000862  38                 	db	56
   203  000863  86                 	db	134
   204  000864  35                 	db	53
   205  000865  C0                 	db	192
   206  000866  D6                 	db	214
   207  000867  33                 	db	51
   208  000868  CC                 	db	204
   209  000869  2B                 	db	43
   210  00086A  32                 	db	50
   211  00086B  70                 	db	112
   212  00086C  89                 	db	137
   213  00086D  30                 	db	48
   214  00086E  E7                 	db	231
   215  00086F  DB                 	db	219
   216  000870  2E                 	db	46
   217  000871  E5                 	db	229
   218  000872  3C                 	db	60
   219  000873  1E                 	db	30
   220  000874  42                 	db	66
   221  000875  A2                 	db	162
   222  000876  0D                 	db	13
   223  000877                     __end_of__npowers_:
   224                           	opt stack 0
   225  0000                     _ADCON1bits	set	4033
   226  0000                     _OSCCONbits	set	4051
   227  0000                     _PORTDbits	set	3971
   228  0000                     _TRISDbits	set	3989
   229  000877                     STR_1:
   230  000877  61                 	db	97	;'a'
   231  000878  3D                 	db	61	;'='
   232  000879  25                 	db	37
   233  00087A  64                 	db	100	;'d'
   234  00087B  2C                 	db	44
   235  00087C  62                 	db	98	;'b'
   236  00087D  3D                 	db	61	;'='
   237  00087E  25                 	db	37
   238  00087F  2E                 	db	46
   239  000880  33                 	db	51	;'3'
   240  000881  66                 	db	102	;'f'
   241  000882  00                 	db	0
   242                           
   243                           ; #config settings
   244  000883  00                 	db	0	; dummy byte at the end
   245  0000                     
   246                           	psect	cinit
   247  002558                     __pcinit:
   248                           	opt stack 0
   249  002558                     start_initialization:
   250                           	opt stack 0
   251  002558                     __initialization:
   252                           	opt stack 0
   253                           
   254                           ; Initialize objects allocated to BANK0 (13 bytes)
   255                           ; load TBLPTR registers with __pidataBANK0
   256  002558  0E66               	movlw	low __pidataBANK0
   257  00255A  6EF6               	movwf	tblptrl,c
   258  00255C  0E26               	movlw	high __pidataBANK0
   259  00255E  6EF7               	movwf	tblptrh,c
   260  002560  0E00               	movlw	low (__pidataBANK0 shr (0+16))
   261  002562  6EF8               	movwf	tblptru,c
   262  002564  EE00  F087         	lfsr	0,__pdataBANK0
   263  002568  EE10 F00D          	lfsr	1,13
   264  00256C                     copy_data0:
   265  00256C  0009               	tblrd		*+
   266  00256E  CFF5 FFEE          	movff	tablat,postinc0
   267  002572  50E5               	movf	postdec1,w,c
   268  002574  50E1               	movf	fsr1l,w,c
   269  002576  E1FA               	bnz	copy_data0
   270                           
   271                           ; Initialize objects allocated to COMRAM (6 bytes)
   272                           ; load TBLPTR registers with __pidataCOMRAM
   273  002578  0E73               	movlw	low __pidataCOMRAM
   274  00257A  6EF6               	movwf	tblptrl,c
   275  00257C  0E26               	movlw	high __pidataCOMRAM
   276  00257E  6EF7               	movwf	tblptrh,c
   277  002580  0E00               	movlw	low (__pidataCOMRAM shr (0+16))
   278  002582  6EF8               	movwf	tblptru,c
   279  002584  EE00  F04F         	lfsr	0,__pdataCOMRAM
   280  002588  EE10 F006          	lfsr	1,6
   281  00258C                     copy_data1:
   282  00258C  0009               	tblrd		*+
   283  00258E  CFF5 FFEE          	movff	tablat,postinc0
   284  002592  50E5               	movf	postdec1,w,c
   285  002594  50E1               	movf	fsr1l,w,c
   286  002596  E1FA               	bnz	copy_data1
   287                           
   288                           ; Clear objects allocated to BANK0 (16 bytes)
   289  002598  EE00  F077         	lfsr	0,__pbssBANK0
   290  00259C  0E10               	movlw	16
   291  00259E                     clear_0:
   292  00259E  6AEE               	clrf	postinc0,c
   293  0025A0  06E8               	decf	wreg,f,c
   294  0025A2  E1FD               	bnz	clear_0
   295  0025A4                     end_of_initialization:
   296                           	opt stack 0
   297  0025A4                     __end_of__initialization:
   298                           	opt stack 0
   299  0025A4  0E00               	movlw	low (__Lmediumconst shr (0+16))
   300  0025A6  6EF8               	movwf	tblptru,c
   301  0025A8  0100               	movlb	0
   302  0025AA  EFE6  F011         	goto	_main	;jump to C main() function
   303                           tblptru	equ	0xFF8
   304                           tblptrh	equ	0xFF7
   305                           tblptrl	equ	0xFF6
   306                           tablat	equ	0xFF5
   307                           postinc0	equ	0xFEE
   308                           wreg	equ	0xFE8
   309                           postdec1	equ	0xFE5
   310                           fsr1l	equ	0xFE1
   311                           
   312                           	psect	dataCOMRAM
   313  00004F                     __pdataCOMRAM:
   314                           	opt stack 0
   315  00004F                     _b:
   316                           	opt stack 0
   317  00004F                     	ds	3
   318  000052                     _a:
   319                           	opt stack 0
   320  000052                     	ds	2
   321  000054                     _Caracter:
   322                           	opt stack 0
   323  000054                     	ds	1
   324                           tblptru	equ	0xFF8
   325                           tblptrh	equ	0xFF7
   326                           tblptrl	equ	0xFF6
   327                           tablat	equ	0xFF5
   328                           postinc0	equ	0xFEE
   329                           wreg	equ	0xFE8
   330                           postdec1	equ	0xFE5
   331                           fsr1l	equ	0xFE1
   332                           
   333                           	psect	bssBANK0
   334  000077                     __pbssBANK0:
   335                           	opt stack 0
   336  000077                     _TextoLCD:
   337                           	opt stack 0
   338  000077                     	ds	16
   339                           tblptru	equ	0xFF8
   340                           tblptrh	equ	0xFF7
   341                           tblptrl	equ	0xFF6
   342                           tablat	equ	0xFF5
   343                           postinc0	equ	0xFEE
   344                           wreg	equ	0xFE8
   345                           postdec1	equ	0xFE5
   346                           fsr1l	equ	0xFE1
   347                           
   348                           	psect	dataBANK0
   349  000087                     __pdataBANK0:
   350                           	opt stack 0
   351  000087                     _Mensaje:
   352                           	opt stack 0
   353  000087                     	ds	13
   354                           tblptru	equ	0xFF8
   355                           tblptrh	equ	0xFF7
   356                           tblptrl	equ	0xFF6
   357                           tablat	equ	0xFF5
   358                           postinc0	equ	0xFEE
   359                           wreg	equ	0xFE8
   360                           postdec1	equ	0xFE5
   361                           fsr1l	equ	0xFE1
   362                           
   363                           	psect	cstackBANK0
   364  000060                     __pcstackBANK0:
   365                           	opt stack 0
   366  000060                     _sprintf$871:
   367                           	opt stack 0
   368                           
   369                           ; 3 bytes @ 0x0
   370  000060                     	ds	3
   371  000063                     sprintf@ap:
   372                           	opt stack 0
   373                           
   374                           ; 2 bytes @ 0x3
   375  000063                     	ds	2
   376  000065                     sprintf@flag:
   377                           	opt stack 0
   378                           
   379                           ; 2 bytes @ 0x5
   380  000065                     	ds	2
   381  000067                     sprintf@exp:
   382                           	opt stack 0
   383                           
   384                           ; 2 bytes @ 0x7
   385  000067                     	ds	2
   386  000069                     sprintf@tmpval:
   387                           	opt stack 0
   388                           
   389                           ; 4 bytes @ 0x9
   390  000069                     	ds	4
   391  00006D                     sprintf@val:
   392                           	opt stack 0
   393                           
   394                           ; 4 bytes @ 0xD
   395  00006D                     	ds	4
   396  000071                     sprintf@prec:
   397                           	opt stack 0
   398                           
   399                           ; 2 bytes @ 0x11
   400  000071                     	ds	2
   401  000073                     sprintf@fval:
   402                           	opt stack 0
   403                           
   404                           ; 3 bytes @ 0x13
   405  000073                     	ds	3
   406  000076                     sprintf@c:
   407                           	opt stack 0
   408                           
   409                           ; 1 bytes @ 0x16
   410  000076                     	ds	1
   411                           tblptru	equ	0xFF8
   412                           tblptrh	equ	0xFF7
   413                           tblptrl	equ	0xFF6
   414                           tablat	equ	0xFF5
   415                           postinc0	equ	0xFEE
   416                           wreg	equ	0xFE8
   417                           postdec1	equ	0xFE5
   418                           fsr1l	equ	0xFE1
   419                           
   420                           	psect	cstackCOMRAM
   421  000001                     __pcstackCOMRAM:
   422                           	opt stack 0
   423  000001                     ??_Lcd_Cmd:
   424  000001                     ??_Lcd_Chr_CP:
   425  000001                     ??_isdigit:
   426  000001                     ?___awmod:
   427                           	opt stack 0
   428  000001                     ?___ftpack:
   429                           	opt stack 0
   430  000001                     ?___ftneg:
   431                           	opt stack 0
   432  000001                     ?__tdiv_to_l_:
   433                           	opt stack 0
   434  000001                     ?__div_to_l_:
   435                           	opt stack 0
   436  000001                     ?___lldiv:
   437                           	opt stack 0
   438  000001                     ___awmod@dividend:
   439                           	opt stack 0
   440  000001                     __div_to_l_@f1:
   441                           	opt stack 0
   442  000001                     ___ftpack@arg:
   443                           	opt stack 0
   444  000001                     __tdiv_to_l_@f1:
   445                           	opt stack 0
   446  000001                     ___ftge@ff1:
   447                           	opt stack 0
   448  000001                     ___ftneg@f1:
   449                           	opt stack 0
   450  000001                     ___lldiv@dividend:
   451                           	opt stack 0
   452                           
   453                           ; 4 bytes @ 0x0
   454  000001                     	ds	1
   455  000002                     _isdigit$534:
   456                           	opt stack 0
   457                           
   458                           ; 1 bytes @ 0x1
   459  000002                     	ds	1
   460  000003                     Lcd_Chr_CP@data:
   461                           	opt stack 0
   462  000003                     Lcd_Cmd@data:
   463                           	opt stack 0
   464  000003                     isdigit@c:
   465                           	opt stack 0
   466  000003                     ___awmod@divisor:
   467                           	opt stack 0
   468                           
   469                           ; 2 bytes @ 0x2
   470  000003                     	ds	1
   471  000004                     ??_Lcd_Init:
   472  000004                     Lcd_Out@x:
   473                           	opt stack 0
   474  000004                     ___ftpack@exp:
   475                           	opt stack 0
   476  000004                     __div_to_l_@f2:
   477                           	opt stack 0
   478  000004                     __tdiv_to_l_@f2:
   479                           	opt stack 0
   480  000004                     ___ftge@ff2:
   481                           	opt stack 0
   482                           
   483                           ; 3 bytes @ 0x3
   484  000004                     	ds	1
   485  000005                     Lcd_Init@data:
   486                           	opt stack 0
   487  000005                     ___awmod@counter:
   488                           	opt stack 0
   489  000005                     ___ftpack@sign:
   490                           	opt stack 0
   491  000005                     Lcd_Out@buffer:
   492                           	opt stack 0
   493  000005                     ___lldiv@divisor:
   494                           	opt stack 0
   495                           
   496                           ; 4 bytes @ 0x4
   497  000005                     	ds	1
   498  000006                     ??___ftpack:
   499  000006                     ___awmod@sign:
   500                           	opt stack 0
   501                           
   502                           ; 1 bytes @ 0x5
   503  000006                     	ds	1
   504  000007                     ??__tdiv_to_l_:
   505  000007                     ??___ftge:
   506  000007                     ?___awdiv:
   507                           	opt stack 0
   508  000007                     Lcd_Out@y:
   509                           	opt stack 0
   510  000007                     ___awdiv@dividend:
   511                           	opt stack 0
   512  000007                     __div_to_l_@quot:
   513                           	opt stack 0
   514                           
   515                           ; 4 bytes @ 0x6
   516  000007                     	ds	1
   517  000008                     Lcd_Out@data:
   518                           	opt stack 0
   519                           
   520                           ; 1 bytes @ 0x7
   521  000008                     	ds	1
   522  000009                     ?___lltoft:
   523                           	opt stack 0
   524  000009                     ___awdiv@divisor:
   525                           	opt stack 0
   526  000009                     ___lldiv@quotient:
   527                           	opt stack 0
   528  000009                     ___lltoft@c:
   529                           	opt stack 0
   530                           
   531                           ; 4 bytes @ 0x8
   532  000009                     	ds	1
   533  00000A                     __tdiv_to_l_@quot:
   534                           	opt stack 0
   535                           
   536                           ; 4 bytes @ 0x9
   537  00000A                     	ds	1
   538  00000B                     ___awdiv@counter:
   539                           	opt stack 0
   540  00000B                     __div_to_l_@cntr:
   541                           	opt stack 0
   542                           
   543                           ; 1 bytes @ 0xA
   544  00000B                     	ds	1
   545  00000C                     ___awdiv@sign:
   546                           	opt stack 0
   547  00000C                     __div_to_l_@exp1:
   548                           	opt stack 0
   549                           
   550                           ; 1 bytes @ 0xB
   551  00000C                     	ds	1
   552  00000D                     ??___lltoft:
   553  00000D                     ___lldiv@counter:
   554                           	opt stack 0
   555  00000D                     ___awdiv@quotient:
   556                           	opt stack 0
   557                           
   558                           ; 2 bytes @ 0xC
   559  00000D                     	ds	1
   560  00000E                     ?___llmod:
   561                           	opt stack 0
   562  00000E                     __tdiv_to_l_@cntr:
   563                           	opt stack 0
   564  00000E                     ___llmod@dividend:
   565                           	opt stack 0
   566                           
   567                           ; 4 bytes @ 0xD
   568  00000E                     	ds	1
   569  00000F                     ?___wmul:
   570                           	opt stack 0
   571  00000F                     __tdiv_to_l_@exp1:
   572                           	opt stack 0
   573  00000F                     ___wmul@multiplier:
   574                           	opt stack 0
   575                           
   576                           ; 2 bytes @ 0xE
   577  00000F                     	ds	2
   578  000011                     ___lltoft@exp:
   579                           	opt stack 0
   580  000011                     ___wmul@multiplicand:
   581                           	opt stack 0
   582                           
   583                           ; 2 bytes @ 0x10
   584  000011                     	ds	1
   585  000012                     ___llmod@divisor:
   586                           	opt stack 0
   587                           
   588                           ; 4 bytes @ 0x11
   589  000012                     	ds	1
   590  000013                     ___wmul@product:
   591                           	opt stack 0
   592                           
   593                           ; 2 bytes @ 0x12
   594  000013                     	ds	2
   595  000015                     ?___ftmul:
   596                           	opt stack 0
   597  000015                     ___ftmul@f1:
   598                           	opt stack 0
   599                           
   600                           ; 3 bytes @ 0x14
   601  000015                     	ds	1
   602  000016                     ___llmod@counter:
   603                           	opt stack 0
   604                           
   605                           ; 1 bytes @ 0x15
   606  000016                     	ds	2
   607  000018                     ___ftmul@f2:
   608                           	opt stack 0
   609                           
   610                           ; 3 bytes @ 0x17
   611  000018                     	ds	3
   612  00001B                     ??___ftmul:
   613                           
   614                           ; 1 bytes @ 0x1A
   615  00001B                     	ds	3
   616  00001E                     ___ftmul@exp:
   617                           	opt stack 0
   618                           
   619                           ; 1 bytes @ 0x1D
   620  00001E                     	ds	1
   621  00001F                     ___ftmul@f3_as_product:
   622                           	opt stack 0
   623                           
   624                           ; 3 bytes @ 0x1E
   625  00001F                     	ds	3
   626  000022                     ___ftmul@cntr:
   627                           	opt stack 0
   628                           
   629                           ; 1 bytes @ 0x21
   630  000022                     	ds	1
   631  000023                     ___ftmul@sign:
   632                           	opt stack 0
   633                           
   634                           ; 1 bytes @ 0x22
   635  000023                     	ds	1
   636  000024                     ?_fround:
   637                           	opt stack 0
   638  000024                     ?_scale:
   639                           	opt stack 0
   640                           
   641                           ; 3 bytes @ 0x23
   642  000024                     	ds	3
   643  000027                     _fround$869:
   644                           	opt stack 0
   645  000027                     _scale$870:
   646                           	opt stack 0
   647                           
   648                           ; 3 bytes @ 0x26
   649  000027                     	ds	3
   650  00002A                     scale@scl:
   651                           	opt stack 0
   652  00002A                     _fround$868:
   653                           	opt stack 0
   654                           
   655                           ; 3 bytes @ 0x29
   656  00002A                     	ds	1
   657  00002B                     ?___fttol:
   658                           	opt stack 0
   659  00002B                     ___fttol@f1:
   660                           	opt stack 0
   661                           
   662                           ; 3 bytes @ 0x2A
   663  00002B                     	ds	2
   664  00002D                     fround@prec:
   665                           	opt stack 0
   666                           
   667                           ; 1 bytes @ 0x2C
   668  00002D                     	ds	1
   669  00002E                     ?___ftadd:
   670                           	opt stack 0
   671  00002E                     ___ftadd@f1:
   672                           	opt stack 0
   673                           
   674                           ; 3 bytes @ 0x2D
   675  00002E                     	ds	1
   676  00002F                     ??___fttol:
   677                           
   678                           ; 1 bytes @ 0x2E
   679  00002F                     	ds	2
   680  000031                     ___ftadd@f2:
   681                           	opt stack 0
   682                           
   683                           ; 3 bytes @ 0x30
   684  000031                     	ds	3
   685  000034                     ??___ftadd:
   686  000034                     ___fttol@sign1:
   687                           	opt stack 0
   688                           
   689                           ; 1 bytes @ 0x33
   690  000034                     	ds	1
   691  000035                     ___fttol@lval:
   692                           	opt stack 0
   693                           
   694                           ; 4 bytes @ 0x34
   695  000035                     	ds	2
   696  000037                     ___ftadd@sign:
   697                           	opt stack 0
   698                           
   699                           ; 1 bytes @ 0x36
   700  000037                     	ds	1
   701  000038                     ___ftadd@exp2:
   702                           	opt stack 0
   703                           
   704                           ; 1 bytes @ 0x37
   705  000038                     	ds	1
   706  000039                     ___ftadd@exp1:
   707                           	opt stack 0
   708  000039                     ___fttol@exp1:
   709                           	opt stack 0
   710                           
   711                           ; 1 bytes @ 0x38
   712  000039                     	ds	1
   713  00003A                     ?___ftsub:
   714                           	opt stack 0
   715  00003A                     ___ftsub@f1:
   716                           	opt stack 0
   717                           
   718                           ; 3 bytes @ 0x39
   719  00003A                     	ds	3
   720  00003D                     ___ftsub@f2:
   721                           	opt stack 0
   722                           
   723                           ; 3 bytes @ 0x3C
   724  00003D                     	ds	3
   725  000040                     ?_sprintf:
   726                           	opt stack 0
   727  000040                     sprintf@sp:
   728                           	opt stack 0
   729                           
   730                           ; 2 bytes @ 0x3F
   731  000040                     	ds	2
   732  000042                     sprintf@f:
   733                           	opt stack 0
   734                           
   735                           ; 2 bytes @ 0x41
   736  000042                     	ds	7
   737  000049                     ??_sprintf:
   738                           
   739                           ; 1 bytes @ 0x48
   740  000049                     	ds	6
   741  00004F                     tblptru	equ	0xFF8
   742                           tblptrh	equ	0xFF7
   743                           tblptrl	equ	0xFF6
   744                           tablat	equ	0xFF5
   745                           postinc0	equ	0xFEE
   746                           wreg	equ	0xFE8
   747                           postdec1	equ	0xFE5
   748                           fsr1l	equ	0xFE1
   749                           
   750                           ; 1 bytes @ 0x4E
   751 ;;
   752 ;;Main: autosize = 0, tempsize = 0, incstack = 0, save=0
   753 ;;
   754 ;; *************** function _main *****************
   755 ;; Defined at:
   756 ;;		line 42 in file "main.c"
   757 ;; Parameters:    Size  Location     Type
   758 ;;		None
   759 ;; Auto vars:     Size  Location     Type
   760 ;;		None
   761 ;; Return value:  Size  Location     Type
   762 ;;                  1    wreg      void 
   763 ;; Registers used:
   764 ;;		wreg, fsr2l, fsr2h, status,2, status,0, tblptrl, tblptrh, tblptru, prodl, prodh, cstack
   765 ;; Tracked objects:
   766 ;;		On entry : 0/0
   767 ;;		On exit  : 0/0
   768 ;;		Unchanged: 0/0
   769 ;; Data sizes:     COMRAM   BANK0   BANK1   BANK2   BANK3   BANK4   BANK5   BANK6   BANK7
   770 ;;      Params:         0       0       0       0       0       0       0       0       0
   771 ;;      Locals:         0       0       0       0       0       0       0       0       0
   772 ;;      Temps:          0       0       0       0       0       0       0       0       0
   773 ;;      Totals:         0       0       0       0       0       0       0       0       0
   774 ;;Total ram usage:        0 bytes
   775 ;; Hardware stack levels required when called:    4
   776 ;; This function calls:
   777 ;;		_Lcd_Chr_CP
   778 ;;		_Lcd_Cmd
   779 ;;		_Lcd_Init
   780 ;;		_Lcd_Out
   781 ;;		_SetUp
   782 ;;		_sprintf
   783 ;; This function is called by:
   784 ;;		Startup code after reset
   785 ;; This function uses a non-reentrant model
   786 ;;
   787                           
   788                           	psect	text0
   789  0023CC                     __ptext0:
   790                           	opt stack 0
   791  0023CC                     _main:
   792                           	opt stack 27
   793                           
   794                           ;main.c: 44: SetUp();
   795                           
   796                           ;incstack = 0
   797  0023CC  EC2B  F013         	call	_SetUp	;wreg free
   798                           
   799                           ;main.c: 45: Lcd_Init();
   800  0023D0  EC0B  F00F         	call	_Lcd_Init	;wreg free
   801                           
   802                           ;main.c: 46: Lcd_Cmd(12);
   803  0023D4  0E0C               	movlw	12
   804  0023D6  EC77  F00E         	call	_Lcd_Cmd
   805                           
   806                           ;main.c: 48: Lcd_Out(1,0,Mensaje);
   807  0023DA  0E00               	movlw	0
   808  0023DC  6E04               	movwf	Lcd_Out@x,c
   809  0023DE  0E87               	movlw	low _Mensaje
   810  0023E0  6E05               	movwf	Lcd_Out@buffer,c
   811  0023E2  0E00               	movlw	high _Mensaje
   812  0023E4  6E06               	movwf	Lcd_Out@buffer+1,c
   813  0023E6  0E01               	movlw	1
   814  0023E8  EC4D  F012         	call	_Lcd_Out
   815                           
   816                           ;main.c: 49: Lcd_Cmd(20);
   817  0023EC  0E14               	movlw	20
   818  0023EE  EC77  F00E         	call	_Lcd_Cmd
   819                           
   820                           ;main.c: 50: Lcd_Chr_CP(Caracter);
   821  0023F2  5054               	movf	_Caracter,w,c
   822  0023F4  EC4B  F00D         	call	_Lcd_Chr_CP
   823                           
   824                           ;main.c: 52: sprintf(TextoLCD, "a=%d,b=%.3f",a,b);
   825  0023F8  0E77               	movlw	low _TextoLCD
   826  0023FA  6E40               	movwf	sprintf@sp,c
   827  0023FC  0E00               	movlw	high _TextoLCD
   828  0023FE  6E41               	movwf	sprintf@sp+1,c
   829  002400  0E77               	movlw	low STR_1
   830  002402  6E42               	movwf	sprintf@f,c
   831  002404  0E08               	movlw	high STR_1
   832  002406  6E43               	movwf	sprintf@f+1,c
   833  002408  C052  F044         	movff	_a,?_sprintf+4
   834  00240C  C053  F045         	movff	_a+1,?_sprintf+5
   835  002410  C04F  F046         	movff	_b,?_sprintf+6
   836  002414  C050  F047         	movff	_b+1,?_sprintf+7
   837  002418  C051  F048         	movff	_b+2,?_sprintf+8
   838  00241C  EC42  F004         	call	_sprintf	;wreg free
   839                           
   840                           ;main.c: 53: Lcd_Out(2,0,TextoLCD);
   841  002420  0E00               	movlw	0
   842  002422  6E04               	movwf	Lcd_Out@x,c
   843  002424  0E77               	movlw	low _TextoLCD
   844  002426  6E05               	movwf	Lcd_Out@buffer,c
   845  002428  0E00               	movlw	high _TextoLCD
   846  00242A  6E06               	movwf	Lcd_Out@buffer+1,c
   847  00242C  0E02               	movlw	2
   848  00242E  EC4D  F012         	call	_Lcd_Out
   849  002432                     l70:
   850  002432  D7FF               	goto	l70
   851  002434                     __end_of_main:
   852                           	opt stack 0
   853                           tblptru	equ	0xFF8
   854                           tblptrh	equ	0xFF7
   855                           tblptrl	equ	0xFF6
   856                           tablat	equ	0xFF5
   857                           postinc0	equ	0xFEE
   858                           wreg	equ	0xFE8
   859                           postdec1	equ	0xFE5
   860                           fsr1l	equ	0xFE1
   861                           
   862 ;; *************** function _sprintf *****************
   863 ;; Defined at:
   864 ;;		line 492 in file "C:\Program Files (x86)\Microchip\xc8\v1.42\sources\common\doprnt.c"
   865 ;; Parameters:    Size  Location     Type
   866 ;;  sp              2   63[COMRAM] PTR unsigned char 
   867 ;;		 -> TextoLCD(16), 
   868 ;;  f               2   65[COMRAM] PTR const unsigned char 
   869 ;;		 -> STR_1(12), 
   870 ;; Auto vars:     Size  Location     Type
   871 ;;  val             4   13[BANK0 ] unsigned long 
   872 ;;  tmpval          4    9[BANK0 ] struct .
   873 ;;  fval            3   19[BANK0 ] struct .
   874 ;;  cp              3    0        PTR const unsigned char 
   875 ;;  prec            2   17[BANK0 ] int 
   876 ;;  exp             2    7[BANK0 ] int 
   877 ;;  flag            2    5[BANK0 ] unsigned short 
   878 ;;  ap              2    3[BANK0 ] PTR void [1]
   879 ;;		 -> ?_sprintf(2), 
   880 ;;  len             2    0        unsigned int 
   881 ;;  width           2    0        int 
   882 ;;  c               1   22[BANK0 ] char 
   883 ;;  d               1    0        unsigned char 
   884 ;; Return value:  Size  Location     Type
   885 ;;                  2   63[COMRAM] int 
   886 ;; Registers used:
   887 ;;		wreg, fsr2l, fsr2h, status,2, status,0, tblptrl, tblptrh, tblptru, prodl, prodh, cstack
   888 ;; Tracked objects:
   889 ;;		On entry : 0/0
   890 ;;		On exit  : 0/0
   891 ;;		Unchanged: 0/0
   892 ;; Data sizes:     COMRAM   BANK0   BANK1   BANK2   BANK3   BANK4   BANK5   BANK6   BANK7
   893 ;;      Params:         9       0       0       0       0       0       0       0       0
   894 ;;      Locals:         0      23       0       0       0       0       0       0       0
   895 ;;      Temps:          6       0       0       0       0       0       0       0       0
   896 ;;      Totals:        15      23       0       0       0       0       0       0       0
   897 ;;Total ram usage:       38 bytes
   898 ;; Hardware stack levels used:    1
   899 ;; Hardware stack levels required when called:    3
   900 ;; This function calls:
   901 ;;		___awdiv
   902 ;;		___ftadd
   903 ;;		___ftge
   904 ;;		___ftmul
   905 ;;		___ftneg
   906 ;;		___ftsub
   907 ;;		___fttol
   908 ;;		___lldiv
   909 ;;		___llmod
   910 ;;		___lltoft
   911 ;;		___wmul
   912 ;;		__div_to_l_
   913 ;;		__tdiv_to_l_
   914 ;;		_fround
   915 ;;		_isdigit
   916 ;;		_scale
   917 ;; This function is called by:
   918 ;;		_main
   919 ;; This function uses a non-reentrant model
   920 ;;
   921                           
   922                           	psect	text1
   923  000884                     __ptext1:
   924                           	opt stack 0
   925  000884                     _sprintf:
   926                           	opt stack 27
   927                           
   928                           ;doprnt.c: 494: va_list ap;
   929                           ;doprnt.c: 499: signed char c;
   930                           ;doprnt.c: 501: int width;
   931                           ;doprnt.c: 504: int prec;
   932                           ;doprnt.c: 508: unsigned short flag;
   933                           ;doprnt.c: 515: char d;
   934                           ;doprnt.c: 516: double fval;
   935                           ;doprnt.c: 517: int exp;
   936                           ;doprnt.c: 523: union {
   937                           ;doprnt.c: 524: unsigned long vd;
   938                           ;doprnt.c: 525: double integ;
   939                           ;doprnt.c: 526: } tmpval;
   940                           ;doprnt.c: 528: unsigned long val;
   941                           ;doprnt.c: 529: unsigned len;
   942                           ;doprnt.c: 530: const char * cp;
   943                           ;doprnt.c: 533: *ap = __va_start();
   944                           
   945                           ;incstack = 0
   946  000884  0E44               	movlw	low (?_sprintf+4)
   947  000886  0100               	movlb	0	; () banked
   948  000888  6F63               	movwf	sprintf@ap& (0+255),b
   949  00088A  0E00               	movlw	high (?_sprintf+4)
   950  00088C  0100               	movlb	0	; () banked
   951  00088E  6F64               	movwf	(sprintf@ap+1)& (0+255),b
   952                           
   953                           ;doprnt.c: 536: while(c = *f++) {
   954  000890  EFAC  F008         	goto	l2723
   955  000894                     l2493:
   956                           
   957                           ; BSR set to: 0
   958                           ;doprnt.c: 538: if(c != '%')
   959  000894  0E25               	movlw	37
   960  000896  0100               	movlb	0	; () banked
   961  000898  1976               	xorwf	sprintf@c& (0+255),w,b
   962  00089A  B4D8               	btfsc	status,2,c
   963  00089C  D00A               	goto	l2499
   964                           
   965                           ; BSR set to: 0
   966                           ;doprnt.c: 540: {
   967                           ;doprnt.c: 541: ((*sp++ = (c)));
   968  00089E  C040  FFD9         	movff	sprintf@sp,fsr2l
   969  0008A2  C041  FFDA         	movff	sprintf@sp+1,fsr2h
   970  0008A6  C076  FFDF         	movff	sprintf@c,indf2
   971                           
   972                           ; BSR set to: 0
   973  0008AA  4A40               	infsnz	sprintf@sp,f,c
   974  0008AC  2A41               	incf	sprintf@sp+1,f,c
   975                           
   976                           ;doprnt.c: 542: continue;
   977  0008AE  EFAC  F008         	goto	l2723
   978  0008B2                     l2499:
   979                           
   980                           ; BSR set to: 0
   981                           ;doprnt.c: 543: }
   982                           ;doprnt.c: 548: flag = 0;
   983  0008B2  0E00               	movlw	0
   984  0008B4  0100               	movlb	0	; () banked
   985  0008B6  6F66               	movwf	(sprintf@flag+1)& (0+255),b
   986  0008B8  0E00               	movlw	0
   987  0008BA  6F65               	movwf	sprintf@flag& (0+255),b
   988                           
   989                           ; BSR set to: 0
   990                           ;doprnt.c: 611: if(*f == '.') {
   991  0008BC  C042  FFF6         	movff	sprintf@f,tblptrl
   992  0008C0  C043  FFF7         	movff	sprintf@f+1,tblptrh
   993  0008C4                     	if	0	;tblptru may be non-zero
   994  0008C4                     	endif
   995  0008C4                     	if	0	;tblptru may be non-zero
   996  0008C4                     	endif
   997  0008C4  0008               	tblrd		*
   998  0008C6  50F5               	movf	tablat,w,c
   999  0008C8  0A2E               	xorlw	46
  1000  0008CA  A4D8               	btfss	status,2,c
  1001  0008CC  D032               	goto	l2513
  1002                           
  1003                           ; BSR set to: 0
  1004                           ;doprnt.c: 612: flag |= 0x4000;
  1005  0008CE  0100               	movlb	0	; () banked
  1006  0008D0  8D66               	bsf	(sprintf@flag+1)& (0+255),6,b
  1007                           
  1008                           ;doprnt.c: 613: f++;
  1009  0008D2  4A42               	infsnz	sprintf@f,f,c
  1010  0008D4  2A43               	incf	sprintf@f+1,f,c
  1011                           
  1012                           ; BSR set to: 0
  1013                           ;doprnt.c: 620: {
  1014                           ;doprnt.c: 621: prec = 0;
  1015  0008D6  0E00               	movlw	0
  1016  0008D8  0100               	movlb	0	; () banked
  1017  0008DA  6F72               	movwf	(sprintf@prec+1)& (0+255),b
  1018  0008DC  0E00               	movlw	0
  1019  0008DE  6F71               	movwf	sprintf@prec& (0+255),b
  1020                           
  1021                           ;doprnt.c: 622: while(isdigit((unsigned)*f))
  1022  0008E0  D01D               	goto	l2511
  1023  0008E2                     l2507:
  1024                           
  1025                           ;doprnt.c: 623: prec = prec*10 + *f++ - '0';
  1026  0008E2  C071  F00F         	movff	sprintf@prec,___wmul@multiplier
  1027  0008E6  C072  F010         	movff	sprintf@prec+1,___wmul@multiplier+1
  1028  0008EA  0E00               	movlw	0
  1029  0008EC  6E12               	movwf	___wmul@multiplicand+1,c
  1030  0008EE  0E0A               	movlw	10
  1031  0008F0  6E11               	movwf	___wmul@multiplicand,c
  1032  0008F2  ECF7  F012         	call	___wmul	;wreg free
  1033  0008F6  C042  FFF6         	movff	sprintf@f,tblptrl
  1034  0008FA  C043  FFF7         	movff	sprintf@f+1,tblptrh
  1035  0008FE                     	if	0	;tblptru may be non-zero
  1036  0008FE                     	endif
  1037  0008FE                     	if	0	;tblptru may be non-zero
  1038  0008FE                     	endif
  1039  0008FE  0008               	tblrd		*
  1040  000900  50F5               	movf	tablat,w,c
  1041  000902  260F               	addwf	?___wmul,f,c
  1042  000904  0E00               	movlw	0
  1043  000906  2210               	addwfc	?___wmul+1,f,c
  1044  000908  0ED0               	movlw	208
  1045  00090A  240F               	addwf	?___wmul,w,c
  1046  00090C  0100               	movlb	0	; () banked
  1047  00090E  6F71               	movwf	sprintf@prec& (0+255),b
  1048  000910  0EFF               	movlw	255
  1049  000912  2010               	addwfc	?___wmul+1,w,c
  1050  000914  0100               	movlb	0	; () banked
  1051  000916  6F72               	movwf	(sprintf@prec+1)& (0+255),b
  1052                           
  1053                           ; BSR set to: 0
  1054  000918  4A42               	infsnz	sprintf@f,f,c
  1055  00091A  2A43               	incf	sprintf@f+1,f,c
  1056  00091C                     l2511:
  1057                           
  1058                           ; BSR set to: 0
  1059  00091C  C042  FFF6         	movff	sprintf@f,tblptrl
  1060  000920  C043  FFF7         	movff	sprintf@f+1,tblptrh
  1061  000924                     	if	0	;tblptru may be non-zero
  1062  000924                     	endif
  1063  000924                     	if	0	;tblptru may be non-zero
  1064  000924                     	endif
  1065  000924  0008               	tblrd		*
  1066  000926  50F5               	movf	tablat,w,c
  1067  000928  EC1C  F013         	call	_isdigit
  1068  00092C  A0D8               	btfss	status,0,c
  1069  00092E  D00C               	goto	l2521
  1070  000930  D7D8               	goto	l2507
  1071  000932                     l2513:
  1072                           
  1073                           ;doprnt.c: 626: prec = 0;
  1074  000932  0E00               	movlw	0
  1075  000934  0100               	movlb	0	; () banked
  1076  000936  6F72               	movwf	(sprintf@prec+1)& (0+255),b
  1077  000938  0E00               	movlw	0
  1078  00093A  6F71               	movwf	sprintf@prec& (0+255),b
  1079                           
  1080                           ; BSR set to: 0
  1081                           ;doprnt.c: 628: flag |= 0x1000;
  1082  00093C  0100               	movlb	0	; () banked
  1083  00093E  8966               	bsf	(sprintf@flag+1)& (0+255),4,b
  1084                           
  1085                           ; BSR set to: 0
  1086                           ;doprnt.c: 630: }
  1087                           ;doprnt.c: 635: switch(c = *f++) {
  1088  000940  D003               	goto	l2521
  1089  000942                     l2517:
  1090                           
  1091                           ; BSR set to: 0
  1092                           ;doprnt.c: 663: flag |= 0x400;
  1093  000942  0100               	movlb	0	; () banked
  1094  000944  8566               	bsf	(sprintf@flag+1)& (0+255),2,b
  1095                           
  1096                           ; BSR set to: 0
  1097                           ;doprnt.c: 698: case 'i':
  1098                           ;doprnt.c: 699: break;
  1099                           
  1100                           ; BSR set to: 0
  1101                           
  1102                           ;doprnt.c: 697: case 'd':
  1103                           
  1104                           ;doprnt.c: 664: break;
  1105  000946  D018               	goto	l2523
  1106  000948                     l2521:
  1107  000948  C042  FFF6         	movff	sprintf@f,tblptrl
  1108  00094C  C043  FFF7         	movff	sprintf@f+1,tblptrh
  1109  000950  4A42               	infsnz	sprintf@f,f,c
  1110  000952  2A43               	incf	sprintf@f+1,f,c
  1111  000954                     	if	0	;tblptru may be non-zero
  1112  000954                     	endif
  1113  000954                     	if	0	;tblptru may be non-zero
  1114  000954                     	endif
  1115  000954  0008               	tblrd		*
  1116  000956  CFF5 F076          	movff	tablat,sprintf@c
  1117  00095A  0100               	movlb	0	; () banked
  1118  00095C  5176               	movf	sprintf@c& (0+255),w,b
  1119                           
  1120                           ; Switch size 1, requested type "space"
  1121                           ; Number of cases is 4, Range of values is 0 to 105
  1122                           ; switch strategies available:
  1123                           ; Name         Instructions Cycles
  1124                           ; simple_byte           13     7 (average)
  1125                           ;	Chosen strategy is simple_byte
  1126  00095E  0A00               	xorlw	0	; case 0
  1127  000960  B4D8               	btfsc	status,2,c
  1128  000962  EFBA  F008         	goto	l2725
  1129  000966  0A64               	xorlw	100	; case 100
  1130  000968  B4D8               	btfsc	status,2,c
  1131  00096A  D006               	goto	l2523
  1132  00096C  0A02               	xorlw	2	; case 102
  1133  00096E  B4D8               	btfsc	status,2,c
  1134  000970  D7E8               	goto	l2517
  1135  000972  0A0F               	xorlw	15	; case 105
  1136  000974  A4D8               	btfss	status,2,c
  1137  000976  D3F0               	goto	l2723
  1138  000978                     l2523:
  1139                           
  1140                           ; BSR set to: 0
  1141                           ;doprnt.c: 825: if(flag & (0x700)) {
  1142  000978  0E07               	movlw	7
  1143  00097A  0100               	movlb	0	; () banked
  1144  00097C  1566               	andwf	(sprintf@flag+1)& (0+255),w,b
  1145  00097E  B4D8               	btfsc	status,2,c
  1146  000980  D306               	goto	l2671
  1147                           
  1148                           ; BSR set to: 0
  1149                           ;doprnt.c: 827: if(flag & 0x1000)
  1150  000982  0100               	movlb	0	; () banked
  1151  000984  A966               	btfss	(sprintf@flag+1)& (0+255),4,b
  1152  000986  D005               	goto	l2529
  1153                           
  1154                           ; BSR set to: 0
  1155                           ;doprnt.c: 829: prec = 6;
  1156  000988  0E00               	movlw	0
  1157  00098A  0100               	movlb	0	; () banked
  1158  00098C  6F72               	movwf	(sprintf@prec+1)& (0+255),b
  1159  00098E  0E06               	movlw	6
  1160  000990  6F71               	movwf	sprintf@prec& (0+255),b
  1161  000992                     l2529:
  1162                           
  1163                           ; BSR set to: 0
  1164                           ;doprnt.c: 830: fval = (*(double *)__va_arg((*(double **)ap), (double)0));
  1165  000992  C063  FFD9         	movff	sprintf@ap,fsr2l
  1166  000996  C064  FFDA         	movff	sprintf@ap+1,fsr2h
  1167  00099A  CFDE F073          	movff	postinc2,sprintf@fval
  1168  00099E  CFDE F074          	movff	postinc2,sprintf@fval+1
  1169  0009A2  CFDD F075          	movff	postdec2,sprintf@fval+2
  1170                           
  1171                           ; BSR set to: 0
  1172  0009A6  0E03               	movlw	3
  1173  0009A8  0100               	movlb	0	; () banked
  1174  0009AA  2763               	addwf	sprintf@ap& (0+255),f,b
  1175  0009AC  0E00               	movlw	0
  1176  0009AE  2364               	addwfc	(sprintf@ap+1)& (0+255),f,b
  1177                           
  1178                           ; BSR set to: 0
  1179                           ;doprnt.c: 831: if(fval < 0.0) {
  1180  0009B0  0100               	movlb	0	; () banked
  1181  0009B2  AF75               	btfss	(sprintf@fval+2)& (0+255),7,b
  1182  0009B4  D011               	goto	l2539
  1183                           
  1184                           ; BSR set to: 0
  1185                           ;doprnt.c: 832: fval = -fval;
  1186  0009B6  C073  F001         	movff	sprintf@fval,___ftneg@f1
  1187  0009BA  C074  F002         	movff	sprintf@fval+1,___ftneg@f1+1
  1188  0009BE  C075  F003         	movff	sprintf@fval+2,___ftneg@f1+2
  1189  0009C2  EC0A  F013         	call	___ftneg	;wreg free
  1190  0009C6  C001  F073         	movff	?___ftneg,sprintf@fval
  1191  0009CA  C002  F074         	movff	?___ftneg+1,sprintf@fval+1
  1192  0009CE  C003  F075         	movff	?___ftneg+2,sprintf@fval+2
  1193                           
  1194                           ;doprnt.c: 833: flag |= 0x03;
  1195  0009D2  0E03               	movlw	3
  1196  0009D4  0100               	movlb	0	; () banked
  1197  0009D6  1365               	iorwf	sprintf@flag& (0+255),f,b
  1198  0009D8                     l2539:
  1199                           
  1200                           ; BSR set to: 0
  1201                           ;doprnt.c: 834: }
  1202                           ;doprnt.c: 835: exp = 0;
  1203  0009D8  0E00               	movlw	0
  1204  0009DA  0100               	movlb	0	; () banked
  1205  0009DC  6F68               	movwf	(sprintf@exp+1)& (0+255),b
  1206  0009DE  0E00               	movlw	0
  1207  0009E0  6F67               	movwf	sprintf@exp& (0+255),b
  1208                           
  1209                           ; BSR set to: 0
  1210                           ;doprnt.c: 836: if( fval!=0) {
  1211  0009E2  0100               	movlb	0	; () banked
  1212  0009E4  5173               	movf	sprintf@fval& (0+255),w,b
  1213  0009E6  0100               	movlb	0	; () banked
  1214  0009E8  1174               	iorwf	(sprintf@fval+1)& (0+255),w,b
  1215  0009EA  0100               	movlb	0	; () banked
  1216  0009EC  1175               	iorwf	(sprintf@fval+2)& (0+255),w,b
  1217  0009EE  B4D8               	btfsc	status,2,c
  1218  0009F0  D08B               	goto	l2567
  1219                           
  1220                           ; BSR set to: 0
  1221                           ;doprnt.c: 837: (void)(*(&exp) = ((*(unsigned long *)&fval >> 15) & 255) - 126);
  1222  0009F2  0E82               	movlw	130
  1223  0009F4  6E49               	movwf	??_sprintf& (0+255),c
  1224  0009F6  0EFF               	movlw	255
  1225  0009F8  6E4A               	movwf	(??_sprintf+1)& (0+255),c
  1226  0009FA  C073  F04B         	movff	sprintf@fval,??_sprintf+2
  1227  0009FE  C074  F04C         	movff	sprintf@fval+1,??_sprintf+3
  1228  000A02  C075  F04D         	movff	sprintf@fval+2,??_sprintf+4
  1229  000A06  C076  F04E         	movff	sprintf@fval+3,??_sprintf+5
  1230  000A0A  0E10               	movlw	16
  1231  000A0C  D005               	goto	u2490
  1232  000A0E                     u2495:
  1233  000A0E  90D8               	bcf	status,0,c
  1234  000A10  324E               	rrcf	??_sprintf+5,f,c
  1235  000A12  324D               	rrcf	??_sprintf+4,f,c
  1236  000A14  324C               	rrcf	??_sprintf+3,f,c
  1237  000A16  324B               	rrcf	??_sprintf+2,f,c
  1238  000A18                     u2490:
  1239  000A18  2EE8               	decfsz	wreg,f,c
  1240  000A1A  D7F9               	goto	u2495
  1241  000A1C  504B               	movf	??_sprintf+2,w,c
  1242  000A1E  2449               	addwf	??_sprintf,w,c
  1243  000A20  0100               	movlb	0	; () banked
  1244  000A22  6F67               	movwf	sprintf@exp& (0+255),b
  1245  000A24  0E00               	movlw	0
  1246  000A26  204A               	addwfc	??_sprintf+1,w,c
  1247  000A28  0100               	movlb	0	; () banked
  1248  000A2A  6F68               	movwf	(sprintf@exp+1)& (0+255),b
  1249                           
  1250                           ; BSR set to: 0
  1251                           ;doprnt.c: 838: exp--;
  1252  000A2C  0100               	movlb	0	; () banked
  1253  000A2E  0767               	decf	sprintf@exp& (0+255),f,b
  1254  000A30  A0D8               	btfss	status,0,c
  1255  000A32  0768               	decf	(sprintf@exp+1)& (0+255),f,b
  1256                           
  1257                           ; BSR set to: 0
  1258                           ;doprnt.c: 839: exp *= 3;
  1259  000A34  C067  F00F         	movff	sprintf@exp,___wmul@multiplier
  1260  000A38  C068  F010         	movff	sprintf@exp+1,___wmul@multiplier+1
  1261  000A3C  0E00               	movlw	0
  1262  000A3E  6E12               	movwf	___wmul@multiplicand+1,c
  1263  000A40  0E03               	movlw	3
  1264  000A42  6E11               	movwf	___wmul@multiplicand,c
  1265  000A44  ECF7  F012         	call	___wmul	;wreg free
  1266  000A48  C00F  F067         	movff	?___wmul,sprintf@exp
  1267  000A4C  C010  F068         	movff	?___wmul+1,sprintf@exp+1
  1268                           
  1269                           ;doprnt.c: 840: exp /= 10;
  1270  000A50  C067  F007         	movff	sprintf@exp,___awdiv@dividend
  1271  000A54  C068  F008         	movff	sprintf@exp+1,___awdiv@dividend+1
  1272  000A58  0E00               	movlw	0
  1273  000A5A  6E0A               	movwf	___awdiv@divisor+1,c
  1274  000A5C  0E0A               	movlw	10
  1275  000A5E  6E09               	movwf	___awdiv@divisor,c
  1276  000A60  EC2B  F011         	call	___awdiv	;wreg free
  1277  000A64  C007  F067         	movff	?___awdiv,sprintf@exp
  1278  000A68  C008  F068         	movff	?___awdiv+1,sprintf@exp+1
  1279                           
  1280                           ;doprnt.c: 841: if(exp < 0)
  1281  000A6C  0100               	movlb	0	; () banked
  1282  000A6E  AF68               	btfss	(sprintf@exp+1)& (0+255),7,b
  1283  000A70  D004               	goto	l2555
  1284                           
  1285                           ; BSR set to: 0
  1286                           ;doprnt.c: 842: exp--;
  1287  000A72  0100               	movlb	0	; () banked
  1288  000A74  0767               	decf	sprintf@exp& (0+255),f,b
  1289  000A76  A0D8               	btfss	status,0,c
  1290  000A78  0768               	decf	(sprintf@exp+1)& (0+255),f,b
  1291  000A7A                     l2555:
  1292                           
  1293                           ; BSR set to: 0
  1294                           ;doprnt.c: 846: tmpval.integ = scale(-exp);
  1295  000A7A  0100               	movlb	0	; () banked
  1296  000A7C  5167               	movf	sprintf@exp& (0+255),w,b
  1297  000A7E  0800               	sublw	0
  1298  000A80  ECC1  F008         	call	_scale
  1299  000A84  C024  F069         	movff	?_scale,sprintf@tmpval
  1300  000A88  C025  F06A         	movff	?_scale+1,sprintf@tmpval+1
  1301  000A8C  C026  F06B         	movff	?_scale+2,sprintf@tmpval+2
  1302                           
  1303                           ;doprnt.c: 847: tmpval.integ *= fval;
  1304  000A90  C069  F015         	movff	sprintf@tmpval,___ftmul@f1
  1305  000A94  C06A  F016         	movff	sprintf@tmpval+1,___ftmul@f1+1
  1306  000A98  C06B  F017         	movff	sprintf@tmpval+2,___ftmul@f1+2
  1307  000A9C  C073  F018         	movff	sprintf@fval,___ftmul@f2
  1308  000AA0  C074  F019         	movff	sprintf@fval+1,___ftmul@f2+1
  1309  000AA4  C075  F01A         	movff	sprintf@fval+2,___ftmul@f2+2
  1310  000AA8  EC98  F00F         	call	___ftmul	;wreg free
  1311  000AAC  C015  F069         	movff	?___ftmul,sprintf@tmpval
  1312  000AB0  C016  F06A         	movff	?___ftmul+1,sprintf@tmpval+1
  1313  000AB4  C017  F06B         	movff	?___ftmul+2,sprintf@tmpval+2
  1314                           
  1315                           ;doprnt.c: 848: if(tmpval.integ < 1.0)
  1316  000AB8  C069  F001         	movff	sprintf@tmpval,___ftge@ff1
  1317  000ABC  C06A  F002         	movff	sprintf@tmpval+1,___ftge@ff1+1
  1318  000AC0  C06B  F003         	movff	sprintf@tmpval+2,___ftge@ff1+2
  1319  000AC4  0E00               	movlw	0
  1320  000AC6  6E04               	movwf	___ftge@ff2,c
  1321  000AC8  0E80               	movlw	128
  1322  000ACA  6E05               	movwf	___ftge@ff2+1,c
  1323  000ACC  0E3F               	movlw	63
  1324  000ACE  6E06               	movwf	___ftge@ff2+2,c
  1325  000AD0  ECE3  F010         	call	___ftge	;wreg free
  1326  000AD4  B0D8               	btfsc	status,0,c
  1327  000AD6  D005               	goto	l2563
  1328                           
  1329                           ;doprnt.c: 849: exp--;
  1330  000AD8  0100               	movlb	0	; () banked
  1331  000ADA  0767               	decf	sprintf@exp& (0+255),f,b
  1332  000ADC  A0D8               	btfss	status,0,c
  1333  000ADE  0768               	decf	(sprintf@exp+1)& (0+255),f,b
  1334  000AE0  D013               	goto	l2567
  1335  000AE2                     l2563:
  1336                           
  1337                           ;doprnt.c: 850: else if(tmpval.integ >= 10.0)
  1338  000AE2  C069  F001         	movff	sprintf@tmpval,___ftge@ff1
  1339  000AE6  C06A  F002         	movff	sprintf@tmpval+1,___ftge@ff1+1
  1340  000AEA  C06B  F003         	movff	sprintf@tmpval+2,___ftge@ff1+2
  1341  000AEE  0E00               	movlw	0
  1342  000AF0  6E04               	movwf	___ftge@ff2,c
  1343  000AF2  0E20               	movlw	32
  1344  000AF4  6E05               	movwf	___ftge@ff2+1,c
  1345  000AF6  0E41               	movlw	65
  1346  000AF8  6E06               	movwf	___ftge@ff2+2,c
  1347  000AFA  ECE3  F010         	call	___ftge	;wreg free
  1348  000AFE  A0D8               	btfss	status,0,c
  1349  000B00  D003               	goto	l2567
  1350                           
  1351                           ;doprnt.c: 851: exp++;
  1352  000B02  0100               	movlb	0	; () banked
  1353  000B04  4B67               	infsnz	sprintf@exp& (0+255),f,b
  1354  000B06  2B68               	incf	(sprintf@exp+1)& (0+255),f,b
  1355  000B08                     l2567:
  1356                           
  1357                           ;doprnt.c: 852: }
  1358                           ;doprnt.c: 1112: if(prec <= 12)
  1359  000B08  0100               	movlb	0	; () banked
  1360  000B0A  BF72               	btfsc	(sprintf@prec+1)& (0+255),7,b
  1361  000B0C  D008               	goto	l2569
  1362  000B0E  0100               	movlb	0	; () banked
  1363  000B10  5172               	movf	(sprintf@prec+1)& (0+255),w,b
  1364  000B12  E11D               	bnz	l2571
  1365  000B14  0E0D               	movlw	13
  1366  000B16  0100               	movlb	0	; () banked
  1367  000B18  5D71               	subwf	sprintf@prec& (0+255),w,b
  1368  000B1A  B0D8               	btfsc	status,0,c
  1369  000B1C  D018               	goto	l2571
  1370  000B1E                     l2569:
  1371                           
  1372                           ; BSR set to: 0
  1373                           ;doprnt.c: 1113: fval += fround(prec);
  1374  000B1E  C073  F02E         	movff	sprintf@fval,___ftadd@f1
  1375  000B22  C074  F02F         	movff	sprintf@fval+1,___ftadd@f1+1
  1376  000B26  C075  F030         	movff	sprintf@fval+2,___ftadd@f1+2
  1377  000B2A  0100               	movlb	0	; () banked
  1378  000B2C  5171               	movf	sprintf@prec& (0+255),w,b
  1379  000B2E  ECB9  F00A         	call	_fround
  1380  000B32  C024  F031         	movff	?_fround,___ftadd@f2
  1381  000B36  C025  F032         	movff	?_fround+1,___ftadd@f2+1
  1382  000B3A  C026  F033         	movff	?_fround+2,___ftadd@f2+2
  1383  000B3E  ECDC  F00B         	call	___ftadd	;wreg free
  1384  000B42  C02E  F073         	movff	?___ftadd,sprintf@fval
  1385  000B46  C02F  F074         	movff	?___ftadd+1,sprintf@fval+1
  1386  000B4A  C030  F075         	movff	?___ftadd+2,sprintf@fval+2
  1387  000B4E                     l2571:
  1388                           
  1389                           ;doprnt.c: 1116: if((exp > 9)||(fval != 0 && (unsigned long)fval == 0 && exp > 1)) {
  1390  000B4E  0100               	movlb	0	; () banked
  1391  000B50  BF68               	btfsc	(sprintf@exp+1)& (0+255),7,b
  1392  000B52  D008               	goto	l2573
  1393  000B54  0100               	movlb	0	; () banked
  1394  000B56  5168               	movf	(sprintf@exp+1)& (0+255),w,b
  1395  000B58  E126               	bnz	l2579
  1396  000B5A  0E0A               	movlw	10
  1397  000B5C  0100               	movlb	0	; () banked
  1398  000B5E  5D67               	subwf	sprintf@exp& (0+255),w,b
  1399  000B60  B0D8               	btfsc	status,0,c
  1400  000B62  D021               	goto	l2579
  1401  000B64                     l2573:
  1402                           
  1403                           ; BSR set to: 0
  1404  000B64  0100               	movlb	0	; () banked
  1405  000B66  5173               	movf	sprintf@fval& (0+255),w,b
  1406  000B68  0100               	movlb	0	; () banked
  1407  000B6A  1174               	iorwf	(sprintf@fval+1)& (0+255),w,b
  1408  000B6C  0100               	movlb	0	; () banked
  1409  000B6E  1175               	iorwf	(sprintf@fval+2)& (0+255),w,b
  1410  000B70  B4D8               	btfsc	status,2,c
  1411  000B72  D05B               	goto	l2593
  1412                           
  1413                           ; BSR set to: 0
  1414  000B74  C073  F02B         	movff	sprintf@fval,___fttol@f1
  1415  000B78  C074  F02C         	movff	sprintf@fval+1,___fttol@f1+1
  1416  000B7C  C075  F02D         	movff	sprintf@fval+2,___fttol@f1+2
  1417  000B80  EC12  F010         	call	___fttol	;wreg free
  1418  000B84  502B               	movf	?___fttol,w,c
  1419  000B86  102C               	iorwf	?___fttol+1,w,c
  1420  000B88  102D               	iorwf	?___fttol+2,w,c
  1421  000B8A  102E               	iorwf	?___fttol+3,w,c
  1422  000B8C  A4D8               	btfss	status,2,c
  1423  000B8E  D04D               	goto	l2593
  1424  000B90  0100               	movlb	0	; () banked
  1425  000B92  BF68               	btfsc	(sprintf@exp+1)& (0+255),7,b
  1426  000B94  D04A               	goto	l2593
  1427  000B96  0100               	movlb	0	; () banked
  1428  000B98  5168               	movf	(sprintf@exp+1)& (0+255),w,b
  1429  000B9A  E105               	bnz	l2579
  1430  000B9C  0E02               	movlw	2
  1431  000B9E  0100               	movlb	0	; () banked
  1432  000BA0  5D67               	subwf	sprintf@exp& (0+255),w,b
  1433  000BA2  A0D8               	btfss	status,0,c
  1434  000BA4  D042               	goto	l2593
  1435  000BA6                     l2579:
  1436                           
  1437                           ; BSR set to: 0
  1438                           ;doprnt.c: 1120: if(tmpval.integ < 4.294967296){
  1439  000BA6  C069  F001         	movff	sprintf@tmpval,___ftge@ff1
  1440  000BAA  C06A  F002         	movff	sprintf@tmpval+1,___ftge@ff1+1
  1441  000BAE  C06B  F003         	movff	sprintf@tmpval+2,___ftge@ff1+2
  1442  000BB2  0E70               	movlw	112
  1443  000BB4  6E04               	movwf	___ftge@ff2,c
  1444  000BB6  0E89               	movlw	137
  1445  000BB8  6E05               	movwf	___ftge@ff2+1,c
  1446  000BBA  0E40               	movlw	64
  1447  000BBC  6E06               	movwf	___ftge@ff2+2,c
  1448  000BBE  ECE3  F010         	call	___ftge	;wreg free
  1449  000BC2  B0D8               	btfsc	status,0,c
  1450  000BC4  D003               	goto	l2583
  1451                           
  1452                           ;doprnt.c: 1121: exp -= (sizeof dpowers/sizeof dpowers[0])-1;
  1453  000BC6  0100               	movlb	0	; () banked
  1454  000BC8  0EF7               	movlw	247
  1455  000BCA  D002               	goto	L1
  1456  000BCC                     l2583:
  1457                           
  1458                           ;doprnt.c: 1123: exp -= (sizeof dpowers/sizeof dpowers[0])-2;
  1459  000BCC  0100               	movlb	0	; () banked
  1460  000BCE  0EF8               	movlw	248
  1461  000BD0                     L1:
  1462  000BD0  2767               	addwf	sprintf@exp& (0+255),f,b
  1463  000BD2  0EFF               	movlw	255
  1464  000BD4  2368               	addwfc	(sprintf@exp+1)& (0+255),f,b
  1465                           
  1466                           ; BSR set to: 0
  1467                           ;doprnt.c: 1124: }
  1468                           ;doprnt.c: 1125: tmpval.integ = scale(exp);
  1469                           
  1470                           ; BSR set to: 0
  1471  000BD6  0100               	movlb	0	; () banked
  1472  000BD8  5167               	movf	sprintf@exp& (0+255),w,b
  1473  000BDA  ECC1  F008         	call	_scale
  1474  000BDE  C024  F069         	movff	?_scale,sprintf@tmpval
  1475  000BE2  C025  F06A         	movff	?_scale+1,sprintf@tmpval+1
  1476  000BE6  C026  F06B         	movff	?_scale+2,sprintf@tmpval+2
  1477                           
  1478                           ;doprnt.c: 1126: val = ((sizeof(double)== 3) ? _tdiv_to_l_(fval,tmpval.integ) : _div_to_
      +                          l_(fval,tmpval.integ));
  1479  000BEA  C073  F001         	movff	sprintf@fval,__tdiv_to_l_@f1
  1480  000BEE  C074  F002         	movff	sprintf@fval+1,__tdiv_to_l_@f1+1
  1481  000BF2  C075  F003         	movff	sprintf@fval+2,__tdiv_to_l_@f1+2
  1482  000BF6  C069  F004         	movff	sprintf@tmpval,__tdiv_to_l_@f2
  1483  000BFA  C06A  F005         	movff	sprintf@tmpval+1,__tdiv_to_l_@f2+1
  1484  000BFE  C06B  F006         	movff	sprintf@tmpval+2,__tdiv_to_l_@f2+2
  1485  000C02  ECB2  F00C         	call	__tdiv_to_l_	;wreg free
  1486  000C06  C001  F06D         	movff	?__tdiv_to_l_,sprintf@val
  1487  000C0A  C002  F06E         	movff	?__tdiv_to_l_+1,sprintf@val+1
  1488  000C0E  C003  F06F         	movff	?__tdiv_to_l_+2,sprintf@val+2
  1489  000C12  C004  F070         	movff	?__tdiv_to_l_+3,sprintf@val+3
  1490                           
  1491                           ;doprnt.c: 1129: fval = 0.0;
  1492  000C16  0E00               	movlw	0
  1493  000C18  0100               	movlb	0	; () banked
  1494  000C1A  6F73               	movwf	sprintf@fval& (0+255),b
  1495  000C1C  0E00               	movlw	0
  1496  000C1E  0100               	movlb	0	; () banked
  1497  000C20  6F74               	movwf	(sprintf@fval+1)& (0+255),b
  1498  000C22  0E00               	movlw	0
  1499  000C24  0100               	movlb	0	; () banked
  1500  000C26  6F75               	movwf	(sprintf@fval+2)& (0+255),b
  1501                           
  1502                           ;doprnt.c: 1130: } else {
  1503  000C28  D033               	goto	l2597
  1504  000C2A                     l2593:
  1505                           
  1506                           ;doprnt.c: 1131: val = (unsigned long)fval;
  1507  000C2A  C073  F02B         	movff	sprintf@fval,___fttol@f1
  1508  000C2E  C074  F02C         	movff	sprintf@fval+1,___fttol@f1+1
  1509  000C32  C075  F02D         	movff	sprintf@fval+2,___fttol@f1+2
  1510  000C36  EC12  F010         	call	___fttol	;wreg free
  1511  000C3A  C02B  F06D         	movff	?___fttol,sprintf@val
  1512  000C3E  C02C  F06E         	movff	?___fttol+1,sprintf@val+1
  1513  000C42  C02D  F06F         	movff	?___fttol+2,sprintf@val+2
  1514  000C46  C02E  F070         	movff	?___fttol+3,sprintf@val+3
  1515                           
  1516                           ;doprnt.c: 1132: fval -= (double)val;
  1517  000C4A  C073  F03A         	movff	sprintf@fval,___ftsub@f1
  1518  000C4E  C074  F03B         	movff	sprintf@fval+1,___ftsub@f1+1
  1519  000C52  C075  F03C         	movff	sprintf@fval+2,___ftsub@f1+2
  1520  000C56  C06D  F009         	movff	sprintf@val,___lltoft@c
  1521  000C5A  C06E  F00A         	movff	sprintf@val+1,___lltoft@c+1
  1522  000C5E  C06F  F00B         	movff	sprintf@val+2,___lltoft@c+2
  1523  000C62  C070  F00C         	movff	sprintf@val+3,___lltoft@c+3
  1524  000C66  EC7E  F012         	call	___lltoft	;wreg free
  1525  000C6A  C009  F03D         	movff	?___lltoft,___ftsub@f2
  1526  000C6E  C00A  F03E         	movff	?___lltoft+1,___ftsub@f2+1
  1527  000C72  C00B  F03F         	movff	?___lltoft+2,___ftsub@f2+2
  1528  000C76  ECD7  F012         	call	___ftsub	;wreg free
  1529  000C7A  C03A  F073         	movff	?___ftsub,sprintf@fval
  1530  000C7E  C03B  F074         	movff	?___ftsub+1,sprintf@fval+1
  1531  000C82  C03C  F075         	movff	?___ftsub+2,sprintf@fval+2
  1532                           
  1533                           ;doprnt.c: 1133: exp = 0;
  1534  000C86  0E00               	movlw	0
  1535  000C88  0100               	movlb	0	; () banked
  1536  000C8A  6F68               	movwf	(sprintf@exp+1)& (0+255),b
  1537  000C8C  0E00               	movlw	0
  1538  000C8E  6F67               	movwf	sprintf@exp& (0+255),b
  1539  000C90                     l2597:
  1540                           
  1541                           ; BSR set to: 0
  1542                           ;doprnt.c: 1134: }
  1543                           ;doprnt.c: 1136: for(c = 1 ; c != (sizeof dpowers/sizeof dpowers[0]) ; c++)
  1544  000C90  0E01               	movlw	1
  1545  000C92  0100               	movlb	0	; () banked
  1546  000C94  6F76               	movwf	sprintf@c& (0+255),b
  1547  000C96                     l2599:
  1548                           
  1549                           ; BSR set to: 0
  1550  000C96  0E0A               	movlw	10
  1551  000C98  0100               	movlb	0	; () banked
  1552  000C9A  1976               	xorwf	sprintf@c& (0+255),w,b
  1553  000C9C  B4D8               	btfsc	status,2,c
  1554  000C9E  D01E               	goto	l2611
  1555                           
  1556                           ; BSR set to: 0
  1557                           ;doprnt.c: 1137: if(val < dpowers[c])
  1558                           
  1559                           ; BSR set to: 0
  1560                           
  1561                           ; BSR set to: 0
  1562  000CA0  0100               	movlb	0	; () banked
  1563  000CA2  5176               	movf	sprintf@c& (0+255),w,b
  1564  000CA4  0D04               	mullw	4
  1565  000CA6  0E01               	movlw	low _dpowers
  1566  000CA8  24F3               	addwf	prodl,w,c
  1567  000CAA  6EF6               	movwf	tblptrl,c
  1568  000CAC  0E08               	movlw	high _dpowers
  1569  000CAE  20F4               	addwfc	prodh,w,c
  1570  000CB0  6EF7               	movwf	tblptrh,c
  1571  000CB2                     	if	0	;There are less than 3 active tblptr bytes
  1572  000CB2                     	endif
  1573  000CB2  0009               	tblrd		*+
  1574  000CB4  50F5               	movf	tablat,w,c
  1575  000CB6  0100               	movlb	0	; () banked
  1576  000CB8  5D6D               	subwf	sprintf@val& (0+255),w,b
  1577  000CBA  0009               	tblrd		*+
  1578  000CBC  50F5               	movf	tablat,w,c
  1579  000CBE  0100               	movlb	0	; () banked
  1580  000CC0  596E               	subwfb	(sprintf@val+1)& (0+255),w,b
  1581  000CC2  0009               	tblrd		*+
  1582  000CC4  50F5               	movf	tablat,w,c
  1583  000CC6  0100               	movlb	0	; () banked
  1584  000CC8  596F               	subwfb	(sprintf@val+2)& (0+255),w,b
  1585  000CCA  0009               	tblrd		*+
  1586  000CCC  50F5               	movf	tablat,w,c
  1587  000CCE  0100               	movlb	0	; () banked
  1588  000CD0  5970               	subwfb	(sprintf@val+3)& (0+255),w,b
  1589  000CD2  A0D8               	btfss	status,0,c
  1590  000CD4  D003               	goto	l2611
  1591                           
  1592                           ; BSR set to: 0
  1593                           
  1594                           ; BSR set to: 0
  1595                           
  1596                           ; BSR set to: 0
  1597                           ;doprnt.c: 1138: break;
  1598  000CD6  0100               	movlb	0	; () banked
  1599  000CD8  2B76               	incf	sprintf@c& (0+255),f,b
  1600  000CDA  D7DD               	goto	l2599
  1601  000CDC                     l2611:
  1602                           
  1603                           ; BSR set to: 0
  1604                           ;doprnt.c: 1175: {
  1605                           ;doprnt.c: 1188: if(flag & 0x03)
  1606  000CDC  0E03               	movlw	3
  1607  000CDE  0100               	movlb	0	; () banked
  1608  000CE0  1565               	andwf	sprintf@flag& (0+255),w,b
  1609  000CE2  6E49               	movwf	??_sprintf& (0+255),c
  1610  000CE4  0E00               	movlw	0
  1611  000CE6  0100               	movlb	0	; () banked
  1612  000CE8  1566               	andwf	(sprintf@flag+1)& (0+255),w,b
  1613  000CEA  6E4A               	movwf	(??_sprintf+1)& (0+255),c
  1614  000CEC  5049               	movf	??_sprintf,w,c
  1615  000CEE  104A               	iorwf	??_sprintf+1,w,c
  1616  000CF0  B4D8               	btfsc	status,2,c
  1617  000CF2  D053               	goto	l2625
  1618                           
  1619                           ; BSR set to: 0
  1620                           ;doprnt.c: 1190: ((*sp++ = ('-')));
  1621  000CF4  C040  FFD9         	movff	sprintf@sp,fsr2l
  1622  000CF8  C041  FFDA         	movff	sprintf@sp+1,fsr2h
  1623  000CFC  0E2D               	movlw	45
  1624  000CFE  D04B               	goto	L2
  1625  000D00                     l2615:
  1626                           
  1627                           ; BSR set to: 0
  1628  000D00  4A40               	infsnz	sprintf@sp,f,c
  1629  000D02  2A41               	incf	sprintf@sp+1,f,c
  1630                           
  1631                           ; BSR set to: 0
  1632                           ;doprnt.c: 1195: }
  1633                           ;doprnt.c: 1196: while(c--) {
  1634  000D04  D04A               	goto	l2625
  1635  000D06                     l2617:
  1636                           
  1637                           ; BSR set to: 0
  1638                           ;doprnt.c: 1200: {
  1639                           ;doprnt.c: 1201: tmpval.vd = val/dpowers[c];
  1640  000D06  C06D  F001         	movff	sprintf@val,___lldiv@dividend
  1641  000D0A  C06E  F002         	movff	sprintf@val+1,___lldiv@dividend+1
  1642  000D0E  C06F  F003         	movff	sprintf@val+2,___lldiv@dividend+2
  1643  000D12  C070  F004         	movff	sprintf@val+3,___lldiv@dividend+3
  1644  000D16  0100               	movlb	0	; () banked
  1645  000D18  5176               	movf	sprintf@c& (0+255),w,b
  1646  000D1A  0D04               	mullw	4
  1647  000D1C  0E01               	movlw	low _dpowers
  1648  000D1E  24F3               	addwf	prodl,w,c
  1649  000D20  6EF6               	movwf	tblptrl,c
  1650  000D22  0E08               	movlw	high _dpowers
  1651  000D24  20F4               	addwfc	prodh,w,c
  1652  000D26  6EF7               	movwf	tblptrh,c
  1653  000D28                     	if	0	;There are less than 3 active tblptr bytes
  1654  000D28                     	endif
  1655  000D28  0009               	tblrd		*+
  1656  000D2A  CFF5 F005          	movff	tablat,___lldiv@divisor
  1657  000D2E  0009               	tblrd		*+
  1658  000D30  CFF5 F006          	movff	tablat,___lldiv@divisor+1
  1659  000D34  0009               	tblrd		*+
  1660  000D36  CFF5 F007          	movff	tablat,___lldiv@divisor+2
  1661  000D3A  000A               	tblrd		*-
  1662  000D3C  CFF5 F008          	movff	tablat,___lldiv@divisor+3
  1663  000D40  EC6D  F011         	call	___lldiv	;wreg free
  1664  000D44  C001  F069         	movff	?___lldiv,sprintf@tmpval
  1665  000D48  C002  F06A         	movff	?___lldiv+1,sprintf@tmpval+1
  1666  000D4C  C003  F06B         	movff	?___lldiv+2,sprintf@tmpval+2
  1667  000D50  C004  F06C         	movff	?___lldiv+3,sprintf@tmpval+3
  1668                           
  1669                           ;doprnt.c: 1202: tmpval.vd %= 10;
  1670  000D54  C069  F00E         	movff	sprintf@tmpval,___llmod@dividend
  1671  000D58  C06A  F00F         	movff	sprintf@tmpval+1,___llmod@dividend+1
  1672  000D5C  C06B  F010         	movff	sprintf@tmpval+2,___llmod@dividend+2
  1673  000D60  C06C  F011         	movff	sprintf@tmpval+3,___llmod@dividend+3
  1674  000D64  0E0A               	movlw	10
  1675  000D66  6E12               	movwf	___llmod@divisor,c
  1676  000D68  0E00               	movlw	0
  1677  000D6A  6E13               	movwf	___llmod@divisor+1,c
  1678  000D6C  0E00               	movlw	0
  1679  000D6E  6E14               	movwf	___llmod@divisor+2,c
  1680  000D70  0E00               	movlw	0
  1681  000D72  6E15               	movwf	___llmod@divisor+3,c
  1682  000D74  EC1A  F012         	call	___llmod	;wreg free
  1683  000D78  C00E  F069         	movff	?___llmod,sprintf@tmpval
  1684  000D7C  C00F  F06A         	movff	?___llmod+1,sprintf@tmpval+1
  1685  000D80  C010  F06B         	movff	?___llmod+2,sprintf@tmpval+2
  1686  000D84  C011  F06C         	movff	?___llmod+3,sprintf@tmpval+3
  1687                           
  1688                           ;doprnt.c: 1203: ((*sp++ = ('0' + tmpval.vd)));
  1689  000D88  0100               	movlb	0	; () banked
  1690  000D8A  5169               	movf	sprintf@tmpval& (0+255),w,b
  1691  000D8C  0F30               	addlw	48
  1692  000D8E  C040  FFD9         	movff	sprintf@sp,fsr2l
  1693  000D92  C041  FFDA         	movff	sprintf@sp+1,fsr2h
  1694  000D96                     L2:
  1695  000D96  6EDF               	movwf	indf2,c
  1696  000D98  D7B3               	goto	l2615
  1697  000D9A                     l2625:
  1698                           
  1699                           ; BSR set to: 0
  1700  000D9A  0100               	movlb	0	; () banked
  1701  000D9C  0776               	decf	sprintf@c& (0+255),f,b
  1702  000D9E  0100               	movlb	0	; () banked
  1703  000DA0  2976               	incf	sprintf@c& (0+255),w,b
  1704  000DA2  B4D8               	btfsc	status,2,c
  1705  000DA4  D00D               	goto	l2633
  1706  000DA6  D7AF               	goto	l2617
  1707  000DA8                     l2627:
  1708                           
  1709                           ; BSR set to: 0
  1710                           ;doprnt.c: 1208: ((*sp++ = ('0')));
  1711  000DA8  C040  FFD9         	movff	sprintf@sp,fsr2l
  1712  000DAC  C041  FFDA         	movff	sprintf@sp+1,fsr2h
  1713  000DB0  0E30               	movlw	48
  1714  000DB2  6EDF               	movwf	indf2,c
  1715                           
  1716                           ; BSR set to: 0
  1717  000DB4  4A40               	infsnz	sprintf@sp,f,c
  1718  000DB6  2A41               	incf	sprintf@sp+1,f,c
  1719                           
  1720                           ; BSR set to: 0
  1721                           ;doprnt.c: 1209: exp--;
  1722  000DB8  0100               	movlb	0	; () banked
  1723  000DBA  0767               	decf	sprintf@exp& (0+255),f,b
  1724  000DBC  A0D8               	btfss	status,0,c
  1725  000DBE  0768               	decf	(sprintf@exp+1)& (0+255),f,b
  1726  000DC0                     l2633:
  1727                           
  1728                           ; BSR set to: 0
  1729  000DC0  0100               	movlb	0	; () banked
  1730  000DC2  BF68               	btfsc	(sprintf@exp+1)& (0+255),7,b
  1731  000DC4  D007               	goto	l2635
  1732  000DC6  0100               	movlb	0	; () banked
  1733  000DC8  5168               	movf	(sprintf@exp+1)& (0+255),w,b
  1734  000DCA  E1EE               	bnz	l2627
  1735  000DCC  0100               	movlb	0	; () banked
  1736  000DCE  0567               	decf	sprintf@exp& (0+255),w,b
  1737  000DD0  B0D8               	btfsc	status,0,c
  1738  000DD2  D7EA               	goto	l2627
  1739  000DD4                     l2635:
  1740                           
  1741                           ; BSR set to: 0
  1742                           ;doprnt.c: 1210: }
  1743                           ;doprnt.c: 1211: if(prec > (int)((sizeof dpowers/sizeof dpowers[0])-2))
  1744  000DD4  0100               	movlb	0	; () banked
  1745  000DD6  BF72               	btfsc	(sprintf@prec+1)& (0+255),7,b
  1746  000DD8  D00C               	goto	l156
  1747  000DDA  0100               	movlb	0	; () banked
  1748  000DDC  5172               	movf	(sprintf@prec+1)& (0+255),w,b
  1749  000DDE  E105               	bnz	u2650
  1750  000DE0  0E09               	movlw	9
  1751  000DE2  0100               	movlb	0	; () banked
  1752  000DE4  5D71               	subwf	sprintf@prec& (0+255),w,b
  1753  000DE6  A0D8               	btfss	status,0,c
  1754  000DE8  D004               	goto	l156
  1755  000DEA                     u2650:
  1756                           
  1757                           ; BSR set to: 0
  1758                           ;doprnt.c: 1212: c = (sizeof dpowers/sizeof dpowers[0])-2;
  1759  000DEA  0E08               	movlw	8
  1760  000DEC  0100               	movlb	0	; () banked
  1761  000DEE  6F76               	movwf	sprintf@c& (0+255),b
  1762  000DF0  D002               	goto	l2639
  1763  000DF2                     l156:
  1764                           
  1765                           ; BSR set to: 0
  1766                           ;doprnt.c: 1213: else
  1767                           ;doprnt.c: 1214: c = prec;
  1768  000DF2  C071  F076         	movff	sprintf@prec,sprintf@c
  1769  000DF6                     l2639:
  1770                           
  1771                           ; BSR set to: 0
  1772                           ;doprnt.c: 1215: prec -= c;
  1773  000DF6  0100               	movlb	0	; () banked
  1774  000DF8  5176               	movf	sprintf@c& (0+255),w,b
  1775  000DFA  0100               	movlb	0	; () banked
  1776  000DFC  5F71               	subwf	sprintf@prec& (0+255),f,b
  1777  000DFE  0E00               	movlw	0
  1778  000E00  0100               	movlb	0	; () banked
  1779  000E02  BF76               	btfsc	sprintf@c& (0+255),7,b
  1780  000E04  0EFF               	movlw	255
  1781  000E06  0100               	movlb	0	; () banked
  1782  000E08  5B72               	subwfb	(sprintf@prec+1)& (0+255),f,b
  1783                           
  1784                           ; BSR set to: 0
  1785                           ;doprnt.c: 1219: if(c)
  1786  000E0A  0100               	movlb	0	; () banked
  1787  000E0C  5176               	movf	sprintf@c& (0+255),w,b
  1788  000E0E  0100               	movlb	0	; () banked
  1789  000E10  B4D8               	btfsc	status,2,c
  1790  000E12  D008               	goto	l2647
  1791                           
  1792                           ; BSR set to: 0
  1793                           ;doprnt.c: 1221: ((*sp++ = ('.')));
  1794  000E14  C040  FFD9         	movff	sprintf@sp,fsr2l
  1795  000E18  C041  FFDA         	movff	sprintf@sp+1,fsr2h
  1796  000E1C  0E2E               	movlw	46
  1797  000E1E  6EDF               	movwf	indf2,c
  1798                           
  1799                           ; BSR set to: 0
  1800  000E20  4A40               	infsnz	sprintf@sp,f,c
  1801  000E22  2A41               	incf	sprintf@sp+1,f,c
  1802  000E24                     l2647:
  1803                           
  1804                           ; BSR set to: 0
  1805                           ;doprnt.c: 1227: val = (long)(fval * scale(c));
  1806  000E24  0100               	movlb	0	; () banked
  1807  000E26  5176               	movf	sprintf@c& (0+255),w,b
  1808  000E28  ECC1  F008         	call	_scale
  1809  000E2C  C024  F060         	movff	?_scale,_sprintf$871
  1810  000E30  C025  F061         	movff	?_scale+1,_sprintf$871+1
  1811  000E34  C026  F062         	movff	?_scale+2,_sprintf$871+2
  1812                           
  1813                           ;doprnt.c: 1227: val = (long)(fval * scale(c));
  1814  000E38  C073  F018         	movff	sprintf@fval,___ftmul@f2
  1815  000E3C  C074  F019         	movff	sprintf@fval+1,___ftmul@f2+1
  1816  000E40  C075  F01A         	movff	sprintf@fval+2,___ftmul@f2+2
  1817  000E44  C060  F015         	movff	_sprintf$871,___ftmul@f1
  1818  000E48  C061  F016         	movff	_sprintf$871+1,___ftmul@f1+1
  1819  000E4C  C062  F017         	movff	_sprintf$871+2,___ftmul@f1+2
  1820  000E50  EC98  F00F         	call	___ftmul	;wreg free
  1821  000E54  C015  F02B         	movff	?___ftmul,___fttol@f1
  1822  000E58  C016  F02C         	movff	?___ftmul+1,___fttol@f1+1
  1823  000E5C  C017  F02D         	movff	?___ftmul+2,___fttol@f1+2
  1824  000E60  EC12  F010         	call	___fttol	;wreg free
  1825  000E64  C02B  F06D         	movff	?___fttol,sprintf@val
  1826  000E68  C02C  F06E         	movff	?___fttol+1,sprintf@val+1
  1827  000E6C  C02D  F06F         	movff	?___fttol+2,sprintf@val+2
  1828  000E70  C02E  F070         	movff	?___fttol+3,sprintf@val+3
  1829                           
  1830                           ;doprnt.c: 1228: while(c--) {
  1831  000E74  D072               	goto	l2661
  1832  000E76                     l2651:
  1833                           
  1834                           ;doprnt.c: 1229: tmpval.vd = val/dpowers[c];
  1835  000E76  C06D  F001         	movff	sprintf@val,___lldiv@dividend
  1836  000E7A  C06E  F002         	movff	sprintf@val+1,___lldiv@dividend+1
  1837  000E7E  C06F  F003         	movff	sprintf@val+2,___lldiv@dividend+2
  1838  000E82  C070  F004         	movff	sprintf@val+3,___lldiv@dividend+3
  1839  000E86  0100               	movlb	0	; () banked
  1840  000E88  5176               	movf	sprintf@c& (0+255),w,b
  1841  000E8A  0D04               	mullw	4
  1842  000E8C  0E01               	movlw	low _dpowers
  1843  000E8E  24F3               	addwf	prodl,w,c
  1844  000E90  6EF6               	movwf	tblptrl,c
  1845  000E92  0E08               	movlw	high _dpowers
  1846  000E94  20F4               	addwfc	prodh,w,c
  1847  000E96  6EF7               	movwf	tblptrh,c
  1848  000E98                     	if	0	;There are less than 3 active tblptr bytes
  1849  000E98                     	endif
  1850  000E98  0009               	tblrd		*+
  1851  000E9A  CFF5 F005          	movff	tablat,___lldiv@divisor
  1852  000E9E  0009               	tblrd		*+
  1853  000EA0  CFF5 F006          	movff	tablat,___lldiv@divisor+1
  1854  000EA4  0009               	tblrd		*+
  1855  000EA6  CFF5 F007          	movff	tablat,___lldiv@divisor+2
  1856  000EAA  000A               	tblrd		*-
  1857  000EAC  CFF5 F008          	movff	tablat,___lldiv@divisor+3
  1858  000EB0  EC6D  F011         	call	___lldiv	;wreg free
  1859  000EB4  C001  F069         	movff	?___lldiv,sprintf@tmpval
  1860  000EB8  C002  F06A         	movff	?___lldiv+1,sprintf@tmpval+1
  1861  000EBC  C003  F06B         	movff	?___lldiv+2,sprintf@tmpval+2
  1862  000EC0  C004  F06C         	movff	?___lldiv+3,sprintf@tmpval+3
  1863                           
  1864                           ;doprnt.c: 1230: tmpval.vd %= 10;
  1865  000EC4  C069  F00E         	movff	sprintf@tmpval,___llmod@dividend
  1866  000EC8  C06A  F00F         	movff	sprintf@tmpval+1,___llmod@dividend+1
  1867  000ECC  C06B  F010         	movff	sprintf@tmpval+2,___llmod@dividend+2
  1868  000ED0  C06C  F011         	movff	sprintf@tmpval+3,___llmod@dividend+3
  1869  000ED4  0E0A               	movlw	10
  1870  000ED6  6E12               	movwf	___llmod@divisor,c
  1871  000ED8  0E00               	movlw	0
  1872  000EDA  6E13               	movwf	___llmod@divisor+1,c
  1873  000EDC  0E00               	movlw	0
  1874  000EDE  6E14               	movwf	___llmod@divisor+2,c
  1875  000EE0  0E00               	movlw	0
  1876  000EE2  6E15               	movwf	___llmod@divisor+3,c
  1877  000EE4  EC1A  F012         	call	___llmod	;wreg free
  1878  000EE8  C00E  F069         	movff	?___llmod,sprintf@tmpval
  1879  000EEC  C00F  F06A         	movff	?___llmod+1,sprintf@tmpval+1
  1880  000EF0  C010  F06B         	movff	?___llmod+2,sprintf@tmpval+2
  1881  000EF4  C011  F06C         	movff	?___llmod+3,sprintf@tmpval+3
  1882                           
  1883                           ;doprnt.c: 1231: ((*sp++ = ('0' + tmpval.vd)));
  1884  000EF8  0100               	movlb	0	; () banked
  1885  000EFA  5169               	movf	sprintf@tmpval& (0+255),w,b
  1886  000EFC  0F30               	addlw	48
  1887  000EFE  C040  FFD9         	movff	sprintf@sp,fsr2l
  1888  000F02  C041  FFDA         	movff	sprintf@sp+1,fsr2h
  1889  000F06  6EDF               	movwf	indf2,c
  1890                           
  1891                           ; BSR set to: 0
  1892  000F08  4A40               	infsnz	sprintf@sp,f,c
  1893  000F0A  2A41               	incf	sprintf@sp+1,f,c
  1894                           
  1895                           ; BSR set to: 0
  1896                           ;doprnt.c: 1232: val %= dpowers[c];
  1897  000F0C  C06D  F00E         	movff	sprintf@val,___llmod@dividend
  1898  000F10  C06E  F00F         	movff	sprintf@val+1,___llmod@dividend+1
  1899  000F14  C06F  F010         	movff	sprintf@val+2,___llmod@dividend+2
  1900  000F18  C070  F011         	movff	sprintf@val+3,___llmod@dividend+3
  1901  000F1C  0100               	movlb	0	; () banked
  1902  000F1E  5176               	movf	sprintf@c& (0+255),w,b
  1903  000F20  0D04               	mullw	4
  1904  000F22  0E01               	movlw	low _dpowers
  1905  000F24  24F3               	addwf	prodl,w,c
  1906  000F26  6EF6               	movwf	tblptrl,c
  1907  000F28  0E08               	movlw	high _dpowers
  1908  000F2A  20F4               	addwfc	prodh,w,c
  1909  000F2C  6EF7               	movwf	tblptrh,c
  1910  000F2E                     	if	0	;There are less than 3 active tblptr bytes
  1911  000F2E                     	endif
  1912  000F2E  0009               	tblrd		*+
  1913  000F30  CFF5 F012          	movff	tablat,___llmod@divisor
  1914  000F34  0009               	tblrd		*+
  1915  000F36  CFF5 F013          	movff	tablat,___llmod@divisor+1
  1916  000F3A  0009               	tblrd		*+
  1917  000F3C  CFF5 F014          	movff	tablat,___llmod@divisor+2
  1918  000F40  000A               	tblrd		*-
  1919  000F42  CFF5 F015          	movff	tablat,___llmod@divisor+3
  1920  000F46  EC1A  F012         	call	___llmod	;wreg free
  1921  000F4A  C00E  F06D         	movff	?___llmod,sprintf@val
  1922  000F4E  C00F  F06E         	movff	?___llmod+1,sprintf@val+1
  1923  000F52  C010  F06F         	movff	?___llmod+2,sprintf@val+2
  1924  000F56  C011  F070         	movff	?___llmod+3,sprintf@val+3
  1925  000F5A                     l2661:
  1926  000F5A  0100               	movlb	0	; () banked
  1927  000F5C  0776               	decf	sprintf@c& (0+255),f,b
  1928  000F5E  0100               	movlb	0	; () banked
  1929  000F60  2976               	incf	sprintf@c& (0+255),w,b
  1930  000F62  B4D8               	btfsc	status,2,c
  1931  000F64  D00D               	goto	l2669
  1932  000F66  D787               	goto	l2651
  1933  000F68                     l2663:
  1934                           
  1935                           ; BSR set to: 0
  1936                           ;doprnt.c: 1236: ((*sp++ = ('0')));
  1937  000F68  C040  FFD9         	movff	sprintf@sp,fsr2l
  1938  000F6C  C041  FFDA         	movff	sprintf@sp+1,fsr2h
  1939  000F70  0E30               	movlw	48
  1940  000F72  6EDF               	movwf	indf2,c
  1941                           
  1942                           ; BSR set to: 0
  1943  000F74  4A40               	infsnz	sprintf@sp,f,c
  1944  000F76  2A41               	incf	sprintf@sp+1,f,c
  1945                           
  1946                           ; BSR set to: 0
  1947                           ;doprnt.c: 1237: prec--;
  1948  000F78  0100               	movlb	0	; () banked
  1949  000F7A  0771               	decf	sprintf@prec& (0+255),f,b
  1950  000F7C  A0D8               	btfss	status,0,c
  1951  000F7E  0772               	decf	(sprintf@prec+1)& (0+255),f,b
  1952  000F80                     l2669:
  1953                           
  1954                           ; BSR set to: 0
  1955  000F80  0100               	movlb	0	; () banked
  1956  000F82  5171               	movf	sprintf@prec& (0+255),w,b
  1957  000F84  0100               	movlb	0	; () banked
  1958  000F86  1172               	iorwf	(sprintf@prec+1)& (0+255),w,b
  1959  000F88  B4D8               	btfsc	status,2,c
  1960  000F8A  D0E6               	goto	l2723
  1961  000F8C  D7ED               	goto	l2663
  1962  000F8E                     l2671:
  1963                           
  1964                           ; BSR set to: 0
  1965                           ;doprnt.c: 1246: }
  1966                           ;doprnt.c: 1253: {
  1967                           ;doprnt.c: 1259: val = (long)(*(int *)__va_arg((*(int **)ap), (int)0));
  1968  000F8E  C063  FFD9         	movff	sprintf@ap,fsr2l
  1969  000F92  C064  FFDA         	movff	sprintf@ap+1,fsr2h
  1970  000F96  CFDE F06D          	movff	postinc2,sprintf@val
  1971  000F9A  CFDD F06E          	movff	postdec2,sprintf@val+1
  1972  000F9E  0100               	movlb	0	; () banked
  1973  000FA0  0E00               	movlw	0
  1974  000FA2  BF6E               	btfsc	(sprintf@val+1)& (0+255),7,b
  1975  000FA4  0EFF               	movlw	-1
  1976  000FA6  6F6F               	movwf	(sprintf@val+2)& (0+255),b
  1977  000FA8  6F70               	movwf	(sprintf@val+3)& (0+255),b
  1978                           
  1979                           ; BSR set to: 0
  1980  000FAA  0E02               	movlw	2
  1981  000FAC  0100               	movlb	0	; () banked
  1982  000FAE  2763               	addwf	sprintf@ap& (0+255),f,b
  1983  000FB0  0E00               	movlw	0
  1984  000FB2  2364               	addwfc	(sprintf@ap+1)& (0+255),f,b
  1985                           
  1986                           ; BSR set to: 0
  1987                           ;doprnt.c: 1261: if((long)val < 0) {
  1988  000FB4  0100               	movlb	0	; () banked
  1989  000FB6  AF70               	btfss	(sprintf@val+3)& (0+255),7,b
  1990  000FB8  D00C               	goto	l2681
  1991                           
  1992                           ; BSR set to: 0
  1993                           ;doprnt.c: 1262: flag |= 0x03;
  1994  000FBA  0E03               	movlw	3
  1995  000FBC  0100               	movlb	0	; () banked
  1996  000FBE  1365               	iorwf	sprintf@flag& (0+255),f,b
  1997                           
  1998                           ; BSR set to: 0
  1999                           ;doprnt.c: 1263: val = -val;
  2000  000FC0  0100               	movlb	0	; () banked
  2001  000FC2  1F70               	comf	(sprintf@val+3)& (0+255),f,b
  2002  000FC4  1F6F               	comf	(sprintf@val+2)& (0+255),f,b
  2003  000FC6  1F6E               	comf	(sprintf@val+1)& (0+255),f,b
  2004  000FC8  6D6D               	negf	sprintf@val& (0+255),b
  2005  000FCA  0E00               	movlw	0
  2006  000FCC  236E               	addwfc	(sprintf@val+1)& (0+255),f,b
  2007  000FCE  236F               	addwfc	(sprintf@val+2)& (0+255),f,b
  2008  000FD0  2370               	addwfc	(sprintf@val+3)& (0+255),f,b
  2009  000FD2                     l2681:
  2010                           
  2011                           ; BSR set to: 0
  2012                           ;doprnt.c: 1264: }
  2013                           ;doprnt.c: 1266: }
  2014                           ;doprnt.c: 1290: if(prec == 0 && val == 0)
  2015  000FD2  0100               	movlb	0	; () banked
  2016  000FD4  5171               	movf	sprintf@prec& (0+255),w,b
  2017  000FD6  0100               	movlb	0	; () banked
  2018  000FD8  1172               	iorwf	(sprintf@prec+1)& (0+255),w,b
  2019  000FDA  A4D8               	btfss	status,2,c
  2020  000FDC  D00D               	goto	l2687
  2021                           
  2022                           ; BSR set to: 0
  2023  000FDE  0100               	movlb	0	; () banked
  2024  000FE0  516D               	movf	sprintf@val& (0+255),w,b
  2025  000FE2  0100               	movlb	0	; () banked
  2026  000FE4  116E               	iorwf	(sprintf@val+1)& (0+255),w,b
  2027  000FE6  0100               	movlb	0	; () banked
  2028  000FE8  116F               	iorwf	(sprintf@val+2)& (0+255),w,b
  2029  000FEA  0100               	movlb	0	; () banked
  2030  000FEC  1170               	iorwf	(sprintf@val+3)& (0+255),w,b
  2031  000FEE  A4D8               	btfss	status,2,c
  2032  000FF0  D003               	goto	l2687
  2033                           
  2034                           ; BSR set to: 0
  2035                           ;doprnt.c: 1291: prec++;
  2036  000FF2  0100               	movlb	0	; () banked
  2037  000FF4  4B71               	infsnz	sprintf@prec& (0+255),f,b
  2038  000FF6  2B72               	incf	(sprintf@prec+1)& (0+255),f,b
  2039  000FF8                     l2687:
  2040                           
  2041                           ; BSR set to: 0
  2042                           ;doprnt.c: 1305: for(c = 1 ; c != sizeof dpowers/sizeof dpowers[0] ; c++)
  2043  000FF8  0E01               	movlw	1
  2044  000FFA  0100               	movlb	0	; () banked
  2045  000FFC  6F76               	movwf	sprintf@c& (0+255),b
  2046  000FFE                     l2689:
  2047                           
  2048                           ; BSR set to: 0
  2049  000FFE  0E0A               	movlw	10
  2050  001000  0100               	movlb	0	; () banked
  2051  001002  1976               	xorwf	sprintf@c& (0+255),w,b
  2052  001004  B4D8               	btfsc	status,2,c
  2053  001006  D01E               	goto	l2701
  2054                           
  2055                           ; BSR set to: 0
  2056                           ;doprnt.c: 1306: if(val < dpowers[c])
  2057                           
  2058                           ; BSR set to: 0
  2059                           
  2060                           ; BSR set to: 0
  2061  001008  0100               	movlb	0	; () banked
  2062  00100A  5176               	movf	sprintf@c& (0+255),w,b
  2063  00100C  0D04               	mullw	4
  2064  00100E  0E01               	movlw	low _dpowers
  2065  001010  24F3               	addwf	prodl,w,c
  2066  001012  6EF6               	movwf	tblptrl,c
  2067  001014  0E08               	movlw	high _dpowers
  2068  001016  20F4               	addwfc	prodh,w,c
  2069  001018  6EF7               	movwf	tblptrh,c
  2070  00101A                     	if	0	;There are less than 3 active tblptr bytes
  2071  00101A                     	endif
  2072  00101A  0009               	tblrd		*+
  2073  00101C  50F5               	movf	tablat,w,c
  2074  00101E  0100               	movlb	0	; () banked
  2075  001020  5D6D               	subwf	sprintf@val& (0+255),w,b
  2076  001022  0009               	tblrd		*+
  2077  001024  50F5               	movf	tablat,w,c
  2078  001026  0100               	movlb	0	; () banked
  2079  001028  596E               	subwfb	(sprintf@val+1)& (0+255),w,b
  2080  00102A  0009               	tblrd		*+
  2081  00102C  50F5               	movf	tablat,w,c
  2082  00102E  0100               	movlb	0	; () banked
  2083  001030  596F               	subwfb	(sprintf@val+2)& (0+255),w,b
  2084  001032  0009               	tblrd		*+
  2085  001034  50F5               	movf	tablat,w,c
  2086  001036  0100               	movlb	0	; () banked
  2087  001038  5970               	subwfb	(sprintf@val+3)& (0+255),w,b
  2088  00103A  A0D8               	btfss	status,0,c
  2089  00103C  D003               	goto	l2701
  2090                           
  2091                           ; BSR set to: 0
  2092                           
  2093                           ; BSR set to: 0
  2094                           
  2095                           ; BSR set to: 0
  2096                           ;doprnt.c: 1307: break;
  2097  00103E  0100               	movlb	0	; () banked
  2098  001040  2B76               	incf	sprintf@c& (0+255),f,b
  2099  001042  D7DD               	goto	l2689
  2100  001044                     l2701:
  2101                           
  2102                           ; BSR set to: 0
  2103                           ;doprnt.c: 1339: if(c < prec)
  2104  001044  0E80               	movlw	128
  2105  001046  0100               	movlb	0	; () banked
  2106  001048  BF76               	btfsc	sprintf@c& (0+255),7,b
  2107  00104A  0E7F               	movlw	127
  2108  00104C  6E49               	movwf	??_sprintf& (0+255),c
  2109  00104E  0100               	movlb	0	; () banked
  2110  001050  5171               	movf	sprintf@prec& (0+255),w,b
  2111  001052  0100               	movlb	0	; () banked
  2112  001054  5D76               	subwf	sprintf@c& (0+255),w,b
  2113  001056  0100               	movlb	0	; () banked
  2114  001058  5172               	movf	(sprintf@prec+1)& (0+255),w,b
  2115  00105A  0A80               	xorlw	128
  2116  00105C  5849               	subwfb	??_sprintf& (0+255),w,c
  2117  00105E  B0D8               	btfsc	status,0,c
  2118  001060  D003               	goto	l2705
  2119                           
  2120                           ; BSR set to: 0
  2121                           ;doprnt.c: 1340: c = prec;
  2122  001062  C071  F076         	movff	sprintf@prec,sprintf@c
  2123  001066  D016               	goto	l2709
  2124  001068                     l2705:
  2125                           
  2126                           ; BSR set to: 0
  2127                           ;doprnt.c: 1341: else if(prec < c)
  2128  001068  0100               	movlb	0	; () banked
  2129  00106A  5172               	movf	(sprintf@prec+1)& (0+255),w,b
  2130  00106C  0A80               	xorlw	128
  2131  00106E  6E49               	movwf	??_sprintf& (0+255),c
  2132  001070  0100               	movlb	0	; () banked
  2133  001072  5176               	movf	sprintf@c& (0+255),w,b
  2134  001074  0100               	movlb	0	; () banked
  2135  001076  5D71               	subwf	sprintf@prec& (0+255),w,b
  2136  001078  0E80               	movlw	128
  2137  00107A  0100               	movlb	0	; () banked
  2138  00107C  BF76               	btfsc	sprintf@c& (0+255),7,b
  2139  00107E  0E7F               	movlw	127
  2140  001080  5849               	subwfb	??_sprintf& (0+255),w,c
  2141  001082  B0D8               	btfsc	status,0,c
  2142  001084  D007               	goto	l2709
  2143                           
  2144                           ; BSR set to: 0
  2145                           ;doprnt.c: 1342: prec = c;
  2146  001086  0100               	movlb	0	; () banked
  2147  001088  5176               	movf	sprintf@c& (0+255),w,b
  2148  00108A  0100               	movlb	0	; () banked
  2149  00108C  6F71               	movwf	sprintf@prec& (0+255),b
  2150  00108E  6B72               	clrf	(sprintf@prec+1)& (0+255),b
  2151  001090  BF71               	btfsc	sprintf@prec& (0+255),7,b
  2152  001092  0772               	decf	(sprintf@prec+1)& (0+255),f,b
  2153  001094                     l2709:
  2154                           
  2155                           ; BSR set to: 0
  2156                           ;doprnt.c: 1422: {
  2157                           ;doprnt.c: 1438: if(flag & 0x03)
  2158  001094  0E03               	movlw	3
  2159  001096  0100               	movlb	0	; () banked
  2160  001098  1565               	andwf	sprintf@flag& (0+255),w,b
  2161  00109A  6E49               	movwf	??_sprintf& (0+255),c
  2162  00109C  0E00               	movlw	0
  2163  00109E  0100               	movlb	0	; () banked
  2164  0010A0  1566               	andwf	(sprintf@flag+1)& (0+255),w,b
  2165  0010A2  6E4A               	movwf	(??_sprintf+1)& (0+255),c
  2166  0010A4  5049               	movf	??_sprintf,w,c
  2167  0010A6  104A               	iorwf	??_sprintf+1,w,c
  2168  0010A8  B4D8               	btfsc	status,2,c
  2169  0010AA  D04B               	goto	l2721
  2170                           
  2171                           ; BSR set to: 0
  2172                           ;doprnt.c: 1439: ((*sp++ = ('-')));
  2173  0010AC  C040  FFD9         	movff	sprintf@sp,fsr2l
  2174  0010B0  C041  FFDA         	movff	sprintf@sp+1,fsr2h
  2175  0010B4  0E2D               	movlw	45
  2176  0010B6  6EDF               	movwf	indf2,c
  2177  0010B8  D042               	goto	l2719
  2178  0010BA                     l2715:
  2179                           
  2180                           ; BSR set to: 0
  2181                           ;doprnt.c: 1478: {
  2182                           ;doprnt.c: 1489: c = (val / dpowers[prec]) % 10 + '0';
  2183  0010BA  C071  F049         	movff	sprintf@prec,??_sprintf
  2184  0010BE  C072  F04A         	movff	sprintf@prec+1,??_sprintf+1
  2185  0010C2  90D8               	bcf	status,0,c
  2186  0010C4  3649               	rlcf	??_sprintf,f,c
  2187  0010C6  364A               	rlcf	??_sprintf+1,f,c
  2188  0010C8  90D8               	bcf	status,0,c
  2189  0010CA  3649               	rlcf	??_sprintf,f,c
  2190  0010CC  364A               	rlcf	??_sprintf+1,f,c
  2191  0010CE  0E01               	movlw	low _dpowers
  2192  0010D0  2449               	addwf	??_sprintf,w,c
  2193  0010D2  6EF6               	movwf	tblptrl,c
  2194  0010D4  0E08               	movlw	high _dpowers
  2195  0010D6  204A               	addwfc	??_sprintf+1,w,c
  2196  0010D8  6EF7               	movwf	tblptrh,c
  2197  0010DA                     	if	0	;There are less than 3 active tblptr bytes
  2198  0010DA                     	endif
  2199  0010DA  0009               	tblrd		*+
  2200  0010DC  CFF5 F005          	movff	tablat,___lldiv@divisor
  2201  0010E0  0009               	tblrd		*+
  2202  0010E2  CFF5 F006          	movff	tablat,___lldiv@divisor+1
  2203  0010E6  0009               	tblrd		*+
  2204  0010E8  CFF5 F007          	movff	tablat,___lldiv@divisor+2
  2205  0010EC  000A               	tblrd		*-
  2206  0010EE  CFF5 F008          	movff	tablat,___lldiv@divisor+3
  2207  0010F2  C06D  F001         	movff	sprintf@val,___lldiv@dividend
  2208  0010F6  C06E  F002         	movff	sprintf@val+1,___lldiv@dividend+1
  2209  0010FA  C06F  F003         	movff	sprintf@val+2,___lldiv@dividend+2
  2210  0010FE  C070  F004         	movff	sprintf@val+3,___lldiv@dividend+3
  2211  001102  EC6D  F011         	call	___lldiv	;wreg free
  2212  001106  C001  F00E         	movff	?___lldiv,___llmod@dividend
  2213  00110A  C002  F00F         	movff	?___lldiv+1,___llmod@dividend+1
  2214  00110E  C003  F010         	movff	?___lldiv+2,___llmod@dividend+2
  2215  001112  C004  F011         	movff	?___lldiv+3,___llmod@dividend+3
  2216  001116  0E0A               	movlw	10
  2217  001118  6E12               	movwf	___llmod@divisor,c
  2218  00111A  0E00               	movlw	0
  2219  00111C  6E13               	movwf	___llmod@divisor+1,c
  2220  00111E  0E00               	movlw	0
  2221  001120  6E14               	movwf	___llmod@divisor+2,c
  2222  001122  0E00               	movlw	0
  2223  001124  6E15               	movwf	___llmod@divisor+3,c
  2224  001126  EC1A  F012         	call	___llmod	;wreg free
  2225  00112A  500E               	movf	?___llmod,w,c
  2226  00112C  0F30               	addlw	48
  2227  00112E  0100               	movlb	0	; () banked
  2228  001130  6F76               	movwf	sprintf@c& (0+255),b
  2229                           
  2230                           ; BSR set to: 0
  2231                           ;doprnt.c: 1523: }
  2232                           ;doprnt.c: 1524: ((*sp++ = (c)));
  2233  001132  C040  FFD9         	movff	sprintf@sp,fsr2l
  2234  001136  C041  FFDA         	movff	sprintf@sp+1,fsr2h
  2235  00113A  C076  FFDF         	movff	sprintf@c,indf2
  2236  00113E                     l2719:
  2237                           
  2238                           ; BSR set to: 0
  2239  00113E  4A40               	infsnz	sprintf@sp,f,c
  2240  001140  2A41               	incf	sprintf@sp+1,f,c
  2241  001142                     l2721:
  2242                           
  2243                           ; BSR set to: 0
  2244  001142  0100               	movlb	0	; () banked
  2245  001144  0771               	decf	sprintf@prec& (0+255),f,b
  2246  001146  A0D8               	btfss	status,0,c
  2247  001148  0772               	decf	(sprintf@prec+1)& (0+255),f,b
  2248  00114A  0100               	movlb	0	; () banked
  2249  00114C  2971               	incf	sprintf@prec& (0+255),w,b
  2250  00114E  E1B5               	bnz	l2715
  2251  001150  0100               	movlb	0	; () banked
  2252  001152  2972               	incf	(sprintf@prec+1)& (0+255),w,b
  2253  001154  A4D8               	btfss	status,2,c
  2254  001156  D7B1               	goto	l2715
  2255  001158                     l2723:
  2256                           
  2257                           ; BSR set to: 0
  2258  001158  C042  FFF6         	movff	sprintf@f,tblptrl
  2259  00115C  C043  FFF7         	movff	sprintf@f+1,tblptrh
  2260  001160  4A42               	infsnz	sprintf@f,f,c
  2261  001162  2A43               	incf	sprintf@f+1,f,c
  2262  001164                     	if	0	;tblptru may be non-zero
  2263  001164                     	endif
  2264  001164                     	if	0	;tblptru may be non-zero
  2265  001164                     	endif
  2266  001164  0008               	tblrd		*
  2267  001166  CFF5 F076          	movff	tablat,sprintf@c
  2268  00116A  0100               	movlb	0	; () banked
  2269  00116C  5176               	movf	sprintf@c& (0+255),w,b
  2270  00116E  A4D8               	btfss	status,2,c
  2271  001170  EF4A  F004         	goto	l2493
  2272  001174                     l2725:
  2273                           
  2274                           ; BSR set to: 0
  2275                           ;doprnt.c: 1538: *sp = 0;
  2276  001174  C040  FFD9         	movff	sprintf@sp,fsr2l
  2277  001178  C041  FFDA         	movff	sprintf@sp+1,fsr2h
  2278  00117C  0E00               	movlw	0
  2279  00117E  6EDF               	movwf	indf2,c
  2280  001180  0012               	return	
  2281  001182                     __end_of_sprintf:
  2282                           	opt stack 0
  2283                           tblptru	equ	0xFF8
  2284                           tblptrh	equ	0xFF7
  2285                           tblptrl	equ	0xFF6
  2286                           tablat	equ	0xFF5
  2287                           prodh	equ	0xFF4
  2288                           prodl	equ	0xFF3
  2289                           postinc0	equ	0xFEE
  2290                           wreg	equ	0xFE8
  2291                           postdec1	equ	0xFE5
  2292                           fsr1l	equ	0xFE1
  2293                           indf2	equ	0xFDF
  2294                           postinc2	equ	0xFDE
  2295                           postdec2	equ	0xFDD
  2296                           fsr2h	equ	0xFDA
  2297                           fsr2l	equ	0xFD9
  2298                           status	equ	0xFD8
  2299                           
  2300 ;; *************** function _scale *****************
  2301 ;; Defined at:
  2302 ;;		line 425 in file "C:\Program Files (x86)\Microchip\xc8\v1.42\sources\common\doprnt.c"
  2303 ;; Parameters:    Size  Location     Type
  2304 ;;  scl             1    wreg     char 
  2305 ;; Auto vars:     Size  Location     Type
  2306 ;;  scl             1   41[COMRAM] char 
  2307 ;; Return value:  Size  Location     Type
  2308 ;;                  3   35[COMRAM] char 
  2309 ;; Registers used:
  2310 ;;		wreg, status,2, status,0, tblptrl, tblptrh, tblptru, prodl, prodh, cstack
  2311 ;; Tracked objects:
  2312 ;;		On entry : 0/0
  2313 ;;		On exit  : 0/0
  2314 ;;		Unchanged: 0/0
  2315 ;; Data sizes:     COMRAM   BANK0   BANK1   BANK2   BANK3   BANK4   BANK5   BANK6   BANK7
  2316 ;;      Params:         3       0       0       0       0       0       0       0       0
  2317 ;;      Locals:         4       0       0       0       0       0       0       0       0
  2318 ;;      Temps:          0       0       0       0       0       0       0       0       0
  2319 ;;      Totals:         7       0       0       0       0       0       0       0       0
  2320 ;;Total ram usage:        7 bytes
  2321 ;; Hardware stack levels used:    1
  2322 ;; Hardware stack levels required when called:    2
  2323 ;; This function calls:
  2324 ;;		___awdiv
  2325 ;;		___awmod
  2326 ;;		___ftmul
  2327 ;;		___wmul
  2328 ;; This function is called by:
  2329 ;;		_sprintf
  2330 ;; This function uses a non-reentrant model
  2331 ;;
  2332                           
  2333                           	psect	text2
  2334  001182                     __ptext2:
  2335                           	opt stack 0
  2336  001182                     _scale:
  2337                           	opt stack 27
  2338                           
  2339                           ; BSR set to: 0
  2340                           ;incstack = 0
  2341                           ;scale@scl stored from wreg
  2342  001182  6E2A               	movwf	scale@scl,c
  2343                           
  2344                           ;doprnt.c: 428: if(scl < 0) {
  2345  001184  AE2A               	btfss	scale@scl,7,c
  2346  001186  D0FB               	goto	l2141
  2347                           
  2348                           ;doprnt.c: 429: scl = -scl;
  2349  001188  6C2A               	negf	scale@scl,c
  2350                           
  2351                           ;doprnt.c: 430: if(scl>=110)
  2352  00118A  502A               	movf	scale@scl,w,c
  2353  00118C  0A80               	xorlw	128
  2354  00118E  0F12               	addlw	-238
  2355  001190  A0D8               	btfss	status,0,c
  2356  001192  D091               	goto	l2131
  2357                           
  2358                           ;doprnt.c: 431: return _npowers_[scl/100+18] * _npowers_[(scl%100)/10+9] * _npowers_[scl
      +                          %10];
  2359  001194  0E00               	movlw	0
  2360  001196  6E12               	movwf	___wmul@multiplicand+1,c
  2361  001198  0E03               	movlw	3
  2362  00119A  6E11               	movwf	___wmul@multiplicand,c
  2363  00119C  0E00               	movlw	0
  2364  00119E  6E0A               	movwf	___awdiv@divisor+1,c
  2365  0011A0  0E0A               	movlw	10
  2366  0011A2  6E09               	movwf	___awdiv@divisor,c
  2367  0011A4  0E00               	movlw	0
  2368  0011A6  6E04               	movwf	___awmod@divisor+1,c
  2369  0011A8  0E64               	movlw	100
  2370  0011AA  6E03               	movwf	___awmod@divisor,c
  2371  0011AC  502A               	movf	scale@scl,w,c
  2372  0011AE  6E01               	movwf	___awmod@dividend,c
  2373  0011B0  6A02               	clrf	___awmod@dividend+1,c
  2374  0011B2  BE01               	btfsc	___awmod@dividend,7,c
  2375  0011B4  0602               	decf	___awmod@dividend+1,f,c
  2376  0011B6  ECAE  F011         	call	___awmod	;wreg free
  2377  0011BA  C001  F007         	movff	?___awmod,___awdiv@dividend
  2378  0011BE  C002  F008         	movff	?___awmod+1,___awdiv@dividend+1
  2379  0011C2  EC2B  F011         	call	___awdiv	;wreg free
  2380  0011C6  0E09               	movlw	9
  2381  0011C8  2407               	addwf	?___awdiv,w,c
  2382  0011CA  6E0F               	movwf	___wmul@multiplier,c
  2383  0011CC  0E00               	movlw	0
  2384  0011CE  2008               	addwfc	?___awdiv+1,w,c
  2385  0011D0  6E10               	movwf	___wmul@multiplier+1,c
  2386  0011D2  ECF7  F012         	call	___wmul	;wreg free
  2387  0011D6  0E50               	movlw	low __npowers_
  2388  0011D8  240F               	addwf	?___wmul,w,c
  2389  0011DA  6EF6               	movwf	tblptrl,c
  2390  0011DC  0E08               	movlw	high __npowers_
  2391  0011DE  2010               	addwfc	?___wmul+1,w,c
  2392  0011E0  6EF7               	movwf	tblptrh,c
  2393  0011E2                     	if	0	;There are less than 3 active tblptr bytes
  2394  0011E2                     	endif
  2395  0011E2  0009               	tblrd		*+
  2396  0011E4  CFF5 F018          	movff	tablat,___ftmul@f2
  2397  0011E8  0009               	tblrd		*+
  2398  0011EA  CFF5 F019          	movff	tablat,___ftmul@f2+1
  2399  0011EE  000A               	tblrd		*-
  2400  0011F0  CFF5 F01A          	movff	tablat,___ftmul@f2+2
  2401  0011F4  0E00               	movlw	0
  2402  0011F6  6E0A               	movwf	___awdiv@divisor+1,c
  2403  0011F8  0E64               	movlw	100
  2404  0011FA  6E09               	movwf	___awdiv@divisor,c
  2405  0011FC  502A               	movf	scale@scl,w,c
  2406  0011FE  6E07               	movwf	___awdiv@dividend,c
  2407  001200  6A08               	clrf	___awdiv@dividend+1,c
  2408  001202  BE07               	btfsc	___awdiv@dividend,7,c
  2409  001204  0608               	decf	___awdiv@dividend+1,f,c
  2410  001206  EC2B  F011         	call	___awdiv	;wreg free
  2411  00120A  0E12               	movlw	18
  2412  00120C  2407               	addwf	?___awdiv,w,c
  2413  00120E  6E0F               	movwf	___wmul@multiplier,c
  2414  001210  0E00               	movlw	0
  2415  001212  2008               	addwfc	?___awdiv+1,w,c
  2416  001214  6E10               	movwf	___wmul@multiplier+1,c
  2417  001216  0E00               	movlw	0
  2418  001218  6E12               	movwf	___wmul@multiplicand+1,c
  2419  00121A  0E03               	movlw	3
  2420  00121C  6E11               	movwf	___wmul@multiplicand,c
  2421  00121E  ECF7  F012         	call	___wmul	;wreg free
  2422  001222  0E50               	movlw	low __npowers_
  2423  001224  240F               	addwf	?___wmul,w,c
  2424  001226  6EF6               	movwf	tblptrl,c
  2425  001228  0E08               	movlw	high __npowers_
  2426  00122A  2010               	addwfc	?___wmul+1,w,c
  2427  00122C  6EF7               	movwf	tblptrh,c
  2428  00122E                     	if	0	;There are less than 3 active tblptr bytes
  2429  00122E                     	endif
  2430  00122E  0009               	tblrd		*+
  2431  001230  CFF5 F015          	movff	tablat,___ftmul@f1
  2432  001234  0009               	tblrd		*+
  2433  001236  CFF5 F016          	movff	tablat,___ftmul@f1+1
  2434  00123A  000A               	tblrd		*-
  2435  00123C  CFF5 F017          	movff	tablat,___ftmul@f1+2
  2436  001240  EC98  F00F         	call	___ftmul	;wreg free
  2437  001244  C015  F027         	movff	?___ftmul,_scale$870
  2438  001248  C016  F028         	movff	?___ftmul+1,_scale$870+1
  2439  00124C  C017  F029         	movff	?___ftmul+2,_scale$870+2
  2440                           
  2441                           ;doprnt.c: 431: return _npowers_[scl/100+18] * _npowers_[(scl%100)/10+9] * _npowers_[scl
      +                          %10];
  2442  001250  C027  F015         	movff	_scale$870,___ftmul@f1
  2443  001254  C028  F016         	movff	_scale$870+1,___ftmul@f1+1
  2444  001258  C029  F017         	movff	_scale$870+2,___ftmul@f1+2
  2445  00125C  0E00               	movlw	0
  2446  00125E  6E12               	movwf	___wmul@multiplicand+1,c
  2447  001260  0E03               	movlw	3
  2448  001262  6E11               	movwf	___wmul@multiplicand,c
  2449  001264  0E00               	movlw	0
  2450  001266  6E04               	movwf	___awmod@divisor+1,c
  2451  001268  0E0A               	movlw	10
  2452  00126A  6E03               	movwf	___awmod@divisor,c
  2453  00126C  502A               	movf	scale@scl,w,c
  2454  00126E  6E01               	movwf	___awmod@dividend,c
  2455  001270  6A02               	clrf	___awmod@dividend+1,c
  2456  001272  BE01               	btfsc	___awmod@dividend,7,c
  2457  001274  0602               	decf	___awmod@dividend+1,f,c
  2458  001276  ECAE  F011         	call	___awmod	;wreg free
  2459  00127A  C001  F00F         	movff	?___awmod,___wmul@multiplier
  2460  00127E  C002  F010         	movff	?___awmod+1,___wmul@multiplier+1
  2461  001282  ECF7  F012         	call	___wmul	;wreg free
  2462  001286  0E50               	movlw	low __npowers_
  2463  001288  240F               	addwf	?___wmul,w,c
  2464  00128A  6EF6               	movwf	tblptrl,c
  2465  00128C  0E08               	movlw	high __npowers_
  2466  00128E  2010               	addwfc	?___wmul+1,w,c
  2467  001290  6EF7               	movwf	tblptrh,c
  2468  001292                     	if	0	;There are less than 3 active tblptr bytes
  2469  001292                     	endif
  2470  001292  0009               	tblrd		*+
  2471  001294  CFF5 F018          	movff	tablat,___ftmul@f2
  2472  001298  0009               	tblrd		*+
  2473  00129A  CFF5 F019          	movff	tablat,___ftmul@f2+1
  2474  00129E  000A               	tblrd		*-
  2475  0012A0  CFF5 F01A          	movff	tablat,___ftmul@f2+2
  2476  0012A4  EC98  F00F         	call	___ftmul	;wreg free
  2477  0012A8  C015  F024         	movff	?___ftmul,?_scale
  2478  0012AC  C016  F025         	movff	?___ftmul+1,?_scale+1
  2479  0012B0  C017  F026         	movff	?___ftmul+2,?_scale+2
  2480  0012B4  0012               	return	
  2481  0012B6                     l2131:
  2482                           
  2483                           ;doprnt.c: 432: else if(scl > 10)
  2484  0012B6  502A               	movf	scale@scl,w,c
  2485  0012B8  0A80               	xorlw	128
  2486  0012BA  0F75               	addlw	-139
  2487  0012BC  A0D8               	btfss	status,0,c
  2488  0012BE  D04D               	goto	l2137
  2489                           
  2490                           ;doprnt.c: 433: return _npowers_[scl/10+9] * _npowers_[scl%10];
  2491  0012C0  0E00               	movlw	0
  2492  0012C2  6E0A               	movwf	___awdiv@divisor+1,c
  2493  0012C4  0E0A               	movlw	10
  2494  0012C6  6E09               	movwf	___awdiv@divisor,c
  2495  0012C8  502A               	movf	scale@scl,w,c
  2496  0012CA  6E07               	movwf	___awdiv@dividend,c
  2497  0012CC  6A08               	clrf	___awdiv@dividend+1,c
  2498  0012CE  BE07               	btfsc	___awdiv@dividend,7,c
  2499  0012D0  0608               	decf	___awdiv@dividend+1,f,c
  2500  0012D2  EC2B  F011         	call	___awdiv	;wreg free
  2501  0012D6  0E09               	movlw	9
  2502  0012D8  2407               	addwf	?___awdiv,w,c
  2503  0012DA  6E0F               	movwf	___wmul@multiplier,c
  2504  0012DC  0E00               	movlw	0
  2505  0012DE  2008               	addwfc	?___awdiv+1,w,c
  2506  0012E0  6E10               	movwf	___wmul@multiplier+1,c
  2507  0012E2  0E00               	movlw	0
  2508  0012E4  6E12               	movwf	___wmul@multiplicand+1,c
  2509  0012E6  0E03               	movlw	3
  2510  0012E8  6E11               	movwf	___wmul@multiplicand,c
  2511  0012EA  ECF7  F012         	call	___wmul	;wreg free
  2512  0012EE  0E50               	movlw	low __npowers_
  2513  0012F0  240F               	addwf	?___wmul,w,c
  2514  0012F2  6EF6               	movwf	tblptrl,c
  2515  0012F4  0E08               	movlw	high __npowers_
  2516  0012F6  2010               	addwfc	?___wmul+1,w,c
  2517  0012F8  6EF7               	movwf	tblptrh,c
  2518  0012FA                     	if	0	;There are less than 3 active tblptr bytes
  2519  0012FA                     	endif
  2520  0012FA  0009               	tblrd		*+
  2521  0012FC  CFF5 F015          	movff	tablat,___ftmul@f1
  2522  001300  0009               	tblrd		*+
  2523  001302  CFF5 F016          	movff	tablat,___ftmul@f1+1
  2524  001306  000A               	tblrd		*-
  2525  001308  CFF5 F017          	movff	tablat,___ftmul@f1+2
  2526  00130C  0E00               	movlw	0
  2527  00130E  6E12               	movwf	___wmul@multiplicand+1,c
  2528  001310  0E03               	movlw	3
  2529  001312  6E11               	movwf	___wmul@multiplicand,c
  2530  001314  0E00               	movlw	0
  2531  001316  6E04               	movwf	___awmod@divisor+1,c
  2532  001318  0E0A               	movlw	10
  2533  00131A  6E03               	movwf	___awmod@divisor,c
  2534  00131C  502A               	movf	scale@scl,w,c
  2535  00131E  6E01               	movwf	___awmod@dividend,c
  2536  001320  6A02               	clrf	___awmod@dividend+1,c
  2537  001322  BE01               	btfsc	___awmod@dividend,7,c
  2538  001324  0602               	decf	___awmod@dividend+1,f,c
  2539  001326  ECAE  F011         	call	___awmod	;wreg free
  2540  00132A  C001  F00F         	movff	?___awmod,___wmul@multiplier
  2541  00132E  C002  F010         	movff	?___awmod+1,___wmul@multiplier+1
  2542  001332  ECF7  F012         	call	___wmul	;wreg free
  2543  001336  0E50               	movlw	low __npowers_
  2544  001338  240F               	addwf	?___wmul,w,c
  2545  00133A  6EF6               	movwf	tblptrl,c
  2546  00133C  0E08               	movlw	high __npowers_
  2547  00133E  2010               	addwfc	?___wmul+1,w,c
  2548  001340  6EF7               	movwf	tblptrh,c
  2549  001342                     	if	0	;There are less than 3 active tblptr bytes
  2550  001342                     	endif
  2551  001342  0009               	tblrd		*+
  2552  001344  CFF5 F018          	movff	tablat,___ftmul@f2
  2553  001348  0009               	tblrd		*+
  2554  00134A  CFF5 F019          	movff	tablat,___ftmul@f2+1
  2555  00134E  000A               	tblrd		*-
  2556  001350  CFF5 F01A          	movff	tablat,___ftmul@f2+2
  2557  001354  EC98  F00F         	call	___ftmul	;wreg free
  2558  001358  D7A7               	goto	L3
  2559  00135A                     l2137:
  2560                           
  2561                           ;doprnt.c: 434: return _npowers_[scl];
  2562  00135A  502A               	movf	scale@scl,w,c
  2563  00135C  0D03               	mullw	3
  2564  00135E  0E50               	movlw	low __npowers_
  2565  001360  24F3               	addwf	prodl,w,c
  2566  001362  6EF6               	movwf	tblptrl,c
  2567  001364  0E08               	movlw	high __npowers_
  2568  001366  20F4               	addwfc	prodh,w,c
  2569  001368  6EF7               	movwf	tblptrh,c
  2570  00136A                     	if	0	;There are less than 3 active tblptr bytes
  2571  00136A                     	endif
  2572  00136A  0009               	tblrd		*+
  2573  00136C  CFF5 F024          	movff	tablat,?_scale
  2574  001370  0009               	tblrd		*+
  2575  001372  CFF5 F025          	movff	tablat,?_scale+1
  2576  001376  000A               	tblrd		*-
  2577  001378  CFF5 F026          	movff	tablat,?_scale+2
  2578  00137C  0012               	return	
  2579  00137E                     l2141:
  2580                           
  2581                           ;doprnt.c: 435: }
  2582                           ;doprnt.c: 436: if(scl>=110)
  2583  00137E  502A               	movf	scale@scl,w,c
  2584  001380  0A80               	xorlw	128
  2585  001382  0F12               	addlw	-238
  2586  001384  A0D8               	btfss	status,0,c
  2587  001386  D091               	goto	l2149
  2588                           
  2589                           ;doprnt.c: 437: return _powers_[scl/100+18] * _powers_[(scl%100)/10+9] * _powers_[scl%10
      +                          ];
  2590  001388  0E00               	movlw	0
  2591  00138A  6E12               	movwf	___wmul@multiplicand+1,c
  2592  00138C  0E03               	movlw	3
  2593  00138E  6E11               	movwf	___wmul@multiplicand,c
  2594  001390  0E00               	movlw	0
  2595  001392  6E0A               	movwf	___awdiv@divisor+1,c
  2596  001394  0E0A               	movlw	10
  2597  001396  6E09               	movwf	___awdiv@divisor,c
  2598  001398  0E00               	movlw	0
  2599  00139A  6E04               	movwf	___awmod@divisor+1,c
  2600  00139C  0E64               	movlw	100
  2601  00139E  6E03               	movwf	___awmod@divisor,c
  2602  0013A0  502A               	movf	scale@scl,w,c
  2603  0013A2  6E01               	movwf	___awmod@dividend,c
  2604  0013A4  6A02               	clrf	___awmod@dividend+1,c
  2605  0013A6  BE01               	btfsc	___awmod@dividend,7,c
  2606  0013A8  0602               	decf	___awmod@dividend+1,f,c
  2607  0013AA  ECAE  F011         	call	___awmod	;wreg free
  2608  0013AE  C001  F007         	movff	?___awmod,___awdiv@dividend
  2609  0013B2  C002  F008         	movff	?___awmod+1,___awdiv@dividend+1
  2610  0013B6  EC2B  F011         	call	___awdiv	;wreg free
  2611  0013BA  0E09               	movlw	9
  2612  0013BC  2407               	addwf	?___awdiv,w,c
  2613  0013BE  6E0F               	movwf	___wmul@multiplier,c
  2614  0013C0  0E00               	movlw	0
  2615  0013C2  2008               	addwfc	?___awdiv+1,w,c
  2616  0013C4  6E10               	movwf	___wmul@multiplier+1,c
  2617  0013C6  ECF7  F012         	call	___wmul	;wreg free
  2618  0013CA  0E29               	movlw	low __powers_
  2619  0013CC  240F               	addwf	?___wmul,w,c
  2620  0013CE  6EF6               	movwf	tblptrl,c
  2621  0013D0  0E08               	movlw	high __powers_
  2622  0013D2  2010               	addwfc	?___wmul+1,w,c
  2623  0013D4  6EF7               	movwf	tblptrh,c
  2624  0013D6                     	if	0	;There are less than 3 active tblptr bytes
  2625  0013D6                     	endif
  2626  0013D6  0009               	tblrd		*+
  2627  0013D8  CFF5 F018          	movff	tablat,___ftmul@f2
  2628  0013DC  0009               	tblrd		*+
  2629  0013DE  CFF5 F019          	movff	tablat,___ftmul@f2+1
  2630  0013E2  000A               	tblrd		*-
  2631  0013E4  CFF5 F01A          	movff	tablat,___ftmul@f2+2
  2632  0013E8  0E00               	movlw	0
  2633  0013EA  6E0A               	movwf	___awdiv@divisor+1,c
  2634  0013EC  0E64               	movlw	100
  2635  0013EE  6E09               	movwf	___awdiv@divisor,c
  2636  0013F0  502A               	movf	scale@scl,w,c
  2637  0013F2  6E07               	movwf	___awdiv@dividend,c
  2638  0013F4  6A08               	clrf	___awdiv@dividend+1,c
  2639  0013F6  BE07               	btfsc	___awdiv@dividend,7,c
  2640  0013F8  0608               	decf	___awdiv@dividend+1,f,c
  2641  0013FA  EC2B  F011         	call	___awdiv	;wreg free
  2642  0013FE  0E12               	movlw	18
  2643  001400  2407               	addwf	?___awdiv,w,c
  2644  001402  6E0F               	movwf	___wmul@multiplier,c
  2645  001404  0E00               	movlw	0
  2646  001406  2008               	addwfc	?___awdiv+1,w,c
  2647  001408  6E10               	movwf	___wmul@multiplier+1,c
  2648  00140A  0E00               	movlw	0
  2649  00140C  6E12               	movwf	___wmul@multiplicand+1,c
  2650  00140E  0E03               	movlw	3
  2651  001410  6E11               	movwf	___wmul@multiplicand,c
  2652  001412  ECF7  F012         	call	___wmul	;wreg free
  2653  001416  0E29               	movlw	low __powers_
  2654  001418  240F               	addwf	?___wmul,w,c
  2655  00141A  6EF6               	movwf	tblptrl,c
  2656  00141C  0E08               	movlw	high __powers_
  2657  00141E  2010               	addwfc	?___wmul+1,w,c
  2658  001420  6EF7               	movwf	tblptrh,c
  2659  001422                     	if	0	;There are less than 3 active tblptr bytes
  2660  001422                     	endif
  2661  001422  0009               	tblrd		*+
  2662  001424  CFF5 F015          	movff	tablat,___ftmul@f1
  2663  001428  0009               	tblrd		*+
  2664  00142A  CFF5 F016          	movff	tablat,___ftmul@f1+1
  2665  00142E  000A               	tblrd		*-
  2666  001430  CFF5 F017          	movff	tablat,___ftmul@f1+2
  2667  001434  EC98  F00F         	call	___ftmul	;wreg free
  2668  001438  C015  F027         	movff	?___ftmul,_scale$870
  2669  00143C  C016  F028         	movff	?___ftmul+1,_scale$870+1
  2670  001440  C017  F029         	movff	?___ftmul+2,_scale$870+2
  2671                           
  2672                           ;doprnt.c: 437: return _powers_[scl/100+18] * _powers_[(scl%100)/10+9] * _powers_[scl%10
      +                          ];
  2673  001444  C027  F015         	movff	_scale$870,___ftmul@f1
  2674  001448  C028  F016         	movff	_scale$870+1,___ftmul@f1+1
  2675  00144C  C029  F017         	movff	_scale$870+2,___ftmul@f1+2
  2676  001450  0E00               	movlw	0
  2677  001452  6E12               	movwf	___wmul@multiplicand+1,c
  2678  001454  0E03               	movlw	3
  2679  001456  6E11               	movwf	___wmul@multiplicand,c
  2680  001458  0E00               	movlw	0
  2681  00145A  6E04               	movwf	___awmod@divisor+1,c
  2682  00145C  0E0A               	movlw	10
  2683  00145E  6E03               	movwf	___awmod@divisor,c
  2684  001460  502A               	movf	scale@scl,w,c
  2685  001462  6E01               	movwf	___awmod@dividend,c
  2686  001464  6A02               	clrf	___awmod@dividend+1,c
  2687  001466  BE01               	btfsc	___awmod@dividend,7,c
  2688  001468  0602               	decf	___awmod@dividend+1,f,c
  2689  00146A  ECAE  F011         	call	___awmod	;wreg free
  2690  00146E  C001  F00F         	movff	?___awmod,___wmul@multiplier
  2691  001472  C002  F010         	movff	?___awmod+1,___wmul@multiplier+1
  2692  001476  ECF7  F012         	call	___wmul	;wreg free
  2693  00147A  0E29               	movlw	low __powers_
  2694  00147C  240F               	addwf	?___wmul,w,c
  2695  00147E  6EF6               	movwf	tblptrl,c
  2696  001480  0E08               	movlw	high __powers_
  2697  001482  2010               	addwfc	?___wmul+1,w,c
  2698  001484  6EF7               	movwf	tblptrh,c
  2699  001486                     	if	0	;There are less than 3 active tblptr bytes
  2700  001486                     	endif
  2701  001486  0009               	tblrd		*+
  2702  001488  CFF5 F018          	movff	tablat,___ftmul@f2
  2703  00148C  0009               	tblrd		*+
  2704  00148E  CFF5 F019          	movff	tablat,___ftmul@f2+1
  2705  001492  000A               	tblrd		*-
  2706  001494  CFF5 F01A          	movff	tablat,___ftmul@f2+2
  2707  001498  EC98  F00F         	call	___ftmul	;wreg free
  2708  00149C  C015  F024         	movff	?___ftmul,?_scale
  2709  0014A0  C016  F025         	movff	?___ftmul+1,?_scale+1
  2710  0014A4  C017  F026         	movff	?___ftmul+2,?_scale+2
  2711  0014A8  0012               	return	
  2712  0014AA                     l2149:
  2713                           
  2714                           ;doprnt.c: 438: else if(scl > 10)
  2715  0014AA  502A               	movf	scale@scl,w,c
  2716  0014AC  0A80               	xorlw	128
  2717  0014AE  0F75               	addlw	-139
  2718  0014B0  A0D8               	btfss	status,0,c
  2719  0014B2  D04D               	goto	l2155
  2720                           
  2721                           ;doprnt.c: 439: return _powers_[scl/10+9] * _powers_[scl%10];
  2722  0014B4  0E00               	movlw	0
  2723  0014B6  6E0A               	movwf	___awdiv@divisor+1,c
  2724  0014B8  0E0A               	movlw	10
  2725  0014BA  6E09               	movwf	___awdiv@divisor,c
  2726  0014BC  502A               	movf	scale@scl,w,c
  2727  0014BE  6E07               	movwf	___awdiv@dividend,c
  2728  0014C0  6A08               	clrf	___awdiv@dividend+1,c
  2729  0014C2  BE07               	btfsc	___awdiv@dividend,7,c
  2730  0014C4  0608               	decf	___awdiv@dividend+1,f,c
  2731  0014C6  EC2B  F011         	call	___awdiv	;wreg free
  2732  0014CA  0E09               	movlw	9
  2733  0014CC  2407               	addwf	?___awdiv,w,c
  2734  0014CE  6E0F               	movwf	___wmul@multiplier,c
  2735  0014D0  0E00               	movlw	0
  2736  0014D2  2008               	addwfc	?___awdiv+1,w,c
  2737  0014D4  6E10               	movwf	___wmul@multiplier+1,c
  2738  0014D6  0E00               	movlw	0
  2739  0014D8  6E12               	movwf	___wmul@multiplicand+1,c
  2740  0014DA  0E03               	movlw	3
  2741  0014DC  6E11               	movwf	___wmul@multiplicand,c
  2742  0014DE  ECF7  F012         	call	___wmul	;wreg free
  2743  0014E2  0E29               	movlw	low __powers_
  2744  0014E4  240F               	addwf	?___wmul,w,c
  2745  0014E6  6EF6               	movwf	tblptrl,c
  2746  0014E8  0E08               	movlw	high __powers_
  2747  0014EA  2010               	addwfc	?___wmul+1,w,c
  2748  0014EC  6EF7               	movwf	tblptrh,c
  2749  0014EE                     	if	0	;There are less than 3 active tblptr bytes
  2750  0014EE                     	endif
  2751  0014EE  0009               	tblrd		*+
  2752  0014F0  CFF5 F015          	movff	tablat,___ftmul@f1
  2753  0014F4  0009               	tblrd		*+
  2754  0014F6  CFF5 F016          	movff	tablat,___ftmul@f1+1
  2755  0014FA  000A               	tblrd		*-
  2756  0014FC  CFF5 F017          	movff	tablat,___ftmul@f1+2
  2757  001500  0E00               	movlw	0
  2758  001502  6E12               	movwf	___wmul@multiplicand+1,c
  2759  001504  0E03               	movlw	3
  2760  001506  6E11               	movwf	___wmul@multiplicand,c
  2761  001508  0E00               	movlw	0
  2762  00150A  6E04               	movwf	___awmod@divisor+1,c
  2763  00150C  0E0A               	movlw	10
  2764  00150E  6E03               	movwf	___awmod@divisor,c
  2765  001510  502A               	movf	scale@scl,w,c
  2766  001512  6E01               	movwf	___awmod@dividend,c
  2767  001514  6A02               	clrf	___awmod@dividend+1,c
  2768  001516  BE01               	btfsc	___awmod@dividend,7,c
  2769  001518  0602               	decf	___awmod@dividend+1,f,c
  2770  00151A  ECAE  F011         	call	___awmod	;wreg free
  2771  00151E  C001  F00F         	movff	?___awmod,___wmul@multiplier
  2772  001522  C002  F010         	movff	?___awmod+1,___wmul@multiplier+1
  2773  001526  ECF7  F012         	call	___wmul	;wreg free
  2774  00152A  0E29               	movlw	low __powers_
  2775  00152C  240F               	addwf	?___wmul,w,c
  2776  00152E  6EF6               	movwf	tblptrl,c
  2777  001530  0E08               	movlw	high __powers_
  2778  001532  2010               	addwfc	?___wmul+1,w,c
  2779  001534  6EF7               	movwf	tblptrh,c
  2780  001536                     	if	0	;There are less than 3 active tblptr bytes
  2781  001536                     	endif
  2782  001536  0009               	tblrd		*+
  2783  001538  CFF5 F018          	movff	tablat,___ftmul@f2
  2784  00153C  0009               	tblrd		*+
  2785  00153E  CFF5 F019          	movff	tablat,___ftmul@f2+1
  2786  001542  000A               	tblrd		*-
  2787  001544  CFF5 F01A          	movff	tablat,___ftmul@f2+2
  2788  001548  EC98  F00F         	call	___ftmul	;wreg free
  2789  00154C  D7A7               	goto	L4
  2790  00154E                     l2155:
  2791                           
  2792                           ;doprnt.c: 440: return _powers_[scl];
  2793  00154E  502A               	movf	scale@scl,w,c
  2794  001550  0D03               	mullw	3
  2795  001552  0E29               	movlw	low __powers_
  2796  001554  24F3               	addwf	prodl,w,c
  2797  001556  6EF6               	movwf	tblptrl,c
  2798  001558  0E08               	movlw	high __powers_
  2799  00155A  20F4               	addwfc	prodh,w,c
  2800  00155C  6EF7               	movwf	tblptrh,c
  2801  00155E                     	if	0	;There are less than 3 active tblptr bytes
  2802  00155E                     	endif
  2803  00155E  0009               	tblrd		*+
  2804  001560  CFF5 F024          	movff	tablat,?_scale
  2805  001564  0009               	tblrd		*+
  2806  001566  CFF5 F025          	movff	tablat,?_scale+1
  2807  00156A  000A               	tblrd		*-
  2808  00156C  CFF5 F026          	movff	tablat,?_scale+2
  2809  001570  0012               	return	
  2810  001572                     __end_of_scale:
  2811                           	opt stack 0
  2812                           tblptru	equ	0xFF8
  2813                           tblptrh	equ	0xFF7
  2814                           tblptrl	equ	0xFF6
  2815                           tablat	equ	0xFF5
  2816                           prodh	equ	0xFF4
  2817                           prodl	equ	0xFF3
  2818                           postinc0	equ	0xFEE
  2819                           wreg	equ	0xFE8
  2820                           postdec1	equ	0xFE5
  2821                           fsr1l	equ	0xFE1
  2822                           indf2	equ	0xFDF
  2823                           postinc2	equ	0xFDE
  2824                           postdec2	equ	0xFDD
  2825                           fsr2h	equ	0xFDA
  2826                           fsr2l	equ	0xFD9
  2827                           status	equ	0xFD8
  2828                           
  2829 ;; *************** function _isdigit *****************
  2830 ;; Defined at:
  2831 ;;		line 8 in file "C:\Program Files (x86)\Microchip\xc8\v1.42\sources\common\isdigit.c"
  2832 ;; Parameters:    Size  Location     Type
  2833 ;;  c               1    wreg     unsigned char 
  2834 ;; Auto vars:     Size  Location     Type
  2835 ;;  c               1    2[COMRAM] unsigned char 
  2836 ;; Return value:  Size  Location     Type
  2837 ;;		None               void
  2838 ;; Registers used:
  2839 ;;		wreg, status,2, status,0
  2840 ;; Tracked objects:
  2841 ;;		On entry : 0/0
  2842 ;;		On exit  : 0/0
  2843 ;;		Unchanged: 0/0
  2844 ;; Data sizes:     COMRAM   BANK0   BANK1   BANK2   BANK3   BANK4   BANK5   BANK6   BANK7
  2845 ;;      Params:         0       0       0       0       0       0       0       0       0
  2846 ;;      Locals:         2       0       0       0       0       0       0       0       0
  2847 ;;      Temps:          1       0       0       0       0       0       0       0       0
  2848 ;;      Totals:         3       0       0       0       0       0       0       0       0
  2849 ;;Total ram usage:        3 bytes
  2850 ;; Hardware stack levels used:    1
  2851 ;; This function calls:
  2852 ;;		Nothing
  2853 ;; This function is called by:
  2854 ;;		_sprintf
  2855 ;; This function uses a non-reentrant model
  2856 ;;
  2857                           
  2858                           	psect	text3
  2859  002638                     __ptext3:
  2860                           	opt stack 0
  2861  002638                     _isdigit:
  2862                           	opt stack 29
  2863                           
  2864                           ;incstack = 0
  2865                           ;isdigit@c stored from wreg
  2866  002638  6E03               	movwf	isdigit@c,c
  2867  00263A  0E00               	movlw	0
  2868  00263C  6E02               	movwf	_isdigit$534,c
  2869  00263E  0E3A               	movlw	58
  2870  002640  6003               	cpfslt	isdigit@c,c
  2871  002642  D005               	goto	l2167
  2872  002644  0E2F               	movlw	47
  2873  002646  6403               	cpfsgt	isdigit@c,c
  2874  002648  D002               	goto	l2167
  2875  00264A  0E01               	movlw	1
  2876  00264C  6E02               	movwf	_isdigit$534,c
  2877  00264E                     l2167:
  2878  00264E  C002  F001         	movff	_isdigit$534,??_isdigit
  2879  002652  3001               	rrcf	??_isdigit,w,c
  2880  002654  0012               	return	
  2881  002656                     __end_of_isdigit:
  2882                           	opt stack 0
  2883                           tblptru	equ	0xFF8
  2884                           tblptrh	equ	0xFF7
  2885                           tblptrl	equ	0xFF6
  2886                           tablat	equ	0xFF5
  2887                           prodh	equ	0xFF4
  2888                           prodl	equ	0xFF3
  2889                           postinc0	equ	0xFEE
  2890                           wreg	equ	0xFE8
  2891                           postdec1	equ	0xFE5
  2892                           fsr1l	equ	0xFE1
  2893                           indf2	equ	0xFDF
  2894                           postinc2	equ	0xFDE
  2895                           postdec2	equ	0xFDD
  2896                           fsr2h	equ	0xFDA
  2897                           fsr2l	equ	0xFD9
  2898                           status	equ	0xFD8
  2899                           
  2900 ;; *************** function _fround *****************
  2901 ;; Defined at:
  2902 ;;		line 409 in file "C:\Program Files (x86)\Microchip\xc8\v1.42\sources\common\doprnt.c"
  2903 ;; Parameters:    Size  Location     Type
  2904 ;;  prec            1    wreg     unsigned char 
  2905 ;; Auto vars:     Size  Location     Type
  2906 ;;  prec            1   44[COMRAM] unsigned char 
  2907 ;; Return value:  Size  Location     Type
  2908 ;;                  3   35[COMRAM] unsigned char 
  2909 ;; Registers used:
  2910 ;;		wreg, status,2, status,0, tblptrl, tblptrh, tblptru, prodl, prodh, cstack
  2911 ;; Tracked objects:
  2912 ;;		On entry : 0/0
  2913 ;;		On exit  : 0/0
  2914 ;;		Unchanged: 0/0
  2915 ;; Data sizes:     COMRAM   BANK0   BANK1   BANK2   BANK3   BANK4   BANK5   BANK6   BANK7
  2916 ;;      Params:         3       0       0       0       0       0       0       0       0
  2917 ;;      Locals:         7       0       0       0       0       0       0       0       0
  2918 ;;      Temps:          0       0       0       0       0       0       0       0       0
  2919 ;;      Totals:        10       0       0       0       0       0       0       0       0
  2920 ;;Total ram usage:       10 bytes
  2921 ;; Hardware stack levels used:    1
  2922 ;; Hardware stack levels required when called:    2
  2923 ;; This function calls:
  2924 ;;		___awdiv
  2925 ;;		___awmod
  2926 ;;		___ftmul
  2927 ;;		___wmul
  2928 ;; This function is called by:
  2929 ;;		_sprintf
  2930 ;; This function uses a non-reentrant model
  2931 ;;
  2932                           
  2933                           	psect	text4
  2934  001572                     __ptext4:
  2935                           	opt stack 0
  2936  001572                     _fround:
  2937                           	opt stack 27
  2938                           
  2939                           ;incstack = 0
  2940                           ;fround@prec stored from wreg
  2941  001572  6E2D               	movwf	fround@prec,c
  2942                           
  2943                           ;doprnt.c: 413: if(prec>=110)
  2944  001574  0E6D               	movlw	109
  2945  001576  642D               	cpfsgt	fround@prec,c
  2946  001578  D09F               	goto	l2109
  2947                           
  2948                           ;doprnt.c: 414: return 0.5 * _npowers_[prec/100+18] * _npowers_[(prec%100)/10+9] * _npow
      +                          ers_[prec%10];
  2949  00157A  0E00               	movlw	0
  2950  00157C  6E12               	movwf	___wmul@multiplicand+1,c
  2951  00157E  0E03               	movlw	3
  2952  001580  6E11               	movwf	___wmul@multiplicand,c
  2953  001582  0E00               	movlw	0
  2954  001584  6E0A               	movwf	___awdiv@divisor+1,c
  2955  001586  0E0A               	movlw	10
  2956  001588  6E09               	movwf	___awdiv@divisor,c
  2957  00158A  0E00               	movlw	0
  2958  00158C  6E04               	movwf	___awmod@divisor+1,c
  2959  00158E  0E64               	movlw	100
  2960  001590  6E03               	movwf	___awmod@divisor,c
  2961  001592  C02D  F001         	movff	fround@prec,___awmod@dividend
  2962  001596  6A02               	clrf	___awmod@dividend+1,c
  2963  001598  ECAE  F011         	call	___awmod	;wreg free
  2964  00159C  C001  F007         	movff	?___awmod,___awdiv@dividend
  2965  0015A0  C002  F008         	movff	?___awmod+1,___awdiv@dividend+1
  2966  0015A4  EC2B  F011         	call	___awdiv	;wreg free
  2967  0015A8  0E09               	movlw	9
  2968  0015AA  2407               	addwf	?___awdiv,w,c
  2969  0015AC  6E0F               	movwf	___wmul@multiplier,c
  2970  0015AE  0E00               	movlw	0
  2971  0015B0  2008               	addwfc	?___awdiv+1,w,c
  2972  0015B2  6E10               	movwf	___wmul@multiplier+1,c
  2973  0015B4  ECF7  F012         	call	___wmul	;wreg free
  2974  0015B8  0E50               	movlw	low __npowers_
  2975  0015BA  240F               	addwf	?___wmul,w,c
  2976  0015BC  6EF6               	movwf	tblptrl,c
  2977  0015BE  0E08               	movlw	high __npowers_
  2978  0015C0  2010               	addwfc	?___wmul+1,w,c
  2979  0015C2  6EF7               	movwf	tblptrh,c
  2980  0015C4                     	if	0	;There are less than 3 active tblptr bytes
  2981  0015C4                     	endif
  2982  0015C4  0009               	tblrd		*+
  2983  0015C6  CFF5 F018          	movff	tablat,___ftmul@f2
  2984  0015CA  0009               	tblrd		*+
  2985  0015CC  CFF5 F019          	movff	tablat,___ftmul@f2+1
  2986  0015D0  000A               	tblrd		*-
  2987  0015D2  CFF5 F01A          	movff	tablat,___ftmul@f2+2
  2988  0015D6  0E00               	movlw	0
  2989  0015D8  6E0A               	movwf	___awdiv@divisor+1,c
  2990  0015DA  0E64               	movlw	100
  2991  0015DC  6E09               	movwf	___awdiv@divisor,c
  2992  0015DE  C02D  F007         	movff	fround@prec,___awdiv@dividend
  2993  0015E2  6A08               	clrf	___awdiv@dividend+1,c
  2994  0015E4  EC2B  F011         	call	___awdiv	;wreg free
  2995  0015E8  0E12               	movlw	18
  2996  0015EA  2407               	addwf	?___awdiv,w,c
  2997  0015EC  6E0F               	movwf	___wmul@multiplier,c
  2998  0015EE  0E00               	movlw	0
  2999  0015F0  2008               	addwfc	?___awdiv+1,w,c
  3000  0015F2  6E10               	movwf	___wmul@multiplier+1,c
  3001  0015F4  0E00               	movlw	0
  3002  0015F6  6E12               	movwf	___wmul@multiplicand+1,c
  3003  0015F8  0E03               	movlw	3
  3004  0015FA  6E11               	movwf	___wmul@multiplicand,c
  3005  0015FC  ECF7  F012         	call	___wmul	;wreg free
  3006  001600  0E50               	movlw	low __npowers_
  3007  001602  240F               	addwf	?___wmul,w,c
  3008  001604  6EF6               	movwf	tblptrl,c
  3009  001606  0E08               	movlw	high __npowers_
  3010  001608  2010               	addwfc	?___wmul+1,w,c
  3011  00160A  6EF7               	movwf	tblptrh,c
  3012  00160C                     	if	0	;There are less than 3 active tblptr bytes
  3013  00160C                     	endif
  3014  00160C  0009               	tblrd		*+
  3015  00160E  CFF5 F015          	movff	tablat,___ftmul@f1
  3016  001612  0009               	tblrd		*+
  3017  001614  CFF5 F016          	movff	tablat,___ftmul@f1+1
  3018  001618  000A               	tblrd		*-
  3019  00161A  CFF5 F017          	movff	tablat,___ftmul@f1+2
  3020  00161E  EC98  F00F         	call	___ftmul	;wreg free
  3021  001622  C015  F02A         	movff	?___ftmul,_fround$868
  3022  001626  C016  F02B         	movff	?___ftmul+1,_fround$868+1
  3023  00162A  C017  F02C         	movff	?___ftmul+2,_fround$868+2
  3024                           
  3025                           ;doprnt.c: 414: return 0.5 * _npowers_[prec/100+18] * _npowers_[(prec%100)/10+9] * _npow
      +                          ers_[prec%10];
  3026  00162E  0E00               	movlw	0
  3027  001630  6E12               	movwf	___wmul@multiplicand+1,c
  3028  001632  0E03               	movlw	3
  3029  001634  6E11               	movwf	___wmul@multiplicand,c
  3030  001636  0E00               	movlw	0
  3031  001638  6E04               	movwf	___awmod@divisor+1,c
  3032  00163A  0E0A               	movlw	10
  3033  00163C  6E03               	movwf	___awmod@divisor,c
  3034  00163E  C02D  F001         	movff	fround@prec,___awmod@dividend
  3035  001642  6A02               	clrf	___awmod@dividend+1,c
  3036  001644  ECAE  F011         	call	___awmod	;wreg free
  3037  001648  C001  F00F         	movff	?___awmod,___wmul@multiplier
  3038  00164C  C002  F010         	movff	?___awmod+1,___wmul@multiplier+1
  3039  001650  ECF7  F012         	call	___wmul	;wreg free
  3040  001654  0E50               	movlw	low __npowers_
  3041  001656  240F               	addwf	?___wmul,w,c
  3042  001658  6EF6               	movwf	tblptrl,c
  3043  00165A  0E08               	movlw	high __npowers_
  3044  00165C  2010               	addwfc	?___wmul+1,w,c
  3045  00165E  6EF7               	movwf	tblptrh,c
  3046  001660                     	if	0	;There are less than 3 active tblptr bytes
  3047  001660                     	endif
  3048  001660  0009               	tblrd		*+
  3049  001662  CFF5 F018          	movff	tablat,___ftmul@f2
  3050  001666  0009               	tblrd		*+
  3051  001668  CFF5 F019          	movff	tablat,___ftmul@f2+1
  3052  00166C  000A               	tblrd		*-
  3053  00166E  CFF5 F01A          	movff	tablat,___ftmul@f2+2
  3054  001672  C02A  F015         	movff	_fround$868,___ftmul@f1
  3055  001676  C02B  F016         	movff	_fround$868+1,___ftmul@f1+1
  3056  00167A  C02C  F017         	movff	_fround$868+2,___ftmul@f1+2
  3057  00167E  EC98  F00F         	call	___ftmul	;wreg free
  3058  001682  C015  F027         	movff	?___ftmul,_fround$869
  3059  001686  C016  F028         	movff	?___ftmul+1,_fround$869+1
  3060  00168A  C017  F029         	movff	?___ftmul+2,_fround$869+2
  3061                           
  3062                           ;doprnt.c: 414: return 0.5 * _npowers_[prec/100+18] * _npowers_[(prec%100)/10+9] * _npow
      +                          ers_[prec%10];
  3063  00168E  C027  F015         	movff	_fround$869,___ftmul@f1
  3064  001692  C028  F016         	movff	_fround$869+1,___ftmul@f1+1
  3065  001696  C029  F017         	movff	_fround$869+2,___ftmul@f1+2
  3066  00169A  0E00               	movlw	0
  3067  00169C  6E18               	movwf	___ftmul@f2,c
  3068  00169E  0E00               	movlw	0
  3069  0016A0  6E19               	movwf	___ftmul@f2+1,c
  3070  0016A2  0E3F               	movlw	63
  3071  0016A4  6E1A               	movwf	___ftmul@f2+2,c
  3072  0016A6  EC98  F00F         	call	___ftmul	;wreg free
  3073  0016AA  C015  F024         	movff	?___ftmul,?_fround
  3074  0016AE  C016  F025         	movff	?___ftmul+1,?_fround+1
  3075  0016B2  C017  F026         	movff	?___ftmul+2,?_fround+2
  3076  0016B6  0012               	return	
  3077  0016B8                     l2109:
  3078                           
  3079                           ;doprnt.c: 415: else if(prec > 10)
  3080  0016B8  0E0A               	movlw	10
  3081  0016BA  642D               	cpfsgt	fround@prec,c
  3082  0016BC  D05D               	goto	l2117
  3083                           
  3084                           ;doprnt.c: 416: return 0.5 * _npowers_[prec/10+9] * _npowers_[prec%10];
  3085  0016BE  0E00               	movlw	0
  3086  0016C0  6E12               	movwf	___wmul@multiplicand+1,c
  3087  0016C2  0E03               	movlw	3
  3088  0016C4  6E11               	movwf	___wmul@multiplicand,c
  3089  0016C6  0E00               	movlw	0
  3090  0016C8  6E04               	movwf	___awmod@divisor+1,c
  3091  0016CA  0E0A               	movlw	10
  3092  0016CC  6E03               	movwf	___awmod@divisor,c
  3093  0016CE  C02D  F001         	movff	fround@prec,___awmod@dividend
  3094  0016D2  6A02               	clrf	___awmod@dividend+1,c
  3095  0016D4  ECAE  F011         	call	___awmod	;wreg free
  3096  0016D8  C001  F00F         	movff	?___awmod,___wmul@multiplier
  3097  0016DC  C002  F010         	movff	?___awmod+1,___wmul@multiplier+1
  3098  0016E0  ECF7  F012         	call	___wmul	;wreg free
  3099  0016E4  0E50               	movlw	low __npowers_
  3100  0016E6  240F               	addwf	?___wmul,w,c
  3101  0016E8  6EF6               	movwf	tblptrl,c
  3102  0016EA  0E08               	movlw	high __npowers_
  3103  0016EC  2010               	addwfc	?___wmul+1,w,c
  3104  0016EE  6EF7               	movwf	tblptrh,c
  3105  0016F0                     	if	0	;There are less than 3 active tblptr bytes
  3106  0016F0                     	endif
  3107  0016F0  0009               	tblrd		*+
  3108  0016F2  CFF5 F018          	movff	tablat,___ftmul@f2
  3109  0016F6  0009               	tblrd		*+
  3110  0016F8  CFF5 F019          	movff	tablat,___ftmul@f2+1
  3111  0016FC  000A               	tblrd		*-
  3112  0016FE  CFF5 F01A          	movff	tablat,___ftmul@f2+2
  3113  001702  0E00               	movlw	0
  3114  001704  6E0A               	movwf	___awdiv@divisor+1,c
  3115  001706  0E0A               	movlw	10
  3116  001708  6E09               	movwf	___awdiv@divisor,c
  3117  00170A  C02D  F007         	movff	fround@prec,___awdiv@dividend
  3118  00170E  6A08               	clrf	___awdiv@dividend+1,c
  3119  001710  EC2B  F011         	call	___awdiv	;wreg free
  3120  001714  0E09               	movlw	9
  3121  001716  2407               	addwf	?___awdiv,w,c
  3122  001718  6E0F               	movwf	___wmul@multiplier,c
  3123  00171A  0E00               	movlw	0
  3124  00171C  2008               	addwfc	?___awdiv+1,w,c
  3125  00171E  6E10               	movwf	___wmul@multiplier+1,c
  3126  001720  0E00               	movlw	0
  3127  001722  6E12               	movwf	___wmul@multiplicand+1,c
  3128  001724  0E03               	movlw	3
  3129  001726  6E11               	movwf	___wmul@multiplicand,c
  3130  001728  ECF7  F012         	call	___wmul	;wreg free
  3131  00172C  0E50               	movlw	low __npowers_
  3132  00172E  240F               	addwf	?___wmul,w,c
  3133  001730  6EF6               	movwf	tblptrl,c
  3134  001732  0E08               	movlw	high __npowers_
  3135  001734  2010               	addwfc	?___wmul+1,w,c
  3136  001736  6EF7               	movwf	tblptrh,c
  3137  001738                     	if	0	;There are less than 3 active tblptr bytes
  3138  001738                     	endif
  3139  001738  0009               	tblrd		*+
  3140  00173A  CFF5 F015          	movff	tablat,___ftmul@f1
  3141  00173E  0009               	tblrd		*+
  3142  001740  CFF5 F016          	movff	tablat,___ftmul@f1+1
  3143  001744  000A               	tblrd		*-
  3144  001746  CFF5 F017          	movff	tablat,___ftmul@f1+2
  3145  00174A  EC98  F00F         	call	___ftmul	;wreg free
  3146  00174E  C015  F02A         	movff	?___ftmul,_fround$868
  3147  001752  C016  F02B         	movff	?___ftmul+1,_fround$868+1
  3148  001756  C017  F02C         	movff	?___ftmul+2,_fround$868+2
  3149                           
  3150                           ;doprnt.c: 416: return 0.5 * _npowers_[prec/10+9] * _npowers_[prec%10];
  3151  00175A  C02A  F015         	movff	_fround$868,___ftmul@f1
  3152  00175E  C02B  F016         	movff	_fround$868+1,___ftmul@f1+1
  3153  001762  C02C  F017         	movff	_fround$868+2,___ftmul@f1+2
  3154  001766  0E00               	movlw	0
  3155  001768  6E18               	movwf	___ftmul@f2,c
  3156  00176A  0E00               	movlw	0
  3157  00176C  6E19               	movwf	___ftmul@f2+1,c
  3158  00176E  0E3F               	movlw	63
  3159  001770  6E1A               	movwf	___ftmul@f2+2,c
  3160  001772  EC98  F00F         	call	___ftmul	;wreg free
  3161  001776  D799               	goto	L5
  3162  001778                     l2117:
  3163                           
  3164                           ;doprnt.c: 417: return 0.5 * _npowers_[prec];
  3165  001778  502D               	movf	fround@prec,w,c
  3166  00177A  0D03               	mullw	3
  3167  00177C  0E50               	movlw	low __npowers_
  3168  00177E  24F3               	addwf	prodl,w,c
  3169  001780  6EF6               	movwf	tblptrl,c
  3170  001782  0E08               	movlw	high __npowers_
  3171  001784  20F4               	addwfc	prodh,w,c
  3172  001786  6EF7               	movwf	tblptrh,c
  3173  001788                     	if	0	;There are less than 3 active tblptr bytes
  3174  001788                     	endif
  3175  001788  0009               	tblrd		*+
  3176  00178A  CFF5 F015          	movff	tablat,___ftmul@f1
  3177  00178E  0009               	tblrd		*+
  3178  001790  CFF5 F016          	movff	tablat,___ftmul@f1+1
  3179  001794  000A               	tblrd		*-
  3180  001796  CFF5 F017          	movff	tablat,___ftmul@f1+2
  3181  00179A  0E00               	movlw	0
  3182  00179C  6E18               	movwf	___ftmul@f2,c
  3183  00179E  0E00               	movlw	0
  3184  0017A0  6E19               	movwf	___ftmul@f2+1,c
  3185  0017A2  0E3F               	movlw	63
  3186  0017A4  6E1A               	movwf	___ftmul@f2+2,c
  3187  0017A6  EC98  F00F         	call	___ftmul	;wreg free
  3188  0017AA  C015  F024         	movff	?___ftmul,?_fround
  3189  0017AE  C016  F025         	movff	?___ftmul+1,?_fround+1
  3190  0017B2  C017  F026         	movff	?___ftmul+2,?_fround+2
  3191  0017B6  0012               	return	
  3192  0017B8                     __end_of_fround:
  3193                           	opt stack 0
  3194                           tblptru	equ	0xFF8
  3195                           tblptrh	equ	0xFF7
  3196                           tblptrl	equ	0xFF6
  3197                           tablat	equ	0xFF5
  3198                           prodh	equ	0xFF4
  3199                           prodl	equ	0xFF3
  3200                           postinc0	equ	0xFEE
  3201                           wreg	equ	0xFE8
  3202                           postdec1	equ	0xFE5
  3203                           fsr1l	equ	0xFE1
  3204                           indf2	equ	0xFDF
  3205                           postinc2	equ	0xFDE
  3206                           postdec2	equ	0xFDD
  3207                           fsr2h	equ	0xFDA
  3208                           fsr2l	equ	0xFD9
  3209                           status	equ	0xFD8
  3210                           
  3211 ;; *************** function ___wmul *****************
  3212 ;; Defined at:
  3213 ;;		line 15 in file "C:\Program Files (x86)\Microchip\xc8\v1.42\sources\common\Umul16.c"
  3214 ;; Parameters:    Size  Location     Type
  3215 ;;  multiplier      2   14[COMRAM] unsigned int 
  3216 ;;  multiplicand    2   16[COMRAM] unsigned int 
  3217 ;; Auto vars:     Size  Location     Type
  3218 ;;  product         2   18[COMRAM] unsigned int 
  3219 ;; Return value:  Size  Location     Type
  3220 ;;                  2   14[COMRAM] unsigned int 
  3221 ;; Registers used:
  3222 ;;		wreg, status,2, status,0, prodl, prodh
  3223 ;; Tracked objects:
  3224 ;;		On entry : 0/0
  3225 ;;		On exit  : 0/0
  3226 ;;		Unchanged: 0/0
  3227 ;; Data sizes:     COMRAM   BANK0   BANK1   BANK2   BANK3   BANK4   BANK5   BANK6   BANK7
  3228 ;;      Params:         4       0       0       0       0       0       0       0       0
  3229 ;;      Locals:         2       0       0       0       0       0       0       0       0
  3230 ;;      Temps:          0       0       0       0       0       0       0       0       0
  3231 ;;      Totals:         6       0       0       0       0       0       0       0       0
  3232 ;;Total ram usage:        6 bytes
  3233 ;; Hardware stack levels used:    1
  3234 ;; This function calls:
  3235 ;;		Nothing
  3236 ;; This function is called by:
  3237 ;;		_fround
  3238 ;;		_scale
  3239 ;;		_sprintf
  3240 ;; This function uses a non-reentrant model
  3241 ;;
  3242                           
  3243                           	psect	text5
  3244  0025EE                     __ptext5:
  3245                           	opt stack 0
  3246  0025EE                     ___wmul:
  3247                           	opt stack 28
  3248                           
  3249                           ;incstack = 0
  3250  0025EE  500F               	movf	___wmul@multiplier,w,c
  3251  0025F0  0211               	mulwf	___wmul@multiplicand,c
  3252  0025F2  CFF3 F013          	movff	prodl,___wmul@product
  3253  0025F6  CFF4 F014          	movff	prodh,___wmul@product+1
  3254  0025FA  500F               	movf	___wmul@multiplier,w,c
  3255  0025FC  0212               	mulwf	___wmul@multiplicand+1,c
  3256  0025FE  50F3               	movf	prodl,w,c
  3257  002600  2614               	addwf	___wmul@product+1,f,c
  3258  002602  5010               	movf	___wmul@multiplier+1,w,c
  3259  002604  0211               	mulwf	___wmul@multiplicand,c
  3260  002606  50F3               	movf	prodl,w,c
  3261  002608  2614               	addwf	___wmul@product+1,f,c
  3262  00260A  C013  F00F         	movff	___wmul@product,?___wmul
  3263  00260E  C014  F010         	movff	___wmul@product+1,?___wmul+1
  3264  002612  0012               	return	
  3265  002614                     __end_of___wmul:
  3266                           	opt stack 0
  3267                           tblptru	equ	0xFF8
  3268                           tblptrh	equ	0xFF7
  3269                           tblptrl	equ	0xFF6
  3270                           tablat	equ	0xFF5
  3271                           prodh	equ	0xFF4
  3272                           prodl	equ	0xFF3
  3273                           postinc0	equ	0xFEE
  3274                           wreg	equ	0xFE8
  3275                           postdec1	equ	0xFE5
  3276                           fsr1l	equ	0xFE1
  3277                           indf2	equ	0xFDF
  3278                           postinc2	equ	0xFDE
  3279                           postdec2	equ	0xFDD
  3280                           fsr2h	equ	0xFDA
  3281                           fsr2l	equ	0xFD9
  3282                           status	equ	0xFD8
  3283                           
  3284 ;; *************** function ___ftmul *****************
  3285 ;; Defined at:
  3286 ;;		line 62 in file "C:\Program Files (x86)\Microchip\xc8\v1.42\sources\common\ftmul.c"
  3287 ;; Parameters:    Size  Location     Type
  3288 ;;  f1              3   20[COMRAM] float 
  3289 ;;  f2              3   23[COMRAM] float 
  3290 ;; Auto vars:     Size  Location     Type
  3291 ;;  f3_as_produc    3   30[COMRAM] unsigned um
  3292 ;;  sign            1   34[COMRAM] unsigned char 
  3293 ;;  cntr            1   33[COMRAM] unsigned char 
  3294 ;;  exp             1   29[COMRAM] unsigned char 
  3295 ;; Return value:  Size  Location     Type
  3296 ;;                  3   20[COMRAM] float 
  3297 ;; Registers used:
  3298 ;;		wreg, status,2, status,0, cstack
  3299 ;; Tracked objects:
  3300 ;;		On entry : 0/0
  3301 ;;		On exit  : 0/0
  3302 ;;		Unchanged: 0/0
  3303 ;; Data sizes:     COMRAM   BANK0   BANK1   BANK2   BANK3   BANK4   BANK5   BANK6   BANK7
  3304 ;;      Params:         6       0       0       0       0       0       0       0       0
  3305 ;;      Locals:         6       0       0       0       0       0       0       0       0
  3306 ;;      Temps:          3       0       0       0       0       0       0       0       0
  3307 ;;      Totals:        15       0       0       0       0       0       0       0       0
  3308 ;;Total ram usage:       15 bytes
  3309 ;; Hardware stack levels used:    1
  3310 ;; Hardware stack levels required when called:    1
  3311 ;; This function calls:
  3312 ;;		___ftpack
  3313 ;; This function is called by:
  3314 ;;		_fround
  3315 ;;		_scale
  3316 ;;		_sprintf
  3317 ;; This function uses a non-reentrant model
  3318 ;;
  3319                           
  3320                           	psect	text6
  3321  001F30                     __ptext6:
  3322                           	opt stack 0
  3323  001F30                     ___ftmul:
  3324                           	opt stack 27
  3325                           
  3326                           ;incstack = 0
  3327  001F30  C017  F01B         	movff	___ftmul@f1+2,??___ftmul
  3328  001F34  6A1C               	clrf	(??___ftmul+1)& (0+255),c
  3329  001F36  6A1D               	clrf	(??___ftmul+2)& (0+255),c
  3330  001F38  3416               	rlcf	___ftmul@f1+1,w,c
  3331  001F3A  361B               	rlcf	??___ftmul& (0+255),f,c
  3332  001F3C  E301               	bnc	u1701
  3333  001F3E  801C               	bsf	(??___ftmul+1)& (0+255),0,c
  3334  001F40                     u1701:
  3335  001F40  501B               	movf	??___ftmul,w,c
  3336  001F42  6E1E               	movwf	___ftmul@exp,c
  3337  001F44  501E               	movf	___ftmul@exp,w,c
  3338  001F46  A4D8               	btfss	status,2,c
  3339  001F48  D007               	goto	l1931
  3340  001F4A  0E00               	movlw	0
  3341  001F4C  6E15               	movwf	?___ftmul,c
  3342  001F4E  0E00               	movlw	0
  3343  001F50  6E16               	movwf	?___ftmul+1,c
  3344  001F52  0E00               	movlw	0
  3345  001F54  6E17               	movwf	?___ftmul+2,c
  3346  001F56  0012               	return	
  3347  001F58                     l1931:
  3348  001F58  C01A  F01B         	movff	___ftmul@f2+2,??___ftmul
  3349  001F5C  6A1C               	clrf	(??___ftmul+1)& (0+255),c
  3350  001F5E  6A1D               	clrf	(??___ftmul+2)& (0+255),c
  3351  001F60  3419               	rlcf	___ftmul@f2+1,w,c
  3352  001F62  361B               	rlcf	??___ftmul& (0+255),f,c
  3353  001F64  E301               	bnc	u1721
  3354  001F66  801C               	bsf	(??___ftmul+1)& (0+255),0,c
  3355  001F68                     u1721:
  3356  001F68  501B               	movf	??___ftmul,w,c
  3357  001F6A  6E23               	movwf	___ftmul@sign,c
  3358  001F6C  5023               	movf	___ftmul@sign,w,c
  3359  001F6E  A4D8               	btfss	status,2,c
  3360  001F70  D007               	goto	l1937
  3361  001F72  0E00               	movlw	0
  3362  001F74  6E15               	movwf	?___ftmul,c
  3363  001F76  0E00               	movlw	0
  3364  001F78  6E16               	movwf	?___ftmul+1,c
  3365  001F7A  0E00               	movlw	0
  3366  001F7C  6E17               	movwf	?___ftmul+2,c
  3367  001F7E  0012               	return	
  3368  001F80                     l1937:
  3369  001F80  5023               	movf	___ftmul@sign,w,c
  3370  001F82  0F7B               	addlw	123
  3371  001F84  261E               	addwf	___ftmul@exp,f,c
  3372  001F86  C017  F023         	movff	___ftmul@f1+2,___ftmul@sign
  3373  001F8A  501A               	movf	___ftmul@f2+2,w,c
  3374  001F8C  1A23               	xorwf	___ftmul@sign,f,c
  3375  001F8E  0E80               	movlw	128
  3376  001F90  1623               	andwf	___ftmul@sign,f,c
  3377  001F92  8E16               	bsf	___ftmul@f1+1,7,c
  3378  001F94  8E19               	bsf	___ftmul@f2+1,7,c
  3379  001F96  0EFF               	movlw	255
  3380  001F98  1618               	andwf	___ftmul@f2,f,c
  3381  001F9A  0EFF               	movlw	255
  3382  001F9C  1619               	andwf	___ftmul@f2+1,f,c
  3383  001F9E  0E00               	movlw	0
  3384  001FA0  161A               	andwf	___ftmul@f2+2,f,c
  3385  001FA2  0E00               	movlw	0
  3386  001FA4  6E1F               	movwf	___ftmul@f3_as_product,c
  3387  001FA6  0E00               	movlw	0
  3388  001FA8  6E20               	movwf	___ftmul@f3_as_product+1,c
  3389  001FAA  0E00               	movlw	0
  3390  001FAC  6E21               	movwf	___ftmul@f3_as_product+2,c
  3391  001FAE  0E07               	movlw	7
  3392  001FB0  6E22               	movwf	___ftmul@cntr,c
  3393  001FB2                     l1951:
  3394  001FB2  A015               	btfss	___ftmul@f1,0,c
  3395  001FB4  D006               	goto	l1955
  3396  001FB6  5018               	movf	___ftmul@f2,w,c
  3397  001FB8  261F               	addwf	___ftmul@f3_as_product,f,c
  3398  001FBA  5019               	movf	___ftmul@f2+1,w,c
  3399  001FBC  2220               	addwfc	___ftmul@f3_as_product+1,f,c
  3400  001FBE  501A               	movf	___ftmul@f2+2,w,c
  3401  001FC0  2221               	addwfc	___ftmul@f3_as_product+2,f,c
  3402  001FC2                     l1955:
  3403  001FC2  90D8               	bcf	status,0,c
  3404  001FC4  3217               	rrcf	___ftmul@f1+2,f,c
  3405  001FC6  3216               	rrcf	___ftmul@f1+1,f,c
  3406  001FC8  3215               	rrcf	___ftmul@f1,f,c
  3407  001FCA  90D8               	bcf	status,0,c
  3408  001FCC  3618               	rlcf	___ftmul@f2,f,c
  3409  001FCE  3619               	rlcf	___ftmul@f2+1,f,c
  3410  001FD0  361A               	rlcf	___ftmul@f2+2,f,c
  3411  001FD2  2E22               	decfsz	___ftmul@cntr,f,c
  3412  001FD4  D7EE               	goto	l1951
  3413  001FD6  0E09               	movlw	9
  3414  001FD8  6E22               	movwf	___ftmul@cntr,c
  3415  001FDA                     l1961:
  3416  001FDA  A015               	btfss	___ftmul@f1,0,c
  3417  001FDC  D006               	goto	l1965
  3418  001FDE  5018               	movf	___ftmul@f2,w,c
  3419  001FE0  261F               	addwf	___ftmul@f3_as_product,f,c
  3420  001FE2  5019               	movf	___ftmul@f2+1,w,c
  3421  001FE4  2220               	addwfc	___ftmul@f3_as_product+1,f,c
  3422  001FE6  501A               	movf	___ftmul@f2+2,w,c
  3423  001FE8  2221               	addwfc	___ftmul@f3_as_product+2,f,c
  3424  001FEA                     l1965:
  3425  001FEA  90D8               	bcf	status,0,c
  3426  001FEC  3217               	rrcf	___ftmul@f1+2,f,c
  3427  001FEE  3216               	rrcf	___ftmul@f1+1,f,c
  3428  001FF0  3215               	rrcf	___ftmul@f1,f,c
  3429  001FF2  90D8               	bcf	status,0,c
  3430  001FF4  3221               	rrcf	___ftmul@f3_as_product+2,f,c
  3431  001FF6  3220               	rrcf	___ftmul@f3_as_product+1,f,c
  3432  001FF8  321F               	rrcf	___ftmul@f3_as_product,f,c
  3433  001FFA  2E22               	decfsz	___ftmul@cntr,f,c
  3434  001FFC  D7EE               	goto	l1961
  3435  001FFE  C01F  F001         	movff	___ftmul@f3_as_product,___ftpack@arg
  3436  002002  C020  F002         	movff	___ftmul@f3_as_product+1,___ftpack@arg+1
  3437  002006  C021  F003         	movff	___ftmul@f3_as_product+2,___ftpack@arg+2
  3438  00200A  C01E  F004         	movff	___ftmul@exp,___ftpack@exp
  3439  00200E  C023  F005         	movff	___ftmul@sign,___ftpack@sign
  3440  002012  EC8C  F010         	call	___ftpack	;wreg free
  3441  002016  C001  F015         	movff	?___ftpack,?___ftmul
  3442  00201A  C002  F016         	movff	?___ftpack+1,?___ftmul+1
  3443  00201E  C003  F017         	movff	?___ftpack+2,?___ftmul+2
  3444  002022  0012               	return	
  3445  002024                     __end_of___ftmul:
  3446                           	opt stack 0
  3447                           tblptru	equ	0xFF8
  3448                           tblptrh	equ	0xFF7
  3449                           tblptrl	equ	0xFF6
  3450                           tablat	equ	0xFF5
  3451                           prodh	equ	0xFF4
  3452                           prodl	equ	0xFF3
  3453                           postinc0	equ	0xFEE
  3454                           wreg	equ	0xFE8
  3455                           postdec1	equ	0xFE5
  3456                           fsr1l	equ	0xFE1
  3457                           indf2	equ	0xFDF
  3458                           postinc2	equ	0xFDE
  3459                           postdec2	equ	0xFDD
  3460                           fsr2h	equ	0xFDA
  3461                           fsr2l	equ	0xFD9
  3462                           status	equ	0xFD8
  3463                           
  3464 ;; *************** function ___awmod *****************
  3465 ;; Defined at:
  3466 ;;		line 8 in file "C:\Program Files (x86)\Microchip\xc8\v1.42\sources\common\awmod.c"
  3467 ;; Parameters:    Size  Location     Type
  3468 ;;  dividend        2    0[COMRAM] int 
  3469 ;;  divisor         2    2[COMRAM] int 
  3470 ;; Auto vars:     Size  Location     Type
  3471 ;;  sign            1    5[COMRAM] unsigned char 
  3472 ;;  counter         1    4[COMRAM] unsigned char 
  3473 ;; Return value:  Size  Location     Type
  3474 ;;                  2    0[COMRAM] int 
  3475 ;; Registers used:
  3476 ;;		wreg, status,2, status,0
  3477 ;; Tracked objects:
  3478 ;;		On entry : 0/0
  3479 ;;		On exit  : 0/0
  3480 ;;		Unchanged: 0/0
  3481 ;; Data sizes:     COMRAM   BANK0   BANK1   BANK2   BANK3   BANK4   BANK5   BANK6   BANK7
  3482 ;;      Params:         4       0       0       0       0       0       0       0       0
  3483 ;;      Locals:         2       0       0       0       0       0       0       0       0
  3484 ;;      Temps:          0       0       0       0       0       0       0       0       0
  3485 ;;      Totals:         6       0       0       0       0       0       0       0       0
  3486 ;;Total ram usage:        6 bytes
  3487 ;; Hardware stack levels used:    1
  3488 ;; This function calls:
  3489 ;;		Nothing
  3490 ;; This function is called by:
  3491 ;;		_fround
  3492 ;;		_scale
  3493 ;; This function uses a non-reentrant model
  3494 ;;
  3495                           
  3496                           	psect	text7
  3497  00235C                     __ptext7:
  3498                           	opt stack 0
  3499  00235C                     ___awmod:
  3500                           	opt stack 28
  3501                           
  3502                           ;incstack = 0
  3503  00235C  0E00               	movlw	0
  3504  00235E  6E06               	movwf	___awmod@sign,c
  3505  002360  AE02               	btfss	___awmod@dividend+1,7,c
  3506  002362  D006               	goto	l2025
  3507  002364  6C01               	negf	___awmod@dividend,c
  3508  002366  1E02               	comf	___awmod@dividend+1,f,c
  3509  002368  B0D8               	btfsc	status,0,c
  3510  00236A  2A02               	incf	___awmod@dividend+1,f,c
  3511  00236C  0E01               	movlw	1
  3512  00236E  6E06               	movwf	___awmod@sign,c
  3513  002370                     l2025:
  3514  002370  AE04               	btfss	___awmod@divisor+1,7,c
  3515  002372  D004               	goto	l2029
  3516  002374  6C03               	negf	___awmod@divisor,c
  3517  002376  1E04               	comf	___awmod@divisor+1,f,c
  3518  002378  B0D8               	btfsc	status,0,c
  3519  00237A  2A04               	incf	___awmod@divisor+1,f,c
  3520  00237C                     l2029:
  3521  00237C  5003               	movf	___awmod@divisor,w,c
  3522  00237E  1004               	iorwf	___awmod@divisor+1,w,c
  3523  002380  B4D8               	btfsc	status,2,c
  3524  002382  D018               	goto	l2045
  3525  002384  0E01               	movlw	1
  3526  002386  6E05               	movwf	___awmod@counter,c
  3527  002388  D004               	goto	l2035
  3528  00238A                     l2033:
  3529  00238A  90D8               	bcf	status,0,c
  3530  00238C  3603               	rlcf	___awmod@divisor,f,c
  3531  00238E  3604               	rlcf	___awmod@divisor+1,f,c
  3532  002390  2A05               	incf	___awmod@counter,f,c
  3533  002392                     l2035:
  3534  002392  AE04               	btfss	___awmod@divisor+1,7,c
  3535  002394  D7FA               	goto	l2033
  3536  002396                     l2037:
  3537  002396  5003               	movf	___awmod@divisor,w,c
  3538  002398  5C01               	subwf	___awmod@dividend,w,c
  3539  00239A  5004               	movf	___awmod@divisor+1,w,c
  3540  00239C  5802               	subwfb	___awmod@dividend+1,w,c
  3541  00239E  A0D8               	btfss	status,0,c
  3542  0023A0  D004               	goto	l2041
  3543  0023A2  5003               	movf	___awmod@divisor,w,c
  3544  0023A4  5E01               	subwf	___awmod@dividend,f,c
  3545  0023A6  5004               	movf	___awmod@divisor+1,w,c
  3546  0023A8  5A02               	subwfb	___awmod@dividend+1,f,c
  3547  0023AA                     l2041:
  3548  0023AA  90D8               	bcf	status,0,c
  3549  0023AC  3204               	rrcf	___awmod@divisor+1,f,c
  3550  0023AE  3203               	rrcf	___awmod@divisor,f,c
  3551  0023B0  2E05               	decfsz	___awmod@counter,f,c
  3552  0023B2  D7F1               	goto	l2037
  3553  0023B4                     l2045:
  3554  0023B4  5006               	movf	___awmod@sign,w,c
  3555  0023B6  B4D8               	btfsc	status,2,c
  3556  0023B8  D004               	goto	l2049
  3557  0023BA  6C01               	negf	___awmod@dividend,c
  3558  0023BC  1E02               	comf	___awmod@dividend+1,f,c
  3559  0023BE  B0D8               	btfsc	status,0,c
  3560  0023C0  2A02               	incf	___awmod@dividend+1,f,c
  3561  0023C2                     l2049:
  3562  0023C2  C001  F001         	movff	___awmod@dividend,?___awmod
  3563  0023C6  C002  F002         	movff	___awmod@dividend+1,?___awmod+1
  3564  0023CA  0012               	return	
  3565  0023CC                     __end_of___awmod:
  3566                           	opt stack 0
  3567                           tblptru	equ	0xFF8
  3568                           tblptrh	equ	0xFF7
  3569                           tblptrl	equ	0xFF6
  3570                           tablat	equ	0xFF5
  3571                           prodh	equ	0xFF4
  3572                           prodl	equ	0xFF3
  3573                           postinc0	equ	0xFEE
  3574                           wreg	equ	0xFE8
  3575                           postdec1	equ	0xFE5
  3576                           fsr1l	equ	0xFE1
  3577                           indf2	equ	0xFDF
  3578                           postinc2	equ	0xFDE
  3579                           postdec2	equ	0xFDD
  3580                           fsr2h	equ	0xFDA
  3581                           fsr2l	equ	0xFD9
  3582                           status	equ	0xFD8
  3583                           
  3584 ;; *************** function ___awdiv *****************
  3585 ;; Defined at:
  3586 ;;		line 8 in file "C:\Program Files (x86)\Microchip\xc8\v1.42\sources\common\awdiv.c"
  3587 ;; Parameters:    Size  Location     Type
  3588 ;;  dividend        2    6[COMRAM] int 
  3589 ;;  divisor         2    8[COMRAM] int 
  3590 ;; Auto vars:     Size  Location     Type
  3591 ;;  quotient        2   12[COMRAM] int 
  3592 ;;  sign            1   11[COMRAM] unsigned char 
  3593 ;;  counter         1   10[COMRAM] unsigned char 
  3594 ;; Return value:  Size  Location     Type
  3595 ;;                  2    6[COMRAM] int 
  3596 ;; Registers used:
  3597 ;;		wreg, status,2, status,0
  3598 ;; Tracked objects:
  3599 ;;		On entry : 0/0
  3600 ;;		On exit  : 0/0
  3601 ;;		Unchanged: 0/0
  3602 ;; Data sizes:     COMRAM   BANK0   BANK1   BANK2   BANK3   BANK4   BANK5   BANK6   BANK7
  3603 ;;      Params:         4       0       0       0       0       0       0       0       0
  3604 ;;      Locals:         4       0       0       0       0       0       0       0       0
  3605 ;;      Temps:          0       0       0       0       0       0       0       0       0
  3606 ;;      Totals:         8       0       0       0       0       0       0       0       0
  3607 ;;Total ram usage:        8 bytes
  3608 ;; Hardware stack levels used:    1
  3609 ;; This function calls:
  3610 ;;		Nothing
  3611 ;; This function is called by:
  3612 ;;		_fround
  3613 ;;		_scale
  3614 ;;		_sprintf
  3615 ;; This function uses a non-reentrant model
  3616 ;;
  3617                           
  3618                           	psect	text8
  3619  002256                     __ptext8:
  3620                           	opt stack 0
  3621  002256                     ___awdiv:
  3622                           	opt stack 28
  3623                           
  3624                           ;incstack = 0
  3625  002256  0E00               	movlw	0
  3626  002258  6E0C               	movwf	___awdiv@sign,c
  3627  00225A  AE0A               	btfss	___awdiv@divisor+1,7,c
  3628  00225C  D006               	goto	l1981
  3629  00225E  6C09               	negf	___awdiv@divisor,c
  3630  002260  1E0A               	comf	___awdiv@divisor+1,f,c
  3631  002262  B0D8               	btfsc	status,0,c
  3632  002264  2A0A               	incf	___awdiv@divisor+1,f,c
  3633  002266  0E01               	movlw	1
  3634  002268  6E0C               	movwf	___awdiv@sign,c
  3635  00226A                     l1981:
  3636  00226A  AE08               	btfss	___awdiv@dividend+1,7,c
  3637  00226C  D006               	goto	l1987
  3638  00226E  6C07               	negf	___awdiv@dividend,c
  3639  002270  1E08               	comf	___awdiv@dividend+1,f,c
  3640  002272  B0D8               	btfsc	status,0,c
  3641  002274  2A08               	incf	___awdiv@dividend+1,f,c
  3642  002276  0E01               	movlw	1
  3643  002278  1A0C               	xorwf	___awdiv@sign,f,c
  3644  00227A                     l1987:
  3645  00227A  0E00               	movlw	0
  3646  00227C  6E0E               	movwf	___awdiv@quotient+1,c
  3647  00227E  0E00               	movlw	0
  3648  002280  6E0D               	movwf	___awdiv@quotient,c
  3649  002282  5009               	movf	___awdiv@divisor,w,c
  3650  002284  100A               	iorwf	___awdiv@divisor+1,w,c
  3651  002286  B4D8               	btfsc	status,2,c
  3652  002288  D01C               	goto	l2009
  3653  00228A  0E01               	movlw	1
  3654  00228C  6E0B               	movwf	___awdiv@counter,c
  3655  00228E  D004               	goto	l1995
  3656  002290                     l1993:
  3657  002290  90D8               	bcf	status,0,c
  3658  002292  3609               	rlcf	___awdiv@divisor,f,c
  3659  002294  360A               	rlcf	___awdiv@divisor+1,f,c
  3660  002296  2A0B               	incf	___awdiv@counter,f,c
  3661  002298                     l1995:
  3662  002298  AE0A               	btfss	___awdiv@divisor+1,7,c
  3663  00229A  D7FA               	goto	l1993
  3664  00229C                     l1997:
  3665  00229C  90D8               	bcf	status,0,c
  3666  00229E  360D               	rlcf	___awdiv@quotient,f,c
  3667  0022A0  360E               	rlcf	___awdiv@quotient+1,f,c
  3668  0022A2  5009               	movf	___awdiv@divisor,w,c
  3669  0022A4  5C07               	subwf	___awdiv@dividend,w,c
  3670  0022A6  500A               	movf	___awdiv@divisor+1,w,c
  3671  0022A8  5808               	subwfb	___awdiv@dividend+1,w,c
  3672  0022AA  A0D8               	btfss	status,0,c
  3673  0022AC  D005               	goto	l2005
  3674  0022AE  5009               	movf	___awdiv@divisor,w,c
  3675  0022B0  5E07               	subwf	___awdiv@dividend,f,c
  3676  0022B2  500A               	movf	___awdiv@divisor+1,w,c
  3677  0022B4  5A08               	subwfb	___awdiv@dividend+1,f,c
  3678  0022B6  800D               	bsf	___awdiv@quotient,0,c
  3679  0022B8                     l2005:
  3680  0022B8  90D8               	bcf	status,0,c
  3681  0022BA  320A               	rrcf	___awdiv@divisor+1,f,c
  3682  0022BC  3209               	rrcf	___awdiv@divisor,f,c
  3683  0022BE  2E0B               	decfsz	___awdiv@counter,f,c
  3684  0022C0  D7ED               	goto	l1997
  3685  0022C2                     l2009:
  3686  0022C2  500C               	movf	___awdiv@sign,w,c
  3687  0022C4  B4D8               	btfsc	status,2,c
  3688  0022C6  D004               	goto	l2013
  3689  0022C8  6C0D               	negf	___awdiv@quotient,c
  3690  0022CA  1E0E               	comf	___awdiv@quotient+1,f,c
  3691  0022CC  B0D8               	btfsc	status,0,c
  3692  0022CE  2A0E               	incf	___awdiv@quotient+1,f,c
  3693  0022D0                     l2013:
  3694  0022D0  C00D  F007         	movff	___awdiv@quotient,?___awdiv
  3695  0022D4  C00E  F008         	movff	___awdiv@quotient+1,?___awdiv+1
  3696  0022D8  0012               	return	
  3697  0022DA                     __end_of___awdiv:
  3698                           	opt stack 0
  3699                           tblptru	equ	0xFF8
  3700                           tblptrh	equ	0xFF7
  3701                           tblptrl	equ	0xFF6
  3702                           tablat	equ	0xFF5
  3703                           prodh	equ	0xFF4
  3704                           prodl	equ	0xFF3
  3705                           postinc0	equ	0xFEE
  3706                           wreg	equ	0xFE8
  3707                           postdec1	equ	0xFE5
  3708                           fsr1l	equ	0xFE1
  3709                           indf2	equ	0xFDF
  3710                           postinc2	equ	0xFDE
  3711                           postdec2	equ	0xFDD
  3712                           fsr2h	equ	0xFDA
  3713                           fsr2l	equ	0xFD9
  3714                           status	equ	0xFD8
  3715                           
  3716 ;; *************** function __tdiv_to_l_ *****************
  3717 ;; Defined at:
  3718 ;;		line 60 in file "C:\Program Files (x86)\Microchip\xc8\v1.42\sources\common\ftdivl.c"
  3719 ;; Parameters:    Size  Location     Type
  3720 ;;  f1              3    0[COMRAM] float 
  3721 ;;  f2              3    3[COMRAM] float 
  3722 ;; Auto vars:     Size  Location     Type
