:04000000ACEF12F05F
:1008000000010000000A00000064000000E803008E
:100810000010270000A086010040420F008096983B
:100820000000E1F50500CA9A3B00803F002041002E
:10083000C842007A44401C4650C347247449971864
:100840004BBCBE4C6B6E4E03155079AD60F34971D5
:1008500000803FCDCC3DD7233C12833AB7D138C678
:100860002737388635C0D633CC2B32708930E7DB5A
:100870002EE53C1E42A20D613D25642C623D252ED5
:1008800033660000440E0001636F000E0001646FC8
:10089000ACEF08F0250E00017619D8B40AD040C09C
:1008A000D9FF41C0DAFF76C0DFFF404A412AACEFF2
:1008B00008F0000E0001666F000E656F42C0F6FF83
:1008C00043C0F7FF0800F5502E0AD8A432D000012B
:1008D000668D424A432A000E0001726F000E716F4E
:1008E0001DD071C00FF072C010F0000E126E0A0E13
:1008F000116EF7EC12F042C0F6FF43C0F7FF08009C
:10090000F5500F26000E1022D00E0F240001716F3B
:10091000FF0E10200001726F424A432A42C0F6FFC8
:1009200043C0F7FF0800F5501CEC13F0D8A00CD022
:10093000D8D7000E0001726F000E716F000166893A
:1009400003D00001668518D042C0F6FF43C0F7FF10
:10095000424A432A0800F5CF76F000017651000A9A
:10096000D8B4BAEF08F0640AD8B406D0020AD8B4F2
:10097000E8D70F0AD8A4F0D3070E00016615D8B443
:1009800006D3000166A905D0000E0001726F060EA5
:10099000716F63C0D9FF64C0DAFFDECF73F0DECFC2
:1009A00074F0DDCF75F0030E00016327000E6423A1
:1009B000000175AF11D073C001F074C002F075C0B2
:1009C00003F00AEC13F001C073F002C074F003C02E
:1009D00075F0030E00016513000E0001686F000E34
:1009E000676F000173510001741100017511D8B4D3
:1009F0008BD0820E496EFF0E4A6E73C04BF074C0EE
:100A00004CF075C04DF076C04EF0100E05D0D89069
:100A10004E324D324C324B32E82EF9D74B504924EE
:100A20000001676F000E4A200001686F0001670730
:100A3000D8A0680767C00FF068C010F0000E126EF3
:100A4000030E116EF7EC12F00FC067F010C068F0E3
:100A500067C007F068C008F0000E0A6E0A0E096E43
:100A60002BEC11F007C067F008C068F0000168AF18
:100A700004D000016707D8A068070001675100088B
:100A8000C1EC08F024C069F025C06AF026C06BF004
:100A900069C015F06AC016F06BC017F073C018F08B
:100AA00074C019F075C01AF098EC0FF015C069F019
:100AB00016C06AF017C06BF069C001F06AC002F09E
:100AC0006BC003F0000E046E800E056E3F0E066EC6
:100AD000E3EC10F0D8B005D000016707D8A0680794
:100AE00013D069C001F06AC002F06BC003F0000EC1
:100AF000046E200E056E410E066EE3EC10F0D8A0D9
:100B000003D00001674B682B000172BF08D00001C1
:100B100072511DE10D0E0001715DD8B018D073C087
:100B20002EF074C02FF075C030F000017151B9EC97
:100B30000AF024C031F025C032F026C033F0DCECDE
:100B40000BF02EC073F02FC074F030C075F00001B0
:100B500068BF08D00001685126E10A0E0001675DF8
:100B6000D8B021D00001735100017411000175113A
:100B7000D8B45BD073C02BF074C02CF075C02DF0CE
:100B800012EC10F02B502C102D102E10D8A44DD09C
:100B9000000168BF4AD00001685105E1020E000162
:100BA000675DD8A042D069C001F06AC002F06BC096
:100BB00003F0700E046E890E056E400E066EE3ECB7
:100BC00010F0D8B003D00001F70E02D00001F80EEB
:100BD0006727FF0E682300016751C1EC08F024C0AD
:100BE00069F025C06AF026C06BF073C001F074C0D4
:100BF00002F075C003F069C004F06AC005F06BC074
:100C000006F0B2EC0CF001C06DF002C06EF003C053
:100C10006FF004C070F0000E0001736F000E000151
:100C2000746F000E0001756F33D073C02BF074C069
:100C30002CF075C02DF012EC10F02BC06DF02CC014
:100C40006EF02DC06FF02EC070F073C03AF074C01B
:100C50003BF075C03CF06DC009F06EC00AF06FC08B
:100C60000BF070C00CF07EEC12F009C03DF00AC031
:100C70003EF00BC03FF0D7EC12F03AC073F03BC02F
:100C800074F03CC075F0000E0001686F000E676FD5
:100C9000010E0001766F0A0E00017619D8B41ED03D
:100CA00000017651040D010EF324F66E080EF420B7
:100CB000F76E0900F55000016D5D0900F550000167
:100CC0006E590900F55000016F590900F5500001F7
:100CD0007059D8A003D00001762BDDD7030E000198
:100CE0006515496E000E000166154A6E49504A109E
:100CF000D8B453D040C0D9FF41C0DAFF2D0E4BD03D
:100D0000404A412A4AD06DC001F06EC002F06FC067
:100D100003F070C004F000017651040D010EF324BD
:100D2000F66E080EF420F76E0900F5CF05F0090005
:100D3000F5CF06F00900F5CF07F00A00F5CF08F06F
:100D40006DEC11F001C069F002C06AF003C06BF0F5
:100D500004C06CF069C00EF06AC00FF06BC010F0F8
:100D60006CC011F00A0E126E000E136E000E146E9F
:100D7000000E156E1AEC12F00EC069F00FC06AF08A
:100D800010C06BF011C06CF000016951300F40C011
:100D9000D9FF41C0DAFFDF6EB3D70001760700014B
:100DA0007629D8B40DD0AFD740C0D9FF41C0DAFF03
:100DB000300EDF6E404A412A00016707D8A068075D
:100DC000000168BF07D000016851EEE1000167052E
:100DD000D8B0EAD7000172BF0CD00001725105E112
:100DE000090E0001715DD8A004D0080E0001766FD5
:100DF00002D071C076F0000176510001715F000EE3
:100E0000000176BFFF0E0001725B00017651000108
:100E1000D8B408D040C0D9FF41C0DAFF2E0EDF6E33
:100E2000404A412A00017651C1EC08F024C060F02C
:100E300025C061F026C062F073C018F074C019F0CC
:100E400075C01AF060C015F061C016F062C017F0EE
:100E500098EC0FF015C02BF016C02CF017C02DF039
:100E600012EC10F02BC06DF02CC06EF02DC06FF0A6
:100E70002EC070F072D06DC001F06EC002F06FC075
:100E800003F070C004F000017651040D010EF3244C
:100E9000F66E080EF420F76E0900F5CF05F0090094
:100EA000F5CF06F00900F5CF07F00A00F5CF08F0FE
:100EB0006DEC11F001C069F002C06AF003C06BF084
:100EC00004C06CF069C00EF06AC00FF06BC010F087
:100ED0006CC011F00A0E126E000E136E000E146E2E
:100EE000000E156E1AEC12F00EC069F00FC06AF019
:100EF00010C06BF011C06CF000016951300F40C0A0
:100F0000D9FF41C0DAFFDF6E404A412A6DC00EF0C2
:100F10006EC00FF06FC010F070C011F0000176517C
:100F2000040D010EF324F66E080EF420F76E09008E
:100F3000F5CF12F00900F5CF13F00900F5CF14F04A
:100F40000A00F5CF15F01AEC12F00EC06DF00FC0CC
:100F50006EF010C06FF011C070F000017607000154
:100F60007629D8B40DD087D740C0D9FF41C0DAFF69
:100F7000300EDF6E404A412A00017107D8A0720787
:100F80000001715100017211D8B4E6D0EDD763C0F1
:100F9000D9FF64C0DAFFDECF6DF0DDCF6EF0000167
:100FA000000E6EBFFF0E6F6F706F020E00016327A1
:100FB000000E6423000170AF0CD0030E0001651316
:100FC0000001701F6F1F6E1F6D6D000E6E236F236B
:100FD00070230001715100017211D8A40DD00001DD
:100FE0006D5100016E1100016F1100017011D8A444
:100FF00003D00001714B722B010E0001766F0A0EB7
:1010000000017619D8B41ED000017651040D010EEE
:10101000F324F66E080EF420F76E0900F550000177
:101020006D5D0900F55000016E590900F550000191
:101030006F590900F55000017059D8A003D0000184
:10104000762BDDD7800E000176BF7F0E496E000142
:1010500071510001765D00017251800A4958D8B083
:1010600003D071C076F016D000017251800A496E2B
:10107000000176510001715D800E000176BF7F0E88
:101080004958D8B007D0000176510001716F726BDA
:1010900071BF7207030E00016515496E000E000155
:1010A00066154A6E49504A10D8B44BD040C0D9FF9B
:1010B00041C0DAFF2D0EDF6E42D071C049F072C020
:1010C0004AF0D89049364A36D89049364A36010E09
:1010D0004924F66E080E4A20F76E0900F5CF05F098
:1010E0000900F5CF06F00900F5CF07F00A00F5CFAB
:1010F00008F06DC001F06EC002F06FC003F070C068
:1011000004F06DEC11F001C00EF002C00FF003C04E
:1011100010F004C011F00A0E126E000E136E000ED5
:10112000146E000E156E1AEC12F00E50300F000106
:10113000766F40C0D9FF41C0DAFF76C0DFFF404A7A
:10114000412A00017107D8A0720700017129B5E199
:1011500000017229D8A4B1D742C0F6FF43C0F7FFFF
:10116000424A432A0800F5CF76F000017651D8A410
:101170004AEF04F040C0D9FF41C0DAFF000EDF6E35
:1011800012002A6E2AAEFBD02A6C2A50800A120F57
:10119000D8A091D0000E126E030E116E000E0A6ED2
:1011A0000A0E096E000E046E640E036E2A50016E64
:1011B000026A01BE0206AEEC11F001C007F002C0E7
:1011C00008F02BEC11F0090E07240F6E000E08201A
:1011D000106EF7EC12F0500E0F24F66E080E102071
:1011E000F76E0900F5CF18F00900F5CF19F00A00E5
:1011F000F5CF1AF0000E0A6E640E096E2A50076EC3
:10120000086A07BE08062BEC11F0120E07240F6EB9
:10121000000E0820106E000E126E030E116EF7EC19
:1012200012F0500E0F24F66E080E1020F76E090013
:10123000F5CF15F00900F5CF16F00A00F5CF17F03D
:1012400098EC0FF015C027F016C028F017C029F051
:1012500027C015F028C016F029C017F0000E126E36
:10126000030E116E000E046E0A0E036E2A50016EFC
:10127000026A01BE0206AEEC11F001C00FF002C01E
:1012800010F0F7EC12F0500E0F24F66E080E10203E
:10129000F76E0900F5CF18F00900F5CF19F00A0034
:1012A000F5CF1AF098EC0FF015C024F016C025F019
:1012B00017C026F012002A50800A750FD8A04DD012
:1012C000000E0A6E0A0E096E2A50076E086A07BEE3
:1012D00008062BEC11F0090E07240F6E000E0820F3
:1012E000106E000E126E030E116EF7EC12F0500E1F
:1012F0000F24F66E080E1020F76E0900F5CF15F0DA
:101300000900F5CF16F00A00F5CF17F0000E126EA7
:10131000030E116E000E046E0A0E036E2A50016E4B
:10132000026A01BE0206AEEC11F001C00FF002C06D
:1013300010F0F7EC12F0500E0F24F66E080E10208D
:10134000F76E0900F5CF18F00900F5CF19F00A0083
:10135000F5CF1AF098EC0FF0A7D72A50030D500ED6
:10136000F324F66E080EF420F76E0900F5CF24F092
:101370000900F5CF25F00A00F5CF26F012002A501B
:10138000800A120FD8A091D0000E126E030E116EBB
:10139000000E0A6E0A0E096E000E046E640E036ED5
:1013A0002A50016E026A01BE0206AEEC11F001C0C5
:1013B00007F002C008F02BEC11F0090E07240F6EA5
:1013C000000E0820106EF7EC12F0290E0F24F66EB6
:1013D000080E1020F76E0900F5CF18F00900F5CFC0
:1013E00019F00A00F5CF1AF0000E0A6E640E096EAD
:1013F0002A50076E086A07BE08062BEC11F0120E81
:1014000007240F6E000E0820106E000E126E030EE1
:10141000116EF7EC12F0290E0F24F66E080E102054
:10142000F76E0900F5CF15F00900F5CF16F00A00A8
:10143000F5CF17F098EC0FF015C027F016C028F084
:1014400017C029F027C015F028C016F029C017F0E2
:10145000000E126E030E116E000E046E0A0E036E65
:101460002A50016E026A01BE0206AEEC11F001C004
:101470000FF002C010F0F7EC12F0290E0F24F66EF8
:10148000080E1020F76E0900F5CF18F00900F5CF0F
:1014900019F00A00F5CF1AF098EC0FF015C024F0FF
:1014A00016C025F017C026F012002A50800A750FCA
:1014B000D8A04DD0000E0A6E0A0E096E2A50076E93
:1014C000086A07BE08062BEC11F0090E07240F6E00
:1014D000000E0820106E000E126E030E116EF7EC57
:1014E00012F0290E0F24F66E080E1020F76E090078
:1014F000F5CF15F00900F5CF16F00A00F5CF17F07B
:10150000000E126E030E116E000E046E0A0E036EB4
:101510002A50016E026A01BE0206AEEC11F001C053
:101520000FF002C010F0F7EC12F0290E0F24F66E47
:10153000080E1020F76E0900F5CF18F00900F5CF5E
:1015400019F00A00F5CF1AF098EC0FF0A7D72A503F
:10155000030D290EF324F66E080EF420F76E090031
:10156000F5CF24F00900F5CF25F00A00F5CF26F0DD
:1015700012002D6E6D0E2D649FD0000E126E030EA4
:10158000116E000E0A6E0A0E096E000E046E640ED5
:10159000036E2DC001F0026AAEEC11F001C007F03D
:1015A00002C008F02BEC11F0090E07240F6E000E9C
:1015B0000820106EF7EC12F0500E0F24F66E080E95
:1015C0001020F76E0900F5CF18F00900F5CF19F0DB
:1015D0000A00F5CF1AF0000E0A6E640E096E2DC0D7
:1015E00007F0086A2BEC11F0120E07240F6E000EA4
:1015F0000820106E000E126E030E116EF7EC12F042
:10160000500E0F24F66E080E1020F76E0900F5CF6D
:1016100015F00900F5CF16F00A00F5CF17F098EC99
:101620000FF015C02AF016C02BF017C02CF0000EDA
:10163000126E030E116E000E046E0A0E036E2DC0A4
:1016400001F0026AAEEC11F001C00FF002C010F020
:10165000F7EC12F0500E0F24F66E080E1020F76E05
:101660000900F5CF18F00900F5CF19F00A00F5CF01
:101670001AF02AC015F02BC016F02CC017F098EC09
:101680000FF015C027F016C028F017C029F027C0AA
:1016900015F028C016F029C017F0000E186E000EC5
:1016A000196E3F0E1A6E98EC0FF015C024F016C09C
:1016B00025F017C026F012000A0E2D645DD0000E32
:1016C000126E030E116E000E046E0A0E036E2DC014
:1016D00001F0026AAEEC11F001C00FF002C010F090
:1016E000F7EC12F0500E0F24F66E080E1020F76E75
:1016F0000900F5CF18F00900F5CF19F00A00F5CF71
:101700001AF0000E0A6E0A0E096E2DC007F0086A64
:101710002BEC11F0090E07240F6E000E0820106E3E
:10172000000E126E030E116EF7EC12F0500E0F2425
:10173000F66E080E1020F76E0900F5CF15F00900BF
:10174000F5CF16F00A00F5CF17F098EC0FF015C0A2
:101750002AF016C02BF017C02CF02AC015F02BC0B1
:1017600016F02CC017F0000E186E000E196E3F0E0A
:101770001A6E98EC0FF099D72D50030D500EF324EC
:10178000F66E080EF420F76E0900F5CF15F009008B
:10179000F5CF16F00A00F5CF17F0000E186E000E08
:1017A000196E3F0E1A6E98EC0FF015C024F016C09B
:1017B00025F017C026F0120030C034F0356A366AC2
:1017C0002F34343601E335803450396E33C034F071
:1017D000356A366A3234343601E335803450386E37
:1017E0003950D8B40BD03850395CD8B00ED03950FD
:1017F00000083824346E180E346407D031C02EF03F
:1018000032C02FF033C030F012003850D8B40BD0B3
:101810003950385CD8B00ED0385000083924346EB6
:10182000180E346407D02EC02EF02FC02FF030C019
:1018300030F01200060E376E30BE378E33BE378C56
:101840002F8EFF0E2E16FF0E2F16000E3016328E24
:10185000FF0E3116FF0E3216000E33163850395C6B
:10186000D8B01BD0D890313632363336380639509E
:101870003818D8B40DD0370637C034F0070E3416F8
:10188000D8B406D0EFD7D89030322F322E32392A42
:1018900038503918D8B41FD0F6D73950385CD8B082
:1018A0001AD0D8902E362F3630363906395038189F
:1018B000D8B40DD0370637C034F0070E3416D8B47C
:1018C00006D0EFD7D890333232323132382A3850FE
:1018D0003918D8A4F7D737AE0CD0FF0E2E1AFF0E4A
:1018E0002F1AFF0E301A010E2E26000E2F22000E88
:1018F000302237AC0CD0FF0E311AFF0E321AFF0E19
:10190000331A010E3126000E3222000E3322000E51
:10191000376E2E5031262F5032223050332233AEC4
:101920000ED0FF0E311AFF0E321AFF0E331A010EBF
:101930003126000E3222000E3322010E376E31C0E6
:1019400001F032C002F033C003F039C004F037C0F8
:1019500005F08CEC10F001C02EF002C02FF003C097
:1019600030F0120003C007F0086A096A0234073633
:1019700001E3088007500F6E0F50D8A409D0000E65
:10198000016E000E026E000E036E000E046E120059
:1019900006C007F0086A096A0534073601E30880C3
:1019A00007500E6E0E50D8A409D0000E016E000E26
:1019B000026E000E036E000E046E1200028EFF0E09
:1019C0000116FF0E0216000E0316058EFF0E0416FA
:1019D000FF0E0516000E0616000E0A6E000E0B6EA8
:1019E000000E0C6E000E0D6E7F0E0F5E0E50980FE7
:1019F0000F5E180E0E6ED8900A360B360C360D366A
:101A00000450015C0550025806500358D8A007D076
:101A10000450015E0550025A0650035A0A80D890BD
:101A20000136023603360E2EE6D70FAE16D00F5013
:101A3000800A970FD8B009D0000E016E000E026E1A
:101A4000000E036E000E046E1200D8900D320C32A0
:101A50000B320A320F3EF9D715D0170E0F640FD094
:101A6000000E016E000E026E000E036E000E046E7C
:101A70001200D8900A360B360C360D360F060F5072
:101A8000D8A4F7D70AC001F00BC002F00CC003F0D5
:101A90000DC004F01200036E83908382016A03AECE
:101AA00001D0012A010E01160132013283500118C2
:101AB0007F0B0118836E03C001F0060E026ED890F2
:101AC0000132022EFCD7010E0116013A01460146F1
:101AD00083500118BF0B0118836E03C001F0050E7F
:101AE000026ED8900132022EFCD7010E0116013A87
:101AF000014683500118DF0B0118836E03C001F00B
:101B0000013A0F0E0116010E0116013A8350011819
:101B1000EF0B0118836E030EE82EFED700F08380D2
:101B2000030EE82EFED700F0839003C001F0D8909A
:101B30000132D8900132D8900132010E01160132E3
:101B40000132835001187F0B0118836E03C001F02E
:101B5000D8900132D8900132010E0116013A0146A7
:101B6000014683500118BF0B0118836E03C001F0BA
:101B7000D8900132010E0116013A01468350011836
:101B8000DF0B0118836E03C001F0010E0116013A4C
:101B900083500118EF0B0118836E030EE82EFED759
:101BA00000F08380030EE82EFED700F08390030E32
:101BB000E82EFED700F00F0E016E480EE82EFED77D
:101BC000012EFCD71200033404340C6E0C50D8A440
:101BD00009D0000E016E000E026E000E036E000EA4
:101BE000046E1200063407340B6E0B50D8A409D0D3
:101BF000000E016E000E026E000E036E000E046EEB
:101C00001200038EFF0E0116FF0E0216FF0E0316C2
:101C1000000E0416068EFF0E0416FF0E0516FF0EAC
:101C20000616000E0716000E076E000E086E000E58
:101C3000096E000E0A6E7F0E0C5E0B50A00F0C5E3C
:101C4000200E0B6ED8900736083609360A36045037
:101C5000015C055002580650035807500458D8A09C
:101C600009D00450015E0550025A0650035A07502D
:101C7000045A0780D89001360236033604360B2EFC
:101C8000E1D70CAE16D00C50800A9F0FD8B009D007
:101C9000000E016E000E026E000E036E000E046E4A
:101CA0001200D8900A320932083207320C3EF9D7B6
:101CB00015D01F0E0C640FD0000E016E000E026EC8
:101CC000000E036E000E046E1200D8900736083620
:101CD00009360A360C060C50D8A4F7D707C001F015
:101CE00008C002F009C003F00AC004F01200036E3D
:101CF00083908392016A03AE01D0012A010E01167E
:101D000001320132835001187F0B0118836E03C02A
:101D100001F0060E026ED8900132022EFCD7010EA1
:101D20000116013A0146014683500118BF0B011804
:101D3000836E03C001F0050E026ED8900132022EB0
:101D4000FCD7010E0116013A014683500118DF0B42
:101D50000118836E03C001F0013A0F0E0116010E47
:101D60000116013A83500118EF0B0118836E030E20
:101D7000E82EFED700F08380030EE82EFED700F099
:101D8000839003C001F0D8900132D8900132D890EE
:101D90000132010E011601320132835001187F0B0E
:101DA0000118836E03C001F0D8900132D89001323F
:101DB000010E0116013A0146014683500118BF0B7E
:101DC0000118836E03C001F0D8900132010E011694
:101DD000013A014683500118DF0B0118836E03C0DE
:101DE00001F0010E0116013A83500118EF0B0118A2
:101DF000836E030EE82EFED700F08380030EE82EDC
:101E0000FED700F083900F0E016E480EE82EFED72D
:101E1000012EFCD71200959E959C959A95989590C9
:101E20009592839E839C839A8398839083920F0ECE
:101E3000046E480EE82EFED7042EFCD70F0E046E5B
:101E4000480EE82EFED7042EFCD70F0E046E480E67
:101E5000E82EFED7042EFCD70F0E046E480EE82E97
:101E6000FED7042EFCD70F0E046E480EE82EFED7C8
:101E7000042EFCD70F0E046E480EE82EFED7042E5B
:101E8000FCD7010E056E030E056401D01FD0839EA2
:101E9000839C838A838883908392839E839C838A96
:101EA000838883808392030EE82EFED700F0839E02
:101EB000839C838A8388839083920F0E046E480EDE
:101EC000E82EFED7042EFCD7052ADDD7839E839CFF
:101ED000838A839883908392839E839C838A83984A
:101EE00083808392030EE82EFED700F0839E839CAE
:101EF000838A8398839083920F0E046E480EE82E97
:101F0000FED7042EFCD7280E056E055077EC0EF098
:101F1000100E056E055077EC0EF0010E056E0550A3
:101F200077EC0EF00F0E056E055077EC0EF01200F8
:101F300017C01BF01C6A1D6A16341B3601E31C8097
:101F40001B501E6E1E50D8A407D0000E156E000E3A
:101F5000166E000E176E12001AC01BF01C6A1D6A66
:101F600019341B3601E31C801B50236E2350D8A468
:101F700007D0000E156E000E166E000E176E1200C2
:101F800023507B0F1E2617C023F01A50231A800EF1
:101F90002316168E198EFF0E1816FF0E1916000E38
:101FA0001A16000E1F6E000E206E000E216E070E18
:101FB000226E15A006D018501F26195020221A5044
:101FC0002122D890173216321532D8901836193689
:101FD0001A36222EEED7090E226E15A006D0185002
:101FE0001F26195020221A502122D890173216325B
:101FF0001532D890213220321F32222EEED71FC048
:1020000001F020C002F021C003F01EC004F023C084
:1020100005F08CEC10F001C015F002C016F003C002
:1020200017F012002DC02FF0306A316A2C342F3691
:1020300001E330802F50396E3950D8A409D0000EFA
:102040002B6E000E2C6E000E2D6E000E2E6E1200EA
:10205000170E2F6E2BC030F02CC031F02DC032F097
:102060002F28336E04D0D890323231323032332EB2
:10207000FAD73050346E2C8EFF0E2B16FF0E2C1616
:10208000000E2D162B50356E2C50366E2D50376E9F
:10209000386A8E0E395E39AE16D03950800A8F0FED
:1020A000D8B009D0000E2B6E000E2C6E000E2D6ED7
:1020B000000E2E6E1200D89038323732363235325A
:1020C000393EF9D715D0170E39640FD0000E2B6E9C
:1020D000000E2C6E000E2D6E000E2E6E1200D8908B
:1020E000353636363736383639063950D8A4F7D72C
:1020F0003450D8B408D0381E371E361E356C000E4A
:1021000036223722382235C02BF036C02CF037C0AB
:102110002DF038C02EF012000450D8B405D0015074
:1021200002100310D8A40CD0000E016E000E026E37
:10213000000E036E1200042AD890033202320132DC
:10214000000E0114066E000E0214076EFE0E03143C
:10215000086E065007100810D8B40CD0ECD7042A2B
:10216000010E0126000E0222000E0322D890033237
:1021700002320132000E0114066E000E0214076EC8
:10218000FF0E0314086E065007100810D8B406D0CE
:10219000E6D70406D89001360236033602BE03D0D5
:1021A000020E0460F6D704A0029ED89004320450B8
:1021B00003120550D8A4038E01C001F002C002F042
:1021C00003C003F0120003AE16D001C007F002C036
:1021D00008F003C009F0071E081E091E072A000E9A
:1021E00008220922000E0724016E000E0820026E4C
:1021F000800E0920036E06AE16D004C007F005C09D
:1022000008F006C009F0071E081E091E072A000E66
:1022100008220922000E0724046E000E0820056E15
:10222000800E0920066E000E011A000E021A800EA2
:10223000031A000E041A000E051A800E061A045026
:10224000015C0550025806500358D8B002D0D8900F
:102250001200D8801200000E0C6E0AAE06D0096C77
:102260000A1ED8B00A2A010E0C6E08AE06D0076C02
:10227000081ED8B0082A010E0C1A000E0E6E000EB1
:102280000D6E09500A10D8B41CD0010E0B6E04D08C
:10229000D89009360A360B2A0AAEFAD7D8900D36EE
:1022A0000E360950075C0A500858D8A005D00950CE
:1022B000075E0A50085A0D80D8900A3209320B2E58
:1022C000EDD70C50D8B404D00D6C0E1ED8B00E2A29
:1022D0000DC007F00EC008F01200000E096E000ECF
:1022E0000A6E000E0B6E000E0C6E055006100710E5
:1022F0000810D8B42AD0010E0D6E06D0D89005363D
:102300000636073608360D2A08AEF8D7D8900936B3
:102310000A360B360C360550015C06500258075041
:10232000035808500458D8A009D00550015E065043
:10233000025A0750035A0850045A0980D8900832AC
:102340000732063205320D2EE1D709C001F00AC06E
:1023500002F00BC003F00CC004F01200000E066E79
:1023600002AE06D0016C021ED8B0022A010E066E23
:1023700004AE04D0036C041ED8B0042A0350041029
:10238000D8B418D0010E056E04D0D89003360436A8
:10239000052A04AEFAD70350015C04500258D8A0B5
:1023A00004D00350015E0450025AD8900432033224
:1023B000052EF1D70650D8B404D0016C021ED8B057
:1023C000022A01C001F002C002F012002BEC13F04F
:1023D0000BEC0FF00C0E77EC0EF0000E046E870E77
:1023E000056E000E066E010E4DEC12F0140E77EC29
:1023F0000EF054504BEC0DF0770E406E000E416E17
:10240000770E426E080E436E52C044F053C045F042
:102410004FC046F050C047F051C048F042EC04F0C5
:10242000000E046E770E056E000E066E020E4DEC69
:1024300012F0FFD71250131014101510D8B424D076
:10244000010E166E06D0D890123613361436153695
:10245000162A15AEF8D712500E5C13500F581450B0
:10246000105815501158D8A008D012500E5E1350B5
:102470000F5A1450105A1550115AD8901532143260
:1024800013321232162EE7D70EC00EF00FC00FF027
:1024900010C010F011C011F01200076E0DD00450E2
:1024A000800F08D00450C00F05D00450940F02D004
:1024B0000450D40F086E0DD00750010AD8B4EFD7DE
:1024C000030AD8B4EFD7010AD8B4EFD7070AD8B4B3
:1024D000EFD7085077EC0EF009D005C0D9FF06C041
:1024E000DAFFDF504BEC0DF0054A062A05C0D9FF94
:1024F00006C0DAFFDF50D8B41200EFD78E0E116E8F
:1025000006D0D8900C320B320A320932112A000E52
:1025100009140D6E000E0A140E6E000E0B140F6ED1
:10252000FF0E0C14106E0D500E100F101010D8A4CA
:10253000E8D709C001F00AC002F00BC003F011C0D7
:1025400004F0000E056E8CEC10F001C009F002C022
:102550000AF003C00BF01200660EF66E260EF76E40
:10256000000EF86E00EE87F010EE0DF00900F5CFCA
:10257000EEFFE550E150FAE1730EF66E260EF76EAF
:10258000000EF86E00EE4FF010EE06F00900F5CFE9
:10259000EEFFE550E150FAE100EE77F0100EEE6A42
:1025A000E806FDE1000EF86E0001E6EF11F03D5087
:1025B0003E103F10D8B406D0000E3D1A000E3E1A51
:1025C000800E3F1A3AC02EF03BC02FF03CC030F0D6
:1025D0003DC031F03EC032F03FC033F0DCEC0BF0D8
:1025E0002EC03AF02FC03BF030C03CF012000F502C
:1025F0001102F3CF13F0F4CF14F00F501202F35086
:10260000142610501102F350142613C00FF014C0FA
:1026100010F01200015002100310D8B406D0000EC2
:10262000011A000E021A800E031A01C001F002C046
:1026300002F003C003F01200036E000E026E3A0EA9
:10264000036005D02F0E036402D0010E026E02C09B
:1026500001F001301200D388D38AD38CC180C182AB
:10266000C184C18612004469676974616C65732016
:092670004949001049401F0041D6
:020000040020DA
:08000000FFFFFFFFFFFFFFFF00
:020000040030CA
:0E00000000091E1EFF8185FF0FC00FE00F409C
:00000001FF
