:04000000BEEF06F059
:100600000001000A006400E803102743616E616C7A
:1006100020414E30203D20252E34640043616E6120
:100620006C20414E31203D20252E34640000110EF7
:10063000146E000E156ECDD0250E1A18D8B409D040
:100640000DC0D9FF0EC0DAFF1AC0DFFF0D4A0E2A17
:10065000C0D0000E166E0FC0F6FF10C0F7FF0800E6
:10066000F5502E0AD8A41FD00F4A102A000E196E7A
:100670000FD00FC0F6FF10C0F7FF0800F5CF13F042
:1006800019500A0DF3501324D00F196E0F4A102A77
:100690000FC0F6FF10C0F7FF0800F550AFEC06F0F2
:1006A000D8A003D0E6D7000E196E0FC0F6FF10C019
:1006B000F7FF0F4A102A0800F5CF1AF01A50000A67
:1006C000D8B493D0640AD8B403D00D0AD8A481D08A
:1006D00014C0D9FF15C0DAFFDECF17F0DDCF18F058
:1006E000020E1426000E152218AE06D0030E1612A6
:1006F000176C181ED8B0182A1950D8A404D0175057
:100700001810D8B4192A010E1A6E050E1A18D8B48A
:1007100012D01A50020D010EF324F66E060EF420CC
:10072000F76E0900F550175C0900F5501858D8A06D
:1007300002D01A2AEAD71A50800A136E1950800A7A
:10074000135CD8B003D019C01AF009D01950800A30
:10075000136E1A50800A135CD8A01AC019F016C084
:1007600013F0030E1316D8B430D00DC0D9FF0EC04D
:10077000DAFF2D0EDF6E27D01950020D010EF32483
:10078000F66E060EF420F76E0900F5CF03F00A00AE
:10079000F5CF04F017C001F018C002F03DEC06F0F0
:1007A00001C008F002C009F0000E0B6E0A0E0A6EBE
:1007B00066EC06F00850300F1A6E0DC0D9FF0EC05F
:1007C000DAFF1AC0DFFF0D4A0E2A19061928D8A42D
:1007D000D3D70FC0F6FF10C0F7FF0F4A102A08004A
:1007E000F5CF1AF01A50D8A427D70DC0D9FF0EC0E4
:1007F000DAFF000EDF6E1200036E83908382016ABF
:1008000003AE01D0012A010E0116013201328350DC
:1008100001187F0B0118836E03C001F0060E026EF3
:10082000D8900132022EFCD7010E0116013A014682
:10083000014683500118BF0B0118836E03C001F0FD
:10084000050E026ED8900132022EFCD7010E011661
:10085000013A014683500118DF0B0118836E03C073
:1008600001F0013A0F0E0116010E0116013A8350F4
:100870000118EF0B0118836E030EE82EFED700F06F
:100880008380060EE82EFED700F000F0839003C0B0
:1008900001F0D8900132D8900132D8900132010E87
:1008A000011601320132835001187F0B0118836E4B
:1008B00003C001F0D8900132D8900132010E011628
:1008C000013A0146014683500118BF0B0118836E9F
:1008D00003C001F0D8900132010E0116013A014621
:1008E00083500118DF0B0118836E03C001F0010E65
:1008F0000116013A83500118EF0B0118836E030EA5
:10090000E82EFED700F08380060EE82EFED700F01A
:1009100000F08390060EE82EFED700F000F01D0ECA
:10092000016E910EE82EFED7012EFCD700F01200CA
:10093000036E83908392016A03AE01D0012A010EF7
:10094000011601320132835001187F0B0118836EAA
:1009500003C001F0060E026ED8900132022EFCD7C1
:10096000010E0116013A0146014683500118BF0BE2
:100970000118836E03C001F0050E026ED89001329B
:10098000022EFCD7010E0116013A014683500118D0
:10099000DF0B0118836E03C001F0013A0F0E011640
:1009A000010E0116013A83500118EF0B0118836EF6
:1009B000030EE82EFED700F08380060EE82EFED749
:1009C00000F000F0839003C001F0D8900132D8907D
:1009D0000132D8900132010E0116013201328350EA
:1009E00001187F0B0118836E03C001F0D89001320B
:1009F000D8900132010E0116013A0146014683509A
:100A00000118BF0B0118836E03C001F0D8900132AA
:100A1000010E0116013A014683500118DF0B01183F
:100A2000836E03C001F0010E0116013A83500118D4
:100A3000EF0B0118836E030EE82EFED700F08380C3
:100A4000060EE82EFED700F000F083901D0E016E1A
:100A5000910EE82EFED7012EFCD700F01200959ED5
:100A6000959C959A959895909592839E839C839A50
:100A70008398839083921D0E046E910EE82EFED70C
:100A8000042EFCD700F01D0E046E910EE82EFED74A
:100A9000042EFCD700F01D0E046E910EE82EFED73A
:100AA000042EFCD700F01D0E046E910EE82EFED72A
:100AB000042EFCD700F01D0E046E910EE82EFED71A
:100AC000042EFCD700F01D0E046E910EE82EFED70A
:100AD000042EFCD700F0010E056E20D0839E839C6F
:100AE000838A838883908392839E839C838A83886E
:100AF00083808392060EE82EFED700F000F0839EDE
:100B0000839C838A8388839083921D0E046E910E4A
:100B1000E82EFED7042EFCD700F0052A030E05644C
:100B2000DDD7839E839C838A839883908392839E60
:100B3000839C838A839883808392060EE82EFED757
:100B400000F000F0839E839C838A83988390839235
:100B50001D0E046E910EE82EFED7042EFCD700F079
:100B6000280E056E055098EC04F0100E056E055029
:100B700098EC04F0010E056E055098EC04F00F0E91
:100B8000056E055098EC04F01200C9EC06F0000E5A
:100B900087EC06F001C01DF002C01EF000F000F06E
:100BA00000F000F000F000F000F000F0010E87EC23
:100BB00006F001C01BF002C01CF01F0E0D6E000EEF
:100BC0000E6E0B0E0F6E060E106E1DC011F01EC0C5
:100BD00012F017EC03F0000E046E1F0E056E000EEF
:100BE000066E010E0CEC06F01F0E0D6E000E0E6E62
:100BF0001C0E0F6E060E106E1BC011F01CC012F002
:100C000017EC03F0000E046E1F0E056E000E066E4C
:100C1000020E0CEC06F0BBD7076E0DD00450800F0F
:100C200008D00450C00F05D00450940F02D00450D7
:100C3000D40F086E0DD00750010AD8B4EFD7030ABD
:100C4000D8B4EFD7010AD8B4EFD7070AD8B4EFD792
:100C5000085098EC04F009D005C0D9FF06C0DAFFAF
:100C6000DF50FCEC03F0054A062A05C0D9FF06C098
:100C7000DAFFDF50D8B41200EFD7000E066E000E78
:100C8000056E03500410D8B41CD0010E076E04D0BA
:100C9000D89003360436072A04AEFAD7D890053622
:100CA00006360350015C04500258D8A005D003500A
:100CB000015E0450025A0580D89004320332072E98
:100CC000EDD705C001F006C002F012000A500B106B
:100CD000D8B418D0010E0C6E04D0D8900A360B365A
:100CE0000C2A0BAEFAD70A50085C0B500958D8A052
:100CF00004D00A50085E0B50095AD8900B320A32C1
:100D00000C2EF1D708C008F009C009F01200056EDA
:100D100005C003F003460346C2500318C30B031873
:100D2000C26EC282C2B2FED7C450046E036AC35000
:100D30000324016E000E0420026E12009280928243
:100D40007E807E82C050F80B0509C06EC050C70B74
:100D50000809C06EC08EC198C19AC2801200036E8D
:100D6000000E026E3A0E036005D02F0E036402D00F
:100D7000010E026E02C001F00130120000EE1BF005
:100D8000140EEE6AE806FDE1000EF86E0001C5EFF4
:100D900005F0D388D38AD38C9EEC06F02FEC05F0B7
:080DA0000C0E98EC04F01200A7
:020000040020DA
:08000000FFFFFFFFFFFFFFFF00
:020000040030CA
:0E000000FF081E1EFF8981FF0FC00FE00F409A
:00000001FF
