:040000007BEF17F08B
:1010000000010000000A00000064000000E8030086
:101010000010270000A086010040420F0080969833
:101020000000E1F50500CA9A3B00803F0020410026
:10103000C842007A44401C4650C34724744997185C
:101040004BBCBE4C6B6E4E03155079AD60F34971CD
:1010500000803FCDCC3DD7233C12833AB7D138C670
:101060002737388635C0D633CC2B32708930E7DB52
:101070002EE53C1E42A20D205049433138204578D0
:10108000706C6F7265722000566F6C7473203D2017
:10109000202020202020202000202020566F6C744B
:1010A0006D6574657220202020005242303D4E6FE5
:1010B00077205241353D4E6578740020204D5055C3
:1010C000732079204D435573202000562020205254
:1010D00042303D4578697400252E32660000440E8A
:1010E0000001636F000E0001646FD7D3250E00016D
:1010F0007619D8B407D040C0D9FF41C0DAFF76C016
:10110000DFFFC9D3000E0001666F000E656F42C09D
:10111000F6FF43C0F7FF000EF86E0800F5502E0AE8
:10112000D8A436D00001668D424A432A000E000141
:10113000726F000E716F1FD071C00FF072C010F08F
:10114000000E126E0A0E116E08EC17F042C0F6FF88
:1011500043C0F7FF000EF86E0800F5500F26000E92
:101160001022D00E0F240001716FFF0E102000011D
:10117000726F424A432A42C0F6FF43C0F7FF000E97
:10118000F86E0800F5503EEC17F0D8A00CD0D4D77C
:10119000000E0001726F000E716F0001668903D0AE
:1011A0000001668514D042C0F6FF43C0F7FF424AF3
:1011B000432A000EF86E0800F5CF76F00001765154
:1011C000000AD8B479D3660AD8B4EAD766D3070E32
:1011D00000016615D8B412D3000166A905D0000E2F
:1011E0000001726F060E716F63C0D9FF64C0DAFF31
:1011F000DECF73F0DECF74F0DDCF75F0030E0001AB
:101200006327000E6423000175AF11D073C001F095
:1012100074C002F075C003F01BEC17F001C073F04E
:1012200002C074F003C075F0030E00016513000ED8
:1012300000016C6F000E6B6F00017351000174119F
:1012400000017511D8B48BD0820E476EFF0E486E28
:1012500073C049F074C04AF075C04BF076C04CF0D2
:10126000100E05D0D8904C324B324A324932E82E1B
:10127000F9D74950472400016B6F000E4820000148
:101280006C6F00016B07D8A06C076BC00FF06CC0CF
:1012900010F0000E126E030E116E08EC17F00FC066
:1012A0006BF010C06CF06BC007F06CC008F0000E63
:1012B0000A6E0A0E096EBDEC13F007C06BF008C091
:1012C0006CF000016CAF04D000016B07D8A06C0774
:1012D00000016B51000863EC0CF024C06DF025C0D8
:1012E0006EF026C06FF06DC015F06EC016F06FC0C6
:1012F00017F073C018F074C019F075C01AF031EC13
:1013000012F015C06DF016C06EF017C06FF06DC012
:1013100001F06EC002F06FC003F0000E046E800E8C
:10132000056E3F0E066E75EC13F0D8B005D00001C7
:101330006B07D8A06C0713D06DC001F06EC002F02F
:101340006FC003F0000E046E200E056E410E066E97
:1013500075EC13F0D8A003D000016B4B6C2B00018F
:1013600072BF08D0000172511DE10D0E0001715DC8
:10137000D8B018D073C02EF074C02FF075C030F004
:10138000000171517FEC0EF024C031F025C032F025
:1013900026C033F0B4EC0FF02EC073F02FC074F001
:1013A00030C075F000016CBF08D000016C5126E11F
:1013B0000A0E00016B5DD8B021D00001735100010D
:1013C000741100017511D8B45BD073C02BF074C0D8
:1013D0002CF075C02DF0B7EC11F02B502C102D1007
:1013E0002E10D8A44DD000016CBF4AD000016C5122
:1013F00005E1020E00016B5DD8A042D06DC001F086
:101400006EC002F06FC003F0700E046E890E056EA0
:10141000400E066E75EC13F0D8B003D00001F70E45
:1014200002D00001F80E6B27FF0E6C2300016B51F8
:1014300063EC0CF024C06DF025C06EF026C06FF098
:1014400073C001F074C002F075C003F06DC004F009
:101450006EC005F06FC006F08AEC10F001C067F0B6
:1014600002C068F003C069F004C06AF0000E000119
:10147000736F000E0001746F000E0001756F33D0A2
:1014800073C02BF074C02CF075C02DF0B7EC11F0C8
:101490002BC067F02CC068F02DC069F02EC06AF038
:1014A00073C03AF074C03BF075C03CF067C009F0FF
:1014B00068C00AF069C00BF06AC00CF0B6EC15F019
:1014C00009C03DF00AC03EF00BC03FF05CEC16F0E6
:1014D0003AC073F03BC074F03CC075F0000E0001E0
:1014E0006C6F000E6B6F010E0001766F0A0E00012B
:1014F0007619D8B421D000017651040D010EF324E1
:10150000F66E100EF420F76EF86A000EF82209004D
:10151000F5500001675D0900F550000168590900A8
:10152000F550000169590900F55000016A59D8A029
:1015300003D00001762BDAD7030E00016515476E44
:10154000000E00016615486E47504810D8B456D0BA
:1015500040C0D9FF41C0DAFF2D0E4ED0404A412A8B
:101560004DD067C001F068C002F069C003F06AC0E6
:1015700004F000017651040D010EF324F66E100EF6
:10158000F420F76EF86A000EF8220900F5CF05F096
:101590000900F5CF06F00900F5CF07F00A00F5CFF6
:1015A00008F0FFEC13F001C06DF002C06EF003C054
:1015B0006FF004C070F06DC001F06EC002F06FC03B
:1015C00003F070C004F00A0E056E000E066E000EE9
:1015D000076E000E086EEDEC14F001C06DF002C055
:1015E0006EF003C06FF004C070F000016D51300F59
:1015F00040C0D9FF41C0DAFFDF6EB0D700017607E7
:1016000000017629D8B40DD0ACD740C0D9FF41C075
:10161000DAFF300EDF6E404A412A00016B07D8A086
:101620006C0700016CBF07D000016C51EEE10001B6
:101630006B05D8B0EAD7000172BF0CD0000172511F
:1016400005E1090E0001715DD8A004D0080E00016B
:10165000766F02D071C076F0000176510001715FA3
:10166000000E000176BFFF0E0001725B0001765193
:101670000001D8B408D040C0D9FF41C0DAFF2E0E17
:10168000DF6E404A412A0001765163EC0CF024C021
:1016900060F025C061F026C062F073C018F074C01D
:1016A00019F075C01AF060C015F061C016F062C084
:1016B00017F031EC12F015C02BF016C02CF017C04B
:1016C0002DF0B7EC11F02BC067F02CC068F02DC0E6
:1016D00069F02EC06AF078D067C001F068C002F0EF
:1016E00069C003F06AC004F000017651040D010ED8
:1016F000F324F66E100EF420F76EF86A000EF8224E
:101700000900F5CF05F00900F5CF06F00900F5CF87
:1017100007F00A00F5CF08F0FFEC13F001C06DF000
:1017200002C06EF003C06FF004C070F06DC001F035
:101730006EC002F06FC003F070C004F00A0E056EB8
:10174000000E066E000E076E000E086EEDEC14F033
:1017500001C06DF002C06EF003C06FF004C070F005
:1017600000016D51300F40C0D9FF41C0DAFFDF6E7C
:10177000404A412A67C001F068C002F069C003F026
:101780006AC004F000017651040D010EF324F66ED8
:10179000100EF420F76EF86A000EF8220900F5CF5B
:1017A00005F00900F5CF06F00900F5CF07F00A00B3
:1017B000F5CF08F0EDEC14F001C067F002C068F05E
:1017C00003C069F004C06AF00001760700017629C1
:1017D000D8B40DD081D740C0D9FF41C0DAFF300E58
:1017E000DF6E404A412A00017107D8A0720700014C
:1017F000715100017211D8B450D0EDD70001715170
:1018000000017211D8A40DD00001675100016811C8
:101810000001691100016A11D8A403D00001714BC5
:10182000722B800E000176BF7F0E476E0001715152
:101830000001765D00017251800A4758D8B003D08C
:1018400071C076F016D000017251800A476E000117
:1018500076510001715D800E000176BF7F0E475802
:10186000D8B007D0000176510001716F726B71BF63
:101870007207030E00016515476E000E0001661524
:10188000486E47504810D8B408D040C0D9FF41C076
:10189000DAFF2D0EDF6E404A412A42C0F6FF43C0F8
:1018A000F7FF424A432A000EF86E0800F5CF76F0A3
:1018B00000017651D8A41AD440C0D9FF41C0DAFF44
:1018C000000EDF6E12002A6E2AAE0DD12A6C2A504D
:1018D000800A120FD8A09AD0000E126E030E116E5D
:1018E000000E0A6E0A0E096E000E046E640E036E80
:1018F0002A50016E026A01BE02067DEC14F001C09E
:1019000007F002C008F0BDEC13F0090E07240F6EBB
:10191000000E0820106E08EC17F0500E0F24F66E23
:10192000100E1020F76EF86A000EF8220900F5CFAD
:1019300018F00900F5CF19F00A00F5CF1AF0000EE3
:101940000A6E640E096E2A50076E086A07BE080602
:10195000BDEC13F0120E07240F6E000E0820106E5F
:10196000000E126E030E116E08EC17F0500E0F24CD
:10197000F66E100E1020F76EF86A000EF8220900BD
:10198000F5CF15F00900F5CF16F00A00F5CF17F0E6
:1019900031EC12F015C027F016C028F017C029F05E
:1019A00027C015F028C016F029C017F0000E126EDF
:1019B000030E116E000E046E0A0E036E2A50016EA5
:1019C000026A01BE02067DEC14F001C00FF002C0F5
:1019D00010F008EC17F0500E0F24F66E100E1020C9
:1019E000F76EF86A000EF8220900F5CF18F009002A
:1019F000F5CF19F00A00F5CF1AF031EC12F015C04E
:101A000024F016C025F017C026F012002A50800AD4
:101A1000750FD8A053D0000E0A6E0A0E096E2A5018
:101A2000076E086A07BE0806BDEC13F0090E07240E
:101A30000F6E000E0820106E000E126E030E116E57
:101A400008EC17F0500E0F24F66E100E1020F76EF3
:101A5000F86A000EF8220900F5CF15F00900F5CF5D
:101A600016F00A00F5CF17F0000E126E030E116E7D
:101A7000000E046E0A0E036E2A50016E026A01BE49
:101A800002067DEC14F001C00FF002C010F008EC6B
:101A900017F0500E0F24F66E100E1020F76EF86A35
:101AA000000EF8220900F5CF18F00900F5CF19F063
:101AB0000A00F5CF1AF031EC12F0A1D72A50030D2D
:101AC000500EF324F66E100EF420F76EF86A000E36
:101AD000F8220900F5CF24F00900F5CF25F00A001F
:101AE000F5CF26F012002A50800A120FD8A09AD003
:101AF000000E126E030E116E000E0A6E0A0E096EB3
:101B0000000E046E640E036E2A50016E026A01BE5E
:101B100002067DEC14F001C007F002C008F0BDEC35
:101B200013F0090E07240F6E000E0820106E08EC4B
:101B300017F0290E0F24F66E100E1020F76EF86ABB
:101B4000000EF8220900F5CF18F00900F5CF19F0C2
:101B50000A00F5CF1AF0000E0A6E640E096E2A50C4
:101B6000076E086A07BE0806BDEC13F0120E0724C4
:101B70000F6E000E0820106E000E126E030E116E16
:101B800008EC17F0290E0F24F66E100E1020F76ED9
:101B9000F86A000EF8220900F5CF15F00900F5CF1C
:101BA00016F00A00F5CF17F031EC12F015C027F04F
:101BB00016C028F017C029F027C015F028C016F06D
:101BC00029C017F0000E126E030E116E000E046E87
:101BD0000A0E036E2A50016E026A01BE02067DECF7
:101BE00014F001C00FF002C010F008EC17F0290E3D
:101BF0000F24F66E100E1020F76EF86A000EF82211
:101C00000900F5CF18F00900F5CF19F00A00F5CF5B
:101C10001AF031EC12F015C024F016C025F017C0F0
:101C200026F012002A50800A750FD8A053D0000E5B
:101C30000A6E0A0E096E2A50076E086A07BE080669
:101C4000BDEC13F0090E07240F6E000E0820106E75
:101C5000000E126E030E116E08EC17F0290E0F2401
:101C6000F66E100E1020F76EF86A000EF8220900CA
:101C7000F5CF15F00900F5CF16F00A00F5CF17F0F3
:101C8000000E126E030E116E000E046E0A0E036E2D
:101C90002A50016E026A01BE02067DEC14F001C0FA
:101CA0000FF002C010F008EC17F0290E0F24F66EAA
:101CB000100E1020F76EF86A000EF8220900F5CF1A
:101CC00018F00900F5CF19F00A00F5CF1AF031EC41
:101CD00012F0A1D72A50030D290EF324F66E100E30
:101CE000F420F76EF86A000EF8220900F5CF24F010
:101CF0000900F5CF25F00A00F5CF26F012002D6E71
:101D00006D0E2D64A8D0000E126E030E116E000E23
:101D10000A6E0A0E096E000E046E640E036E2DC06C
:101D200001F0026A7DEC14F001C007F002C008F077
:101D3000BDEC13F0090E07240F6E000E0820106E84
:101D400008EC17F0500E0F24F66E100E1020F76EF0
:101D5000F86A000EF8220900F5CF18F00900F5CF57
:101D600019F00A00F5CF1AF0000E0A6E640E096E23
:101D70002DC007F0086ABDEC13F0120E07240F6E99
:101D8000000E0820106E000E126E030E116E08EC8D
:101D900017F0500E0F24F66E100E1020F76EF86A32
:101DA000000EF8220900F5CF15F00900F5CF16F066
:101DB0000A00F5CF17F031EC12F015C02AF016C06A
:101DC0002BF017C02CF0000E126E030E116E000ED9
:101DD000046E0A0E036E2DC001F0026A7DEC14F051
:101DE00001C00FF002C010F008EC17F0500E0F24E5
:101DF000F66E100E1020F76EF86A000EF822090039
:101E0000F5CF18F00900F5CF19F00A00F5CF1AF058
:101E10002AC015F02BC016F02CC017F031EC12F0D0
:101E200015C027F016C028F017C029F027C015F0FC
:101E300028C016F029C017F0000E186E000E196E9B
:101E40003F0E1A6E31EC12F015C024F016C025F0CA
:101E500017C026F012000A0E2D6463D0000E126E19
:101E6000030E116E000E046E0A0E036E2DC001F0FB
:101E7000026A7DEC14F001C00FF002C010F008EC13
:101E800017F0500E0F24F66E100E1020F76EF86A41
:101E9000000EF8220900F5CF18F00900F5CF19F06F
:101EA0000A00F5CF1AF0000E0A6E0A0E096E2DC058
:101EB00007F0086ABDEC13F0090E07240F6E000E40
:101EC0000820106E000E126E030E116E08EC17F053
:101ED000500E0F24F66E100E1020F76EF86A000EEA
:101EE000F8220900F5CF15F00900F5CF16F00A0029
:101EF000F5CF17F031EC12F015C02AF016C02BF018
:101F000017C02CF02AC015F02BC016F02CC017F00B
:101F1000000E186E000E196E3F0E1A6E31EC12F0A4
:101F200093D72D50030D500EF324F66E100EF420AF
:101F3000F76EF86A000EF8220900F5CF15F00900D7
:101F4000F5CF16F00A00F5CF17F0000E186E000E50
:101F5000196E3F0E1A6E31EC12F015C024F016C047
:101F600025F017C026F0120030C034F0356A366A0A
:101F70002F34343601E335803450396E33C034F0B9
:101F8000356A366A3234343601E335803450386E7F
:101F90003950D8B40BD03850395CD8B00ED0395045
:101FA00000083824346E180E346407D031C02EF087
:101FB00032C02FF033C030F012003850D8B40BD0FC
:101FC0003950385CD8B00ED0385000083924346EFF
:101FD000180E346407D02EC02EF02FC02FF030C062
:101FE00030F01200060E376E30BE378E33BE378C9F
:101FF0002F8EFF0E2E16FF0E2F16000E3016328E6D
:10200000FF0E3116FF0E3216000E33163850395CB3
:10201000D8B01BD0D89031363236333638063950E6
:102020003818D8B40DD0370637C034F0070E341640
:10203000D8B406D0EFD7D89030322F322E32392A8A
:1020400038503918D8B41FD0F6D73950385CD8B0CA
:102050001AD0D8902E362F363036390639503818E7
:10206000D8B40DD0370637C034F0070E3416D8B4C4
:1020700006D0EFD7D890333232323132382A385046
:102080003918D8A4F7D737AE0CD0FF0E2E1AFF0E92
:102090002F1AFF0E301A010E2E26000E2F22000ED0
:1020A000302237AC0CD0FF0E311AFF0E321AFF0E61
:1020B000331A010E3126000E3222000E3322000E9A
:1020C000376E2E5031262F5032223050332233AE0D
:1020D0000ED0FF0E311AFF0E321AFF0E331A010E08
:1020E0003126000E3222000E3322010E376E31C02F
:1020F00001F032C002F033C003F039C004F037C041
:1021000005F01EEC13F001C02EF002C02FF003C04A
:1021100030F0120003C007F0086A096A023407367B
:1021200001E3088007500F6E0F50D8A409D0000EAD
:10213000016E000E026E000E036E000E046E1200A1
:1021400006C007F0086A096A0534073601E308800B
:1021500007500E6E0E50D8A409D0000E016E000E6E
:10216000026E000E036E000E046E1200028EFF0E51
:102170000116FF0E0216000E0316058EFF0E041642
:10218000FF0E0516000E0616000E0A6E000E0B6EF0
:10219000000E0C6E000E0D6E7F0E0F5E0E50980F2F
:1021A0000F5E180E0E6ED8900A360B360C360D36B2
:1021B0000450015C0550025806500358D8A007D0BF
:1021C0000450015E0550025A0650035A0A80D89006
:1021D0000136023603360E2EE6D70FAE16D00F505C
:1021E000800A970FD8B009D0000E016E000E026E63
:1021F000000E036E000E046E1200D8900D320C32E9
:102200000B320A320F3EF9D715D0170E0F640FD0DC
:10221000000E016E000E026E000E036E000E046EC4
:102220001200D8900A360B360C360D360F060F50BA
:10223000D8A4F7D70AC001F00BC002F00CC003F01D
:102240000DC004F01200033404340C6E0C50D8A4FA
:1022500009D0000E016E000E026E000E036E000E1D
:10226000046E1200063407340B6E0B50D8A409D04C
:10227000000E016E000E026E000E036E000E046E64
:102280001200038EFF0E0116FF0E0216FF0E03163C
:10229000000E0416068EFF0E0416FF0E0516FF0E26
:1022A0000616000E0716000E076E000E086E000ED2
:1022B000096E000E0A6E7F0E0C5E0B50A00F0C5EB6
:1022C000200E0B6ED8900736083609360A360450B1
:1022D000015C055002580650035807500458D8A016
:1022E00009D00450015E0550025A0650035A0750A7
:1022F000045A0780D89001360236033604360B2E76
:10230000E1D70CAE16D00C50800A9F0FD8B009D080
:10231000000E016E000E026E000E036E000E046EC3
:102320001200D8900A320932083207320C3EF9D72F
:1023300015D01F0E0C640FD0000E016E000E026E41
:10234000000E036E000E046E1200D8900736083699
:1023500009360A360C060C50D8A4F7D707C001F08E
:1023600008C002F009C003F00AC004F012002DC03A
:102370002FF0306A316A2C342F3601E330802F5031
:10238000396E3950D8A409D0000E2B6E000E2C6E79
:10239000000E2D6E000E2E6E1200170E2F6E2BC02B
:1023A00030F02CC031F02DC032F02F28336E04D025
:1023B000D890323231323032332EFAD73050346E38
:1023C0002C8EFF0E2B16FF0E2C16000E2D162B50EA
:1023D000356E2C50366E2D50376E386A8E0E395E43
:1023E00039AE16D03950800A8F0FD8B009D0000E00
:1023F0002B6E000E2C6E000E2D6E000E2E6E120037
:10240000D8903832373236323532393EF9D715D096
:10241000170E39640FD0000E2B6E000E2C6E000EBE
:102420002D6E000E2E6E1200D890353636363736A9
:10243000383639063950D8A4F7D73450D8B408D034
:10244000381E371E361E356C000E362237223822D3
:1024500035C02BF036C02CF037C02DF038C02EF030
:10246000120017C01BF01C6A1D6A16341B3601E3EC
:102470001C801B501E6E1E50D8A407D0000E156E77
:10248000000E166E000E176E12001AC01BF01C6AAA
:102490001D6A19341B3601E31C801B50236E235028
:1024A000D8A407D0000E156E000E166E000E176E23
:1024B000120023507B0F1E2617C023F01A50231A38
:1024C000800E2316168E198EFF0E1816FF0E191683
:1024D000000E1A16000E1F6E000E206E000E216EEA
:1024E000070E226E15A006D018501F261950202264
:1024F0001A502122D890173216321532D890183639
:1025000019361A36222EEED7090E226E15A006D0E5
:1025100018501F26195020221A502122D890173205
:1025200016321532D890213220321F32222EEED7A9
:102530001FC001F020C002F021C003F01EC004F053
:1025400023C005F01EEC13F001C015F002C016F018
:1025500003C017F0120026C02AF02B6A2C6A25341B
:102560002A3601E32B802A50316E3150D8A407D08F
:10257000000E246E000E256E000E266E120029C07D
:102580002AF02B6A2C6A28342A3601E32B802A5041
:10259000326E3250D8A407D0000E246E000E256E85
:1025A000000E266E1200000E2E6E000E2F6E000E14
:1025B000306E3250890F315E26C032F02950321A07
:1025C000800E3216258EFF0E2416FF0E2516000EE5
:1025D0002616288EFF0E2716FF0E2816000E291627
:1025E000180E2D6ED8902E362F3630362750245C9C
:1025F0002850255829502658D8A007D02750245EA7
:102600002850255A2950265A2E80D890243625360F
:1026100026362D2EE7D72EC001F02FC002F030C095
:1026200003F031C004F032C005F01EEC13F001C01D
:1026300024F002C025F003C026F012000450D8B4E4
:1026400005D0015002100310D8A40CD0000E016E6A
:10265000000E026E000E036E1200042AD8900332A0
:1026600002320132000E0114066E000E0214076ED3
:10267000FE0E0314086E065007100810D8B40CD0D4
:10268000ECD7042A010E0126000E0222000E0322BE
:10269000D890033202320132000E0114066E000E91
:1026A0000214076EFF0E0314086E06500710081080
:1026B000D8B406D0E6D70406D890013602360336E1
:1026C00002BE03D0020E0460F6D704A0029ED8908A
:1026D0000432045003120550D8A4038E01C001F047
:1026E00002C002F003C003F0120003AE16D001C016
:1026F00007F002C008F003C009F0071E081E091EFB
:10270000072A000E08220922000E0724016E000E7F
:102710000820026E800E0920036E06AE16D004C09B
:1027200007F005C008F006C009F0071E081E091EC4
:10273000072A000E08220922000E0724046E000E4C
:102740000820056E800E0920066E000E011A000E8C
:10275000021A800E031A000E041A000E051A800ECB
:10276000061A0450015C0550025806500358D8B0B0
:1027700002D0D8901200D8801200000E0C6E0AAE63
:1027800006D0096C0A1ED8B00A2A010E0C6E08AEDB
:1027900006D0076C081ED8B0082A010E0C1A000ECD
:1027A0000E6E000E0D6E09500A10D8B41CD0010E2A
:1027B0000B6E04D0D89009360A360B2A0AAEFAD727
:1027C000D8900D360E360950075C0A500858D8A02C
:1027D00005D00950075E0A50085A0D80D8900A3279
:1027E00009320B2EEDD70C50D8B404D00D6C0E1E50
:1027F000D8B00E2A0DC007F00EC008F01200000E6F
:10280000096E000E0A6E000E0B6E000E0C6E055067
:10281000061007100810D8B42AD0010E0D6E06D08D
:10282000D89005360636073608360D2A08AEF8D792
:10283000D89009360A360B360C360550015C065026
:1028400002580750035808500458D8A009D0055022
:10285000015E0650025A0750035A0850045A098074
:10286000D89008320732063205320D2EE1D709C062
:1028700001F00AC002F00BC003F00CC004F012001B
:1028800037D0B5EC14F033C05DF034C05EF035C025
:102890005FF0800E53EC15F0880E086E100E096E76
:1028A000E4EC15F0C00E53EC15F04D0E406E000E2A
:1028B000416ED80E426E100E436E5DC044F05EC095
:1028C00045F05FC046F06FEC08F04D0E086E000E4C
:1028D000096EE4EC15F0CB0E086E100E096EE4ECF8
:1028E00015F081B005D0DFEC16F0000E0001786F16
:1028F00000017805D8A41200C4D7000E066E02AEFF
:1029000006D0016C021ED8B0022A010E066E04AE7B
:1029100004D0036C041ED8B0042A03500410D8B4A9
:1029200018D0010E056E04D0D89003360436052A5F
:1029300004AEFAD70350015C04500258D8A004D06A
:102940000350015E0450025AD89004320332052E1F
:10295000F1D70650D8B404D0016C021ED8B0022AB8
:1029600001C001F002C002F01200000EB1EC16F03E
:1029700001C009F002C00AF07CEC16F009C036F084
:102980000AC037F00BC038F0000E186EA00E196E9A
:10299000400E1A6E36C015F037C016F038C017F06A
:1029A00031EC12F015C024F016C025F017C026F047
:1029B000C00E276E7F0E286E440E296EABEC12F00F
:1029C00024C036F025C037F026C038F036C033F0CA
:1029D00037C034F038C035F012000550061007102B
:1029E0000810D8B424D0010E096E06D0D890053650
:1029F000063607360836092A08AEF8D70550015CB6
:102A0000065002580750035808500458D8A008D060
:102A10000550015E0650025A0750035A0850045AE6
:102A2000D8900832073206320532092EE7D701C0A6
:102A300001F002C002F003C003F004C004F0120071
:102A4000076E410E066EEE0EE82EFED7062EFCD760
:102A500000D0800E046E120E5AEC17F00D0E066EAA
:102A6000FC0EE82EFED7062EFCD707C004F0130E8E
:102A70005AEC17F00D0E066EFC0EE82EFED7062E51
:102A8000FCD7C00E046E120E5AEC17F00D0E066E37
:102A9000FC0EE82EFED7062EFCD7000E046E120E9A
:102AA0005AEC17F01200076E410E066EEE0EE82E7D
:102AB000FED7062EFCD700D0000E046E120E5AEC84
:102AC00017F00D0E066EFC0EE82EFED7062EFCD774
:102AD00007C004F0130E5AEC17F00D0E066EFC0E34
:102AE000E82EFED7062EFCD7400E046E120E5AECCE
:102AF00017F00D0E066EFC0EE82EFED7062EFCD744
:102B0000000E046E120E5AEC17F0120072EC17F061
:102B1000979C8E9C410E086EEE0EE82EFED7082E76
:102B2000FCD700D08E8C000E4DEC17F0010E4DEC52
:102B300017F0000E046E120E5AEC17F0C30E086E5A
:102B4000CD0EE82EFED7082EFCD700F0320E53EC47
:102B500015F03C0E53EC15F00C0E53EC15F0010E75
:102B600053EC15F0060E53EC15F012008E0E116E9C
:102B700006D0D8900C320B320A320932112A000EDC
:102B800009140D6E000E0A140E6E000E0B140F6E5B
:102B9000FF0E0C14106E0D500E100F101010D8A454
:102BA000E8D709C001F00AC002F00BC003F011C061
:102BB00004F0000E056E1EEC13F001C009F002C017
:102BC0000AF003C00BF0120015D008C0F6FF09C0D0
:102BD000F7FF000EF86E0F0EF76403D00800F550F3
:102BE00005D0F6CFE9FFF7CFEAFFEF5020EC15F064
:102BF000084A092A08C0F6FF09C0F7FF000EF86E60
:102C00000F0EF76403D00800F55005D0F6CFE9FFAA
:102C1000F7CFEAFFEF500009D8B41200D6D7016E03
:102C200001C003F0000E026E070E026401D0120014
:102C300001AE02D08B8A01D08B9A8BA803D0D880AA
:102C4000033603D003500324036E8B8600F000F09C
:102C500000F000F000F000F000F000F000F000F0F4
:102C600000F000F08B96D8900136022ADDD7800E56
:102C700053EC15F0990E086E100E096EE4EC15F089
:102C8000C00E53EC15F0AA0E086E100E096EE4EC9F
:102C900015F00DD081B004D0DFEC16F040EC14F04C
:102CA00080BA05D0DFEC16F0000E0001786F00014D
:102CB0007805D8A41200EED73D503E103F10D8B48E
:102CC00006D0000E3D1A000E3E1A800E3F1A3AC082
:102CD0002EF03BC02FF03CC030F03DC031F03EC084
:102CE00032F03FC033F0B4EC0FF02EC03AF02FC0FA
:102CF0003BF030C03CF01200000E0C6E0AAE06D065
:102D0000096C0A1ED8B00A2A010E0C6E09C001F027
:102D10000AC002F0036A8E0E046E0CC005F01EECB1
:102D200013F001C009F002C00AF003C00BF012005A
:102D300086EC15F0800E53EC15F0BB0E086E100EED
:102D4000096EE4EC15F0C00E53EC15F0770E086E2A
:102D5000100E096EE4EC15F0F4EC16F00001782B7F
:102D60001200056E05C003F003460346C250031867
:102D7000C30B0318C26EC282C2B2FED7C450046E27
:102D8000036AC3500324016E000E0420026E120079
:102D9000016EC1500118F00B0118C16ECF0EC116A3
:102DA000C08EC050F80B0209C06EC050C70B080996
:102DB000C06EC280000EC36E000EC46E120007D03B
:102DC0000D0E016EFC0EE82EFED7012EFCD780BA48
:102DD00008D0F6D70D0E016EFC0EE82EFED7012EA0
:102DE000FCD781B01200F6D7000E036E630E0364A9
:102DF00001D01200020E026E860E016E990EE82EB0
:102E0000FED7012EFCD7022EFAD700F0032AEED708
:102E10000F501102F3CF13F0F4CF14F00F50120241
:102E2000F350142610501102F350142613C00FF063
:102E300014C010F01200015002100310D8B406D0D4
:102E4000000E011A000E021A800E031A01C001F0D2
:102E500002C002F003C003F0120067EC17F005D0C7
:102E600098EC16F002D037EC16F000017851000A09
:102E7000D8B4F6D7010AD8B4F6D7F7D7036E000E48
:102E8000026E3A0E036005D02F0E036402D0010ECD
:102E9000026E02C001F001301200046E8994400EEF
:102EA0000FEC16F004500FEC16F0000E0FEC16F0BD
:102EB00089841200056E8994400E0FEC16F00550BF
:102EC0000FEC16F004500FEC16F089841200000E7F
:102ED000896EF30E926E000E8A6E93680E0EC8EC29
:102EE00016F0120092949488949A949689848B8810
:102EF0008B9A8B9612000001786B776B00012DEF97
:022F000017F0C8
:020000040020DA
:08000000FFFFFFFFFFFFFFFF00
:020000040030CA
:0E000000FF061E1EF38381FFFFC0FFE0FF40DE
:00000001FF
