

Microchip Technology PIC18 LITE Macro Assembler V1.41 build -162212810 
                                                                                               Mon Apr 17 10:43:47 2017

Microchip Technology Omniscient Code Generator v1.41 (Free mode) build 201701250102
     1                           	processor	18F8722
     2                           	fnconf	rparam,??,?,0
     3                           	opt	pw 120
     4                           	opt	lm
     5                           	psect	smallconst,global,reloc=2,class=SMALLCONST,delta=1,noexec
     6                           	psect	cinit,global,reloc=2,class=CODE,delta=1
     7                           	psect	bssBANK0,global,class=BANK0,space=1,delta=1,lowdata,noexec
     8                           	psect	cstackBANK0,global,class=BANK0,space=1,delta=1,noexec
     9                           	psect	cstackCOMRAM,global,class=COMRAM,space=1,delta=1,noexec
    10                           	psect	text0,global,reloc=2,class=CODE,delta=1
    11                           	psect	text1,global,reloc=2,class=CODE,delta=1
    12                           	psect	text2,global,reloc=2,class=CODE,delta=1
    13                           	psect	text3,global,reloc=2,class=CODE,delta=1
    14                           	psect	text4,global,reloc=2,class=CODE,delta=1
    15                           	psect	text5,global,reloc=2,class=CODE,delta=1,group=1
    16                           	psect	text6,global,reloc=2,class=CODE,delta=1
    17                           	psect	text7,global,reloc=2,class=CODE,delta=1,group=1
    18                           	psect	text8,global,reloc=2,class=CODE,delta=1,group=1
    19                           	psect	text9,global,reloc=2,class=CODE,delta=1,group=1
    20                           	psect	text10,global,reloc=2,class=CODE,delta=1,group=1
    21                           	psect	text11,global,reloc=2,class=CODE,delta=1,group=1
    22                           	psect	text12,global,reloc=2,class=CODE,delta=1,group=1
    23                           	psect	text13,global,reloc=2,class=CODE,delta=1,group=1
    24                           	psect	text14,global,reloc=2,class=CODE,delta=1,group=1
    25                           	psect	text15,global,reloc=2,class=CODE,delta=1,group=1
    26                           	psect	text16,global,reloc=2,class=CODE,delta=1,group=1
    27                           	psect	text17,global,reloc=2,class=CODE,delta=1,group=1
    28                           	psect	text18,global,reloc=2,class=CODE,delta=1,group=1
    29                           	psect	text19,global,reloc=2,class=CODE,delta=1,group=1
    30                           	psect	text20,global,reloc=2,class=CODE,delta=1
    31                           	psect	text21,global,reloc=2,class=CODE,delta=1,group=1
    32                           	psect	text22,global,reloc=2,class=CODE,delta=1,group=1
    33                           	psect	text23,global,reloc=2,class=CODE,delta=1,group=1
    34                           	psect	text24,global,reloc=2,class=CODE,delta=1,group=1
    35                           	psect	text25,global,reloc=2,class=CODE,delta=1
    36                           	psect	text26,global,reloc=2,class=CODE,delta=1
    37                           	psect	text27,global,reloc=2,class=CODE,delta=1
    38                           	psect	text28,global,reloc=2,class=CODE,delta=1
    39                           	psect	text29,global,reloc=2,class=CODE,delta=1
    40                           	psect	text30,global,reloc=2,class=CODE,delta=1
    41                           	psect	text31,global,reloc=2,class=CODE,delta=1
    42                           	psect	text32,global,reloc=2,class=CODE,delta=1
    43                           	psect	text33,global,reloc=2,class=CODE,delta=1
    44                           	psect	text34,global,reloc=2,class=CODE,delta=1
    45                           	psect	text35,global,reloc=2,class=CODE,delta=1
    46                           	psect	text36,global,reloc=2,class=CODE,delta=1
    47                           	psect	text37,global,reloc=2,class=CODE,delta=1
    48                           	psect	text38,global,reloc=2,class=CODE,delta=1
    49                           	psect	intsave_regs,global,class=BIGRAM,space=1,delta=1,noexec
    50                           	psect	rparam,global,class=COMRAM,space=1,delta=1,noexec
    51  0000                     
    52                           ; Version 1.41
    53                           ; Generated 25/01/2017 GMT
    54                           ; 
    55                           ; Copyright © 2017, Microchip Technology Inc. and its subsidiaries ("Microchip")
    56                           ; All rights reserved.
    57                           ; 
    58                           ; This software is developed by Microchip Technology Inc. and its subsidiaries ("Microch
      +                          ip").
    59                           ; 
    60                           ; Redistribution and use in source and binary forms, with or without modification, are
    61                           ; permitted provided that the following conditions are met:
    62                           ; 
    63                           ;     1. Redistributions of source code must retain the above copyright notice, this lis
      +                          t of
    64                           ;        conditions and the following disclaimer.
    65                           ; 
    66                           ;     2. Redistributions in binary form must reproduce the above copyright notice, this 
      +                          list
    67                           ;        of conditions and the following disclaimer in the documentation and/or other
    68                           ;        materials provided with the distribution.
    69                           ; 
    70                           ;     3. Microchip's name may not be used to endorse or promote products derived from th
      +                          is
    71                           ;        software without specific prior written permission.
    72                           ; 
    73                           ; THIS SOFTWARE IS PROVIDED BY MICROCHIP "AS IS" AND ANY EXPRESS OR IMPLIED WARRANTIES,
    74                           ; INCLUDING, BUT NOT LIMITED TO, THE IMPLIED WARRANTIES OF MERCHANTABILITY AND FITNESS F
      +                          OR
    75                           ; PURPOSE ARE DISCLAIMED.  IN NO EVENT SHALL MICROCHIP BE LIABLE FOR ANY DIRECT, INDIREC
      +                          T,
    76                           ; INCIDENTAL, SPECIAL, EXEMPLARY, OR CONSEQUENTIAL DAMAGES (INCLUDING BUT NOT LIMITED TO
    77                           ; PROCUREMENT OF SUBSTITUTE GOODS OR SERVICES; LOSS OF USE, DATA OR PROFITS; OR BUSINESS
    78                           ; INTERRUPTION) HOWSOEVER CAUSED AND ON ANY THEORY OF LIABILITY, WHETHER IN CONTRACT, ST
      +                          RICT
    79                           ; LIABILITY, OR TORT (INCLUDING NEGLIGENCE OR OTHERWISE) ARISING IN ANY WAY OUT OF THE U
      +                          SE OF
    80                           ; THIS SOFTWARE, EVEN IF ADVISED OF THE POSSIBILITY OF SUCH DAMAGE.
    81                           ; 
    82                           ; 
    83                           ; Code-generator required, PIC18F8722 Definitions
    84                           ; 
    85                           ; SFR Addresses
    86  0000                     
    87                           	psect	smallconst
    88  001000                     __psmallconst:
    89                           	opt stack 0
    90  001000  00                 	db	0
    91  001001                     _dpowers:
    92                           	opt stack 0
    93  001001  0001               	dw	1
    94  001003  0000               	dw	0
    95  001005  000A               	dw	10
    96  001007  0000               	dw	0
    97  001009  0064               	dw	100
    98  00100B  0000               	dw	0
    99  00100D  03E8               	dw	1000
   100  00100F  0000               	dw	0
   101  001011  2710               	dw	10000
   102  001013  0000               	dw	0
   103  001015  86A0               	dw	34464
   104  001017  0001               	dw	1
   105  001019  4240               	dw	16960
   106  00101B  000F               	dw	15
   107  00101D  9680               	dw	38528
   108  00101F  0098               	dw	152
   109  001021  E100               	dw	57600
   110  001023  05F5               	dw	1525
   111  001025  CA00               	dw	51712
   112  001027  3B9A               	dw	15258
   113  001029                     __end_of_dpowers:
   114                           	opt stack 0
   115  001029                     __powers_:
   116                           	opt stack 0
   117  001029  00                 	db	0
   118  00102A  80                 	db	128
   119  00102B  3F                 	db	63
   120  00102C  00                 	db	0
   121  00102D  20                 	db	32
   122  00102E  41                 	db	65
   123  00102F  00                 	db	0
   124  001030  C8                 	db	200
   125  001031  42                 	db	66
   126  001032  00                 	db	0
   127  001033  7A                 	db	122
   128  001034  44                 	db	68
   129  001035  40                 	db	64
   130  001036  1C                 	db	28
   131  001037  46                 	db	70
   132  001038  50                 	db	80
   133  001039  C3                 	db	195
   134  00103A  47                 	db	71
   135  00103B  24                 	db	36
   136  00103C  74                 	db	116
   137  00103D  49                 	db	73
   138  00103E  97                 	db	151
   139  00103F  18                 	db	24
   140  001040  4B                 	db	75
   141  001041  BC                 	db	188
   142  001042  BE                 	db	190
   143  001043  4C                 	db	76
   144  001044  6B                 	db	107
   145  001045  6E                 	db	110
   146  001046  4E                 	db	78
   147  001047  03                 	db	3
   148  001048  15                 	db	21
   149  001049  50                 	db	80
   150  00104A  79                 	db	121
   151  00104B  AD                 	db	173
   152  00104C  60                 	db	96
   153  00104D  F3                 	db	243
   154  00104E  49                 	db	73
   155  00104F  71                 	db	113
   156  001050                     __end_of__powers_:
   157                           	opt stack 0
   158  001050                     __npowers_:
   159                           	opt stack 0
   160  001050  00                 	db	0
   161  001051  80                 	db	128
   162  001052  3F                 	db	63
   163  001053  CD                 	db	205
   164  001054  CC                 	db	204
   165  001055  3D                 	db	61
   166  001056  D7                 	db	215
   167  001057  23                 	db	35
   168  001058  3C                 	db	60
   169  001059  12                 	db	18
   170  00105A  83                 	db	131
   171  00105B  3A                 	db	58
   172  00105C  B7                 	db	183
   173  00105D  D1                 	db	209
   174  00105E  38                 	db	56
   175  00105F  C6                 	db	198
   176  001060  27                 	db	39
   177  001061  37                 	db	55
   178  001062  38                 	db	56
   179  001063  86                 	db	134
   180  001064  35                 	db	53
   181  001065  C0                 	db	192
   182  001066  D6                 	db	214
   183  001067  33                 	db	51
   184  001068  CC                 	db	204
   185  001069  2B                 	db	43
   186  00106A  32                 	db	50
   187  00106B  70                 	db	112
   188  00106C  89                 	db	137
   189  00106D  30                 	db	48
   190  00106E  E7                 	db	231
   191  00106F  DB                 	db	219
   192  001070  2E                 	db	46
   193  001071  E5                 	db	229
   194  001072  3C                 	db	60
   195  001073  1E                 	db	30
   196  001074  42                 	db	66
   197  001075  A2                 	db	162
   198  001076  0D                 	db	13
   199  001077                     __end_of__npowers_:
   200                           	opt stack 0
   201  0000                     _TRISB	set	3987
   202  0000                     _LATB	set	3978
   203  0000                     _TRISA	set	3986
   204  0000                     _LATA	set	3977
   205  0000                     _PORTAbits	set	3968
   206  0000                     _PORTBbits	set	3969
   207  0000                     _LATCbits	set	3979
   208  0000                     _LATAbits	set	3977
   209  0000                     _TRISCbits	set	3988
   210  0000                     _TRISAbits	set	3986
   211  0000                     _LATFbits	set	3982
   212  0000                     _TRISFbits	set	3991
   213  0000                     _ADRESH	set	4036
   214  0000                     _ADRESL	set	4035
   215  0000                     _ADCON0bits	set	4034
   216  0000                     _ADCON2bits	set	4032
   217  0000                     _ADCON1bits	set	4033
   218  001077                     STR_7:
   219  001077  20                 	db	32
   220  001078  50                 	db	80	;'P'
   221  001079  49                 	db	73	;'I'
   222  00107A  43                 	db	67	;'C'
   223  00107B  31                 	db	49	;'1'
   224  00107C  38                 	db	56	;'8'
   225  00107D  20                 	db	32
   226  00107E  45                 	db	69	;'E'
   227  00107F  78                 	db	120	;'x'
   228  001080  70                 	db	112	;'p'
   229  001081  6C                 	db	108	;'l'
   230  001082  6F                 	db	111	;'o'
   231  001083  72                 	db	114	;'r'
   232  001084  65                 	db	101	;'e'
   233  001085  72                 	db	114	;'r'
   234  001086  20                 	db	32
   235  001087  00                 	db	0
   236  001088                     STR_3:
   237  001088  56                 	db	86	;'V'
   238  001089  6F                 	db	111	;'o'
   239  00108A  6C                 	db	108	;'l'
   240  00108B  74                 	db	116	;'t'
   241  00108C  73                 	db	115	;'s'
   242  00108D  20                 	db	32
   243  00108E  3D                 	db	61	;'='
   244  00108F  20                 	db	32
   245  001090  20                 	db	32
   246  001091  20                 	db	32
   247  001092  20                 	db	32
   248  001093  20                 	db	32
   249  001094  20                 	db	32
   250  001095  20                 	db	32
   251  001096  20                 	db	32
   252  001097  20                 	db	32
   253  001098  00                 	db	0
   254  001099                     STR_1:
   255  001099  20                 	db	32
   256  00109A  20                 	db	32
   257  00109B  20                 	db	32
   258  00109C  56                 	db	86	;'V'
   259  00109D  6F                 	db	111	;'o'
   260  00109E  6C                 	db	108	;'l'
   261  00109F  74                 	db	116	;'t'
   262  0010A0  6D                 	db	109	;'m'
   263  0010A1  65                 	db	101	;'e'
   264  0010A2  74                 	db	116	;'t'
   265  0010A3  65                 	db	101	;'e'
   266  0010A4  72                 	db	114	;'r'
   267  0010A5  20                 	db	32
   268  0010A6  20                 	db	32
   269  0010A7  20                 	db	32
   270  0010A8  20                 	db	32
   271  0010A9  00                 	db	0
   272  0010AA                     STR_2:
   273  0010AA  52                 	db	82	;'R'
   274  0010AB  42                 	db	66	;'B'
   275  0010AC  30                 	db	48	;'0'
   276  0010AD  3D                 	db	61	;'='
   277  0010AE  4E                 	db	78	;'N'
   278  0010AF  6F                 	db	111	;'o'
   279  0010B0  77                 	db	119	;'w'
   280  0010B1  20                 	db	32
   281  0010B2  52                 	db	82	;'R'
   282  0010B3  41                 	db	65	;'A'
   283  0010B4  35                 	db	53	;'5'
   284  0010B5  3D                 	db	61	;'='
   285  0010B6  4E                 	db	78	;'N'
   286  0010B7  65                 	db	101	;'e'
   287  0010B8  78                 	db	120	;'x'
   288  0010B9  74                 	db	116	;'t'
   289  0010BA  00                 	db	0
   290  0010BB                     STR_6:
   291  0010BB  20                 	db	32
   292  0010BC  20                 	db	32
   293  0010BD  4D                 	db	77	;'M'
   294  0010BE  50                 	db	80	;'P'
   295  0010BF  55                 	db	85	;'U'
   296  0010C0  73                 	db	115	;'s'
   297  0010C1  20                 	db	32
   298  0010C2  79                 	db	121	;'y'
   299  0010C3  20                 	db	32
   300  0010C4  4D                 	db	77	;'M'
   301  0010C5  43                 	db	67	;'C'
   302  0010C6  55                 	db	85	;'U'
   303  0010C7  73                 	db	115	;'s'
   304  0010C8  20                 	db	32
   305  0010C9  20                 	db	32
   306  0010CA  00                 	db	0
   307  0010CB                     STR_5:
   308  0010CB  56                 	db	86	;'V'
   309  0010CC  20                 	db	32
   310  0010CD  20                 	db	32
   311  0010CE  20                 	db	32
   312  0010CF  52                 	db	82	;'R'
   313  0010D0  42                 	db	66	;'B'
   314  0010D1  30                 	db	48	;'0'
   315  0010D2  3D                 	db	61	;'='
   316  0010D3  45                 	db	69	;'E'
   317  0010D4  78                 	db	120	;'x'
   318  0010D5  69                 	db	105	;'i'
   319  0010D6  74                 	db	116	;'t'
   320  0010D7  00                 	db	0
   321  0010D8                     STR_4:
   322  0010D8  25                 	db	37
   323  0010D9  2E                 	db	46
   324  0010DA  32                 	db	50	;'2'
   325  0010DB  66                 	db	102	;'f'
   326  0010DC  00                 	db	0
   327                           
   328                           ; #config settings
   329  0010DD  00                 	db	0	; dummy byte at the end
   330  0000                     
   331                           	psect	cinit
   332  002EF6                     __pcinit:
   333                           	opt stack 0
   334  002EF6                     start_initialization:
   335                           	opt stack 0
   336  002EF6                     __initialization:
   337                           	opt stack 0
   338                           
   339                           ; Clear objects allocated to BANK0 (2 bytes)
   340  002EF6  0100               	movlb	0
   341  002EF8  6B78               	clrf	(__pbssBANK0+1)& (0+255),b
   342  002EFA  6B77               	clrf	__pbssBANK0& (0+255),b
   343  002EFC                     end_of_initialization:
   344                           	opt stack 0
   345  002EFC                     __end_of__initialization:
   346                           	opt stack 0
   347  002EFC  0100               	movlb	0
   348  002EFE  EF2D  F017         	goto	_main	;jump to C main() function
   349                           
   350                           	psect	bssBANK0
   351  000077                     __pbssBANK0:
   352                           	opt stack 0
   353  000077                     _StateMachine:
   354                           	opt stack 0
   355  000077                     	ds	1
   356  000078                     _State:
   357                           	opt stack 0
   358  000078                     	ds	1
   359                           
   360                           	psect	cstackBANK0
   361  000060                     __pcstackBANK0:
   362                           	opt stack 0
   363  000060                     _sprintf$1442:
   364                           	opt stack 0
   365                           
   366                           ; 3 bytes @ 0x0
   367  000060                     	ds	3
   368  000063                     sprintf@ap:
   369                           	opt stack 0
   370                           
   371                           ; 2 bytes @ 0x3
   372  000063                     	ds	2
   373  000065                     sprintf@flag:
   374                           	opt stack 0
   375                           
   376                           ; 2 bytes @ 0x5
   377  000065                     	ds	2
   378  000067                     sprintf@val:
   379                           	opt stack 0
   380                           
   381                           ; 4 bytes @ 0x7
   382  000067                     	ds	4
   383  00006B                     sprintf@exp:
   384                           	opt stack 0
   385                           
   386                           ; 2 bytes @ 0xB
   387  00006B                     	ds	2
   388  00006D                     sprintf@tmpval:
   389                           	opt stack 0
   390                           
   391                           ; 4 bytes @ 0xD
   392  00006D                     	ds	4
   393  000071                     sprintf@prec:
   394                           	opt stack 0
   395                           
   396                           ; 2 bytes @ 0x11
   397  000071                     	ds	2
   398  000073                     sprintf@fval:
   399                           	opt stack 0
   400                           
   401                           ; 3 bytes @ 0x13
   402  000073                     	ds	3
   403  000076                     sprintf@c:
   404                           	opt stack 0
   405                           
   406                           ; 1 bytes @ 0x16
   407  000076                     	ds	1
   408                           
   409                           	psect	cstackCOMRAM
   410  000001                     __pcstackCOMRAM:
   411                           	opt stack 0
   412  000001                     ??_SWdelay:
   413  000001                     ??_IntroDelay:
   414  000001                     ??_isdigit:
   415  000001                     ?_SetChGoADC:
   416                           	opt stack 0
   417  000001                     ?___awmod:
   418                           	opt stack 0
   419  000001                     ?___ftpack:
   420                           	opt stack 0
   421  000001                     ?___ftneg:
   422                           	opt stack 0
   423  000001                     ?__tdiv_to_l_:
   424                           	opt stack 0
   425  000001                     ?__div_to_l_:
   426                           	opt stack 0
   427  000001                     ?___lldiv:
   428                           	opt stack 0
   429  000001                     ?___llmod:
   430                           	opt stack 0
   431  000001                     SetUpADC@Channels:
   432                           	opt stack 0
   433  000001                     SendByteBBSPI@output:
   434                           	opt stack 0
   435  000001                     ___awmod@dividend:
   436                           	opt stack 0
   437  000001                     __div_to_l_@f1:
   438                           	opt stack 0
   439  000001                     ___ftpack@arg:
   440                           	opt stack 0
   441  000001                     __tdiv_to_l_@f1:
   442                           	opt stack 0
   443  000001                     ___ftge@ff1:
   444                           	opt stack 0
   445  000001                     ___ftneg@f1:
   446                           	opt stack 0
   447  000001                     ___lldiv@dividend:
   448                           	opt stack 0
   449  000001                     ___llmod@dividend:
   450                           	opt stack 0
   451                           
   452                           ; 4 bytes @ 0x0
   453  000001                     	ds	1
   454  000002                     SendByteBBSPI@bitcount:
   455                           	opt stack 0
   456  000002                     _isdigit$1094:
   457                           	opt stack 0
   458                           
   459                           ; 1 bytes @ 0x1
   460  000002                     	ds	1
   461  000003                     ??_SetChGoADC:
   462  000003                     SendByteBBSPI@input:
   463                           	opt stack 0
   464  000003                     IntroDelay@i:
   465                           	opt stack 0
   466  000003                     isdigit@c:
   467                           	opt stack 0
   468  000003                     ___awmod@divisor:
   469                           	opt stack 0
   470                           
   471                           ; 2 bytes @ 0x2
   472  000003                     	ds	1
   473  000004                     Port_BBSPIInit@port_dir:
   474                           	opt stack 0
   475  000004                     WritePort_BBSPI@a:
   476                           	opt stack 0
   477  000004                     ___ftpack@exp:
   478                           	opt stack 0
   479  000004                     __div_to_l_@f2:
   480                           	opt stack 0
   481  000004                     __tdiv_to_l_@f2:
   482                           	opt stack 0
   483  000004                     ___ftge@ff2:
   484                           	opt stack 0
   485                           
   486                           ; 3 bytes @ 0x3
   487  000004                     	ds	1
   488  000005                     SetChGoADC@Channel:
   489                           	opt stack 0
   490  000005                     WritePort_BBSPI@port_add:
   491                           	opt stack 0
   492  000005                     ___awmod@counter:
   493                           	opt stack 0
   494  000005                     ___ftpack@sign:
   495                           	opt stack 0
   496  000005                     ___lldiv@divisor:
   497                           	opt stack 0
   498  000005                     ___llmod@divisor:
   499                           	opt stack 0
   500                           
   501                           ; 4 bytes @ 0x4
   502  000005                     	ds	1
   503  000006                     ??_LCDPutInst:
   504  000006                     ??___ftpack:
   505  000006                     ??_LCDPutChar:
   506  000006                     ___awmod@sign:
   507                           	opt stack 0
   508                           
   509                           ; 1 bytes @ 0x5
   510  000006                     	ds	1
   511  000007                     ??__tdiv_to_l_:
   512  000007                     ??___ftge:
   513  000007                     ?___awdiv:
   514                           	opt stack 0
   515  000007                     LCDPutChar@ch:
   516                           	opt stack 0
   517  000007                     LCDPutInst@ch:
   518                           	opt stack 0
   519  000007                     ___awdiv@dividend:
   520                           	opt stack 0
   521  000007                     __div_to_l_@quot:
   522                           	opt stack 0
   523                           
   524                           ; 4 bytes @ 0x6
   525  000007                     	ds	1
   526  000008                     ??_LCDInit:
   527  000008                     LCDPutStr@ptr:
   528                           	opt stack 0
   529                           
   530                           ; 2 bytes @ 0x7
   531  000008                     	ds	1
   532  000009                     ?___awtoft:
   533                           	opt stack 0
   534  000009                     ?___lltoft:
   535                           	opt stack 0
   536  000009                     ___llmod@counter:
   537                           	opt stack 0
   538  000009                     ___awdiv@divisor:
   539                           	opt stack 0
   540  000009                     ___awtoft@c:
   541                           	opt stack 0
   542  000009                     ___lldiv@quotient:
   543                           	opt stack 0
   544  000009                     ___lltoft@c:
   545                           	opt stack 0
   546                           
   547                           ; 4 bytes @ 0x8
   548  000009                     	ds	1
   549  00000A                     __tdiv_to_l_@quot:
   550                           	opt stack 0
   551                           
   552                           ; 4 bytes @ 0x9
   553  00000A                     	ds	1
   554  00000B                     ___awdiv@counter:
   555                           	opt stack 0
   556  00000B                     __div_to_l_@cntr:
   557                           	opt stack 0
   558                           
   559                           ; 1 bytes @ 0xA
   560  00000B                     	ds	1
   561  00000C                     ___awdiv@sign:
   562                           	opt stack 0
   563  00000C                     ___awtoft@sign:
   564                           	opt stack 0
   565  00000C                     __div_to_l_@exp1:
   566                           	opt stack 0
   567                           
   568                           ; 1 bytes @ 0xB
   569  00000C                     	ds	1
   570  00000D                     ??___lltoft:
   571  00000D                     ___lldiv@counter:
   572                           	opt stack 0
   573  00000D                     ___awdiv@quotient:
   574                           	opt stack 0
   575                           
   576                           ; 2 bytes @ 0xC
   577  00000D                     	ds	1
   578  00000E                     __tdiv_to_l_@cntr:
   579                           	opt stack 0
   580                           
   581                           ; 1 bytes @ 0xD
   582  00000E                     	ds	1
   583  00000F                     ?___wmul:
   584                           	opt stack 0
   585  00000F                     __tdiv_to_l_@exp1:
   586                           	opt stack 0
   587  00000F                     ___wmul@multiplier:
   588                           	opt stack 0
   589                           
   590                           ; 2 bytes @ 0xE
   591  00000F                     	ds	2
   592  000011                     ___lltoft@exp:
   593                           	opt stack 0
   594  000011                     ___wmul@multiplicand:
   595                           	opt stack 0
   596                           
   597                           ; 2 bytes @ 0x10
   598  000011                     	ds	2
   599  000013                     ___wmul@product:
   600                           	opt stack 0
   601                           
   602                           ; 2 bytes @ 0x12
   603  000013                     	ds	2
   604  000015                     ?___ftmul:
   605                           	opt stack 0
   606  000015                     ___ftmul@f1:
   607                           	opt stack 0
   608                           
   609                           ; 3 bytes @ 0x14
   610  000015                     	ds	3
   611  000018                     ___ftmul@f2:
   612                           	opt stack 0
   613                           
   614                           ; 3 bytes @ 0x17
   615  000018                     	ds	3
   616  00001B                     ??___ftmul:
   617                           
   618                           ; 1 bytes @ 0x1A
   619  00001B                     	ds	3
   620  00001E                     ___ftmul@exp:
   621                           	opt stack 0
   622                           
   623                           ; 1 bytes @ 0x1D
   624  00001E                     	ds	1
   625  00001F                     ___ftmul@f3_as_product:
   626                           	opt stack 0
   627                           
   628                           ; 3 bytes @ 0x1E
   629  00001F                     	ds	3
   630  000022                     ___ftmul@cntr:
   631                           	opt stack 0
   632                           
   633                           ; 1 bytes @ 0x21
   634  000022                     	ds	1
   635  000023                     ___ftmul@sign:
   636                           	opt stack 0
   637                           
   638                           ; 1 bytes @ 0x22
   639  000023                     	ds	1
   640  000024                     ?___ftdiv:
   641                           	opt stack 0
   642  000024                     ?_fround:
   643                           	opt stack 0
   644  000024                     ?_scale:
   645                           	opt stack 0
   646  000024                     ___ftdiv@f1:
   647                           	opt stack 0
   648                           
   649                           ; 3 bytes @ 0x23
   650  000024                     	ds	3
   651  000027                     ___ftdiv@f2:
   652                           	opt stack 0
   653  000027                     _fround$1440:
   654                           	opt stack 0
   655  000027                     _scale$1441:
   656                           	opt stack 0
   657                           
   658                           ; 3 bytes @ 0x26
   659  000027                     	ds	3
   660  00002A                     ??___ftdiv:
   661  00002A                     scale@scl:
   662                           	opt stack 0
   663  00002A                     _fround$1439:
   664                           	opt stack 0
   665                           
   666                           ; 3 bytes @ 0x29
   667  00002A                     	ds	1
   668  00002B                     ?___fttol:
   669                           	opt stack 0
   670  00002B                     ___fttol@f1:
   671                           	opt stack 0
   672                           
   673                           ; 3 bytes @ 0x2A
   674  00002B                     	ds	2
   675  00002D                     fround@prec:
   676                           	opt stack 0
   677  00002D                     ___ftdiv@cntr:
   678                           	opt stack 0
   679                           
   680                           ; 1 bytes @ 0x2C
   681  00002D                     	ds	1
   682  00002E                     ?___ftadd:
   683                           	opt stack 0
   684  00002E                     ___ftadd@f1:
   685                           	opt stack 0
   686  00002E                     ___ftdiv@f3:
   687                           	opt stack 0
   688                           
   689                           ; 3 bytes @ 0x2D
   690  00002E                     	ds	1
   691  00002F                     ??___fttol:
   692                           
   693                           ; 1 bytes @ 0x2E
   694  00002F                     	ds	2
   695  000031                     ___ftdiv@exp:
   696                           	opt stack 0
   697  000031                     ___ftadd@f2:
   698                           	opt stack 0
   699                           
   700                           ; 3 bytes @ 0x30
   701  000031                     	ds	1
   702  000032                     ___ftdiv@sign:
   703                           	opt stack 0
   704                           
   705                           ; 1 bytes @ 0x31
   706  000032                     	ds	1
   707  000033                     ?_VoltResult:
   708                           	opt stack 0
   709                           
   710                           ; 3 bytes @ 0x32
   711  000033                     	ds	1
   712  000034                     ??___ftadd:
   713  000034                     ___fttol@sign1:
   714                           	opt stack 0
   715                           
   716                           ; 1 bytes @ 0x33
   717  000034                     	ds	1
   718  000035                     ___fttol@lval:
   719                           	opt stack 0
   720                           
   721                           ; 4 bytes @ 0x34
   722  000035                     	ds	1
   723  000036                     VoltResult@b:
   724                           	opt stack 0
   725                           
   726                           ; 3 bytes @ 0x35
   727  000036                     	ds	1
   728  000037                     ___ftadd@sign:
   729                           	opt stack 0
   730                           
   731                           ; 1 bytes @ 0x36
   732  000037                     	ds	1
   733  000038                     ___ftadd@exp2:
   734                           	opt stack 0
   735                           
   736                           ; 1 bytes @ 0x37
   737  000038                     	ds	1
   738  000039                     ___ftadd@exp1:
   739                           	opt stack 0
   740  000039                     ___fttol@exp1:
   741                           	opt stack 0
   742                           
   743                           ; 1 bytes @ 0x38
   744  000039                     	ds	1
   745  00003A                     ?___ftsub:
   746                           	opt stack 0
   747  00003A                     ___ftsub@f1:
   748                           	opt stack 0
   749                           
   750                           ; 3 bytes @ 0x39
   751  00003A                     	ds	3
   752  00003D                     ___ftsub@f2:
   753                           	opt stack 0
   754                           
   755                           ; 3 bytes @ 0x3C
   756  00003D                     	ds	3
   757  000040                     ?_sprintf:
   758                           	opt stack 0
   759  000040                     sprintf@sp:
   760                           	opt stack 0
   761                           
   762                           ; 2 bytes @ 0x3F
   763  000040                     	ds	2
   764  000042                     sprintf@f:
   765                           	opt stack 0
   766                           
   767                           ; 2 bytes @ 0x41
   768  000042                     	ds	5
   769  000047                     ??_sprintf:
   770                           
   771                           ; 1 bytes @ 0x46
   772  000047                     	ds	6
   773  00004D                     DispVolts@TextoLCD:
   774                           	opt stack 0
   775                           
   776                           ; 16 bytes @ 0x4C
   777  00004D                     	ds	16
   778  00005D                     DispVolts@a:
   779                           	opt stack 0
   780                           
   781                           ; 3 bytes @ 0x5C
   782  00005D                     	ds	3
   783  000060                     
   784                           ; 1 bytes @ 0x5F
   785 ;;
   786 ;;Main: autosize = 0, tempsize = 0, incstack = 0, save=0
   787 ;;
   788 ;; *************** function _main *****************
   789 ;; Defined at:
   790 ;;		line 18 in file "main.c"
   791 ;; Parameters:    Size  Location     Type
   792 ;;		None
   793 ;; Auto vars:     Size  Location     Type
   794 ;;		None
   795 ;; Return value:  Size  Location     Type
   796 ;;                  1    wreg      void 
   797 ;; Registers used:
   798 ;;		wreg, fsr0l, fsr0h, fsr2l, fsr2h, status,2, status,0, tblptrl, tblptrh, tblptru, prodl, prodh, cstack
   799 ;; Tracked objects:
   800 ;;		On entry : 0/0
   801 ;;		On exit  : 0/0
   802 ;;		Unchanged: 0/0
   803 ;; Data sizes:     COMRAM   BANK0   BANK1   BANK2   BANK3   BANK4   BANK5   BANK6   BANK7   BANK8   BANK9  BANK10  BANK1
      +1  BANK12  BANK13  BANK14  BANK15
   804 ;;      Params:         0       0       0       0       0       0       0       0       0       0       0       0       
      +0       0       0       0       0
   805 ;;      Locals:         0       0       0       0       0       0       0       0       0       0       0       0       
      +0       0       0       0       0
   806 ;;      Temps:          0       0       0       0       0       0       0       0       0       0       0       0       
      +0       0       0       0       0
   807 ;;      Totals:         0       0       0       0       0       0       0       0       0       0       0       0       
      +0       0       0       0       0
   808 ;;Total ram usage:        0 bytes
   809 ;; Hardware stack levels required when called:    6
   810 ;; This function calls:
   811 ;;		_Intro
   812 ;;		_SysInitialize
   813 ;;		_Voltmeter
   814 ;; This function is called by:
   815 ;;		Startup code after reset
   816 ;; This function uses a non-reentrant model
   817 ;;
   818                           
   819                           	psect	text0
   820  002E5A                     __ptext0:
   821                           	opt stack 0
   822  002E5A                     _main:
   823                           	opt stack 25
   824                           
   825                           ;main.c: 20: SysInitialize();
   826                           
   827                           ;incstack = 0
   828  002E5A  EC67  F017         	call	_SysInitialize	;wreg free
   829                           
   830                           ;main.c: 23: {
   831                           ;main.c: 24: switch(State)
   832                           
   833                           ;main.c: 22: while(1)
   834  002E5E  D005               	goto	l3093
   835  002E60                     l3087:
   836  002E60  EC98  F016         	call	_Intro	;wreg free
   837                           
   838                           ;main.c: 27: break;
   839  002E64  D002               	goto	l3093
   840  002E66                     l3089:
   841  002E66  EC37  F016         	call	_Voltmeter	;wreg free
   842  002E6A                     l3093:
   843  002E6A  0100               	movlb	0	; () banked
   844  002E6C  5178               	movf	_State& (0+255),w,b
   845                           
   846                           ; Switch size 1, requested type "space"
   847                           ; Number of cases is 2, Range of values is 0 to 1
   848                           ; switch strategies available:
   849                           ; Name         Instructions Cycles
   850                           ; simple_byte            7     4 (average)
   851                           ;	Chosen strategy is simple_byte
   852  002E6E  0A00               	xorlw	0	; case 0
   853  002E70  B4D8               	btfsc	status,2,c
   854  002E72  D7F6               	goto	l3087
   855  002E74  0A01               	xorlw	1	; case 1
   856  002E76  B4D8               	btfsc	status,2,c
   857  002E78  D7F6               	goto	l3089
   858                           
   859                           ; BSR set to: 0
   860                           
   861                           ; BSR set to: 0
   862  002E7A  D7F7               	goto	l3093
   863  002E7C                     __end_of_main:
   864                           	opt stack 0
   865                           status	equ	0xFD8
   866                           
   867 ;; *************** function _Voltmeter *****************
   868 ;; Defined at:
   869 ;;		line 13 in file "StateVoltmeter.c"
   870 ;; Parameters:    Size  Location     Type
   871 ;;		None
   872 ;; Auto vars:     Size  Location     Type
   873 ;;		None
   874 ;; Return value:  Size  Location     Type
   875 ;;                  1    wreg      void 
   876 ;; Registers used:
   877 ;;		wreg, fsr0l, fsr0h, fsr2l, fsr2h, status,2, status,0, tblptrl, tblptrh, tblptru, prodl, prodh, cstack
   878 ;; Tracked objects:
   879 ;;		On entry : 0/0
   880 ;;		On exit  : 0/0
   881 ;;		Unchanged: 0/0
   882 ;; Data sizes:     COMRAM   BANK0   BANK1   BANK2   BANK3   BANK4   BANK5   BANK6   BANK7   BANK8   BANK9  BANK10  BANK1
      +1  BANK12  BANK13  BANK14  BANK15
   883 ;;      Params:         0       0       0       0       0       0       0       0       0       0       0       0       
      +0       0       0       0       0
   884 ;;      Locals:         0       0       0       0       0       0       0       0       0       0       0       0       
      +0       0       0       0       0
   885 ;;      Temps:          0       0       0       0       0       0       0       0       0       0       0       0       
      +0       0       0       0       0
   886 ;;      Totals:         0       0       0       0       0       0       0       0       0       0       0       0       
      +0       0       0       0       0
   887 ;;Total ram usage:        0 bytes
   888 ;; Hardware stack levels used:    1
   889 ;; Hardware stack levels required when called:    5
   890 ;; This function calls:
   891 ;;		_DispVolts
   892 ;;		_LCDPutInst
   893 ;;		_LCDPutStr
   894 ;;		_SWdelay
   895 ;; This function is called by:
   896 ;;		_main
   897 ;; This function uses a non-reentrant model
   898 ;;
   899                           
   900                           	psect	text1
   901  002C6E                     __ptext1:
   902                           	opt stack 0
   903  002C6E                     _Voltmeter:
   904                           	opt stack 25
   905                           
   906                           ;StateVoltmeter.c: 16: LCDPutInst(0x80);
   907                           
   908                           ; BSR set to: 0
   909                           ;incstack = 0
   910  002C6E  0E80               	movlw	128
   911  002C70  EC53  F015         	call	_LCDPutInst
   912                           
   913                           ;StateVoltmeter.c: 17: LCDPutStr("   Voltmeter    ");
   914  002C74  0E99               	movlw	low STR_1
   915  002C76  6E08               	movwf	LCDPutStr@ptr,c
   916  002C78  0E10               	movlw	high STR_1
   917  002C7A  6E09               	movwf	LCDPutStr@ptr+1,c
   918  002C7C  ECE4  F015         	call	_LCDPutStr	;wreg free
   919                           
   920                           ;StateVoltmeter.c: 18: LCDPutInst(0xC0);
   921  002C80  0EC0               	movlw	192
   922  002C82  EC53  F015         	call	_LCDPutInst
   923                           
   924                           ;StateVoltmeter.c: 19: LCDPutStr("RB0=Now RA5=Next");
   925  002C86  0EAA               	movlw	low STR_2
   926  002C88  6E08               	movwf	LCDPutStr@ptr,c
   927  002C8A  0E10               	movlw	high STR_2
   928  002C8C  6E09               	movwf	LCDPutStr@ptr+1,c
   929  002C8E  ECE4  F015         	call	_LCDPutStr	;wreg free
   930                           
   931                           ;StateVoltmeter.c: 22: while (State == 1)
   932  002C92  D00D               	goto	l3067
   933  002C94                     l115:
   934                           
   935                           ; BSR set to: 0
   936                           ;StateVoltmeter.c: 23: {
   937                           ;StateVoltmeter.c: 24: if (PORTBbits.RB0 == 0)
   938  002C94  B081               	btfsc	3969,0,c	;volatile
   939  002C96  D004               	goto	l3061
   940                           
   941                           ; BSR set to: 0
   942                           ;StateVoltmeter.c: 25: {
   943                           ;StateVoltmeter.c: 26: SWdelay();
   944  002C98  ECDF  F016         	call	_SWdelay	;wreg free
   945                           
   946                           ;StateVoltmeter.c: 27: DispVolts();
   947  002C9C  EC40  F014         	call	_DispVolts	;wreg free
   948  002CA0                     l3061:
   949                           
   950                           ;StateVoltmeter.c: 28: }
   951                           ;StateVoltmeter.c: 29: if (PORTAbits.RA5 == 0)
   952  002CA0  BA80               	btfsc	3968,5,c	;volatile
   953  002CA2  D005               	goto	l3067
   954                           
   955                           ;StateVoltmeter.c: 30: {
   956                           ;StateVoltmeter.c: 31: SWdelay();
   957  002CA4  ECDF  F016         	call	_SWdelay	;wreg free
   958                           
   959                           ;StateVoltmeter.c: 32: State = 0;
   960  002CA8  0E00               	movlw	0
   961  002CAA  0100               	movlb	0	; () banked
   962  002CAC  6F78               	movwf	_State& (0+255),b
   963  002CAE                     l3067:
   964  002CAE  0100               	movlb	0	; () banked
   965  002CB0  0578               	decf	_State& (0+255),w,b
   966  002CB2  A4D8               	btfss	status,2,c
   967  002CB4  0012               	return	
   968  002CB6  D7EE               	goto	l115
   969  002CB8                     __end_of_Voltmeter:
   970                           	opt stack 0
   971                           status	equ	0xFD8
   972                           
   973 ;; *************** function _DispVolts *****************
   974 ;; Defined at:
   975 ;;		line 44 in file "StateVoltmeter.c"
   976 ;; Parameters:    Size  Location     Type
   977 ;;		None
   978 ;; Auto vars:     Size  Location     Type
   979 ;;  TextoLCD       16   76[COMRAM] unsigned char [16]
   980 ;;  a               3   92[COMRAM] float 
   981 ;; Return value:  Size  Location     Type
   982 ;;                  1    wreg      void 
   983 ;; Registers used:
   984 ;;		wreg, fsr0l, fsr0h, fsr2l, fsr2h, status,2, status,0, tblptrl, tblptrh, tblptru, prodl, prodh, cstack
   985 ;; Tracked objects:
   986 ;;		On entry : 0/0
   987 ;;		On exit  : 0/0
   988 ;;		Unchanged: 0/0
   989 ;; Data sizes:     COMRAM   BANK0   BANK1   BANK2   BANK3   BANK4   BANK5   BANK6   BANK7   BANK8   BANK9  BANK10  BANK1
      +1  BANK12  BANK13  BANK14  BANK15
   990 ;;      Params:         0       0       0       0       0       0       0       0       0       0       0       0       
      +0       0       0       0       0
   991 ;;      Locals:        19       0       0       0       0       0       0       0       0       0       0       0       
      +0       0       0       0       0
   992 ;;      Temps:          0       0       0       0       0       0       0       0       0       0       0       0       
      +0       0       0       0       0
   993 ;;      Totals:        19       0       0       0       0       0       0       0       0       0       0       0       
      +0       0       0       0       0
   994 ;;Total ram usage:       19 bytes
   995 ;; Hardware stack levels used:    1
   996 ;; Hardware stack levels required when called:    4
   997 ;; This function calls:
   998 ;;		_LCDPutInst
   999 ;;		_LCDPutStr
  1000 ;;		_SWdelay
  1001 ;;		_VoltResult
  1002 ;;		_sprintf
  1003 ;; This function is called by:
  1004 ;;		_Voltmeter
  1005 ;; This function uses a non-reentrant model
  1006 ;;
  1007                           
  1008                           	psect	text2
  1009  002880                     __ptext2:
  1010                           	opt stack 0
  1011  002880                     _DispVolts:
  1012                           	opt stack 25
  1013                           
  1014                           ;StateVoltmeter.c: 46: char TextoLCD[16];
  1015                           ;StateVoltmeter.c: 47: float a;
  1016                           ;StateVoltmeter.c: 49: while (State == 1)
  1017                           
  1018                           ; BSR set to: 0
  1019                           ;incstack = 0
  1020  002880  D037               	goto	l3039
  1021  002882                     l3021:
  1022                           
  1023                           ;StateVoltmeter.c: 50: {
  1024                           ;StateVoltmeter.c: 51: a = VoltResult();
  1025  002882  ECB5  F014         	call	_VoltResult	;wreg free
  1026  002886  C033  F05D         	movff	?_VoltResult,DispVolts@a
  1027  00288A  C034  F05E         	movff	?_VoltResult+1,DispVolts@a+1
  1028  00288E  C035  F05F         	movff	?_VoltResult+2,DispVolts@a+2
  1029                           
  1030                           ;StateVoltmeter.c: 54: LCDPutInst(0x80);
  1031  002892  0E80               	movlw	128
  1032  002894  EC53  F015         	call	_LCDPutInst
  1033                           
  1034                           ;StateVoltmeter.c: 55: LCDPutStr("Volts =         ");
  1035  002898  0E88               	movlw	low STR_3
  1036  00289A  6E08               	movwf	LCDPutStr@ptr,c
  1037  00289C  0E10               	movlw	high STR_3
  1038  00289E  6E09               	movwf	LCDPutStr@ptr+1,c
  1039  0028A0  ECE4  F015         	call	_LCDPutStr	;wreg free
  1040                           
  1041                           ;StateVoltmeter.c: 56: LCDPutInst(0xC0);
  1042  0028A4  0EC0               	movlw	192
  1043  0028A6  EC53  F015         	call	_LCDPutInst
  1044                           
  1045                           ;StateVoltmeter.c: 57: sprintf(TextoLCD, "%.2f", a);
  1046  0028AA  0E4D               	movlw	low DispVolts@TextoLCD
  1047  0028AC  6E40               	movwf	sprintf@sp,c
  1048  0028AE  0E00               	movlw	high DispVolts@TextoLCD
  1049  0028B0  6E41               	movwf	sprintf@sp+1,c
  1050  0028B2  0ED8               	movlw	low STR_4
  1051  0028B4  6E42               	movwf	sprintf@f,c
  1052  0028B6  0E10               	movlw	high STR_4
  1053  0028B8  6E43               	movwf	sprintf@f+1,c
  1054  0028BA  C05D  F044         	movff	DispVolts@a,?_sprintf+4
  1055  0028BE  C05E  F045         	movff	DispVolts@a+1,?_sprintf+5
  1056  0028C2  C05F  F046         	movff	DispVolts@a+2,?_sprintf+6
  1057  0028C6  EC6F  F008         	call	_sprintf	;wreg free
  1058                           
  1059                           ;StateVoltmeter.c: 58: LCDPutStr(TextoLCD);
  1060  0028CA  0E4D               	movlw	low DispVolts@TextoLCD
  1061  0028CC  6E08               	movwf	LCDPutStr@ptr,c
  1062  0028CE  0E00               	movlw	high DispVolts@TextoLCD
  1063  0028D0  6E09               	movwf	LCDPutStr@ptr+1,c
  1064  0028D2  ECE4  F015         	call	_LCDPutStr	;wreg free
  1065                           
  1066                           ;StateVoltmeter.c: 59: LCDPutStr("V   RB0=Exit");
  1067  0028D6  0ECB               	movlw	low STR_5
  1068  0028D8  6E08               	movwf	LCDPutStr@ptr,c
  1069  0028DA  0E10               	movlw	high STR_5
  1070  0028DC  6E09               	movwf	LCDPutStr@ptr+1,c
  1071  0028DE  ECE4  F015         	call	_LCDPutStr	;wreg free
  1072                           
  1073                           ;StateVoltmeter.c: 62: if (PORTBbits.RB0 == 0)
  1074  0028E2  B081               	btfsc	3969,0,c	;volatile
  1075  0028E4  D005               	goto	l3039
  1076                           
  1077                           ;StateVoltmeter.c: 63: {
  1078                           ;StateVoltmeter.c: 64: SWdelay();
  1079  0028E6  ECDF  F016         	call	_SWdelay	;wreg free
  1080                           
  1081                           ;StateVoltmeter.c: 65: State = 0;
  1082  0028EA  0E00               	movlw	0
  1083  0028EC  0100               	movlb	0	; () banked
  1084  0028EE  6F78               	movwf	_State& (0+255),b
  1085  0028F0                     l3039:
  1086  0028F0  0100               	movlb	0	; () banked
  1087  0028F2  0578               	decf	_State& (0+255),w,b
  1088  0028F4  A4D8               	btfss	status,2,c
  1089  0028F6  0012               	return	
  1090  0028F8  D7C4               	goto	l3021
  1091  0028FA                     __end_of_DispVolts:
  1092                           	opt stack 0
  1093                           status	equ	0xFD8
  1094                           
  1095 ;; *************** function _sprintf *****************
  1096 ;; Defined at:
  1097 ;;		line 492 in file "C:\Program Files (x86)\Microchip\xc8\v1.41\sources\common\doprnt.c"
  1098 ;; Parameters:    Size  Location     Type
  1099 ;;  sp              2   63[COMRAM] PTR unsigned char 
  1100 ;;		 -> DispVolts@TextoLCD(16), 
  1101 ;;  f               2   65[COMRAM] PTR const unsigned char 
  1102 ;;		 -> STR_4(5), 
  1103 ;; Auto vars:     Size  Location     Type
  1104 ;;  tmpval          4   13[BANK0 ] struct .
  1105 ;;  val             4    7[BANK0 ] unsigned long 
  1106 ;;  fval            3   19[BANK0 ] unsigned long 
  1107 ;;  cp              3    0        PTR const unsigned char 
  1108 ;;  prec            2   17[BANK0 ] int 
  1109 ;;  exp             2   11[BANK0 ] int 
  1110 ;;  flag            2    5[BANK0 ] unsigned short 
  1111 ;;  ap              2    3[BANK0 ] PTR void [1]
  1112 ;;		 -> ?_sprintf(2), 
  1113 ;;  len             2    0        unsigned int 
  1114 ;;  width           2    0        int 
  1115 ;;  c               1   22[BANK0 ] char 
  1116 ;;  d               1    0        unsigned char 
  1117 ;; Return value:  Size  Location     Type
  1118 ;;                  2   63[COMRAM] int 
  1119 ;; Registers used:
  1120 ;;		wreg, fsr2l, fsr2h, status,2, status,0, tblptrl, tblptrh, tblptru, prodl, prodh, cstack
  1121 ;; Tracked objects:
  1122 ;;		On entry : 0/0
  1123 ;;		On exit  : 0/0
  1124 ;;		Unchanged: 0/0
  1125 ;; Data sizes:     COMRAM   BANK0   BANK1   BANK2   BANK3   BANK4   BANK5   BANK6   BANK7   BANK8   BANK9  BANK10  BANK1
      +1  BANK12  BANK13  BANK14  BANK15
  1126 ;;      Params:         7       0       0       0       0       0       0       0       0       0       0       0       
      +0       0       0       0       0
  1127 ;;      Locals:         0      23       0       0       0       0       0       0       0       0       0       0       
      +0       0       0       0       0
  1128 ;;      Temps:          6       0       0       0       0       0       0       0       0       0       0       0       
      +0       0       0       0       0
  1129 ;;      Totals:        13      23       0       0       0       0       0       0       0       0       0       0       
      +0       0       0       0       0
  1130 ;;Total ram usage:       36 bytes
  1131 ;; Hardware stack levels used:    1
  1132 ;; Hardware stack levels required when called:    3
  1133 ;; This function calls:
  1134 ;;		___awdiv
  1135 ;;		___ftadd
  1136 ;;		___ftge
  1137 ;;		___ftmul
  1138 ;;		___ftneg
  1139 ;;		___ftsub
  1140 ;;		___fttol
  1141 ;;		___lldiv
  1142 ;;		___llmod
  1143 ;;		___lltoft
  1144 ;;		___wmul
  1145 ;;		__div_to_l_
  1146 ;;		__tdiv_to_l_
  1147 ;;		_fround
  1148 ;;		_isdigit
  1149 ;;		_scale
  1150 ;; This function is called by:
  1151 ;;		_DispVolts
  1152 ;; This function uses a non-reentrant model
  1153 ;;
  1154                           
  1155                           	psect	text3
  1156  0010DE                     __ptext3:
  1157                           	opt stack 0
  1158  0010DE                     _sprintf:
  1159                           	opt stack 25
  1160                           
  1161                           ;doprnt.c: 494: va_list ap;
  1162                           ;doprnt.c: 499: signed char c;
  1163                           ;doprnt.c: 501: int width;
  1164                           ;doprnt.c: 504: int prec;
  1165                           ;doprnt.c: 508: unsigned short flag;
  1166                           ;doprnt.c: 515: char d;
  1167                           ;doprnt.c: 516: double fval;
  1168                           ;doprnt.c: 517: int exp;
  1169                           ;doprnt.c: 523: union {
  1170                           ;doprnt.c: 524: unsigned long vd;
  1171                           ;doprnt.c: 525: double integ;
  1172                           ;doprnt.c: 526: } tmpval;
  1173                           ;doprnt.c: 528: unsigned long val;
  1174                           ;doprnt.c: 529: unsigned len;
  1175                           ;doprnt.c: 530: const char * cp;
  1176                           ;doprnt.c: 533: *ap = __va_start();
  1177                           
  1178                           ; BSR set to: 0
  1179                           ;incstack = 0
  1180  0010DE  0E44               	movlw	low (?_sprintf+4)
  1181  0010E0  0100               	movlb	0	; () banked
  1182  0010E2  6F63               	movwf	sprintf@ap& (0+255),b
  1183  0010E4  0E00               	movlw	high (?_sprintf+4)
  1184  0010E6  0100               	movlb	0	; () banked
  1185  0010E8  6F64               	movwf	(sprintf@ap+1)& (0+255),b
  1186                           
  1187                           ;doprnt.c: 536: while(c = *f++) {
  1188  0010EA  D3D7               	goto	l2969
  1189  0010EC                     l2771:
  1190                           
  1191                           ; BSR set to: 0
  1192                           ;doprnt.c: 538: if(c != '%')
  1193  0010EC  0E25               	movlw	37
  1194  0010EE  0100               	movlb	0	; () banked
  1195  0010F0  1976               	xorwf	sprintf@c& (0+255),w,b
  1196  0010F2  B4D8               	btfsc	status,2,c
  1197  0010F4  D007               	goto	l2777
  1198                           
  1199                           ; BSR set to: 0
  1200                           ;doprnt.c: 540: {
  1201                           ;doprnt.c: 541: ((*sp++ = (c)));
  1202  0010F6  C040  FFD9         	movff	sprintf@sp,fsr2l
  1203  0010FA  C041  FFDA         	movff	sprintf@sp+1,fsr2h
  1204  0010FE  C076  FFDF         	movff	sprintf@c,indf2
  1205  001102  D3C9               	goto	l2967
  1206  001104                     l2777:
  1207                           
  1208                           ; BSR set to: 0
  1209                           ;doprnt.c: 543: }
  1210                           ;doprnt.c: 548: flag = 0;
  1211  001104  0E00               	movlw	0
  1212  001106  0100               	movlb	0	; () banked
  1213  001108  6F66               	movwf	(sprintf@flag+1)& (0+255),b
  1214  00110A  0E00               	movlw	0
  1215  00110C  6F65               	movwf	sprintf@flag& (0+255),b
  1216                           
  1217                           ; BSR set to: 0
  1218                           ;doprnt.c: 611: if(*f == '.') {
  1219  00110E  C042  FFF6         	movff	sprintf@f,tblptrl
  1220  001112  C043  FFF7         	movff	sprintf@f+1,tblptrh
  1221  001116                     	if	0	;tblptru may be non-zero
  1222  001116                     	endif
  1223  001116                     	if	1	;Program memory is > 0xFFFF, there are 3 active tblptr bytes
  1224  001116  0E00               	movlw	low (__mediumconst shr (0+16))
  1225  001118  6EF8               	movwf	tblptru,c
  1226  00111A                     	endif
  1227  00111A  0008               	tblrd		*
  1228  00111C  50F5               	movf	tablat,w,c
  1229  00111E  0A2E               	xorlw	46
  1230  001120  A4D8               	btfss	status,2,c
  1231  001122  D036               	goto	l2791
  1232                           
  1233                           ; BSR set to: 0
  1234                           ;doprnt.c: 612: flag |= 0x4000;
  1235  001124  0100               	movlb	0	; () banked
  1236  001126  8D66               	bsf	(sprintf@flag+1)& (0+255),6,b
  1237                           
  1238                           ;doprnt.c: 613: f++;
  1239  001128  4A42               	infsnz	sprintf@f,f,c
  1240  00112A  2A43               	incf	sprintf@f+1,f,c
  1241                           
  1242                           ; BSR set to: 0
  1243                           ;doprnt.c: 620: {
  1244                           ;doprnt.c: 621: prec = 0;
  1245  00112C  0E00               	movlw	0
  1246  00112E  0100               	movlb	0	; () banked
  1247  001130  6F72               	movwf	(sprintf@prec+1)& (0+255),b
  1248  001132  0E00               	movlw	0
  1249  001134  6F71               	movwf	sprintf@prec& (0+255),b
  1250                           
  1251                           ;doprnt.c: 622: while(isdigit((unsigned)*f))
  1252  001136  D01F               	goto	l2789
  1253  001138                     l2785:
  1254                           
  1255                           ;doprnt.c: 623: prec = prec*10 + *f++ - '0';
  1256  001138  C071  F00F         	movff	sprintf@prec,___wmul@multiplier
  1257  00113C  C072  F010         	movff	sprintf@prec+1,___wmul@multiplier+1
  1258  001140  0E00               	movlw	0
  1259  001142  6E12               	movwf	___wmul@multiplicand+1,c
  1260  001144  0E0A               	movlw	10
  1261  001146  6E11               	movwf	___wmul@multiplicand,c
  1262  001148  EC08  F017         	call	___wmul	;wreg free
  1263  00114C  C042  FFF6         	movff	sprintf@f,tblptrl
  1264  001150  C043  FFF7         	movff	sprintf@f+1,tblptrh
  1265  001154                     	if	0	;tblptru may be non-zero
  1266  001154                     	endif
  1267  001154                     	if	1	;Program memory is > 0xFFFF, there are 3 active tblptr bytes
  1268  001154  0E00               	movlw	low (__mediumconst shr (0+16))
  1269  001156  6EF8               	movwf	tblptru,c
  1270  001158                     	endif
  1271  001158  0008               	tblrd		*
  1272  00115A  50F5               	movf	tablat,w,c
  1273  00115C  260F               	addwf	?___wmul,f,c
  1274  00115E  0E00               	movlw	0
  1275  001160  2210               	addwfc	?___wmul+1,f,c
  1276  001162  0ED0               	movlw	208
  1277  001164  240F               	addwf	?___wmul,w,c
  1278  001166  0100               	movlb	0	; () banked
  1279  001168  6F71               	movwf	sprintf@prec& (0+255),b
  1280  00116A  0EFF               	movlw	255
  1281  00116C  2010               	addwfc	?___wmul+1,w,c
  1282  00116E  0100               	movlb	0	; () banked
  1283  001170  6F72               	movwf	(sprintf@prec+1)& (0+255),b
  1284                           
  1285                           ; BSR set to: 0
  1286  001172  4A42               	infsnz	sprintf@f,f,c
  1287  001174  2A43               	incf	sprintf@f+1,f,c
  1288  001176                     l2789:
  1289                           
  1290                           ; BSR set to: 0
  1291  001176  C042  FFF6         	movff	sprintf@f,tblptrl
  1292  00117A  C043  FFF7         	movff	sprintf@f+1,tblptrh
  1293  00117E                     	if	0	;tblptru may be non-zero
  1294  00117E                     	endif
  1295  00117E                     	if	1	;Program memory is > 0xFFFF, there are 3 active tblptr bytes
  1296  00117E  0E00               	movlw	low (__mediumconst shr (0+16))
  1297  001180  6EF8               	movwf	tblptru,c
  1298  001182                     	endif
  1299  001182  0008               	tblrd		*
  1300  001184  50F5               	movf	tablat,w,c
  1301  001186  EC3E  F017         	call	_isdigit
  1302  00118A  A0D8               	btfss	status,0,c
  1303  00118C  D00C               	goto	l2799
  1304  00118E  D7D4               	goto	l2785
  1305  001190                     l2791:
  1306                           
  1307                           ;doprnt.c: 626: prec = 0;
  1308  001190  0E00               	movlw	0
  1309  001192  0100               	movlb	0	; () banked
  1310  001194  6F72               	movwf	(sprintf@prec+1)& (0+255),b
  1311  001196  0E00               	movlw	0
  1312  001198  6F71               	movwf	sprintf@prec& (0+255),b
  1313                           
  1314                           ; BSR set to: 0
  1315                           ;doprnt.c: 628: flag |= 0x1000;
  1316  00119A  0100               	movlb	0	; () banked
  1317  00119C  8966               	bsf	(sprintf@flag+1)& (0+255),4,b
  1318                           
  1319                           ; BSR set to: 0
  1320                           ;doprnt.c: 630: }
  1321                           ;doprnt.c: 635: switch(c = *f++) {
  1322  00119E  D003               	goto	l2799
  1323  0011A0                     l2795:
  1324                           
  1325                           ; BSR set to: 0
  1326                           ;doprnt.c: 663: flag |= 0x400;
  1327  0011A0  0100               	movlb	0	; () banked
  1328  0011A2  8566               	bsf	(sprintf@flag+1)& (0+255),2,b
  1329                           
  1330                           ;doprnt.c: 664: break;
  1331  0011A4  D014               	goto	l2801
  1332  0011A6                     l2799:
  1333  0011A6  C042  FFF6         	movff	sprintf@f,tblptrl
  1334  0011AA  C043  FFF7         	movff	sprintf@f+1,tblptrh
  1335  0011AE  4A42               	infsnz	sprintf@f,f,c
  1336  0011B0  2A43               	incf	sprintf@f+1,f,c
  1337  0011B2                     	if	0	;tblptru may be non-zero
  1338  0011B2                     	endif
  1339  0011B2                     	if	1	;Program memory is > 0xFFFF, there are 3 active tblptr bytes
  1340  0011B2  0E00               	movlw	low (__mediumconst shr (0+16))
  1341  0011B4  6EF8               	movwf	tblptru,c
  1342  0011B6                     	endif
  1343  0011B6  0008               	tblrd		*
  1344  0011B8  CFF5 F076          	movff	tablat,sprintf@c
  1345  0011BC  0100               	movlb	0	; () banked
  1346  0011BE  5176               	movf	sprintf@c& (0+255),w,b
  1347                           
  1348                           ; Switch size 1, requested type "space"
  1349                           ; Number of cases is 2, Range of values is 0 to 102
  1350                           ; switch strategies available:
  1351                           ; Name         Instructions Cycles
  1352                           ; simple_byte            7     4 (average)
  1353                           ;	Chosen strategy is simple_byte
  1354  0011C0  0A00               	xorlw	0	; case 0
  1355  0011C2  B4D8               	btfsc	status,2,c
  1356  0011C4  D379               	goto	l2971
  1357  0011C6  0A66               	xorlw	102	; case 102
  1358  0011C8  B4D8               	btfsc	status,2,c
  1359  0011CA  D7EA               	goto	l2795
  1360  0011CC  D366               	goto	l2969
  1361  0011CE                     l2801:
  1362                           
  1363                           ; BSR set to: 0
  1364                           ;doprnt.c: 825: if(flag & (0x700)) {
  1365  0011CE  0E07               	movlw	7
  1366  0011D0  0100               	movlb	0	; () banked
  1367  0011D2  1566               	andwf	(sprintf@flag+1)& (0+255),w,b
  1368  0011D4  B4D8               	btfsc	status,2,c
  1369  0011D6  D312               	goto	l2949
  1370                           
  1371                           ; BSR set to: 0
  1372                           ;doprnt.c: 827: if(flag & 0x1000)
  1373  0011D8  0100               	movlb	0	; () banked
  1374  0011DA  A966               	btfss	(sprintf@flag+1)& (0+255),4,b
  1375  0011DC  D005               	goto	l2807
  1376                           
  1377                           ; BSR set to: 0
  1378                           ;doprnt.c: 829: prec = 6;
  1379  0011DE  0E00               	movlw	0
  1380  0011E0  0100               	movlb	0	; () banked
  1381  0011E2  6F72               	movwf	(sprintf@prec+1)& (0+255),b
  1382  0011E4  0E06               	movlw	6
  1383  0011E6  6F71               	movwf	sprintf@prec& (0+255),b
  1384  0011E8                     l2807:
  1385                           
  1386                           ; BSR set to: 0
  1387                           ;doprnt.c: 830: fval = (*(double *)__va_arg((*(double **)ap), (double)0));
  1388  0011E8  C063  FFD9         	movff	sprintf@ap,fsr2l
  1389  0011EC  C064  FFDA         	movff	sprintf@ap+1,fsr2h
  1390  0011F0  CFDE F073          	movff	postinc2,sprintf@fval
  1391  0011F4  CFDE F074          	movff	postinc2,sprintf@fval+1
  1392  0011F8  CFDD F075          	movff	postdec2,sprintf@fval+2
  1393                           
  1394                           ; BSR set to: 0
  1395  0011FC  0E03               	movlw	3
  1396  0011FE  0100               	movlb	0	; () banked
  1397  001200  2763               	addwf	sprintf@ap& (0+255),f,b
  1398  001202  0E00               	movlw	0
  1399  001204  2364               	addwfc	(sprintf@ap+1)& (0+255),f,b
  1400                           
  1401                           ; BSR set to: 0
  1402                           ;doprnt.c: 831: if(fval < 0.0) {
  1403  001206  0100               	movlb	0	; () banked
  1404  001208  AF75               	btfss	(sprintf@fval+2)& (0+255),7,b
  1405  00120A  D011               	goto	l2817
  1406                           
  1407                           ; BSR set to: 0
  1408                           ;doprnt.c: 832: fval = -fval;
  1409  00120C  C073  F001         	movff	sprintf@fval,___ftneg@f1
  1410  001210  C074  F002         	movff	sprintf@fval+1,___ftneg@f1+1
  1411  001214  C075  F003         	movff	sprintf@fval+2,___ftneg@f1+2
  1412  001218  EC1B  F017         	call	___ftneg	;wreg free
  1413  00121C  C001  F073         	movff	?___ftneg,sprintf@fval
  1414  001220  C002  F074         	movff	?___ftneg+1,sprintf@fval+1
  1415  001224  C003  F075         	movff	?___ftneg+2,sprintf@fval+2
  1416                           
  1417                           ;doprnt.c: 833: flag |= 0x03;
  1418  001228  0E03               	movlw	3
  1419  00122A  0100               	movlb	0	; () banked
  1420  00122C  1365               	iorwf	sprintf@flag& (0+255),f,b
  1421  00122E                     l2817:
  1422                           
  1423                           ; BSR set to: 0
  1424                           ;doprnt.c: 834: }
  1425                           ;doprnt.c: 835: exp = 0;
  1426  00122E  0E00               	movlw	0
  1427  001230  0100               	movlb	0	; () banked
  1428  001232  6F6C               	movwf	(sprintf@exp+1)& (0+255),b
  1429  001234  0E00               	movlw	0
  1430  001236  6F6B               	movwf	sprintf@exp& (0+255),b
  1431                           
  1432                           ; BSR set to: 0
  1433                           ;doprnt.c: 836: if( fval!=0) {
  1434  001238  0100               	movlb	0	; () banked
  1435  00123A  5173               	movf	sprintf@fval& (0+255),w,b
  1436  00123C  0100               	movlb	0	; () banked
  1437  00123E  1174               	iorwf	(sprintf@fval+1)& (0+255),w,b
  1438  001240  0100               	movlb	0	; () banked
  1439  001242  1175               	iorwf	(sprintf@fval+2)& (0+255),w,b
  1440  001244  B4D8               	btfsc	status,2,c
  1441  001246  D08B               	goto	l2845
  1442                           
  1443                           ; BSR set to: 0
  1444                           ;doprnt.c: 837: (void)(*(&exp) = ((*(unsigned long *)&fval >> 15) & 255) - 126);
  1445  001248  0E82               	movlw	130
  1446  00124A  6E47               	movwf	??_sprintf& (0+255),c
  1447  00124C  0EFF               	movlw	255
  1448  00124E  6E48               	movwf	(??_sprintf+1)& (0+255),c
  1449  001250  C073  F049         	movff	sprintf@fval,??_sprintf+2
  1450  001254  C074  F04A         	movff	sprintf@fval+1,??_sprintf+3
  1451  001258  C075  F04B         	movff	sprintf@fval+2,??_sprintf+4
  1452  00125C  C076  F04C         	movff	sprintf@fval+3,??_sprintf+5
  1453  001260  0E10               	movlw	16
  1454  001262  D005               	goto	u2650
  1455  001264                     u2655:
  1456  001264  90D8               	bcf	status,0,c
  1457  001266  324C               	rrcf	??_sprintf+5,f,c
  1458  001268  324B               	rrcf	??_sprintf+4,f,c
  1459  00126A  324A               	rrcf	??_sprintf+3,f,c
  1460  00126C  3249               	rrcf	??_sprintf+2,f,c
  1461  00126E                     u2650:
  1462  00126E  2EE8               	decfsz	wreg,f,c
  1463  001270  D7F9               	goto	u2655
  1464  001272  5049               	movf	??_sprintf+2,w,c
  1465  001274  2447               	addwf	??_sprintf,w,c
  1466  001276  0100               	movlb	0	; () banked
  1467  001278  6F6B               	movwf	sprintf@exp& (0+255),b
  1468  00127A  0E00               	movlw	0
  1469  00127C  2048               	addwfc	??_sprintf+1,w,c
  1470  00127E  0100               	movlb	0	; () banked
  1471  001280  6F6C               	movwf	(sprintf@exp+1)& (0+255),b
  1472                           
  1473                           ; BSR set to: 0
  1474                           ;doprnt.c: 838: exp--;
  1475  001282  0100               	movlb	0	; () banked
  1476  001284  076B               	decf	sprintf@exp& (0+255),f,b
  1477  001286  A0D8               	btfss	status,0,c
  1478  001288  076C               	decf	(sprintf@exp+1)& (0+255),f,b
  1479                           
  1480                           ; BSR set to: 0
  1481                           ;doprnt.c: 839: exp *= 3;
  1482  00128A  C06B  F00F         	movff	sprintf@exp,___wmul@multiplier
  1483  00128E  C06C  F010         	movff	sprintf@exp+1,___wmul@multiplier+1
  1484  001292  0E00               	movlw	0
  1485  001294  6E12               	movwf	___wmul@multiplicand+1,c
  1486  001296  0E03               	movlw	3
  1487  001298  6E11               	movwf	___wmul@multiplicand,c
  1488  00129A  EC08  F017         	call	___wmul	;wreg free
  1489  00129E  C00F  F06B         	movff	?___wmul,sprintf@exp
  1490  0012A2  C010  F06C         	movff	?___wmul+1,sprintf@exp+1
  1491                           
  1492                           ;doprnt.c: 840: exp /= 10;
  1493  0012A6  C06B  F007         	movff	sprintf@exp,___awdiv@dividend
  1494  0012AA  C06C  F008         	movff	sprintf@exp+1,___awdiv@dividend+1
  1495  0012AE  0E00               	movlw	0
  1496  0012B0  6E0A               	movwf	___awdiv@divisor+1,c
  1497  0012B2  0E0A               	movlw	10
  1498  0012B4  6E09               	movwf	___awdiv@divisor,c
  1499  0012B6  ECBD  F013         	call	___awdiv	;wreg free
  1500  0012BA  C007  F06B         	movff	?___awdiv,sprintf@exp
  1501  0012BE  C008  F06C         	movff	?___awdiv+1,sprintf@exp+1
  1502                           
  1503                           ;doprnt.c: 841: if(exp < 0)
  1504  0012C2  0100               	movlb	0	; () banked
  1505  0012C4  AF6C               	btfss	(sprintf@exp+1)& (0+255),7,b
  1506  0012C6  D004               	goto	l2833
  1507                           
  1508                           ; BSR set to: 0
  1509                           ;doprnt.c: 842: exp--;
  1510  0012C8  0100               	movlb	0	; () banked
  1511  0012CA  076B               	decf	sprintf@exp& (0+255),f,b
  1512  0012CC  A0D8               	btfss	status,0,c
  1513  0012CE  076C               	decf	(sprintf@exp+1)& (0+255),f,b
  1514  0012D0                     l2833:
  1515                           
  1516                           ; BSR set to: 0
  1517                           ;doprnt.c: 846: tmpval.integ = scale(-exp);
  1518  0012D0  0100               	movlb	0	; () banked
  1519  0012D2  516B               	movf	sprintf@exp& (0+255),w,b
  1520  0012D4  0800               	sublw	0
  1521  0012D6  EC63  F00C         	call	_scale
  1522  0012DA  C024  F06D         	movff	?_scale,sprintf@tmpval
  1523  0012DE  C025  F06E         	movff	?_scale+1,sprintf@tmpval+1
  1524  0012E2  C026  F06F         	movff	?_scale+2,sprintf@tmpval+2
  1525                           
  1526                           ;doprnt.c: 847: tmpval.integ *= fval;
  1527  0012E6  C06D  F015         	movff	sprintf@tmpval,___ftmul@f1
  1528  0012EA  C06E  F016         	movff	sprintf@tmpval+1,___ftmul@f1+1
  1529  0012EE  C06F  F017         	movff	sprintf@tmpval+2,___ftmul@f1+2
  1530  0012F2  C073  F018         	movff	sprintf@fval,___ftmul@f2
  1531  0012F6  C074  F019         	movff	sprintf@fval+1,___ftmul@f2+1
  1532  0012FA  C075  F01A         	movff	sprintf@fval+2,___ftmul@f2+2
  1533  0012FE  EC31  F012         	call	___ftmul	;wreg free
  1534  001302  C015  F06D         	movff	?___ftmul,sprintf@tmpval
  1535  001306  C016  F06E         	movff	?___ftmul+1,sprintf@tmpval+1
  1536  00130A  C017  F06F         	movff	?___ftmul+2,sprintf@tmpval+2
  1537                           
  1538                           ;doprnt.c: 848: if(tmpval.integ < 1.0)
  1539  00130E  C06D  F001         	movff	sprintf@tmpval,___ftge@ff1
  1540  001312  C06E  F002         	movff	sprintf@tmpval+1,___ftge@ff1+1
  1541  001316  C06F  F003         	movff	sprintf@tmpval+2,___ftge@ff1+2
  1542  00131A  0E00               	movlw	0
  1543  00131C  6E04               	movwf	___ftge@ff2,c
  1544  00131E  0E80               	movlw	128
  1545  001320  6E05               	movwf	___ftge@ff2+1,c
  1546  001322  0E3F               	movlw	63
  1547  001324  6E06               	movwf	___ftge@ff2+2,c
  1548  001326  EC75  F013         	call	___ftge	;wreg free
  1549  00132A  B0D8               	btfsc	status,0,c
  1550  00132C  D005               	goto	l2841
  1551                           
  1552                           ;doprnt.c: 849: exp--;
  1553  00132E  0100               	movlb	0	; () banked
  1554  001330  076B               	decf	sprintf@exp& (0+255),f,b
  1555  001332  A0D8               	btfss	status,0,c
  1556  001334  076C               	decf	(sprintf@exp+1)& (0+255),f,b
  1557  001336  D013               	goto	l2845
  1558  001338                     l2841:
  1559                           
  1560                           ;doprnt.c: 850: else if(tmpval.integ >= 10.0)
  1561  001338  C06D  F001         	movff	sprintf@tmpval,___ftge@ff1
  1562  00133C  C06E  F002         	movff	sprintf@tmpval+1,___ftge@ff1+1
  1563  001340  C06F  F003         	movff	sprintf@tmpval+2,___ftge@ff1+2
  1564  001344  0E00               	movlw	0
  1565  001346  6E04               	movwf	___ftge@ff2,c
  1566  001348  0E20               	movlw	32
  1567  00134A  6E05               	movwf	___ftge@ff2+1,c
  1568  00134C  0E41               	movlw	65
  1569  00134E  6E06               	movwf	___ftge@ff2+2,c
  1570  001350  EC75  F013         	call	___ftge	;wreg free
  1571  001354  A0D8               	btfss	status,0,c
  1572  001356  D003               	goto	l2845
  1573                           
  1574                           ;doprnt.c: 851: exp++;
  1575  001358  0100               	movlb	0	; () banked
  1576  00135A  4B6B               	infsnz	sprintf@exp& (0+255),f,b
  1577  00135C  2B6C               	incf	(sprintf@exp+1)& (0+255),f,b
  1578  00135E                     l2845:
  1579                           
  1580                           ;doprnt.c: 852: }
  1581                           ;doprnt.c: 1112: if(prec <= 12)
  1582  00135E  0100               	movlb	0	; () banked
  1583  001360  BF72               	btfsc	(sprintf@prec+1)& (0+255),7,b
  1584  001362  D008               	goto	l2847
  1585  001364  0100               	movlb	0	; () banked
  1586  001366  5172               	movf	(sprintf@prec+1)& (0+255),w,b
  1587  001368  E11D               	bnz	l2849
  1588  00136A  0E0D               	movlw	13
  1589  00136C  0100               	movlb	0	; () banked
  1590  00136E  5D71               	subwf	sprintf@prec& (0+255),w,b
  1591  001370  B0D8               	btfsc	status,0,c
  1592  001372  D018               	goto	l2849
  1593  001374                     l2847:
  1594                           
  1595                           ; BSR set to: 0
  1596                           ;doprnt.c: 1113: fval += fround(prec);
  1597  001374  C073  F02E         	movff	sprintf@fval,___ftadd@f1
  1598  001378  C074  F02F         	movff	sprintf@fval+1,___ftadd@f1+1
  1599  00137C  C075  F030         	movff	sprintf@fval+2,___ftadd@f1+2
  1600  001380  0100               	movlb	0	; () banked
  1601  001382  5171               	movf	sprintf@prec& (0+255),w,b
  1602  001384  EC7F  F00E         	call	_fround
  1603  001388  C024  F031         	movff	?_fround,___ftadd@f2
  1604  00138C  C025  F032         	movff	?_fround+1,___ftadd@f2+1
  1605  001390  C026  F033         	movff	?_fround+2,___ftadd@f2+2
  1606  001394  ECB4  F00F         	call	___ftadd	;wreg free
  1607  001398  C02E  F073         	movff	?___ftadd,sprintf@fval
  1608  00139C  C02F  F074         	movff	?___ftadd+1,sprintf@fval+1
  1609  0013A0  C030  F075         	movff	?___ftadd+2,sprintf@fval+2
  1610  0013A4                     l2849:
  1611                           
  1612                           ;doprnt.c: 1116: if((exp > 9)||(fval != 0 && (unsigned long)fval == 0 && exp > 1)) {
  1613  0013A4  0100               	movlb	0	; () banked
  1614  0013A6  BF6C               	btfsc	(sprintf@exp+1)& (0+255),7,b
  1615  0013A8  D008               	goto	l2851
  1616  0013AA  0100               	movlb	0	; () banked
  1617  0013AC  516C               	movf	(sprintf@exp+1)& (0+255),w,b
  1618  0013AE  E126               	bnz	l2857
  1619  0013B0  0E0A               	movlw	10
  1620  0013B2  0100               	movlb	0	; () banked
  1621  0013B4  5D6B               	subwf	sprintf@exp& (0+255),w,b
  1622  0013B6  B0D8               	btfsc	status,0,c
  1623  0013B8  D021               	goto	l2857
  1624  0013BA                     l2851:
  1625                           
  1626                           ; BSR set to: 0
  1627  0013BA  0100               	movlb	0	; () banked
  1628  0013BC  5173               	movf	sprintf@fval& (0+255),w,b
  1629  0013BE  0100               	movlb	0	; () banked
  1630  0013C0  1174               	iorwf	(sprintf@fval+1)& (0+255),w,b
  1631  0013C2  0100               	movlb	0	; () banked
  1632  0013C4  1175               	iorwf	(sprintf@fval+2)& (0+255),w,b
  1633  0013C6  B4D8               	btfsc	status,2,c
  1634  0013C8  D05B               	goto	l2871
  1635                           
  1636                           ; BSR set to: 0
  1637  0013CA  C073  F02B         	movff	sprintf@fval,___fttol@f1
  1638  0013CE  C074  F02C         	movff	sprintf@fval+1,___fttol@f1+1
  1639  0013D2  C075  F02D         	movff	sprintf@fval+2,___fttol@f1+2
  1640  0013D6  ECB7  F011         	call	___fttol	;wreg free
  1641  0013DA  502B               	movf	?___fttol,w,c
  1642  0013DC  102C               	iorwf	?___fttol+1,w,c
  1643  0013DE  102D               	iorwf	?___fttol+2,w,c
  1644  0013E0  102E               	iorwf	?___fttol+3,w,c
  1645  0013E2  A4D8               	btfss	status,2,c
  1646  0013E4  D04D               	goto	l2871
  1647  0013E6  0100               	movlb	0	; () banked
  1648  0013E8  BF6C               	btfsc	(sprintf@exp+1)& (0+255),7,b
  1649  0013EA  D04A               	goto	l2871
  1650  0013EC  0100               	movlb	0	; () banked
  1651  0013EE  516C               	movf	(sprintf@exp+1)& (0+255),w,b
  1652  0013F0  E105               	bnz	l2857
  1653  0013F2  0E02               	movlw	2
  1654  0013F4  0100               	movlb	0	; () banked
  1655  0013F6  5D6B               	subwf	sprintf@exp& (0+255),w,b
  1656  0013F8  A0D8               	btfss	status,0,c
  1657  0013FA  D042               	goto	l2871
  1658  0013FC                     l2857:
  1659                           
  1660                           ; BSR set to: 0
  1661                           ;doprnt.c: 1120: if(tmpval.integ < 4.294967296){
  1662  0013FC  C06D  F001         	movff	sprintf@tmpval,___ftge@ff1
  1663  001400  C06E  F002         	movff	sprintf@tmpval+1,___ftge@ff1+1
  1664  001404  C06F  F003         	movff	sprintf@tmpval+2,___ftge@ff1+2
  1665  001408  0E70               	movlw	112
  1666  00140A  6E04               	movwf	___ftge@ff2,c
  1667  00140C  0E89               	movlw	137
  1668  00140E  6E05               	movwf	___ftge@ff2+1,c
  1669  001410  0E40               	movlw	64
  1670  001412  6E06               	movwf	___ftge@ff2+2,c
  1671  001414  EC75  F013         	call	___ftge	;wreg free
  1672  001418  B0D8               	btfsc	status,0,c
  1673  00141A  D003               	goto	l2861
  1674                           
  1675                           ;doprnt.c: 1121: exp -= (sizeof dpowers/sizeof dpowers[0])-1;
  1676  00141C  0100               	movlb	0	; () banked
  1677  00141E  0EF7               	movlw	247
  1678  001420  D002               	goto	L1
  1679  001422                     l2861:
  1680                           
  1681                           ;doprnt.c: 1123: exp -= (sizeof dpowers/sizeof dpowers[0])-2;
  1682  001422  0100               	movlb	0	; () banked
  1683  001424  0EF8               	movlw	248
  1684  001426                     L1:
  1685  001426  276B               	addwf	sprintf@exp& (0+255),f,b
  1686  001428  0EFF               	movlw	255
  1687  00142A  236C               	addwfc	(sprintf@exp+1)& (0+255),f,b
  1688                           
  1689                           ; BSR set to: 0
  1690                           ;doprnt.c: 1124: }
  1691                           ;doprnt.c: 1125: tmpval.integ = scale(exp);
  1692                           
  1693                           ; BSR set to: 0
  1694  00142C  0100               	movlb	0	; () banked
  1695  00142E  516B               	movf	sprintf@exp& (0+255),w,b
  1696  001430  EC63  F00C         	call	_scale
  1697  001434  C024  F06D         	movff	?_scale,sprintf@tmpval
  1698  001438  C025  F06E         	movff	?_scale+1,sprintf@tmpval+1
  1699  00143C  C026  F06F         	movff	?_scale+2,sprintf@tmpval+2
  1700                           
  1701                           ;doprnt.c: 1126: val = ((sizeof(double)== 3) ? _tdiv_to_l_(fval,tmpval.integ) : _div_to_
      +                          l_(fval,tmpval.integ));
  1702  001440  C073  F001         	movff	sprintf@fval,__tdiv_to_l_@f1
  1703  001444  C074  F002         	movff	sprintf@fval+1,__tdiv_to_l_@f1+1
  1704  001448  C075  F003         	movff	sprintf@fval+2,__tdiv_to_l_@f1+2
  1705  00144C  C06D  F004         	movff	sprintf@tmpval,__tdiv_to_l_@f2
  1706  001450  C06E  F005         	movff	sprintf@tmpval+1,__tdiv_to_l_@f2+1
  1707  001454  C06F  F006         	movff	sprintf@tmpval+2,__tdiv_to_l_@f2+2
  1708  001458  EC8A  F010         	call	__tdiv_to_l_	;wreg free
  1709  00145C  C001  F067         	movff	?__tdiv_to_l_,sprintf@val
  1710  001460  C002  F068         	movff	?__tdiv_to_l_+1,sprintf@val+1
  1711  001464  C003  F069         	movff	?__tdiv_to_l_+2,sprintf@val+2
  1712  001468  C004  F06A         	movff	?__tdiv_to_l_+3,sprintf@val+3
  1713                           
  1714                           ;doprnt.c: 1129: fval = 0.0;
  1715  00146C  0E00               	movlw	0
  1716  00146E  0100               	movlb	0	; () banked
  1717  001470  6F73               	movwf	sprintf@fval& (0+255),b
  1718  001472  0E00               	movlw	0
  1719  001474  0100               	movlb	0	; () banked
  1720  001476  6F74               	movwf	(sprintf@fval+1)& (0+255),b
  1721  001478  0E00               	movlw	0
  1722  00147A  0100               	movlb	0	; () banked
  1723  00147C  6F75               	movwf	(sprintf@fval+2)& (0+255),b
  1724                           
  1725                           ;doprnt.c: 1130: } else {
  1726  00147E  D033               	goto	l2875
  1727  001480                     l2871:
  1728                           
  1729                           ;doprnt.c: 1131: val = (unsigned long)fval;
  1730  001480  C073  F02B         	movff	sprintf@fval,___fttol@f1
  1731  001484  C074  F02C         	movff	sprintf@fval+1,___fttol@f1+1
  1732  001488  C075  F02D         	movff	sprintf@fval+2,___fttol@f1+2
  1733  00148C  ECB7  F011         	call	___fttol	;wreg free
  1734  001490  C02B  F067         	movff	?___fttol,sprintf@val
  1735  001494  C02C  F068         	movff	?___fttol+1,sprintf@val+1
  1736  001498  C02D  F069         	movff	?___fttol+2,sprintf@val+2
  1737  00149C  C02E  F06A         	movff	?___fttol+3,sprintf@val+3
  1738                           
  1739                           ;doprnt.c: 1132: fval -= (double)val;
  1740  0014A0  C073  F03A         	movff	sprintf@fval,___ftsub@f1
  1741  0014A4  C074  F03B         	movff	sprintf@fval+1,___ftsub@f1+1
  1742  0014A8  C075  F03C         	movff	sprintf@fval+2,___ftsub@f1+2
  1743  0014AC  C067  F009         	movff	sprintf@val,___lltoft@c
  1744  0014B0  C068  F00A         	movff	sprintf@val+1,___lltoft@c+1
  1745  0014B4  C069  F00B         	movff	sprintf@val+2,___lltoft@c+2
  1746  0014B8  C06A  F00C         	movff	sprintf@val+3,___lltoft@c+3
  1747  0014BC  ECB6  F015         	call	___lltoft	;wreg free
  1748  0014C0  C009  F03D         	movff	?___lltoft,___ftsub@f2
  1749  0014C4  C00A  F03E         	movff	?___lltoft+1,___ftsub@f2+1
  1750  0014C8  C00B  F03F         	movff	?___lltoft+2,___ftsub@f2+2
  1751  0014CC  EC5C  F016         	call	___ftsub	;wreg free
  1752  0014D0  C03A  F073         	movff	?___ftsub,sprintf@fval
  1753  0014D4  C03B  F074         	movff	?___ftsub+1,sprintf@fval+1
  1754  0014D8  C03C  F075         	movff	?___ftsub+2,sprintf@fval+2
  1755                           
  1756                           ;doprnt.c: 1133: exp = 0;
  1757  0014DC  0E00               	movlw	0
  1758  0014DE  0100               	movlb	0	; () banked
  1759  0014E0  6F6C               	movwf	(sprintf@exp+1)& (0+255),b
  1760  0014E2  0E00               	movlw	0
  1761  0014E4  6F6B               	movwf	sprintf@exp& (0+255),b
  1762  0014E6                     l2875:
  1763                           
  1764                           ; BSR set to: 0
  1765                           ;doprnt.c: 1134: }
  1766                           ;doprnt.c: 1136: for(c = 1 ; c != (sizeof dpowers/sizeof dpowers[0]) ; c++)
  1767  0014E6  0E01               	movlw	1
  1768  0014E8  0100               	movlb	0	; () banked
  1769  0014EA  6F76               	movwf	sprintf@c& (0+255),b
  1770  0014EC                     l2877:
  1771                           
  1772                           ; BSR set to: 0
  1773  0014EC  0E0A               	movlw	10
  1774  0014EE  0100               	movlb	0	; () banked
  1775  0014F0  1976               	xorwf	sprintf@c& (0+255),w,b
  1776  0014F2  B4D8               	btfsc	status,2,c
  1777  0014F4  D021               	goto	l2889
  1778                           
  1779                           ; BSR set to: 0
  1780                           ;doprnt.c: 1137: if(val < dpowers[c])
  1781                           
  1782                           ; BSR set to: 0
  1783                           
  1784                           ; BSR set to: 0
  1785  0014F6  0100               	movlb	0	; () banked
  1786  0014F8  5176               	movf	sprintf@c& (0+255),w,b
  1787  0014FA  0D04               	mullw	4
  1788  0014FC  0E01               	movlw	low _dpowers
  1789  0014FE  24F3               	addwf	prodl,w,c
  1790  001500  6EF6               	movwf	tblptrl,c
  1791  001502  0E10               	movlw	high _dpowers
  1792  001504  20F4               	addwfc	prodh,w,c
  1793  001506  6EF7               	movwf	tblptrh,c
  1794  001508                     	if	1	;There are 3 active tblptr bytes
  1795  001508  6AF8               	clrf	tblptru,c
  1796  00150A  0E00               	movlw	low (__mediumconst shr (0+16))
  1797  00150C  22F8               	addwfc	tblptru,f,c
  1798  00150E                     	endif
  1799  00150E  0009               	tblrd		*+
  1800  001510  50F5               	movf	tablat,w,c
  1801  001512  0100               	movlb	0	; () banked
  1802  001514  5D67               	subwf	sprintf@val& (0+255),w,b
  1803  001516  0009               	tblrd		*+
  1804  001518  50F5               	movf	tablat,w,c
  1805  00151A  0100               	movlb	0	; () banked
  1806  00151C  5968               	subwfb	(sprintf@val+1)& (0+255),w,b
  1807  00151E  0009               	tblrd		*+
  1808  001520  50F5               	movf	tablat,w,c
  1809  001522  0100               	movlb	0	; () banked
  1810  001524  5969               	subwfb	(sprintf@val+2)& (0+255),w,b
  1811  001526  0009               	tblrd		*+
  1812  001528  50F5               	movf	tablat,w,c
  1813  00152A  0100               	movlb	0	; () banked
  1814  00152C  596A               	subwfb	(sprintf@val+3)& (0+255),w,b
  1815  00152E  A0D8               	btfss	status,0,c
  1816  001530  D003               	goto	l2889
  1817                           
  1818                           ; BSR set to: 0
  1819                           
  1820                           ; BSR set to: 0
  1821                           
  1822                           ; BSR set to: 0
  1823                           ;doprnt.c: 1138: break;
  1824  001532  0100               	movlb	0	; () banked
  1825  001534  2B76               	incf	sprintf@c& (0+255),f,b
  1826  001536  D7DA               	goto	l2877
  1827  001538                     l2889:
  1828                           
  1829                           ; BSR set to: 0
  1830                           ;doprnt.c: 1175: {
  1831                           ;doprnt.c: 1188: if(flag & 0x03)
  1832  001538  0E03               	movlw	3
  1833  00153A  0100               	movlb	0	; () banked
  1834  00153C  1565               	andwf	sprintf@flag& (0+255),w,b
  1835  00153E  6E47               	movwf	??_sprintf& (0+255),c
  1836  001540  0E00               	movlw	0
  1837  001542  0100               	movlb	0	; () banked
  1838  001544  1566               	andwf	(sprintf@flag+1)& (0+255),w,b
  1839  001546  6E48               	movwf	(??_sprintf+1)& (0+255),c
  1840  001548  5047               	movf	??_sprintf,w,c
  1841  00154A  1048               	iorwf	??_sprintf+1,w,c
  1842  00154C  B4D8               	btfsc	status,2,c
  1843  00154E  D056               	goto	l2903
  1844                           
  1845                           ; BSR set to: 0
  1846                           ;doprnt.c: 1190: ((*sp++ = ('-')));
  1847  001550  C040  FFD9         	movff	sprintf@sp,fsr2l
  1848  001554  C041  FFDA         	movff	sprintf@sp+1,fsr2h
  1849  001558  0E2D               	movlw	45
  1850  00155A  D04E               	goto	L2
  1851  00155C                     l2893:
  1852                           
  1853                           ; BSR set to: 0
  1854  00155C  4A40               	infsnz	sprintf@sp,f,c
  1855  00155E  2A41               	incf	sprintf@sp+1,f,c
  1856                           
  1857                           ; BSR set to: 0
  1858                           ;doprnt.c: 1195: }
  1859                           ;doprnt.c: 1196: while(c--) {
  1860  001560  D04D               	goto	l2903
  1861  001562                     l2895:
  1862                           
  1863                           ; BSR set to: 0
  1864                           ;doprnt.c: 1200: {
  1865                           ;doprnt.c: 1201: tmpval.vd = val/dpowers[c];
  1866  001562  C067  F001         	movff	sprintf@val,___lldiv@dividend
  1867  001566  C068  F002         	movff	sprintf@val+1,___lldiv@dividend+1
  1868  00156A  C069  F003         	movff	sprintf@val+2,___lldiv@dividend+2
  1869  00156E  C06A  F004         	movff	sprintf@val+3,___lldiv@dividend+3
  1870  001572  0100               	movlb	0	; () banked
  1871  001574  5176               	movf	sprintf@c& (0+255),w,b
  1872  001576  0D04               	mullw	4
  1873  001578  0E01               	movlw	low _dpowers
  1874  00157A  24F3               	addwf	prodl,w,c
  1875  00157C  6EF6               	movwf	tblptrl,c
  1876  00157E  0E10               	movlw	high _dpowers
  1877  001580  20F4               	addwfc	prodh,w,c
  1878  001582  6EF7               	movwf	tblptrh,c
  1879  001584                     	if	1	;There are 3 active tblptr bytes
  1880  001584  6AF8               	clrf	tblptru,c
  1881  001586  0E00               	movlw	low (__mediumconst shr (0+16))
  1882  001588  22F8               	addwfc	tblptru,f,c
  1883  00158A                     	endif
  1884  00158A  0009               	tblrd		*+
  1885  00158C  CFF5 F005          	movff	tablat,___lldiv@divisor
  1886  001590  0009               	tblrd		*+
  1887  001592  CFF5 F006          	movff	tablat,___lldiv@divisor+1
  1888  001596  0009               	tblrd		*+
  1889  001598  CFF5 F007          	movff	tablat,___lldiv@divisor+2
  1890  00159C  000A               	tblrd		*-
  1891  00159E  CFF5 F008          	movff	tablat,___lldiv@divisor+3
  1892  0015A2  ECFF  F013         	call	___lldiv	;wreg free
  1893  0015A6  C001  F06D         	movff	?___lldiv,sprintf@tmpval
  1894  0015AA  C002  F06E         	movff	?___lldiv+1,sprintf@tmpval+1
  1895  0015AE  C003  F06F         	movff	?___lldiv+2,sprintf@tmpval+2
  1896  0015B2  C004  F070         	movff	?___lldiv+3,sprintf@tmpval+3
  1897                           
  1898                           ;doprnt.c: 1202: tmpval.vd %= 10;
  1899  0015B6  C06D  F001         	movff	sprintf@tmpval,___llmod@dividend
  1900  0015BA  C06E  F002         	movff	sprintf@tmpval+1,___llmod@dividend+1
  1901  0015BE  C06F  F003         	movff	sprintf@tmpval+2,___llmod@dividend+2
  1902  0015C2  C070  F004         	movff	sprintf@tmpval+3,___llmod@dividend+3
  1903  0015C6  0E0A               	movlw	10
  1904  0015C8  6E05               	movwf	___llmod@divisor,c
  1905  0015CA  0E00               	movlw	0
  1906  0015CC  6E06               	movwf	___llmod@divisor+1,c
  1907  0015CE  0E00               	movlw	0
  1908  0015D0  6E07               	movwf	___llmod@divisor+2,c
  1909  0015D2  0E00               	movlw	0
  1910  0015D4  6E08               	movwf	___llmod@divisor+3,c
  1911  0015D6  ECED  F014         	call	___llmod	;wreg free
  1912  0015DA  C001  F06D         	movff	?___llmod,sprintf@tmpval
  1913  0015DE  C002  F06E         	movff	?___llmod+1,sprintf@tmpval+1
  1914  0015E2  C003  F06F         	movff	?___llmod+2,sprintf@tmpval+2
  1915  0015E6  C004  F070         	movff	?___llmod+3,sprintf@tmpval+3
  1916                           
  1917                           ;doprnt.c: 1203: ((*sp++ = ('0' + tmpval.vd)));
  1918  0015EA  0100               	movlb	0	; () banked
  1919  0015EC  516D               	movf	sprintf@tmpval& (0+255),w,b
  1920  0015EE  0F30               	addlw	48
  1921  0015F0  C040  FFD9         	movff	sprintf@sp,fsr2l
  1922  0015F4  C041  FFDA         	movff	sprintf@sp+1,fsr2h
  1923  0015F8                     L2:
  1924  0015F8  6EDF               	movwf	indf2,c
  1925  0015FA  D7B0               	goto	l2893
  1926  0015FC                     l2903:
  1927                           
  1928                           ; BSR set to: 0
  1929  0015FC  0100               	movlb	0	; () banked
  1930  0015FE  0776               	decf	sprintf@c& (0+255),f,b
  1931  001600  0100               	movlb	0	; () banked
  1932  001602  2976               	incf	sprintf@c& (0+255),w,b
  1933  001604  B4D8               	btfsc	status,2,c
  1934  001606  D00D               	goto	l2911
  1935  001608  D7AC               	goto	l2895
  1936  00160A                     l2905:
  1937                           
  1938                           ; BSR set to: 0
  1939                           ;doprnt.c: 1208: ((*sp++ = ('0')));
  1940  00160A  C040  FFD9         	movff	sprintf@sp,fsr2l
  1941  00160E  C041  FFDA         	movff	sprintf@sp+1,fsr2h
  1942  001612  0E30               	movlw	48
  1943  001614  6EDF               	movwf	indf2,c
  1944                           
  1945                           ; BSR set to: 0
  1946  001616  4A40               	infsnz	sprintf@sp,f,c
  1947  001618  2A41               	incf	sprintf@sp+1,f,c
  1948                           
  1949                           ; BSR set to: 0
  1950                           ;doprnt.c: 1209: exp--;
  1951  00161A  0100               	movlb	0	; () banked
  1952  00161C  076B               	decf	sprintf@exp& (0+255),f,b
  1953  00161E  A0D8               	btfss	status,0,c
  1954  001620  076C               	decf	(sprintf@exp+1)& (0+255),f,b
  1955  001622                     l2911:
  1956                           
  1957                           ; BSR set to: 0
  1958  001622  0100               	movlb	0	; () banked
  1959  001624  BF6C               	btfsc	(sprintf@exp+1)& (0+255),7,b
  1960  001626  D007               	goto	l2913
  1961  001628  0100               	movlb	0	; () banked
  1962  00162A  516C               	movf	(sprintf@exp+1)& (0+255),w,b
  1963  00162C  E1EE               	bnz	l2905
  1964  00162E  0100               	movlb	0	; () banked
  1965  001630  056B               	decf	sprintf@exp& (0+255),w,b
  1966  001632  B0D8               	btfsc	status,0,c
  1967  001634  D7EA               	goto	l2905
  1968  001636                     l2913:
  1969                           
  1970                           ; BSR set to: 0
  1971                           ;doprnt.c: 1210: }
  1972                           ;doprnt.c: 1211: if(prec > (int)((sizeof dpowers/sizeof dpowers[0])-2))
  1973  001636  0100               	movlb	0	; () banked
  1974  001638  BF72               	btfsc	(sprintf@prec+1)& (0+255),7,b
  1975  00163A  D00C               	goto	l275
  1976  00163C  0100               	movlb	0	; () banked
  1977  00163E  5172               	movf	(sprintf@prec+1)& (0+255),w,b
  1978  001640  E105               	bnz	u2810
  1979  001642  0E09               	movlw	9
  1980  001644  0100               	movlb	0	; () banked
  1981  001646  5D71               	subwf	sprintf@prec& (0+255),w,b
  1982  001648  A0D8               	btfss	status,0,c
  1983  00164A  D004               	goto	l275
  1984  00164C                     u2810:
  1985                           
  1986                           ; BSR set to: 0
  1987                           ;doprnt.c: 1212: c = (sizeof dpowers/sizeof dpowers[0])-2;
  1988  00164C  0E08               	movlw	8
  1989  00164E  0100               	movlb	0	; () banked
  1990  001650  6F76               	movwf	sprintf@c& (0+255),b
  1991  001652  D002               	goto	l2917
  1992  001654                     l275:
  1993                           
  1994                           ; BSR set to: 0
  1995                           ;doprnt.c: 1213: else
  1996                           ;doprnt.c: 1214: c = prec;
  1997  001654  C071  F076         	movff	sprintf@prec,sprintf@c
  1998  001658                     l2917:
  1999                           
  2000                           ; BSR set to: 0
  2001                           ;doprnt.c: 1215: prec -= c;
  2002  001658  0100               	movlb	0	; () banked
  2003  00165A  5176               	movf	sprintf@c& (0+255),w,b
  2004  00165C  0100               	movlb	0	; () banked
  2005  00165E  5F71               	subwf	sprintf@prec& (0+255),f,b
  2006  001660  0E00               	movlw	0
  2007  001662  0100               	movlb	0	; () banked
  2008  001664  BF76               	btfsc	sprintf@c& (0+255),7,b
  2009  001666  0EFF               	movlw	255
  2010  001668  0100               	movlb	0	; () banked
  2011  00166A  5B72               	subwfb	(sprintf@prec+1)& (0+255),f,b
  2012                           
  2013                           ; BSR set to: 0
  2014                           ;doprnt.c: 1219: if(c)
  2015  00166C  0100               	movlb	0	; () banked
  2016  00166E  5176               	movf	sprintf@c& (0+255),w,b
  2017  001670  0100               	movlb	0	; () banked
  2018  001672  B4D8               	btfsc	status,2,c
  2019  001674  D008               	goto	l2925
  2020                           
  2021                           ; BSR set to: 0
  2022                           ;doprnt.c: 1221: ((*sp++ = ('.')));
  2023  001676  C040  FFD9         	movff	sprintf@sp,fsr2l
  2024  00167A  C041  FFDA         	movff	sprintf@sp+1,fsr2h
  2025  00167E  0E2E               	movlw	46
  2026  001680  6EDF               	movwf	indf2,c
  2027                           
  2028                           ; BSR set to: 0
  2029  001682  4A40               	infsnz	sprintf@sp,f,c
  2030  001684  2A41               	incf	sprintf@sp+1,f,c
  2031  001686                     l2925:
  2032                           
  2033                           ; BSR set to: 0
  2034                           ;doprnt.c: 1227: val = (long)(fval * scale(c));
  2035  001686  0100               	movlb	0	; () banked
  2036  001688  5176               	movf	sprintf@c& (0+255),w,b
  2037  00168A  EC63  F00C         	call	_scale
  2038  00168E  C024  F060         	movff	?_scale,_sprintf$1442
  2039  001692  C025  F061         	movff	?_scale+1,_sprintf$1442+1
  2040  001696  C026  F062         	movff	?_scale+2,_sprintf$1442+2
  2041                           
  2042                           ;doprnt.c: 1227: val = (long)(fval * scale(c));
  2043  00169A  C073  F018         	movff	sprintf@fval,___ftmul@f2
  2044  00169E  C074  F019         	movff	sprintf@fval+1,___ftmul@f2+1
  2045  0016A2  C075  F01A         	movff	sprintf@fval+2,___ftmul@f2+2
  2046  0016A6  C060  F015         	movff	_sprintf$1442,___ftmul@f1
  2047  0016AA  C061  F016         	movff	_sprintf$1442+1,___ftmul@f1+1
  2048  0016AE  C062  F017         	movff	_sprintf$1442+2,___ftmul@f1+2
  2049  0016B2  EC31  F012         	call	___ftmul	;wreg free
  2050  0016B6  C015  F02B         	movff	?___ftmul,___fttol@f1
  2051  0016BA  C016  F02C         	movff	?___ftmul+1,___fttol@f1+1
  2052  0016BE  C017  F02D         	movff	?___ftmul+2,___fttol@f1+2
  2053  0016C2  ECB7  F011         	call	___fttol	;wreg free
  2054  0016C6  C02B  F067         	movff	?___fttol,sprintf@val
  2055  0016CA  C02C  F068         	movff	?___fttol+1,sprintf@val+1
  2056  0016CE  C02D  F069         	movff	?___fttol+2,sprintf@val+2
  2057  0016D2  C02E  F06A         	movff	?___fttol+3,sprintf@val+3
  2058                           
  2059                           ;doprnt.c: 1228: while(c--) {
  2060  0016D6  D078               	goto	l2939
  2061  0016D8                     l2929:
  2062                           
  2063                           ;doprnt.c: 1229: tmpval.vd = val/dpowers[c];
  2064  0016D8  C067  F001         	movff	sprintf@val,___lldiv@dividend
  2065  0016DC  C068  F002         	movff	sprintf@val+1,___lldiv@dividend+1
  2066  0016E0  C069  F003         	movff	sprintf@val+2,___lldiv@dividend+2
  2067  0016E4  C06A  F004         	movff	sprintf@val+3,___lldiv@dividend+3
  2068  0016E8  0100               	movlb	0	; () banked
  2069  0016EA  5176               	movf	sprintf@c& (0+255),w,b
  2070  0016EC  0D04               	mullw	4
  2071  0016EE  0E01               	movlw	low _dpowers
  2072  0016F0  24F3               	addwf	prodl,w,c
  2073  0016F2  6EF6               	movwf	tblptrl,c
  2074  0016F4  0E10               	movlw	high _dpowers
  2075  0016F6  20F4               	addwfc	prodh,w,c
  2076  0016F8  6EF7               	movwf	tblptrh,c
  2077  0016FA                     	if	1	;There are 3 active tblptr bytes
  2078  0016FA  6AF8               	clrf	tblptru,c
  2079  0016FC  0E00               	movlw	low (__mediumconst shr (0+16))
  2080  0016FE  22F8               	addwfc	tblptru,f,c
  2081  001700                     	endif
  2082  001700  0009               	tblrd		*+
  2083  001702  CFF5 F005          	movff	tablat,___lldiv@divisor
  2084  001706  0009               	tblrd		*+
  2085  001708  CFF5 F006          	movff	tablat,___lldiv@divisor+1
  2086  00170C  0009               	tblrd		*+
  2087  00170E  CFF5 F007          	movff	tablat,___lldiv@divisor+2
  2088  001712  000A               	tblrd		*-
  2089  001714  CFF5 F008          	movff	tablat,___lldiv@divisor+3
  2090  001718  ECFF  F013         	call	___lldiv	;wreg free
  2091  00171C  C001  F06D         	movff	?___lldiv,sprintf@tmpval
  2092  001720  C002  F06E         	movff	?___lldiv+1,sprintf@tmpval+1
  2093  001724  C003  F06F         	movff	?___lldiv+2,sprintf@tmpval+2
  2094  001728  C004  F070         	movff	?___lldiv+3,sprintf@tmpval+3
  2095                           
  2096                           ;doprnt.c: 1230: tmpval.vd %= 10;
  2097  00172C  C06D  F001         	movff	sprintf@tmpval,___llmod@dividend
  2098  001730  C06E  F002         	movff	sprintf@tmpval+1,___llmod@dividend+1
  2099  001734  C06F  F003         	movff	sprintf@tmpval+2,___llmod@dividend+2
  2100  001738  C070  F004         	movff	sprintf@tmpval+3,___llmod@dividend+3
  2101  00173C  0E0A               	movlw	10
  2102  00173E  6E05               	movwf	___llmod@divisor,c
  2103  001740  0E00               	movlw	0
  2104  001742  6E06               	movwf	___llmod@divisor+1,c
  2105  001744  0E00               	movlw	0
  2106  001746  6E07               	movwf	___llmod@divisor+2,c
  2107  001748  0E00               	movlw	0
  2108  00174A  6E08               	movwf	___llmod@divisor+3,c
  2109  00174C  ECED  F014         	call	___llmod	;wreg free
  2110  001750  C001  F06D         	movff	?___llmod,sprintf@tmpval
  2111  001754  C002  F06E         	movff	?___llmod+1,sprintf@tmpval+1
  2112  001758  C003  F06F         	movff	?___llmod+2,sprintf@tmpval+2
  2113  00175C  C004  F070         	movff	?___llmod+3,sprintf@tmpval+3
  2114                           
  2115                           ;doprnt.c: 1231: ((*sp++ = ('0' + tmpval.vd)));
  2116  001760  0100               	movlb	0	; () banked
  2117  001762  516D               	movf	sprintf@tmpval& (0+255),w,b
  2118  001764  0F30               	addlw	48
  2119  001766  C040  FFD9         	movff	sprintf@sp,fsr2l
  2120  00176A  C041  FFDA         	movff	sprintf@sp+1,fsr2h
  2121  00176E  6EDF               	movwf	indf2,c
  2122                           
  2123                           ; BSR set to: 0
  2124  001770  4A40               	infsnz	sprintf@sp,f,c
  2125  001772  2A41               	incf	sprintf@sp+1,f,c
  2126                           
  2127                           ; BSR set to: 0
  2128                           ;doprnt.c: 1232: val %= dpowers[c];
  2129  001774  C067  F001         	movff	sprintf@val,___llmod@dividend
  2130  001778  C068  F002         	movff	sprintf@val+1,___llmod@dividend+1
  2131  00177C  C069  F003         	movff	sprintf@val+2,___llmod@dividend+2
  2132  001780  C06A  F004         	movff	sprintf@val+3,___llmod@dividend+3
  2133  001784  0100               	movlb	0	; () banked
  2134  001786  5176               	movf	sprintf@c& (0+255),w,b
  2135  001788  0D04               	mullw	4
  2136  00178A  0E01               	movlw	low _dpowers
  2137  00178C  24F3               	addwf	prodl,w,c
  2138  00178E  6EF6               	movwf	tblptrl,c
  2139  001790  0E10               	movlw	high _dpowers
  2140  001792  20F4               	addwfc	prodh,w,c
  2141  001794  6EF7               	movwf	tblptrh,c
  2142  001796                     	if	1	;There are 3 active tblptr bytes
  2143  001796  6AF8               	clrf	tblptru,c
  2144  001798  0E00               	movlw	low (__mediumconst shr (0+16))
  2145  00179A  22F8               	addwfc	tblptru,f,c
  2146  00179C                     	endif
  2147  00179C  0009               	tblrd		*+
  2148  00179E  CFF5 F005          	movff	tablat,___llmod@divisor
  2149  0017A2  0009               	tblrd		*+
  2150  0017A4  CFF5 F006          	movff	tablat,___llmod@divisor+1
  2151  0017A8  0009               	tblrd		*+
  2152  0017AA  CFF5 F007          	movff	tablat,___llmod@divisor+2
  2153  0017AE  000A               	tblrd		*-
  2154  0017B0  CFF5 F008          	movff	tablat,___llmod@divisor+3
  2155  0017B4  ECED  F014         	call	___llmod	;wreg free
  2156  0017B8  C001  F067         	movff	?___llmod,sprintf@val
  2157  0017BC  C002  F068         	movff	?___llmod+1,sprintf@val+1
  2158  0017C0  C003  F069         	movff	?___llmod+2,sprintf@val+2
  2159  0017C4  C004  F06A         	movff	?___llmod+3,sprintf@val+3
  2160  0017C8                     l2939:
  2161  0017C8  0100               	movlb	0	; () banked
  2162  0017CA  0776               	decf	sprintf@c& (0+255),f,b
  2163  0017CC  0100               	movlb	0	; () banked
  2164  0017CE  2976               	incf	sprintf@c& (0+255),w,b
  2165  0017D0  B4D8               	btfsc	status,2,c
  2166  0017D2  D00D               	goto	l2947
  2167  0017D4  D781               	goto	l2929
  2168  0017D6                     l2941:
  2169                           
  2170                           ; BSR set to: 0
  2171                           ;doprnt.c: 1236: ((*sp++ = ('0')));
  2172  0017D6  C040  FFD9         	movff	sprintf@sp,fsr2l
  2173  0017DA  C041  FFDA         	movff	sprintf@sp+1,fsr2h
  2174  0017DE  0E30               	movlw	48
  2175  0017E0  6EDF               	movwf	indf2,c
  2176                           
  2177                           ; BSR set to: 0
  2178  0017E2  4A40               	infsnz	sprintf@sp,f,c
  2179  0017E4  2A41               	incf	sprintf@sp+1,f,c
  2180                           
  2181                           ; BSR set to: 0
  2182                           ;doprnt.c: 1237: prec--;
  2183  0017E6  0100               	movlb	0	; () banked
  2184  0017E8  0771               	decf	sprintf@prec& (0+255),f,b
  2185  0017EA  A0D8               	btfss	status,0,c
  2186  0017EC  0772               	decf	(sprintf@prec+1)& (0+255),f,b
  2187  0017EE                     l2947:
  2188                           
  2189                           ; BSR set to: 0
  2190  0017EE  0100               	movlb	0	; () banked
  2191  0017F0  5171               	movf	sprintf@prec& (0+255),w,b
  2192  0017F2  0100               	movlb	0	; () banked
  2193  0017F4  1172               	iorwf	(sprintf@prec+1)& (0+255),w,b
  2194  0017F6  B4D8               	btfsc	status,2,c
  2195  0017F8  D050               	goto	l2969
  2196  0017FA  D7ED               	goto	l2941
  2197  0017FC                     l2949:
  2198                           
  2199                           ; BSR set to: 0
  2200                           ;doprnt.c: 1246: }
  2201                           ;doprnt.c: 1290: if(prec == 0 && val == 0)
  2202  0017FC  0100               	movlb	0	; () banked
  2203  0017FE  5171               	movf	sprintf@prec& (0+255),w,b
  2204  001800  0100               	movlb	0	; () banked
  2205  001802  1172               	iorwf	(sprintf@prec+1)& (0+255),w,b
  2206  001804  A4D8               	btfss	status,2,c
  2207  001806  D00D               	goto	l2955
  2208                           
  2209                           ; BSR set to: 0
  2210  001808  0100               	movlb	0	; () banked
  2211  00180A  5167               	movf	sprintf@val& (0+255),w,b
  2212  00180C  0100               	movlb	0	; () banked
  2213  00180E  1168               	iorwf	(sprintf@val+1)& (0+255),w,b
  2214  001810  0100               	movlb	0	; () banked
  2215  001812  1169               	iorwf	(sprintf@val+2)& (0+255),w,b
  2216  001814  0100               	movlb	0	; () banked
  2217  001816  116A               	iorwf	(sprintf@val+3)& (0+255),w,b
  2218  001818  A4D8               	btfss	status,2,c
  2219  00181A  D003               	goto	l2955
  2220                           
  2221                           ; BSR set to: 0
  2222                           ;doprnt.c: 1291: prec++;
  2223  00181C  0100               	movlb	0	; () banked
  2224  00181E  4B71               	infsnz	sprintf@prec& (0+255),f,b
  2225  001820  2B72               	incf	(sprintf@prec+1)& (0+255),f,b
  2226  001822                     l2955:
  2227                           
  2228                           ; BSR set to: 0
  2229                           ;doprnt.c: 1339: if(c < prec)
  2230  001822  0E80               	movlw	128
  2231  001824  0100               	movlb	0	; () banked
  2232  001826  BF76               	btfsc	sprintf@c& (0+255),7,b
  2233  001828  0E7F               	movlw	127
  2234  00182A  6E47               	movwf	??_sprintf& (0+255),c
  2235  00182C  0100               	movlb	0	; () banked
  2236  00182E  5171               	movf	sprintf@prec& (0+255),w,b
  2237  001830  0100               	movlb	0	; () banked
  2238  001832  5D76               	subwf	sprintf@c& (0+255),w,b
  2239  001834  0100               	movlb	0	; () banked
  2240  001836  5172               	movf	(sprintf@prec+1)& (0+255),w,b
  2241  001838  0A80               	xorlw	128
  2242  00183A  5847               	subwfb	??_sprintf& (0+255),w,c
  2243  00183C  B0D8               	btfsc	status,0,c
  2244  00183E  D003               	goto	l2959
  2245                           
  2246                           ; BSR set to: 0
  2247                           ;doprnt.c: 1340: c = prec;
  2248  001840  C071  F076         	movff	sprintf@prec,sprintf@c
  2249  001844  D016               	goto	l2963
  2250  001846                     l2959:
  2251                           
  2252                           ; BSR set to: 0
  2253                           ;doprnt.c: 1341: else if(prec < c)
  2254  001846  0100               	movlb	0	; () banked
  2255  001848  5172               	movf	(sprintf@prec+1)& (0+255),w,b
  2256  00184A  0A80               	xorlw	128
  2257  00184C  6E47               	movwf	??_sprintf& (0+255),c
  2258  00184E  0100               	movlb	0	; () banked
  2259  001850  5176               	movf	sprintf@c& (0+255),w,b
  2260  001852  0100               	movlb	0	; () banked
  2261  001854  5D71               	subwf	sprintf@prec& (0+255),w,b
  2262  001856  0E80               	movlw	128
  2263  001858  0100               	movlb	0	; () banked
  2264  00185A  BF76               	btfsc	sprintf@c& (0+255),7,b
  2265  00185C  0E7F               	movlw	127
  2266  00185E  5847               	subwfb	??_sprintf& (0+255),w,c
  2267  001860  B0D8               	btfsc	status,0,c
  2268  001862  D007               	goto	l2963
  2269                           
  2270                           ; BSR set to: 0
  2271                           ;doprnt.c: 1342: prec = c;
  2272  001864  0100               	movlb	0	; () banked
  2273  001866  5176               	movf	sprintf@c& (0+255),w,b
  2274  001868  0100               	movlb	0	; () banked
  2275  00186A  6F71               	movwf	sprintf@prec& (0+255),b
  2276  00186C  6B72               	clrf	(sprintf@prec+1)& (0+255),b
  2277  00186E  BF71               	btfsc	sprintf@prec& (0+255),7,b
  2278  001870  0772               	decf	(sprintf@prec+1)& (0+255),f,b
  2279  001872                     l2963:
  2280                           
  2281                           ; BSR set to: 0
  2282                           ;doprnt.c: 1422: {
  2283                           ;doprnt.c: 1438: if(flag & 0x03)
  2284  001872  0E03               	movlw	3
  2285  001874  0100               	movlb	0	; () banked
  2286  001876  1565               	andwf	sprintf@flag& (0+255),w,b
  2287  001878  6E47               	movwf	??_sprintf& (0+255),c
  2288  00187A  0E00               	movlw	0
  2289  00187C  0100               	movlb	0	; () banked
  2290  00187E  1566               	andwf	(sprintf@flag+1)& (0+255),w,b
  2291  001880  6E48               	movwf	(??_sprintf+1)& (0+255),c
  2292  001882  5047               	movf	??_sprintf,w,c
  2293  001884  1048               	iorwf	??_sprintf+1,w,c
  2294  001886  B4D8               	btfsc	status,2,c
  2295  001888  D008               	goto	l2969
  2296                           
  2297                           ; BSR set to: 0
  2298                           ;doprnt.c: 1439: ((*sp++ = ('-')));
  2299  00188A  C040  FFD9         	movff	sprintf@sp,fsr2l
  2300  00188E  C041  FFDA         	movff	sprintf@sp+1,fsr2h
  2301  001892  0E2D               	movlw	45
  2302  001894  6EDF               	movwf	indf2,c
  2303  001896                     l2967:
  2304                           
  2305                           ; BSR set to: 0
  2306  001896  4A40               	infsnz	sprintf@sp,f,c
  2307  001898  2A41               	incf	sprintf@sp+1,f,c
  2308  00189A                     l2969:
  2309                           
  2310                           ; BSR set to: 0
  2311  00189A  C042  FFF6         	movff	sprintf@f,tblptrl
  2312  00189E  C043  FFF7         	movff	sprintf@f+1,tblptrh
  2313  0018A2  4A42               	infsnz	sprintf@f,f,c
  2314  0018A4  2A43               	incf	sprintf@f+1,f,c
  2315  0018A6                     	if	0	;tblptru may be non-zero
  2316  0018A6                     	endif
  2317  0018A6                     	if	1	;Program memory is > 0xFFFF, there are 3 active tblptr bytes
  2318  0018A6  0E00               	movlw	low (__mediumconst shr (0+16))
  2319  0018A8  6EF8               	movwf	tblptru,c
  2320  0018AA                     	endif
  2321  0018AA  0008               	tblrd		*
  2322  0018AC  CFF5 F076          	movff	tablat,sprintf@c
  2323  0018B0  0100               	movlb	0	; () banked
  2324  0018B2  5176               	movf	sprintf@c& (0+255),w,b
  2325  0018B4  A4D8               	btfss	status,2,c
  2326  0018B6  D41A               	goto	l2771
  2327  0018B8                     l2971:
  2328                           
  2329                           ; BSR set to: 0
  2330                           ;doprnt.c: 1538: *sp = 0;
  2331  0018B8  C040  FFD9         	movff	sprintf@sp,fsr2l
  2332  0018BC  C041  FFDA         	movff	sprintf@sp+1,fsr2h
  2333  0018C0  0E00               	movlw	0
  2334  0018C2  6EDF               	movwf	indf2,c
  2335  0018C4  0012               	return	
  2336  0018C6                     __end_of_sprintf:
  2337                           	opt stack 0
  2338                           tblptru	equ	0xFF8
  2339                           tblptrh	equ	0xFF7
  2340                           tblptrl	equ	0xFF6
  2341                           tablat	equ	0xFF5
  2342                           prodh	equ	0xFF4
  2343                           prodl	equ	0xFF3
  2344                           wreg	equ	0xFE8
  2345                           indf2	equ	0xFDF
  2346                           postinc2	equ	0xFDE
  2347                           postdec2	equ	0xFDD
  2348                           fsr2h	equ	0xFDA
  2349                           fsr2l	equ	0xFD9
  2350                           status	equ	0xFD8
  2351                           
  2352 ;; *************** function _scale *****************
  2353 ;; Defined at:
  2354 ;;		line 425 in file "C:\Program Files (x86)\Microchip\xc8\v1.41\sources\common\doprnt.c"
  2355 ;; Parameters:    Size  Location     Type
  2356 ;;  scl             1    wreg     char 
  2357 ;; Auto vars:     Size  Location     Type
  2358 ;;  scl             1   41[COMRAM] char 
  2359 ;; Return value:  Size  Location     Type
  2360 ;;                  3   35[COMRAM] char 
  2361 ;; Registers used:
  2362 ;;		wreg, status,2, status,0, tblptrl, tblptrh, tblptru, prodl, prodh, cstack
  2363 ;; Tracked objects:
  2364 ;;		On entry : 0/0
  2365 ;;		On exit  : 0/0
  2366 ;;		Unchanged: 0/0
  2367 ;; Data sizes:     COMRAM   BANK0   BANK1   BANK2   BANK3   BANK4   BANK5   BANK6   BANK7   BANK8   BANK9  BANK10  BANK1
      +1  BANK12  BANK13  BANK14  BANK15
  2368 ;;      Params:         3       0       0       0       0       0       0       0       0       0       0       0       
      +0       0       0       0       0
  2369 ;;      Locals:         4       0       0       0       0       0       0       0       0       0       0       0       
      +0       0       0       0       0
  2370 ;;      Temps:          0       0       0       0       0       0       0       0       0       0       0       0       
      +0       0       0       0       0
  2371 ;;      Totals:         7       0       0       0       0       0       0       0       0       0       0       0       
      +0       0       0       0       0
  2372 ;;Total ram usage:        7 bytes
  2373 ;; Hardware stack levels used:    1
  2374 ;; Hardware stack levels required when called:    2
  2375 ;; This function calls:
  2376 ;;		___awdiv
  2377 ;;		___awmod
  2378 ;;		___ftmul
  2379 ;;		___wmul
  2380 ;; This function is called by:
  2381 ;;		_sprintf
  2382 ;; This function uses a non-reentrant model
  2383 ;;
  2384                           
  2385                           	psect	text4
  2386  0018C6                     __ptext4:
  2387                           	opt stack 0
  2388  0018C6                     _scale:
  2389                           	opt stack 25
  2390                           
  2391                           ; BSR set to: 0
  2392                           ;incstack = 0
  2393                           ;scale@scl stored from wreg
  2394  0018C6  6E2A               	movwf	scale@scl,c
  2395                           
  2396                           ;doprnt.c: 428: if(scl < 0) {
  2397  0018C8  AE2A               	btfss	scale@scl,7,c
  2398  0018CA  D10D               	goto	l2393
  2399                           
  2400                           ;doprnt.c: 429: scl = -scl;
  2401  0018CC  6C2A               	negf	scale@scl,c
  2402                           
  2403                           ;doprnt.c: 430: if(scl>=110)
  2404  0018CE  502A               	movf	scale@scl,w,c
  2405  0018D0  0A80               	xorlw	128
  2406  0018D2  0F12               	addlw	-238
  2407  0018D4  A0D8               	btfss	status,0,c
  2408  0018D6  D09A               	goto	l2383
  2409                           
  2410                           ;doprnt.c: 431: return _npowers_[scl/100+18] * _npowers_[(scl%100)/10+9] * _npowers_[scl
      +                          %10];
  2411  0018D8  0E00               	movlw	0
  2412  0018DA  6E12               	movwf	___wmul@multiplicand+1,c
  2413  0018DC  0E03               	movlw	3
  2414  0018DE  6E11               	movwf	___wmul@multiplicand,c
  2415  0018E0  0E00               	movlw	0
  2416  0018E2  6E0A               	movwf	___awdiv@divisor+1,c
  2417  0018E4  0E0A               	movlw	10
  2418  0018E6  6E09               	movwf	___awdiv@divisor,c
  2419  0018E8  0E00               	movlw	0
  2420  0018EA  6E04               	movwf	___awmod@divisor+1,c
  2421  0018EC  0E64               	movlw	100
  2422  0018EE  6E03               	movwf	___awmod@divisor,c
  2423  0018F0  502A               	movf	scale@scl,w,c
  2424  0018F2  6E01               	movwf	___awmod@dividend,c
  2425  0018F4  6A02               	clrf	___awmod@dividend+1,c
  2426  0018F6  BE01               	btfsc	___awmod@dividend,7,c
  2427  0018F8  0602               	decf	___awmod@dividend+1,f,c
  2428  0018FA  EC7D  F014         	call	___awmod	;wreg free
  2429  0018FE  C001  F007         	movff	?___awmod,___awdiv@dividend
  2430  001902  C002  F008         	movff	?___awmod+1,___awdiv@dividend+1
  2431  001906  ECBD  F013         	call	___awdiv	;wreg free
  2432  00190A  0E09               	movlw	9
  2433  00190C  2407               	addwf	?___awdiv,w,c
  2434  00190E  6E0F               	movwf	___wmul@multiplier,c
  2435  001910  0E00               	movlw	0
  2436  001912  2008               	addwfc	?___awdiv+1,w,c
  2437  001914  6E10               	movwf	___wmul@multiplier+1,c
  2438  001916  EC08  F017         	call	___wmul	;wreg free
  2439  00191A  0E50               	movlw	low __npowers_
  2440  00191C  240F               	addwf	?___wmul,w,c
  2441  00191E  6EF6               	movwf	tblptrl,c
  2442  001920  0E10               	movlw	high __npowers_
  2443  001922  2010               	addwfc	?___wmul+1,w,c
  2444  001924  6EF7               	movwf	tblptrh,c
  2445  001926                     	if	1	;There are 3 active tblptr bytes
  2446  001926  6AF8               	clrf	tblptru,c
  2447  001928  0E00               	movlw	low (__mediumconst shr (0+16))
  2448  00192A  22F8               	addwfc	tblptru,f,c
  2449  00192C                     	endif
  2450  00192C  0009               	tblrd		*+
  2451  00192E  CFF5 F018          	movff	tablat,___ftmul@f2
  2452  001932  0009               	tblrd		*+
  2453  001934  CFF5 F019          	movff	tablat,___ftmul@f2+1
  2454  001938  000A               	tblrd		*-
  2455  00193A  CFF5 F01A          	movff	tablat,___ftmul@f2+2
  2456  00193E  0E00               	movlw	0
  2457  001940  6E0A               	movwf	___awdiv@divisor+1,c
  2458  001942  0E64               	movlw	100
  2459  001944  6E09               	movwf	___awdiv@divisor,c
  2460  001946  502A               	movf	scale@scl,w,c
  2461  001948  6E07               	movwf	___awdiv@dividend,c
  2462  00194A  6A08               	clrf	___awdiv@dividend+1,c
  2463  00194C  BE07               	btfsc	___awdiv@dividend,7,c
  2464  00194E  0608               	decf	___awdiv@dividend+1,f,c
  2465  001950  ECBD  F013         	call	___awdiv	;wreg free
  2466  001954  0E12               	movlw	18
  2467  001956  2407               	addwf	?___awdiv,w,c
  2468  001958  6E0F               	movwf	___wmul@multiplier,c
  2469  00195A  0E00               	movlw	0
  2470  00195C  2008               	addwfc	?___awdiv+1,w,c
  2471  00195E  6E10               	movwf	___wmul@multiplier+1,c
  2472  001960  0E00               	movlw	0
  2473  001962  6E12               	movwf	___wmul@multiplicand+1,c
  2474  001964  0E03               	movlw	3
  2475  001966  6E11               	movwf	___wmul@multiplicand,c
  2476  001968  EC08  F017         	call	___wmul	;wreg free
  2477  00196C  0E50               	movlw	low __npowers_
  2478  00196E  240F               	addwf	?___wmul,w,c
  2479  001970  6EF6               	movwf	tblptrl,c
  2480  001972  0E10               	movlw	high __npowers_
  2481  001974  2010               	addwfc	?___wmul+1,w,c
  2482  001976  6EF7               	movwf	tblptrh,c
  2483  001978                     	if	1	;There are 3 active tblptr bytes
  2484  001978  6AF8               	clrf	tblptru,c
  2485  00197A  0E00               	movlw	low (__mediumconst shr (0+16))
  2486  00197C  22F8               	addwfc	tblptru,f,c
  2487  00197E                     	endif
  2488  00197E  0009               	tblrd		*+
  2489  001980  CFF5 F015          	movff	tablat,___ftmul@f1
  2490  001984  0009               	tblrd		*+
  2491  001986  CFF5 F016          	movff	tablat,___ftmul@f1+1
  2492  00198A  000A               	tblrd		*-
  2493  00198C  CFF5 F017          	movff	tablat,___ftmul@f1+2
  2494  001990  EC31  F012         	call	___ftmul	;wreg free
  2495  001994  C015  F027         	movff	?___ftmul,_scale$1441
  2496  001998  C016  F028         	movff	?___ftmul+1,_scale$1441+1
  2497  00199C  C017  F029         	movff	?___ftmul+2,_scale$1441+2
  2498                           
  2499                           ;doprnt.c: 431: return _npowers_[scl/100+18] * _npowers_[(scl%100)/10+9] * _npowers_[scl
      +                          %10];
  2500  0019A0  C027  F015         	movff	_scale$1441,___ftmul@f1
  2501  0019A4  C028  F016         	movff	_scale$1441+1,___ftmul@f1+1
  2502  0019A8  C029  F017         	movff	_scale$1441+2,___ftmul@f1+2
  2503  0019AC  0E00               	movlw	0
  2504  0019AE  6E12               	movwf	___wmul@multiplicand+1,c
  2505  0019B0  0E03               	movlw	3
  2506  0019B2  6E11               	movwf	___wmul@multiplicand,c
  2507  0019B4  0E00               	movlw	0
  2508  0019B6  6E04               	movwf	___awmod@divisor+1,c
  2509  0019B8  0E0A               	movlw	10
  2510  0019BA  6E03               	movwf	___awmod@divisor,c
  2511  0019BC  502A               	movf	scale@scl,w,c
  2512  0019BE  6E01               	movwf	___awmod@dividend,c
  2513  0019C0  6A02               	clrf	___awmod@dividend+1,c
  2514  0019C2  BE01               	btfsc	___awmod@dividend,7,c
  2515  0019C4  0602               	decf	___awmod@dividend+1,f,c
  2516  0019C6  EC7D  F014         	call	___awmod	;wreg free
  2517  0019CA  C001  F00F         	movff	?___awmod,___wmul@multiplier
  2518  0019CE  C002  F010         	movff	?___awmod+1,___wmul@multiplier+1
  2519  0019D2  EC08  F017         	call	___wmul	;wreg free
  2520  0019D6  0E50               	movlw	low __npowers_
  2521  0019D8  240F               	addwf	?___wmul,w,c
  2522  0019DA  6EF6               	movwf	tblptrl,c
  2523  0019DC  0E10               	movlw	high __npowers_
  2524  0019DE  2010               	addwfc	?___wmul+1,w,c
  2525  0019E0  6EF7               	movwf	tblptrh,c
  2526  0019E2                     	if	1	;There are 3 active tblptr bytes
  2527  0019E2  6AF8               	clrf	tblptru,c
  2528  0019E4  0E00               	movlw	low (__mediumconst shr (0+16))
  2529  0019E6  22F8               	addwfc	tblptru,f,c
  2530  0019E8                     	endif
  2531  0019E8  0009               	tblrd		*+
  2532  0019EA  CFF5 F018          	movff	tablat,___ftmul@f2
  2533  0019EE  0009               	tblrd		*+
  2534  0019F0  CFF5 F019          	movff	tablat,___ftmul@f2+1
  2535  0019F4  000A               	tblrd		*-
  2536  0019F6  CFF5 F01A          	movff	tablat,___ftmul@f2+2
  2537  0019FA  EC31  F012         	call	___ftmul	;wreg free
  2538  0019FE  C015  F024         	movff	?___ftmul,?_scale
  2539  001A02  C016  F025         	movff	?___ftmul+1,?_scale+1
  2540  001A06  C017  F026         	movff	?___ftmul+2,?_scale+2
  2541  001A0A  0012               	return	
  2542  001A0C                     l2383:
  2543                           
  2544                           ;doprnt.c: 432: else if(scl > 10)
  2545  001A0C  502A               	movf	scale@scl,w,c
  2546  001A0E  0A80               	xorlw	128
  2547  001A10  0F75               	addlw	-139
  2548  001A12  A0D8               	btfss	status,0,c
  2549  001A14  D053               	goto	l2389
  2550                           
  2551                           ;doprnt.c: 433: return _npowers_[scl/10+9] * _npowers_[scl%10];
  2552  001A16  0E00               	movlw	0
  2553  001A18  6E0A               	movwf	___awdiv@divisor+1,c
  2554  001A1A  0E0A               	movlw	10
  2555  001A1C  6E09               	movwf	___awdiv@divisor,c
  2556  001A1E  502A               	movf	scale@scl,w,c
  2557  001A20  6E07               	movwf	___awdiv@dividend,c
  2558  001A22  6A08               	clrf	___awdiv@dividend+1,c
  2559  001A24  BE07               	btfsc	___awdiv@dividend,7,c
  2560  001A26  0608               	decf	___awdiv@dividend+1,f,c
  2561  001A28  ECBD  F013         	call	___awdiv	;wreg free
  2562  001A2C  0E09               	movlw	9
  2563  001A2E  2407               	addwf	?___awdiv,w,c
  2564  001A30  6E0F               	movwf	___wmul@multiplier,c
  2565  001A32  0E00               	movlw	0
  2566  001A34  2008               	addwfc	?___awdiv+1,w,c
  2567  001A36  6E10               	movwf	___wmul@multiplier+1,c
  2568  001A38  0E00               	movlw	0
  2569  001A3A  6E12               	movwf	___wmul@multiplicand+1,c
  2570  001A3C  0E03               	movlw	3
  2571  001A3E  6E11               	movwf	___wmul@multiplicand,c
  2572  001A40  EC08  F017         	call	___wmul	;wreg free
  2573  001A44  0E50               	movlw	low __npowers_
  2574  001A46  240F               	addwf	?___wmul,w,c
  2575  001A48  6EF6               	movwf	tblptrl,c
  2576  001A4A  0E10               	movlw	high __npowers_
  2577  001A4C  2010               	addwfc	?___wmul+1,w,c
  2578  001A4E  6EF7               	movwf	tblptrh,c
  2579  001A50                     	if	1	;There are 3 active tblptr bytes
  2580  001A50  6AF8               	clrf	tblptru,c
  2581  001A52  0E00               	movlw	low (__mediumconst shr (0+16))
  2582  001A54  22F8               	addwfc	tblptru,f,c
  2583  001A56                     	endif
  2584  001A56  0009               	tblrd		*+
  2585  001A58  CFF5 F015          	movff	tablat,___ftmul@f1
  2586  001A5C  0009               	tblrd		*+
  2587  001A5E  CFF5 F016          	movff	tablat,___ftmul@f1+1
  2588  001A62  000A               	tblrd		*-
  2589  001A64  CFF5 F017          	movff	tablat,___ftmul@f1+2
  2590  001A68  0E00               	movlw	0
  2591  001A6A  6E12               	movwf	___wmul@multiplicand+1,c
  2592  001A6C  0E03               	movlw	3
  2593  001A6E  6E11               	movwf	___wmul@multiplicand,c
  2594  001A70  0E00               	movlw	0
  2595  001A72  6E04               	movwf	___awmod@divisor+1,c
  2596  001A74  0E0A               	movlw	10
  2597  001A76  6E03               	movwf	___awmod@divisor,c
  2598  001A78  502A               	movf	scale@scl,w,c
  2599  001A7A  6E01               	movwf	___awmod@dividend,c
  2600  001A7C  6A02               	clrf	___awmod@dividend+1,c
  2601  001A7E  BE01               	btfsc	___awmod@dividend,7,c
  2602  001A80  0602               	decf	___awmod@dividend+1,f,c
  2603  001A82  EC7D  F014         	call	___awmod	;wreg free
  2604  001A86  C001  F00F         	movff	?___awmod,___wmul@multiplier
  2605  001A8A  C002  F010         	movff	?___awmod+1,___wmul@multiplier+1
  2606  001A8E  EC08  F017         	call	___wmul	;wreg free
  2607  001A92  0E50               	movlw	low __npowers_
  2608  001A94  240F               	addwf	?___wmul,w,c
  2609  001A96  6EF6               	movwf	tblptrl,c
  2610  001A98  0E10               	movlw	high __npowers_
  2611  001A9A  2010               	addwfc	?___wmul+1,w,c
  2612  001A9C  6EF7               	movwf	tblptrh,c
  2613  001A9E                     	if	1	;There are 3 active tblptr bytes
  2614  001A9E  6AF8               	clrf	tblptru,c
  2615  001AA0  0E00               	movlw	low (__mediumconst shr (0+16))
  2616  001AA2  22F8               	addwfc	tblptru,f,c
  2617  001AA4                     	endif
  2618  001AA4  0009               	tblrd		*+
  2619  001AA6  CFF5 F018          	movff	tablat,___ftmul@f2
  2620  001AAA  0009               	tblrd		*+
  2621  001AAC  CFF5 F019          	movff	tablat,___ftmul@f2+1
  2622  001AB0  000A               	tblrd		*-
  2623  001AB2  CFF5 F01A          	movff	tablat,___ftmul@f2+2
  2624  001AB6  EC31  F012         	call	___ftmul	;wreg free
  2625  001ABA  D7A1               	goto	L3
  2626  001ABC                     l2389:
  2627                           
  2628                           ;doprnt.c: 434: return _npowers_[scl];
  2629  001ABC  502A               	movf	scale@scl,w,c
  2630  001ABE  0D03               	mullw	3
  2631  001AC0  0E50               	movlw	low __npowers_
  2632  001AC2  24F3               	addwf	prodl,w,c
  2633  001AC4  6EF6               	movwf	tblptrl,c
  2634  001AC6  0E10               	movlw	high __npowers_
  2635  001AC8  20F4               	addwfc	prodh,w,c
  2636  001ACA  6EF7               	movwf	tblptrh,c
  2637  001ACC                     	if	1	;There are 3 active tblptr bytes
  2638  001ACC  6AF8               	clrf	tblptru,c
  2639  001ACE  0E00               	movlw	low (__mediumconst shr (0+16))
  2640  001AD0  22F8               	addwfc	tblptru,f,c
  2641  001AD2                     	endif
  2642  001AD2  0009               	tblrd		*+
  2643  001AD4  CFF5 F024          	movff	tablat,?_scale
  2644  001AD8  0009               	tblrd		*+
  2645  001ADA  CFF5 F025          	movff	tablat,?_scale+1
  2646  001ADE  000A               	tblrd		*-
  2647  001AE0  CFF5 F026          	movff	tablat,?_scale+2
  2648  001AE4  0012               	return	
  2649  001AE6                     l2393:
  2650                           
  2651                           ;doprnt.c: 435: }
  2652                           ;doprnt.c: 436: if(scl>=110)
  2653  001AE6  502A               	movf	scale@scl,w,c
  2654  001AE8  0A80               	xorlw	128
  2655  001AEA  0F12               	addlw	-238
  2656  001AEC  A0D8               	btfss	status,0,c
  2657  001AEE  D09A               	goto	l2401
  2658                           
  2659                           ;doprnt.c: 437: return _powers_[scl/100+18] * _powers_[(scl%100)/10+9] * _powers_[scl%10
      +                          ];
  2660  001AF0  0E00               	movlw	0
  2661  001AF2  6E12               	movwf	___wmul@multiplicand+1,c
  2662  001AF4  0E03               	movlw	3
  2663  001AF6  6E11               	movwf	___wmul@multiplicand,c
  2664  001AF8  0E00               	movlw	0
  2665  001AFA  6E0A               	movwf	___awdiv@divisor+1,c
  2666  001AFC  0E0A               	movlw	10
  2667  001AFE  6E09               	movwf	___awdiv@divisor,c
  2668  001B00  0E00               	movlw	0
  2669  001B02  6E04               	movwf	___awmod@divisor+1,c
  2670  001B04  0E64               	movlw	100
  2671  001B06  6E03               	movwf	___awmod@divisor,c
  2672  001B08  502A               	movf	scale@scl,w,c
  2673  001B0A  6E01               	movwf	___awmod@dividend,c
  2674  001B0C  6A02               	clrf	___awmod@dividend+1,c
  2675  001B0E  BE01               	btfsc	___awmod@dividend,7,c
  2676  001B10  0602               	decf	___awmod@dividend+1,f,c
  2677  001B12  EC7D  F014         	call	___awmod	;wreg free
  2678  001B16  C001  F007         	movff	?___awmod,___awdiv@dividend
  2679  001B1A  C002  F008         	movff	?___awmod+1,___awdiv@dividend+1
  2680  001B1E  ECBD  F013         	call	___awdiv	;wreg free
  2681  001B22  0E09               	movlw	9
  2682  001B24  2407               	addwf	?___awdiv,w,c
  2683  001B26  6E0F               	movwf	___wmul@multiplier,c
  2684  001B28  0E00               	movlw	0
  2685  001B2A  2008               	addwfc	?___awdiv+1,w,c
  2686  001B2C  6E10               	movwf	___wmul@multiplier+1,c
  2687  001B2E  EC08  F017         	call	___wmul	;wreg free
  2688  001B32  0E29               	movlw	low __powers_
  2689  001B34  240F               	addwf	?___wmul,w,c
  2690  001B36  6EF6               	movwf	tblptrl,c
  2691  001B38  0E10               	movlw	high __powers_
  2692  001B3A  2010               	addwfc	?___wmul+1,w,c
  2693  001B3C  6EF7               	movwf	tblptrh,c
  2694  001B3E                     	if	1	;There are 3 active tblptr bytes
  2695  001B3E  6AF8               	clrf	tblptru,c
  2696  001B40  0E00               	movlw	low (__mediumconst shr (0+16))
  2697  001B42  22F8               	addwfc	tblptru,f,c
  2698  001B44                     	endif
  2699  001B44  0009               	tblrd		*+
  2700  001B46  CFF5 F018          	movff	tablat,___ftmul@f2
  2701  001B4A  0009               	tblrd		*+
  2702  001B4C  CFF5 F019          	movff	tablat,___ftmul@f2+1
  2703  001B50  000A               	tblrd		*-
  2704  001B52  CFF5 F01A          	movff	tablat,___ftmul@f2+2
  2705  001B56  0E00               	movlw	0
  2706  001B58  6E0A               	movwf	___awdiv@divisor+1,c
  2707  001B5A  0E64               	movlw	100
  2708  001B5C  6E09               	movwf	___awdiv@divisor,c
  2709  001B5E  502A               	movf	scale@scl,w,c
  2710  001B60  6E07               	movwf	___awdiv@dividend,c
  2711  001B62  6A08               	clrf	___awdiv@dividend+1,c
  2712  001B64  BE07               	btfsc	___awdiv@dividend,7,c
  2713  001B66  0608               	decf	___awdiv@dividend+1,f,c
  2714  001B68  ECBD  F013         	call	___awdiv	;wreg free
  2715  001B6C  0E12               	movlw	18
  2716  001B6E  2407               	addwf	?___awdiv,w,c
  2717  001B70  6E0F               	movwf	___wmul@multiplier,c
  2718  001B72  0E00               	movlw	0
  2719  001B74  2008               	addwfc	?___awdiv+1,w,c
  2720  001B76  6E10               	movwf	___wmul@multiplier+1,c
  2721  001B78  0E00               	movlw	0
  2722  001B7A  6E12               	movwf	___wmul@multiplicand+1,c
  2723  001B7C  0E03               	movlw	3
  2724  001B7E  6E11               	movwf	___wmul@multiplicand,c
  2725  001B80  EC08  F017         	call	___wmul	;wreg free
  2726  001B84  0E29               	movlw	low __powers_
  2727  001B86  240F               	addwf	?___wmul,w,c
  2728  001B88  6EF6               	movwf	tblptrl,c
  2729  001B8A  0E10               	movlw	high __powers_
  2730  001B8C  2010               	addwfc	?___wmul+1,w,c
  2731  001B8E  6EF7               	movwf	tblptrh,c
  2732  001B90                     	if	1	;There are 3 active tblptr bytes
  2733  001B90  6AF8               	clrf	tblptru,c
  2734  001B92  0E00               	movlw	low (__mediumconst shr (0+16))
  2735  001B94  22F8               	addwfc	tblptru,f,c
  2736  001B96                     	endif
  2737  001B96  0009               	tblrd		*+
  2738  001B98  CFF5 F015          	movff	tablat,___ftmul@f1
  2739  001B9C  0009               	tblrd		*+
  2740  001B9E  CFF5 F016          	movff	tablat,___ftmul@f1+1
  2741  001BA2  000A               	tblrd		*-
  2742  001BA4  CFF5 F017          	movff	tablat,___ftmul@f1+2
  2743  001BA8  EC31  F012         	call	___ftmul	;wreg free
  2744  001BAC  C015  F027         	movff	?___ftmul,_scale$1441
  2745  001BB0  C016  F028         	movff	?___ftmul+1,_scale$1441+1
  2746  001BB4  C017  F029         	movff	?___ftmul+2,_scale$1441+2
  2747                           
  2748                           ;doprnt.c: 437: return _powers_[scl/100+18] * _powers_[(scl%100)/10+9] * _powers_[scl%10
      +                          ];
  2749  001BB8  C027  F015         	movff	_scale$1441,___ftmul@f1
  2750  001BBC  C028  F016         	movff	_scale$1441+1,___ftmul@f1+1
  2751  001BC0  C029  F017         	movff	_scale$1441+2,___ftmul@f1+2
  2752  001BC4  0E00               	movlw	0
  2753  001BC6  6E12               	movwf	___wmul@multiplicand+1,c
  2754  001BC8  0E03               	movlw	3
  2755  001BCA  6E11               	movwf	___wmul@multiplicand,c
  2756  001BCC  0E00               	movlw	0
  2757  001BCE  6E04               	movwf	___awmod@divisor+1,c
  2758  001BD0  0E0A               	movlw	10
  2759  001BD2  6E03               	movwf	___awmod@divisor,c
  2760  001BD4  502A               	movf	scale@scl,w,c
  2761  001BD6  6E01               	movwf	___awmod@dividend,c
  2762  001BD8  6A02               	clrf	___awmod@dividend+1,c
  2763  001BDA  BE01               	btfsc	___awmod@dividend,7,c
  2764  001BDC  0602               	decf	___awmod@dividend+1,f,c
  2765  001BDE  EC7D  F014         	call	___awmod	;wreg free
  2766  001BE2  C001  F00F         	movff	?___awmod,___wmul@multiplier
  2767  001BE6  C002  F010         	movff	?___awmod+1,___wmul@multiplier+1
  2768  001BEA  EC08  F017         	call	___wmul	;wreg free
  2769  001BEE  0E29               	movlw	low __powers_
  2770  001BF0  240F               	addwf	?___wmul,w,c
  2771  001BF2  6EF6               	movwf	tblptrl,c
  2772  001BF4  0E10               	movlw	high __powers_
  2773  001BF6  2010               	addwfc	?___wmul+1,w,c
  2774  001BF8  6EF7               	movwf	tblptrh,c
  2775  001BFA                     	if	1	;There are 3 active tblptr bytes
  2776  001BFA  6AF8               	clrf	tblptru,c
  2777  001BFC  0E00               	movlw	low (__mediumconst shr (0+16))
  2778  001BFE  22F8               	addwfc	tblptru,f,c
  2779  001C00                     	endif
  2780  001C00  0009               	tblrd		*+
  2781  001C02  CFF5 F018          	movff	tablat,___ftmul@f2
  2782  001C06  0009               	tblrd		*+
  2783  001C08  CFF5 F019          	movff	tablat,___ftmul@f2+1
  2784  001C0C  000A               	tblrd		*-
  2785  001C0E  CFF5 F01A          	movff	tablat,___ftmul@f2+2
  2786  001C12  EC31  F012         	call	___ftmul	;wreg free
  2787  001C16  C015  F024         	movff	?___ftmul,?_scale
  2788  001C1A  C016  F025         	movff	?___ftmul+1,?_scale+1
  2789  001C1E  C017  F026         	movff	?___ftmul+2,?_scale+2
  2790  001C22  0012               	return	
  2791  001C24                     l2401:
  2792                           
  2793                           ;doprnt.c: 438: else if(scl > 10)
  2794  001C24  502A               	movf	scale@scl,w,c
  2795  001C26  0A80               	xorlw	128
  2796  001C28  0F75               	addlw	-139
  2797  001C2A  A0D8               	btfss	status,0,c
  2798  001C2C  D053               	goto	l2407
  2799                           
  2800                           ;doprnt.c: 439: return _powers_[scl/10+9] * _powers_[scl%10];
  2801  001C2E  0E00               	movlw	0
  2802  001C30  6E0A               	movwf	___awdiv@divisor+1,c
  2803  001C32  0E0A               	movlw	10
  2804  001C34  6E09               	movwf	___awdiv@divisor,c
  2805  001C36  502A               	movf	scale@scl,w,c
  2806  001C38  6E07               	movwf	___awdiv@dividend,c
  2807  001C3A  6A08               	clrf	___awdiv@dividend+1,c
  2808  001C3C  BE07               	btfsc	___awdiv@dividend,7,c
  2809  001C3E  0608               	decf	___awdiv@dividend+1,f,c
  2810  001C40  ECBD  F013         	call	___awdiv	;wreg free
  2811  001C44  0E09               	movlw	9
  2812  001C46  2407               	addwf	?___awdiv,w,c
  2813  001C48  6E0F               	movwf	___wmul@multiplier,c
  2814  001C4A  0E00               	movlw	0
  2815  001C4C  2008               	addwfc	?___awdiv+1,w,c
  2816  001C4E  6E10               	movwf	___wmul@multiplier+1,c
  2817  001C50  0E00               	movlw	0
  2818  001C52  6E12               	movwf	___wmul@multiplicand+1,c
  2819  001C54  0E03               	movlw	3
  2820  001C56  6E11               	movwf	___wmul@multiplicand,c
  2821  001C58  EC08  F017         	call	___wmul	;wreg free
  2822  001C5C  0E29               	movlw	low __powers_
  2823  001C5E  240F               	addwf	?___wmul,w,c
  2824  001C60  6EF6               	movwf	tblptrl,c
  2825  001C62  0E10               	movlw	high __powers_
  2826  001C64  2010               	addwfc	?___wmul+1,w,c
  2827  001C66  6EF7               	movwf	tblptrh,c
  2828  001C68                     	if	1	;There are 3 active tblptr bytes
  2829  001C68  6AF8               	clrf	tblptru,c
  2830  001C6A  0E00               	movlw	low (__mediumconst shr (0+16))
  2831  001C6C  22F8               	addwfc	tblptru,f,c
  2832  001C6E                     	endif
  2833  001C6E  0009               	tblrd		*+
  2834  001C70  CFF5 F015          	movff	tablat,___ftmul@f1
  2835  001C74  0009               	tblrd		*+
  2836  001C76  CFF5 F016          	movff	tablat,___ftmul@f1+1
  2837  001C7A  000A               	tblrd		*-
  2838  001C7C  CFF5 F017          	movff	tablat,___ftmul@f1+2
  2839  001C80  0E00               	movlw	0
  2840  001C82  6E12               	movwf	___wmul@multiplicand+1,c
  2841  001C84  0E03               	movlw	3
  2842  001C86  6E11               	movwf	___wmul@multiplicand,c
  2843  001C88  0E00               	movlw	0
  2844  001C8A  6E04               	movwf	___awmod@divisor+1,c
  2845  001C8C  0E0A               	movlw	10
  2846  001C8E  6E03               	movwf	___awmod@divisor,c
  2847  001C90  502A               	movf	scale@scl,w,c
  2848  001C92  6E01               	movwf	___awmod@dividend,c
  2849  001C94  6A02               	clrf	___awmod@dividend+1,c
  2850  001C96  BE01               	btfsc	___awmod@dividend,7,c
  2851  001C98  0602               	decf	___awmod@dividend+1,f,c
  2852  001C9A  EC7D  F014         	call	___awmod	;wreg free
  2853  001C9E  C001  F00F         	movff	?___awmod,___wmul@multiplier
  2854  001CA2  C002  F010         	movff	?___awmod+1,___wmul@multiplier+1
  2855  001CA6  EC08  F017         	call	___wmul	;wreg free
  2856  001CAA  0E29               	movlw	low __powers_
  2857  001CAC  240F               	addwf	?___wmul,w,c
  2858  001CAE  6EF6               	movwf	tblptrl,c
  2859  001CB0  0E10               	movlw	high __powers_
  2860  001CB2  2010               	addwfc	?___wmul+1,w,c
  2861  001CB4  6EF7               	movwf	tblptrh,c
  2862  001CB6                     	if	1	;There are 3 active tblptr bytes
  2863  001CB6  6AF8               	clrf	tblptru,c
  2864  001CB8  0E00               	movlw	low (__mediumconst shr (0+16))
  2865  001CBA  22F8               	addwfc	tblptru,f,c
  2866  001CBC                     	endif
  2867  001CBC  0009               	tblrd		*+
  2868  001CBE  CFF5 F018          	movff	tablat,___ftmul@f2
  2869  001CC2  0009               	tblrd		*+
  2870  001CC4  CFF5 F019          	movff	tablat,___ftmul@f2+1
  2871  001CC8  000A               	tblrd		*-
  2872  001CCA  CFF5 F01A          	movff	tablat,___ftmul@f2+2
  2873  001CCE  EC31  F012         	call	___ftmul	;wreg free
  2874  001CD2  D7A1               	goto	L4
  2875  001CD4                     l2407:
  2876                           
  2877                           ;doprnt.c: 440: return _powers_[scl];
  2878  001CD4  502A               	movf	scale@scl,w,c
  2879  001CD6  0D03               	mullw	3
  2880  001CD8  0E29               	movlw	low __powers_
  2881  001CDA  24F3               	addwf	prodl,w,c
  2882  001CDC  6EF6               	movwf	tblptrl,c
  2883  001CDE  0E10               	movlw	high __powers_
  2884  001CE0  20F4               	addwfc	prodh,w,c
  2885  001CE2  6EF7               	movwf	tblptrh,c
  2886  001CE4                     	if	1	;There are 3 active tblptr bytes
  2887  001CE4  6AF8               	clrf	tblptru,c
  2888  001CE6  0E00               	movlw	low (__mediumconst shr (0+16))
  2889  001CE8  22F8               	addwfc	tblptru,f,c
  2890  001CEA                     	endif
  2891  001CEA  0009               	tblrd		*+
  2892  001CEC  CFF5 F024          	movff	tablat,?_scale
  2893  001CF0  0009               	tblrd		*+
  2894  001CF2  CFF5 F025          	movff	tablat,?_scale+1
  2895  001CF6  000A               	tblrd		*-
  2896  001CF8  CFF5 F026          	movff	tablat,?_scale+2
  2897  001CFC  0012               	return	
  2898  001CFE                     __end_of_scale:
  2899                           	opt stack 0
  2900                           tblptru	equ	0xFF8
  2901                           tblptrh	equ	0xFF7
  2902                           tblptrl	equ	0xFF6
  2903                           tablat	equ	0xFF5
  2904                           prodh	equ	0xFF4
  2905                           prodl	equ	0xFF3
  2906                           wreg	equ	0xFE8
  2907                           indf2	equ	0xFDF
  2908                           postinc2	equ	0xFDE
  2909                           postdec2	equ	0xFDD
  2910                           fsr2h	equ	0xFDA
  2911                           fsr2l	equ	0xFD9
  2912                           status	equ	0xFD8
  2913                           
  2914 ;; *************** function _isdigit *****************
  2915 ;; Defined at:
  2916 ;;		line 8 in file "C:\Program Files (x86)\Microchip\xc8\v1.41\sources\common\isdigit.c"
  2917 ;; Parameters:    Size  Location     Type
  2918 ;;  c               1    wreg     unsigned char 
  2919 ;; Auto vars:     Size  Location     Type
  2920 ;;  c               1    2[COMRAM] unsigned char 
  2921 ;; Return value:  Size  Location     Type
  2922 ;;		None               void
  2923 ;; Registers used:
  2924 ;;		wreg, status,2, status,0
  2925 ;; Tracked objects:
  2926 ;;		On entry : 0/0
  2927 ;;		On exit  : 0/0
  2928 ;;		Unchanged: 0/0
  2929 ;; Data sizes:     COMRAM   BANK0   BANK1   BANK2   BANK3   BANK4   BANK5   BANK6   BANK7   BANK8   BANK9  BANK10  BANK1
      +1  BANK12  BANK13  BANK14  BANK15
  2930 ;;      Params:         0       0       0       0       0       0       0       0       0       0       0       0       
      +0       0       0       0       0
  2931 ;;      Locals:         2       0       0       0       0       0       0       0       0       0       0       0       
      +0       0       0       0       0
  2932 ;;      Temps:          1       0       0       0       0       0       0       0       0       0       0       0       
      +0       0       0       0       0
  2933 ;;      Totals:         3       0       0       0       0       0       0       0       0       0       0       0       
      +0       0       0       0       0
  2934 ;;Total ram usage:        3 bytes
  2935 ;; Hardware stack levels used:    1
  2936 ;; This function calls:
  2937 ;;		Nothing
  2938 ;; This function is called by:
  2939 ;;		_sprintf
  2940 ;; This function uses a non-reentrant model
  2941 ;;
  2942                           
  2943                           	psect	text5
  2944  002E7C                     __ptext5:
  2945                           	opt stack 0
  2946  002E7C                     _isdigit:
  2947                           	opt stack 27
  2948                           
  2949                           ;incstack = 0
  2950                           ;isdigit@c stored from wreg
  2951  002E7C  6E03               	movwf	isdigit@c,c
  2952  002E7E  0E00               	movlw	0
  2953  002E80  6E02               	movwf	_isdigit$1094,c
  2954  002E82  0E3A               	movlw	58
  2955  002E84  6003               	cpfslt	isdigit@c,c
  2956  002E86  D005               	goto	l2419
  2957  002E88  0E2F               	movlw	47
  2958  002E8A  6403               	cpfsgt	isdigit@c,c
  2959  002E8C  D002               	goto	l2419
  2960  002E8E  0E01               	movlw	1
  2961  002E90  6E02               	movwf	_isdigit$1094,c
  2962  002E92                     l2419:
  2963  002E92  C002  F001         	movff	_isdigit$1094,??_isdigit
  2964  002E96  3001               	rrcf	??_isdigit,w,c
  2965  002E98  0012               	return	
  2966  002E9A                     __end_of_isdigit:
  2967                           	opt stack 0
  2968                           tblptru	equ	0xFF8
  2969                           tblptrh	equ	0xFF7
  2970                           tblptrl	equ	0xFF6
  2971                           tablat	equ	0xFF5
  2972                           prodh	equ	0xFF4
  2973                           prodl	equ	0xFF3
  2974                           wreg	equ	0xFE8
  2975                           indf2	equ	0xFDF
  2976                           postinc2	equ	0xFDE
  2977                           postdec2	equ	0xFDD
  2978                           fsr2h	equ	0xFDA
  2979                           fsr2l	equ	0xFD9
  2980                           status	equ	0xFD8
  2981                           
  2982 ;; *************** function _fround *****************
  2983 ;; Defined at:
  2984 ;;		line 409 in file "C:\Program Files (x86)\Microchip\xc8\v1.41\sources\common\doprnt.c"
  2985 ;; Parameters:    Size  Location     Type
  2986 ;;  prec            1    wreg     unsigned char 
  2987 ;; Auto vars:     Size  Location     Type
  2988 ;;  prec            1   44[COMRAM] unsigned char 
  2989 ;; Return value:  Size  Location     Type
  2990 ;;                  3   35[COMRAM] unsigned char 
  2991 ;; Registers used:
  2992 ;;		wreg, status,2, status,0, tblptrl, tblptrh, tblptru, prodl, prodh, cstack
  2993 ;; Tracked objects:
  2994 ;;		On entry : 0/0
  2995 ;;		On exit  : 0/0
  2996 ;;		Unchanged: 0/0
  2997 ;; Data sizes:     COMRAM   BANK0   BANK1   BANK2   BANK3   BANK4   BANK5   BANK6   BANK7   BANK8   BANK9  BANK10  BANK1
      +1  BANK12  BANK13  BANK14  BANK15
  2998 ;;      Params:         3       0       0       0       0       0       0       0       0       0       0       0       
      +0       0       0       0       0
  2999 ;;      Locals:         7       0       0       0       0       0       0       0       0       0       0       0       
      +0       0       0       0       0
  3000 ;;      Temps:          0       0       0       0       0       0       0       0       0       0       0       0       
      +0       0       0       0       0
  3001 ;;      Totals:        10       0       0       0       0       0       0       0       0       0       0       0       
      +0       0       0       0       0
  3002 ;;Total ram usage:       10 bytes
  3003 ;; Hardware stack levels used:    1
  3004 ;; Hardware stack levels required when called:    2
  3005 ;; This function calls:
  3006 ;;		___awdiv
  3007 ;;		___awmod
  3008 ;;		___ftmul
  3009 ;;		___wmul
  3010 ;; This function is called by:
  3011 ;;		_sprintf
  3012 ;; This function uses a non-reentrant model
  3013 ;;
  3014                           
  3015                           	psect	text6
  3016  001CFE                     __ptext6:
  3017                           	opt stack 0
  3018  001CFE                     _fround:
  3019                           	opt stack 25
  3020                           
  3021                           ;incstack = 0
  3022                           ;fround@prec stored from wreg
  3023  001CFE  6E2D               	movwf	fround@prec,c
  3024                           
  3025                           ;doprnt.c: 413: if(prec>=110)
  3026  001D00  0E6D               	movlw	109
  3027  001D02  642D               	cpfsgt	fround@prec,c
  3028  001D04  D0A8               	goto	l2361
  3029                           
  3030                           ;doprnt.c: 414: return 0.5 * _npowers_[prec/100+18] * _npowers_[(prec%100)/10+9] * _npow
      +                          ers_[prec%10];
  3031  001D06  0E00               	movlw	0
  3032  001D08  6E12               	movwf	___wmul@multiplicand+1,c
  3033  001D0A  0E03               	movlw	3
  3034  001D0C  6E11               	movwf	___wmul@multiplicand,c
  3035  001D0E  0E00               	movlw	0
  3036  001D10  6E0A               	movwf	___awdiv@divisor+1,c
  3037  001D12  0E0A               	movlw	10
  3038  001D14  6E09               	movwf	___awdiv@divisor,c
  3039  001D16  0E00               	movlw	0
  3040  001D18  6E04               	movwf	___awmod@divisor+1,c
  3041  001D1A  0E64               	movlw	100
  3042  001D1C  6E03               	movwf	___awmod@divisor,c
  3043  001D1E  C02D  F001         	movff	fround@prec,___awmod@dividend
  3044  001D22  6A02               	clrf	___awmod@dividend+1,c
  3045  001D24  EC7D  F014         	call	___awmod	;wreg free
  3046  001D28  C001  F007         	movff	?___awmod,___awdiv@dividend
  3047  001D2C  C002  F008         	movff	?___awmod+1,___awdiv@dividend+1
  3048  001D30  ECBD  F013         	call	___awdiv	;wreg free
  3049  001D34  0E09               	movlw	9
  3050  001D36  2407               	addwf	?___awdiv,w,c
  3051  001D38  6E0F               	movwf	___wmul@multiplier,c
  3052  001D3A  0E00               	movlw	0
  3053  001D3C  2008               	addwfc	?___awdiv+1,w,c
  3054  001D3E  6E10               	movwf	___wmul@multiplier+1,c
  3055  001D40  EC08  F017         	call	___wmul	;wreg free
  3056  001D44  0E50               	movlw	low __npowers_
  3057  001D46  240F               	addwf	?___wmul,w,c
  3058  001D48  6EF6               	movwf	tblptrl,c
  3059  001D4A  0E10               	movlw	high __npowers_
  3060  001D4C  2010               	addwfc	?___wmul+1,w,c
  3061  001D4E  6EF7               	movwf	tblptrh,c
  3062  001D50                     	if	1	;There are 3 active tblptr bytes
  3063  001D50  6AF8               	clrf	tblptru,c
  3064  001D52  0E00               	movlw	low (__mediumconst shr (0+16))
  3065  001D54  22F8               	addwfc	tblptru,f,c
  3066  001D56                     	endif
  3067  001D56  0009               	tblrd		*+
  3068  001D58  CFF5 F018          	movff	tablat,___ftmul@f2
  3069  001D5C  0009               	tblrd		*+
  3070  001D5E  CFF5 F019          	movff	tablat,___ftmul@f2+1
  3071  001D62  000A               	tblrd		*-
  3072  001D64  CFF5 F01A          	movff	tablat,___ftmul@f2+2
  3073  001D68  0E00               	movlw	0
  3074  001D6A  6E0A               	movwf	___awdiv@divisor+1,c
  3075  001D6C  0E64               	movlw	100
  3076  001D6E  6E09               	movwf	___awdiv@divisor,c
  3077  001D70  C02D  F007         	movff	fround@prec,___awdiv@dividend
  3078  001D74  6A08               	clrf	___awdiv@dividend+1,c
  3079  001D76  ECBD  F013         	call	___awdiv	;wreg free
  3080  001D7A  0E12               	movlw	18
  3081  001D7C  2407               	addwf	?___awdiv,w,c
  3082  001D7E  6E0F               	movwf	___wmul@multiplier,c
  3083  001D80  0E00               	movlw	0
  3084  001D82  2008               	addwfc	?___awdiv+1,w,c
  3085  001D84  6E10               	movwf	___wmul@multiplier+1,c
  3086  001D86  0E00               	movlw	0
  3087  001D88  6E12               	movwf	___wmul@multiplicand+1,c
  3088  001D8A  0E03               	movlw	3
  3089  001D8C  6E11               	movwf	___wmul@multiplicand,c
  3090  001D8E  EC08  F017         	call	___wmul	;wreg free
  3091  001D92  0E50               	movlw	low __npowers_
  3092  001D94  240F               	addwf	?___wmul,w,c
  3093  001D96  6EF6               	movwf	tblptrl,c
  3094  001D98  0E10               	movlw	high __npowers_
  3095  001D9A  2010               	addwfc	?___wmul+1,w,c
  3096  001D9C  6EF7               	movwf	tblptrh,c
  3097  001D9E                     	if	1	;There are 3 active tblptr bytes
  3098  001D9E  6AF8               	clrf	tblptru,c
  3099  001DA0  0E00               	movlw	low (__mediumconst shr (0+16))
  3100  001DA2  22F8               	addwfc	tblptru,f,c
  3101  001DA4                     	endif
  3102  001DA4  0009               	tblrd		*+
  3103  001DA6  CFF5 F015          	movff	tablat,___ftmul@f1
  3104  001DAA  0009               	tblrd		*+
  3105  001DAC  CFF5 F016          	movff	tablat,___ftmul@f1+1
  3106  001DB0  000A               	tblrd		*-
  3107  001DB2  CFF5 F017          	movff	tablat,___ftmul@f1+2
  3108  001DB6  EC31  F012         	call	___ftmul	;wreg free
  3109  001DBA  C015  F02A         	movff	?___ftmul,_fround$1439
  3110  001DBE  C016  F02B         	movff	?___ftmul+1,_fround$1439+1
  3111  001DC2  C017  F02C         	movff	?___ftmul+2,_fround$1439+2
  3112                           
  3113                           ;doprnt.c: 414: return 0.5 * _npowers_[prec/100+18] * _npowers_[(prec%100)/10+9] * _npow
      +                          ers_[prec%10];
  3114  001DC6  0E00               	movlw	0
  3115  001DC8  6E12               	movwf	___wmul@multiplicand+1,c
  3116  001DCA  0E03               	movlw	3
  3117  001DCC  6E11               	movwf	___wmul@multiplicand,c
  3118  001DCE  0E00               	movlw	0
  3119  001DD0  6E04               	movwf	___awmod@divisor+1,c
  3120  001DD2  0E0A               	movlw	10
  3121  001DD4  6E03               	movwf	___awmod@divisor,c
  3122  001DD6  C02D  F001         	movff	fround@prec,___awmod@dividend
  3123  001DDA  6A02               	clrf	___awmod@dividend+1,c
  3124  001DDC  EC7D  F014         	call	___awmod	;wreg free
  3125  001DE0  C001  F00F         	movff	?___awmod,___wmul@multiplier
  3126  001DE4  C002  F010         	movff	?___awmod+1,___wmul@multiplier+1
  3127  001DE8  EC08  F017         	call	___wmul	;wreg free
  3128  001DEC  0E50               	movlw	low __npowers_
  3129  001DEE  240F               	addwf	?___wmul,w,c
  3130  001DF0  6EF6               	movwf	tblptrl,c
  3131  001DF2  0E10               	movlw	high __npowers_
  3132  001DF4  2010               	addwfc	?___wmul+1,w,c
  3133  001DF6  6EF7               	movwf	tblptrh,c
  3134  001DF8                     	if	1	;There are 3 active tblptr bytes
  3135  001DF8  6AF8               	clrf	tblptru,c
  3136  001DFA  0E00               	movlw	low (__mediumconst shr (0+16))
  3137  001DFC  22F8               	addwfc	tblptru,f,c
  3138  001DFE                     	endif
  3139  001DFE  0009               	tblrd		*+
  3140  001E00  CFF5 F018          	movff	tablat,___ftmul@f2
  3141  001E04  0009               	tblrd		*+
  3142  001E06  CFF5 F019          	movff	tablat,___ftmul@f2+1
  3143  001E0A  000A               	tblrd		*-
  3144  001E0C  CFF5 F01A          	movff	tablat,___ftmul@f2+2
  3145  001E10  C02A  F015         	movff	_fround$1439,___ftmul@f1
  3146  001E14  C02B  F016         	movff	_fround$1439+1,___ftmul@f1+1
  3147  001E18  C02C  F017         	movff	_fround$1439+2,___ftmul@f1+2
  3148  001E1C  EC31  F012         	call	___ftmul	;wreg free
  3149  001E20  C015  F027         	movff	?___ftmul,_fround$1440
  3150  001E24  C016  F028         	movff	?___ftmul+1,_fround$1440+1
  3151  001E28  C017  F029         	movff	?___ftmul+2,_fround$1440+2
  3152                           
  3153                           ;doprnt.c: 414: return 0.5 * _npowers_[prec/100+18] * _npowers_[(prec%100)/10+9] * _npow
      +                          ers_[prec%10];
  3154  001E2C  C027  F015         	movff	_fround$1440,___ftmul@f1
  3155  001E30  C028  F016         	movff	_fround$1440+1,___ftmul@f1+1
  3156  001E34  C029  F017         	movff	_fround$1440+2,___ftmul@f1+2
  3157  001E38  0E00               	movlw	0
  3158  001E3A  6E18               	movwf	___ftmul@f2,c
  3159  001E3C  0E00               	movlw	0
  3160  001E3E  6E19               	movwf	___ftmul@f2+1,c
  3161  001E40  0E3F               	movlw	63
  3162  001E42  6E1A               	movwf	___ftmul@f2+2,c
  3163  001E44  EC31  F012         	call	___ftmul	;wreg free
  3164  001E48  C015  F024         	movff	?___ftmul,?_fround
  3165  001E4C  C016  F025         	movff	?___ftmul+1,?_fround+1
  3166  001E50  C017  F026         	movff	?___ftmul+2,?_fround+2
  3167  001E54  0012               	return	
  3168  001E56                     l2361:
  3169                           
  3170                           ;doprnt.c: 415: else if(prec > 10)
  3171  001E56  0E0A               	movlw	10
  3172  001E58  642D               	cpfsgt	fround@prec,c
  3173  001E5A  D063               	goto	l2369
  3174                           
  3175                           ;doprnt.c: 416: return 0.5 * _npowers_[prec/10+9] * _npowers_[prec%10];
  3176  001E5C  0E00               	movlw	0
  3177  001E5E  6E12               	movwf	___wmul@multiplicand+1,c
  3178  001E60  0E03               	movlw	3
  3179  001E62  6E11               	movwf	___wmul@multiplicand,c
  3180  001E64  0E00               	movlw	0
  3181  001E66  6E04               	movwf	___awmod@divisor+1,c
  3182  001E68  0E0A               	movlw	10
  3183  001E6A  6E03               	movwf	___awmod@divisor,c
  3184  001E6C  C02D  F001         	movff	fround@prec,___awmod@dividend
  3185  001E70  6A02               	clrf	___awmod@dividend+1,c
  3186  001E72  EC7D  F014         	call	___awmod	;wreg free
  3187  001E76  C001  F00F         	movff	?___awmod,___wmul@multiplier
  3188  001E7A  C002  F010         	movff	?___awmod+1,___wmul@multiplier+1
  3189  001E7E  EC08  F017         	call	___wmul	;wreg free
  3190  001E82  0E50               	movlw	low __npowers_
  3191  001E84  240F               	addwf	?___wmul,w,c
  3192  001E86  6EF6               	movwf	tblptrl,c
  3193  001E88  0E10               	movlw	high __npowers_
  3194  001E8A  2010               	addwfc	?___wmul+1,w,c
  3195  001E8C  6EF7               	movwf	tblptrh,c
  3196  001E8E                     	if	1	;There are 3 active tblptr bytes
  3197  001E8E  6AF8               	clrf	tblptru,c
  3198  001E90  0E00               	movlw	low (__mediumconst shr (0+16))
  3199  001E92  22F8               	addwfc	tblptru,f,c
  3200  001E94                     	endif
  3201  001E94  0009               	tblrd		*+
  3202  001E96  CFF5 F018          	movff	tablat,___ftmul@f2
  3203  001E9A  0009               	tblrd		*+
  3204  001E9C  CFF5 F019          	movff	tablat,___ftmul@f2+1
  3205  001EA0  000A               	tblrd		*-
  3206  001EA2  CFF5 F01A          	movff	tablat,___ftmul@f2+2
  3207  001EA6  0E00               	movlw	0
  3208  001EA8  6E0A               	movwf	___awdiv@divisor+1,c
  3209  001EAA  0E0A               	movlw	10
  3210  001EAC  6E09               	movwf	___awdiv@divisor,c
  3211  001EAE  C02D  F007         	movff	fround@prec,___awdiv@dividend
  3212  001EB2  6A08               	clrf	___awdiv@dividend+1,c
  3213  001EB4  ECBD  F013         	call	___awdiv	;wreg free
  3214  001EB8  0E09               	movlw	9
  3215  001EBA  2407               	addwf	?___awdiv,w,c
  3216  001EBC  6E0F               	movwf	___wmul@multiplier,c
  3217  001EBE  0E00               	movlw	0
  3218  001EC0  2008               	addwfc	?___awdiv+1,w,c
  3219  001EC2  6E10               	movwf	___wmul@multiplier+1,c
  3220  001EC4  0E00               	movlw	0
  3221  001EC6  6E12               	movwf	___wmul@multiplicand+1,c
  3222  001EC8  0E03               	movlw	3
  3223  001ECA  6E11               	movwf	___wmul@multiplicand,c
  3224  001ECC  EC08  F017         	call	___wmul	;wreg free
  3225  001ED0  0E50               	movlw	low __npowers_
  3226  001ED2  240F               	addwf	?___wmul,w,c
  3227  001ED4  6EF6               	movwf	tblptrl,c
  3228  001ED6  0E10               	movlw	high __npowers_
  3229  001ED8  2010               	addwfc	?___wmul+1,w,c
  3230  001EDA  6EF7               	movwf	tblptrh,c
  3231  001EDC                     	if	1	;There are 3 active tblptr bytes
  3232  001EDC  6AF8               	clrf	tblptru,c
  3233  001EDE  0E00               	movlw	low (__mediumconst shr (0+16))
  3234  001EE0  22F8               	addwfc	tblptru,f,c
  3235  001EE2                     	endif
  3236  001EE2  0009               	tblrd		*+
  3237  001EE4  CFF5 F015          	movff	tablat,___ftmul@f1
  3238  001EE8  0009               	tblrd		*+
  3239  001EEA  CFF5 F016          	movff	tablat,___ftmul@f1+1
  3240  001EEE  000A               	tblrd		*-
  3241  001EF0  CFF5 F017          	movff	tablat,___ftmul@f1+2
  3242  001EF4  EC31  F012         	call	___ftmul	;wreg free
  3243  001EF8  C015  F02A         	movff	?___ftmul,_fround$1439
  3244  001EFC  C016  F02B         	movff	?___ftmul+1,_fround$1439+1
  3245  001F00  C017  F02C         	movff	?___ftmul+2,_fround$1439+2
  3246                           
  3247                           ;doprnt.c: 416: return 0.5 * _npowers_[prec/10+9] * _npowers_[prec%10];
  3248  001F04  C02A  F015         	movff	_fround$1439,___ftmul@f1
  3249  001F08  C02B  F016         	movff	_fround$1439+1,___ftmul@f1+1
  3250  001F0C  C02C  F017         	movff	_fround$1439+2,___ftmul@f1+2
  3251  001F10  0E00               	movlw	0
  3252  001F12  6E18               	movwf	___ftmul@f2,c
  3253  001F14  0E00               	movlw	0
  3254  001F16  6E19               	movwf	___ftmul@f2+1,c
  3255  001F18  0E3F               	movlw	63
  3256  001F1A  6E1A               	movwf	___ftmul@f2+2,c
  3257  001F1C  EC31  F012         	call	___ftmul	;wreg free
  3258  001F20  D793               	goto	L5
  3259  001F22                     l2369:
  3260                           
  3261                           ;doprnt.c: 417: return 0.5 * _npowers_[prec];
  3262  001F22  502D               	movf	fround@prec,w,c
  3263  001F24  0D03               	mullw	3
  3264  001F26  0E50               	movlw	low __npowers_
  3265  001F28  24F3               	addwf	prodl,w,c
  3266  001F2A  6EF6               	movwf	tblptrl,c
  3267  001F2C  0E10               	movlw	high __npowers_
  3268  001F2E  20F4               	addwfc	prodh,w,c
  3269  001F30  6EF7               	movwf	tblptrh,c
  3270  001F32                     	if	1	;There are 3 active tblptr bytes
  3271  001F32  6AF8               	clrf	tblptru,c
  3272  001F34  0E00               	movlw	low (__mediumconst shr (0+16))
  3273  001F36  22F8               	addwfc	tblptru,f,c
  3274  001F38                     	endif
  3275  001F38  0009               	tblrd		*+
  3276  001F3A  CFF5 F015          	movff	tablat,___ftmul@f1
  3277  001F3E  0009               	tblrd		*+
  3278  001F40  CFF5 F016          	movff	tablat,___ftmul@f1+1
  3279  001F44  000A               	tblrd		*-
  3280  001F46  CFF5 F017          	movff	tablat,___ftmul@f1+2
  3281  001F4A  0E00               	movlw	0
  3282  001F4C  6E18               	movwf	___ftmul@f2,c
  3283  001F4E  0E00               	movlw	0
  3284  001F50  6E19               	movwf	___ftmul@f2+1,c
  3285  001F52  0E3F               	movlw	63
  3286  001F54  6E1A               	movwf	___ftmul@f2+2,c
  3287  001F56  EC31  F012         	call	___ftmul	;wreg free
  3288  001F5A  C015  F024         	movff	?___ftmul,?_fround
  3289  001F5E  C016  F025         	movff	?___ftmul+1,?_fround+1
  3290  001F62  C017  F026         	movff	?___ftmul+2,?_fround+2
  3291  001F66  0012               	return	
  3292  001F68                     __end_of_fround:
  3293                           	opt stack 0
  3294                           tblptru	equ	0xFF8
  3295                           tblptrh	equ	0xFF7
  3296                           tblptrl	equ	0xFF6
  3297                           tablat	equ	0xFF5
  3298                           prodh	equ	0xFF4
  3299                           prodl	equ	0xFF3
  3300                           wreg	equ	0xFE8
  3301                           indf2	equ	0xFDF
  3302                           postinc2	equ	0xFDE
  3303                           postdec2	equ	0xFDD
  3304                           fsr2h	equ	0xFDA
  3305                           fsr2l	equ	0xFD9
  3306                           status	equ	0xFD8
  3307                           
  3308 ;; *************** function ___wmul *****************
  3309 ;; Defined at:
  3310 ;;		line 15 in file "C:\Program Files (x86)\Microchip\xc8\v1.41\sources\common\Umul16.c"
  3311 ;; Parameters:    Size  Location     Type
  3312 ;;  multiplier      2   14[COMRAM] unsigned int 
  3313 ;;  multiplicand    2   16[COMRAM] unsigned int 
  3314 ;; Auto vars:     Size  Location     Type
  3315 ;;  product         2   18[COMRAM] unsigned int 
  3316 ;; Return value:  Size  Location     Type
  3317 ;;                  2   14[COMRAM] unsigned int 
  3318 ;; Registers used:
  3319 ;;		wreg, status,2, status,0, prodl, prodh
  3320 ;; Tracked objects:
  3321 ;;		On entry : 0/0
  3322 ;;		On exit  : 0/0
  3323 ;;		Unchanged: 0/0
  3324 ;; Data sizes:     COMRAM   BANK0   BANK1   BANK2   BANK3   BANK4   BANK5   BANK6   BANK7   BANK8   BANK9  BANK10  BANK1
      +1  BANK12  BANK13  BANK14  BANK15
  3325 ;;      Params:         4       0       0       0       0       0       0       0       0       0       0       0       
      +0       0       0       0       0
  3326 ;;      Locals:         2       0       0       0       0       0       0       0       0       0       0       0       
      +0       0       0       0       0
  3327 ;;      Temps:          0       0       0       0       0       0       0       0       0       0       0       0       
      +0       0       0       0       0
  3328 ;;      Totals:         6       0       0       0       0       0       0       0       0       0       0       0       
      +0       0       0       0       0
  3329 ;;Total ram usage:        6 bytes
  3330 ;; Hardware stack levels used:    1
  3331 ;; This function calls:
  3332 ;;		Nothing
  3333 ;; This function is called by:
  3334 ;;		_fround
  3335 ;;		_scale
  3336 ;;		_sprintf
  3337 ;; This function uses a non-reentrant model
  3338 ;;
  3339                           
  3340                           	psect	text7
  3341  002E10                     __ptext7:
  3342                           	opt stack 0
  3343  002E10                     ___wmul:
  3344                           	opt stack 26
  3345                           
  3346                           ;incstack = 0
  3347  002E10  500F               	movf	___wmul@multiplier,w,c
  3348  002E12  0211               	mulwf	___wmul@multiplicand,c
  3349  002E14  CFF3 F013          	movff	prodl,___wmul@product
  3350  002E18  CFF4 F014          	movff	prodh,___wmul@product+1
  3351  002E1C  500F               	movf	___wmul@multiplier,w,c
  3352  002E1E  0212               	mulwf	___wmul@multiplicand+1,c
  3353  002E20  50F3               	movf	prodl,w,c
  3354  002E22  2614               	addwf	___wmul@product+1,f,c
  3355  002E24  5010               	movf	___wmul@multiplier+1,w,c
  3356  002E26  0211               	mulwf	___wmul@multiplicand,c
  3357  002E28  50F3               	movf	prodl,w,c
  3358  002E2A  2614               	addwf	___wmul@product+1,f,c
  3359  002E2C  C013  F00F         	movff	___wmul@product,?___wmul
  3360  002E30  C014  F010         	movff	___wmul@product+1,?___wmul+1
  3361  002E34  0012               	return	
  3362  002E36                     __end_of___wmul:
  3363                           	opt stack 0
  3364                           tblptru	equ	0xFF8
  3365                           tblptrh	equ	0xFF7
  3366                           tblptrl	equ	0xFF6
  3367                           tablat	equ	0xFF5
  3368                           prodh	equ	0xFF4
  3369                           prodl	equ	0xFF3
  3370                           wreg	equ	0xFE8
  3371                           indf2	equ	0xFDF
  3372                           postinc2	equ	0xFDE
  3373                           postdec2	equ	0xFDD
  3374                           fsr2h	equ	0xFDA
  3375                           fsr2l	equ	0xFD9
  3376                           status	equ	0xFD8
  3377                           
  3378 ;; *************** function ___awmod *****************
  3379 ;; Defined at:
  3380 ;;		line 8 in file "C:\Program Files (x86)\Microchip\xc8\v1.41\sources\common\awmod.c"
  3381 ;; Parameters:    Size  Location     Type
  3382 ;;  dividend        2    0[COMRAM] int 
  3383 ;;  divisor         2    2[COMRAM] int 
  3384 ;; Auto vars:     Size  Location     Type
  3385 ;;  sign            1    5[COMRAM] unsigned char 
  3386 ;;  counter         1    4[COMRAM] unsigned char 
  3387 ;; Return value:  Size  Location     Type
  3388 ;;                  2    0[COMRAM] int 
  3389 ;; Registers used:
  3390 ;;		wreg, status,2, status,0
  3391 ;; Tracked objects:
  3392 ;;		On entry : 0/0
  3393 ;;		On exit  : 0/0
  3394 ;;		Unchanged: 0/0
  3395 ;; Data sizes:     COMRAM   BANK0   BANK1   BANK2   BANK3   BANK4   BANK5   BANK6   BANK7   BANK8   BANK9  BANK10  BANK1
      +1  BANK12  BANK13  BANK14  BANK15
  3396 ;;      Params:         4       0       0       0       0       0       0       0       0       0       0       0       
      +0       0       0       0       0
  3397 ;;      Locals:         2       0       0       0       0       0       0       0       0       0       0       0       
      +0       0       0       0       0
  3398 ;;      Temps:          0       0       0       0       0       0       0       0       0       0       0       0       
      +0       0       0       0       0
  3399 ;;      Totals:         6       0       0       0       0       0       0       0       0       0       0       0       
      +0       0       0       0       0
  3400 ;;Total ram usage:        6 bytes
  3401 ;; Hardware stack levels used:    1
  3402 ;; This function calls:
  3403 ;;		Nothing
  3404 ;; This function is called by:
  3405 ;;		_fround
  3406 ;;		_scale
  3407 ;; This function uses a non-reentrant model
  3408 ;;
  3409                           
  3410                           	psect	text8
  3411  0028FA                     __ptext8:
  3412                           	opt stack 0
  3413  0028FA                     ___awmod:
  3414                           	opt stack 26
  3415                           
  3416                           ;incstack = 0
  3417  0028FA  0E00               	movlw	0
  3418  0028FC  6E06               	movwf	___awmod@sign,c
  3419  0028FE  AE02               	btfss	___awmod@dividend+1,7,c
  3420  002900  D006               	goto	l2299
  3421  002902  6C01               	negf	___awmod@dividend,c
  3422  002904  1E02               	comf	___awmod@dividend+1,f,c
  3423  002906  B0D8               	btfsc	status,0,c
  3424  002908  2A02               	incf	___awmod@dividend+1,f,c
  3425  00290A  0E01               	movlw	1
  3426  00290C  6E06               	movwf	___awmod@sign,c
  3427  00290E                     l2299:
  3428  00290E  AE04               	btfss	___awmod@divisor+1,7,c
  3429  002910  D004               	goto	l2303
  3430  002912  6C03               	negf	___awmod@divisor,c
  3431  002914  1E04               	comf	___awmod@divisor+1,f,c
  3432  002916  B0D8               	btfsc	status,0,c
  3433  002918  2A04               	incf	___awmod@divisor+1,f,c
  3434  00291A                     l2303:
  3435  00291A  5003               	movf	___awmod@divisor,w,c
  3436  00291C  1004               	iorwf	___awmod@divisor+1,w,c
  3437  00291E  B4D8               	btfsc	status,2,c
  3438  002920  D018               	goto	l2319
  3439  002922  0E01               	movlw	1
  3440  002924  6E05               	movwf	___awmod@counter,c
  3441  002926  D004               	goto	l2309
  3442  002928                     l2307:
  3443  002928  90D8               	bcf	status,0,c
  3444  00292A  3603               	rlcf	___awmod@divisor,f,c
  3445  00292C  3604               	rlcf	___awmod@divisor+1,f,c
  3446  00292E  2A05               	incf	___awmod@counter,f,c
  3447  002930                     l2309:
  3448  002930  AE04               	btfss	___awmod@divisor+1,7,c
  3449  002932  D7FA               	goto	l2307
  3450  002934                     l2311:
  3451  002934  5003               	movf	___awmod@divisor,w,c
  3452  002936  5C01               	subwf	___awmod@dividend,w,c
  3453  002938  5004               	movf	___awmod@divisor+1,w,c
  3454  00293A  5802               	subwfb	___awmod@dividend+1,w,c
  3455  00293C  A0D8               	btfss	status,0,c
  3456  00293E  D004               	goto	l2315
  3457  002940  5003               	movf	___awmod@divisor,w,c
  3458  002942  5E01               	subwf	___awmod@dividend,f,c
  3459  002944  5004               	movf	___awmod@divisor+1,w,c
  3460  002946  5A02               	subwfb	___awmod@dividend+1,f,c
  3461  002948                     l2315:
  3462  002948  90D8               	bcf	status,0,c
  3463  00294A  3204               	rrcf	___awmod@divisor+1,f,c
  3464  00294C  3203               	rrcf	___awmod@divisor,f,c
  3465  00294E  2E05               	decfsz	___awmod@counter,f,c
  3466  002950  D7F1               	goto	l2311
  3467  002952                     l2319:
  3468  002952  5006               	movf	___awmod@sign,w,c
  3469  002954  B4D8               	btfsc	status,2,c
  3470  002956  D004               	goto	l2323
  3471  002958  6C01               	negf	___awmod@dividend,c
  3472  00295A  1E02               	comf	___awmod@dividend+1,f,c
  3473  00295C  B0D8               	btfsc	status,0,c
  3474  00295E  2A02               	incf	___awmod@dividend+1,f,c
  3475  002960                     l2323:
  3476  002960  C001  F001         	movff	___awmod@dividend,?___awmod
  3477  002964  C002  F002         	movff	___awmod@dividend+1,?___awmod+1
  3478  002968  0012               	return	
  3479  00296A                     __end_of___awmod:
  3480                           	opt stack 0
  3481                           tblptru	equ	0xFF8
  3482                           tblptrh	equ	0xFF7
  3483                           tblptrl	equ	0xFF6
  3484                           tablat	equ	0xFF5
  3485                           prodh	equ	0xFF4
  3486                           prodl	equ	0xFF3
  3487                           wreg	equ	0xFE8
  3488                           indf2	equ	0xFDF
  3489                           postinc2	equ	0xFDE
  3490                           postdec2	equ	0xFDD
  3491                           fsr2h	equ	0xFDA
  3492                           fsr2l	equ	0xFD9
  3493                           status	equ	0xFD8
  3494                           
  3495 ;; *************** function ___awdiv *****************
  3496 ;; Defined at:
  3497 ;;		line 8 in file "C:\Program Files (x86)\Microchip\xc8\v1.41\sources\common\awdiv.c"
  3498 ;; Parameters:    Size  Location     Type
  3499 ;;  dividend        2    6[COMRAM] int 
  3500 ;;  divisor         2    8[COMRAM] int 
  3501 ;; Auto vars:     Size  Location     Type
  3502 ;;  quotient        2   12[COMRAM] int 
  3503 ;;  sign            1   11[COMRAM] unsigned char 
  3504 ;;  counter         1   10[COMRAM] unsigned char 
  3505 ;; Return value:  Size  Location     Type
  3506 ;;                  2    6[COMRAM] int 
  3507 ;; Registers used:
  3508 ;;		wreg, status,2, status,0
  3509 ;; Tracked objects:
  3510 ;;		On entry : 0/0
  3511 ;;		On exit  : 0/0
  3512 ;;		Unchanged: 0/0
  3513 ;; Data sizes:     COMRAM   BANK0   BANK1   BANK2   BANK3   BANK4   BANK5   BANK6   BANK7   BANK8   BANK9  BANK10  BANK1
      +1  BANK12  BANK13  BANK14  BANK15
  3514 ;;      Params:         4       0       0       0       0       0       0       0       0       0       0       0       
      +0       0       0       0       0
  3515 ;;      Locals:         4       0       0       0       0       0       0       0       0       0       0       0       
      +0       0       0       0       0
  3516 ;;      Temps:          0       0       0       0       0       0       0       0       0       0       0       0       
      +0       0       0       0       0
  3517 ;;      Totals:         8       0       0       0       0       0       0       0       0       0       0       0       
      +0       0       0       0       0
  3518 ;;Total ram usage:        8 bytes
  3519 ;; Hardware stack levels used:    1
  3520 ;; This function calls:
  3521 ;;		Nothing
  3522 ;; This function is called by:
  3523 ;;		_fround
  3524 ;;		_scale
  3525 ;;		_sprintf
  3526 ;; This function uses a non-reentrant model
  3527 ;;
  3528                           
  3529                           	psect	text9
  3530  00277A                     __ptext9:
  3531                           	opt stack 0
  3532  00277A                     ___awdiv:
  3533                           	opt stack 26
  3534                           
  3535                           ;incstack = 0
  3536  00277A  0E00               	movlw	0
  3537  00277C  6E0C               	movwf	___awdiv@sign,c
  3538  00277E  AE0A               	btfss	___awdiv@divisor+1,7,c
  3539  002780  D006               	goto	l2255
  3540  002782  6C09               	negf	___awdiv@divisor,c
  3541  002784  1E0A               	comf	___awdiv@divisor+1,f,c
  3542  002786  B0D8               	btfsc	status,0,c
  3543  002788  2A0A               	incf	___awdiv@divisor+1,f,c
  3544  00278A  0E01               	movlw	1
  3545  00278C  6E0C               	movwf	___awdiv@sign,c
  3546  00278E                     l2255:
  3547  00278E  AE08               	btfss	___awdiv@dividend+1,7,c
  3548  002790  D006               	goto	l2261
  3549  002792  6C07               	negf	___awdiv@dividend,c
  3550  002794  1E08               	comf	___awdiv@dividend+1,f,c
  3551  002796  B0D8               	btfsc	status,0,c
  3552  002798  2A08               	incf	___awdiv@dividend+1,f,c
  3553  00279A  0E01               	movlw	1
  3554  00279C  1A0C               	xorwf	___awdiv@sign,f,c
  3555  00279E                     l2261:
  3556  00279E  0E00               	movlw	0
  3557  0027A0  6E0E               	movwf	___awdiv@quotient+1,c
  3558  0027A2  0E00               	movlw	0
  3559  0027A4  6E0D               	movwf	___awdiv@quotient,c
  3560  0027A6  5009               	movf	___awdiv@divisor,w,c
  3561  0027A8  100A               	iorwf	___awdiv@divisor+1,w,c
  3562  0027AA  B4D8               	btfsc	status,2,c
  3563  0027AC  D01C               	goto	l2283
  3564  0027AE  0E01               	movlw	1
  3565  0027B0  6E0B               	movwf	___awdiv@counter,c
  3566  0027B2  D004               	goto	l2269
  3567  0027B4                     l2267:
  3568  0027B4  90D8               	bcf	status,0,c
  3569  0027B6  3609               	rlcf	___awdiv@divisor,f,c
  3570  0027B8  360A               	rlcf	___awdiv@divisor+1,f,c
  3571  0027BA  2A0B               	incf	___awdiv@counter,f,c
  3572  0027BC                     l2269:
  3573  0027BC  AE0A               	btfss	___awdiv@divisor+1,7,c
  3574  0027BE  D7FA               	goto	l2267
  3575  0027C0                     l2271:
  3576  0027C0  90D8               	bcf	status,0,c
  3577  0027C2  360D               	rlcf	___awdiv@quotient,f,c
  3578  0027C4  360E               	rlcf	___awdiv@quotient+1,f,c
  3579  0027C6  5009               	movf	___awdiv@divisor,w,c
  3580  0027C8  5C07               	subwf	___awdiv@dividend,w,c
  3581  0027CA  500A               	movf	___awdiv@divisor+1,w,c
  3582  0027CC  5808               	subwfb	___awdiv@dividend+1,w,c
  3583  0027CE  A0D8               	btfss	status,0,c
  3584  0027D0  D005               	goto	l2279
  3585  0027D2  5009               	movf	___awdiv@divisor,w,c
  3586  0027D4  5E07               	subwf	___awdiv@dividend,f,c
  3587  0027D6  500A               	movf	___awdiv@divisor+1,w,c
  3588  0027D8  5A08               	subwfb	___awdiv@dividend+1,f,c
  3589  0027DA  800D               	bsf	___awdiv@quotient,0,c
  3590  0027DC                     l2279:
  3591  0027DC  90D8               	bcf	status,0,c
  3592  0027DE  320A               	rrcf	___awdiv@divisor+1,f,c
  3593  0027E0  3209               	rrcf	___awdiv@divisor,f,c
  3594  0027E2  2E0B               	decfsz	___awdiv@counter,f,c
  3595  0027E4  D7ED               	goto	l2271
  3596  0027E6                     l2283:
  3597  0027E6  500C               	movf	___awdiv@sign,w,c
  3598  0027E8  B4D8               	btfsc	status,2,c
  3599  0027EA  D004               	goto	l2287
  3600  0027EC  6C0D               	negf	___awdiv@quotient,c
  3601  0027EE  1E0E               	comf	___awdiv@quotient+1,f,c
  3602  0027F0  B0D8               	btfsc	status,0,c
  3603  0027F2  2A0E               	incf	___awdiv@quotient+1,f,c
  3604  0027F4                     l2287:
  3605  0027F4  C00D  F007         	movff	___awdiv@quotient,?___awdiv
  3606  0027F8  C00E  F008         	movff	___awdiv@quotient+1,?___awdiv+1
  3607  0027FC  0012               	return	
  3608  0027FE                     __end_of___awdiv:
  3609                           	opt stack 0
  3610                           tblptru	equ	0xFF8
  3611                           tblptrh	equ	0xFF7
  3612                           tblptrl	equ	0xFF6
  3613                           tablat	equ	0xFF5
  3614                           prodh	equ	0xFF4
  3615                           prodl	equ	0xFF3
  3616                           wreg	equ	0xFE8
  3617                           indf2	equ	0xFDF
  3618                           postinc2	equ	0xFDE
  3619                           postdec2	equ	0xFDD
  3620                           fsr2h	equ	0xFDA
  3621                           fsr2l	equ	0xFD9
  3622                           status	equ	0xFD8
  3623                           
  3624 ;; *************** function __tdiv_to_l_ *****************
  3625 ;; Defined at:
  3626 ;;		line 60 in file "C:\Program Files (x86)\Microchip\xc8\v1.41\sources\common\ftdivl.c"
  3627 ;; Parameters:    Size  Location     Type
  3628 ;;  f1              3    0[COMRAM] float 
  3629 ;;  f2              3    3[COMRAM] float 
  3630 ;; Auto vars:     Size  Location     Type
  3631 ;;  quot            4    9[COMRAM] unsigned long 
  3632 ;;  exp1            1   14[COMRAM] unsigned char 
  3633 ;;  cntr            1   13[COMRAM] unsigned char 
  3634 ;; Return value:  Size  Location     Type
  3635 ;;                  4    0[COMRAM] unsigned long 
  3636 ;; Registers used:
  3637 ;;		wreg, status,2, status,0
  3638 ;; Tracked objects:
  3639 ;;		On entry : 0/0
  3640 ;;		On exit  : 0/0
  3641 ;;		Unchanged: 0/0
  3642 ;; Data sizes:     COMRAM   BANK0   BANK1   BANK2   BANK3   BANK4   BANK5   BANK6   BANK7   BANK8   BANK9  BANK10  BANK1
      +1  BANK12  BANK13  BANK14  BANK15
  3643 ;;      Params:         6       0       0       0       0       0       0       0       0       0       0       0       
      +0       0       0       0       0
  3644 ;;      Locals:         6       0       0       0       0       0       0       0       0       0       0       0       
      +0       0       0       0       0
  3645 ;;      Temps:          3       0       0       0       0       0       0       0       0       0       0       0       
      +0       0       0       0       0
  3646 ;;      Totals:        15       0       0       0       0       0       0       0       0       0       0       0       
      +0       0       0       0       0
  3647 ;;Total ram usage:       15 bytes
  3648 ;; Hardware stack levels used:    1
  3649 ;; This function calls:
  3650 ;;		Nothing
  3651 ;; This function is called by:
  3652 ;;		_sprintf
  3653 ;; This function uses a non-reentrant model
  3654 ;;
  3655                           
  3656                           	psect	text10
  3657  002114                     __ptext10:
  3658                           	opt stack 0
